{
  "address": "0x74f6d4d52af61AB78262Cd6D9cfb7306E8B313cf",
  "abi": [
    {
      "anonymous": false,
      "inputs": [
        {
          "indexed": true,
          "internalType": "uint256",
          "name": "gameId",
          "type": "uint256"
        },
        {
          "indexed": true,
          "internalType": "address[]",
          "name": "players",
          "type": "address[]"
        },
        {
          "indexed": true,
          "internalType": "uint256[]",
          "name": "scores",
          "type": "uint256[]"
        }
      ],
      "name": "GameOver",
      "type": "event"
    },
    {
      "anonymous": false,
      "inputs": [
        {
          "indexed": true,
          "internalType": "uint256",
          "name": "gameId",
          "type": "uint256"
        }
      ],
      "name": "LastTurn",
      "type": "event"
    },
    {
      "anonymous": false,
      "inputs": [
        {
          "indexed": true,
          "internalType": "uint256",
          "name": "gameId",
          "type": "uint256"
        }
      ],
      "name": "OverTime",
      "type": "event"
    },
    {
      "anonymous": false,
      "inputs": [
        {
          "indexed": true,
          "internalType": "uint256",
          "name": "gameId",
          "type": "uint256"
        },
        {
          "indexed": true,
          "internalType": "uint256",
          "name": "turn",
          "type": "uint256"
        },
        {
          "indexed": true,
          "internalType": "address",
          "name": "proposer",
          "type": "address"
        },
        {
          "indexed": false,
          "internalType": "bytes32",
          "name": "commitmentHash",
          "type": "bytes32"
        },
        {
          "indexed": false,
          "internalType": "string",
          "name": "proposalEncryptedByGM",
          "type": "string"
        }
      ],
      "name": "ProposalSubmitted",
      "type": "event"
    },
    {
      "anonymous": false,
      "inputs": [
        {
          "indexed": true,
          "internalType": "uint256",
          "name": "gameId",
          "type": "uint256"
        },
        {
          "indexed": true,
          "internalType": "uint256",
          "name": "turn",
          "type": "uint256"
        },
        {
          "indexed": false,
          "internalType": "address[]",
          "name": "players",
          "type": "address[]"
        },
        {
          "indexed": false,
          "internalType": "uint256[]",
          "name": "scores",
          "type": "uint256[]"
        }
      ],
      "name": "TurnEnded",
      "type": "event"
    },
    {
      "inputs": [
        {
          "internalType": "bytes",
          "name": "message",
          "type": "bytes"
        },
        {
          "internalType": "bytes",
          "name": "signature",
          "type": "bytes"
        },
        {
          "internalType": "address",
          "name": "account",
          "type": "address"
        }
      ],
      "name": "checkSignature",
      "outputs": [
        {
          "internalType": "bool",
          "name": "",
          "type": "bool"
        }
      ],
      "stateMutability": "view",
      "type": "function"
    },
    {
      "inputs": [
        {
          "internalType": "uint256",
          "name": "gameId",
          "type": "uint256"
        },
        {
          "internalType": "uint256[3][]",
          "name": "votes",
          "type": "uint256[3][]"
        },
        {
          "internalType": "string[]",
          "name": "newProposals",
          "type": "string[]"
        },
        {
          "internalType": "uint256[]",
          "name": "proposerIndicies",
          "type": "uint256[]"
        }
      ],
      "name": "endTurn",
      "outputs": [],
      "stateMutability": "nonpayable",
      "type": "function"
    },
    {
      "inputs": [
        {
          "internalType": "address",
          "name": "player",
          "type": "address"
        },
        {
          "internalType": "bytes32",
          "name": "turnSalt",
          "type": "bytes32"
        }
      ],
      "name": "playerSalt",
      "outputs": [
        {
          "internalType": "bytes32",
          "name": "",
          "type": "bytes32"
        }
      ],
      "stateMutability": "pure",
      "type": "function"
    },
    {
      "inputs": [
        {
          "components": [
            {
              "internalType": "uint256",
              "name": "gameId",
              "type": "uint256"
            },
            {
              "internalType": "string",
              "name": "encryptedProposal",
              "type": "string"
            },
            {
              "internalType": "bytes32",
              "name": "commitmentHash",
              "type": "bytes32"
            },
            {
              "internalType": "address",
              "name": "proposer",
              "type": "address"
            }
          ],
          "internalType": "struct GameMastersFacet.ProposalParams",
          "name": "proposalData",
          "type": "tuple"
        }
      ],
      "name": "submitProposal",
      "outputs": [],
      "stateMutability": "nonpayable",
      "type": "function"
    },
    {
      "inputs": [
        {
          "internalType": "uint256",
          "name": "gameId",
          "type": "uint256"
        },
        {
          "internalType": "address",
          "name": "voter",
          "type": "address"
        },
        {
          "internalType": "uint256[3]",
          "name": "votes",
          "type": "uint256[3]"
        },
        {
          "internalType": "bytes32",
          "name": "turnSalt",
          "type": "bytes32"
        },
        {
          "internalType": "address[]",
          "name": "prevProposersRevealed",
          "type": "address[]"
        }
      ],
      "name": "validateVote",
      "outputs": [],
      "stateMutability": "view",
      "type": "function"
    }
  ],
  "transactionHash": "0x99895f75eb4e7983949f3c200aa64fe54ed89b095c3579973223c574e64c505f",
  "args": [],
  "numDeployments": 1,
  "solcInputHash": "7d5c70c39a1e6e13ec0f782c58982e38",
  "bytecode": "0x608060405234801561001057600080fd5b50613fcb806100206000396000f3fe608060405234801561001057600080fd5b50600436106100675760003560e01c80637fb7f588116100505780637fb7f588146100945780639b961394146100fc578063ceb5beb61461010f57600080fd5b80630defca1a1461006c578063463bc35514610081575b600080fd5b61007f61007a366004613691565b610132565b005b61007f61008f3660046137d6565b610495565b6100e96100a236600461387e565b6040516bffffffffffffffffffffffff19606084901b1660208201526034810182905260009060540160405160208183030381529060405280519060200120905092915050565b6040519081526020015b60405180910390f35b61007f61010a36600461398e565b61078a565b61012261011d366004613a7f565b610983565b60405190151581526020016100f3565b600061013d866109ac565b9050600061018d86856040516bffffffffffffffffffffffff19606084901b1660208201526034810182905260009060540160405160208183030381529060405280519060200120905092915050565b905061019987876109e7565b6101ea5760405162461bcd60e51b815260206004820152601760248201527f506c61796572206e6f7420696e20746861742067616d6500000000000000000060448201526064015b60405180910390fd5b8451602086015160408701516000927fb0340e31209ab434190ce55f2c06dc1e1248dd9100d5a9d5d73e74d65c5da2139290918b6102568160009081527f91591bea3fc8863c74b4740fa2dfd9fd428a1e509b60555e4d1e8d8028901f33602052604090206001015490565b6040805160208101979097528601949094526060850192909252608084015260a083015260c082015260e081018390526101000160408051601f198184030181529181526001600160a01b038916600090815260068601602052908120600301805492935090916102c690613b09565b80601f01602080910402602001604051908101604052809291908181526020018280546102f290613b09565b801561033f5780601f106103145761010080835404028352916020019161033f565b820191906000526020600020905b81548152906001019060200180831161032257829003601f168201915b5050505050905061038e82826103898c60009081527f91591bea3fc8863c74b4740fa2dfd9fd428a1e509b60555e4d1e8d8028901f3360205260409020546001600160a01b031690565b610a59565b6103da5760405162461bcd60e51b815260206004820152601160248201527f696e76616c6964207369676e617475726500000000000000000000000000000060448201526064016101e1565b60005b600381101561048957886001600160a01b03168689836003811061040357610403613af3565b60200201518151811061041857610418613af3565b60200260200101516001600160a01b031614156104775760405162461bcd60e51b815260206004820152601160248201527f766f74656420666f722068696d73656c6600000000000000000000000000000060448201526064016101e1565b8061048181613b5a565b9150506103dd565b50505050505050505050565b80516104a090610a66565b80516104ab90610ac6565b80516104b690610b54565b156105035760405162461bcd60e51b815260206004820152600960248201527f47616d65206f766572000000000000000000000000000000000000000000000060448201526064016101e1565b805161050e90610bf6565b600061051d82600001516109ac565b825160608401516001600160a01b031660009081527f91591bea3fc8863c74b4740fa2dfd9fd428a1e509b60555e4d1e8d8028901f356020526040902054919250146105ab5760405162461bcd60e51b815260206004820152600c60248201527f6e6f74206120706c61796572000000000000000000000000000000000000000060448201526064016101e1565b81516105b690610c88565b156106035760405162461bcd60e51b815260206004820152601b60248201527f43616e6e6f742070726f706f736520696e206c617374207475726e000000000060448201526064016101e1565b6020820151516106555760405162461bcd60e51b815260206004820152601460248201527f43616e6e6f742070726f706f736520656d70747900000000000000000000000060448201526064016101e1565b60608201516001600160a01b03166000908152600482016020526040902054156106c15760405162461bcd60e51b815260206004820152601160248201527f416c72656164792070726f706f7365642100000000000000000000000000000060448201526064016101e1565b60408083015160608401516001600160a01b031660009081526004840160205291822055600582018054600192906106fa908490613b75565b90915550506060820151825160009081527f91591bea3fc8863c74b4740fa2dfd9fd428a1e509b60555e4d1e8d8028901f3360205260409020600101546001600160a01b03909116908351604080860151602087015191517f525b2e06a8f927c08033ec5d6334d7796bbea62d2d4f0486fe60196d4fe6d0ad9261077e9291613be5565b60405180910390a45050565b61079384610ac6565b600061079e856109ac565b90506107a985610b54565b156107f65760405162461bcd60e51b815260206004820152600960248201527f47616d65206f766572000000000000000000000000000000000000000000000060448201526064016101e1565b6107ff85610bf6565b60008581527f91591bea3fc8863c74b4740fa2dfd9fd428a1e509b60555e4d1e8d8028901f3360205260409020600101546001146108915761084085610d0f565b15156001146108915760405162461bcd60e51b815260206004820152601260248201527f43616e6e6f7420646f2074686973206e6f77000000000000000000000000000060448201526064016101e1565b61089a85610c88565b61092f576108a785610d9b565b51816005015414806108bd57506108bd85610dd7565b61092f5760405162461bcd60e51b815260206004820152602760248201527f536f6d6520706c6179657273207374696c6c20686176652074696d6520746f2060448201527f70726f706f73650000000000000000000000000000000000000000000000000060648201526084016101e1565b60008581527f91591bea3fc8863c74b4740fa2dfd9fd428a1e509b60555e4d1e8d8028901f33602052604090206001015460011461097257610972858584610e77565b61097c8584610fd3565b5050505050565b600080610996858051906020012061111e565b90506109a383828661116c565b95945050505050565b60008181527f91591bea3fc8863c74b4740fa2dfd9fd428a1e509b60555e4d1e8d8028901f3360205260408120600a015481905b9392505050565b6001600160a01b03811660009081527f91591bea3fc8863c74b4740fa2dfd9fd428a1e509b60555e4d1e8d8028901f3560205260408120547f91591bea3fc8863c74b4740fa2dfd9fd428a1e509b60555e4d1e8d8028901f2d908414610a4e576000610a51565b60015b949350505050565b6000610a51848484610983565b610a6e6111cd565b610a7781611246565b610ac35760405162461bcd60e51b815260206004820152600d60248201527f6e6f2067616d6520666f756e640000000000000000000000000000000000000060448201526064016101e1565b50565b610acf81610a66565b60008181527f91591bea3fc8863c74b4740fa2dfd9fd428a1e509b60555e4d1e8d8028901f3360205260409020546001600160a01b03163314610ac35760405162461bcd60e51b815260206004820152601060248201527f4f6e6c792067616d65206d61737465720000000000000000000000000000000060448201526064016101e1565b60008181527f91591bea3fc8863c74b4740fa2dfd9fd428a1e509b60555e4d1e8d8028901f33602052604081207f91591bea3fc8863c74b4740fa2dfd9fd428a1e509b60555e4d1e8d8028901f315460018201547f91591bea3fc8863c74b4740fa2dfd9fd428a1e509b60555e4d1e8d8028901f2d9291108015610bdd5750600b81015460ff16155b15610bec575060019392505050565b5060009392505050565b60008181527f91591bea3fc8863c74b4740fa2dfd9fd428a1e509b60555e4d1e8d8028901f336020526040902081610c3057610c30613bfe565b600481015460ff16610c845760405162461bcd60e51b815260206004820152601860248201527f47616d6520686173206e6f74207965742073746172746564000000000000000060448201526064016101e1565b5050565b60008181527f91591bea3fc8863c74b4740fa2dfd9fd428a1e509b60555e4d1e8d8028901f33602052604081207f91591bea3fc8863c74b4740fa2dfd9fd428a1e509b60555e4d1e8d8028901f315460018201547f91591bea3fc8863c74b4740fa2dfd9fd428a1e509b60555e4d1e8d8028901f2d92911415610bec575060019392505050565b60008181527f91591bea3fc8863c74b4740fa2dfd9fd428a1e509b60555e4d1e8d8028901f33602052604081206000610d4784610dd7565b90506000610d5783600501611295565b836008015414610d68576000610d6b565b60015b9050808015610d78575081155b80610d805750815b15610d9057506001949350505050565b506000949350505050565b60008181527f91591bea3fc8863c74b4740fa2dfd9fd428a1e509b60555e4d1e8d8028901f33602052604090206060906109e06005820161129f565b60008181527f91591bea3fc8863c74b4740fa2dfd9fd428a1e509b60555e4d1e8d8028901f33602052604081207f91591bea3fc8863c74b4740fa2dfd9fd428a1e509b60555e4d1e8d8028901f2d9083610e3357610e33613bfe565b600481015460ff161515600114610e4c57610e4c613bfe565b60028101548254610e5d9190613b75565b4311610e6d575060009392505050565b5060019392505050565b6000610e8284610d9b565b90506000815167ffffffffffffffff811115610ea057610ea06135b8565b604051908082528060200260200182016040528015610ec9578160200160208202803683370190505b50905060005b8251811015610fcb578251848281518110610eec57610eec613af3565b60200260200101511015610fb957610f1e8686868481518110610f1157610f11613af3565b60200260200101516112ac565b610f4a848381518110610f3357610f33613af3565b60200260200101518861147390919063ffffffff16565b610f549190613b75565b828281518110610f6657610f66613af3565b602002602001018181525050610fb9838281518110610f8757610f87613af3565b6020026020010151838381518110610fa157610fa1613af3565b6020026020010151886114be9092919063ffffffff16565b80610fc381613b5a565b915050610ecf565b505050505050565b610fdc82611562565b6000610fe783610d9b565b9050600080600080610ff887611755565b9350935093509350600061100b88611896565b91505060016110488960009081527f91591bea3fc8863c74b4740fa2dfd9fd428a1e509b60555e4d1e8d8028901f33602052604090206001015490565b6110529190613c14565b887fe4655953d7ed7da578b80b411e673ba9cd0b11c9d27a0d7c693fceeabd72b4418884604051611084929190613c2b565b60405180910390a38480156110965750835b156110c75760405188907f16b81a8b7a63ff74301aeb7a5b3048ff92880ec2bb0773136ed953bf4ef6f47390600090a25b84156110f95760405188907f355ab9c54569d91a1467b11b130e91c3f6c15c3c50c7225177cfaf66ba44ddd090600090a25b821561110a5761110a88838861199d565b6111148888611b48565b5050505050505050565b600061116661112b611bd1565b836040517f19010000000000000000000000000000000000000000000000000000000000008152600281019290925260228201526042902090565b92915050565b600080600061117b8585611ca2565b9092509050600081600481111561119457611194613caf565b1480156111b25750856001600160a01b0316826001600160a01b0316145b806111c357506111c3868686611ce8565b9695505050505050565b60006111d7611e1a565b600381015490915074010000000000000000000000000000000000000000900460ff16610ac35760405162461bcd60e51b815260206004820152600f60248201527f6f6e6c79496e697469616c697a6564000000000000000000000000000000000060448201526064016101e1565b60008181527f91591bea3fc8863c74b4740fa2dfd9fd428a1e509b60555e4d1e8d8028901f336020526040812080546001600160a01b03161561128c5750600192915050565b50600092915050565b6000611166825490565b606060006109e083611e43565b6000806112b885610d9b565b90506000805b82518110156114695784811461145757848682815181106112e1576112e1613af3565b60200260200101516000600381106112fb576112fb613af3565b6020020151141561131457611311600383613b75565b91505b8486828151811061132757611327613af3565b602002602001015160016003811061134157611341613af3565b6020020151141561135a57611357600283613b75565b91505b8486828151811061136d5761136d613af3565b602002602001015160026003811061138757611387613af3565b602002015114156113a05761139d600183613b75565b91505b82518682815181106113b4576113b4613af3565b60200260200101516000600381106113ce576113ce613af3565b6020020151101580611411575082518682815181106113ef576113ef613af3565b602002602001015160016003811061140957611409613af3565b602002015110155b8061144d5750825186828151811061142b5761142b613af3565b602002602001015160026003811061144557611445613af3565b602002015110155b1561145757600391505b8061146181613b5a565b9150506112be565b5095945050505050565b60009182527f91591bea3fc8863c74b4740fa2dfd9fd428a1e509b60555e4d1e8d8028901f33602090815260408084206001600160a01b039390931684526009909201905290205490565b60008381527f91591bea3fc8863c74b4740fa2dfd9fd428a1e509b60555e4d1e8d8028901f33602052604090206114f584846109e7565b6115415760405162461bcd60e51b815260206004820152601460248201527f706c61796572206e6f7420696e20612067616d6500000000000000000000000060448201526064016101e1565b6001600160a01b039092166000908152600990920160205260409091205550565b600061156d82610d9b565b9050600061157a836109ac565b600060038201819055600582018190559091505b825181101561174f576000801b8260040160008584815181106115b3576115b3613af3565b6020908102919091018101516001600160a01b03168252818101929092526040908101600090812093909355805180830180835284825285855260028701909352922091516116039291906134d1565b506000801b82600601600085848151811061162057611620613af3565b60200260200101516001600160a01b03166001600160a01b0316815260200190815260200160002060000160006003811061165d5761165d613af3565b01819055506000801b82600601600085848151811061167e5761167e613af3565b6020908102919091018101516001600160a01b03168252810191909152604001600020600101819055506000801b8260060160008584815181106116c4576116c4613af3565b6020908102919091018101516001600160a01b031682528101919091526040016000206002018190555081600601600084838151811061170657611706613af3565b60200260200101516001600160a01b03166001600160a01b03168152602001908152602001600020600301600061173d9190613551565b8061174781613b5a565b91505061158e565b50505050565b6000806000606060006117928660009081527f91591bea3fc8863c74b4740fa2dfd9fd428a1e509b60555e4d1e8d8028901f336020526040902090565b905061179d86610bf6565b6117a686611e9f565b6117af81611ef5565b60018160010160008282546117c49190613b75565b909155505043600282015560006117da87610c88565b600b83015490915060ff1660006117f089610d9b565b5167ffffffffffffffff811115611809576118096135b8565b604051908082528060200260200182016040528015611832578160200160208202803683370190505b50905082806118455750600b84015460ff165b80611854575061185489610b54565b156118785761186289611f59565b600b8601805460ff191683151517905590925090505b82826118838b610b54565b9199509750955093505050509193509193565b60608060006118a484610d9b565b90506000815167ffffffffffffffff8111156118c2576118c26135b8565b6040519080825280602002602001820160405280156118eb578160200160208202803683370190505b50905060005b8251811015611992576119638684838151811061191057611910613af3565b602002602001015160009182527f91591bea3fc8863c74b4740fa2dfd9fd428a1e509b60555e4d1e8d8028901f33602090815260408084206001600160a01b039390931684526009909201905290205490565b82828151811061197557611975613af3565b60209081029190910101528061198a81613b5a565b9150506118f1565b509094909350915050565b7fddce64af877bbb30b6a5e98c16fd4fee7160a0f8a0a2f9abfbb4a2d661459309805460ff1615611a105760405162461bcd60e51b815260206004820152601860248201527f5245473a20596f75207368616c6c206e6f74207061737321000000000000000060448201526064016101e1565b805460ff191660011781556000611a26856109ac565b9050611a3185612053565b611a3b85856120e6565b60005b8351811015611ad45760018201548551611a989188916001600160a01b03909116908890600090611a7157611a71613af3565b6020026020010151878581518110611a8b57611a8b613af3565b6020026020010151612369565b611ac230858381518110611aae57611aae613af3565b6020026020010151846000015460016123cc565b80611acc81613b5a565b915050611a3e565b506000611ae086611896565b91505080604051611af19190613cc5565b604051809103902084604051611b079190613cfb565b6040519081900381209088907f310cab2765035ece7f5c89e2f74e216e41485f0911e38063d06de80c47e14b7e90600090a45050805460ff19169055505050565b6000611b53836109ac565b905060005b825181101561174f57828181518110611b7357611b73613af3565b60200260200101518260020160008381526020019081526020016000209080519060200190611ba39291906134d1565b506001826003016000828254611bb99190613b75565b90915550819050611bc981613b5a565b915050611b58565b7fe5b6a7afa77789577f2802f0da58895f660e5798c5c11b2ea18b0a53bd65d3a9546000907fe5b6a7afa77789577f2802f0da58895f660e5798c5c11b2ea18b0a53bd65d3a7906001600160a01b031630148015611c325750806001015446145b15611c3d5754919050565b611c988160050154826003015483600401546040805160208101859052908101839052606081018290524660808201523060a082015260009060c0016040516020818303038152906040528051906020012090509392505050565b91505090565b5090565b600080825160411415611cd95760208301516040840151606085015160001a611ccd878285856125a0565b94509450505050611ce1565b506000905060025b9250929050565b6000806000856001600160a01b0316631626ba7e60e01b8686604051602401611d12929190613be5565b60408051601f198184030181529181526020820180517bffffffffffffffffffffffffffffffffffffffffffffffffffffffff167fffffffff00000000000000000000000000000000000000000000000000000000909416939093179092529051611d7d9190613d2e565b600060405180830381855afa9150503d8060008114611db8576040519150601f19603f3d011682016040523d82523d6000602084013e611dbd565b606091505b5091509150818015611dd157506020815110155b80156111c3575080517f1626ba7e0000000000000000000000000000000000000000000000000000000090611e0f9083016020908101908401613d4a565b149695505050505050565b6000807f7acf15cdb85906c3736403f86bf7ccb69a25bb6dbdcde1cbcbf35fe2a64df852611166565b606081600001805480602002602001604051908101604052809291908181526020018280548015611e9357602002820191906000526020600020905b815481526020019060010190808311611e7f575b50505050509050919050565b611ea881610b54565b15610ac35760405162461bcd60e51b815260206004820152600960248201527f47616d65206f766572000000000000000000000000000000000000000000000060448201526064016101e1565b60005b611f0482600501611295565b811015611f4e576000611f1a6005840183612664565b6001600160a01b031660009081526007840160205260409020805460ff191690555080611f4681613b5a565b915050611ef8565b506000600890910155565b600060607f91591bea3fc8863c74b4740fa2dfd9fd428a1e509b60555e4d1e8d8028901f2d8280611f8986611896565b91509150611fa681600060018451611fa19190613c14565b612670565b60005b60018351611fb79190613c14565b811015612044576005840154611fcf90600190613c14565b811161202d5781611fe1826001613b75565b81518110611ff157611ff1613af3565b602002602001015182828151811061200b5761200b613af3565b602002602001015114156120285750600196919550909350505050565b612032565b612044565b8061203c81613b5a565b915050611fa9565b50600096919550909350505050565b7f91591bea3fc8863c74b4740fa2dfd9fd428a1e509b60555e4d1e8d8028901f2d600061207f83610d9b565b905060005b815181101561174f5760008360080160008484815181106120a7576120a7613af3565b60200260200101516001600160a01b03166001600160a01b031681526020019081526020016000208190555080806120de90613b5a565b915050612084565b60006120f1836109ac565b905060006120fd611e1a565b600381015484519192506001600160a01b031690819063f242432a903090879060009061212c5761212c613af3565b6020026020010151866000015460016121459190613b75565b6040517fffffffff0000000000000000000000000000000000000000000000000000000060e086901b1681526001600160a01b03938416600482015292909116602483015260448201526001606482015260a06084820152600060a482015260c401600060405180830381600087803b1580156121c157600080fd5b505af11580156121d5573d6000803e3d6000fd5b50505050806001600160a01b031663f242432a30866001815181106121fc576121fc613af3565b602090810291909101015186546040517fffffffff0000000000000000000000000000000000000000000000000000000060e086901b1681526001600160a01b03938416600482015292909116602483015260448201526002606482015260a06084820152600060a482015260c401600060405180830381600087803b15801561228557600080fd5b505af1158015612299573d6000803e3d6000fd5b50505050806001600160a01b031663f242432a30866002815181106122c0576122c0613af3565b602090810291909101015186546040517fffffffff0000000000000000000000000000000000000000000000000000000060e086901b1681526001600160a01b03938416600482015292909116602483015260448201526001606482015260a06084820152600060a482015260c4015b600060405180830381600087803b15801561234a57600080fd5b505af115801561235e573d6000803e3d6000fd5b505050505050505050565b60006123be8560408051602080820193909352815180820384018152908201825280519083012060009081527fb12a0409539e5fa777ebbd0648c2d35d1b56f5385885518278a66364324a9138909252902090565b905061097c818585856127e9565b60006123d6611e1a565b9050600183111561097c5760038101546001600160a01b031682156124b8576040517ff242432a0000000000000000000000000000000000000000000000000000000081526001600160a01b0387811660048301528681166024830152604482018690526001606483015260a06084830152600260a48301527f307800000000000000000000000000000000000000000000000000000000000060c483015282169063f242432a9060e401600060405180830381600087803b15801561249b57600080fd5b505af11580156124af573d6000803e3d6000fd5b50505050610fcb565b6040517efdd58e0000000000000000000000000000000000000000000000000000000081526001600160a01b038781166004830152602482018690526000919083169062fdd58e9060440160206040518083038186803b15801561251b57600080fd5b505afa15801561252f573d6000803e3d6000fd5b505050506040513d601f19601f820116820180604052508101906125539190613d4a565b11610fcb5760405162461bcd60e51b815260206004820152601b60248201527f486173206e6f2072616e6b20666f72207468697320616374696f6e000000000060448201526064016101e1565b6000807f7fffffffffffffffffffffffffffffff5d576e7357a4501ddfe92f46681b20a08311156125d7575060009050600361265b565b6040805160008082526020820180845289905260ff881692820192909252606081018690526080810185905260019060a0016020604051602081039080840390855afa15801561262b573d6000803e3d6000fd5b5050604051601f1901519150506001600160a01b0381166126545760006001925092505061265b565b9150600090505b94509492505050565b60006109e0838361287e565b818180821415612681575050505050565b60008560026126908787613d63565b61269a9190613dbb565b6126a49087613df7565b815181106126b4576126b4613af3565b602002602001015190505b8183136127c3575b808684815181106126da576126da613af3565b602002602001015111156126fa57826126f281613e4f565b9350506126c7565b85828151811061270c5761270c613af3565b602002602001015181111561272d578161272581613e81565b9250506126fa565b8183136127be5785828151811061274657612746613af3565b602002602001015186848151811061276057612760613af3565b602002602001015187858151811061277a5761277a613af3565b6020026020010188858151811061279357612793613af3565b602090810291909101019190915252826127ac81613e4f565b93505081806127ba90613e81565b9250505b6126bf565b818512156127d6576127d6868684612670565b83831215610fcb57610fcb868486612670565b8360080154846007015485600601546128029190613b75565b1061284f5760405162461bcd60e51b815260206004820152601d60248201527f4e6f7420656e6f7567682062616c616e636520746f2072656c6561736500000060448201526064016101e1565b61285e843085856000866128a8565b60018460070160008282546128739190613b75565b909155505050505050565b600082600001828154811061289557612895613af3565b9060005260206000200154905092915050565b6001600160a01b0385163014156129d2576002860154156128fe5760028601546040516001600160a01b0383169180156108fc02916000818181858888f193505050501580156128fc573d6000803e3d6000fd5b505b6004860154156129435760048601546040516001600160a01b0386169180156108fc02916000818181858888f19350505050158015612941573d6000803e3d6000fd5b505b6005860154156129885760058601546040516001600160a01b0385169180156108fc02916000818181858888f19350505050158015612986573d6000803e3d6000fd5b505b6003860154156129cd5760038601546040516001600160a01b0384169180156108fc02916000818181858888f193505050501580156129cb573d6000803e3d6000fd5b505b612a5c565b600386015460058701546004880154600289015460009392916129f491613b75565b6129fe9190613b75565b612a089190613b75565b905080341015612a5a5760405162461bcd60e51b815260206004820152601160248201527f6d73672e76616c756520746f6f206c6f7700000000000000000000000000000060448201526064016101e1565b505b60005b600a870154811015612bdb57600087600a018281548110612a8257612a82613af3565b6000918252602082200154600b8a0180546001600160a01b0390921693509084908110612ab157612ab1613af3565b906000526020600020015490506000896009018481548110612ad557612ad5613af3565b60009182526020808320908204015460ff601f9092166101000a90041691508a81836002811115612b0857612b08613caf565b6002811115612b1957612b19613caf565b8152602080820192909252604090810160009081206001600160a01b0388168252835281812086825290925281209150826002811115612b5b57612b5b613caf565b1415612b7557612b7084828c8c8c8c8c612be4565b612bc4565b6002826002811115612b8957612b89613caf565b1415612b9a57612b7084828c612d37565b6001826002811115612bae57612bae613caf565b1415612bc457612bc48484838d8d8d8d8d612ec3565b505050508080612bd390613b5a565b915050612a5f565b50505050505050565b612bf78786838960020160010154613243565b612c0a8786848960040160010154613243565b612c1d8786868960060160010154613243565b612c308786858960080160010154613243565b600186015487908015801590612c4f57506001600160a01b0387163014155b1561235e576040517f70a082310000000000000000000000000000000000000000000000000000000081526001600160a01b0388811660048301528291908416906370a082319060240160206040518083038186803b158015612cb157600080fd5b505afa158015612cc5573d6000803e3d6000fd5b505050506040513d601f19601f82011682018060405250810190612ce99190613d4a565b101561235e5760405162461bcd60e51b815260206004820152601760248201527f4e6f7420656e6f75676820657263323020746f6b656e7300000000000000000060448201526064016101e1565b60038201548390158015612d4d57506005830154155b8015612d5b57506007830154155b8015612d6957506009830154155b612db55760405162461bcd60e51b815260206004820152601e60248201527f455243373231207472616e7366657273206e6f7420737570706f72746564000060448201526064016101e1565b600183015415801590612dd157506001600160a01b0382163014155b1561174f576040517f70a082310000000000000000000000000000000000000000000000000000000081526001600160a01b038381166004830152600091908316906370a082319060240160206040518083038186803b158015612e3457600080fd5b505afa158015612e48573d6000803e3d6000fd5b505050506040513d601f19601f82011682018060405250810190612e6c9190613d4a565b600185015490915081101561097c5760405162461bcd60e51b815260206004820152601960248201527f4e6f7420656e6f756768204552433732312062616c616e63650000000000000060448201526064016101e1565b600186015488908015612fbf576040517efdd58e0000000000000000000000000000000000000000000000000000000081526001600160a01b038881166004830152602482018b90526000919084169062fdd58e9060440160206040518083038186803b158015612f3357600080fd5b505afa158015612f47573d6000803e3d6000fd5b505050506040513d601f19601f82011682018060405250810190612f6b9190613d4a565b905081811015612fbd5760405162461bcd60e51b815260206004820152601c60248201527f455243313135352062616c616e6365206973206e6f742076616c69640000000060448201526064016101e1565b505b506007870154801561303857816001600160a01b031663f242432a88888c858d6006016000016040518663ffffffff1660e01b8152600401613005959493929190613e9f565b600060405180830381600087803b15801561301f57600080fd5b505af1158015613033573d6000803e3d6000fd5b505050505b50600987015480156130b157816001600160a01b031663f242432a88878c858d6008016000016040518663ffffffff1660e01b815260040161307e959493929190613e9f565b600060405180830381600087803b15801561309857600080fd5b505af11580156130ac573d6000803e3d6000fd5b505050505b50600587015480156131bf576001600160a01b038416613152576040517ff5298aca0000000000000000000000000000000000000000000000000000000081526001600160a01b038881166004830152602482018b90526044820183905283169063f5298aca90606401600060405180830381600087803b15801561313557600080fd5b505af1158015613149573d6000803e3d6000fd5b505050506131bf565b816001600160a01b031663f242432a88868c858d6004016000016040518663ffffffff1660e01b815260040161318c959493929190613e9f565b600060405180830381600087803b1580156131a657600080fd5b505af11580156131ba573d6000803e3d6000fd5b505050505b506003870154801561048957816001600160a01b031663f242432a88858c858d6002016000016040518663ffffffff1660e01b8152600401613205959493929190613e9f565b600060405180830381600087803b15801561321f57600080fd5b505af1158015613233573d6000803e3d6000fd5b5050505050505050505050505050565b83811561097c576001600160a01b038416301415613384576001600160a01b0383161561330c576040517fa9059cbb0000000000000000000000000000000000000000000000000000000081526001600160a01b0384811660048301526024820184905282169063a9059cbb906044015b602060405180830381600087803b1580156132ce57600080fd5b505af11580156132e2573d6000803e3d6000fd5b505050506040513d601f19601f820116820180604052508101906133069190613f73565b5061097c565b6040517f42966c68000000000000000000000000000000000000000000000000000000008152600481018390526001600160a01b038216906342966c6890602401600060405180830381600087803b15801561336757600080fd5b505af115801561337b573d6000803e3d6000fd5b5050505061097c565b6001600160a01b038316156133e9576040517f23b872dd0000000000000000000000000000000000000000000000000000000081526001600160a01b0385811660048301528481166024830152604482018490528216906323b872dd906064016132b4565b6040517f23b872dd0000000000000000000000000000000000000000000000000000000081526001600160a01b038581166004830152306024830152604482018490528216906323b872dd90606401602060405180830381600087803b15801561345257600080fd5b505af1158015613466573d6000803e3d6000fd5b505050506040513d601f19601f8201168201806040525081019061348a9190613f73565b506040517f42966c68000000000000000000000000000000000000000000000000000000008152600481018390526001600160a01b038216906342966c6890602401612330565b8280546134dd90613b09565b90600052602060002090601f0160209004810192826134ff5760008555613545565b82601f1061351857805160ff1916838001178555613545565b82800160010185558215613545579182015b8281111561354557825182559160200191906001019061352a565b50611c9e929150613587565b50805461355d90613b09565b6000825580601f1061356d575050565b601f016020900490600052602060002090810190610ac391905b5b80821115611c9e5760008155600101613588565b80356001600160a01b03811681146135b357600080fd5b919050565b634e487b7160e01b600052604160045260246000fd5b604051601f8201601f1916810167ffffffffffffffff811182821017156135f7576135f76135b8565b604052919050565b600082601f83011261361057600080fd5b6040516060810181811067ffffffffffffffff82111715613633576136336135b8565b60405280606084018581111561364857600080fd5b845b8181101561366257803583526020928301920161364a565b509195945050505050565b600067ffffffffffffffff821115613687576136876135b8565b5060051b60200190565b600080600080600060e086880312156136a957600080fd5b8535945060206136ba81880161359c565b94506136c988604089016135ff565b935060a0870135925060c087013567ffffffffffffffff8111156136ec57600080fd5b8701601f810189136136fd57600080fd5b803561371061370b8261366d565b6135ce565b81815260059190911b8201830190838101908b83111561372f57600080fd5b928401925b82841015613754576137458461359c565b82529284019290840190613734565b80955050505050509295509295909350565b600082601f83011261377757600080fd5b813567ffffffffffffffff811115613791576137916135b8565b6137a46020601f19601f840116016135ce565b8181528460208386010111156137b957600080fd5b816020850160208301376000918101602001919091529392505050565b6000602082840312156137e857600080fd5b813567ffffffffffffffff8082111561380057600080fd5b908301906080828603121561381457600080fd5b60405160808101818110838211171561382f5761382f6135b8565b6040528235815260208301358281111561384857600080fd5b61385487828601613766565b602083015250604083013560408201526138706060840161359c565b606082015295945050505050565b6000806040838503121561389157600080fd5b61389a8361359c565b946020939093013593505050565b600082601f8301126138b957600080fd5b813560206138c961370b8361366d565b82815260059290921b840181019181810190868411156138e857600080fd5b8286015b8481101561392857803567ffffffffffffffff81111561390c5760008081fd5b61391a8986838b0101613766565b8452509183019183016138ec565b509695505050505050565b600082601f83011261394457600080fd5b8135602061395461370b8361366d565b82815260059290921b8401810191818101908684111561397357600080fd5b8286015b848110156139285780358352918301918301613977565b600080600080608085870312156139a457600080fd5b8435935060208086013567ffffffffffffffff808211156139c457600080fd5b818801915088601f8301126139d857600080fd5b81356139e661370b8261366d565b8181526060918202840185019185820191908c841115613a0557600080fd5b948601945b83861015613a2b57613a1c8d876135ff565b83529485019491860191613a0a565b81995060408c0135965084871115613a4257600080fd5b613a4e8d888e016138a8565b98508b0135955050505080831115613a6557600080fd5b5050613a7387828801613933565b91505092959194509250565b600080600060608486031215613a9457600080fd5b833567ffffffffffffffff80821115613aac57600080fd5b613ab887838801613766565b94506020860135915080821115613ace57600080fd5b50613adb86828701613766565b925050613aea6040850161359c565b90509250925092565b634e487b7160e01b600052603260045260246000fd5b600181811c90821680613b1d57607f821691505b60208210811415613b3e57634e487b7160e01b600052602260045260246000fd5b50919050565b634e487b7160e01b600052601160045260246000fd5b6000600019821415613b6e57613b6e613b44565b5060010190565b60008219821115613b8857613b88613b44565b500190565b60005b83811015613ba8578181015183820152602001613b90565b8381111561174f5750506000910152565b60008151808452613bd1816020860160208601613b8d565b601f01601f19169290920160200192915050565b828152604060208201526000610a516040830184613bb9565b634e487b7160e01b600052600160045260246000fd5b600082821015613c2657613c26613b44565b500390565b604080825283519082018190526000906020906060840190828701845b82811015613c6d5781516001600160a01b031684529284019290840190600101613c48565b5050508381038285015284518082528583019183019060005b81811015613ca257835183529284019291840191600101613c86565b5090979650505050505050565b634e487b7160e01b600052602160045260246000fd5b815160009082906020808601845b83811015613cef57815185529382019390820190600101613cd3565b50929695505050505050565b815160009082906020808601845b83811015613cef5781516001600160a01b031685529382019390820190600101613d09565b60008251613d40818460208701613b8d565b9190910192915050565b600060208284031215613d5c57600080fd5b5051919050565b600080831283600160ff1b01831281151615613d8157613d81613b44565b837f7fffffffffffffffffffffffffffffffffffffffffffffffffffffffffffffff018313811615613db557613db5613b44565b50500390565b600082613dd857634e487b7160e01b600052601260045260246000fd5b6000198314600160ff1b83141615613df257613df2613b44565b500590565b6000808212827f7fffffffffffffffffffffffffffffffffffffffffffffffffffffffffffffff03841381151615613e3157613e31613b44565b82600160ff1b038412811615613e4957613e49613b44565b50500190565b60007f7fffffffffffffffffffffffffffffffffffffffffffffffffffffffffffffff821415613b6e57613b6e613b44565b6000600160ff1b821415613e9757613e97613b44565b506000190190565b60006001600160a01b03808816835260208188168185015286604085015285606085015260a0608085015260009150845482600182811c915080831680613ee757607f831692505b848310811415613f0557634e487b7160e01b86526022600452602486fd5b60a0880183905260c08801818015613f245760018114613f3557613f60565b60ff19861682528682019750613f60565b60008b81526020902060005b86811015613f5a57815484820152908501908801613f41565b83019850505b50959d9c50505050505050505050505050565b600060208284031215613f8557600080fd5b815180151581146109e057600080fdfea264697066735822122073a464761425e117a52fa99d033ac9764cb711b9b294a625c4380b10dbc93dd864736f6c63430008080033",
  "devdoc": {
    "kind": "dev",
    "methods": {},
    "version": 1
  },
  "userdoc": {
    "kind": "user",
    "methods": {},
    "version": 1
  },
  "storageLayout": {
    "storage": [],
    "types": null
  }
}