{
  "address": "0x7fD8b6dABFB3192Ff425399a89d56895f67731E0",
  "abi": [
    {
      "inputs": [
        {
          "internalType": "address",
          "name": "initializer",
          "type": "address"
        },
        {
          "internalType": "bytes4",
          "name": "initializerSelector",
          "type": "bytes4"
        },
        {
          "internalType": "bytes32",
          "name": "_distributionName",
          "type": "bytes32"
        },
        {
          "components": [
            {
              "internalType": "uint64",
              "name": "major",
              "type": "uint64"
            },
            {
              "internalType": "uint64",
              "name": "minor",
              "type": "uint64"
            },
            {
              "internalType": "uint128",
              "name": "patch",
              "type": "uint128"
            }
          ],
          "internalType": "struct LibSemver.Version",
          "name": "version",
          "type": "tuple"
        },
        {
          "internalType": "address",
          "name": "loupeFacet",
          "type": "address"
        },
        {
          "internalType": "address",
          "name": "inspectorFacet",
          "type": "address"
        },
        {
          "internalType": "address",
          "name": "RankifyMainFacet",
          "type": "address"
        },
        {
          "internalType": "address",
          "name": "RankifyReqsFacet",
          "type": "address"
        },
        {
          "internalType": "address",
          "name": "RankifyGMFacet",
          "type": "address"
        },
        {
          "internalType": "address",
          "name": "RankifyOwnerFacet",
          "type": "address"
        },
        {
          "internalType": "address",
          "name": "OwnershipFacetAddr",
          "type": "address"
        }
      ],
      "stateMutability": "nonpayable",
      "type": "constructor"
    },
    {
      "inputs": [
        {
          "internalType": "bytes32",
          "name": "codeId",
          "type": "bytes32"
        }
      ],
      "name": "CodeNotFoundInIndex",
      "type": "error"
    },
    {
      "inputs": [],
      "name": "ERC1167FailedCreateClone",
      "type": "error"
    },
    {
      "anonymous": false,
      "inputs": [
        {
          "indexed": true,
          "internalType": "address",
          "name": "distributor",
          "type": "address"
        },
        {
          "indexed": false,
          "internalType": "address[]",
          "name": "instances",
          "type": "address[]"
        }
      ],
      "name": "Distributed",
      "type": "event"
    },
    {
      "inputs": [],
      "name": "contractURI",
      "outputs": [
        {
          "internalType": "string",
          "name": "",
          "type": "string"
        }
      ],
      "stateMutability": "pure",
      "type": "function"
    },
    {
      "inputs": [],
      "name": "get",
      "outputs": [
        {
          "internalType": "address[]",
          "name": "",
          "type": "address[]"
        },
        {
          "internalType": "bytes32",
          "name": "name",
          "type": "bytes32"
        },
        {
          "internalType": "uint256",
          "name": "version",
          "type": "uint256"
        }
      ],
      "stateMutability": "view",
      "type": "function"
    },
    {
      "inputs": [
        {
          "internalType": "bytes",
          "name": "",
          "type": "bytes"
        }
      ],
      "name": "instantiate",
      "outputs": [
        {
          "internalType": "address[]",
          "name": "instances",
          "type": "address[]"
        },
        {
          "internalType": "bytes32",
          "name": "",
          "type": "bytes32"
        },
        {
          "internalType": "uint256",
          "name": "",
          "type": "uint256"
        }
      ],
      "stateMutability": "nonpayable",
      "type": "function"
    }
  ],
  "transactionHash": "0x8ebd1ec637c17096752f2cfc59671ffdc30b78f2ab59233a498fc0fe2ac36e29",
  "args": [
    "0x9984e431bbf58e674667BA909e4114C961b46578",
    "0x00000000",
    "0x4172677561626c65566f74696e67546f75726e616d656e740000000000000000",
    {
      "major": 1,
      "minor": 0,
      "patch": 0
    },
    "0x2692a6B25B1cE5f5D1c0c61F5585636b0E5E4Abb",
    "0x941D54F8DbFe25D1CAeb440b72C489AAc4Bb0450",
    "0x42ac3cd25A2dD958d933c84Fb9A455b5f35117Df",
    "0x842e90B6aa34Eb9fa11C064bBe02455e688350a3",
    "0xCc31ff75aa532248d546dAF712CB2E306A70BEc2",
    "0x022F5e6CD774DE0505977A5421c8f93374c3BC34",
    "0x5431F19cC79905E0cA07C33239A98AE9A1e1d79a"
  ],
  "numDeployments": 1,
  "solcInputHash": "8b178e5db390f3cab8ab670750551215",
  "bytecode": "0x6102206040523480156200001257600080fd5b5060405162006a9b38038062006a9b833981016040819052620000359162000255565b306000801b8b8260006040516200004c9062000204565b604051809103906000f08015801562000069573d6000803e3d6000fd5b509050600082826040516200007e9062000212565b6001600160a01b03928316815291166020820152604001604051809103906000f080158015620000b2573d6000803e3d6000fd5b506001600160a01b031660805250620000df91505073c0d31d398c5ee86c5f8a23fa253ee8a586da03ce90565b6001600160a01b0316638eaa6ac0836040518263ffffffff1660e01b81526004016200010d91815260200190565b602060405180830381865afa1580156200012b573d6000803e3d6000fd5b505050506040513d601f19601f82011682018060405250810190620001519190620003bf565b6001600160a01b0390811660a0526001600160e01b031990911660c0528d81166101c05289811660e052888116610100528781166101205286811661014052858116610160528481166101805283166101a05250506101e0899052620001ee88600081604001516001600160801b0316608083602001516001600160401b0316901b60c084600001516001600160401b0316901b17179050919050565b6102005250620003e49950505050505050505050565b6116dc80620026c783390190565b612cf88062003da383390190565b80516001600160a01b03811681146200023857600080fd5b919050565b80516001600160401b03811681146200023857600080fd5b60008060008060008060008060008060008b8d036101a08112156200027957600080fd5b620002848d62000220565b60208e0151909c506001600160e01b031981168114620002a357600080fd5b60408e0151909b5099506060605f1982011215620002c057600080fd5b50604051606081016001600160401b0381118282101715620002f257634e487b7160e01b600052604160045260246000fd5b6040526200030360608e016200023d565b81526200031360808e016200023d565b602082015260a08d01516001600160801b03811681146200033357600080fd5b604082015297506200034860c08d0162000220565b96506200035860e08d0162000220565b9550620003696101008d0162000220565b94506200037a6101208d0162000220565b93506200038b6101408d0162000220565b92506200039c6101608d0162000220565b9150620003ad6101808d0162000220565b90509295989b509295989b9093969950565b600060208284031215620003d257600080fd5b620003dd8262000220565b9392505050565b60805160a05160c05160e05161010051610120516101405161016051610180516101a0516101c0516101e0516102005161223162000496600039600081816119020152611ce60152600081816118df0152611cc301526000611592015260006114d8015260006113cd015260006110e101526000610f8601526000610e2b015260006104cf015260006103c401526000611b6c0152600081816101260152611c260152600061198d01526122316000f3fe608060405234801561001057600080fd5b50600436106100415760003560e01c80636d4ce63c146100465780639ca33c9e14610066578063e8a3d48514610079575b600080fd5b61004e61008e565b60405161005d93929190611ddc565b60405180910390f35b61004e610074366004611e17565b6101c9565b610081611933565b60405161005d9190611f18565b6060600080600061009d611961565b5050604080516002808252606082018352929350600092909160208301908036833701905050905081516001146100d6576100d6611f32565b816000815181106100e9576100e9611f48565b60200260200101518160008151811061010457610104611f48565b60200260200101906001600160a01b031690816001600160a01b0316815250507f00000000000000000000000000000000000000000000000000000000000000008160018151811061015857610158611f48565b6001600160a01b0390921660209283029190910182015260405183916101a291017f496e697469616c697a65644469616d6f6e64446973747269627574696f6e00008152601e0190565b6040516020818303038152906040526101ba90611f5e565b60009450945094505050909192565b606060008060006101d8611a2f565b505090506000816000815181106101f1576101f1611f48565b602002602001015190506000600867ffffffffffffffff81111561021757610217611e01565b60405190808252806020026020018201604052801561026457816020015b604080516060808201835260008083526020830152918101919091528152602001906001900390816102355790505b5060408051600480825260a082019092529192506000919060208201608080368337019050509050637a0ed62760e01b816000815181106102a7576102a7611f48565b6001600160e01b03199092166020928302919091019091015280517fadfca15e0000000000000000000000000000000000000000000000000000000090829060019081106102f7576102f7611f48565b6001600160e01b03199092166020928302919091019091015280517f52ef6b2c00000000000000000000000000000000000000000000000000000000908290600290811061034757610347611f48565b6001600160e01b03199092166020928302919091019091015280517fcdffacc600000000000000000000000000000000000000000000000000000000908290600390811061039757610397611f48565b6001600160e01b031990921660209283029190910182015260408051606081019091526001600160a01b037f000000000000000000000000000000000000000000000000000000000000000016815290810160008152602001828152508260008151811061040757610407611f48565b60209081029190910101526040805160028082526060820190925260009181602001602082028036833701905050905063d3a8018d60e01b8160008151811061045257610452611f48565b6001600160e01b03199092166020928302919091019091015280517f6cbadbfa0000000000000000000000000000000000000000000000000000000090829060019081106104a2576104a2611f48565b6001600160e01b031990921660209283029190910182015260408051606081019091526001600160a01b037f000000000000000000000000000000000000000000000000000000000000000016815290810160008152602001828152508360018151811061051257610512611f48565b602090810291909101015260408051601c8082526103a082019092526000918160200160208202803683370190505090506369958ab960e01b8160008151811061055e5761055e611f48565b6001600160e01b03199092166020928302919091019091015280517faee5f34a0000000000000000000000000000000000000000000000000000000090829060019081106105ae576105ae611f48565b6001600160e01b0319909216602092830291909101820152604080516060810190915260238082526105ec926121ac90830139805160209091012090565b816002815181106105ff576105ff611f48565b6001600160e01b03199092166020928302919091018201526040805160608101909152602d80825261063d926121cf90830139805160209091012090565b8160038151811061065057610650611f48565b6001600160e01b031990921660209283029190910182015260408051808201909152601b81527f63726561746547616d6528616464726573732c75696e743235362900000000009101527f07ead9304ed4c506629fd3beab7ecc0f07c2ade3fb42eb798fed46a8e7dacffb816004815181106106ce576106ce611f48565b6001600160e01b03199092166020928302919091019091015280517f3feef58a00000000000000000000000000000000000000000000000000000000908290600590811061071e5761071e611f48565b6001600160e01b03199092166020928302919091019091015280517fefaa55a000000000000000000000000000000000000000000000000000000000908290600690811061076e5761076e611f48565b6001600160e01b03199092166020928302919091019091015280517fcca84a0c0000000000000000000000000000000000000000000000000000000090829060079081106107be576107be611f48565b6001600160e01b03199092166020928302919091019091015280517fe5ed1d5900000000000000000000000000000000000000000000000000000000908290600890811061080e5761080e611f48565b6001600160e01b03199092166020928302919091019091015280517fbc197c8100000000000000000000000000000000000000000000000000000000908290600990811061085e5761085e611f48565b6001600160e01b03199092166020928302919091019091015280517ff23a6e6100000000000000000000000000000000000000000000000000000000908290600a9081106108ae576108ae611f48565b6001600160e01b03199092166020928302919091019091015280517f150b7a0200000000000000000000000000000000000000000000000000000000908290600b9081106108fe576108fe611f48565b6001600160e01b03199092166020928302919091019091015280517f7f4e484900000000000000000000000000000000000000000000000000000000908290600c90811061094e5761094e611f48565b6001600160e01b03199092166020928302919091019091015280517fb55991c000000000000000000000000000000000000000000000000000000000908290600d90811061099e5761099e611f48565b6001600160e01b03199092166020928302919091019091015280517ff72ea46700000000000000000000000000000000000000000000000000000000908290600e9081106109ee576109ee611f48565b6001600160e01b03199092166020928302919091019091015280517f04527d9000000000000000000000000000000000000000000000000000000000908290600f908110610a3e57610a3e611f48565b6001600160e01b03199092166020928302919091019091015280517f9637460e000000000000000000000000000000000000000000000000000000009082906010908110610a8e57610a8e611f48565b6001600160e01b03199092166020928302919091019091015280517f8eed01f8000000000000000000000000000000000000000000000000000000009082906011908110610ade57610ade611f48565b6001600160e01b03199092166020928302919091019091015280517fbfa64036000000000000000000000000000000000000000000000000000000009082906012908110610b2e57610b2e611f48565b6001600160e01b03199092166020928302919091019091015280517fb881cffe000000000000000000000000000000000000000000000000000000009082906013908110610b7e57610b7e611f48565b6001600160e01b03199092166020928302919091019091015280517f4024ba75000000000000000000000000000000000000000000000000000000009082906014908110610bce57610bce611f48565b6001600160e01b03199092166020928302919091019091015280517f9a214b1e000000000000000000000000000000000000000000000000000000009082906015908110610c1e57610c1e611f48565b6001600160e01b03199092166020928302919091019091015280517f460e2049000000000000000000000000000000000000000000000000000000009082906016908110610c6e57610c6e611f48565b6001600160e01b03199092166020928302919091019091015280517f392b749c000000000000000000000000000000000000000000000000000000009082906017908110610cbe57610cbe611f48565b6001600160e01b03199092166020928302919091019091015280517f58759df7000000000000000000000000000000000000000000000000000000009082906018908110610d0e57610d0e611f48565b6001600160e01b03199092166020928302919091019091015280517f8d3b80b3000000000000000000000000000000000000000000000000000000009082906019908110610d5e57610d5e611f48565b6001600160e01b03199092166020928302919091019091015280517fde83804800000000000000000000000000000000000000000000000000000000908290601a908110610dae57610dae611f48565b6001600160e01b03199092166020928302919091019091015280517f3528dff700000000000000000000000000000000000000000000000000000000908290601b908110610dfe57610dfe611f48565b6001600160e01b031990921660209283029190910182015260408051606081019091526001600160a01b037f0000000000000000000000000000000000000000000000000000000000000000168152908101600081526020018281525084600281518110610e6e57610e6e611f48565b60209081029190910101526040805160038082526080820190925260009181602001602082028036833701905050905063bbb294f860e01b81600081518110610eb957610eb9611f48565b6001600160e01b03199092166020928302919091019091015280517fbf0f2d7e000000000000000000000000000000000000000000000000000000009082906001908110610f0957610f09611f48565b6001600160e01b03199092166020928302919091019091015280517f8f298b2a000000000000000000000000000000000000000000000000000000009082906002908110610f5957610f59611f48565b6001600160e01b031990921660209283029190910182015260408051606081019091526001600160a01b037f0000000000000000000000000000000000000000000000000000000000000000168152908101600081526020018281525085600381518110610fc957610fc9611f48565b602090810291909101015260408051600380825260808201909252600091816020016020820280368337019050509050636a99473560e01b8160008151811061101457611014611f48565b6001600160e01b03199092166020928302919091019091015280517f463bc35500000000000000000000000000000000000000000000000000000000908290600190811061106457611064611f48565b6001600160e01b03199092166020928302919091019091015280517f0c6446d50000000000000000000000000000000000000000000000000000000090829060029081106110b4576110b4611f48565b6001600160e01b031990921660209283029190910182015260408051606081019091526001600160a01b037f000000000000000000000000000000000000000000000000000000000000000016815290810160008152602001828152508660048151811061112457611124611f48565b602090810291909101015260408051600880825261012082019092526000918160200160208202803683370190505090506326126d4660e01b8160008151811061117057611170611f48565b6001600160e01b03199092166020928302919091019091015280517f59db5bf70000000000000000000000000000000000000000000000000000000090829060019081106111c0576111c0611f48565b6001600160e01b03199092166020928302919091019091015280517f869dc02100000000000000000000000000000000000000000000000000000000908290600290811061121057611210611f48565b6001600160e01b03199092166020928302919091019091015280517fc94b01da00000000000000000000000000000000000000000000000000000000908290600390811061126057611260611f48565b6001600160e01b03199092166020928302919091019091015280517f865173410000000000000000000000000000000000000000000000000000000090829060049081106112b0576112b0611f48565b6001600160e01b03199092166020928302919091019091015280517f924b5bb100000000000000000000000000000000000000000000000000000000908290600590811061130057611300611f48565b6001600160e01b03199092166020928302919091019091015280517f911f8e1b00000000000000000000000000000000000000000000000000000000908290600690811061135057611350611f48565b6001600160e01b03199092166020928302919091019091015280517f966fb1ea0000000000000000000000000000000000000000000000000000000090829060079081106113a0576113a0611f48565b6001600160e01b031990921660209283029190910182015260408051606081019091526001600160a01b037f000000000000000000000000000000000000000000000000000000000000000016815290810160008152602001828152508760058151811061141057611410611f48565b60209081029190910101526040805160028082526060820190925260009181602001602082028036833701905050905063f2fde38b60e01b8160008151811061145b5761145b611f48565b6001600160e01b03199092166020928302919091019091015280517f8da5cb5b0000000000000000000000000000000000000000000000000000000090829060019081106114ab576114ab611f48565b6001600160e01b031990921660209283029190910182015260408051606081019091526001600160a01b037f000000000000000000000000000000000000000000000000000000000000000016815290810160008152602001828152508860068151811061151b5761151b611f48565b6020908102919091010152604080516001808252818301909252600091816020016020820280368337019050509050631eea6f8960e01b8160008151811061156557611565611f48565b6001600160e01b031990921660209283029190910182015260408051606081019091526001600160a01b037f00000000000000000000000000000000000000000000000000000000000000001681529081016000815260200182815250896007815181106115d5576115d5611f48565b60200260200101819052506115fa8a8a60405180602001604052806000815250611b4b565b604080516009808252610140820190925260009160208201610120803683370190505090508a8160008151811061163357611633611f48565b60200260200101906001600160a01b031690816001600160a01b0316815250508960008151811061166657611666611f48565b6020026020010151600001518160018151811061168557611685611f48565b60200260200101906001600160a01b031690816001600160a01b031681525050896001815181106116b8576116b8611f48565b602002602001015160000151816002815181106116d7576116d7611f48565b60200260200101906001600160a01b031690816001600160a01b0316815250508960028151811061170a5761170a611f48565b6020026020010151600001518160038151811061172957611729611f48565b60200260200101906001600160a01b031690816001600160a01b0316815250508960038151811061175c5761175c611f48565b6020026020010151600001518160048151811061177b5761177b611f48565b60200260200101906001600160a01b031690816001600160a01b031681525050896004815181106117ae576117ae611f48565b602002602001015160000151816005815181106117cd576117cd611f48565b60200260200101906001600160a01b031690816001600160a01b0316815250508960058151811061180057611800611f48565b6020026020010151600001518160068151811061181f5761181f611f48565b60200260200101906001600160a01b031690816001600160a01b0316815250508960068151811061185257611852611f48565b6020026020010151600001518160078151811061187157611871611f48565b60200260200101906001600160a01b031690816001600160a01b031681525050896007815181106118a4576118a4611f48565b602002602001015160000151816008815181106118c3576118c3611f48565b6001600160a01b0392909216602092830291909101909101529f7f00000000000000000000000000000000000000000000000000000000000000009f507f00000000000000000000000000000000000000000000000000000000000000009e509c50505050505050505050505050565b606061193d611c88565b60405160200161194d9190611f85565b604051602081830303815290604052905090565b6040805160018082528183019092526060916000918291829190602080830190803683370190505090507f0000000000000000000000000000000000000000000000000000000000000000816000815181106119bf576119bf611f48565b6001600160a01b039092166020928302919091018201526040518291611a0991017f4469616d6f6e64446973747269627574696f6e00000000000000000000000000815260130190565b604051602081830303815290604052611a2190611f5e565b600093509350935050909192565b60606000806000806000611a41611caf565b825192955090935091508067ffffffffffffffff811115611a6457611a64611e01565b604051908082528060200260200182016040528015611a8d578160200160208202803683370190505b50965060005b81811015611afd576000611abf868381518110611ab257611ab2611f48565b6020026020010151611d0d565b905080898381518110611ad457611ad4611f48565b6001600160a01b039092166020928302919091019091015250611af681611fec565b9050611a93565b50336001600160a01b03167fe3cc25159981d843f19d5a7611997a66ca6e772edd134fb611c7b29aded7bb8a88604051611b379190612014565b60405180910390a250949590949350915050565b600080825111611b6a5760405180602001604052806000815250611be4565b7f000000000000000000000000000000000000000000000000000000000000000082604051602401611b9c9190611f18565b60408051601f198184030181529190526020810180517bffffffffffffffffffffffffffffffffffffffffffffffffffffffff166001600160e01b0319909316929092179091525b6040517f1f931c1c0000000000000000000000000000000000000000000000000000000081529091506001600160a01b03851690631f931c1c90611c509086907f0000000000000000000000000000000000000000000000000000000000000000908690600401612027565b600060405180830381600087803b158015611c6a57600080fd5b505af1158015611c7e573d6000803e3d6000fd5b5050505050505050565b6060611c9f60408051602081019091526000815290565b60405160200161194d9190612144565b60606000806000611cbe611961565b5090957f000000000000000000000000000000000000000000000000000000000000000095507f0000000000000000000000000000000000000000000000000000000000000000945092505050565b6000763d602d80600a3d3981f3363d3d373d3d3d363d730000008260601b60e81c176000526e5af43d82803e903d91602b57fd5bf38260781b17602052603760096000f090506001600160a01b038116611d93576040517fc2f868f400000000000000000000000000000000000000000000000000000000815260040160405180910390fd5b919050565b600081518084526020808501945080840160005b83811015611dd15781516001600160a01b031687529582019590820190600101611dac565b509495945050505050565b606081526000611def6060830186611d98565b60208301949094525060400152919050565b634e487b7160e01b600052604160045260246000fd5b600060208284031215611e2957600080fd5b813567ffffffffffffffff80821115611e4157600080fd5b818401915084601f830112611e5557600080fd5b813581811115611e6757611e67611e01565b604051601f8201601f19908116603f01168101908382118183101715611e8f57611e8f611e01565b81604052828152876020848701011115611ea857600080fd5b826020860160208301376000928101602001929092525095945050505050565b60005b83811015611ee3578181015183820152602001611ecb565b50506000910152565b60008151808452611f04816020860160208601611ec8565b601f01601f19169290920160200192915050565b602081526000611f2b6020830184611eec565b9392505050565b634e487b7160e01b600052600160045260246000fd5b634e487b7160e01b600052603260045260246000fd5b80516020808301519190811015611f7f576000198160200360031b1b821691505b50919050565b60008251611f97818460208701611ec8565b7f3b000000000000000000000000000000000000000000000000000000000000009201918252507f4172677561626c65566f74696e67546f75726e616d656e7400000000000000006001820152601901919050565b6000600019820361200d57634e487b7160e01b600052601160045260246000fd5b5060010190565b602081526000611f2b6020830184611d98565b60006060808301818452808751808352608092508286019150828160051b8701016020808b0160005b84811015612114577fffffffffffffffffffffffffffffffffffffffffffffffffffffffffffffff808a850301865281518885016001600160a01b03825116865284820151600381106120b357634e487b7160e01b600052602160045260246000fd5b868601526040918201519186018a905281519081905290840190600090898701905b808310156120ff5783516001600160e01b03191682529286019260019290920191908601906120d5565b50978501979550505090820190600101612050565b50506001600160a01b038a169088015286810360408801526121368189611eec565b9a9950505050505050505050565b60008251612156818460208701611ec8565b7f3b000000000000000000000000000000000000000000000000000000000000009201918252507f496e697469616c697a65644469616d6f6e64446973747269627574696f6e00006001820152601f0191905056fe63726561746547616d6528616464726573732c75696e743235362c75696e743235362963726561746547616d6528616464726573732c75696e743235362c75696e743235362c616464726573735b5d29a2646970667358221220532dcaeb52c1f08b316968efb199d6295c21b7b76fe14f92c6054f65e8c6851264736f6c63430008140033608060405234801561001057600080fd5b506116bc806100206000396000f3fe608060405234801561001057600080fd5b506004361061002b5760003560e01c80631f931c1c14610030575b600080fd5b61004361003e3660046111ce565b610045565b005b61004d610067565b61006161005a848661129d565b8383610110565b50505050565b7fc8fcad8db84d3cc18b4c41d551ea0ee66dd599cde068d998e57d5e09332c131c600401546001600160a01b0316331461010e5760405162461bcd60e51b815260206004820152602260248201527f4c69624469616d6f6e643a204d75737420626520636f6e7472616374206f776e60448201527f657200000000000000000000000000000000000000000000000000000000000060648201526084015b60405180910390fd5b565b60005b83518110156102ec576000848281518110610130576101306113e1565b602002602001015160200151905060006002811115610151576101516113f7565b816002811115610163576101636113f7565b036101b1576101ac85838151811061017d5761017d6113e1565b60200260200101516000015186848151811061019b5761019b6113e1565b602002602001015160400151610337565b6102d9565b60018160028111156101c5576101c56113f7565b0361020e576101ac8583815181106101df576101df6113e1565b6020026020010151600001518684815181106101fd576101fd6113e1565b60200260200101516040015161061f565b6002816002811115610222576102226113f7565b0361026b576101ac85838151811061023c5761023c6113e1565b60200260200101516000015186848151811061025a5761025a6113e1565b602002602001015160400151610910565b60405162461bcd60e51b815260206004820152602760248201527f4c69624469616d6f6e644375743a20496e636f7272656374204661636574437560448201527f74416374696f6e000000000000000000000000000000000000000000000000006064820152608401610105565b50806102e481611423565b915050610113565b507f8faa70878671ccd212d20771b795c50af8fd3ff6cf27f4bde57e5d4de0aeb6738383836040516103209392919061148d565b60405180910390a16103328282610a97565b505050565b60008151116103ae5760405162461bcd60e51b815260206004820152602b60248201527f4c69624469616d6f6e644375743a204e6f2073656c6563746f727320696e206660448201527f6163657420746f206375740000000000000000000000000000000000000000006064820152608401610105565b7fc8fcad8db84d3cc18b4c41d551ea0ee66dd599cde068d998e57d5e09332c131c6001600160a01b03831661044b5760405162461bcd60e51b815260206004820152602c60248201527f4c69624469616d6f6e644375743a204164642066616365742063616e2774206260448201527f65206164647265737328302900000000000000000000000000000000000000006064820152608401610105565b6001600160a01b0383166000908152600182016020526040812054906bffffffffffffffffffffffff82169003610486576104868285610c44565b60005b83518110156106185760008482815181106104a6576104a66113e1565b6020908102919091018101516001600160e01b031981166000908152918690526040909120549091506001600160a01b0316801561054c5760405162461bcd60e51b815260206004820152603560248201527f4c69624469616d6f6e644375743a2043616e2774206164642066756e6374696f60448201527f6e207468617420616c72656164792065786973747300000000000000000000006064820152608401610105565b6001600160e01b0319821660008181526020878152604080832080546001600160a01b03908116600160a01b6bffffffffffffffffffffffff8c16021782558c168085526001808c0185529285208054938401815585528385206008840401805463ffffffff60079095166004026101000a948502191660e08a901c949094029390931790925593909252879052815473ffffffffffffffffffffffffffffffffffffffff191617905583610600816115aa565b9450505050808061061090611423565b915050610489565b5050505050565b60008151116106965760405162461bcd60e51b815260206004820152602b60248201527f4c69624469616d6f6e644375743a204e6f2073656c6563746f727320696e206660448201527f6163657420746f206375740000000000000000000000000000000000000000006064820152608401610105565b7fc8fcad8db84d3cc18b4c41d551ea0ee66dd599cde068d998e57d5e09332c131c6001600160a01b0383166107335760405162461bcd60e51b815260206004820152602c60248201527f4c69624469616d6f6e644375743a204164642066616365742063616e2774206260448201527f65206164647265737328302900000000000000000000000000000000000000006064820152608401610105565b6001600160a01b0383166000908152600182016020526040812054906bffffffffffffffffffffffff8216900361076e5761076e8285610c44565b60005b835181101561061857600084828151811061078e5761078e6113e1565b6020908102919091018101516001600160e01b031981166000908152918690526040909120549091506001600160a01b0390811690871681036108395760405162461bcd60e51b815260206004820152603860248201527f4c69624469616d6f6e644375743a2043616e2774207265706c6163652066756e60448201527f6374696f6e20776974682073616d652066756e6374696f6e00000000000000006064820152608401610105565b610844858284610cbb565b6001600160e01b0319821660008181526020878152604080832080546001600160a01b03908116600160a01b6bffffffffffffffffffffffff8c16021782558c168085526001808c0185529285208054938401815585528385206008840401805463ffffffff60079095166004026101000a948502191660e08a901c949094029390931790925593909252879052815473ffffffffffffffffffffffffffffffffffffffff1916179055836108f8816115aa565b9450505050808061090890611423565b915050610771565b60008151116109875760405162461bcd60e51b815260206004820152602b60248201527f4c69624469616d6f6e644375743a204e6f2073656c6563746f727320696e206660448201527f6163657420746f206375740000000000000000000000000000000000000000006064820152608401610105565b7fc8fcad8db84d3cc18b4c41d551ea0ee66dd599cde068d998e57d5e09332c131c6001600160a01b03831615610a255760405162461bcd60e51b815260206004820152603660248201527f4c69624469616d6f6e644375743a2052656d6f7665206661636574206164647260448201527f657373206d7573742062652061646472657373283029000000000000000000006064820152608401610105565b60005b8251811015610061576000838281518110610a4557610a456113e1565b6020908102919091018101516001600160e01b031981166000908152918590526040909120549091506001600160a01b0316610a82848284610cbb565b50508080610a8f90611423565b915050610a28565b6001600160a01b038216610b1e57805115610b1a5760405162461bcd60e51b815260206004820152603c60248201527f4c69624469616d6f6e644375743a205f696e697420697320616464726573732860448201527f3029206275745f63616c6c64617461206973206e6f7420656d707479000000006064820152608401610105565b5050565b6001600160a01b0382163014610b5057610b508260405180606001604052806028815260200161163b602891396110b1565b600080836001600160a01b031683604051610b6b91906115d5565b600060405180830381855af49150503d8060008114610ba6576040519150601f19603f3d011682016040523d82523d6000602084013e610bab565b606091505b50915091508161006157805115610bd6578060405162461bcd60e51b815260040161010591906115f1565b60405162461bcd60e51b815260206004820152602660248201527f4c69624469616d6f6e644375743a205f696e69742066756e6374696f6e20726560448201527f76657274656400000000000000000000000000000000000000000000000000006064820152608401610105565b610c6681604051806060016040528060248152602001611663602491396110b1565b6002820180546001600160a01b03909216600081815260019485016020908152604082208601859055948401835591825292902001805473ffffffffffffffffffffffffffffffffffffffff19169091179055565b6001600160a01b038216610d375760405162461bcd60e51b815260206004820152603760248201527f4c69624469616d6f6e644375743a2043616e27742072656d6f76652066756e6360448201527f74696f6e207468617420646f65736e27742065786973740000000000000000006064820152608401610105565b306001600160a01b03831603610db55760405162461bcd60e51b815260206004820152602e60248201527f4c69624469616d6f6e644375743a2043616e27742072656d6f766520696d6d7560448201527f7461626c652066756e6374696f6e0000000000000000000000000000000000006064820152608401610105565b6001600160e01b03198116600090815260208481526040808320546001600160a01b0386168452600180880190935290832054600160a01b9091046bffffffffffffffffffffffff169291610e099161160b565b9050808214610f00576001600160a01b03841660009081526001860160205260408120805483908110610e3e57610e3e6113e1565b600091825260208083206008830401546001600160a01b038916845260018a019091526040909220805460079092166004026101000a90920460e01b925082919085908110610e8f57610e8f6113e1565b600091825260208083206008830401805463ffffffff60079094166004026101000a938402191660e09590951c929092029390931790556001600160e01b03199290921682528690526040902080546001600160a01b0316600160a01b6bffffffffffffffffffffffff8516021790555b6001600160a01b03841660009081526001860160205260409020805480610f2957610f29611624565b60008281526020808220600860001990940193840401805463ffffffff600460078716026101000a0219169055919092556001600160e01b03198516825286905260408120819055819003610618576002850154600090610f8c9060019061160b565b6001600160a01b0386166000908152600180890160205260409091200154909150808214611048576000876002018381548110610fcb57610fcb6113e1565b6000918252602090912001546002890180546001600160a01b039092169250829184908110610ffc57610ffc6113e1565b6000918252602080832091909101805473ffffffffffffffffffffffffffffffffffffffff19166001600160a01b03948516179055929091168152600189810190925260409020018190555b8660020180548061105b5761105b611624565b600082815260208082208301600019908101805473ffffffffffffffffffffffffffffffffffffffff191690559092019092556001600160a01b0388168252600189810190915260408220015550505050505050565b813b81816100615760405162461bcd60e51b815260040161010591906115f1565b80356001600160a01b03811681146110e957600080fd5b919050565b634e487b7160e01b600052604160045260246000fd5b6040516060810167ffffffffffffffff81118282101715611127576111276110ee565b60405290565b604051601f8201601f1916810167ffffffffffffffff81118282101715611156576111566110ee565b604052919050565b600082601f83011261116f57600080fd5b813567ffffffffffffffff811115611189576111896110ee565b61119c6020601f19601f8401160161112d565b8181528460208386010111156111b157600080fd5b816020850160208301376000918101602001919091529392505050565b600080600080606085870312156111e457600080fd5b843567ffffffffffffffff808211156111fc57600080fd5b818701915087601f83011261121057600080fd5b81358181111561121f57600080fd5b8860208260051b850101111561123457600080fd5b6020830196508095505061124a602088016110d2565b9350604087013591508082111561126057600080fd5b5061126d8782880161115e565b91505092959194509250565b600067ffffffffffffffff821115611293576112936110ee565b5060051b60200190565b60006112b06112ab84611279565b61112d565b83815260208082019190600586811b8601368111156112ce57600080fd5b865b818110156113d457803567ffffffffffffffff808211156112f15760008081fd5b818a019150606082360312156113075760008081fd5b61130f611104565b611318836110d2565b8152868301356003811061132c5760008081fd5b81880152604083810135838111156113445760008081fd5b939093019236601f85011261135b57600092508283fd5b8335925061136b6112ab84611279565b83815292871b840188019288810190368511156113885760008081fd5b948901945b848610156113bd5785356001600160e01b0319811681146113ae5760008081fd5b8252948901949089019061138d565b9183019190915250885250509483019483016112d0565b5092979650505050505050565b634e487b7160e01b600052603260045260246000fd5b634e487b7160e01b600052602160045260246000fd5b634e487b7160e01b600052601160045260246000fd5b600060001982036114365761143661140d565b5060010190565b60005b83811015611458578181015183820152602001611440565b50506000910152565b6000815180845261147981602086016020860161143d565b601f01601f19169290920160200192915050565b60006060808301818452808751808352608092508286019150828160051b8701016020808b0160005b8481101561157a577fffffffffffffffffffffffffffffffffffffffffffffffffffffffffffffff808a850301865281518885016001600160a01b038251168652848201516003811061151957634e487b7160e01b600052602160045260246000fd5b868601526040918201519186018a905281519081905290840190600090898701905b808310156115655783516001600160e01b031916825292860192600192909201919086019061153b565b509785019795505050908201906001016114b6565b50506001600160a01b038a1690880152868103604088015261159c8189611461565b9a9950505050505050505050565b60006bffffffffffffffffffffffff8083168181036115cb576115cb61140d565b6001019392505050565b600082516115e781846020870161143d565b9190910192915050565b6020815260006116046020830184611461565b9392505050565b8181038181111561161e5761161e61140d565b92915050565b634e487b7160e01b600052603160045260246000fdfe4c69624469616d6f6e644375743a205f696e6974206164647265737320686173206e6f20636f64654c69624469616d6f6e644375743a204e657720666163657420686173206e6f20636f6465a26469706673582212208dfddeca5a793d32c146b4bfca0e8e1c32a2091e17d98823dbfb609c232b139f64736f6c6343000814003360a060405260405162002cf838038062002cf88339810160408190526200002691620010fc565b6001600160a01b0381166080526200003e8262000046565b50506200138a565b620000518162000163565b604080516001808252818301909252600091816020015b60408051606080820183526000808352602083015291810191909152815260200190600190039081620000685750506040805160018082528183019092529192506000919060208083019080368337019050509050631f931c1c60e01b81600081518110620000db57620000db62001134565b6001600160e01b031990921660209283029190910182015260408051606081019091526080516001600160a01b0316815290810160008152602001828152508260008151811062000130576200013062001134565b60200260200101819052506200015e82600060405180602001604052806000815250620001e760201b60201c565b505050565b7fc8fcad8db84d3cc18b4c41d551ea0ee66dd599cde068d998e57d5e09332c132080546001600160a01b031981166001600160a01b0384811691821790935560405160008051602062002c4c833981519152939092169182907f8be0079c531659141344cd1fd0a4f28419497f9722a3daafe3b4186f6b6457e090600090a3505050565b60005b8351811015620003f35760008482815181106200020b576200020b62001134565b6020026020010151602001519050600060028111156200022f576200022f6200114a565b8160028111156200024457620002446200114a565b03620002a2576200029c85838151811062000263576200026362001134565b60200260200101516000015186848151811062000284576200028462001134565b6020026020010151604001516200043d60201b60201c565b620003dd565b6001816002811115620002b957620002b96200114a565b0362000311576200029c858381518110620002d857620002d862001134565b602002602001015160000151868481518110620002f957620002f962001134565b602002602001015160400151620006ca60201b60201c565b60028160028111156200032857620003286200114a565b0362000380576200029c85838151811062000347576200034762001134565b60200260200101516000015186848151811062000368576200036862001134565b6020026020010151604001516200096260201b60201c565b60405162461bcd60e51b815260206004820152602760248201527f4c69624469616d6f6e644375743a20496e636f727265637420466163657443756044820152663a20b1ba34b7b760c91b60648201526084015b60405180910390fd5b5080620003ea8162001176565b915050620001ea565b507f8faa70878671ccd212d20771b795c50af8fd3ff6cf27f4bde57e5d4de0aeb6738383836040516200042993929190620011e6565b60405180910390a16200015e828262000ac8565b6000815111620004935760405162461bcd60e51b815260206004820152602b602482015260008051602062002cd883398151915260448201526a1858d95d081d1bc818dd5d60aa1b6064820152608401620003d4565b60008051602062002c4c8339815191526001600160a01b038316620004ff5760405162461bcd60e51b815260206004820152602c602482015260008051602062002c9483398151915260448201526b65206164647265737328302960a01b6064820152608401620003d4565b6001600160a01b0383166000908152600182016020526040812054906001600160601b0382169003620005385762000538828562000c6e565b60005b8351811015620006c35760008482815181106200055c576200055c62001134565b6020908102919091018101516001600160e01b031981166000908152918690526040909120549091506001600160a01b03168015620006045760405162461bcd60e51b815260206004820152603560248201527f4c69624469616d6f6e644375743a2043616e2774206164642066756e6374696f60448201527f6e207468617420616c72656164792065786973747300000000000000000000006064820152608401620003d4565b6001600160e01b0319821660008181526020878152604080832080546001600160a01b03908116600160a01b6001600160601b038c16021782558c168085526001808c0185529285208054938401815585528385206008840401805463ffffffff60079095166004026101000a948502191660e08a901c94909402939093179092559390925287905281546001600160a01b03191617905583620006a881620012ed565b94505050508080620006ba9062001176565b9150506200053b565b5050505050565b6000815111620007205760405162461bcd60e51b815260206004820152602b602482015260008051602062002cd883398151915260448201526a1858d95d081d1bc818dd5d60aa1b6064820152608401620003d4565b60008051602062002c4c8339815191526001600160a01b0383166200078c5760405162461bcd60e51b815260206004820152602c602482015260008051602062002c9483398151915260448201526b65206164647265737328302960a01b6064820152608401620003d4565b6001600160a01b0383166000908152600182016020526040812054906001600160601b0382169003620007c557620007c5828562000c6e565b60005b8351811015620006c3576000848281518110620007e957620007e962001134565b6020908102919091018101516001600160e01b031981166000908152918690526040909120549091506001600160a01b039081169087168103620008965760405162461bcd60e51b815260206004820152603860248201527f4c69624469616d6f6e644375743a2043616e2774207265706c6163652066756e60448201527f6374696f6e20776974682073616d652066756e6374696f6e00000000000000006064820152608401620003d4565b620008a385828462000cdb565b6001600160e01b0319821660008181526020878152604080832080546001600160a01b03908116600160a01b6001600160601b038c16021782558c168085526001808c0185529285208054938401815585528385206008840401805463ffffffff60079095166004026101000a948502191660e08a901c94909402939093179092559390925287905281546001600160a01b031916179055836200094781620012ed565b94505050508080620009599062001176565b915050620007c8565b6000815111620009b85760405162461bcd60e51b815260206004820152602b602482015260008051602062002cd883398151915260448201526a1858d95d081d1bc818dd5d60aa1b6064820152608401620003d4565b60008051602062002c4c8339815191526001600160a01b0383161562000a475760405162461bcd60e51b815260206004820152603660248201527f4c69624469616d6f6e644375743a2052656d6f7665206661636574206164647260448201527f657373206d7573742062652061646472657373283029000000000000000000006064820152608401620003d4565b60005b825181101562000ac257600083828151811062000a6b5762000a6b62001134565b6020908102919091018101516001600160e01b031981166000908152918590526040909120549091506001600160a01b031662000aaa84828462000cdb565b5050808062000ab99062001176565b91505062000a4a565b50505050565b6001600160a01b03821662000b525780511562000b4e5760405162461bcd60e51b815260206004820152603c60248201527f4c69624469616d6f6e644375743a205f696e697420697320616464726573732860448201527f3029206275745f63616c6c64617461206973206e6f7420656d707479000000006064820152608401620003d4565b5050565b6001600160a01b038216301462000b885762000b888260405180606001604052806028815260200162002c6c60289139620010bb565b600080836001600160a01b03168360405162000ba591906200131e565b600060405180830381855af49150503d806000811462000be2576040519150601f19603f3d011682016040523d82523d6000602084013e62000be7565b606091505b50915091508162000ac25780511562000c16578060405162461bcd60e51b8152600401620003d491906200133c565b60405162461bcd60e51b815260206004820152602660248201527f4c69624469616d6f6e644375743a205f696e69742066756e6374696f6e2072656044820152651d995c9d195960d21b6064820152608401620003d4565b62000c938160405180606001604052806024815260200162002cb460249139620010bb565b6002820180546001600160a01b0390921660008181526001948501602090815260408220860185905594840183559182529290200180546001600160a01b0319169091179055565b6001600160a01b03821662000d595760405162461bcd60e51b815260206004820152603760248201527f4c69624469616d6f6e644375743a2043616e27742072656d6f76652066756e6360448201527f74696f6e207468617420646f65736e27742065786973740000000000000000006064820152608401620003d4565b306001600160a01b0383160362000dca5760405162461bcd60e51b815260206004820152602e60248201527f4c69624469616d6f6e644375743a2043616e27742072656d6f766520696d6d7560448201526d3a30b1363290333ab731ba34b7b760911b6064820152608401620003d4565b6001600160e01b03198116600090815260208481526040808320546001600160a01b0386168452600180880190935290832054600160a01b9091046001600160601b0316929162000e1b9162001358565b905080821462000f14576001600160a01b0384166000908152600186016020526040812080548390811062000e545762000e5462001134565b600091825260208083206008830401546001600160a01b038916845260018a019091526040909220805460079092166004026101000a90920460e01b92508291908590811062000ea85762000ea862001134565b600091825260208083206008830401805463ffffffff60079094166004026101000a938402191660e09590951c929092029390931790556001600160e01b03199290921682528690526040902080546001600160a01b0316600160a01b6001600160601b038516021790555b6001600160a01b0384166000908152600186016020526040902080548062000f405762000f4062001374565b60008281526020808220600860001990940193840401805463ffffffff600460078716026101000a0219169055919092556001600160e01b03198516825286905260408120819055819003620006c357600285015460009062000fa69060019062001358565b6001600160a01b03861660009081526001808901602052604090912001549091508082146200105c57600087600201838154811062000fe95762000fe962001134565b6000918252602090912001546002890180546001600160a01b0390921692508291849081106200101d576200101d62001134565b600091825260208083209190910180546001600160a01b0319166001600160a01b03948516179055929091168152600189810190925260409020018190555b8660020180548062001072576200107262001374565b60008281526020808220830160001990810180546001600160a01b03191690559092019092556001600160a01b0388168252600189810190915260408220015550505050505050565b813b818162000ac25760405162461bcd60e51b8152600401620003d491906200133c565b80516001600160a01b0381168114620010f757600080fd5b919050565b600080604083850312156200111057600080fd5b6200111b83620010df565b91506200112b60208401620010df565b90509250929050565b634e487b7160e01b600052603260045260246000fd5b634e487b7160e01b600052602160045260246000fd5b634e487b7160e01b600052601160045260246000fd5b6000600182016200118b576200118b62001160565b5060010190565b60005b83811015620011af57818101518382015260200162001195565b50506000910152565b60008151808452620011d281602086016020860162001192565b601f01601f19169290920160200192915050565b60006060808301818452808751808352608092508286019150828160051b8701016020808b0160005b84811015620012bb57898403607f19018652815180516001600160a01b031685528381015189860190600381106200125757634e487b7160e01b600052602160045260246000fd5b868601526040918201519186018a905281519081905290840190600090898701905b80831015620012a55783516001600160e01b031916825292860192600192909201919086019062001279565b509785019795505050908201906001016200120f565b50506001600160a01b038a16908801528681036040880152620012df8189620011b8565b9a9950505050505050505050565b60006001600160601b038281166002600160601b0319810162001314576200131462001160565b6001019392505050565b600082516200133281846020870162001192565b9190910192915050565b602081526000620013516020830184620011b8565b9392505050565b818103818111156200136e576200136e62001160565b92915050565b634e487b7160e01b600052603160045260246000fd5b6080516118a6620013a660003960006101e901526118a66000f3fe60806040523661000b57005b600080356001600160e01b03191681527fc8fcad8db84d3cc18b4c41d551ea0ee66dd599cde068d998e57d5e09332c131c602081905260409091205481906001600160a01b031680610109577fe06ce3e4000000000000000000000000000000000000000000000000000000006000356001600160e01b031916016100c4576000808061009b36600481846112bc565b8101906100a89190611412565b9250925092506100b73361012d565b6100c2838383610257565b005b6040517fceb54e7c0000000000000000000000000000000000000000000000000000000081526001600160e01b03196000351660048201526024015b60405180910390fd5b3660008037600080366000845af43d6000803e808015610128573d6000f35b3d6000fd5b61013681610479565b604080516001808252818301909252600091816020015b6040805160608082018352600080835260208301529181019190915281526020019060019003908161014d5750506040805160018082528183019092529192506000919060208083019080368337019050509050631f931c1c60e01b816000815181106101bc576101bc6115cb565b6001600160e01b031990921660209283029190910182015260408051606081019091526001600160a01b037f000000000000000000000000000000000000000000000000000000000000000016815290810160008152602001828152508260008151811061022c5761022c6115cb565b602002602001018190525061025282600060405180602001604052806000815250610257565b505050565b60005b8351811015610433576000848281518110610277576102776115cb565b602002602001015160200151905060006002811115610298576102986115e1565b8160028111156102aa576102aa6115e1565b036102f8576102f38583815181106102c4576102c46115cb565b6020026020010151600001518684815181106102e2576102e26115cb565b60200260200101516040015161051b565b610420565b600181600281111561030c5761030c6115e1565b03610355576102f3858381518110610326576103266115cb565b602002602001015160000151868481518110610344576103446115cb565b602002602001015160400151610803565b6002816002811115610369576103696115e1565b036103b2576102f3858381518110610383576103836115cb565b6020026020010151600001518684815181106103a1576103a16115cb565b602002602001015160400151610af4565b60405162461bcd60e51b815260206004820152602760248201527f4c69624469616d6f6e644375743a20496e636f7272656374204661636574437560448201527f74416374696f6e000000000000000000000000000000000000000000000000006064820152608401610100565b508061042b8161160d565b91505061025a565b507f8faa70878671ccd212d20771b795c50af8fd3ff6cf27f4bde57e5d4de0aeb67383838360405161046793929190611677565b60405180910390a16102528282610c81565b7fc8fcad8db84d3cc18b4c41d551ea0ee66dd599cde068d998e57d5e09332c1320805473ffffffffffffffffffffffffffffffffffffffff1981166001600160a01b038481169182179093556040517fc8fcad8db84d3cc18b4c41d551ea0ee66dd599cde068d998e57d5e09332c131c939092169182907f8be0079c531659141344cd1fd0a4f28419497f9722a3daafe3b4186f6b6457e090600090a3505050565b60008151116105925760405162461bcd60e51b815260206004820152602b60248201527f4c69624469616d6f6e644375743a204e6f2073656c6563746f727320696e206660448201527f6163657420746f206375740000000000000000000000000000000000000000006064820152608401610100565b7fc8fcad8db84d3cc18b4c41d551ea0ee66dd599cde068d998e57d5e09332c131c6001600160a01b03831661062f5760405162461bcd60e51b815260206004820152602c60248201527f4c69624469616d6f6e644375743a204164642066616365742063616e2774206260448201527f65206164647265737328302900000000000000000000000000000000000000006064820152608401610100565b6001600160a01b0383166000908152600182016020526040812054906bffffffffffffffffffffffff8216900361066a5761066a8285610e2e565b60005b83518110156107fc57600084828151811061068a5761068a6115cb565b6020908102919091018101516001600160e01b031981166000908152918690526040909120549091506001600160a01b031680156107305760405162461bcd60e51b815260206004820152603560248201527f4c69624469616d6f6e644375743a2043616e2774206164642066756e6374696f60448201527f6e207468617420616c72656164792065786973747300000000000000000000006064820152608401610100565b6001600160e01b0319821660008181526020878152604080832080546001600160a01b03908116600160a01b6bffffffffffffffffffffffff8c16021782558c168085526001808c0185529285208054938401815585528385206008840401805463ffffffff60079095166004026101000a948502191660e08a901c949094029390931790925593909252879052815473ffffffffffffffffffffffffffffffffffffffff1916179055836107e481611794565b945050505080806107f49061160d565b91505061066d565b5050505050565b600081511161087a5760405162461bcd60e51b815260206004820152602b60248201527f4c69624469616d6f6e644375743a204e6f2073656c6563746f727320696e206660448201527f6163657420746f206375740000000000000000000000000000000000000000006064820152608401610100565b7fc8fcad8db84d3cc18b4c41d551ea0ee66dd599cde068d998e57d5e09332c131c6001600160a01b0383166109175760405162461bcd60e51b815260206004820152602c60248201527f4c69624469616d6f6e644375743a204164642066616365742063616e2774206260448201527f65206164647265737328302900000000000000000000000000000000000000006064820152608401610100565b6001600160a01b0383166000908152600182016020526040812054906bffffffffffffffffffffffff82169003610952576109528285610e2e565b60005b83518110156107fc576000848281518110610972576109726115cb565b6020908102919091018101516001600160e01b031981166000908152918690526040909120549091506001600160a01b039081169087168103610a1d5760405162461bcd60e51b815260206004820152603860248201527f4c69624469616d6f6e644375743a2043616e2774207265706c6163652066756e60448201527f6374696f6e20776974682073616d652066756e6374696f6e00000000000000006064820152608401610100565b610a28858284610ea5565b6001600160e01b0319821660008181526020878152604080832080546001600160a01b03908116600160a01b6bffffffffffffffffffffffff8c16021782558c168085526001808c0185529285208054938401815585528385206008840401805463ffffffff60079095166004026101000a948502191660e08a901c949094029390931790925593909252879052815473ffffffffffffffffffffffffffffffffffffffff191617905583610adc81611794565b94505050508080610aec9061160d565b915050610955565b6000815111610b6b5760405162461bcd60e51b815260206004820152602b60248201527f4c69624469616d6f6e644375743a204e6f2073656c6563746f727320696e206660448201527f6163657420746f206375740000000000000000000000000000000000000000006064820152608401610100565b7fc8fcad8db84d3cc18b4c41d551ea0ee66dd599cde068d998e57d5e09332c131c6001600160a01b03831615610c095760405162461bcd60e51b815260206004820152603660248201527f4c69624469616d6f6e644375743a2052656d6f7665206661636574206164647260448201527f657373206d7573742062652061646472657373283029000000000000000000006064820152608401610100565b60005b8251811015610c7b576000838281518110610c2957610c296115cb565b6020908102919091018101516001600160e01b031981166000908152918590526040909120549091506001600160a01b0316610c66848284610ea5565b50508080610c739061160d565b915050610c0c565b50505050565b6001600160a01b038216610d0857805115610d045760405162461bcd60e51b815260206004820152603c60248201527f4c69624469616d6f6e644375743a205f696e697420697320616464726573732860448201527f3029206275745f63616c6c64617461206973206e6f7420656d707479000000006064820152608401610100565b5050565b6001600160a01b0382163014610d3a57610d3a826040518060600160405280602881526020016118256028913961129b565b600080836001600160a01b031683604051610d5591906117bf565b600060405180830381855af49150503d8060008114610d90576040519150601f19603f3d011682016040523d82523d6000602084013e610d95565b606091505b509150915081610c7b57805115610dc0578060405162461bcd60e51b815260040161010091906117db565b60405162461bcd60e51b815260206004820152602660248201527f4c69624469616d6f6e644375743a205f696e69742066756e6374696f6e20726560448201527f76657274656400000000000000000000000000000000000000000000000000006064820152608401610100565b610e508160405180606001604052806024815260200161184d6024913961129b565b6002820180546001600160a01b03909216600081815260019485016020908152604082208601859055948401835591825292902001805473ffffffffffffffffffffffffffffffffffffffff19169091179055565b6001600160a01b038216610f215760405162461bcd60e51b815260206004820152603760248201527f4c69624469616d6f6e644375743a2043616e27742072656d6f76652066756e6360448201527f74696f6e207468617420646f65736e27742065786973740000000000000000006064820152608401610100565b306001600160a01b03831603610f9f5760405162461bcd60e51b815260206004820152602e60248201527f4c69624469616d6f6e644375743a2043616e27742072656d6f766520696d6d7560448201527f7461626c652066756e6374696f6e0000000000000000000000000000000000006064820152608401610100565b6001600160e01b03198116600090815260208481526040808320546001600160a01b0386168452600180880190935290832054600160a01b9091046bffffffffffffffffffffffff169291610ff3916117f5565b90508082146110ea576001600160a01b03841660009081526001860160205260408120805483908110611028576110286115cb565b600091825260208083206008830401546001600160a01b038916845260018a019091526040909220805460079092166004026101000a90920460e01b925082919085908110611079576110796115cb565b600091825260208083206008830401805463ffffffff60079094166004026101000a938402191660e09590951c929092029390931790556001600160e01b03199290921682528690526040902080546001600160a01b0316600160a01b6bffffffffffffffffffffffff8516021790555b6001600160a01b038416600090815260018601602052604090208054806111135761111361180e565b60008281526020808220600860001990940193840401805463ffffffff600460078716026101000a0219169055919092556001600160e01b031985168252869052604081208190558190036107fc576002850154600090611176906001906117f5565b6001600160a01b03861660009081526001808901602052604090912001549091508082146112325760008760020183815481106111b5576111b56115cb565b6000918252602090912001546002890180546001600160a01b0390921692508291849081106111e6576111e66115cb565b6000918252602080832091909101805473ffffffffffffffffffffffffffffffffffffffff19166001600160a01b03948516179055929091168152600189810190925260409020018190555b866002018054806112455761124561180e565b600082815260208082208301600019908101805473ffffffffffffffffffffffffffffffffffffffff191690559092019092556001600160a01b0388168252600189810190915260408220015550505050505050565b813b8181610c7b5760405162461bcd60e51b815260040161010091906117db565b600080858511156112cc57600080fd5b838611156112d957600080fd5b5050820193919092039150565b634e487b7160e01b600052604160045260246000fd5b6040516060810167ffffffffffffffff8111828210171561131f5761131f6112e6565b60405290565b604051601f8201601f1916810167ffffffffffffffff8111828210171561134e5761134e6112e6565b604052919050565b600067ffffffffffffffff821115611370576113706112e6565b5060051b60200190565b6001600160a01b038116811461138f57600080fd5b50565b803561139d8161137a565b919050565b600082601f8301126113b357600080fd5b813567ffffffffffffffff8111156113cd576113cd6112e6565b6113e06020601f19601f84011601611325565b8181528460208386010111156113f557600080fd5b816020850160208301376000918101602001919091529392505050565b60008060006060848603121561142757600080fd5b67ffffffffffffffff808535111561143e57600080fd5b8435850186601f82011261145157600080fd5b61146361145e8235611356565b611325565b81358082526020808301929160051b8401018981111561148257600080fd5b602084015b8181101561158c57858135111561149d57600080fd5b803585016060601f19828e030112156114b557600080fd5b6114bd6112fc565b60208201356114cb8161137a565b81526040820135600381106114df57600080fd5b60208201526060820135888111156114f657600080fd5b8083019250508c603f83011261150b57600080fd5b602082013561151c61145e82611356565b81815260059190911b83016040019060208101908f83111561153d57600080fd5b6040850194505b828510156115765784356001600160e01b031981161461156357600080fd5b8435825260209485019490910190611544565b6040840152505085525060209384019301611487565b50508096505050506115a060208601611392565b92506040850135818111156115b457600080fd5b6115c0878288016113a2565b925050509250925092565b634e487b7160e01b600052603260045260246000fd5b634e487b7160e01b600052602160045260246000fd5b634e487b7160e01b600052601160045260246000fd5b60006000198203611620576116206115f7565b5060010190565b60005b8381101561164257818101518382015260200161162a565b50506000910152565b60008151808452611663816020860160208601611627565b601f01601f19169290920160200192915050565b60006060808301818452808751808352608092508286019150828160051b8701016020808b0160005b84811015611764577fffffffffffffffffffffffffffffffffffffffffffffffffffffffffffffff808a850301865281518885016001600160a01b038251168652848201516003811061170357634e487b7160e01b600052602160045260246000fd5b868601526040918201519186018a905281519081905290840190600090898701905b8083101561174f5783516001600160e01b0319168252928601926001929092019190860190611725565b509785019795505050908201906001016116a0565b50506001600160a01b038a16908801528681036040880152611786818961164b565b9a9950505050505050505050565b60006bffffffffffffffffffffffff8083168181036117b5576117b56115f7565b6001019392505050565b600082516117d1818460208701611627565b9190910192915050565b6020815260006117ee602083018461164b565b9392505050565b81810381811115611808576118086115f7565b92915050565b634e487b7160e01b600052603160045260246000fdfe4c69624469616d6f6e644375743a205f696e6974206164647265737320686173206e6f20636f64654c69624469616d6f6e644375743a204e657720666163657420686173206e6f20636f6465a2646970667358221220fb6ba3580fc6c45bb49e0f8cd2f8936415736f29f73b95ff5f4da4f67ec7b84264736f6c63430008140033c8fcad8db84d3cc18b4c41d551ea0ee66dd599cde068d998e57d5e09332c131c4c69624469616d6f6e644375743a205f696e6974206164647265737320686173206e6f20636f64654c69624469616d6f6e644375743a204164642066616365742063616e277420624c69624469616d6f6e644375743a204e657720666163657420686173206e6f20636f64654c69624469616d6f6e644375743a204e6f2073656c6563746f727320696e2066",
  "devdoc": {
    "author": "Peeramid Labs, 2024",
    "details": "It is expected to be used ONLY by the Distributor contract.",
    "errors": {
      "ERC1167FailedCreateClone()": [
        {
          "details": "A clone instance deployment failed."
        }
      ]
    },
    "events": {
      "Distributed(address,address[])": {
        "params": {
          "distributor": "The address of the entity that performed the distribution.",
          "instances": "An array of addresses that were produced."
        }
      }
    },
    "kind": "dev",
    "methods": {
      "constructor": {
        "details": "Constructor for the ArguableVotingTournament contract. Note Initializer function will be added as a regular facet to the Diamond Proxy, Since it is expected that initialization is done by distributor contract, the initializer will not be run, hence it is up for distributor to remove this facet upon succesfull initialization."
      },
      "get()": {
        "returns": {
          "_0": "An array of addresses that are used for instantiation.",
          "name": "The name of the distribution.",
          "version": "The version of the distribution."
        }
      },
      "instantiate(bytes)": {
        "details": "see Ethereum Distribution System IDistribute for interface specification.",
        "returns": {
          "_1": "distributionName: bytes32 encoded name to be used in EIP712 signing flow",
          "_2": "distributionVersion: uint256 encoded distribution version. Can be parsed to eip712 signature with EDS LibSemver",
          "instances": "Array[9]: [diamond proxy, 8x diamond facets..]"
        }
      }
    },
    "title": "ArguableVotingTournament Distribution",
    "version": 1
  },
  "userdoc": {
    "events": {
      "Distributed(address,address[])": {
        "notice": "Emitted when a distribution occurs."
      }
    },
    "kind": "user",
    "methods": {
      "get()": {
        "notice": "Retrieves the current distribution sources."
      }
    },
    "notice": "This contract implements a diamond distribution for Ethereum Distribution System. It is reponsible to create new instance of ArguableVotingTournament.",
    "version": 1
  },
  "storageLayout": {
    "storage": [],
    "types": null
  }
}