{
  "address": "0xB35D5979B1C84cA858B60037329067Dd43d281F3",
  "abi": [
    {
      "inputs": [
        {
          "internalType": "address",
          "name": "initializer",
          "type": "address"
        },
        {
          "internalType": "bytes4",
          "name": "initializerSelector",
          "type": "bytes4"
        },
        {
          "internalType": "bytes32",
          "name": "_distributionName",
          "type": "bytes32"
        },
        {
          "components": [
            {
              "internalType": "uint64",
              "name": "major",
              "type": "uint64"
            },
            {
              "internalType": "uint64",
              "name": "minor",
              "type": "uint64"
            },
            {
              "internalType": "uint128",
              "name": "patch",
              "type": "uint128"
            }
          ],
          "internalType": "struct LibSemver.Version",
          "name": "version",
          "type": "tuple"
        },
        {
          "components": [
            {
              "internalType": "address",
              "name": "loupeFacet",
              "type": "address"
            },
            {
              "internalType": "address",
              "name": "inspectorFacet",
              "type": "address"
            },
            {
              "internalType": "address",
              "name": "RankifyMainFacet",
              "type": "address"
            },
            {
              "internalType": "address",
              "name": "RankifyReqsFacet",
              "type": "address"
            },
            {
              "internalType": "address",
              "name": "RankifyGMFacet",
              "type": "address"
            },
            {
              "internalType": "address",
              "name": "OwnershipFacet",
              "type": "address"
            }
          ],
          "internalType": "struct ArguableVotingTournament.ArguableTournamentAddresses",
          "name": "addresses",
          "type": "tuple"
        }
      ],
      "stateMutability": "nonpayable",
      "type": "constructor"
    },
    {
      "inputs": [
        {
          "internalType": "bytes32",
          "name": "codeId",
          "type": "bytes32"
        }
      ],
      "name": "CodeNotFoundInIndex",
      "type": "error"
    },
    {
      "inputs": [],
      "name": "ERC1167FailedCreateClone",
      "type": "error"
    },
    {
      "anonymous": false,
      "inputs": [
        {
          "indexed": true,
          "internalType": "address",
          "name": "distributor",
          "type": "address"
        },
        {
          "indexed": false,
          "internalType": "address[]",
          "name": "instances",
          "type": "address[]"
        }
      ],
      "name": "Distributed",
      "type": "event"
    },
    {
      "inputs": [],
      "name": "contractURI",
      "outputs": [
        {
          "internalType": "string",
          "name": "",
          "type": "string"
        }
      ],
      "stateMutability": "pure",
      "type": "function"
    },
    {
      "inputs": [],
      "name": "get",
      "outputs": [
        {
          "internalType": "address[]",
          "name": "",
          "type": "address[]"
        },
        {
          "internalType": "bytes32",
          "name": "name",
          "type": "bytes32"
        },
        {
          "internalType": "uint256",
          "name": "version",
          "type": "uint256"
        }
      ],
      "stateMutability": "view",
      "type": "function"
    },
    {
      "inputs": [
        {
          "internalType": "bytes",
          "name": "",
          "type": "bytes"
        }
      ],
      "name": "instantiate",
      "outputs": [
        {
          "internalType": "address[]",
          "name": "instances",
          "type": "address[]"
        },
        {
          "internalType": "bytes32",
          "name": "",
          "type": "bytes32"
        },
        {
          "internalType": "uint256",
          "name": "",
          "type": "uint256"
        }
      ],
      "stateMutability": "nonpayable",
      "type": "function"
    }
  ],
  "transactionHash": "0x7409158c58c8a8f30794b442000ec635f0523a7afc38e829bdfbc71333c99959",
  "args": [
    "0x8F16eAf97b2C869275eE7aB430262e3Ad5d44051",
    "0x00000000",
    "0x4172677561626c65566f74696e67546f75726e616d656e740000000000000000",
    {
      "major": 1,
      "minor": 0,
      "patch": 0
    },
    {
      "loupeFacet": "0x74a351640F768F73FCEAf04Ec525Eef0e73eCD45",
      "inspectorFacet": "0x56D513950045240a95c09AaeB1C9F2F9A586AdA7",
      "RankifyMainFacet": "0xAA75BDF44E904766172b4EF39BF3B296eCeE9eDa",
      "RankifyReqsFacet": "0x29ab7FBd0A1603D59E508f79f69cdBBCa8cD9142",
      "RankifyGMFacet": "0x3479A3289D79ff91AD7e59A6556883a78ecE7C4C",
      "OwnershipFacet": "0xe0F3611e9f45816E84634a80171A1b564aC7522B"
    }
  ],
  "numDeployments": 1,
  "solcInputHash": "0626e7b2f6daacce34b354f8c1b3c1e7",
  "bytecode": "0x61020060405234801561001157600080fd5b506040516166ae3803806166ae8339810160408190526100309161032d565b306000801b85826000604051610045906101fb565b604051809103906000f080158015610061573d6000803e3d6000fd5b5090506000828260405161007490610208565b6001600160a01b03928316815291166020820152604001604051809103906000f0801580156100a7573d6000803e3d6000fd5b506001600160a01b0316608052506100d391505073c0d31d398c5ee86c5f8a23fa253ee8a586da03ce90565b6001600160a01b0316638eaa6ac0836040518263ffffffff1660e01b815260040161010091815260200190565b602060405180830381865afa15801561011d573d6000803e3d6000fd5b505050506040513d601f19601f8201168201806040525081019061014191906103ec565b6001600160a01b0390811660a09081526001600160e01b031990921660c0528881166101a0528451811660e052602085015181166101005260408501518116610120526060850151811661014052608085015181166101605290840151166101805250506101c08390526101ec82600081604001516001600160801b0316608083602001516001600160401b0316901b60c084600001516001600160401b0316901b17179050919050565b6101e0525061040e9350505050565b6116bf8061240583390190565b612bea80613ac483390190565b80516001600160a01b038116811461022c57600080fd5b919050565b604051606081016001600160401b038111828210171561026157634e487b7160e01b600052604160045260246000fd5b60405290565b80516001600160401b038116811461022c57600080fd5b600060c0828403121561029057600080fd5b60405160c081016001600160401b03811182821017156102c057634e487b7160e01b600052604160045260246000fd5b6040529050806102cf83610215565b81526102dd60208401610215565b60208201526102ee60408401610215565b60408201526102ff60608401610215565b606082015261031060808401610215565b608082015261032160a08401610215565b60a08201525092915050565b600080600080600085870361018081121561034757600080fd5b61035087610215565b60208801519096506001600160e01b03198116811461036e57600080fd5b604088015190955093506060605f198201121561038a57600080fd5b50610393610231565b61039f60608801610267565b81526103ad60808801610267565b602082015260a08701516001600160801b03811681146103cc57600080fd5b604082015291506103e08760c0880161027e565b90509295509295909350565b6000602082840312156103fe57600080fd5b61040782610215565b9392505050565b60805160a05160c05160e05161010051610120516101405161016051610180516101a0516101c0516101e051611f516104b4600039600081816116660152611a460152600081816116430152611a23015260006112e0015260006112260152600061110101526000610fa601526000610e4b015260006104cf015260006103c4015260006118cc0152600081816101260152611986015260006116f50152611f516000f3fe608060405234801561001057600080fd5b50600436106100415760003560e01c80636d4ce63c146100465780639ca33c9e14610066578063e8a3d48514610079575b600080fd5b61004e61008e565b60405161005d93929190611b3d565b60405180910390f35b61004e610074366004611b78565b6101c9565b61008161169b565b60405161005d9190611c82565b6060600080600061009d6116c9565b5050604080516002808252606082018352929350600092909160208301908036833701905050905081516001146100d6576100d6611c9c565b816000815181106100e9576100e9611cb2565b60200260200101518160008151811061010457610104611cb2565b60200260200101906001600160a01b031690816001600160a01b0316815250507f00000000000000000000000000000000000000000000000000000000000000008160018151811061015857610158611cb2565b6001600160a01b0390921660209283029190910182015260405183916101a291017f496e697469616c697a65644469616d6f6e64446973747269627574696f6e00008152601e0190565b6040516020818303038152906040526101ba90611cc8565b60009450945094505050909192565b606060008060006101d8611797565b505090506000816000815181106101f1576101f1611cb2565b602002602001015190506000600767ffffffffffffffff81111561021757610217611b62565b60405190808252806020026020018201604052801561026457816020015b604080516060808201835260008083526020830152918101919091528152602001906001900390816102355790505b5060408051600480825260a082019092529192506000919060208201608080368337019050509050637a0ed62760e01b816000815181106102a7576102a7611cb2565b6001600160e01b03199092166020928302919091019091015280517fadfca15e0000000000000000000000000000000000000000000000000000000090829060019081106102f7576102f7611cb2565b6001600160e01b03199092166020928302919091019091015280517f52ef6b2c00000000000000000000000000000000000000000000000000000000908290600290811061034757610347611cb2565b6001600160e01b03199092166020928302919091019091015280517fcdffacc600000000000000000000000000000000000000000000000000000000908290600390811061039757610397611cb2565b6001600160e01b031990921660209283029190910182015260408051606081019091526001600160a01b037f000000000000000000000000000000000000000000000000000000000000000016815290810160008152602001828152508260008151811061040757610407611cb2565b60209081029190910101526040805160028082526060820190925260009181602001602082028036833701905050905063d3a8018d60e01b8160008151811061045257610452611cb2565b6001600160e01b03199092166020928302919091019091015280517f6cbadbfa0000000000000000000000000000000000000000000000000000000090829060019081106104a2576104a2611cb2565b6001600160e01b031990921660209283029190910182015260408051606081019091526001600160a01b037f000000000000000000000000000000000000000000000000000000000000000016815290810160008152602001828152508360018151811061051257610512611cb2565b602090810291909101015260408051601d8082526103c082019092526000918160200160208202803683370190505090506369958ab960e01b8160008151811061055e5761055e611cb2565b6001600160e01b03199092166020928302919091019091015280517faee5f34a0000000000000000000000000000000000000000000000000000000090829060019081106105ae576105ae611cb2565b6001600160e01b03199092166020928302919091019091015280517f097a6ac70000000000000000000000000000000000000000000000000000000090829060029081106105fe576105fe611cb2565b6001600160e01b03199092166020928302919091019091015280517f3feef58a00000000000000000000000000000000000000000000000000000000908290600390811061064e5761064e611cb2565b6001600160e01b03199092166020928302919091019091015280517fefaa55a000000000000000000000000000000000000000000000000000000000908290600490811061069e5761069e611cb2565b6001600160e01b03199092166020928302919091019091015280517fcca84a0c0000000000000000000000000000000000000000000000000000000090829060059081106106ee576106ee611cb2565b6001600160e01b03199092166020928302919091019091015280517fe5ed1d5900000000000000000000000000000000000000000000000000000000908290600690811061073e5761073e611cb2565b6001600160e01b03199092166020928302919091019091015280517fbc197c8100000000000000000000000000000000000000000000000000000000908290600790811061078e5761078e611cb2565b6001600160e01b03199092166020928302919091019091015280517ff23a6e610000000000000000000000000000000000000000000000000000000090829060089081106107de576107de611cb2565b6001600160e01b03199092166020928302919091019091015280517f150b7a0200000000000000000000000000000000000000000000000000000000908290600990811061082e5761082e611cb2565b6001600160e01b03199092166020928302919091019091015280517f7f4e484900000000000000000000000000000000000000000000000000000000908290600a90811061087e5761087e611cb2565b6001600160e01b03199092166020928302919091019091015280517fb55991c000000000000000000000000000000000000000000000000000000000908290600b9081106108ce576108ce611cb2565b6001600160e01b03199092166020928302919091019091015280517ff72ea46700000000000000000000000000000000000000000000000000000000908290600c90811061091e5761091e611cb2565b6001600160e01b03199092166020928302919091019091015280517f04527d9000000000000000000000000000000000000000000000000000000000908290600d90811061096e5761096e611cb2565b6001600160e01b03199092166020928302919091019091015280517f9637460e00000000000000000000000000000000000000000000000000000000908290600e9081106109be576109be611cb2565b6001600160e01b03199092166020928302919091019091015280517f8eed01f800000000000000000000000000000000000000000000000000000000908290600f908110610a0e57610a0e611cb2565b6001600160e01b03199092166020928302919091019091015280517fbfa64036000000000000000000000000000000000000000000000000000000009082906010908110610a5e57610a5e611cb2565b6001600160e01b03199092166020928302919091019091015280517fb881cffe000000000000000000000000000000000000000000000000000000009082906011908110610aae57610aae611cb2565b6001600160e01b03199092166020928302919091019091015280517f4024ba75000000000000000000000000000000000000000000000000000000009082906012908110610afe57610afe611cb2565b6001600160e01b03199092166020928302919091019091015280517f9a214b1e000000000000000000000000000000000000000000000000000000009082906013908110610b4e57610b4e611cb2565b6001600160e01b03199092166020928302919091019091015280517f460e2049000000000000000000000000000000000000000000000000000000009082906014908110610b9e57610b9e611cb2565b6001600160e01b03199092166020928302919091019091015280517f392b749c000000000000000000000000000000000000000000000000000000009082906015908110610bee57610bee611cb2565b6001600160e01b03199092166020928302919091019091015280517f58759df7000000000000000000000000000000000000000000000000000000009082906016908110610c3e57610c3e611cb2565b6001600160e01b03199092166020928302919091019091015280517f8d3b80b3000000000000000000000000000000000000000000000000000000009082906017908110610c8e57610c8e611cb2565b6001600160e01b03199092166020928302919091019091015280517fde838048000000000000000000000000000000000000000000000000000000009082906018908110610cde57610cde611cb2565b6001600160e01b03199092166020928302919091019091015280517f3528dff7000000000000000000000000000000000000000000000000000000009082906019908110610d2e57610d2e611cb2565b6001600160e01b03199092166020928302919091019091015280517f37eb510900000000000000000000000000000000000000000000000000000000908290601a908110610d7e57610d7e611cb2565b6001600160e01b03199092166020928302919091019091015280517fbab0ac0300000000000000000000000000000000000000000000000000000000908290601b908110610dce57610dce611cb2565b6001600160e01b03199092166020928302919091019091015280517fffde0c7400000000000000000000000000000000000000000000000000000000908290601c908110610e1e57610e1e611cb2565b6001600160e01b031990921660209283029190910182015260408051606081019091526001600160a01b037f0000000000000000000000000000000000000000000000000000000000000000168152908101600081526020018281525084600281518110610e8e57610e8e611cb2565b60209081029190910101526040805160038082526080820190925260009181602001602082028036833701905050905063bbb294f860e01b81600081518110610ed957610ed9611cb2565b6001600160e01b03199092166020928302919091019091015280517fbf0f2d7e000000000000000000000000000000000000000000000000000000009082906001908110610f2957610f29611cb2565b6001600160e01b03199092166020928302919091019091015280517f8f298b2a000000000000000000000000000000000000000000000000000000009082906002908110610f7957610f79611cb2565b6001600160e01b031990921660209283029190910182015260408051606081019091526001600160a01b037f0000000000000000000000000000000000000000000000000000000000000000168152908101600081526020018281525085600381518110610fe957610fe9611cb2565b602090810291909101015260408051600380825260808201909252600091816020016020820280368337019050509050636a99473560e01b8160008151811061103457611034611cb2565b6001600160e01b03199092166020928302919091019091015280517f463bc35500000000000000000000000000000000000000000000000000000000908290600190811061108457611084611cb2565b6001600160e01b03199092166020928302919091019091015280517f0c6446d50000000000000000000000000000000000000000000000000000000090829060029081106110d4576110d4611cb2565b6001600160e01b031990921660209283029190910182015260408051606081019091526001600160a01b037f000000000000000000000000000000000000000000000000000000000000000016815290810160008152602001828152508660048151811061114457611144611cb2565b602090810291909101015260408051600280825260608201909252600091816020016020820280368337505081519192507ff2fde38b00000000000000000000000000000000000000000000000000000000918391506000906111a9576111a9611cb2565b6001600160e01b03199092166020928302919091019091015280517f8da5cb5b0000000000000000000000000000000000000000000000000000000090829060019081106111f9576111f9611cb2565b6001600160e01b031990921660209283029190910182015260408051606081019091526001600160a01b037f000000000000000000000000000000000000000000000000000000000000000016815290810160008152602001828152508760058151811061126957611269611cb2565b6020908102919091010152604080516001808252818301909252600091816020016020820280368337019050509050636d4eaddf60e01b816000815181106112b3576112b3611cb2565b6001600160e01b031990921660209283029190910182015260408051606081019091526001600160a01b037f000000000000000000000000000000000000000000000000000000000000000016815290810160008152602001828152508860068151811061132357611323611cb2565b60200260200101819052506113488989604051806020016040528060008152506118ab565b60408051600880825261012082019092526000916020820161010080368337019050509050898160008151811061138157611381611cb2565b60200260200101906001600160a01b031690816001600160a01b031681525050886000815181106113b4576113b4611cb2565b602002602001015160000151816001815181106113d3576113d3611cb2565b60200260200101906001600160a01b031690816001600160a01b0316815250508860018151811061140657611406611cb2565b6020026020010151600001518160028151811061142557611425611cb2565b60200260200101906001600160a01b031690816001600160a01b0316815250508860028151811061145857611458611cb2565b6020026020010151600001518160038151811061147757611477611cb2565b60200260200101906001600160a01b031690816001600160a01b031681525050886003815181106114aa576114aa611cb2565b602002602001015160000151816004815181106114c9576114c9611cb2565b60200260200101906001600160a01b031690816001600160a01b031681525050886004815181106114fc576114fc611cb2565b6020026020010151600001518160058151811061151b5761151b611cb2565b60200260200101906001600160a01b031690816001600160a01b0316815250508860058151811061154e5761154e611cb2565b6020026020010151600001518160068151811061156d5761156d611cb2565b60200260200101906001600160a01b031690816001600160a01b031681525050886006815181106115a0576115a0611cb2565b602002602001015160000151816007815181106115bf576115bf611cb2565b6001600160a01b0392831660209182029290920101526040517ff2fde38b00000000000000000000000000000000000000000000000000000000815260006004820152908b169063f2fde38b90602401600060405180830381600087803b15801561162957600080fd5b505af115801561163d573d6000803e3d6000fd5b50929f507f00000000000000000000000000000000000000000000000000000000000000009e507f00000000000000000000000000000000000000000000000000000000000000009d50505050505050505050505050509193909250565b60606116a56119e8565b6040516020016116b59190611d0d565b604051602081830303815290604052905090565b6040805160018082528183019092526060916000918291829190602080830190803683370190505090507f00000000000000000000000000000000000000000000000000000000000000008160008151811061172757611727611cb2565b6001600160a01b03909216602092830291909101820152604051829161177191017f4469616d6f6e64446973747269627574696f6e00000000000000000000000000815260130190565b60405160208183030381529060405261178990611cc8565b600093509350935050909192565b606060008060008060006117a9611a0f565b825192955090935091508067ffffffffffffffff8111156117cc576117cc611b62565b6040519080825280602002602001820160405280156117f5578160200160208202803683370190505b50965060005b8181101561185d57600061182786838151811061181a5761181a611cb2565b6020026020010151611a6d565b90508089838151811061183c5761183c611cb2565b6001600160a01b0390921660209283029190910190910152506001016117fb565b50336001600160a01b03167fe3cc25159981d843f19d5a7611997a66ca6e772edd134fb611c7b29aded7bb8a886040516118979190611d74565b60405180910390a250949590949350915050565b6000808251116118ca5760405180602001604052806000815250611944565b7f0000000000000000000000000000000000000000000000000000000000000000826040516024016118fc9190611c82565b60408051601f198184030181529190526020810180517bffffffffffffffffffffffffffffffffffffffffffffffffffffffff166001600160e01b0319909316929092179091525b6040517f1f931c1c0000000000000000000000000000000000000000000000000000000081529091506001600160a01b03851690631f931c1c906119b09086907f0000000000000000000000000000000000000000000000000000000000000000908690600401611d87565b600060405180830381600087803b1580156119ca57600080fd5b505af11580156119de573d6000803e3d6000fd5b5050505050505050565b60606119ff60408051602081019091526000815290565b6040516020016116b59190611eb4565b60606000806000611a1e6116c9565b5090957f000000000000000000000000000000000000000000000000000000000000000095507f0000000000000000000000000000000000000000000000000000000000000000945092505050565b6000763d602d80600a3d3981f3363d3d373d3d3d363d730000008260601b60e81c176000526e5af43d82803e903d91602b57fd5bf38260781b17602052603760096000f090506001600160a01b038116611af3576040517fc2f868f400000000000000000000000000000000000000000000000000000000815260040160405180910390fd5b919050565b600081518084526020840193506020830160005b82811015611b335781516001600160a01b0316865260209586019590910190600101611b0c565b5093949350505050565b606081526000611b506060830186611af8565b60208301949094525060400152919050565b634e487b7160e01b600052604160045260246000fd5b600060208284031215611b8a57600080fd5b813567ffffffffffffffff811115611ba157600080fd5b8201601f81018413611bb257600080fd5b803567ffffffffffffffff811115611bcc57611bcc611b62565b604051601f19603f601f19601f8501160116810181811067ffffffffffffffff82111715611bfc57611bfc611b62565b604052818152828201602001861015611c1457600080fd5b81602084016020830137600091810160200191909152949350505050565b60005b83811015611c4d578181015183820152602001611c35565b50506000910152565b60008151808452611c6e816020860160208601611c32565b601f01601f19169290920160200192915050565b602081526000611c956020830184611c56565b9392505050565b634e487b7160e01b600052600160045260246000fd5b634e487b7160e01b600052603260045260246000fd5b80516020808301519190811015611d07577fffffffffffffffffffffffffffffffffffffffffffffffffffffffffffffffff8160200360031b1b821691505b50919050565b60008251611d1f818460208701611c32565b7f3b000000000000000000000000000000000000000000000000000000000000009201918252507f4172677561626c65566f74696e67546f75726e616d656e7400000000000000006001820152601901919050565b602081526000611c956020830184611af8565b6000606082016060835280865180835260808501915060808160051b86010192506020880160005b82811015611e85577fffffffffffffffffffffffffffffffffffffffffffffffffffffffffffffff808786030184528151606086016001600160a01b038251168752602082015160038110611e1457634e487b7160e01b600052602160045260246000fd5b806020890152506040820151915060606040880152808251808352608089019150602084019350600092505b80831015611e6d576001600160e01b03198451168252602082019150602084019350600183019250611e40565b50965050506020938401939190910190600101611daf565b5050506001600160a01b0386166020850152508281036040840152611eaa8185611c56565b9695505050505050565b60008251611ec6818460208701611c32565b7f3b000000000000000000000000000000000000000000000000000000000000009201918252507f496e697469616c697a65644469616d6f6e64446973747269627574696f6e00006001820152601f0191905056fea2646970667358221220e5235b62cfdb1212e9cda7982fd4906c093c0de93f44d04a6bcb98555dc5d99364736f6c634300081c00336080604052348015600f57600080fd5b506116a08061001f6000396000f3fe608060405234801561001057600080fd5b506004361061002b5760003560e01c80631f931c1c14610030575b600080fd5b61004361003e3660046111ab565b610045565b005b61004d610067565b61006161005a8486611281565b8383610110565b50505050565b7fc8fcad8db84d3cc18b4c41d551ea0ee66dd599cde068d998e57d5e09332c131c600401546001600160a01b0316331461010e5760405162461bcd60e51b815260206004820152602260248201527f4c69624469616d6f6e643a204d75737420626520636f6e7472616374206f776e60448201527f657200000000000000000000000000000000000000000000000000000000000060648201526084015b60405180910390fd5b565b60005b83518110156102e2576000848281518110610130576101306113c5565b602002602001015160200151905060006002811115610151576101516113db565b816002811115610163576101636113db565b036101b1576101ac85838151811061017d5761017d6113c5565b60200260200101516000015186848151811061019b5761019b6113c5565b60200260200101516040015161032d565b6102d9565b60018160028111156101c5576101c56113db565b0361020e576101ac8583815181106101df576101df6113c5565b6020026020010151600001518684815181106101fd576101fd6113c5565b60200260200101516040015161060e565b6002816002811115610222576102226113db565b0361026b576101ac85838151811061023c5761023c6113c5565b60200260200101516000015186848151811061025a5761025a6113c5565b6020026020010151604001516108f8565b60405162461bcd60e51b815260206004820152602760248201527f4c69624469616d6f6e644375743a20496e636f7272656374204661636574437560448201527f74416374696f6e000000000000000000000000000000000000000000000000006064820152608401610105565b50600101610113565b507f8faa70878671ccd212d20771b795c50af8fd3ff6cf27f4bde57e5d4de0aeb67383838360405161031693929190611441565b60405180910390a16103288282610a74565b505050565b60008151116103a45760405162461bcd60e51b815260206004820152602b60248201527f4c69624469616d6f6e644375743a204e6f2073656c6563746f727320696e206660448201527f6163657420746f206375740000000000000000000000000000000000000000006064820152608401610105565b7fc8fcad8db84d3cc18b4c41d551ea0ee66dd599cde068d998e57d5e09332c131c6001600160a01b0383166104415760405162461bcd60e51b815260206004820152602c60248201527f4c69624469616d6f6e644375743a204164642066616365742063616e2774206260448201527f65206164647265737328302900000000000000000000000000000000000000006064820152608401610105565b6001600160a01b0383166000908152600182016020526040812054906bffffffffffffffffffffffff8216900361047c5761047c8285610c21565b60005b835181101561060757600084828151811061049c5761049c6113c5565b6020908102919091018101516001600160e01b031981166000908152918690526040909120549091506001600160a01b031680156105425760405162461bcd60e51b815260206004820152603560248201527f4c69624469616d6f6e644375743a2043616e2774206164642066756e6374696f60448201527f6e207468617420616c72656164792065786973747300000000000000000000006064820152608401610105565b6001600160e01b0319821660008181526020878152604080832080546001600160a01b03908116600160a01b6bffffffffffffffffffffffff8c16021782558c168085526001808c0185529285208054938401815585528385206008840401805463ffffffff60079095166004026101000a948502191660e08a901c949094029390931790925593909252879052815473ffffffffffffffffffffffffffffffffffffffff1916179055836105f681611584565b9450506001909201915061047f9050565b5050505050565b60008151116106855760405162461bcd60e51b815260206004820152602b60248201527f4c69624469616d6f6e644375743a204e6f2073656c6563746f727320696e206660448201527f6163657420746f206375740000000000000000000000000000000000000000006064820152608401610105565b7fc8fcad8db84d3cc18b4c41d551ea0ee66dd599cde068d998e57d5e09332c131c6001600160a01b0383166107225760405162461bcd60e51b815260206004820152602c60248201527f4c69624469616d6f6e644375743a204164642066616365742063616e2774206260448201527f65206164647265737328302900000000000000000000000000000000000000006064820152608401610105565b6001600160a01b0383166000908152600182016020526040812054906bffffffffffffffffffffffff8216900361075d5761075d8285610c21565b60005b835181101561060757600084828151811061077d5761077d6113c5565b6020908102919091018101516001600160e01b031981166000908152918690526040909120549091506001600160a01b0390811690871681036108285760405162461bcd60e51b815260206004820152603860248201527f4c69624469616d6f6e644375743a2043616e2774207265706c6163652066756e60448201527f6374696f6e20776974682073616d652066756e6374696f6e00000000000000006064820152608401610105565b610833858284610c98565b6001600160e01b0319821660008181526020878152604080832080546001600160a01b03908116600160a01b6bffffffffffffffffffffffff8c16021782558c168085526001808c0185529285208054938401815585528385206008840401805463ffffffff60079095166004026101000a948502191660e08a901c949094029390931790925593909252879052815473ffffffffffffffffffffffffffffffffffffffff1916179055836108e781611584565b945050600190920191506107609050565b600081511161096f5760405162461bcd60e51b815260206004820152602b60248201527f4c69624469616d6f6e644375743a204e6f2073656c6563746f727320696e206660448201527f6163657420746f206375740000000000000000000000000000000000000000006064820152608401610105565b7fc8fcad8db84d3cc18b4c41d551ea0ee66dd599cde068d998e57d5e09332c131c6001600160a01b03831615610a0d5760405162461bcd60e51b815260206004820152603660248201527f4c69624469616d6f6e644375743a2052656d6f7665206661636574206164647260448201527f657373206d7573742062652061646472657373283029000000000000000000006064820152608401610105565b60005b8251811015610061576000838281518110610a2d57610a2d6113c5565b6020908102919091018101516001600160e01b031981166000908152918590526040909120549091506001600160a01b0316610a6a848284610c98565b5050600101610a10565b6001600160a01b038216610afb57805115610af75760405162461bcd60e51b815260206004820152603c60248201527f4c69624469616d6f6e644375743a205f696e697420697320616464726573732860448201527f3029206275745f63616c6c64617461206973206e6f7420656d707479000000006064820152608401610105565b5050565b6001600160a01b0382163014610b2d57610b2d8260405180606001604052806028815260200161161f6028913961108e565b600080836001600160a01b031683604051610b4891906115b9565b600060405180830381855af49150503d8060008114610b83576040519150601f19603f3d011682016040523d82523d6000602084013e610b88565b606091505b50915091508161006157805115610bb3578060405162461bcd60e51b815260040161010591906115d5565b60405162461bcd60e51b815260206004820152602660248201527f4c69624469616d6f6e644375743a205f696e69742066756e6374696f6e20726560448201527f76657274656400000000000000000000000000000000000000000000000000006064820152608401610105565b610c43816040518060600160405280602481526020016116476024913961108e565b6002820180546001600160a01b03909216600081815260019485016020908152604082208601859055948401835591825292902001805473ffffffffffffffffffffffffffffffffffffffff19169091179055565b6001600160a01b038216610d145760405162461bcd60e51b815260206004820152603760248201527f4c69624469616d6f6e644375743a2043616e27742072656d6f76652066756e6360448201527f74696f6e207468617420646f65736e27742065786973740000000000000000006064820152608401610105565b306001600160a01b03831603610d925760405162461bcd60e51b815260206004820152602e60248201527f4c69624469616d6f6e644375743a2043616e27742072656d6f766520696d6d7560448201527f7461626c652066756e6374696f6e0000000000000000000000000000000000006064820152608401610105565b6001600160e01b03198116600090815260208481526040808320546001600160a01b0386168452600180880190935290832054600160a01b9091046bffffffffffffffffffffffff169291610de6916115ef565b9050808214610edd576001600160a01b03841660009081526001860160205260408120805483908110610e1b57610e1b6113c5565b600091825260208083206008830401546001600160a01b038916845260018a019091526040909220805460079092166004026101000a90920460e01b925082919085908110610e6c57610e6c6113c5565b600091825260208083206008830401805463ffffffff60079094166004026101000a938402191660e09590951c929092029390931790556001600160e01b03199290921682528690526040902080546001600160a01b0316600160a01b6bffffffffffffffffffffffff8516021790555b6001600160a01b03841660009081526001860160205260409020805480610f0657610f06611608565b60008281526020808220600860001990940193840401805463ffffffff600460078716026101000a0219169055919092556001600160e01b03198516825286905260408120819055819003610607576002850154600090610f69906001906115ef565b6001600160a01b0386166000908152600180890160205260409091200154909150808214611025576000876002018381548110610fa857610fa86113c5565b6000918252602090912001546002890180546001600160a01b039092169250829184908110610fd957610fd96113c5565b6000918252602080832091909101805473ffffffffffffffffffffffffffffffffffffffff19166001600160a01b03948516179055929091168152600189810190925260409020018190555b8660020180548061103857611038611608565b600082815260208082208301600019908101805473ffffffffffffffffffffffffffffffffffffffff191690559092019092556001600160a01b0388168252600189810190915260408220015550505050505050565b813b81816100615760405162461bcd60e51b815260040161010591906115d5565b80356001600160a01b03811681146110c657600080fd5b919050565b634e487b7160e01b600052604160045260246000fd5b6040516060810167ffffffffffffffff81118282101715611104576111046110cb565b60405290565b604051601f8201601f1916810167ffffffffffffffff81118282101715611133576111336110cb565b604052919050565b600082601f83011261114c57600080fd5b813567ffffffffffffffff811115611166576111666110cb565b6111796020601f19601f8401160161110a565b81815284602083860101111561118e57600080fd5b816020850160208301376000918101602001919091529392505050565b600080600080606085870312156111c157600080fd5b843567ffffffffffffffff8111156111d857600080fd5b8501601f810187136111e957600080fd5b803567ffffffffffffffff81111561120057600080fd5b8760208260051b840101111561121557600080fd5b6020918201955093506112299086016110af565b9150604085013567ffffffffffffffff81111561124557600080fd5b6112518782880161113b565b91505092959194509250565b600067ffffffffffffffff821115611277576112776110cb565b5060051b60200190565b600061129461128f8461125d565b61110a565b8381526020810190600585901b8401368111156112b057600080fd5b845b818110156113ba57803567ffffffffffffffff8111156112d157600080fd5b860160603682900312156112e457600080fd5b6112ec6110e1565b6112f5826110af565b815260208201356003811061130957600080fd5b6020820152604082013567ffffffffffffffff81111561132857600080fd5b919091019036601f83011261133c57600080fd5b813561134a61128f8261125d565b8082825260208201915060208360051b86010192503683111561136c57600080fd5b6020850194505b828510156113a45784356001600160e01b03198116811461139357600080fd5b825260209485019490910190611373565b60408401525050855250602093840193016112b2565b509095945050505050565b634e487b7160e01b600052603260045260246000fd5b634e487b7160e01b600052602160045260246000fd5b60005b8381101561140c5781810151838201526020016113f4565b50506000910152565b6000815180845261142d8160208601602086016113f1565b601f01601f19169290920160200192915050565b6000606082016060835280865180835260808501915060808160051b86010192506020880160005b8281101561153f577fffffffffffffffffffffffffffffffffffffffffffffffffffffffffffffff808786030184528151606086016001600160a01b0382511687526020820151600381106114ce57634e487b7160e01b600052602160045260246000fd5b806020890152506040820151915060606040880152808251808352608089019150602084019350600092505b80831015611527576001600160e01b031984511682526020820191506020840193506001830192506114fa565b50965050506020938401939190910190600101611469565b5050506001600160a01b03861660208501525082810360408401526115648185611415565b9695505050505050565b634e487b7160e01b600052601160045260246000fd5b60006bffffffffffffffffffffffff82166bffffffffffffffffffffffff81036115b0576115b061156e565b60010192915050565b600082516115cb8184602087016113f1565b9190910192915050565b6020815260006115e86020830184611415565b9392505050565b818103818111156116025761160261156e565b92915050565b634e487b7160e01b600052603160045260246000fdfe4c69624469616d6f6e644375743a205f696e6974206164647265737320686173206e6f20636f64654c69624469616d6f6e644375743a204e657720666163657420686173206e6f20636f6465a2646970667358221220ffd52c5f0db2a64457a4fa46f1c365570ef5e201a20da1ea3c41e4a16431bb9c64736f6c634300081c003360a0604052604051612bea380380612bea83398101604081905261002291611024565b6001600160a01b0381166080526100388261003f565b5050611289565b61004881610151565b604080516001808252818301909252600091816020015b6040805160608082018352600080835260208301529181019190915281526020019060019003908161005f5750506040805160018082528183019092529192506000919060208083019080368337019050509050631f931c1c60e01b816000815181106100ce576100ce611057565b6001600160e01b031990921660209283029190910182015260408051606081019091526080516001600160a01b0316815290810160008152602001828152508260008151811061012057610120611057565b602002602001018190525061014c826000604051806020016040528060008152506101d460201b60201c565b505050565b7fc8fcad8db84d3cc18b4c41d551ea0ee66dd599cde068d998e57d5e09332c132080546001600160a01b031981166001600160a01b03848116918217909355604051600080516020612b3e833981519152939092169182907f8be0079c531659141344cd1fd0a4f28419497f9722a3daafe3b4186f6b6457e090600090a3505050565b60005b83518110156103a75760008482815181106101f4576101f4611057565b6020026020010151602001519050600060028111156102155761021561106d565b8160028111156102275761022761106d565b0361027b5761027685838151811061024157610241611057565b60200260200101516000015186848151811061025f5761025f611057565b6020026020010151604001516103ed60201b60201c565b61039e565b600181600281111561028f5761028f61106d565b036102de576102768583815181106102a9576102a9611057565b6020026020010151600001518684815181106102c7576102c7611057565b60200260200101516040015161065e60201b60201c565b60028160028111156102f2576102f261106d565b036103415761027685838151811061030c5761030c611057565b60200260200101516000015186848151811061032a5761032a611057565b6020026020010151604001516108d860201b60201c565b60405162461bcd60e51b815260206004820152602760248201527f4c69624469616d6f6e644375743a20496e636f727265637420466163657443756044820152663a20b1ba34b7b760c91b60648201526084015b60405180910390fd5b506001016101d7565b507f8faa70878671ccd212d20771b795c50af8fd3ff6cf27f4bde57e5d4de0aeb6738383836040516103db939291906110d3565b60405180910390a161014c8282610a24565b60008151116104405760405162461bcd60e51b815260206004820152602b6024820152600080516020612bca83398151915260448201526a1858d95d081d1bc818dd5d60aa1b6064820152608401610395565b600080516020612b3e8339815191526001600160a01b0383166104a85760405162461bcd60e51b815260206004820152602c6024820152600080516020612b8683398151915260448201526b65206164647265737328302960a01b6064820152608401610395565b6001600160a01b0383166000908152600182016020526040812054906001600160601b03821690036104de576104de8285610bba565b60005b83518110156106575760008482815181106104fe576104fe611057565b6020908102919091018101516001600160e01b031981166000908152918690526040909120549091506001600160a01b031680156105a45760405162461bcd60e51b815260206004820152603560248201527f4c69624469616d6f6e644375743a2043616e2774206164642066756e6374696f60448201527f6e207468617420616c72656164792065786973747300000000000000000000006064820152608401610395565b6001600160e01b0319821660008181526020878152604080832080546001600160a01b03908116600160a01b6001600160601b038c16021782558c168085526001808c0185529285208054938401815585528385206008840401805463ffffffff60079095166004026101000a948502191660e08a901c94909402939093179092559390925287905281546001600160a01b03191617905583610646816111f8565b945050600190920191506104e19050565b5050505050565b60008151116106b15760405162461bcd60e51b815260206004820152602b6024820152600080516020612bca83398151915260448201526a1858d95d081d1bc818dd5d60aa1b6064820152608401610395565b600080516020612b3e8339815191526001600160a01b0383166107195760405162461bcd60e51b815260206004820152602c6024820152600080516020612b8683398151915260448201526b65206164647265737328302960a01b6064820152608401610395565b6001600160a01b0383166000908152600182016020526040812054906001600160601b038216900361074f5761074f8285610bba565b60005b835181101561065757600084828151811061076f5761076f611057565b6020908102919091018101516001600160e01b031981166000908152918690526040909120549091506001600160a01b03908116908716810361081a5760405162461bcd60e51b815260206004820152603860248201527f4c69624469616d6f6e644375743a2043616e2774207265706c6163652066756e60448201527f6374696f6e20776974682073616d652066756e6374696f6e00000000000000006064820152608401610395565b610825858284610c24565b6001600160e01b0319821660008181526020878152604080832080546001600160a01b03908116600160a01b6001600160601b038c16021782558c168085526001808c0185529285208054938401815585528385206008840401805463ffffffff60079095166004026101000a948502191660e08a901c94909402939093179092559390925287905281546001600160a01b031916179055836108c7816111f8565b945050600190920191506107529050565b600081511161092b5760405162461bcd60e51b815260206004820152602b6024820152600080516020612bca83398151915260448201526a1858d95d081d1bc818dd5d60aa1b6064820152608401610395565b600080516020612b3e8339815191526001600160a01b038316156109b75760405162461bcd60e51b815260206004820152603660248201527f4c69624469616d6f6e644375743a2052656d6f7665206661636574206164647260448201527f657373206d7573742062652061646472657373283029000000000000000000006064820152608401610395565b60005b8251811015610a1e5760008382815181106109d7576109d7611057565b6020908102919091018101516001600160e01b031981166000908152918590526040909120549091506001600160a01b0316610a14848284610c24565b50506001016109ba565b50505050565b6001600160a01b038216610aab57805115610aa75760405162461bcd60e51b815260206004820152603c60248201527f4c69624469616d6f6e644375743a205f696e697420697320616464726573732860448201527f3029206275745f63616c6c64617461206973206e6f7420656d707479000000006064820152608401610395565b5050565b6001600160a01b0382163014610add57610add82604051806060016040528060288152602001612b5e60289139610fe7565b600080836001600160a01b031683604051610af89190611224565b600060405180830381855af49150503d8060008114610b33576040519150601f19603f3d011682016040523d82523d6000602084013e610b38565b606091505b509150915081610a1e57805115610b63578060405162461bcd60e51b81526004016103959190611240565b60405162461bcd60e51b815260206004820152602660248201527f4c69624469616d6f6e644375743a205f696e69742066756e6374696f6e2072656044820152651d995c9d195960d21b6064820152608401610395565b610bdc81604051806060016040528060248152602001612ba660249139610fe7565b6002820180546001600160a01b0390921660008181526001948501602090815260408220860185905594840183559182529290200180546001600160a01b0319169091179055565b6001600160a01b038216610ca05760405162461bcd60e51b815260206004820152603760248201527f4c69624469616d6f6e644375743a2043616e27742072656d6f76652066756e6360448201527f74696f6e207468617420646f65736e27742065786973740000000000000000006064820152608401610395565b306001600160a01b03831603610d0f5760405162461bcd60e51b815260206004820152602e60248201527f4c69624469616d6f6e644375743a2043616e27742072656d6f766520696d6d7560448201526d3a30b1363290333ab731ba34b7b760911b6064820152608401610395565b6001600160e01b03198116600090815260208481526040808320546001600160a01b0386168452600180880190935290832054600160a01b9091046001600160601b03169291610d5e9161125a565b9050808214610e50576001600160a01b03841660009081526001860160205260408120805483908110610d9357610d93611057565b600091825260208083206008830401546001600160a01b038916845260018a019091526040909220805460079092166004026101000a90920460e01b925082919085908110610de457610de4611057565b600091825260208083206008830401805463ffffffff60079094166004026101000a938402191660e09590951c929092029390931790556001600160e01b03199290921682528690526040902080546001600160a01b0316600160a01b6001600160601b038516021790555b6001600160a01b03841660009081526001860160205260409020805480610e7957610e79611273565b60008281526020808220600860001990940193840401805463ffffffff600460078716026101000a0219169055919092556001600160e01b03198516825286905260408120819055819003610657576002850154600090610edc9060019061125a565b6001600160a01b0386166000908152600180890160205260409091200154909150808214610f8b576000876002018381548110610f1b57610f1b611057565b6000918252602090912001546002890180546001600160a01b039092169250829184908110610f4c57610f4c611057565b600091825260208083209190910180546001600160a01b0319166001600160a01b03948516179055929091168152600189810190925260409020018190555b86600201805480610f9e57610f9e611273565b60008281526020808220830160001990810180546001600160a01b03191690559092019092556001600160a01b0388168252600189810190915260408220015550505050505050565b813b8181610a1e5760405162461bcd60e51b81526004016103959190611240565b80516001600160a01b038116811461101f57600080fd5b919050565b6000806040838503121561103757600080fd5b61104083611008565b915061104e60208401611008565b90509250929050565b634e487b7160e01b600052603260045260246000fd5b634e487b7160e01b600052602160045260246000fd5b60005b8381101561109e578181015183820152602001611086565b50506000910152565b600081518084526110bf816020860160208601611083565b601f01601f19169290920160200192915050565b6000606082016060835280865180835260808501915060808160051b86010192506020880160005b828110156111b357868503607f19018452815180516001600160a01b03168652602081015160608701906003811061114357634e487b7160e01b600052602160045260246000fd5b806020890152506040820151915060606040880152808251808352608089019150602084019350600092505b8083101561119b5783516001600160e01b0319168252602093840193600193909301929091019061116f565b509650505060209384019391909101906001016110fb565b5050506001600160a01b03861660208501525082810360408401526111d881856110a7565b9695505050505050565b634e487b7160e01b600052601160045260246000fd5b60006001600160601b0382166002600160601b0319810161121b5761121b6111e2565b60010192915050565b60008251611236818460208701611083565b9190910192915050565b60208152600061125360208301846110a7565b9392505050565b8181038181111561126d5761126d6111e2565b92915050565b634e487b7160e01b600052603160045260246000fd5b60805161189a6112a460003960006101e9015261189a6000f3fe60806040523661000b57005b600080356001600160e01b03191681527fc8fcad8db84d3cc18b4c41d551ea0ee66dd599cde068d998e57d5e09332c131c602081905260409091205481906001600160a01b031680610109577fe06ce3e4000000000000000000000000000000000000000000000000000000006000356001600160e01b031916016100c4576000808061009b3660048184611299565b8101906100a891906113ef565b9250925092506100b73361012d565b6100c2838383610257565b005b6040517f605038ab0000000000000000000000000000000000000000000000000000000081526001600160e01b03196000351660048201526024015b60405180910390fd5b3660008037600080366000845af43d6000803e808015610128573d6000f35b3d6000fd5b6101368161046f565b604080516001808252818301909252600091816020015b6040805160608082018352600080835260208301529181019190915281526020019060019003908161014d5750506040805160018082528183019092529192506000919060208083019080368337019050509050631f931c1c60e01b816000815181106101bc576101bc6115bf565b6001600160e01b031990921660209283029190910182015260408051606081019091526001600160a01b037f000000000000000000000000000000000000000000000000000000000000000016815290810160008152602001828152508260008151811061022c5761022c6115bf565b602002602001018190525061025282600060405180602001604052806000815250610257565b505050565b60005b8351811015610429576000848281518110610277576102776115bf565b602002602001015160200151905060006002811115610298576102986115d5565b8160028111156102aa576102aa6115d5565b036102f8576102f38583815181106102c4576102c46115bf565b6020026020010151600001518684815181106102e2576102e26115bf565b602002602001015160400151610511565b610420565b600181600281111561030c5761030c6115d5565b03610355576102f3858381518110610326576103266115bf565b602002602001015160000151868481518110610344576103446115bf565b6020026020010151604001516107f2565b6002816002811115610369576103696115d5565b036103b2576102f3858381518110610383576103836115bf565b6020026020010151600001518684815181106103a1576103a16115bf565b602002602001015160400151610adc565b60405162461bcd60e51b815260206004820152602760248201527f4c69624469616d6f6e644375743a20496e636f7272656374204661636574437560448201527f74416374696f6e000000000000000000000000000000000000000000000000006064820152608401610100565b5060010161025a565b507f8faa70878671ccd212d20771b795c50af8fd3ff6cf27f4bde57e5d4de0aeb67383838360405161045d9392919061163b565b60405180910390a16102528282610c5e565b7fc8fcad8db84d3cc18b4c41d551ea0ee66dd599cde068d998e57d5e09332c1320805473ffffffffffffffffffffffffffffffffffffffff1981166001600160a01b038481169182179093556040517fc8fcad8db84d3cc18b4c41d551ea0ee66dd599cde068d998e57d5e09332c131c939092169182907f8be0079c531659141344cd1fd0a4f28419497f9722a3daafe3b4186f6b6457e090600090a3505050565b60008151116105885760405162461bcd60e51b815260206004820152602b60248201527f4c69624469616d6f6e644375743a204e6f2073656c6563746f727320696e206660448201527f6163657420746f206375740000000000000000000000000000000000000000006064820152608401610100565b7fc8fcad8db84d3cc18b4c41d551ea0ee66dd599cde068d998e57d5e09332c131c6001600160a01b0383166106255760405162461bcd60e51b815260206004820152602c60248201527f4c69624469616d6f6e644375743a204164642066616365742063616e2774206260448201527f65206164647265737328302900000000000000000000000000000000000000006064820152608401610100565b6001600160a01b0383166000908152600182016020526040812054906bffffffffffffffffffffffff82169003610660576106608285610e0b565b60005b83518110156107eb576000848281518110610680576106806115bf565b6020908102919091018101516001600160e01b031981166000908152918690526040909120549091506001600160a01b031680156107265760405162461bcd60e51b815260206004820152603560248201527f4c69624469616d6f6e644375743a2043616e2774206164642066756e6374696f60448201527f6e207468617420616c72656164792065786973747300000000000000000000006064820152608401610100565b6001600160e01b0319821660008181526020878152604080832080546001600160a01b03908116600160a01b6bffffffffffffffffffffffff8c16021782558c168085526001808c0185529285208054938401815585528385206008840401805463ffffffff60079095166004026101000a948502191660e08a901c949094029390931790925593909252879052815473ffffffffffffffffffffffffffffffffffffffff1916179055836107da8161177e565b945050600190920191506106639050565b5050505050565b60008151116108695760405162461bcd60e51b815260206004820152602b60248201527f4c69624469616d6f6e644375743a204e6f2073656c6563746f727320696e206660448201527f6163657420746f206375740000000000000000000000000000000000000000006064820152608401610100565b7fc8fcad8db84d3cc18b4c41d551ea0ee66dd599cde068d998e57d5e09332c131c6001600160a01b0383166109065760405162461bcd60e51b815260206004820152602c60248201527f4c69624469616d6f6e644375743a204164642066616365742063616e2774206260448201527f65206164647265737328302900000000000000000000000000000000000000006064820152608401610100565b6001600160a01b0383166000908152600182016020526040812054906bffffffffffffffffffffffff82169003610941576109418285610e0b565b60005b83518110156107eb576000848281518110610961576109616115bf565b6020908102919091018101516001600160e01b031981166000908152918690526040909120549091506001600160a01b039081169087168103610a0c5760405162461bcd60e51b815260206004820152603860248201527f4c69624469616d6f6e644375743a2043616e2774207265706c6163652066756e60448201527f6374696f6e20776974682073616d652066756e6374696f6e00000000000000006064820152608401610100565b610a17858284610e82565b6001600160e01b0319821660008181526020878152604080832080546001600160a01b03908116600160a01b6bffffffffffffffffffffffff8c16021782558c168085526001808c0185529285208054938401815585528385206008840401805463ffffffff60079095166004026101000a948502191660e08a901c949094029390931790925593909252879052815473ffffffffffffffffffffffffffffffffffffffff191617905583610acb8161177e565b945050600190920191506109449050565b6000815111610b535760405162461bcd60e51b815260206004820152602b60248201527f4c69624469616d6f6e644375743a204e6f2073656c6563746f727320696e206660448201527f6163657420746f206375740000000000000000000000000000000000000000006064820152608401610100565b7fc8fcad8db84d3cc18b4c41d551ea0ee66dd599cde068d998e57d5e09332c131c6001600160a01b03831615610bf15760405162461bcd60e51b815260206004820152603660248201527f4c69624469616d6f6e644375743a2052656d6f7665206661636574206164647260448201527f657373206d7573742062652061646472657373283029000000000000000000006064820152608401610100565b60005b8251811015610c58576000838281518110610c1157610c116115bf565b6020908102919091018101516001600160e01b031981166000908152918590526040909120549091506001600160a01b0316610c4e848284610e82565b5050600101610bf4565b50505050565b6001600160a01b038216610ce557805115610ce15760405162461bcd60e51b815260206004820152603c60248201527f4c69624469616d6f6e644375743a205f696e697420697320616464726573732860448201527f3029206275745f63616c6c64617461206973206e6f7420656d707479000000006064820152608401610100565b5050565b6001600160a01b0382163014610d1757610d178260405180606001604052806028815260200161181960289139611278565b600080836001600160a01b031683604051610d3291906117b3565b600060405180830381855af49150503d8060008114610d6d576040519150601f19603f3d011682016040523d82523d6000602084013e610d72565b606091505b509150915081610c5857805115610d9d578060405162461bcd60e51b815260040161010091906117cf565b60405162461bcd60e51b815260206004820152602660248201527f4c69624469616d6f6e644375743a205f696e69742066756e6374696f6e20726560448201527f76657274656400000000000000000000000000000000000000000000000000006064820152608401610100565b610e2d8160405180606001604052806024815260200161184160249139611278565b6002820180546001600160a01b03909216600081815260019485016020908152604082208601859055948401835591825292902001805473ffffffffffffffffffffffffffffffffffffffff19169091179055565b6001600160a01b038216610efe5760405162461bcd60e51b815260206004820152603760248201527f4c69624469616d6f6e644375743a2043616e27742072656d6f76652066756e6360448201527f74696f6e207468617420646f65736e27742065786973740000000000000000006064820152608401610100565b306001600160a01b03831603610f7c5760405162461bcd60e51b815260206004820152602e60248201527f4c69624469616d6f6e644375743a2043616e27742072656d6f766520696d6d7560448201527f7461626c652066756e6374696f6e0000000000000000000000000000000000006064820152608401610100565b6001600160e01b03198116600090815260208481526040808320546001600160a01b0386168452600180880190935290832054600160a01b9091046bffffffffffffffffffffffff169291610fd0916117e9565b90508082146110c7576001600160a01b03841660009081526001860160205260408120805483908110611005576110056115bf565b600091825260208083206008830401546001600160a01b038916845260018a019091526040909220805460079092166004026101000a90920460e01b925082919085908110611056576110566115bf565b600091825260208083206008830401805463ffffffff60079094166004026101000a938402191660e09590951c929092029390931790556001600160e01b03199290921682528690526040902080546001600160a01b0316600160a01b6bffffffffffffffffffffffff8516021790555b6001600160a01b038416600090815260018601602052604090208054806110f0576110f0611802565b60008281526020808220600860001990940193840401805463ffffffff600460078716026101000a0219169055919092556001600160e01b031985168252869052604081208190558190036107eb576002850154600090611153906001906117e9565b6001600160a01b038616600090815260018089016020526040909120015490915080821461120f576000876002018381548110611192576111926115bf565b6000918252602090912001546002890180546001600160a01b0390921692508291849081106111c3576111c36115bf565b6000918252602080832091909101805473ffffffffffffffffffffffffffffffffffffffff19166001600160a01b03948516179055929091168152600189810190925260409020018190555b8660020180548061122257611222611802565b600082815260208082208301600019908101805473ffffffffffffffffffffffffffffffffffffffff191690559092019092556001600160a01b0388168252600189810190915260408220015550505050505050565b813b8181610c585760405162461bcd60e51b815260040161010091906117cf565b600080858511156112a957600080fd5b838611156112b657600080fd5b5050820193919092039150565b634e487b7160e01b600052604160045260246000fd5b6040516060810167ffffffffffffffff811182821017156112fc576112fc6112c3565b60405290565b604051601f8201601f1916810167ffffffffffffffff8111828210171561132b5761132b6112c3565b604052919050565b600067ffffffffffffffff82111561134d5761134d6112c3565b5060051b60200190565b6001600160a01b038116811461136c57600080fd5b50565b803561137a81611357565b919050565b600082601f83011261139057600080fd5b813567ffffffffffffffff8111156113aa576113aa6112c3565b6113bd6020601f19601f84011601611302565b8181528460208386010111156113d257600080fd5b816020850160208301376000918101602001919091529392505050565b60008060006060848603121561140457600080fd5b833567ffffffffffffffff81111561141b57600080fd5b8401601f8101861361142c57600080fd5b803561143f61143a82611333565b611302565b8082825260208201915060208360051b85010192508883111561146157600080fd5b602084015b8381101561157a57803567ffffffffffffffff81111561148557600080fd5b85016060818c03601f1901121561149b57600080fd5b6114a36112d9565b60208201356114b181611357565b81526040820135600381106114c557600080fd5b6020820152606082013567ffffffffffffffff8111156114e457600080fd5b6020818401019250508b601f8301126114fc57600080fd5b813561150a61143a82611333565b8082825260208201915060208360051b86010192508e83111561152c57600080fd5b6020850194505b828510156115645784356001600160e01b03198116811461155357600080fd5b825260209485019490910190611533565b6040840152505084525060209283019201611466565b50955061158d925050506020850161136f565b9150604084013567ffffffffffffffff8111156115a957600080fd5b6115b58682870161137f565b9150509250925092565b634e487b7160e01b600052603260045260246000fd5b634e487b7160e01b600052602160045260246000fd5b60005b838110156116065781810151838201526020016115ee565b50506000910152565b600081518084526116278160208601602086016115eb565b601f01601f19169290920160200192915050565b6000606082016060835280865180835260808501915060808160051b86010192506020880160005b82811015611739577fffffffffffffffffffffffffffffffffffffffffffffffffffffffffffffff808786030184528151606086016001600160a01b0382511687526020820151600381106116c857634e487b7160e01b600052602160045260246000fd5b806020890152506040820151915060606040880152808251808352608089019150602084019350600092505b80831015611721576001600160e01b031984511682526020820191506020840193506001830192506116f4565b50965050506020938401939190910190600101611663565b5050506001600160a01b038616602085015250828103604084015261175e818561160f565b9695505050505050565b634e487b7160e01b600052601160045260246000fd5b60006bffffffffffffffffffffffff82166bffffffffffffffffffffffff81036117aa576117aa611768565b60010192915050565b600082516117c58184602087016115eb565b9190910192915050565b6020815260006117e2602083018461160f565b9392505050565b818103818111156117fc576117fc611768565b92915050565b634e487b7160e01b600052603160045260246000fdfe4c69624469616d6f6e644375743a205f696e6974206164647265737320686173206e6f20636f64654c69624469616d6f6e644375743a204e657720666163657420686173206e6f20636f6465a26469706673582212209ad0d7f799ff3f517dd3e4672c9caa4e59ae89e41a337ba1ffa62e8ffab0365d64736f6c634300081c0033c8fcad8db84d3cc18b4c41d551ea0ee66dd599cde068d998e57d5e09332c131c4c69624469616d6f6e644375743a205f696e6974206164647265737320686173206e6f20636f64654c69624469616d6f6e644375743a204164642066616365742063616e277420624c69624469616d6f6e644375743a204e657720666163657420686173206e6f20636f64654c69624469616d6f6e644375743a204e6f2073656c6563746f727320696e2066",
  "devdoc": {
    "author": "Peeramid Labs, 2024",
    "details": "This contract follows the Diamond pattern and is designed to be used exclusively by the      Distributor contract. It manages facets for tournament operations, voting, and game master functions.",
    "errors": {
      "ERC1167FailedCreateClone()": [
        {
          "details": "A clone instance deployment failed."
        }
      ]
    },
    "events": {
      "Distributed(address,address[])": {
        "params": {
          "distributor": "The address of the entity that performed the distribution.",
          "instances": "An array of addresses that were produced."
        }
      }
    },
    "kind": "dev",
    "methods": {
      "constructor": {
        "details": "Constructor for the ArguableVotingTournament contractThe initializer function is added as a regular facet to the Diamond Proxy.      Since initialization is handled by the distributor contract, it's expected that      the distributor will remove this facet after successful initialization."
      },
      "get()": {
        "returns": {
          "_0": "An array of addresses that are used for instantiation.",
          "name": "The name of the distribution.",
          "version": "The version of the distribution."
        }
      },
      "instantiate(bytes)": {
        "details": "// instances: 0 - diamond; 1 - DiamondLoupeFacet; 2 - EIP712InspectorFacet; 3 - RankifyInstanceMainFacet; 4 - RankifyInstanceRequirementsFacet; 5 - RankifyInstanceGameMastersFacet // 6 - OwnershipFacet",
        "returns": {
          "_1": "distributionName: bytes32 encoded name to be used in EIP712 signing flow",
          "_2": "distributionVersion: uint256 encoded distribution version. Can be parsed to eip712 signature with EDS LibSemver",
          "instances": "Array[8]: [diamond proxy, 8x diamond facets..]"
        }
      }
    },
    "title": "ArguableVotingTournament Distribution",
    "version": 1
  },
  "userdoc": {
    "events": {
      "Distributed(address,address[])": {
        "notice": "Emitted when a distribution occurs."
      }
    },
    "kind": "user",
    "methods": {
      "constructor": {
        "notice": "Sets up the diamond proxy system with all required facets and initializes core components"
      },
      "get()": {
        "notice": "Retrieves the current distribution sources."
      },
      "instantiate(bytes)": {
        "notice": "see Ethereum Distribution System IDistribute for interface specification."
      }
    },
    "notice": "This contract implements a diamond distribution for the Ethereum Distribution System (EDS).         It creates and manages instances of ArguableVotingTournament, enabling decentralized         tournament management with voting capabilities.",
    "version": 1
  },
  "storageLayout": {
    "storage": [],
    "types": null
  }
}