{
  "address": "0x3B16E8e4d49fda19C2CC112c0f6D001ecDA45F5A",
  "abi": [
    {
      "inputs": [
        {
          "internalType": "string",
          "name": "name",
          "type": "string"
        },
        {
          "internalType": "string",
          "name": "version",
          "type": "string"
        },
        {
          "components": [
            {
              "internalType": "uint256",
              "name": "timePerTurn",
              "type": "uint256"
            },
            {
              "internalType": "uint256",
              "name": "maxPlayersSize",
              "type": "uint256"
            },
            {
              "internalType": "uint256",
              "name": "minPlayersSize",
              "type": "uint256"
            },
            {
              "internalType": "address",
              "name": "rankTokenAddress",
              "type": "address"
            },
            {
              "internalType": "uint256",
              "name": "timeToJoin",
              "type": "uint256"
            },
            {
              "internalType": "uint256",
              "name": "gamePrice",
              "type": "uint256"
            },
            {
              "internalType": "uint256",
              "name": "joinGamePrice",
              "type": "uint256"
            },
            {
              "internalType": "uint256",
              "name": "maxTurns",
              "type": "uint256"
            },
            {
              "internalType": "uint256",
              "name": "numWinners",
              "type": "uint256"
            },
            {
              "internalType": "uint256",
              "name": "voteCredits",
              "type": "uint256"
            },
            {
              "internalType": "string",
              "name": "subject",
              "type": "string"
            },
            {
              "internalType": "address",
              "name": "agendaToken",
              "type": "address"
            }
          ],
          "internalType": "struct BestOfInit.contractInitializer",
          "name": "initializer",
          "type": "tuple"
        }
      ],
      "name": "init",
      "outputs": [],
      "stateMutability": "nonpayable",
      "type": "function"
    }
  ],
  "transactionHash": "0xb8386fec33f9ee861d0fe047ccf611b1fd1feba7961ab8ce346e1e7278c8f6de",
  "args": [],
  "numDeployments": 7,
  "solcInputHash": "1e22b7ec64d8e2bdc9e168f5961b8731",
  "bytecode": "0x608060405234801561001057600080fd5b506111f4806100206000396000f3fe608060405234801561001057600080fd5b506004361061002b5760003560e01c80631e77abbc14610030575b600080fd5b61004361003e366004610dc9565b610045565b005b61004d6105f1565b7fc8fcad8db84d3cc18b4c41d551ea0ee66dd599cde068d998e57d5e09332c131f60209081527f699d9daa71b280d05a152715774afa0a81a312594b2d731d6b0b2552b7d6f69f805460017fffffffffffffffffffffffffffffffffffffffffffffffffffffffffffffff0091821681179092557ff97e938d8af42f52387bb74b8b526fda8f184cc2aa534340a8d75a88fbecc77580548216831790557f65d510a5d8f7ef134ec444f7f34ee808c8eeb5177cdfd16be0c40fe1ab43369580548216831790557f7f5828d0000000000000000000000000000000000000000000000000000000006000527f5622121b47b8cd0120c4efe45dd5483242f54a3d49bd7679be565d47694918c3805490911690911790558351848201208351848301207fe5b6a7afa77789577f2802f0da58895f660e5798c5c11b2ea18b0a53bd65d3aa8290557fe5b6a7afa77789577f2802f0da58895f660e5798c5c11b2ea18b0a53bd65d3ab819055467fe5b6a7afa77789577f2802f0da58895f660e5798c5c11b2ea18b0a53bd65d3a8819055604080517f8b73c3c69bb8fe3d512ecc4cf759cc79239f7b179b0ffacaa9a75d522b39400f8187018190528183018690526060820185905260808201939093523060a0808301919091528251808303909101815260c090910190915280519401939093207fc8fcad8db84d3cc18b4c41d551ea0ee66dd599cde068d998e57d5e09332c131c93907fe5b6a7afa77789577f2802f0da58895f660e5798c5c11b2ea18b0a53bd65d3a79081556002810180547fffffffffffffffffffffffff000000000000000000000000000000000000000016301790556005810182905560006102c36106a2565b90506102d887610120015188604001516106cd565b805160058301556020810151600683015560400151600782015560a0870151815560c0870151600282015561016087015173ffffffffffffffffffffffffffffffffffffffff166103705760405162461bcd60e51b815260206004820152601f60248201527f696e697469616c697a65722e6167656e6461546f6b656e206e6f74207365740060448201526064015b60405180910390fd5b6101608701516001820180547fffffffffffffffffffffffff00000000000000000000000000000000000000001673ffffffffffffffffffffffffffffffffffffffff92831617905560608801516040517f01ffc9a70000000000000000000000000000000000000000000000000000000081527fb0262bf600000000000000000000000000000000000000000000000000000000600482015290918216906301ffc9a790602401602060405180830381865afa158015610435573d6000803e3d6000fd5b505050506040513d601f19601f820116820180604052508101906104599190610f07565b6104f25760405162461bcd60e51b8152602060048201526044602482018190527f426573744f6647616d652d3e696e69743a2072616e6b20746f6b656e20616464908201527f7265737320646f6573206e6f7420737570706f72742052616e6b20696e74657260648201527f6661636500000000000000000000000000000000000000000000000000000000608482015260a401610367565b6060808901516004840180547fffffffffffffffffffffff0000000000000000000000000000000000000000001673ffffffffffffffffffffffffffffffffffffffff909216919091177401000000000000000000000000000000000000000017905560408051610100810182526000808252602082018190529181018290528083018290526080810182905260a0810182905260c081019190915260e0810191909152885181526020808a0151908201526040808a0151908201526080808a0151606083015260e0808b0151918301919091526101008a015160a08301526101408a0151908201526105e481610804565b5050505050505050505050565b7fc8fcad8db84d3cc18b4c41d551ea0ee66dd599cde068d998e57d5e09332c131c6004015473ffffffffffffffffffffffffffffffffffffffff1633146106a05760405162461bcd60e51b815260206004820152602260248201527f4c69624469616d6f6e643a204d75737420626520636f6e7472616374206f776e60448201527f65720000000000000000000000000000000000000000000000000000000000006064820152608401610367565b565b6000807f7acf15cdb85906c3736403f86bf7ccb69a25bb6dbdcde1cbcbf35fe2a64df8525b92915050565b6106f160405180606001604052806000815260200160008152602001600081525090565b61071560405180606001604052806000815260200160008152602001600081525090565b61071e84610b3a565b60208201526000805b8161073181610f3f565b9250610740905060028361103d565b61074a908261104c565b9050858110610727578581146107a25760405162461bcd60e51b815260206004820152601460248201527f717561647261746963566f74696e674572726f720000000000000000000000006044820152606401610367565b604083018290528185116107f85760405162461bcd60e51b815260206004820152601460248201527f717561647261746963566f74696e674572726f720000000000000000000000006044820152606401610367565b50509283525090919050565b80517f91591bea3fc8863c74b4740fa2dfd9fd428a1e509b60555e4d1e8d8028901f2d906000036108775760405162461bcd60e51b815260206004820152601460248201527f73657474696e67732e74696d655065725475726e0000000000000000000000006044820152606401610367565b81602001516000036108cb5760405162461bcd60e51b815260206004820152601760248201527f73657474696e67732e6d6178506c617965727353697a650000000000000000006044820152606401610367565b6002826040015110156109205760405162461bcd60e51b815260206004820152601760248201527f73657474696e67732e6d696e506c617965727353697a650000000000000000006044820152606401610367565b81608001516000036109745760405162461bcd60e51b815260206004820152601160248201527f73657474696e67732e6d61785475726e730000000000000000000000000000006044820152606401610367565b60a0820151158061098d575081604001518260a0015110155b156109da5760405162461bcd60e51b815260206004820152600a60248201527f6e756d57696e6e657273000000000000000000000000000000000000000000006044820152606401610367565b8160600151600003610a2e5760405162461bcd60e51b815260206004820152600a60248201527f74696d65546f4a6f696e000000000000000000000000000000000000000000006044820152606401610367565b816040015182602001511015610a865760405162461bcd60e51b815260206004820152600e60248201527f6d6178506c617965727353697a650000000000000000000000000000000000006044820152606401610367565b8160e0015151600003610adb5760405162461bcd60e51b815260206004820152600e60248201527f7375626a656374206c656e6774680000000000000000000000000000000000006044820152606401610367565b815181556020820151600182015560408201516002820155606082015160038201556080820151600482015560a0820151600582015560c0820151600682015560e0820151829082906007820190610b3390826110e8565b5050505050565b600081600003610b4c57506000919050565b60006001610b5984610c29565b901c6001901b90506001818481610b7257610b726111a8565b048201901c90506001818481610b8a57610b8a6111a8565b048201901c90506001818481610ba257610ba26111a8565b048201901c90506001818481610bba57610bba6111a8565b048201901c90506001818481610bd257610bd26111a8565b048201901c90506001818481610bea57610bea6111a8565b048201901c90506001818481610c0257610c026111a8565b048201901c9050610c2281828581610c1c57610c1c6111a8565b04610cbd565b9392505050565b600080608083901c15610c3e57608092831c92015b604083901c15610c5057604092831c92015b602083901c15610c6257602092831c92015b601083901c15610c7457601092831c92015b600883901c15610c8657600892831c92015b600483901c15610c9857600492831c92015b600283901c15610caa57600292831c92015b600183901c156106c75760010192915050565b6000818310610ccc5781610c22565b5090919050565b634e487b7160e01b600052604160045260246000fd5b604051610180810167ffffffffffffffff81118282101715610d0d57610d0d610cd3565b60405290565b600082601f830112610d2457600080fd5b813567ffffffffffffffff80821115610d3f57610d3f610cd3565b604051601f8301601f19908116603f01168101908282118183101715610d6757610d67610cd3565b81604052838152866020858801011115610d8057600080fd5b836020870160208301376000602085830101528094505050505092915050565b803573ffffffffffffffffffffffffffffffffffffffff81168114610dc457600080fd5b919050565b600080600060608486031215610dde57600080fd5b833567ffffffffffffffff80821115610df657600080fd5b610e0287838801610d13565b94506020860135915080821115610e1857600080fd5b610e2487838801610d13565b93506040860135915080821115610e3a57600080fd5b908501906101808288031215610e4f57600080fd5b610e57610ce9565b823581526020830135602082015260408301356040820152610e7b60608401610da0565b60608201526080830135608082015260a083013560a082015260c083013560c082015260e083013560e08201526101008084013581830152506101208084013581830152506101408084013583811115610ed457600080fd5b610ee08a828701610d13565b8284015250506101609150610ef6828401610da0565b828201528093505050509250925092565b600060208284031215610f1957600080fd5b81518015158114610c2257600080fd5b634e487b7160e01b600052601160045260246000fd5b60006000198203610f5257610f52610f29565b5060010190565b600181815b80851115610f94578160001904821115610f7a57610f7a610f29565b80851615610f8757918102915b93841c9390800290610f5e565b509250929050565b600082610fab575060016106c7565b81610fb8575060006106c7565b8160018114610fce5760028114610fd857610ff4565b60019150506106c7565b60ff841115610fe957610fe9610f29565b50506001821b6106c7565b5060208310610133831016604e8410600b8410161715611017575081810a6106c7565b6110218383610f59565b806000190482111561103557611035610f29565b029392505050565b6000610c2260ff841683610f9c565b808201808211156106c7576106c7610f29565b600181811c9082168061107357607f821691505b60208210810361109357634e487b7160e01b600052602260045260246000fd5b50919050565b601f8211156110e357600081815260208120601f850160051c810160208610156110c05750805b601f850160051c820191505b818110156110df578281556001016110cc565b5050505b505050565b815167ffffffffffffffff81111561110257611102610cd3565b61111681611110845461105f565b84611099565b602080601f83116001811461114b57600084156111335750858301515b600019600386901b1c1916600185901b1785556110df565b600085815260208120601f198616915b8281101561117a5788860151825594840194600190910190840161115b565b50858210156111985787850151600019600388901b60f8161c191681555b5050505050600190811b01905550565b634e487b7160e01b600052601260045260246000fdfea26469706673582212204e31c639b4025fa211c3f3c9184ed3ff36aebb2016ac8ce230077f8d4537576664736f6c63430008140033",
  "devdoc": {
    "kind": "dev",
    "methods": {},
    "version": 1
  },
  "userdoc": {
    "kind": "user",
    "methods": {},
    "version": 1
  },
  "storageLayout": {
    "storage": [],
    "types": null
  }
}