{
  "address": "0xa8B1DB03B9b3e1a031acb6270d1328d80318Fb04",
  "abi": [
    {
      "inputs": [
        {
          "internalType": "address",
          "name": "defaultAdmin",
          "type": "address"
        },
        {
          "internalType": "contract IERC20",
          "name": "token",
          "type": "address"
        },
        {
          "internalType": "uint256",
          "name": "defaultCost",
          "type": "uint256"
        }
      ],
      "stateMutability": "nonpayable",
      "type": "constructor"
    },
    {
      "inputs": [],
      "name": "AccessControlBadConfirmation",
      "type": "error"
    },
    {
      "inputs": [
        {
          "internalType": "uint48",
          "name": "schedule",
          "type": "uint48"
        }
      ],
      "name": "AccessControlEnforcedDefaultAdminDelay",
      "type": "error"
    },
    {
      "inputs": [],
      "name": "AccessControlEnforcedDefaultAdminRules",
      "type": "error"
    },
    {
      "inputs": [
        {
          "internalType": "address",
          "name": "defaultAdmin",
          "type": "address"
        }
      ],
      "name": "AccessControlInvalidDefaultAdmin",
      "type": "error"
    },
    {
      "inputs": [
        {
          "internalType": "address",
          "name": "account",
          "type": "address"
        },
        {
          "internalType": "bytes32",
          "name": "neededRole",
          "type": "bytes32"
        }
      ],
      "name": "AccessControlUnauthorizedAccount",
      "type": "error"
    },
    {
      "inputs": [
        {
          "internalType": "bytes32",
          "name": "id",
          "type": "bytes32"
        }
      ],
      "name": "DistributionExists",
      "type": "error"
    },
    {
      "inputs": [
        {
          "internalType": "bytes32",
          "name": "id",
          "type": "bytes32"
        }
      ],
      "name": "DistributionNotFound",
      "type": "error"
    },
    {
      "inputs": [
        {
          "internalType": "bytes32",
          "name": "id",
          "type": "bytes32"
        }
      ],
      "name": "InitializerNotFound",
      "type": "error"
    },
    {
      "inputs": [
        {
          "internalType": "address",
          "name": "instance",
          "type": "address"
        }
      ],
      "name": "InvalidInstance",
      "type": "error"
    },
    {
      "inputs": [
        {
          "internalType": "address",
          "name": "repository",
          "type": "address"
        }
      ],
      "name": "InvalidRepository",
      "type": "error"
    },
    {
      "inputs": [
        {
          "internalType": "bytes32",
          "name": "distributionId",
          "type": "bytes32"
        },
        {
          "internalType": "string",
          "name": "version",
          "type": "string"
        }
      ],
      "name": "InvalidVersionRequested",
      "type": "error"
    },
    {
      "inputs": [
        {
          "internalType": "address",
          "name": "repository",
          "type": "address"
        }
      ],
      "name": "RepositoryAlreadyExists",
      "type": "error"
    },
    {
      "inputs": [
        {
          "internalType": "uint8",
          "name": "bits",
          "type": "uint8"
        },
        {
          "internalType": "uint256",
          "name": "value",
          "type": "uint256"
        }
      ],
      "name": "SafeCastOverflowedUintDowncast",
      "type": "error"
    },
    {
      "inputs": [
        {
          "internalType": "bytes32",
          "name": "distributionId",
          "type": "bytes32"
        }
      ],
      "name": "UnversionedDistribution",
      "type": "error"
    },
    {
      "inputs": [
        {
          "internalType": "bytes32",
          "name": "distributionId",
          "type": "bytes32"
        },
        {
          "internalType": "string",
          "name": "version",
          "type": "string"
        }
      ],
      "name": "VersionOutdated",
      "type": "error"
    },
    {
      "anonymous": false,
      "inputs": [],
      "name": "DefaultAdminDelayChangeCanceled",
      "type": "event"
    },
    {
      "anonymous": false,
      "inputs": [
        {
          "indexed": false,
          "internalType": "uint48",
          "name": "newDelay",
          "type": "uint48"
        },
        {
          "indexed": false,
          "internalType": "uint48",
          "name": "effectSchedule",
          "type": "uint48"
        }
      ],
      "name": "DefaultAdminDelayChangeScheduled",
      "type": "event"
    },
    {
      "anonymous": false,
      "inputs": [],
      "name": "DefaultAdminTransferCanceled",
      "type": "event"
    },
    {
      "anonymous": false,
      "inputs": [
        {
          "indexed": true,
          "internalType": "address",
          "name": "newAdmin",
          "type": "address"
        },
        {
          "indexed": false,
          "internalType": "uint48",
          "name": "acceptSchedule",
          "type": "uint48"
        }
      ],
      "name": "DefaultAdminTransferScheduled",
      "type": "event"
    },
    {
      "anonymous": false,
      "inputs": [
        {
          "indexed": true,
          "internalType": "bytes32",
          "name": "id",
          "type": "bytes32"
        },
        {
          "indexed": false,
          "internalType": "address",
          "name": "distribution",
          "type": "address"
        },
        {
          "indexed": true,
          "internalType": "address",
          "name": "initializer",
          "type": "address"
        }
      ],
      "name": "DistributionAdded",
      "type": "event"
    },
    {
      "anonymous": false,
      "inputs": [
        {
          "indexed": true,
          "internalType": "bytes32",
          "name": "id",
          "type": "bytes32"
        }
      ],
      "name": "DistributionRemoved",
      "type": "event"
    },
    {
      "anonymous": false,
      "inputs": [
        {
          "indexed": true,
          "internalType": "bytes32",
          "name": "distributionId",
          "type": "bytes32"
        },
        {
          "indexed": true,
          "internalType": "uint256",
          "name": "newInstanceId",
          "type": "uint256"
        },
        {
          "indexed": true,
          "internalType": "uint256",
          "name": "version",
          "type": "uint256"
        },
        {
          "indexed": false,
          "internalType": "address[]",
          "name": "instances",
          "type": "address[]"
        },
        {
          "indexed": false,
          "internalType": "bytes",
          "name": "args",
          "type": "bytes"
        }
      ],
      "name": "Instantiated",
      "type": "event"
    },
    {
      "anonymous": false,
      "inputs": [
        {
          "indexed": true,
          "internalType": "bytes32",
          "name": "id",
          "type": "bytes32"
        },
        {
          "indexed": false,
          "internalType": "uint256",
          "name": "cost",
          "type": "uint256"
        }
      ],
      "name": "InstantiationCostChanged",
      "type": "event"
    },
    {
      "anonymous": false,
      "inputs": [
        {
          "indexed": true,
          "internalType": "bytes32",
          "name": "role",
          "type": "bytes32"
        },
        {
          "indexed": true,
          "internalType": "bytes32",
          "name": "previousAdminRole",
          "type": "bytes32"
        },
        {
          "indexed": true,
          "internalType": "bytes32",
          "name": "newAdminRole",
          "type": "bytes32"
        }
      ],
      "name": "RoleAdminChanged",
      "type": "event"
    },
    {
      "anonymous": false,
      "inputs": [
        {
          "indexed": true,
          "internalType": "bytes32",
          "name": "role",
          "type": "bytes32"
        },
        {
          "indexed": true,
          "internalType": "address",
          "name": "account",
          "type": "address"
        },
        {
          "indexed": true,
          "internalType": "address",
          "name": "sender",
          "type": "address"
        }
      ],
      "name": "RoleGranted",
      "type": "event"
    },
    {
      "anonymous": false,
      "inputs": [
        {
          "indexed": true,
          "internalType": "bytes32",
          "name": "role",
          "type": "bytes32"
        },
        {
          "indexed": true,
          "internalType": "address",
          "name": "account",
          "type": "address"
        },
        {
          "indexed": true,
          "internalType": "address",
          "name": "sender",
          "type": "address"
        }
      ],
      "name": "RoleRevoked",
      "type": "event"
    },
    {
      "anonymous": false,
      "inputs": [
        {
          "indexed": true,
          "internalType": "bytes32",
          "name": "distributionId",
          "type": "bytes32"
        },
        {
          "components": [
            {
              "components": [
                {
                  "internalType": "uint64",
                  "name": "major",
                  "type": "uint64"
                },
                {
                  "internalType": "uint64",
                  "name": "minor",
                  "type": "uint64"
                },
                {
                  "internalType": "uint128",
                  "name": "patch",
                  "type": "uint128"
                }
              ],
              "internalType": "struct LibSemver.Version",
              "name": "version",
              "type": "tuple"
            },
            {
              "internalType": "enum LibSemver.requirements",
              "name": "requirement",
              "type": "uint8"
            }
          ],
          "indexed": true,
          "internalType": "struct LibSemver.VersionRequirement",
          "name": "newRequirement",
          "type": "tuple"
        },
        {
          "components": [
            {
              "components": [
                {
                  "internalType": "uint64",
                  "name": "major",
                  "type": "uint64"
                },
                {
                  "internalType": "uint64",
                  "name": "minor",
                  "type": "uint64"
                },
                {
                  "internalType": "uint128",
                  "name": "patch",
                  "type": "uint128"
                }
              ],
              "internalType": "struct LibSemver.Version",
              "name": "version",
              "type": "tuple"
            },
            {
              "internalType": "enum LibSemver.requirements",
              "name": "requirement",
              "type": "uint8"
            }
          ],
          "indexed": false,
          "internalType": "struct LibSemver.VersionRequirement",
          "name": "newRequirementData",
          "type": "tuple"
        }
      ],
      "name": "VersionChanged",
      "type": "event"
    },
    {
      "inputs": [],
      "name": "DEFAULT_ADMIN_ROLE",
      "outputs": [
        {
          "internalType": "bytes32",
          "name": "",
          "type": "bytes32"
        }
      ],
      "stateMutability": "view",
      "type": "function"
    },
    {
      "inputs": [],
      "name": "_beneficiary",
      "outputs": [
        {
          "internalType": "address",
          "name": "",
          "type": "address"
        }
      ],
      "stateMutability": "view",
      "type": "function"
    },
    {
      "inputs": [],
      "name": "acceptDefaultAdminTransfer",
      "outputs": [],
      "stateMutability": "nonpayable",
      "type": "function"
    },
    {
      "inputs": [
        {
          "internalType": "contract IRepository",
          "name": "repository",
          "type": "address"
        },
        {
          "internalType": "address",
          "name": "initializer",
          "type": "address"
        },
        {
          "components": [
            {
              "components": [
                {
                  "internalType": "uint64",
                  "name": "major",
                  "type": "uint64"
                },
                {
                  "internalType": "uint64",
                  "name": "minor",
                  "type": "uint64"
                },
                {
                  "internalType": "uint128",
                  "name": "patch",
                  "type": "uint128"
                }
              ],
              "internalType": "struct LibSemver.Version",
              "name": "version",
              "type": "tuple"
            },
            {
              "internalType": "enum LibSemver.requirements",
              "name": "requirement",
              "type": "uint8"
            }
          ],
          "internalType": "struct LibSemver.VersionRequirement",
          "name": "requirement",
          "type": "tuple"
        }
      ],
      "name": "addDistribution",
      "outputs": [],
      "stateMutability": "nonpayable",
      "type": "function"
    },
    {
      "inputs": [
        {
          "internalType": "bytes32",
          "name": "id",
          "type": "bytes32"
        },
        {
          "internalType": "address",
          "name": "initializer",
          "type": "address"
        }
      ],
      "name": "addDistribution",
      "outputs": [],
      "stateMutability": "nonpayable",
      "type": "function"
    },
    {
      "inputs": [
        {
          "internalType": "bytes32",
          "name": "name",
          "type": "bytes32"
        },
        {
          "internalType": "bytes32",
          "name": "distributorId",
          "type": "bytes32"
        },
        {
          "internalType": "address",
          "name": "initializer",
          "type": "address"
        }
      ],
      "name": "addNamedDistribution",
      "outputs": [],
      "stateMutability": "nonpayable",
      "type": "function"
    },
    {
      "inputs": [
        {
          "internalType": "bytes",
          "name": "config",
          "type": "bytes"
        },
        {
          "internalType": "bytes4",
          "name": "",
          "type": "bytes4"
        },
        {
          "internalType": "address",
          "name": "maybeInstance",
          "type": "address"
        },
        {
          "internalType": "uint256",
          "name": "",
          "type": "uint256"
        },
        {
          "internalType": "bytes",
          "name": "",
          "type": "bytes"
        },
        {
          "internalType": "bytes",
          "name": "",
          "type": "bytes"
        }
      ],
      "name": "afterCall",
      "outputs": [],
      "stateMutability": "nonpayable",
      "type": "function"
    },
    {
      "inputs": [
        {
          "internalType": "bytes",
          "name": "config",
          "type": "bytes"
        },
        {
          "internalType": "bytes4",
          "name": "",
          "type": "bytes4"
        },
        {
          "internalType": "address",
          "name": "maybeInstance",
          "type": "address"
        },
        {
          "internalType": "uint256",
          "name": "",
          "type": "uint256"
        },
        {
          "internalType": "bytes",
          "name": "",
          "type": "bytes"
        }
      ],
      "name": "beforeCall",
      "outputs": [
        {
          "internalType": "bytes",
          "name": "",
          "type": "bytes"
        }
      ],
      "stateMutability": "view",
      "type": "function"
    },
    {
      "inputs": [
        {
          "internalType": "address",
          "name": "newAdmin",
          "type": "address"
        }
      ],
      "name": "beginDefaultAdminTransfer",
      "outputs": [],
      "stateMutability": "nonpayable",
      "type": "function"
    },
    {
      "inputs": [
        {
          "internalType": "bytes32",
          "name": "sourceId",
          "type": "bytes32"
        },
        {
          "internalType": "address",
          "name": "initializer",
          "type": "address"
        }
      ],
      "name": "calculateDistributorId",
      "outputs": [
        {
          "internalType": "bytes32",
          "name": "",
          "type": "bytes32"
        }
      ],
      "stateMutability": "pure",
      "type": "function"
    },
    {
      "inputs": [
        {
          "internalType": "address",
          "name": "repository",
          "type": "address"
        },
        {
          "internalType": "address",
          "name": "initializer",
          "type": "address"
        }
      ],
      "name": "calculateDistributorId",
      "outputs": [
        {
          "internalType": "bytes32",
          "name": "",
          "type": "bytes32"
        }
      ],
      "stateMutability": "pure",
      "type": "function"
    },
    {
      "inputs": [],
      "name": "cancelDefaultAdminTransfer",
      "outputs": [],
      "stateMutability": "nonpayable",
      "type": "function"
    },
    {
      "inputs": [
        {
          "internalType": "uint48",
          "name": "newDelay",
          "type": "uint48"
        }
      ],
      "name": "changeDefaultAdminDelay",
      "outputs": [],
      "stateMutability": "nonpayable",
      "type": "function"
    },
    {
      "inputs": [
        {
          "internalType": "bytes32",
          "name": "distributionId",
          "type": "bytes32"
        },
        {
          "components": [
            {
              "components": [
                {
                  "internalType": "uint64",
                  "name": "major",
                  "type": "uint64"
                },
                {
                  "internalType": "uint64",
                  "name": "minor",
                  "type": "uint64"
                },
                {
                  "internalType": "uint128",
                  "name": "patch",
                  "type": "uint128"
                }
              ],
              "internalType": "struct LibSemver.Version",
              "name": "version",
              "type": "tuple"
            },
            {
              "internalType": "enum LibSemver.requirements",
              "name": "requirement",
              "type": "uint8"
            }
          ],
          "internalType": "struct LibSemver.VersionRequirement",
          "name": "newRequirement",
          "type": "tuple"
        }
      ],
      "name": "changeVersion",
      "outputs": [],
      "stateMutability": "nonpayable",
      "type": "function"
    },
    {
      "inputs": [],
      "name": "defaultAdmin",
      "outputs": [
        {
          "internalType": "address",
          "name": "",
          "type": "address"
        }
      ],
      "stateMutability": "view",
      "type": "function"
    },
    {
      "inputs": [],
      "name": "defaultAdminDelay",
      "outputs": [
        {
          "internalType": "uint48",
          "name": "",
          "type": "uint48"
        }
      ],
      "stateMutability": "view",
      "type": "function"
    },
    {
      "inputs": [],
      "name": "defaultAdminDelayIncreaseWait",
      "outputs": [
        {
          "internalType": "uint48",
          "name": "",
          "type": "uint48"
        }
      ],
      "stateMutability": "view",
      "type": "function"
    },
    {
      "inputs": [],
      "name": "defaultInstantiationCost",
      "outputs": [
        {
          "internalType": "uint256",
          "name": "",
          "type": "uint256"
        }
      ],
      "stateMutability": "view",
      "type": "function"
    },
    {
      "inputs": [
        {
          "internalType": "bytes32",
          "name": "distributorsId",
          "type": "bytes32"
        }
      ],
      "name": "distributionComponents",
      "outputs": [
        {
          "internalType": "address",
          "name": "distributionLocation",
          "type": "address"
        },
        {
          "internalType": "address",
          "name": "initializer",
          "type": "address"
        }
      ],
      "stateMutability": "view",
      "type": "function"
    },
    {
      "inputs": [
        {
          "internalType": "uint256",
          "name": "instance",
          "type": "uint256"
        }
      ],
      "name": "distributionOf",
      "outputs": [
        {
          "internalType": "bytes32",
          "name": "distributorsId",
          "type": "bytes32"
        }
      ],
      "stateMutability": "view",
      "type": "function"
    },
    {
      "inputs": [
        {
          "internalType": "address",
          "name": "instance",
          "type": "address"
        }
      ],
      "name": "getDistributionId",
      "outputs": [
        {
          "internalType": "bytes32",
          "name": "",
          "type": "bytes32"
        }
      ],
      "stateMutability": "view",
      "type": "function"
    },
    {
      "inputs": [
        {
          "internalType": "bytes32",
          "name": "distributorsId",
          "type": "bytes32"
        }
      ],
      "name": "getDistributionURI",
      "outputs": [
        {
          "internalType": "string",
          "name": "",
          "type": "string"
        }
      ],
      "stateMutability": "view",
      "type": "function"
    },
    {
      "inputs": [],
      "name": "getDistributions",
      "outputs": [
        {
          "internalType": "bytes32[]",
          "name": "",
          "type": "bytes32[]"
        }
      ],
      "stateMutability": "view",
      "type": "function"
    },
    {
      "inputs": [
        {
          "internalType": "address",
          "name": "instance",
          "type": "address"
        }
      ],
      "name": "getInstanceId",
      "outputs": [
        {
          "internalType": "uint256",
          "name": "",
          "type": "uint256"
        }
      ],
      "stateMutability": "view",
      "type": "function"
    },
    {
      "inputs": [
        {
          "internalType": "bytes32",
          "name": "role",
          "type": "bytes32"
        }
      ],
      "name": "getRoleAdmin",
      "outputs": [
        {
          "internalType": "bytes32",
          "name": "",
          "type": "bytes32"
        }
      ],
      "stateMutability": "view",
      "type": "function"
    },
    {
      "inputs": [
        {
          "internalType": "bytes32",
          "name": "role",
          "type": "bytes32"
        },
        {
          "internalType": "address",
          "name": "account",
          "type": "address"
        }
      ],
      "name": "grantRole",
      "outputs": [],
      "stateMutability": "nonpayable",
      "type": "function"
    },
    {
      "inputs": [
        {
          "internalType": "bytes32",
          "name": "role",
          "type": "bytes32"
        },
        {
          "internalType": "address",
          "name": "account",
          "type": "address"
        }
      ],
      "name": "hasRole",
      "outputs": [
        {
          "internalType": "bool",
          "name": "",
          "type": "bool"
        }
      ],
      "stateMutability": "view",
      "type": "function"
    },
    {
      "inputs": [
        {
          "internalType": "uint256",
          "name": "instanceId",
          "type": "uint256"
        }
      ],
      "name": "instanceVersions",
      "outputs": [
        {
          "internalType": "uint64",
          "name": "major",
          "type": "uint64"
        },
        {
          "internalType": "uint64",
          "name": "minor",
          "type": "uint64"
        },
        {
          "internalType": "uint128",
          "name": "patch",
          "type": "uint128"
        }
      ],
      "stateMutability": "view",
      "type": "function"
    },
    {
      "inputs": [
        {
          "internalType": "bytes32",
          "name": "id",
          "type": "bytes32"
        },
        {
          "internalType": "bytes",
          "name": "args",
          "type": "bytes"
        }
      ],
      "name": "instantiate",
      "outputs": [
        {
          "internalType": "address[]",
          "name": "srcs",
          "type": "address[]"
        },
        {
          "internalType": "bytes32",
          "name": "name",
          "type": "bytes32"
        },
        {
          "internalType": "uint256",
          "name": "version",
          "type": "uint256"
        }
      ],
      "stateMutability": "nonpayable",
      "type": "function"
    },
    {
      "inputs": [
        {
          "internalType": "bytes32",
          "name": "id",
          "type": "bytes32"
        }
      ],
      "name": "instantiationCosts",
      "outputs": [
        {
          "internalType": "uint256",
          "name": "",
          "type": "uint256"
        }
      ],
      "stateMutability": "view",
      "type": "function"
    },
    {
      "inputs": [],
      "name": "numInstances",
      "outputs": [
        {
          "internalType": "uint256",
          "name": "",
          "type": "uint256"
        }
      ],
      "stateMutability": "view",
      "type": "function"
    },
    {
      "inputs": [],
      "name": "owner",
      "outputs": [
        {
          "internalType": "address",
          "name": "",
          "type": "address"
        }
      ],
      "stateMutability": "view",
      "type": "function"
    },
    {
      "inputs": [],
      "name": "paymentToken",
      "outputs": [
        {
          "internalType": "contract IERC20",
          "name": "",
          "type": "address"
        }
      ],
      "stateMutability": "view",
      "type": "function"
    },
    {
      "inputs": [],
      "name": "pendingDefaultAdmin",
      "outputs": [
        {
          "internalType": "address",
          "name": "newAdmin",
          "type": "address"
        },
        {
          "internalType": "uint48",
          "name": "schedule",
          "type": "uint48"
        }
      ],
      "stateMutability": "view",
      "type": "function"
    },
    {
      "inputs": [],
      "name": "pendingDefaultAdminDelay",
      "outputs": [
        {
          "internalType": "uint48",
          "name": "newDelay",
          "type": "uint48"
        },
        {
          "internalType": "uint48",
          "name": "schedule",
          "type": "uint48"
        }
      ],
      "stateMutability": "view",
      "type": "function"
    },
    {
      "inputs": [
        {
          "internalType": "bytes32",
          "name": "id",
          "type": "bytes32"
        }
      ],
      "name": "removeDistribution",
      "outputs": [],
      "stateMutability": "nonpayable",
      "type": "function"
    },
    {
      "inputs": [
        {
          "internalType": "bytes32",
          "name": "role",
          "type": "bytes32"
        },
        {
          "internalType": "address",
          "name": "account",
          "type": "address"
        }
      ],
      "name": "renounceRole",
      "outputs": [],
      "stateMutability": "nonpayable",
      "type": "function"
    },
    {
      "inputs": [
        {
          "internalType": "bytes32",
          "name": "role",
          "type": "bytes32"
        },
        {
          "internalType": "address",
          "name": "account",
          "type": "address"
        }
      ],
      "name": "revokeRole",
      "outputs": [],
      "stateMutability": "nonpayable",
      "type": "function"
    },
    {
      "inputs": [],
      "name": "rollbackDefaultAdminDelay",
      "outputs": [],
      "stateMutability": "nonpayable",
      "type": "function"
    },
    {
      "inputs": [
        {
          "internalType": "bytes32",
          "name": "id",
          "type": "bytes32"
        },
        {
          "internalType": "uint256",
          "name": "cost",
          "type": "uint256"
        }
      ],
      "name": "setInstantiationCost",
      "outputs": [],
      "stateMutability": "nonpayable",
      "type": "function"
    },
    {
      "inputs": [
        {
          "internalType": "bytes4",
          "name": "interfaceId",
          "type": "bytes4"
        }
      ],
      "name": "supportsInterface",
      "outputs": [
        {
          "internalType": "bool",
          "name": "",
          "type": "bool"
        }
      ],
      "stateMutability": "view",
      "type": "function"
    },
    {
      "inputs": [
        {
          "internalType": "bytes32",
          "name": "distributorsId",
          "type": "bytes32"
        }
      ],
      "name": "versionRequirements",
      "outputs": [
        {
          "components": [
            {
              "internalType": "uint64",
              "name": "major",
              "type": "uint64"
            },
            {
              "internalType": "uint64",
              "name": "minor",
              "type": "uint64"
            },
            {
              "internalType": "uint128",
              "name": "patch",
              "type": "uint128"
            }
          ],
          "internalType": "struct LibSemver.Version",
          "name": "version",
          "type": "tuple"
        },
        {
          "internalType": "enum LibSemver.requirements",
          "name": "requirement",
          "type": "uint8"
        }
      ],
      "stateMutability": "view",
      "type": "function"
    }
  ],
  "transactionHash": "0x8f164ca131d2b4feeaf725854891bb430b83d2de03f3be34878d6ca7fa4ca6c6",
  "args": [
    "0x507c2d32185667156de5B4C440FEEf3800078bDb",
    "0x79351F5d761490344F8AC2A1547D3112E962571C",
    "1000000000000000000"
  ],
  "numDeployments": 1,
  "solcInputHash": "179f4abad74c2470768153c579f3ac26",
  "bytecode": "0x60806040523480156200001157600080fd5b50604051620042143803806200421483398101604081905262000034916200020c565b600880546001600160a01b038085166001600160a01b031992831617909255600b8390556009805492861692909116821790556203f4809084906200009357604051636116401160e11b81526000600482015260240160405180910390fd5b600d80546001600160d01b0316600160d01b65ffffffffffff851602179055620000bf600082620000cb565b50505050505062000254565b6000826200012c576000620000e8600e546001600160a01b031690565b6001600160a01b0316146200011057604051631fe1e13d60e11b815260040160405180910390fd5b600e80546001600160a01b0319166001600160a01b0384161790555b62000138838362000141565b90505b92915050565b6000828152600c602090815260408083206001600160a01b038516845290915281205460ff16620001ea576000838152600c602090815260408083206001600160a01b03861684529091529020805460ff19166001179055620001a13390565b6001600160a01b0316826001600160a01b0316847f2f8788117e7eff1d82e926ec794901d17c78024a50270940304540a733656f0d60405160405180910390a45060016200013b565b5060006200013b565b6001600160a01b03811681146200020957600080fd5b50565b6000806000606084860312156200022257600080fd5b83516200022f81620001f3565b60208501519093506200024281620001f3565b80925050604084015190509250925092565b613fb080620002646000396000f3fe608060405234801561001057600080fd5b50600436106102de5760003560e01c8063828cedb711610186578063a217fddf116100e3578063cefc142911610097578063d602b9fd11610071578063d602b9fd1461078a578063f006ae7a14610792578063f8f69e90146107a557600080fd5b8063cefc142914610741578063cf6eefb714610749578063d547741f1461077757600080fd5b8063c3e9576a116100c8578063c3e9576a14610706578063c66670f114610719578063cc8463c81461073957600080fd5b8063a217fddf14610680578063b9ebf3951461068857600080fd5b80638da5cb5b1161013a578063921e1d1b1161011f578063921e1d1b1461064757806399aa65a714610650578063a1eda53c1461065957600080fd5b80638da5cb5b1461060657806391d148541461060e57600080fd5b806384ef8ffc1161016b57806384ef8ffc146105b95780638740ce05146105ca57806389478561146105f357600080fd5b8063828cedb714610593578063834c4b7e146105a657600080fd5b80632343b0001161023f5780634440d245116101f3578063634e93da116101cd578063634e93da1461054b578063649a5ec71461055e5780637591b0c21461057157600080fd5b80634440d245146104a85780634587af5e146104bb578063584ed12c1461053857600080fd5b80632f2ff15d116102245780632f2ff15d146104575780633013ce291461046a57806336568abe1461049557600080fd5b80632343b00014610414578063248a9ca31461043457600080fd5b80630aa6220b11610296578063130238711161027b578063130238711461038d5780631a0bba04146103a05780631bc82e65146103c057600080fd5b80630aa6220b14610372578063128ecd1e1461037a57600080fd5b806302aa6318116102c757806302aa63181461032757806303ac23c71461033c57806309587fbc1461035d57600080fd5b806301ffc9a7146102e3578063022d63fb1461030b575b600080fd5b6102f66102f1366004613412565b6107b8565b60405190151581526020015b60405180910390f35b620697805b60405165ffffffffffff9091168152602001610302565b61032f6107d8565b604051610302919061342d565b61034f61034a366004613486565b6107e9565b604051908152602001610302565b61037061036b3660046135f8565b61082e565b005b61037061084b565b610370610388366004613640565b610861565b61037061039b36600461366d565b61087b565b61034f6103ae36600461368f565b60036020526000908152604090205481565b6103f46103ce36600461368f565b600460205260009081526040902080546001909101546001600160a01b03918216911682565b604080516001600160a01b03938416815292909116602083015201610302565b61042761042236600461368f565b610890565b60405161030291906136f8565b61034f61044236600461368f565b6000908152600c602052604090206001015490565b610370610465366004613486565b61094a565b60085461047d906001600160a01b031681565b6040516001600160a01b039091168152602001610302565b6103706104a3366004613486565b610976565b6104276104b6366004613789565b610a55565b6105086104c936600461368f565b60066020526000908152604090205467ffffffffffffffff8082169168010000000000000000810490911690600160801b90046001600160801b031683565b6040805167ffffffffffffffff94851681529390921660208401526001600160801b031690820152606001610302565b61037061054636600461368f565b610cfc565b61037061055936600461381c565b610d10565b61037061056c366004613839565b610d24565b61058461057f366004613861565b610d38565b60405161030293929190613921565b60095461047d906001600160a01b031681565b6103706105b4366004613486565b610d8c565b600e546001600160a01b031661047d565b61034f6105d836600461381c565b6001600160a01b031660009081526002602052604090205490565b61034f61060136600461381c565b610da7565b61047d610de2565b6102f661061c366004613486565b6000918252600c602090815260408084206001600160a01b0393909316845291905290205460ff1690565b61034f600b5481565b61034f60075481565b610661610df6565b6040805165ffffffffffff938416815292909116602083015201610302565b61034f600081565b6106f861069636600461368f565b6005602090815260009182526040918290208251606081018452815467ffffffffffffffff80821683526801000000000000000082041693820193909352600160801b9092046001600160801b03169282019290925260019091015460ff1682565b60405161030292919061397e565b6103706107143660046139bf565b610e4a565b61034f61072736600461368f565b600a6020526000908152604090205481565b610310611077565b6103706110d6565b600d54604080516001600160a01b0383168152600160a01b90920465ffffffffffff16602083015201610302565b610370610785366004613486565b611125565b61037061114d565b6103706107a0366004613a75565b611160565b61034f6107b3366004613aae565b611176565b60006107c38261119e565b806107d257506107d2826111dc565b92915050565b60606107e4600061122a565b905090565b600082826040516020016108109291909182526001600160a01b0316602082015260400190565b60405160208183030381529060405280519060200120905092915050565b600061083981611237565b610844848484611241565b5050505050565b600061085681611237565b61085e61125c565b50565b600061086c81611237565b6108768383611269565b505050565b600061088681611237565b61087683836114f7565b60008181526004602081815260408084208151808301835281546001600160a01b03908116808352600190930154169381019390935281517fe8a3d48500000000000000000000000000000000000000000000000000000000815291516060959394919363e8a3d4859380840193919291908290030181865afa15801561091b573d6000803e3d6000fd5b505050506040513d6000823e601f3d908101601f191682016040526109439190810190613b0c565b9392505050565b8161096857604051631fe1e13d60e11b815260040160405180910390fd5b6109728282611548565b5050565b811580156109915750600e546001600160a01b038281169116145b15610a4b57600d546001600160a01b03811690600160a01b900465ffffffffffff16811515806109c7575065ffffffffffff8116155b806109da57504265ffffffffffff821610155b15610a20576040517f19ca5ebb00000000000000000000000000000000000000000000000000000000815265ffffffffffff821660048201526024015b60405180910390fd5b5050600d80547fffffffffffff000000000000ffffffffffffffffffffffffffffffffffffffff1690555b610972828261156d565b6060600080875111610a675733610a7b565b86806020019051810190610a7b9190613b5d565b9050600060036000610aa2886001600160a01b031660009081526002602052604090205490565b81526020019081526020016000205490506000610ad4876001600160a01b031660009081526002602052604090205490565b90508115801590610b02575080610b00846001600160a01b031660009081526002602052604090205490565b145b8015610b145750610b146000836115b9565b15610cb6576000818152600660209081526040808320815160608082018452915467ffffffffffffffff8082168352680100000000000000008083048216848801526001600160801b03600160801b938490048116858801528a89526005885297869020865160a0810188528154808516988201988952928304909316958301959095529190910490951660808601529184526001810154610be294929383019060ff166007811115610bc957610bc9613946565b6007811115610bda57610bda613946565b9052506115d1565b610c7b576000818152600660209081526040918290208251606081018452905467ffffffffffffffff80821683526801000000000000000082041692820192909252600160801b9091046001600160801b0316918101919091528290610c47906119fd565b6040517fe16fa0c6000000000000000000000000000000000000000000000000000000008152600401610a17929190613b7a565b81604051602001610c9d91815260406020820181905260009082015260600190565b6040516020818303038152906040529350505050610cf3565b6040517f0b66d2180000000000000000000000000000000000000000000000000000000081526001600160a01b0388166004820152602401610a17565b95945050505050565b6000610d0781611237565b61097282611a6b565b6000610d1b81611237565b61097282611b1b565b6000610d2f81611237565b61097282611b87565b6060600080610d7d8686868080601f016020809104026020016040519081016040528093929190818152602001838380828437600092019190915250611bf792505050565b92509250925093509350939050565b6000610d9781611237565b610da18383611cbd565b50505050565b600060036000610dcc846001600160a01b031660009081526002602052604090205490565b8152602001908152602001600020549050919050565b60006107e4600e546001600160a01b031690565b600e54600090600160d01b900465ffffffffffff168015158015610e2257504265ffffffffffff821610155b610e2e57600080610e42565b600e54600160a01b900465ffffffffffff16815b915091509091565b600080875111610e5a5733610e6e565b86806020019051810190610e6e9190613b5d565b9050600060036000610e95886001600160a01b031660009081526002602052604090205490565b81526020019081526020016000205490506000610ec7876001600160a01b031660009081526002602052604090205490565b9050610ee8876001600160a01b031660009081526002602052604090205490565b6001600160a01b03841660009081526002602052604090205414158015610f155750610f156000836115b9565b15610f57576040517f0b66d2180000000000000000000000000000000000000000000000000000000081526001600160a01b0388166004820152602401610a17565b6000818152600660209081526040808320815160608082018452915467ffffffffffffffff8082168352680100000000000000008083048216848801526001600160801b03600160801b938490048116858801528a89526005885297869020865160a081018852815480851698820198895292830490931695830195909552919091049095166080860152918452600181015461100794929383019060ff166007811115610bc957610bc9613946565b61106c576000818152600660209081526040918290208251606081018452905467ffffffffffffffff80821683526801000000000000000082041692820192909252600160801b9091046001600160801b0316918101919091528290610c47906119fd565b505050505050505050565b600e54600090600160d01b900465ffffffffffff1680151580156110a257504265ffffffffffff8216105b6110bd57600d54600160d01b900465ffffffffffff166110d0565b600e54600160a01b900465ffffffffffff165b91505090565b600d546001600160a01b031633811461111d576040517fc22c8022000000000000000000000000000000000000000000000000000000008152336004820152602401610a17565b61085e611cd7565b8161114357604051631fe1e13d60e11b815260040160405180910390fd5b6109728282611d9f565b600061115881611237565b61085e611dc4565b600061116b81611237565b610844848484611dcf565b604080516001600160a01b038085166020830152831691810191909152600090606001610810565b60006001600160e01b031982167f314987860000000000000000000000000000000000000000000000000000000014806107d257506107d282611ddc565b60006001600160e01b031982167f6aadae340000000000000000000000000000000000000000000000000000000014806107d257506301ffc9a760e01b6001600160e01b03198316146107d2565b6060600061094383611e1a565b61085e8133611e76565b600061124e848484611ee4565b905061094381600b546114f7565b6112676000806120e4565b565b6112746000836115b9565b6112945760405163f737a13760e01b815260048101839052602401610a17565b6000828152600560209081526040808320815160a081018352815467ffffffffffffffff808216948301948552680100000000000000008204166060830152600160801b90046001600160801b031660808201529182526001810154919290919083019060ff16600781111561130c5761130c613946565b600781111561131d5761131d613946565b905250805190915061136890600081604001516001600160801b03166080836020015167ffffffffffffffff16901b60c0846000015167ffffffffffffffff16901b17179050919050565b6000036113a4576040517f5495099b00000000000000000000000000000000000000000000000000000000815260048101849052602401610a17565b81516113e990600081604001516001600160801b03166080836020015167ffffffffffffffff16901b60c0846000015167ffffffffffffffff16901b17179050919050565b60000361143257826113fe83600001516119fd565b6040517fb9619f58000000000000000000000000000000000000000000000000000000008152600401610a17929190613b7a565b8051825161144091906121ca565b1561145357826113fe83600001516119fd565b6000838152600560209081526040918290208451805182548285015192909501516001600160801b03908116600160801b0267ffffffffffffffff93841668010000000000000000026fffffffffffffffffffffffffffffffff1990971693909216929092179490941716929092178255830151600180830180548694939260ff19909116908360078111156114eb576114eb613946565b02179055505050505050565b6000828152600a6020526040908190208290555182907f566325d0380c90d3dda6ed34028ff0f22677d1b1a547428b018e7fee7db02e209061153c9084815260200190565b60405180910390a25050565b6000828152600c602052604090206001015461156381611237565b610da1838361225a565b6001600160a01b03811633146115af576040517f6697b23200000000000000000000000000000000000000000000000000000000815260040160405180910390fd5b61087682826122cf565b60008181526001830160205260408120541515610943565b600080826020015160078111156115ea576115ea613946565b036115f7575060016107d2565b60018260200151600781111561160f5761160f613946565b036116a457815161165990600081604001516001600160801b03166080836020015167ffffffffffffffff16901b60c0846000015167ffffffffffffffff16901b17179050919050565b61169c84600081604001516001600160801b03166080836020015167ffffffffffffffff16901b60c0846000015167ffffffffffffffff16901b17179050919050565b1490506107d2565b6002826020015160078111156116bc576116bc613946565b036116db5750805151825167ffffffffffffffff9081169116146107d2565b6003826020015160078111156116f3576116f3613946565b0361173e57815151835167ffffffffffffffff9081169116148015611737575081600001516020015167ffffffffffffffff16836020015167ffffffffffffffff16145b90506107d2565b60048260200151600781111561175657611756613946565b036117ec5781516117a090600081604001516001600160801b03166080836020015167ffffffffffffffff16901b60c0846000015167ffffffffffffffff16901b17179050919050565b6117e384600081604001516001600160801b03166080836020015167ffffffffffffffff16901b60c0846000015167ffffffffffffffff16901b17179050919050565b101590506107d2565b60058260200151600781111561180457611804613946565b0361189957815161184e90600081604001516001600160801b03166080836020015167ffffffffffffffff16901b60c0846000015167ffffffffffffffff16901b17179050919050565b61189184600081604001516001600160801b03166080836020015167ffffffffffffffff16901b60c0846000015167ffffffffffffffff16901b17179050919050565b1190506107d2565b6006826020015160078111156118b1576118b1613946565b036119475781516118fb90600081604001516001600160801b03166080836020015167ffffffffffffffff16901b60c0846000015167ffffffffffffffff16901b17179050919050565b61193e84600081604001516001600160801b03166080836020015167ffffffffffffffff16901b60c0846000015167ffffffffffffffff16901b17179050919050565b111590506107d2565b60078260200151600781111561195f5761195f613946565b036119f45781516119a990600081604001516001600160801b03166080836020015167ffffffffffffffff16901b60c0846000015167ffffffffffffffff16901b17179050919050565b6119ec84600081604001516001600160801b03166080836020015167ffffffffffffffff16901b60c0846000015167ffffffffffffffff16901b17179050919050565b1090506107d2565b50600092915050565b6060611a16826000015167ffffffffffffffff16612319565b611a2d836020015167ffffffffffffffff16612319565b611a4384604001516001600160801b0316612319565b604051602001611a5593929190613b93565b6040516020818303038152906040529050919050565b611a766000826115b9565b611a965760405163f737a13760e01b815260048101829052602401610a17565b611aa16000826123b9565b506000818152600460209081526040808320805473ffffffffffffffffffffffffffffffffffffffff1990811682556001918201805490911690556005909252808320838155909101805460ff191690555182917ff8a76d9c3f55eabd1faadf7d8ec1d8d5ee98ee785eadf2cf343f40e11541c2cd91a250565b6000611b25611077565b611b2e426123c5565b611b389190613c1f565b9050611b448282612415565b60405165ffffffffffff821681526001600160a01b038316907f3377dc44241e779dd06afab5b788a35ca5f3b778836e2990bdb26a2a4b2e5ed69060200161153c565b6000611b9282612493565b611b9b426123c5565b611ba59190613c1f565b9050611bb182826120e4565b6040805165ffffffffffff8085168252831660208201527ff1038c18cf84a56e432fdbfaf746924b7ea511dfe03a6506a0ceba4888788d9b910160405180910390a15050565b6008546009546000848152600a60205260408082205490517f23b872dd0000000000000000000000000000000000000000000000000000000081523360048201526001600160a01b03938416602482015260448101919091526060939192839216906323b872dd906064016020604051808303816000875af1158015611c81573d6000803e3d6000fd5b505050506040513d601f19601f82011682018060405250810190611ca59190613c3e565b50611cb085856124db565b9250925092509250925092565b6000611cc98383612cd2565b90506107d281600b546114f7565b600d546001600160a01b03811690600160a01b900465ffffffffffff16801580611d0957504265ffffffffffff821610155b15611d4a576040517f19ca5ebb00000000000000000000000000000000000000000000000000000000815265ffffffffffff82166004820152602401610a17565b611d666000611d61600e546001600160a01b031690565b6122cf565b50611d7260008361225a565b5050600d80547fffffffffffff000000000000000000000000000000000000000000000000000016905550565b6000828152600c6020526040902060010154611dba81611237565b610da183836122cf565b611267600080612415565b600061124e848484612dd5565b60006001600160e01b031982167f7965db0b0000000000000000000000000000000000000000000000000000000014806107d257506107d2826111dc565b606081600001805480602002602001604051908101604052809291908181526020018280548015611e6a57602002820191906000526020600020905b815481526020019060010190808311611e56575b50505050509050919050565b6000828152600c602090815260408083206001600160a01b038516845290915290205460ff16610972576040517fe2517d3f0000000000000000000000000000000000000000000000000000000081526001600160a01b038216600482015260248101839052604401610a17565b6000611f10847ff9e8488f00000000000000000000000000000000000000000000000000000000612e9f565b611f51576040517f404a13190000000000000000000000000000000000000000000000000000000081526001600160a01b0385166004820152602401610a17565b604080516001600160a01b038087166020830152851691810191909152606001604051602081830303815290604052805190602001209050611fd08260000151600081604001516001600160801b03166080836020015167ffffffffffffffff16901b60c0846000015167ffffffffffffffff16901b17179050919050565b600003611fe557806113fe83600001516119fd565b611ff0818585612ebb565b6000818152600560209081526040918290208451805182548285015192909501516001600160801b03908116600160801b0267ffffffffffffffff93841668010000000000000000026fffffffffffffffffffffffffffffffff1990971693909216929092179490941716929092178255830151600180830180548694939260ff199091169083600781111561208857612088613946565b02179055505060405161209d91508390613c60565b6040518091039020817fd8f18dfaf582641f02bc0d91a99cf3be0cbc415f5aabae657dea86184cdff4fc846040516120d59190613cae565b60405180910390a39392505050565b600e54600160d01b900465ffffffffffff16801561217a574265ffffffffffff8216101561215057600e54600d805479ffffffffffffffffffffffffffffffffffffffffffffffffffff16600160a01b90920465ffffffffffff16600160d01b0291909117905561217a565b6040517f2b1fa2edafe6f7b9e97c1a9e0c3660e645beb2dcaa2d45bdbf9beaf5472e1ec590600090a15b50600e80546001600160a01b0316600160a01b65ffffffffffff9485160279ffffffffffffffffffffffffffffffffffffffffffffffffffff1617600160d01b9290931691909102919091179055565b600061220f82600081604001516001600160801b03166080836020015167ffffffffffffffff16901b60c0846000015167ffffffffffffffff16901b17179050919050565b61225284600081604001516001600160801b03166080836020015167ffffffffffffffff16901b60c0846000015167ffffffffffffffff16901b17179050919050565b149392505050565b6000826122c5576000612275600e546001600160a01b031690565b6001600160a01b03161461229c57604051631fe1e13d60e11b815260040160405180910390fd5b600e805473ffffffffffffffffffffffffffffffffffffffff19166001600160a01b0384161790555b6109438383612fab565b6000821580156122ec5750600e546001600160a01b038381169116145b1561230f57600e805473ffffffffffffffffffffffffffffffffffffffff191690555b6109438383613059565b60606000612326836130e0565b600101905060008167ffffffffffffffff811115612346576123466134b6565b6040519080825280601f01601f191660200182016040528015612370576020820181803683370190505b5090508181016020015b600019017f3031323334353637383961626364656600000000000000000000000000000000600a86061a8153600a850494508461237a57509392505050565b600061094383836131c2565b600065ffffffffffff821115612411576040517f6dfcc6500000000000000000000000000000000000000000000000000000000081526030600482015260248101839052604401610a17565b5090565b600d8054600160a01b65ffffffffffff84811682027fffffffffffff000000000000000000000000000000000000000000000000000084166001600160a01b03881617179093559004168015610876576040517f8886ebfc4259abdbc16601dd8fb5678e54878f47b3c34836cfc51154a960510990600090a1505050565b60008061249e611077565b90508065ffffffffffff168365ffffffffffff16116124c6576124c18382613cf6565b610943565b61094365ffffffffffff8416620697806132bc565b60606000806124ea81866115b9565b61250a5760405163f737a13760e01b815260048101869052602401610a17565b60008581526004602090815260408083208151808301835281546001600160a01b039081168252600192830154168185015289855260058452828520835160a081018552815467ffffffffffffffff808216968301968752680100000000000000008204166060830152600160801b90046001600160801b031660808201529384529182015490949383019060ff1660078111156125aa576125aa613946565b60078111156125bb576125bb613946565b90525060208301519091506001600160a01b0316157f4ecbe8710000000000000000000000000000000000000000000000000000000060008261260d576040518060200160405280600081525061260f565b885b60078054919250600091908261262483613d15565b9091555050600754855161267190600081604001516001600160801b03166080836020015167ffffffffffffffff16901b60c0846000015167ffffffffffffffff16901b17179050919050565b6000036127b15786516040517f9ca33c9e0000000000000000000000000000000000000000000000000000000081529092506001600160a01b03831690639ca33c9e906126c29086906004016136f8565b6000604051808303816000875af11580156126e1573d6000803e3d6000fd5b505050506040513d6000823e601f3d908101601f191682016040526127099190810190613d2f565b6040805160608082018352600080835260208084018290529284018190528351918201845280825281830181815282850182815260075483526006909452939020905181549351925167ffffffffffffffff9182166fffffffffffffffffffffffffffffffff1990951694909417680100000000000000009190931602919091176001600160801b03908116600160801b9190931602919091179055919b5099509750612aaa565b86516040517f28bba5e10000000000000000000000000000000000000000000000000000000081526000906001600160a01b038316906328bba5e1906127fb908b90600401613cae565b600060405180830381865afa158015612818573d6000803e3d6000fd5b505050506040513d6000823e601f3d908101601f191682016040526128409190810190613e14565b602081015160405163023aa9ab60e61b8152600481019190915290915073c0d31d398c5ee86c5f8a23fa253ee8a586da03ce908190638eaa6ac090602401602060405180830381865afa15801561289b573d6000803e3d6000fd5b505050506040513d601f19601f820116820180604052508101906128bf9190613b5d565b94506001600160a01b0385166128f057816020015160405163f737a13760e01b8152600401610a1791815260200190565b6040517f9ca33c9e0000000000000000000000000000000000000000000000000000000081526001600160a01b03861690639ca33c9e906129359089906004016136f8565b6000604051808303816000875af1158015612954573d6000803e3d6000fd5b505050506040513d6000823e601f3d908101601f1916820160405261297c9190810190613d2f565b905050809d5050826001600160a01b03166386019a3f6040518163ffffffff1660e01b8152600401602060405180830381865afa1580156129c1573d6000803e3d6000fd5b505050506040513d601f19601f820116820180604052508101906129e59190613ee1565b9b50612a2e8260000151600081604001516001600160801b03166080836020015167ffffffffffffffff16901b60c0846000015167ffffffffffffffff16901b17179050919050565b9151600754600090815260066020908152604091829020835181549285015193909401516001600160801b03908116600160801b0267ffffffffffffffff94851668010000000000000000026fffffffffffffffffffffffffffffffff1990941694909516939093179190911791909116919091179055509850505b8415612c0d5760008088602001516001600160a01b0316868d8f604051602401612ad5929190613efa565b60408051601f198184030181529181526020820180517bffffffffffffffffffffffffffffffffffffffffffffffffffffffff166001600160e01b0319909416939093179092529051612b289190613f1f565b600060405180830381855af49150503d8060008114612b63576040519150601f19603f3d011682016040523d82523d6000602084013e612b68565b606091505b509150915081612c0a57805115612b825780518082602001fd5b6040517f08c379a000000000000000000000000000000000000000000000000000000000815260206004820152603560248201527f696e697469616c697a65722064656c656761746563616c6c206661696c65642060448201527f776974686f75742072657665727420726561736f6e00000000000000000000006064820152608401610a17565b50505b895160005b81811015612c865782600260008e8481518110612c3157612c31613f3b565b60200260200101516001600160a01b03166001600160a01b03168152602001908152602001600020819055508d600360008581526020019081526020016000208190555080612c7f90613d15565b9050612c12565b505087818d7fb1a4a6f5e0cc926c0f33c83ca6e5187edc8d9719645709413ffb187e49483eeb8d8f604051612cbc929190613efa565b60405180910390a4505050505050509250925092565b60008073c0d31d398c5ee86c5f8a23fa253ee8a586da03ce60405163023aa9ab60e61b8152600481018690529091506000906001600160a01b03831690638eaa6ac090602401602060405180830381865afa158015612d35573d6000803e3d6000fd5b505050506040513d601f19601f82011682018060405250810190612d599190613b5d565b90506001600160a01b038116612d855760405163f737a13760e01b815260048101869052602401610a17565b8484604051602001612daa9291909182526001600160a01b0316602082015260400190565b604051602081830303815290604052805190602001209250612dcd838286612ebb565b505092915050565b60008073c0d31d398c5ee86c5f8a23fa253ee8a586da03ce60405163023aa9ab60e61b8152600481018690529091506000906001600160a01b03831690638eaa6ac090602401602060405180830381865afa158015612e38573d6000803e3d6000fd5b505050506040513d601f19601f82011682018060405250810190612e5c9190613b5d565b90506001600160a01b038116612e885760405163f737a13760e01b815260048101869052602401610a17565b859250612e96838286612ebb565b50509392505050565b6000612eaa836132d2565b801561094357506109438383613305565b612ec66000846115b9565b15612f00576040517ff605b5bb00000000000000000000000000000000000000000000000000000000815260048101849052602401610a17565b612f0b6000846133a4565b506040805180820182526001600160a01b03848116808352848216602080850182815260008a8152600483528790209551865490861673ffffffffffffffffffffffffffffffffffffffff199182161787559051600190960180549690951695169490941790925592519283529185917f09436bc9a76164325311f392b1018e238b1d0a54bbd9e5b3bbf0b037eda6b500910160405180910390a3505050565b6000828152600c602090815260408083206001600160a01b038516845290915281205460ff16613051576000838152600c602090815260408083206001600160a01b03861684529091529020805460ff191660011790556130093390565b6001600160a01b0316826001600160a01b0316847f2f8788117e7eff1d82e926ec794901d17c78024a50270940304540a733656f0d60405160405180910390a45060016107d2565b5060006107d2565b6000828152600c602090815260408083206001600160a01b038516845290915281205460ff1615613051576000838152600c602090815260408083206001600160a01b0386168085529252808320805460ff1916905551339286917ff6391f5c32d9c69d2a47ea670b442974b53935d1edc7fd64eb21e047a839171b9190a45060016107d2565b6000807a184f03e93ff9f4daa797ed6e38ed64bf6a1f0100000000000000008310613129577a184f03e93ff9f4daa797ed6e38ed64bf6a1f010000000000000000830492506040015b6d04ee2d6d415b85acef81000000008310613155576d04ee2d6d415b85acef8100000000830492506020015b662386f26fc10000831061317357662386f26fc10000830492506010015b6305f5e100831061318b576305f5e100830492506008015b612710831061319f57612710830492506004015b606483106131b1576064830492506002015b600a83106107d25760010192915050565b600081815260018301602052604081205480156132ab5760006131e6600183613f51565b85549091506000906131fa90600190613f51565b905080821461325f57600086600001828154811061321a5761321a613f3b565b906000526020600020015490508087600001848154811061323d5761323d613f3b565b6000918252602080832090910192909255918252600188019052604090208390555b855486908061327057613270613f64565b6001900381819060005260206000200160009055905585600101600086815260200190815260200160002060009055600193505050506107d2565b60009150506107d2565b5092915050565b60008183106132cb5781610943565b5090919050565b60006132e5826301ffc9a760e01b613305565b80156107d257506132fe826001600160e01b0319613305565b1592915050565b6040516001600160e01b031982166024820152600090819060440160408051601f19818403018152919052602080820180517bffffffffffffffffffffffffffffffffffffffffffffffffffffffff166301ffc9a760e01b178152825192935060009283928392909183918a617530fa92503d9150600051905082801561338d575060208210155b80156133995750600081115b979650505050505050565b600081815260018301602052604081205461094390849084908490613051575081546001818101845560008481526020808220909301849055845484825282860190935260409020919091556107d2565b80356001600160e01b03198116811461340d57600080fd5b919050565b60006020828403121561342457600080fd5b610943826133f5565b6020808252825182820181905260009190848201906040850190845b8181101561346557835183529284019291840191600101613449565b50909695505050505050565b6001600160a01b038116811461085e57600080fd5b6000806040838503121561349957600080fd5b8235915060208301356134ab81613471565b809150509250929050565b634e487b7160e01b600052604160045260246000fd5b6040516060810167ffffffffffffffff811182821017156134ef576134ef6134b6565b60405290565b604051601f8201601f1916810167ffffffffffffffff8111828210171561351e5761351e6134b6565b604052919050565b67ffffffffffffffff8116811461085e57600080fd5b6001600160801b038116811461085e57600080fd5b6000818303608081121561356457600080fd5b6040516040810181811067ffffffffffffffff82111715613587576135876134b6565b604052915081606082121561359b57600080fd5b6135a36134cc565b915083356135b081613526565b825260208401356135c081613526565b602083015260408401356135d38161353c565b6040830152908152606083013590600882106135ee57600080fd5b6020015292915050565b600080600060c0848603121561360d57600080fd5b833561361881613471565b9250602084013561362881613471565b91506136378560408601613551565b90509250925092565b60008060a0838503121561365357600080fd5b823591506136648460208501613551565b90509250929050565b6000806040838503121561368057600080fd5b50508035926020909101359150565b6000602082840312156136a157600080fd5b5035919050565b60005b838110156136c35781810151838201526020016136ab565b50506000910152565b600081518084526136e48160208601602086016136a8565b601f01601f19169290920160200192915050565b60208152600061094360208301846136cc565b600067ffffffffffffffff821115613725576137256134b6565b50601f01601f191660200190565b600082601f83011261374457600080fd5b81356137576137528261370b565b6134f5565b81815284602083860101111561376c57600080fd5b816020850160208301376000918101602001919091529392505050565b600080600080600060a086880312156137a157600080fd5b853567ffffffffffffffff808211156137b957600080fd5b6137c589838a01613733565b96506137d3602089016133f5565b9550604088013591506137e582613471565b909350606087013592506080870135908082111561380257600080fd5b5061380f88828901613733565b9150509295509295909350565b60006020828403121561382e57600080fd5b813561094381613471565b60006020828403121561384b57600080fd5b813565ffffffffffff8116811461094357600080fd5b60008060006040848603121561387657600080fd5b83359250602084013567ffffffffffffffff8082111561389557600080fd5b818601915086601f8301126138a957600080fd5b8135818111156138b857600080fd5b8760208285010111156138ca57600080fd5b6020830194508093505050509250925092565b600081518084526020808501945080840160005b838110156139165781516001600160a01b0316875295820195908201906001016138f1565b509495945050505050565b60608152600061393460608301866138dd565b60208301949094525060400152919050565b634e487b7160e01b600052602160045260246000fd5b6008811061397a57634e487b7160e01b600052602160045260246000fd5b9052565b825167ffffffffffffffff9081168252602080850151909116908201526040808401516001600160801b03169082015260808101610943606083018461395c565b60008060008060008060c087890312156139d857600080fd5b863567ffffffffffffffff808211156139f057600080fd5b6139fc8a838b01613733565b9750613a0a60208a016133f5565b965060408901359150613a1c82613471565b9094506060880135935060808801359080821115613a3957600080fd5b613a458a838b01613733565b935060a0890135915080821115613a5b57600080fd5b50613a6889828a01613733565b9150509295509295509295565b600080600060608486031215613a8a57600080fd5b83359250602084013591506040840135613aa381613471565b809150509250925092565b60008060408385031215613ac157600080fd5b8235613acc81613471565b915060208301356134ab81613471565b6000613aea6137528461370b565b9050828152838383011115613afe57600080fd5b6109438360208301846136a8565b600060208284031215613b1e57600080fd5b815167ffffffffffffffff811115613b3557600080fd5b8201601f81018413613b4657600080fd5b613b5584825160208401613adc565b949350505050565b600060208284031215613b6f57600080fd5b815161094381613471565b828152604060208201526000613b5560408301846136cc565b60008451613ba58184602089016136a8565b80830190507f2e000000000000000000000000000000000000000000000000000000000000008082528551613be1816001850160208a016136a8565b60019201918201528351613bfc8160028401602088016136a8565b0160020195945050505050565b634e487b7160e01b600052601160045260246000fd5b65ffffffffffff8181168382160190808211156132b5576132b5613c09565b600060208284031215613c5057600080fd5b8151801515811461094357600080fd5b6000825167ffffffffffffffff808251168452806020830151166020850152506001600160801b03604082015116604084015250613ca560608301602085015161395c565b50608001919050565b8151805167ffffffffffffffff9081168352602080830151909116908301526040908101516001600160801b0316908201526080810160208301516132b5606084018261395c565b65ffffffffffff8281168282160390808211156132b5576132b5613c09565b60006000198203613d2857613d28613c09565b5060010190565b600080600060608486031215613d4457600080fd5b835167ffffffffffffffff80821115613d5c57600080fd5b818601915086601f830112613d7057600080fd5b8151602082821115613d8457613d846134b6565b8160051b9250613d958184016134f5565b828152928401810192818101908a851115613daf57600080fd5b948201945b84861015613dd95785519350613dc984613471565b8382529482019490820190613db4565b91890151604090990151919a98995090979650505050505050565b600082601f830112613e0557600080fd5b61094383835160208501613adc565b600060208284031215613e2657600080fd5b815167ffffffffffffffff80821115613e3e57600080fd5b9083019081850360a0811215613e5357600080fd5b613e5b6134cc565b6060821215613e6957600080fd5b613e716134cc565b91508351613e7e81613526565b82526020840151613e8e81613526565b60208301526040840151613ea18161353c565b60408301529081526060830151602082015260808301519082821115613ec657600080fd5b613ed287838601613df4565b60408201529695505050505050565b600060208284031215613ef357600080fd5b5051919050565b604081526000613f0d60408301856138dd565b8281036020840152610cf381856136cc565b60008251613f318184602087016136a8565b9190910192915050565b634e487b7160e01b600052603260045260246000fd5b818103818111156107d2576107d2613c09565b634e487b7160e01b600052603160045260246000fdfea26469706673582212205b34449497e70d8d2a149901e265fd5e482cf56755a2725d06bd533e8b238b2364736f6c63430008140033",
  "devdoc": {
    "author": "Peeramid Labs, 2024",
    "errors": {
      "AccessControlBadConfirmation()": [
        {
          "details": "The caller of a function is not the expected one. NOTE: Don't confuse with {AccessControlUnauthorizedAccount}."
        }
      ],
      "AccessControlEnforcedDefaultAdminDelay(uint48)": [
        {
          "details": "The delay for transferring the default admin delay is enforced and the operation must wait until `schedule`. NOTE: `schedule` can be 0 indicating there's no transfer scheduled."
        }
      ],
      "AccessControlEnforcedDefaultAdminRules()": [
        {
          "details": "At least one of the following rules was violated: - The `DEFAULT_ADMIN_ROLE` must only be managed by itself. - The `DEFAULT_ADMIN_ROLE` must only be held by one account at the time. - Any `DEFAULT_ADMIN_ROLE` transfer must be in two delayed steps."
        }
      ],
      "AccessControlInvalidDefaultAdmin(address)": [
        {
          "details": "The new default admin is not a valid default admin."
        }
      ],
      "AccessControlUnauthorizedAccount(address,bytes32)": [
        {
          "details": "The `account` is missing a role."
        }
      ],
      "DistributionExists(bytes32)": [
        {
          "params": {
            "id": "The unique identifier of the distribution that already exists."
          }
        }
      ],
      "DistributionNotFound(bytes32)": [
        {
          "params": {
            "id": "The unique identifier of the distribution that was not found."
          }
        }
      ],
      "InitializerNotFound(bytes32)": [
        {
          "params": {
            "id": "The unique identifier of the distribution that was not found."
          }
        }
      ],
      "SafeCastOverflowedUintDowncast(uint8,uint256)": [
        {
          "details": "Value doesn't fit in an uint of `bits` size."
        }
      ]
    },
    "events": {
      "DefaultAdminDelayChangeCanceled()": {
        "details": "Emitted when a {pendingDefaultAdminDelay} is reset if its schedule didn't pass."
      },
      "DefaultAdminDelayChangeScheduled(uint48,uint48)": {
        "details": "Emitted when a {defaultAdminDelay} change is started, setting `newDelay` as the next delay to be applied between default admin transfer after `effectSchedule` has passed."
      },
      "DefaultAdminTransferCanceled()": {
        "details": "Emitted when a {pendingDefaultAdmin} is reset if it was never accepted, regardless of its schedule."
      },
      "DefaultAdminTransferScheduled(address,uint48)": {
        "details": "Emitted when a {defaultAdmin} transfer is started, setting `newAdmin` as the next address to become the {defaultAdmin} by calling {acceptDefaultAdminTransfer} only after `acceptSchedule` passes."
      },
      "DistributionAdded(bytes32,address,address)": {
        "details": "It MUST emit when {IDistributor.addDistribution} is called.",
        "params": {
          "distribution": "The address of the distribution that was added.",
          "id": "The unique identifier of the distribution that was added.",
          "initializer": "The address of the initializer for the distribution."
        }
      },
      "DistributionRemoved(bytes32)": {
        "details": "It MUST emit when {IDistributor.removeDistribution} is called.",
        "params": {
          "id": "The unique identifier of the distribution that was removed."
        }
      },
      "Instantiated(bytes32,uint256,uint256,address[],bytes)": {
        "details": "It MUST emit when {IDistributor.instantiate} is called.",
        "params": {
          "args": "The arguments that were used for instantiation.",
          "distributionId": "The unique identifier of the distribution.",
          "instances": "The addresses of the instances that were created.",
          "newInstanceId": "The unique identifier of the instance.",
          "version": "The version of the distribution, taken either from IDistribution or from IRepository."
        }
      },
      "RoleAdminChanged(bytes32,bytes32,bytes32)": {
        "details": "Emitted when `newAdminRole` is set as ``role``'s admin role, replacing `previousAdminRole` `DEFAULT_ADMIN_ROLE` is the starting admin for all roles, despite {RoleAdminChanged} not being emitted signaling this."
      },
      "RoleGranted(bytes32,address,address)": {
        "details": "Emitted when `account` is granted `role`. `sender` is the account that originated the contract call, an admin role bearer except when using {AccessControl-_setupRole}."
      },
      "RoleRevoked(bytes32,address,address)": {
        "details": "Emitted when `account` is revoked `role`. `sender` is the account that originated the contract call:   - if using `revokeRole`, it is the admin role bearer   - if using `renounceRole`, it is the role bearer (i.e. `account`)"
      },
      "VersionChanged(bytes32,((uint64,uint64,uint128),uint8),((uint64,uint64,uint128),uint8))": {
        "params": {
          "distributionId": "The unique identifier of the distribution.",
          "newRequirement": "The new version requirement (hashed for indexing).",
          "newRequirementData": "The new version requirement data."
        }
      }
    },
    "kind": "dev",
    "methods": {
      "acceptDefaultAdminTransfer()": {
        "details": "Completes a {defaultAdmin} transfer previously started with {beginDefaultAdminTransfer}. After calling the function: - `DEFAULT_ADMIN_ROLE` should be granted to the caller. - `DEFAULT_ADMIN_ROLE` should be revoked from the previous holder. - {pendingDefaultAdmin} should be reset to zero values. Requirements: - Only can be called by the {pendingDefaultAdmin}'s `newAdmin`. - The {pendingDefaultAdmin}'s `acceptSchedule` should've passed."
      },
      "addDistribution(address,address,((uint64,uint64,uint128),uint8))": {
        "details": "WARNING: If initializer is provided, it will DELEGATECALL to the initializer. Otherwise, instantiation arguments will be passed to the distribution for self-initialization. Initializer contract MUST be trusted by the distributor.",
        "params": {
          "initializer": "The address that initializes the distribution.",
          "repository": "The repository to which the distribution will be added.",
          "requirement": "The version requirements for the distribution."
        }
      },
      "addDistribution(bytes32,address)": {
        "details": "This function can only be called by an account with the `DEFAULT_ADMIN_ROLE`.",
        "params": {
          "id": "The unique identifier for the distribution.",
          "initializer": "The address that initializes the distribution."
        }
      },
      "addNamedDistribution(bytes32,bytes32,address)": {
        "params": {
          "distributorId": "The unique identifier of the distributor.",
          "initializer": "The address that initializes the distribution.",
          "name": "The name of the distribution."
        }
      },
      "afterCall(bytes,bytes4,address,uint256,bytes,bytes)": {
        "details": "it will revert if: (1) `msg.sender` is not a valid instance; (2) `maybeInstance` is not a valid instance (3) `instanceId` belongs to disactivated distribution",
        "params": {
          "beforeCallResult": "The data returned by `beforeCallValidation`.",
          "configuration": "Middleware-specific configuration data.",
          "data": "The calldata for the function call.",
          "selector": "The function selector being called.",
          "sender": "The address initiating the call.",
          "value": "The amount of ETH sent with the call (if any)."
        }
      },
      "beforeCall(bytes,bytes4,address,uint256,bytes)": {
        "details": "it will revert if: (1) `msg.sender` is not a valid instance; (2) `maybeInstance` is not a valid instance (3) `instanceId` belongs to disactivated distribution",
        "params": {
          "configuration": "Middleware-specific configuration data.",
          "data": "The calldata for the function call.",
          "selector": "The function selector being called.",
          "sender": "The address initiating the call.",
          "value": "The amount of ETH sent with the call (if any)."
        },
        "returns": {
          "_0": "beforeCallResult Arbitrary data to be passed to `afterCallValidation`."
        }
      },
      "beginDefaultAdminTransfer(address)": {
        "details": "Starts a {defaultAdmin} transfer by setting a {pendingDefaultAdmin} scheduled for acceptance after the current timestamp plus a {defaultAdminDelay}. Requirements: - Only can be called by the current {defaultAdmin}. Emits a DefaultAdminRoleChangeStarted event."
      },
      "cancelDefaultAdminTransfer()": {
        "details": "Cancels a {defaultAdmin} transfer previously started with {beginDefaultAdminTransfer}. A {pendingDefaultAdmin} not yet accepted can also be cancelled with this function. Requirements: - Only can be called by the current {defaultAdmin}. May emit a DefaultAdminTransferCanceled event."
      },
      "changeDefaultAdminDelay(uint48)": {
        "details": "Initiates a {defaultAdminDelay} update by setting a {pendingDefaultAdminDelay} scheduled for getting into effect after the current timestamp plus a {defaultAdminDelay}. This function guarantees that any call to {beginDefaultAdminTransfer} done between the timestamp this method is called and the {pendingDefaultAdminDelay} effect schedule will use the current {defaultAdminDelay} set before calling. The {pendingDefaultAdminDelay}'s effect schedule is defined in a way that waiting until the schedule and then calling {beginDefaultAdminTransfer} with the new delay will take at least the same as another {defaultAdmin} complete transfer (including acceptance). The schedule is designed for two scenarios: - When the delay is changed for a larger one the schedule is `block.timestamp + newDelay` capped by {defaultAdminDelayIncreaseWait}. - When the delay is changed for a shorter one, the schedule is `block.timestamp + (current delay - new delay)`. A {pendingDefaultAdminDelay} that never got into effect will be canceled in favor of a new scheduled change. Requirements: - Only can be called by the current {defaultAdmin}. Emits a DefaultAdminDelayChangeScheduled event and may emit a DefaultAdminDelayChangeCanceled event."
      },
      "changeVersion(bytes32,((uint64,uint64,uint128),uint8))": {
        "params": {
          "distributionId": "The unique identifier of the distribution whose version requirement is to be changed.",
          "newRequirement": "The new version requirement to be set for the distribution."
        }
      },
      "defaultAdmin()": {
        "details": "Returns the address of the current `DEFAULT_ADMIN_ROLE` holder."
      },
      "defaultAdminDelay()": {
        "details": "Returns the delay required to schedule the acceptance of a {defaultAdmin} transfer started. This delay will be added to the current timestamp when calling {beginDefaultAdminTransfer} to set the acceptance schedule. NOTE: If a delay change has been scheduled, it will take effect as soon as the schedule passes, making this function returns the new delay. See {changeDefaultAdminDelay}."
      },
      "defaultAdminDelayIncreaseWait()": {
        "details": "Maximum time in seconds for an increase to {defaultAdminDelay} (that is scheduled using {changeDefaultAdminDelay}) to take effect. Default to 5 days. When the {defaultAdminDelay} is scheduled to be increased, it goes into effect after the new delay has passed with the purpose of giving enough time for reverting any accidental change (i.e. using milliseconds instead of seconds) that may lock the contract. However, to avoid excessive schedules, the wait is capped by this function and it can be overrode for a custom {defaultAdminDelay} increase scheduling. IMPORTANT: Make sure to add a reasonable amount of time while overriding this value, otherwise, there's a risk of setting a high new delay that goes into effect almost immediately without the possibility of human intervention in the case of an input error (eg. set milliseconds instead of seconds)."
      },
      "getDistributionId(address)": {
        "params": {
          "instance": "The address of the instance for which the distribution ID is being requested."
        },
        "returns": {
          "_0": "The distribution ID as a bytes32 value."
        }
      },
      "getDistributions()": {
        "returns": {
          "_0": "An array of unique identifiers of all distributions."
        }
      },
      "getInstanceId(address)": {
        "params": {
          "instance": "The address of the instance whose ID is to be retrieved."
        },
        "returns": {
          "_0": "The unique identifier (uint256) associated with the specified instance address."
        }
      },
      "getRoleAdmin(bytes32)": {
        "details": "Returns the admin role that controls `role`. See {grantRole} and {revokeRole}. To change a role's admin, use {_setRoleAdmin}."
      },
      "grantRole(bytes32,address)": {
        "details": "See {AccessControl-grantRole}. Reverts for `DEFAULT_ADMIN_ROLE`."
      },
      "hasRole(bytes32,address)": {
        "details": "Returns `true` if `account` has been granted `role`."
      },
      "instantiate(bytes32,bytes)": {
        "params": {
          "args": "The calldata arguments required for the instantiation process.",
          "id": "The unique identifier for the contract to be instantiated."
        },
        "returns": {
          "name": "The name of the instantiated distribution.",
          "srcs": "An array of instantiated infrastructure",
          "version": "The version number of the instantiated distribution."
        }
      },
      "owner()": {
        "details": "See {IERC5313-owner}."
      },
      "pendingDefaultAdmin()": {
        "details": "Returns a tuple of a `newAdmin` and an accept schedule. After the `schedule` passes, the `newAdmin` will be able to accept the {defaultAdmin} role by calling {acceptDefaultAdminTransfer}, completing the role transfer. A zero value only in `acceptSchedule` indicates no pending admin transfer. NOTE: A zero address `newAdmin` means that {defaultAdmin} is being renounced."
      },
      "pendingDefaultAdminDelay()": {
        "details": "Returns a tuple of `newDelay` and an effect schedule. After the `schedule` passes, the `newDelay` will get into effect immediately for every new {defaultAdmin} transfer started with {beginDefaultAdminTransfer}. A zero value only in `effectSchedule` indicates no pending delay change. NOTE: A zero value only for `newDelay` means that the next {defaultAdminDelay} will be zero after the effect schedule."
      },
      "removeDistribution(bytes32)": {
        "details": "This function can only be called by an account with the `DEFAULT_ADMIN_ROLE`.",
        "params": {
          "id": "The unique identifier of the distribution entry to be removed."
        }
      },
      "renounceRole(bytes32,address)": {
        "details": "See {AccessControl-renounceRole}. For the `DEFAULT_ADMIN_ROLE`, it only allows renouncing in two steps by first calling {beginDefaultAdminTransfer} to the `address(0)`, so it's required that the {pendingDefaultAdmin} schedule has also passed when calling this function. After its execution, it will not be possible to call `onlyRole(DEFAULT_ADMIN_ROLE)` functions. NOTE: Renouncing `DEFAULT_ADMIN_ROLE` will leave the contract without a {defaultAdmin}, thereby disabling any functionality that is only available for it, and the possibility of reassigning a non-administrated role."
      },
      "revokeRole(bytes32,address)": {
        "details": "See {AccessControl-revokeRole}. Reverts for `DEFAULT_ADMIN_ROLE`."
      },
      "rollbackDefaultAdminDelay()": {
        "details": "Cancels a scheduled {defaultAdminDelay} change. Requirements: - Only can be called by the current {defaultAdmin}. May emit a DefaultAdminDelayChangeCanceled event."
      },
      "setInstantiationCost(bytes32,uint256)": {
        "params": {
          "cost": "cost of instantiation",
          "id": "distributors id"
        }
      },
      "supportsInterface(bytes4)": {
        "params": {
          "interfaceId": "The interface identifier, as specified in ERC-165."
        },
        "returns": {
          "_0": "`true` if the contract implements `interfaceId` and `interfaceId` is not 0xffffffff, `false` otherwise."
        }
      }
    },
    "title": "DAODistributor",
    "version": 1
  },
  "userdoc": {
    "errors": {
      "DistributionExists(bytes32)": [
        {
          "notice": "Error indicating that a distribution with the specified ID already exists."
        }
      ],
      "DistributionNotFound(bytes32)": [
        {
          "notice": "Error indicating that the distribution with the specified ID was not found."
        }
      ],
      "InitializerNotFound(bytes32)": [
        {
          "notice": "Error indicating that the initializer for the distribution was not found."
        }
      ]
    },
    "events": {
      "DistributionAdded(bytes32,address,address)": {
        "notice": "Event emitted when a distribution is added."
      },
      "DistributionRemoved(bytes32)": {
        "notice": "Event emitted when a distribution is removed."
      },
      "Instantiated(bytes32,uint256,uint256,address[],bytes)": {
        "notice": "Event emitted when a new distribution is instantiated."
      },
      "VersionChanged(bytes32,((uint64,uint64,uint128),uint8),((uint64,uint64,uint128),uint8))": {
        "notice": "Emitted when the version of the distributor is changed."
      }
    },
    "kind": "user",
    "methods": {
      "addDistribution(address,address,((uint64,uint64,uint128),uint8))": {
        "notice": "Adds a new versioned distribution to the repository."
      },
      "addDistribution(bytes32,address)": {
        "notice": "Adds a new distribution with the given identifier and initializer address."
      },
      "addNamedDistribution(bytes32,bytes32,address)": {
        "notice": "Adds a new versioned distribution to the repository."
      },
      "afterCall(bytes,bytes4,address,uint256,bytes,bytes)": {
        "notice": "This is ERC7746 hook must be called by instance methods that access scope is limited to the same instance or distribution"
      },
      "beforeCall(bytes,bytes4,address,uint256,bytes)": {
        "notice": "This is ERC7746 hook must be called by instance methods that access scope is limited to the same instance or distribution"
      },
      "changeVersion(bytes32,((uint64,uint64,uint128),uint8))": {
        "notice": "Changes the version requirement for a specific distribution."
      },
      "getDistributionId(address)": {
        "notice": "Retrieves the distribution ID associated with a given instance address."
      },
      "getDistributions()": {
        "notice": "Retrieves the unique identifiers of all distributions."
      },
      "getInstanceId(address)": {
        "notice": "Retrieves the unique identifier for a given instance address."
      },
      "instantiate(bytes32,bytes)": {
        "notice": "Instantiates a new contract with the given identifier and arguments."
      },
      "removeDistribution(bytes32)": {
        "notice": "Removes a distribution entry identified by the given ID."
      },
      "setInstantiationCost(bytes32,uint256)": {
        "notice": "Sets instantiation cost on a specific instantiation id"
      },
      "supportsInterface(bytes4)": {
        "notice": "This function checks if the contract implements the interface defined by ERC165"
      }
    },
    "notice": "This contract is a distributor for Peeramid Labs. It is designed to handle the distribution logic specific to Peeramid Labs. The contract leverages access control mechanisms to ensure that only authorized users can perform certain actions.",
    "version": 1
  },
  "storageLayout": {
    "storage": [
      {
        "astId": 5425,
        "contract": "src/DAODistributor.sol:DAODistributor",
        "label": "distributionsSet",
        "offset": 0,
        "slot": "0",
        "type": "t_struct(Bytes32Set)4917_storage"
      },
      {
        "astId": 5429,
        "contract": "src/DAODistributor.sol:DAODistributor",
        "label": "instanceIds",
        "offset": 0,
        "slot": "2",
        "type": "t_mapping(t_address,t_uint256)"
      },
      {
        "astId": 5433,
        "contract": "src/DAODistributor.sol:DAODistributor",
        "label": "distributionOf",
        "offset": 0,
        "slot": "3",
        "type": "t_mapping(t_uint256,t_bytes32)"
      },
      {
        "astId": 5438,
        "contract": "src/DAODistributor.sol:DAODistributor",
        "label": "distributionComponents",
        "offset": 0,
        "slot": "4",
        "type": "t_mapping(t_bytes32,t_struct(DistributionComponent)5414_storage)"
      },
      {
        "astId": 5443,
        "contract": "src/DAODistributor.sol:DAODistributor",
        "label": "versionRequirements",
        "offset": 0,
        "slot": "5",
        "type": "t_mapping(t_bytes32,t_struct(VersionRequirement)6971_storage)"
      },
      {
        "astId": 5448,
        "contract": "src/DAODistributor.sol:DAODistributor",
        "label": "instanceVersions",
        "offset": 0,
        "slot": "6",
        "type": "t_mapping(t_uint256,t_struct(Version)6955_storage)"
      },
      {
        "astId": 5450,
        "contract": "src/DAODistributor.sol:DAODistributor",
        "label": "numInstances",
        "offset": 0,
        "slot": "7",
        "type": "t_uint256"
      },
      {
        "astId": 6369,
        "contract": "src/DAODistributor.sol:DAODistributor",
        "label": "paymentToken",
        "offset": 0,
        "slot": "8",
        "type": "t_contract(IERC20)1282"
      },
      {
        "astId": 6371,
        "contract": "src/DAODistributor.sol:DAODistributor",
        "label": "_beneficiary",
        "offset": 0,
        "slot": "9",
        "type": "t_address"
      },
      {
        "astId": 6375,
        "contract": "src/DAODistributor.sol:DAODistributor",
        "label": "instantiationCosts",
        "offset": 0,
        "slot": "10",
        "type": "t_mapping(t_bytes32,t_uint256)"
      },
      {
        "astId": 6377,
        "contract": "src/DAODistributor.sol:DAODistributor",
        "label": "defaultInstantiationCost",
        "offset": 0,
        "slot": "11",
        "type": "t_uint256"
      },
      {
        "astId": 26,
        "contract": "src/DAODistributor.sol:DAODistributor",
        "label": "_roles",
        "offset": 0,
        "slot": "12",
        "type": "t_mapping(t_bytes32,t_struct(RoleData)21_storage)"
      },
      {
        "astId": 400,
        "contract": "src/DAODistributor.sol:DAODistributor",
        "label": "_pendingDefaultAdmin",
        "offset": 0,
        "slot": "13",
        "type": "t_address"
      },
      {
        "astId": 402,
        "contract": "src/DAODistributor.sol:DAODistributor",
        "label": "_pendingDefaultAdminSchedule",
        "offset": 20,
        "slot": "13",
        "type": "t_uint48"
      },
      {
        "astId": 404,
        "contract": "src/DAODistributor.sol:DAODistributor",
        "label": "_currentDelay",
        "offset": 26,
        "slot": "13",
        "type": "t_uint48"
      },
      {
        "astId": 406,
        "contract": "src/DAODistributor.sol:DAODistributor",
        "label": "_currentDefaultAdmin",
        "offset": 0,
        "slot": "14",
        "type": "t_address"
      },
      {
        "astId": 408,
        "contract": "src/DAODistributor.sol:DAODistributor",
        "label": "_pendingDelay",
        "offset": 20,
        "slot": "14",
        "type": "t_uint48"
      },
      {
        "astId": 410,
        "contract": "src/DAODistributor.sol:DAODistributor",
        "label": "_pendingDelaySchedule",
        "offset": 26,
        "slot": "14",
        "type": "t_uint48"
      }
    ],
    "types": {
      "t_address": {
        "encoding": "inplace",
        "label": "address",
        "numberOfBytes": "20"
      },
      "t_array(t_bytes32)dyn_storage": {
        "base": "t_bytes32",
        "encoding": "dynamic_array",
        "label": "bytes32[]",
        "numberOfBytes": "32"
      },
      "t_bool": {
        "encoding": "inplace",
        "label": "bool",
        "numberOfBytes": "1"
      },
      "t_bytes32": {
        "encoding": "inplace",
        "label": "bytes32",
        "numberOfBytes": "32"
      },
      "t_contract(IERC20)1282": {
        "encoding": "inplace",
        "label": "contract IERC20",
        "numberOfBytes": "20"
      },
      "t_enum(requirements)6964": {
        "encoding": "inplace",
        "label": "enum LibSemver.requirements",
        "numberOfBytes": "1"
      },
      "t_mapping(t_address,t_bool)": {
        "encoding": "mapping",
        "key": "t_address",
        "label": "mapping(address => bool)",
        "numberOfBytes": "32",
        "value": "t_bool"
      },
      "t_mapping(t_address,t_uint256)": {
        "encoding": "mapping",
        "key": "t_address",
        "label": "mapping(address => uint256)",
        "numberOfBytes": "32",
        "value": "t_uint256"
      },
      "t_mapping(t_bytes32,t_struct(DistributionComponent)5414_storage)": {
        "encoding": "mapping",
        "key": "t_bytes32",
        "label": "mapping(bytes32 => struct Distributor.DistributionComponent)",
        "numberOfBytes": "32",
        "value": "t_struct(DistributionComponent)5414_storage"
      },
      "t_mapping(t_bytes32,t_struct(RoleData)21_storage)": {
        "encoding": "mapping",
        "key": "t_bytes32",
        "label": "mapping(bytes32 => struct AccessControl.RoleData)",
        "numberOfBytes": "32",
        "value": "t_struct(RoleData)21_storage"
      },
      "t_mapping(t_bytes32,t_struct(VersionRequirement)6971_storage)": {
        "encoding": "mapping",
        "key": "t_bytes32",
        "label": "mapping(bytes32 => struct LibSemver.VersionRequirement)",
        "numberOfBytes": "32",
        "value": "t_struct(VersionRequirement)6971_storage"
      },
      "t_mapping(t_bytes32,t_uint256)": {
        "encoding": "mapping",
        "key": "t_bytes32",
        "label": "mapping(bytes32 => uint256)",
        "numberOfBytes": "32",
        "value": "t_uint256"
      },
      "t_mapping(t_uint256,t_bytes32)": {
        "encoding": "mapping",
        "key": "t_uint256",
        "label": "mapping(uint256 => bytes32)",
        "numberOfBytes": "32",
        "value": "t_bytes32"
      },
      "t_mapping(t_uint256,t_struct(Version)6955_storage)": {
        "encoding": "mapping",
        "key": "t_uint256",
        "label": "mapping(uint256 => struct LibSemver.Version)",
        "numberOfBytes": "32",
        "value": "t_struct(Version)6955_storage"
      },
      "t_struct(Bytes32Set)4917_storage": {
        "encoding": "inplace",
        "label": "struct EnumerableSet.Bytes32Set",
        "members": [
          {
            "astId": 4916,
            "contract": "src/DAODistributor.sol:DAODistributor",
            "label": "_inner",
            "offset": 0,
            "slot": "0",
            "type": "t_struct(Set)4723_storage"
          }
        ],
        "numberOfBytes": "64"
      },
      "t_struct(DistributionComponent)5414_storage": {
        "encoding": "inplace",
        "label": "struct Distributor.DistributionComponent",
        "members": [
          {
            "astId": 5411,
            "contract": "src/DAODistributor.sol:DAODistributor",
            "label": "distributionLocation",
            "offset": 0,
            "slot": "0",
            "type": "t_address"
          },
          {
            "astId": 5413,
            "contract": "src/DAODistributor.sol:DAODistributor",
            "label": "initializer",
            "offset": 0,
            "slot": "1",
            "type": "t_address"
          }
        ],
        "numberOfBytes": "64"
      },
      "t_struct(RoleData)21_storage": {
        "encoding": "inplace",
        "label": "struct AccessControl.RoleData",
        "members": [
          {
            "astId": 18,
            "contract": "src/DAODistributor.sol:DAODistributor",
            "label": "hasRole",
            "offset": 0,
            "slot": "0",
            "type": "t_mapping(t_address,t_bool)"
          },
          {
            "astId": 20,
            "contract": "src/DAODistributor.sol:DAODistributor",
            "label": "adminRole",
            "offset": 0,
            "slot": "1",
            "type": "t_bytes32"
          }
        ],
        "numberOfBytes": "64"
      },
      "t_struct(Set)4723_storage": {
        "encoding": "inplace",
        "label": "struct EnumerableSet.Set",
        "members": [
          {
            "astId": 4718,
            "contract": "src/DAODistributor.sol:DAODistributor",
            "label": "_values",
            "offset": 0,
            "slot": "0",
            "type": "t_array(t_bytes32)dyn_storage"
          },
          {
            "astId": 4722,
            "contract": "src/DAODistributor.sol:DAODistributor",
            "label": "_positions",
            "offset": 0,
            "slot": "1",
            "type": "t_mapping(t_bytes32,t_uint256)"
          }
        ],
        "numberOfBytes": "64"
      },
      "t_struct(Version)6955_storage": {
        "encoding": "inplace",
        "label": "struct LibSemver.Version",
        "members": [
          {
            "astId": 6950,
            "contract": "src/DAODistributor.sol:DAODistributor",
            "label": "major",
            "offset": 0,
            "slot": "0",
            "type": "t_uint64"
          },
          {
            "astId": 6952,
            "contract": "src/DAODistributor.sol:DAODistributor",
            "label": "minor",
            "offset": 8,
            "slot": "0",
            "type": "t_uint64"
          },
          {
            "astId": 6954,
            "contract": "src/DAODistributor.sol:DAODistributor",
            "label": "patch",
            "offset": 16,
            "slot": "0",
            "type": "t_uint128"
          }
        ],
        "numberOfBytes": "32"
      },
      "t_struct(VersionRequirement)6971_storage": {
        "encoding": "inplace",
        "label": "struct LibSemver.VersionRequirement",
        "members": [
          {
            "astId": 6967,
            "contract": "src/DAODistributor.sol:DAODistributor",
            "label": "version",
            "offset": 0,
            "slot": "0",
            "type": "t_struct(Version)6955_storage"
          },
          {
            "astId": 6970,
            "contract": "src/DAODistributor.sol:DAODistributor",
            "label": "requirement",
            "offset": 0,
            "slot": "1",
            "type": "t_enum(requirements)6964"
          }
        ],
        "numberOfBytes": "64"
      },
      "t_uint128": {
        "encoding": "inplace",
        "label": "uint128",
        "numberOfBytes": "16"
      },
      "t_uint256": {
        "encoding": "inplace",
        "label": "uint256",
        "numberOfBytes": "32"
      },
      "t_uint48": {
        "encoding": "inplace",
        "label": "uint48",
        "numberOfBytes": "6"
      },
      "t_uint64": {
        "encoding": "inplace",
        "label": "uint64",
        "numberOfBytes": "8"
      }
    }
  }
}