{
  "address": "0x15215a4D9F95f5fd777035a70930c436dE10E01d",
  "abi": [
    {
      "inputs": [
        {
          "internalType": "address",
          "name": "defaultAdmin",
          "type": "address"
        },
        {
          "internalType": "contract IERC20",
          "name": "token",
          "type": "address"
        },
        {
          "internalType": "uint256",
          "name": "defaultCost",
          "type": "uint256"
        }
      ],
      "stateMutability": "nonpayable",
      "type": "constructor"
    },
    {
      "inputs": [],
      "name": "AccessControlBadConfirmation",
      "type": "error"
    },
    {
      "inputs": [
        {
          "internalType": "uint48",
          "name": "schedule",
          "type": "uint48"
        }
      ],
      "name": "AccessControlEnforcedDefaultAdminDelay",
      "type": "error"
    },
    {
      "inputs": [],
      "name": "AccessControlEnforcedDefaultAdminRules",
      "type": "error"
    },
    {
      "inputs": [
        {
          "internalType": "address",
          "name": "defaultAdmin",
          "type": "address"
        }
      ],
      "name": "AccessControlInvalidDefaultAdmin",
      "type": "error"
    },
    {
      "inputs": [
        {
          "internalType": "address",
          "name": "account",
          "type": "address"
        },
        {
          "internalType": "bytes32",
          "name": "neededRole",
          "type": "bytes32"
        }
      ],
      "name": "AccessControlUnauthorizedAccount",
      "type": "error"
    },
    {
      "inputs": [
        {
          "internalType": "bytes32",
          "name": "id",
          "type": "bytes32"
        }
      ],
      "name": "DistributionExists",
      "type": "error"
    },
    {
      "inputs": [
        {
          "internalType": "bytes32",
          "name": "id",
          "type": "bytes32"
        }
      ],
      "name": "DistributionNotFound",
      "type": "error"
    },
    {
      "inputs": [
        {
          "internalType": "bytes32",
          "name": "id",
          "type": "bytes32"
        }
      ],
      "name": "InitializerNotFound",
      "type": "error"
    },
    {
      "inputs": [
        {
          "internalType": "address",
          "name": "instance",
          "type": "address"
        }
      ],
      "name": "InvalidInstance",
      "type": "error"
    },
    {
      "inputs": [
        {
          "internalType": "address",
          "name": "repository",
          "type": "address"
        }
      ],
      "name": "InvalidRepository",
      "type": "error"
    },
    {
      "inputs": [
        {
          "internalType": "bytes32",
          "name": "distributionId",
          "type": "bytes32"
        },
        {
          "internalType": "string",
          "name": "version",
          "type": "string"
        }
      ],
      "name": "InvalidVersionRequested",
      "type": "error"
    },
    {
      "inputs": [
        {
          "internalType": "address",
          "name": "repository",
          "type": "address"
        }
      ],
      "name": "RepositoryAlreadyExists",
      "type": "error"
    },
    {
      "inputs": [
        {
          "internalType": "uint8",
          "name": "bits",
          "type": "uint8"
        },
        {
          "internalType": "uint256",
          "name": "value",
          "type": "uint256"
        }
      ],
      "name": "SafeCastOverflowedUintDowncast",
      "type": "error"
    },
    {
      "inputs": [
        {
          "internalType": "bytes32",
          "name": "distributionId",
          "type": "bytes32"
        }
      ],
      "name": "UnversionedDistribution",
      "type": "error"
    },
    {
      "inputs": [
        {
          "internalType": "bytes32",
          "name": "distributionId",
          "type": "bytes32"
        },
        {
          "internalType": "string",
          "name": "version",
          "type": "string"
        }
      ],
      "name": "VersionOutdated",
      "type": "error"
    },
    {
      "anonymous": false,
      "inputs": [],
      "name": "DefaultAdminDelayChangeCanceled",
      "type": "event"
    },
    {
      "anonymous": false,
      "inputs": [
        {
          "indexed": false,
          "internalType": "uint48",
          "name": "newDelay",
          "type": "uint48"
        },
        {
          "indexed": false,
          "internalType": "uint48",
          "name": "effectSchedule",
          "type": "uint48"
        }
      ],
      "name": "DefaultAdminDelayChangeScheduled",
      "type": "event"
    },
    {
      "anonymous": false,
      "inputs": [],
      "name": "DefaultAdminTransferCanceled",
      "type": "event"
    },
    {
      "anonymous": false,
      "inputs": [
        {
          "indexed": true,
          "internalType": "address",
          "name": "newAdmin",
          "type": "address"
        },
        {
          "indexed": false,
          "internalType": "uint48",
          "name": "acceptSchedule",
          "type": "uint48"
        }
      ],
      "name": "DefaultAdminTransferScheduled",
      "type": "event"
    },
    {
      "anonymous": false,
      "inputs": [
        {
          "indexed": true,
          "internalType": "bytes32",
          "name": "id",
          "type": "bytes32"
        },
        {
          "indexed": false,
          "internalType": "address",
          "name": "distribution",
          "type": "address"
        },
        {
          "indexed": true,
          "internalType": "address",
          "name": "initializer",
          "type": "address"
        }
      ],
      "name": "DistributionAdded",
      "type": "event"
    },
    {
      "anonymous": false,
      "inputs": [
        {
          "indexed": true,
          "internalType": "bytes32",
          "name": "id",
          "type": "bytes32"
        }
      ],
      "name": "DistributionRemoved",
      "type": "event"
    },
    {
      "anonymous": false,
      "inputs": [
        {
          "indexed": true,
          "internalType": "bytes32",
          "name": "distributionId",
          "type": "bytes32"
        },
        {
          "indexed": true,
          "internalType": "uint256",
          "name": "newInstanceId",
          "type": "uint256"
        },
        {
          "indexed": true,
          "internalType": "uint256",
          "name": "version",
          "type": "uint256"
        },
        {
          "indexed": false,
          "internalType": "address[]",
          "name": "instances",
          "type": "address[]"
        },
        {
          "indexed": false,
          "internalType": "bytes",
          "name": "args",
          "type": "bytes"
        }
      ],
      "name": "Instantiated",
      "type": "event"
    },
    {
      "anonymous": false,
      "inputs": [
        {
          "indexed": true,
          "internalType": "bytes32",
          "name": "id",
          "type": "bytes32"
        },
        {
          "indexed": false,
          "internalType": "uint256",
          "name": "cost",
          "type": "uint256"
        }
      ],
      "name": "InstantiationCostChanged",
      "type": "event"
    },
    {
      "anonymous": false,
      "inputs": [
        {
          "indexed": true,
          "internalType": "bytes32",
          "name": "role",
          "type": "bytes32"
        },
        {
          "indexed": true,
          "internalType": "bytes32",
          "name": "previousAdminRole",
          "type": "bytes32"
        },
        {
          "indexed": true,
          "internalType": "bytes32",
          "name": "newAdminRole",
          "type": "bytes32"
        }
      ],
      "name": "RoleAdminChanged",
      "type": "event"
    },
    {
      "anonymous": false,
      "inputs": [
        {
          "indexed": true,
          "internalType": "bytes32",
          "name": "role",
          "type": "bytes32"
        },
        {
          "indexed": true,
          "internalType": "address",
          "name": "account",
          "type": "address"
        },
        {
          "indexed": true,
          "internalType": "address",
          "name": "sender",
          "type": "address"
        }
      ],
      "name": "RoleGranted",
      "type": "event"
    },
    {
      "anonymous": false,
      "inputs": [
        {
          "indexed": true,
          "internalType": "bytes32",
          "name": "role",
          "type": "bytes32"
        },
        {
          "indexed": true,
          "internalType": "address",
          "name": "account",
          "type": "address"
        },
        {
          "indexed": true,
          "internalType": "address",
          "name": "sender",
          "type": "address"
        }
      ],
      "name": "RoleRevoked",
      "type": "event"
    },
    {
      "anonymous": false,
      "inputs": [
        {
          "indexed": true,
          "internalType": "bytes32",
          "name": "distributionId",
          "type": "bytes32"
        },
        {
          "components": [
            {
              "components": [
                {
                  "internalType": "uint64",
                  "name": "major",
                  "type": "uint64"
                },
                {
                  "internalType": "uint64",
                  "name": "minor",
                  "type": "uint64"
                },
                {
                  "internalType": "uint128",
                  "name": "patch",
                  "type": "uint128"
                }
              ],
              "internalType": "struct LibSemver.Version",
              "name": "version",
              "type": "tuple"
            },
            {
              "internalType": "enum LibSemver.requirements",
              "name": "requirement",
              "type": "uint8"
            }
          ],
          "indexed": true,
          "internalType": "struct LibSemver.VersionRequirement",
          "name": "newRequirement",
          "type": "tuple"
        },
        {
          "components": [
            {
              "components": [
                {
                  "internalType": "uint64",
                  "name": "major",
                  "type": "uint64"
                },
                {
                  "internalType": "uint64",
                  "name": "minor",
                  "type": "uint64"
                },
                {
                  "internalType": "uint128",
                  "name": "patch",
                  "type": "uint128"
                }
              ],
              "internalType": "struct LibSemver.Version",
              "name": "version",
              "type": "tuple"
            },
            {
              "internalType": "enum LibSemver.requirements",
              "name": "requirement",
              "type": "uint8"
            }
          ],
          "indexed": false,
          "internalType": "struct LibSemver.VersionRequirement",
          "name": "newRequirementData",
          "type": "tuple"
        }
      ],
      "name": "VersionChanged",
      "type": "event"
    },
    {
      "inputs": [],
      "name": "DEFAULT_ADMIN_ROLE",
      "outputs": [
        {
          "internalType": "bytes32",
          "name": "",
          "type": "bytes32"
        }
      ],
      "stateMutability": "view",
      "type": "function"
    },
    {
      "inputs": [],
      "name": "_beneficiary",
      "outputs": [
        {
          "internalType": "address",
          "name": "",
          "type": "address"
        }
      ],
      "stateMutability": "view",
      "type": "function"
    },
    {
      "inputs": [],
      "name": "acceptDefaultAdminTransfer",
      "outputs": [],
      "stateMutability": "nonpayable",
      "type": "function"
    },
    {
      "inputs": [
        {
          "internalType": "contract IRepository",
          "name": "repository",
          "type": "address"
        },
        {
          "internalType": "address",
          "name": "initializer",
          "type": "address"
        },
        {
          "components": [
            {
              "components": [
                {
                  "internalType": "uint64",
                  "name": "major",
                  "type": "uint64"
                },
                {
                  "internalType": "uint64",
                  "name": "minor",
                  "type": "uint64"
                },
                {
                  "internalType": "uint128",
                  "name": "patch",
                  "type": "uint128"
                }
              ],
              "internalType": "struct LibSemver.Version",
              "name": "version",
              "type": "tuple"
            },
            {
              "internalType": "enum LibSemver.requirements",
              "name": "requirement",
              "type": "uint8"
            }
          ],
          "internalType": "struct LibSemver.VersionRequirement",
          "name": "requirement",
          "type": "tuple"
        }
      ],
      "name": "addDistribution",
      "outputs": [],
      "stateMutability": "nonpayable",
      "type": "function"
    },
    {
      "inputs": [
        {
          "internalType": "bytes32",
          "name": "id",
          "type": "bytes32"
        },
        {
          "internalType": "address",
          "name": "initializer",
          "type": "address"
        }
      ],
      "name": "addDistribution",
      "outputs": [],
      "stateMutability": "nonpayable",
      "type": "function"
    },
    {
      "inputs": [
        {
          "internalType": "bytes",
          "name": "config",
          "type": "bytes"
        },
        {
          "internalType": "bytes4",
          "name": "",
          "type": "bytes4"
        },
        {
          "internalType": "address",
          "name": "maybeInstance",
          "type": "address"
        },
        {
          "internalType": "uint256",
          "name": "",
          "type": "uint256"
        },
        {
          "internalType": "bytes",
          "name": "",
          "type": "bytes"
        },
        {
          "internalType": "bytes",
          "name": "",
          "type": "bytes"
        }
      ],
      "name": "afterCall",
      "outputs": [],
      "stateMutability": "nonpayable",
      "type": "function"
    },
    {
      "inputs": [
        {
          "internalType": "bytes",
          "name": "config",
          "type": "bytes"
        },
        {
          "internalType": "bytes4",
          "name": "",
          "type": "bytes4"
        },
        {
          "internalType": "address",
          "name": "maybeInstance",
          "type": "address"
        },
        {
          "internalType": "uint256",
          "name": "",
          "type": "uint256"
        },
        {
          "internalType": "bytes",
          "name": "",
          "type": "bytes"
        }
      ],
      "name": "beforeCall",
      "outputs": [
        {
          "internalType": "bytes",
          "name": "",
          "type": "bytes"
        }
      ],
      "stateMutability": "view",
      "type": "function"
    },
    {
      "inputs": [
        {
          "internalType": "address",
          "name": "newAdmin",
          "type": "address"
        }
      ],
      "name": "beginDefaultAdminTransfer",
      "outputs": [],
      "stateMutability": "nonpayable",
      "type": "function"
    },
    {
      "inputs": [
        {
          "internalType": "bytes32",
          "name": "sourceId",
          "type": "bytes32"
        },
        {
          "internalType": "address",
          "name": "initializer",
          "type": "address"
        }
      ],
      "name": "calculateDistributorId",
      "outputs": [
        {
          "internalType": "bytes32",
          "name": "",
          "type": "bytes32"
        }
      ],
      "stateMutability": "pure",
      "type": "function"
    },
    {
      "inputs": [
        {
          "internalType": "address",
          "name": "repository",
          "type": "address"
        },
        {
          "internalType": "address",
          "name": "initializer",
          "type": "address"
        }
      ],
      "name": "calculateDistributorId",
      "outputs": [
        {
          "internalType": "bytes32",
          "name": "",
          "type": "bytes32"
        }
      ],
      "stateMutability": "pure",
      "type": "function"
    },
    {
      "inputs": [],
      "name": "cancelDefaultAdminTransfer",
      "outputs": [],
      "stateMutability": "nonpayable",
      "type": "function"
    },
    {
      "inputs": [
        {
          "internalType": "uint48",
          "name": "newDelay",
          "type": "uint48"
        }
      ],
      "name": "changeDefaultAdminDelay",
      "outputs": [],
      "stateMutability": "nonpayable",
      "type": "function"
    },
    {
      "inputs": [
        {
          "internalType": "bytes32",
          "name": "distributionId",
          "type": "bytes32"
        },
        {
          "components": [
            {
              "components": [
                {
                  "internalType": "uint64",
                  "name": "major",
                  "type": "uint64"
                },
                {
                  "internalType": "uint64",
                  "name": "minor",
                  "type": "uint64"
                },
                {
                  "internalType": "uint128",
                  "name": "patch",
                  "type": "uint128"
                }
              ],
              "internalType": "struct LibSemver.Version",
              "name": "version",
              "type": "tuple"
            },
            {
              "internalType": "enum LibSemver.requirements",
              "name": "requirement",
              "type": "uint8"
            }
          ],
          "internalType": "struct LibSemver.VersionRequirement",
          "name": "newRequirement",
          "type": "tuple"
        }
      ],
      "name": "changeVersion",
      "outputs": [],
      "stateMutability": "nonpayable",
      "type": "function"
    },
    {
      "inputs": [],
      "name": "defaultAdmin",
      "outputs": [
        {
          "internalType": "address",
          "name": "",
          "type": "address"
        }
      ],
      "stateMutability": "view",
      "type": "function"
    },
    {
      "inputs": [],
      "name": "defaultAdminDelay",
      "outputs": [
        {
          "internalType": "uint48",
          "name": "",
          "type": "uint48"
        }
      ],
      "stateMutability": "view",
      "type": "function"
    },
    {
      "inputs": [],
      "name": "defaultAdminDelayIncreaseWait",
      "outputs": [
        {
          "internalType": "uint48",
          "name": "",
          "type": "uint48"
        }
      ],
      "stateMutability": "view",
      "type": "function"
    },
    {
      "inputs": [],
      "name": "defaultInstantiationCost",
      "outputs": [
        {
          "internalType": "uint256",
          "name": "",
          "type": "uint256"
        }
      ],
      "stateMutability": "view",
      "type": "function"
    },
    {
      "inputs": [
        {
          "internalType": "bytes32",
          "name": "distributorsId",
          "type": "bytes32"
        }
      ],
      "name": "distributionComponents",
      "outputs": [
        {
          "internalType": "address",
          "name": "distributionLocation",
          "type": "address"
        },
        {
          "internalType": "address",
          "name": "initializer",
          "type": "address"
        }
      ],
      "stateMutability": "view",
      "type": "function"
    },
    {
      "inputs": [
        {
          "internalType": "uint256",
          "name": "instance",
          "type": "uint256"
        }
      ],
      "name": "distributionOf",
      "outputs": [
        {
          "internalType": "bytes32",
          "name": "distributorsId",
          "type": "bytes32"
        }
      ],
      "stateMutability": "view",
      "type": "function"
    },
    {
      "inputs": [
        {
          "internalType": "address",
          "name": "instance",
          "type": "address"
        }
      ],
      "name": "getDistributionId",
      "outputs": [
        {
          "internalType": "bytes32",
          "name": "",
          "type": "bytes32"
        }
      ],
      "stateMutability": "view",
      "type": "function"
    },
    {
      "inputs": [
        {
          "internalType": "bytes32",
          "name": "distributorsId",
          "type": "bytes32"
        }
      ],
      "name": "getDistributionURI",
      "outputs": [
        {
          "internalType": "string",
          "name": "",
          "type": "string"
        }
      ],
      "stateMutability": "view",
      "type": "function"
    },
    {
      "inputs": [],
      "name": "getDistributions",
      "outputs": [
        {
          "internalType": "bytes32[]",
          "name": "",
          "type": "bytes32[]"
        }
      ],
      "stateMutability": "view",
      "type": "function"
    },
    {
      "inputs": [
        {
          "internalType": "address",
          "name": "instance",
          "type": "address"
        }
      ],
      "name": "getInstanceId",
      "outputs": [
        {
          "internalType": "uint256",
          "name": "",
          "type": "uint256"
        }
      ],
      "stateMutability": "view",
      "type": "function"
    },
    {
      "inputs": [
        {
          "internalType": "bytes32",
          "name": "role",
          "type": "bytes32"
        }
      ],
      "name": "getRoleAdmin",
      "outputs": [
        {
          "internalType": "bytes32",
          "name": "",
          "type": "bytes32"
        }
      ],
      "stateMutability": "view",
      "type": "function"
    },
    {
      "inputs": [
        {
          "internalType": "bytes32",
          "name": "role",
          "type": "bytes32"
        },
        {
          "internalType": "address",
          "name": "account",
          "type": "address"
        }
      ],
      "name": "grantRole",
      "outputs": [],
      "stateMutability": "nonpayable",
      "type": "function"
    },
    {
      "inputs": [
        {
          "internalType": "bytes32",
          "name": "role",
          "type": "bytes32"
        },
        {
          "internalType": "address",
          "name": "account",
          "type": "address"
        }
      ],
      "name": "hasRole",
      "outputs": [
        {
          "internalType": "bool",
          "name": "",
          "type": "bool"
        }
      ],
      "stateMutability": "view",
      "type": "function"
    },
    {
      "inputs": [
        {
          "internalType": "uint256",
          "name": "instanceId",
          "type": "uint256"
        }
      ],
      "name": "instanceVersions",
      "outputs": [
        {
          "internalType": "uint64",
          "name": "major",
          "type": "uint64"
        },
        {
          "internalType": "uint64",
          "name": "minor",
          "type": "uint64"
        },
        {
          "internalType": "uint128",
          "name": "patch",
          "type": "uint128"
        }
      ],
      "stateMutability": "view",
      "type": "function"
    },
    {
      "inputs": [
        {
          "internalType": "bytes32",
          "name": "id",
          "type": "bytes32"
        },
        {
          "internalType": "bytes",
          "name": "args",
          "type": "bytes"
        }
      ],
      "name": "instantiate",
      "outputs": [
        {
          "internalType": "address[]",
          "name": "srcs",
          "type": "address[]"
        },
        {
          "internalType": "bytes32",
          "name": "name",
          "type": "bytes32"
        },
        {
          "internalType": "uint256",
          "name": "version",
          "type": "uint256"
        }
      ],
      "stateMutability": "nonpayable",
      "type": "function"
    },
    {
      "inputs": [
        {
          "internalType": "bytes32",
          "name": "id",
          "type": "bytes32"
        }
      ],
      "name": "instantiationCosts",
      "outputs": [
        {
          "internalType": "uint256",
          "name": "",
          "type": "uint256"
        }
      ],
      "stateMutability": "view",
      "type": "function"
    },
    {
      "inputs": [],
      "name": "numInstances",
      "outputs": [
        {
          "internalType": "uint256",
          "name": "",
          "type": "uint256"
        }
      ],
      "stateMutability": "view",
      "type": "function"
    },
    {
      "inputs": [],
      "name": "owner",
      "outputs": [
        {
          "internalType": "address",
          "name": "",
          "type": "address"
        }
      ],
      "stateMutability": "view",
      "type": "function"
    },
    {
      "inputs": [],
      "name": "paymentToken",
      "outputs": [
        {
          "internalType": "contract IERC20",
          "name": "",
          "type": "address"
        }
      ],
      "stateMutability": "view",
      "type": "function"
    },
    {
      "inputs": [],
      "name": "pendingDefaultAdmin",
      "outputs": [
        {
          "internalType": "address",
          "name": "newAdmin",
          "type": "address"
        },
        {
          "internalType": "uint48",
          "name": "schedule",
          "type": "uint48"
        }
      ],
      "stateMutability": "view",
      "type": "function"
    },
    {
      "inputs": [],
      "name": "pendingDefaultAdminDelay",
      "outputs": [
        {
          "internalType": "uint48",
          "name": "newDelay",
          "type": "uint48"
        },
        {
          "internalType": "uint48",
          "name": "schedule",
          "type": "uint48"
        }
      ],
      "stateMutability": "view",
      "type": "function"
    },
    {
      "inputs": [
        {
          "internalType": "bytes32",
          "name": "id",
          "type": "bytes32"
        }
      ],
      "name": "removeDistribution",
      "outputs": [],
      "stateMutability": "nonpayable",
      "type": "function"
    },
    {
      "inputs": [
        {
          "internalType": "bytes32",
          "name": "role",
          "type": "bytes32"
        },
        {
          "internalType": "address",
          "name": "account",
          "type": "address"
        }
      ],
      "name": "renounceRole",
      "outputs": [],
      "stateMutability": "nonpayable",
      "type": "function"
    },
    {
      "inputs": [
        {
          "internalType": "bytes32",
          "name": "role",
          "type": "bytes32"
        },
        {
          "internalType": "address",
          "name": "account",
          "type": "address"
        }
      ],
      "name": "revokeRole",
      "outputs": [],
      "stateMutability": "nonpayable",
      "type": "function"
    },
    {
      "inputs": [],
      "name": "rollbackDefaultAdminDelay",
      "outputs": [],
      "stateMutability": "nonpayable",
      "type": "function"
    },
    {
      "inputs": [
        {
          "internalType": "bytes32",
          "name": "id",
          "type": "bytes32"
        },
        {
          "internalType": "uint256",
          "name": "cost",
          "type": "uint256"
        }
      ],
      "name": "setInstantiationCost",
      "outputs": [],
      "stateMutability": "nonpayable",
      "type": "function"
    },
    {
      "inputs": [
        {
          "internalType": "bytes4",
          "name": "interfaceId",
          "type": "bytes4"
        }
      ],
      "name": "supportsInterface",
      "outputs": [
        {
          "internalType": "bool",
          "name": "",
          "type": "bool"
        }
      ],
      "stateMutability": "view",
      "type": "function"
    },
    {
      "inputs": [
        {
          "internalType": "bytes32",
          "name": "distributorsId",
          "type": "bytes32"
        }
      ],
      "name": "versionRequirements",
      "outputs": [
        {
          "components": [
            {
              "internalType": "uint64",
              "name": "major",
              "type": "uint64"
            },
            {
              "internalType": "uint64",
              "name": "minor",
              "type": "uint64"
            },
            {
              "internalType": "uint128",
              "name": "patch",
              "type": "uint128"
            }
          ],
          "internalType": "struct LibSemver.Version",
          "name": "version",
          "type": "tuple"
        },
        {
          "internalType": "enum LibSemver.requirements",
          "name": "requirement",
          "type": "uint8"
        }
      ],
      "stateMutability": "view",
      "type": "function"
    }
  ],
  "transactionHash": "0x9e4a4ab23993d5eec9d443066b1b7dac4aceb2962c0928ed5f5faabe6220416d",
  "args": [
    "0x507c2d32185667156de5B4C440FEEf3800078bDb",
    "0x4D03e0A776Dff6c210BE0E816F59cC82EEf20Def",
    "1000000000000000000"
  ],
  "numDeployments": 1,
  "solcInputHash": "47d55bac03dce70d666aae0a21c6b0ed",
  "bytecode": "0x60806040523480156200001157600080fd5b50604051620040e9380380620040e983398101604081905262000034916200020c565b600880546001600160a01b038085166001600160a01b031992831617909255600b8390556009805492861692909116821790556203f4809084906200009357604051636116401160e11b81526000600482015260240160405180910390fd5b600d80546001600160d01b0316600160d01b65ffffffffffff851602179055620000bf600082620000cb565b50505050505062000254565b6000826200012c576000620000e8600e546001600160a01b031690565b6001600160a01b0316146200011057604051631fe1e13d60e11b815260040160405180910390fd5b600e80546001600160a01b0319166001600160a01b0384161790555b62000138838362000141565b90505b92915050565b6000828152600c602090815260408083206001600160a01b038516845290915281205460ff16620001ea576000838152600c602090815260408083206001600160a01b03861684529091529020805460ff19166001179055620001a13390565b6001600160a01b0316826001600160a01b0316847f2f8788117e7eff1d82e926ec794901d17c78024a50270940304540a733656f0d60405160405180910390a45060016200013b565b5060006200013b565b6001600160a01b03811681146200020957600080fd5b50565b6000806000606084860312156200022257600080fd5b83516200022f81620001f3565b60208501519093506200024281620001f3565b80925050604084015190509250925092565b613e8580620002646000396000f3fe608060405234801561001057600080fd5b50600436106102d35760003560e01c80637591b0c211610186578063a1eda53c116100e3578063cc8463c811610097578063d547741f11610071578063d547741f1461076c578063d602b9fd1461077f578063f8f69e901461078757600080fd5b8063cc8463c81461072e578063cefc142914610736578063cf6eefb71461073e57600080fd5b8063b9ebf395116100c8578063b9ebf3951461067d578063c3e9576a146106fb578063c66670f11461070e57600080fd5b8063a1eda53c1461064e578063a217fddf1461067557600080fd5b8063894785611161013a57806391d148541161011f57806391d1485414610603578063921e1d1b1461063c57806399aa65a71461064557600080fd5b806389478561146105e85780638da5cb5b146105fb57600080fd5b8063834c4b7e1161016b578063834c4b7e1461059b57806384ef8ffc146105ae5780638740ce05146105bf57600080fd5b80637591b0c214610566578063828cedb71461058857600080fd5b80632343b000116102345780634440d245116101e8578063584ed12c116101cd578063584ed12c1461052d578063634e93da14610540578063649a5ec71461055357600080fd5b80634440d2451461049d5780634587af5e146104b057600080fd5b80632f2ff15d116102195780632f2ff15d1461044c5780633013ce291461045f57806336568abe1461048a57600080fd5b80632343b00014610409578063248a9ca31461042957600080fd5b80630aa6220b1161028b578063130238711161027057806313023871146103825780631a0bba04146103955780631bc82e65146103b557600080fd5b80630aa6220b14610367578063128ecd1e1461036f57600080fd5b806302aa6318116102bc57806302aa63181461031c57806303ac23c71461033157806309587fbc1461035257600080fd5b806301ffc9a7146102d8578063022d63fb14610300575b600080fd5b6102eb6102e6366004613320565b61079a565b60405190151581526020015b60405180910390f35b620697805b60405165ffffffffffff90911681526020016102f7565b6103246107ba565b6040516102f7919061333b565b61034461033f366004613394565b6107cb565b6040519081526020016102f7565b610365610360366004613506565b610810565b005b61036561082d565b61036561037d36600461354e565b610843565b61036561039036600461357b565b61085d565b6103446103a336600461359d565b60036020526000908152604090205481565b6103e96103c336600461359d565b600460205260009081526040902080546001909101546001600160a01b03918216911682565b604080516001600160a01b039384168152929091166020830152016102f7565b61041c61041736600461359d565b610872565b6040516102f79190613606565b61034461043736600461359d565b6000908152600c602052604090206001015490565b61036561045a366004613394565b61092c565b600854610472906001600160a01b031681565b6040516001600160a01b0390911681526020016102f7565b610365610498366004613394565b610958565b61041c6104ab366004613697565b610a37565b6104fd6104be36600461359d565b60066020526000908152604090205467ffffffffffffffff8082169168010000000000000000810490911690600160801b90046001600160801b031683565b6040805167ffffffffffffffff94851681529390921660208401526001600160801b0316908201526060016102f7565b61036561053b36600461359d565b610cde565b61036561054e36600461372a565b610cf2565b610365610561366004613747565b610d06565b61057961057436600461376f565b610d1a565b6040516102f79392919061382f565b600954610472906001600160a01b031681565b6103656105a9366004613394565b610d6e565b600e546001600160a01b0316610472565b6103446105cd36600461372a565b6001600160a01b031660009081526002602052604090205490565b6103446105f636600461372a565b610d89565b610472610dc4565b6102eb610611366004613394565b6000918252600c602090815260408084206001600160a01b0393909316845291905290205460ff1690565b610344600b5481565b61034460075481565b610656610dd8565b6040805165ffffffffffff9384168152929091166020830152016102f7565b610344600081565b6106ed61068b36600461359d565b6005602090815260009182526040918290208251606081018452815467ffffffffffffffff80821683526801000000000000000082041693820193909352600160801b9092046001600160801b03169282019290925260019091015460ff1682565b6040516102f792919061388c565b6103656107093660046138cd565b610e2c565b61034461071c36600461359d565b600a6020526000908152604090205481565b610305611059565b6103656110b8565b600d54604080516001600160a01b0383168152600160a01b90920465ffffffffffff166020830152016102f7565b61036561077a366004613394565b611107565b61036561112f565b610344610795366004613983565b611142565b60006107a58261116a565b806107b457506107b4826111a8565b92915050565b60606107c660006111f6565b905090565b600082826040516020016107f29291909182526001600160a01b0316602082015260400190565b60405160208183030381529060405280519060200120905092915050565b600061081b81611203565b61082684848461120d565b5050505050565b600061083881611203565b610840611441565b50565b600061084e81611203565b610858838361144e565b505050565b600061086881611203565b61085883836116a8565b60008181526004602081815260408084208151808301835281546001600160a01b03908116808352600190930154169381019390935281517fe8a3d48500000000000000000000000000000000000000000000000000000000815291516060959394919363e8a3d4859380840193919291908290030181865afa1580156108fd573d6000803e3d6000fd5b505050506040513d6000823e601f3d908101601f1916820160405261092591908101906139e1565b9392505050565b8161094a57604051631fe1e13d60e11b815260040160405180910390fd5b61095482826116f9565b5050565b811580156109735750600e546001600160a01b038281169116145b15610a2d57600d546001600160a01b03811690600160a01b900465ffffffffffff16811515806109a9575065ffffffffffff8116155b806109bc57504265ffffffffffff821610155b15610a02576040517f19ca5ebb00000000000000000000000000000000000000000000000000000000815265ffffffffffff821660048201526024015b60405180910390fd5b5050600d80547fffffffffffff000000000000ffffffffffffffffffffffffffffffffffffffff1690555b610954828261171e565b6060600080875111610a495733610a5d565b86806020019051810190610a5d9190613a32565b9050600060036000610a84886001600160a01b031660009081526002602052604090205490565b81526020019081526020016000205490506000610ab6876001600160a01b031660009081526002602052604090205490565b90508115801590610ae4575080610ae2846001600160a01b031660009081526002602052604090205490565b145b8015610af65750610af660008361176a565b15610c98576000818152600660209081526040808320815160608082018452915467ffffffffffffffff8082168352680100000000000000008083048216848801526001600160801b03600160801b938490048116858801528a89526005885297869020865160a0810188528154808516988201988952928304909316958301959095529190910490951660808601529184526001810154610bc494929383019060ff166007811115610bab57610bab613854565b6007811115610bbc57610bbc613854565b905250611782565b610c5d576000818152600660209081526040918290208251606081018452905467ffffffffffffffff80821683526801000000000000000082041692820192909252600160801b9091046001600160801b0316918101919091528290610c2990611bae565b6040517fe16fa0c60000000000000000000000000000000000000000000000000000000081526004016109f9929190613a4f565b81604051602001610c7f91815260406020820181905260009082015260600190565b6040516020818303038152906040529350505050610cd5565b6040517f0b66d2180000000000000000000000000000000000000000000000000000000081526001600160a01b03881660048201526024016109f9565b95945050505050565b6000610ce981611203565b61095482611c1c565b6000610cfd81611203565b61095482611ccc565b6000610d1181611203565b61095482611d38565b6060600080610d5f8686868080601f016020809104026020016040519081016040528093929190818152602001838380828437600092019190915250611da892505050565b92509250925093509350939050565b6000610d7981611203565b610d838383611e6e565b50505050565b600060036000610dae846001600160a01b031660009081526002602052604090205490565b8152602001908152602001600020549050919050565b60006107c6600e546001600160a01b031690565b600e54600090600160d01b900465ffffffffffff168015158015610e0457504265ffffffffffff821610155b610e1057600080610e24565b600e54600160a01b900465ffffffffffff16815b915091509091565b600080875111610e3c5733610e50565b86806020019051810190610e509190613a32565b9050600060036000610e77886001600160a01b031660009081526002602052604090205490565b81526020019081526020016000205490506000610ea9876001600160a01b031660009081526002602052604090205490565b9050610eca876001600160a01b031660009081526002602052604090205490565b6001600160a01b03841660009081526002602052604090205414158015610ef75750610ef760008361176a565b15610f39576040517f0b66d2180000000000000000000000000000000000000000000000000000000081526001600160a01b03881660048201526024016109f9565b6000818152600660209081526040808320815160608082018452915467ffffffffffffffff8082168352680100000000000000008083048216848801526001600160801b03600160801b938490048116858801528a89526005885297869020865160a0810188528154808516988201988952928304909316958301959095529190910490951660808601529184526001810154610fe994929383019060ff166007811115610bab57610bab613854565b61104e576000818152600660209081526040918290208251606081018452905467ffffffffffffffff80821683526801000000000000000082041692820192909252600160801b9091046001600160801b0316918101919091528290610c2990611bae565b505050505050505050565b600e54600090600160d01b900465ffffffffffff16801515801561108457504265ffffffffffff8216105b61109f57600d54600160d01b900465ffffffffffff166110b2565b600e54600160a01b900465ffffffffffff165b91505090565b600d546001600160a01b03163381146110ff576040517fc22c80220000000000000000000000000000000000000000000000000000000081523360048201526024016109f9565b610840611e88565b8161112557604051631fe1e13d60e11b815260040160405180910390fd5b6109548282611f50565b600061113a81611203565b610840611f75565b604080516001600160a01b0380851660208301528316918101919091526000906060016107f2565b60006001600160e01b031982167f314987860000000000000000000000000000000000000000000000000000000014806107b457506107b482611f80565b60006001600160e01b031982167f9aab004e0000000000000000000000000000000000000000000000000000000014806107b457506301ffc9a760e01b6001600160e01b03198316146107b4565b6060600061092583611fbe565b610840813361201a565b6000611239847ff9e8488f00000000000000000000000000000000000000000000000000000000612088565b61127a576040517f404a13190000000000000000000000000000000000000000000000000000000081526001600160a01b03851660048201526024016109f9565b604080516001600160a01b0380871660208301528516918101919091526060016040516020818303038152906040528051906020012090506112f98260000151600081604001516001600160801b03166080836020015167ffffffffffffffff16901b60c0846000015167ffffffffffffffff16901b17179050919050565b600003611342578061130e8360000151611bae565b6040517fb9619f580000000000000000000000000000000000000000000000000000000081526004016109f9929190613a4f565b61134d8185856120a4565b6000818152600560209081526040918290208451805182548285015192909501516001600160801b03908116600160801b0267ffffffffffffffff93841668010000000000000000026fffffffffffffffffffffffffffffffff1990971693909216929092179490941716929092178255830151600180830180548694939260ff19909116908360078111156113e5576113e5613854565b0217905550506040516113fa91508390613a68565b6040518091039020817fd8f18dfaf582641f02bc0d91a99cf3be0cbc415f5aabae657dea86184cdff4fc846040516114329190613ab6565b60405180910390a39392505050565b61144c600080612194565b565b61145960008361176a565b6114795760405163f737a13760e01b8152600481018390526024016109f9565b6000828152600560209081526040808320815160a081018352815467ffffffffffffffff808216948301948552680100000000000000008204166060830152600160801b90046001600160801b031660808201529182526001810154919290919083019060ff1660078111156114f1576114f1613854565b600781111561150257611502613854565b905250805190915061154d90600081604001516001600160801b03166080836020015167ffffffffffffffff16901b60c0846000015167ffffffffffffffff16901b17179050919050565b600003611589576040517f5495099b000000000000000000000000000000000000000000000000000000008152600481018490526024016109f9565b81516115ce90600081604001516001600160801b03166080836020015167ffffffffffffffff16901b60c0846000015167ffffffffffffffff16901b17179050919050565b6000036115e3578261130e8360000151611bae565b805182516115f1919061227a565b15611604578261130e8360000151611bae565b6000838152600560209081526040918290208451805182548285015192909501516001600160801b03908116600160801b0267ffffffffffffffff93841668010000000000000000026fffffffffffffffffffffffffffffffff1990971693909216929092179490941716929092178255830151600180830180548694939260ff199091169083600781111561169c5761169c613854565b02179055505050505050565b6000828152600a6020526040908190208290555182907f566325d0380c90d3dda6ed34028ff0f22677d1b1a547428b018e7fee7db02e20906116ed9084815260200190565b60405180910390a25050565b6000828152600c602052604090206001015461171481611203565b610d83838361230a565b6001600160a01b0381163314611760576040517f6697b23200000000000000000000000000000000000000000000000000000000815260040160405180910390fd5b610858828261237f565b60008181526001830160205260408120541515610925565b6000808260200151600781111561179b5761179b613854565b036117a8575060016107b4565b6001826020015160078111156117c0576117c0613854565b0361185557815161180a90600081604001516001600160801b03166080836020015167ffffffffffffffff16901b60c0846000015167ffffffffffffffff16901b17179050919050565b61184d84600081604001516001600160801b03166080836020015167ffffffffffffffff16901b60c0846000015167ffffffffffffffff16901b17179050919050565b1490506107b4565b60028260200151600781111561186d5761186d613854565b0361188c5750805151825167ffffffffffffffff9081169116146107b4565b6003826020015160078111156118a4576118a4613854565b036118ef57815151835167ffffffffffffffff90811691161480156118e8575081600001516020015167ffffffffffffffff16836020015167ffffffffffffffff16145b90506107b4565b60048260200151600781111561190757611907613854565b0361199d57815161195190600081604001516001600160801b03166080836020015167ffffffffffffffff16901b60c0846000015167ffffffffffffffff16901b17179050919050565b61199484600081604001516001600160801b03166080836020015167ffffffffffffffff16901b60c0846000015167ffffffffffffffff16901b17179050919050565b101590506107b4565b6005826020015160078111156119b5576119b5613854565b03611a4a5781516119ff90600081604001516001600160801b03166080836020015167ffffffffffffffff16901b60c0846000015167ffffffffffffffff16901b17179050919050565b611a4284600081604001516001600160801b03166080836020015167ffffffffffffffff16901b60c0846000015167ffffffffffffffff16901b17179050919050565b1190506107b4565b600682602001516007811115611a6257611a62613854565b03611af8578151611aac90600081604001516001600160801b03166080836020015167ffffffffffffffff16901b60c0846000015167ffffffffffffffff16901b17179050919050565b611aef84600081604001516001600160801b03166080836020015167ffffffffffffffff16901b60c0846000015167ffffffffffffffff16901b17179050919050565b111590506107b4565b600782602001516007811115611b1057611b10613854565b03611ba5578151611b5a90600081604001516001600160801b03166080836020015167ffffffffffffffff16901b60c0846000015167ffffffffffffffff16901b17179050919050565b611b9d84600081604001516001600160801b03166080836020015167ffffffffffffffff16901b60c0846000015167ffffffffffffffff16901b17179050919050565b1090506107b4565b50600092915050565b6060611bc7826000015167ffffffffffffffff166123c9565b611bde836020015167ffffffffffffffff166123c9565b611bf484604001516001600160801b03166123c9565b604051602001611c0693929190613afe565b6040516020818303038152906040529050919050565b611c2760008261176a565b611c475760405163f737a13760e01b8152600481018290526024016109f9565b611c52600082612469565b506000818152600460209081526040808320805473ffffffffffffffffffffffffffffffffffffffff1990811682556001918201805490911690556005909252808320838155909101805460ff191690555182917ff8a76d9c3f55eabd1faadf7d8ec1d8d5ee98ee785eadf2cf343f40e11541c2cd91a250565b6000611cd6611059565b611cdf42612475565b611ce99190613b8a565b9050611cf582826124c5565b60405165ffffffffffff821681526001600160a01b038316907f3377dc44241e779dd06afab5b788a35ca5f3b778836e2990bdb26a2a4b2e5ed6906020016116ed565b6000611d4382612543565b611d4c42612475565b611d569190613b8a565b9050611d628282612194565b6040805165ffffffffffff8085168252831660208201527ff1038c18cf84a56e432fdbfaf746924b7ea511dfe03a6506a0ceba4888788d9b910160405180910390a15050565b6008546009546000848152600a60205260408082205490517f23b872dd0000000000000000000000000000000000000000000000000000000081523360048201526001600160a01b03938416602482015260448101919091526060939192839216906323b872dd906064016020604051808303816000875af1158015611e32573d6000803e3d6000fd5b505050506040513d601f19601f82011682018060405250810190611e569190613ba9565b50611e61858561258b565b9250925092509250925092565b6000611e7a8383612d9b565b90506107b481600b546116a8565b600d546001600160a01b03811690600160a01b900465ffffffffffff16801580611eba57504265ffffffffffff821610155b15611efb576040517f19ca5ebb00000000000000000000000000000000000000000000000000000000815265ffffffffffff821660048201526024016109f9565b611f176000611f12600e546001600160a01b031690565b61237f565b50611f2360008361230a565b5050600d80547fffffffffffff000000000000000000000000000000000000000000000000000016905550565b6000828152600c6020526040902060010154611f6b81611203565b610d83838361237f565b61144c6000806124c5565b60006001600160e01b031982167f7965db0b0000000000000000000000000000000000000000000000000000000014806107b457506107b4826111a8565b60608160000180548060200260200160405190810160405280929190818152602001828054801561200e57602002820191906000526020600020905b815481526020019060010190808311611ffa575b50505050509050919050565b6000828152600c602090815260408083206001600160a01b038516845290915290205460ff16610954576040517fe2517d3f0000000000000000000000000000000000000000000000000000000081526001600160a01b0382166004820152602481018390526044016109f9565b600061209383612eb7565b801561092557506109258383612eea565b6120af60008461176a565b156120e9576040517ff605b5bb000000000000000000000000000000000000000000000000000000008152600481018490526024016109f9565b6120f4600084612f89565b506040805180820182526001600160a01b03848116808352848216602080850182815260008a8152600483528790209551865490861673ffffffffffffffffffffffffffffffffffffffff199182161787559051600190960180549690951695169490941790925592519283529185917f09436bc9a76164325311f392b1018e238b1d0a54bbd9e5b3bbf0b037eda6b500910160405180910390a3505050565b600e54600160d01b900465ffffffffffff16801561222a574265ffffffffffff8216101561220057600e54600d805479ffffffffffffffffffffffffffffffffffffffffffffffffffff16600160a01b90920465ffffffffffff16600160d01b0291909117905561222a565b6040517f2b1fa2edafe6f7b9e97c1a9e0c3660e645beb2dcaa2d45bdbf9beaf5472e1ec590600090a15b50600e80546001600160a01b0316600160a01b65ffffffffffff9485160279ffffffffffffffffffffffffffffffffffffffffffffffffffff1617600160d01b9290931691909102919091179055565b60006122bf82600081604001516001600160801b03166080836020015167ffffffffffffffff16901b60c0846000015167ffffffffffffffff16901b17179050919050565b61230284600081604001516001600160801b03166080836020015167ffffffffffffffff16901b60c0846000015167ffffffffffffffff16901b17179050919050565b149392505050565b600082612375576000612325600e546001600160a01b031690565b6001600160a01b03161461234c57604051631fe1e13d60e11b815260040160405180910390fd5b600e805473ffffffffffffffffffffffffffffffffffffffff19166001600160a01b0384161790555b6109258383612f95565b60008215801561239c5750600e546001600160a01b038381169116145b156123bf57600e805473ffffffffffffffffffffffffffffffffffffffff191690555b6109258383613043565b606060006123d6836130ca565b600101905060008167ffffffffffffffff8111156123f6576123f66133c4565b6040519080825280601f01601f191660200182016040528015612420576020820181803683370190505b5090508181016020015b600019017f3031323334353637383961626364656600000000000000000000000000000000600a86061a8153600a850494508461242a57509392505050565b600061092583836131ac565b600065ffffffffffff8211156124c1576040517f6dfcc65000000000000000000000000000000000000000000000000000000000815260306004820152602481018390526044016109f9565b5090565b600d8054600160a01b65ffffffffffff84811682027fffffffffffff000000000000000000000000000000000000000000000000000084166001600160a01b03881617179093559004168015610858576040517f8886ebfc4259abdbc16601dd8fb5678e54878f47b3c34836cfc51154a960510990600090a1505050565b60008061254e611059565b90508065ffffffffffff168365ffffffffffff1611612576576125718382613bcb565b610925565b61092565ffffffffffff8416620697806132a6565b606060008061259a818661176a565b6125ba5760405163f737a13760e01b8152600481018690526024016109f9565b60008581526004602090815260408083208151808301835281546001600160a01b039081168252600192830154168185015289855260058452828520835160a081018552815467ffffffffffffffff808216968301968752680100000000000000008204166060830152600160801b90046001600160801b031660808201529384529182015490949383019060ff16600781111561265a5761265a613854565b600781111561266b5761266b613854565b90525060208301519091506001600160a01b0316157f4ecbe871000000000000000000000000000000000000000000000000000000006000826126bd57604051806020016040528060008152506126bf565b885b6007805491925060009190826126d483613bea565b9091555050600754855161272190600081604001516001600160801b03166080836020015167ffffffffffffffff16901b60c0846000015167ffffffffffffffff16901b17179050919050565b6000036128615786516040517f9ca33c9e0000000000000000000000000000000000000000000000000000000081529092506001600160a01b03831690639ca33c9e90612772908690600401613606565b6000604051808303816000875af1158015612791573d6000803e3d6000fd5b505050506040513d6000823e601f3d908101601f191682016040526127b99190810190613c04565b6040805160608082018352600080835260208084018290529284018190528351918201845280825281830181815282850182815260075483526006909452939020905181549351925167ffffffffffffffff9182166fffffffffffffffffffffffffffffffff1990951694909417680100000000000000009190931602919091176001600160801b03908116600160801b9190931602919091179055919b5099509750612b73565b86516040517f28bba5e10000000000000000000000000000000000000000000000000000000081526000906001600160a01b038316906328bba5e1906128ab908b90600401613ab6565b600060405180830381865afa1580156128c8573d6000803e3d6000fd5b505050506040513d6000823e601f3d908101601f191682016040526128f09190810190613ce9565b60208101516040517f8eaa6ac0000000000000000000000000000000000000000000000000000000008152600481019190915290915073c0d31d398c5ee86c5f8a23fa253ee8a586da03ce908190638eaa6ac090602401602060405180830381865afa158015612964573d6000803e3d6000fd5b505050506040513d601f19601f820116820180604052508101906129889190613a32565b94506001600160a01b0385166129b957816020015160405163f737a13760e01b81526004016109f991815260200190565b6040517f9ca33c9e0000000000000000000000000000000000000000000000000000000081526001600160a01b03861690639ca33c9e906129fe908990600401613606565b6000604051808303816000875af1158015612a1d573d6000803e3d6000fd5b505050506040513d6000823e601f3d908101601f19168201604052612a459190810190613c04565b905050809d5050826001600160a01b03166386019a3f6040518163ffffffff1660e01b8152600401602060405180830381865afa158015612a8a573d6000803e3d6000fd5b505050506040513d601f19601f82011682018060405250810190612aae9190613db6565b9b50612af78260000151600081604001516001600160801b03166080836020015167ffffffffffffffff16901b60c0846000015167ffffffffffffffff16901b17179050919050565b9151600754600090815260066020908152604091829020835181549285015193909401516001600160801b03908116600160801b0267ffffffffffffffff94851668010000000000000000026fffffffffffffffffffffffffffffffff1990941694909516939093179190911791909116919091179055509850505b8415612cd65760008088602001516001600160a01b0316868d8f604051602401612b9e929190613dcf565b60408051601f198184030181529181526020820180517bffffffffffffffffffffffffffffffffffffffffffffffffffffffff166001600160e01b0319909416939093179092529051612bf19190613df4565b600060405180830381855af49150503d8060008114612c2c576040519150601f19603f3d011682016040523d82523d6000602084013e612c31565b606091505b509150915081612cd357805115612c4b5780518082602001fd5b6040517f08c379a000000000000000000000000000000000000000000000000000000000815260206004820152603560248201527f696e697469616c697a65722064656c656761746563616c6c206661696c65642060448201527f776974686f75742072657665727420726561736f6e000000000000000000000060648201526084016109f9565b50505b895160005b81811015612d4f5782600260008e8481518110612cfa57612cfa613e10565b60200260200101516001600160a01b03166001600160a01b03168152602001908152602001600020819055508d600360008581526020019081526020016000208190555080612d4890613bea565b9050612cdb565b505087818d7fb1a4a6f5e0cc926c0f33c83ca6e5187edc8d9719645709413ffb187e49483eeb8d8f604051612d85929190613dcf565b60405180910390a4505050505050509250925092565b60008073c0d31d398c5ee86c5f8a23fa253ee8a586da03ce6040517f8eaa6ac0000000000000000000000000000000000000000000000000000000008152600481018690529091506000906001600160a01b03831690638eaa6ac090602401602060405180830381865afa158015612e17573d6000803e3d6000fd5b505050506040513d601f19601f82011682018060405250810190612e3b9190613a32565b90506001600160a01b038116612e675760405163f737a13760e01b8152600481018690526024016109f9565b8484604051602001612e8c9291909182526001600160a01b0316602082015260400190565b604051602081830303815290604052805190602001209250612eaf8382866120a4565b505092915050565b6000612eca826301ffc9a760e01b612eea565b80156107b45750612ee3826001600160e01b0319612eea565b1592915050565b6040516001600160e01b031982166024820152600090819060440160408051601f19818403018152919052602080820180517bffffffffffffffffffffffffffffffffffffffffffffffffffffffff166301ffc9a760e01b178152825192935060009283928392909183918a617530fa92503d91506000519050828015612f72575060208210155b8015612f7e5750600081115b979650505050505050565b600061092583836132bc565b6000828152600c602090815260408083206001600160a01b038516845290915281205460ff1661303b576000838152600c602090815260408083206001600160a01b03861684529091529020805460ff19166001179055612ff33390565b6001600160a01b0316826001600160a01b0316847f2f8788117e7eff1d82e926ec794901d17c78024a50270940304540a733656f0d60405160405180910390a45060016107b4565b5060006107b4565b6000828152600c602090815260408083206001600160a01b038516845290915281205460ff161561303b576000838152600c602090815260408083206001600160a01b0386168085529252808320805460ff1916905551339286917ff6391f5c32d9c69d2a47ea670b442974b53935d1edc7fd64eb21e047a839171b9190a45060016107b4565b6000807a184f03e93ff9f4daa797ed6e38ed64bf6a1f0100000000000000008310613113577a184f03e93ff9f4daa797ed6e38ed64bf6a1f010000000000000000830492506040015b6d04ee2d6d415b85acef8100000000831061313f576d04ee2d6d415b85acef8100000000830492506020015b662386f26fc10000831061315d57662386f26fc10000830492506010015b6305f5e1008310613175576305f5e100830492506008015b612710831061318957612710830492506004015b6064831061319b576064830492506002015b600a83106107b45760010192915050565b600081815260018301602052604081205480156132955760006131d0600183613e26565b85549091506000906131e490600190613e26565b905080821461324957600086600001828154811061320457613204613e10565b906000526020600020015490508087600001848154811061322757613227613e10565b6000918252602080832090910192909255918252600188019052604090208390555b855486908061325a5761325a613e39565b6001900381819060005260206000200160009055905585600101600086815260200190815260200160002060009055600193505050506107b4565b60009150506107b4565b5092915050565b60008183106132b55781610925565b5090919050565b600081815260018301602052604081205461303b575081546001818101845560008481526020808220909301849055845484825282860190935260409020919091556107b4565b80356001600160e01b03198116811461331b57600080fd5b919050565b60006020828403121561333257600080fd5b61092582613303565b6020808252825182820181905260009190848201906040850190845b8181101561337357835183529284019291840191600101613357565b50909695505050505050565b6001600160a01b038116811461084057600080fd5b600080604083850312156133a757600080fd5b8235915060208301356133b98161337f565b809150509250929050565b634e487b7160e01b600052604160045260246000fd5b6040516060810167ffffffffffffffff811182821017156133fd576133fd6133c4565b60405290565b604051601f8201601f1916810167ffffffffffffffff8111828210171561342c5761342c6133c4565b604052919050565b67ffffffffffffffff8116811461084057600080fd5b6001600160801b038116811461084057600080fd5b6000818303608081121561347257600080fd5b6040516040810181811067ffffffffffffffff82111715613495576134956133c4565b60405291508160608212156134a957600080fd5b6134b16133da565b915083356134be81613434565b825260208401356134ce81613434565b602083015260408401356134e18161344a565b6040830152908152606083013590600882106134fc57600080fd5b6020015292915050565b600080600060c0848603121561351b57600080fd5b83356135268161337f565b925060208401356135368161337f565b9150613545856040860161345f565b90509250925092565b60008060a0838503121561356157600080fd5b82359150613572846020850161345f565b90509250929050565b6000806040838503121561358e57600080fd5b50508035926020909101359150565b6000602082840312156135af57600080fd5b5035919050565b60005b838110156135d15781810151838201526020016135b9565b50506000910152565b600081518084526135f28160208601602086016135b6565b601f01601f19169290920160200192915050565b60208152600061092560208301846135da565b600067ffffffffffffffff821115613633576136336133c4565b50601f01601f191660200190565b600082601f83011261365257600080fd5b813561366561366082613619565b613403565b81815284602083860101111561367a57600080fd5b816020850160208301376000918101602001919091529392505050565b600080600080600060a086880312156136af57600080fd5b853567ffffffffffffffff808211156136c757600080fd5b6136d389838a01613641565b96506136e160208901613303565b9550604088013591506136f38261337f565b909350606087013592506080870135908082111561371057600080fd5b5061371d88828901613641565b9150509295509295909350565b60006020828403121561373c57600080fd5b81356109258161337f565b60006020828403121561375957600080fd5b813565ffffffffffff8116811461092557600080fd5b60008060006040848603121561378457600080fd5b83359250602084013567ffffffffffffffff808211156137a357600080fd5b818601915086601f8301126137b757600080fd5b8135818111156137c657600080fd5b8760208285010111156137d857600080fd5b6020830194508093505050509250925092565b600081518084526020808501945080840160005b838110156138245781516001600160a01b0316875295820195908201906001016137ff565b509495945050505050565b60608152600061384260608301866137eb565b60208301949094525060400152919050565b634e487b7160e01b600052602160045260246000fd5b6008811061388857634e487b7160e01b600052602160045260246000fd5b9052565b825167ffffffffffffffff9081168252602080850151909116908201526040808401516001600160801b03169082015260808101610925606083018461386a565b60008060008060008060c087890312156138e657600080fd5b863567ffffffffffffffff808211156138fe57600080fd5b61390a8a838b01613641565b975061391860208a01613303565b96506040890135915061392a8261337f565b909450606088013593506080880135908082111561394757600080fd5b6139538a838b01613641565b935060a089013591508082111561396957600080fd5b5061397689828a01613641565b9150509295509295509295565b6000806040838503121561399657600080fd5b82356139a18161337f565b915060208301356133b98161337f565b60006139bf61366084613619565b90508281528383830111156139d357600080fd5b6109258360208301846135b6565b6000602082840312156139f357600080fd5b815167ffffffffffffffff811115613a0a57600080fd5b8201601f81018413613a1b57600080fd5b613a2a848251602084016139b1565b949350505050565b600060208284031215613a4457600080fd5b81516109258161337f565b828152604060208201526000613a2a60408301846135da565b6000825167ffffffffffffffff808251168452806020830151166020850152506001600160801b03604082015116604084015250613aad60608301602085015161386a565b50608001919050565b8151805167ffffffffffffffff9081168352602080830151909116908301526040908101516001600160801b03169082015260808101602083015161329f606084018261386a565b60008451613b108184602089016135b6565b80830190507f2e000000000000000000000000000000000000000000000000000000000000008082528551613b4c816001850160208a016135b6565b60019201918201528351613b678160028401602088016135b6565b0160020195945050505050565b634e487b7160e01b600052601160045260246000fd5b65ffffffffffff81811683821601908082111561329f5761329f613b74565b600060208284031215613bbb57600080fd5b8151801515811461092557600080fd5b65ffffffffffff82811682821603908082111561329f5761329f613b74565b60006000198203613bfd57613bfd613b74565b5060010190565b600080600060608486031215613c1957600080fd5b835167ffffffffffffffff80821115613c3157600080fd5b818601915086601f830112613c4557600080fd5b8151602082821115613c5957613c596133c4565b8160051b9250613c6a818401613403565b828152928401810192818101908a851115613c8457600080fd5b948201945b84861015613cae5785519350613c9e8461337f565b8382529482019490820190613c89565b91890151604090990151919a98995090979650505050505050565b600082601f830112613cda57600080fd5b610925838351602085016139b1565b600060208284031215613cfb57600080fd5b815167ffffffffffffffff80821115613d1357600080fd5b9083019081850360a0811215613d2857600080fd5b613d306133da565b6060821215613d3e57600080fd5b613d466133da565b91508351613d5381613434565b82526020840151613d6381613434565b60208301526040840151613d768161344a565b60408301529081526060830151602082015260808301519082821115613d9b57600080fd5b613da787838601613cc9565b60408201529695505050505050565b600060208284031215613dc857600080fd5b5051919050565b604081526000613de260408301856137eb565b8281036020840152610cd581856135da565b60008251613e068184602087016135b6565b9190910192915050565b634e487b7160e01b600052603260045260246000fd5b818103818111156107b4576107b4613b74565b634e487b7160e01b600052603160045260246000fdfea2646970667358221220ecc8c74864e6199d110ecf9f87b31cf0a06719d8c5f8533f79e14f3fb49da31964736f6c63430008140033",
  "devdoc": {
    "author": "Peeramid Labs, 2024",
    "errors": {
      "AccessControlBadConfirmation()": [
        {
          "details": "The caller of a function is not the expected one. NOTE: Don't confuse with {AccessControlUnauthorizedAccount}."
        }
      ],
      "AccessControlEnforcedDefaultAdminDelay(uint48)": [
        {
          "details": "The delay for transferring the default admin delay is enforced and the operation must wait until `schedule`. NOTE: `schedule` can be 0 indicating there's no transfer scheduled."
        }
      ],
      "AccessControlEnforcedDefaultAdminRules()": [
        {
          "details": "At least one of the following rules was violated: - The `DEFAULT_ADMIN_ROLE` must only be managed by itself. - The `DEFAULT_ADMIN_ROLE` must only be held by one account at the time. - Any `DEFAULT_ADMIN_ROLE` transfer must be in two delayed steps."
        }
      ],
      "AccessControlInvalidDefaultAdmin(address)": [
        {
          "details": "The new default admin is not a valid default admin."
        }
      ],
      "AccessControlUnauthorizedAccount(address,bytes32)": [
        {
          "details": "The `account` is missing a role."
        }
      ],
      "DistributionExists(bytes32)": [
        {
          "params": {
            "id": "The unique identifier of the distribution that already exists."
          }
        }
      ],
      "DistributionNotFound(bytes32)": [
        {
          "params": {
            "id": "The unique identifier of the distribution that was not found."
          }
        }
      ],
      "InitializerNotFound(bytes32)": [
        {
          "params": {
            "id": "The unique identifier of the distribution that was not found."
          }
        }
      ],
      "SafeCastOverflowedUintDowncast(uint8,uint256)": [
        {
          "details": "Value doesn't fit in an uint of `bits` size."
        }
      ]
    },
    "events": {
      "DefaultAdminDelayChangeCanceled()": {
        "details": "Emitted when a {pendingDefaultAdminDelay} is reset if its schedule didn't pass."
      },
      "DefaultAdminDelayChangeScheduled(uint48,uint48)": {
        "details": "Emitted when a {defaultAdminDelay} change is started, setting `newDelay` as the next delay to be applied between default admin transfer after `effectSchedule` has passed."
      },
      "DefaultAdminTransferCanceled()": {
        "details": "Emitted when a {pendingDefaultAdmin} is reset if it was never accepted, regardless of its schedule."
      },
      "DefaultAdminTransferScheduled(address,uint48)": {
        "details": "Emitted when a {defaultAdmin} transfer is started, setting `newAdmin` as the next address to become the {defaultAdmin} by calling {acceptDefaultAdminTransfer} only after `acceptSchedule` passes."
      },
      "DistributionAdded(bytes32,address,address)": {
        "details": "It MUST emit when {IDistributor.addDistribution} is called.",
        "params": {
          "distribution": "The address of the distribution that was added.",
          "id": "The unique identifier of the distribution that was added.",
          "initializer": "The address of the initializer for the distribution."
        }
      },
      "DistributionRemoved(bytes32)": {
        "details": "It MUST emit when {IDistributor.removeDistribution} is called.",
        "params": {
          "id": "The unique identifier of the distribution that was removed."
        }
      },
      "Instantiated(bytes32,uint256,uint256,address[],bytes)": {
        "details": "It MUST emit when {IDistributor.instantiate} is called.",
        "params": {
          "args": "The arguments that were used for instantiation.",
          "distributionId": "The unique identifier of the distribution.",
          "instances": "The addresses of the instances that were created.",
          "newInstanceId": "The unique identifier of the instance.",
          "version": "The version of the distribution, taken either from IDistribution or from IRepository."
        }
      },
      "RoleAdminChanged(bytes32,bytes32,bytes32)": {
        "details": "Emitted when `newAdminRole` is set as ``role``'s admin role, replacing `previousAdminRole` `DEFAULT_ADMIN_ROLE` is the starting admin for all roles, despite {RoleAdminChanged} not being emitted signaling this."
      },
      "RoleGranted(bytes32,address,address)": {
        "details": "Emitted when `account` is granted `role`. `sender` is the account that originated the contract call, an admin role bearer except when using {AccessControl-_setupRole}."
      },
      "RoleRevoked(bytes32,address,address)": {
        "details": "Emitted when `account` is revoked `role`. `sender` is the account that originated the contract call:   - if using `revokeRole`, it is the admin role bearer   - if using `renounceRole`, it is the role bearer (i.e. `account`)"
      },
      "VersionChanged(bytes32,((uint64,uint64,uint128),uint8),((uint64,uint64,uint128),uint8))": {
        "params": {
          "distributionId": "The unique identifier of the distribution.",
          "newRequirement": "The new version requirement (hashed for indexing).",
          "newRequirementData": "The new version requirement data."
        }
      }
    },
    "kind": "dev",
    "methods": {
      "acceptDefaultAdminTransfer()": {
        "details": "Completes a {defaultAdmin} transfer previously started with {beginDefaultAdminTransfer}. After calling the function: - `DEFAULT_ADMIN_ROLE` should be granted to the caller. - `DEFAULT_ADMIN_ROLE` should be revoked from the previous holder. - {pendingDefaultAdmin} should be reset to zero values. Requirements: - Only can be called by the {pendingDefaultAdmin}'s `newAdmin`. - The {pendingDefaultAdmin}'s `acceptSchedule` should've passed."
      },
      "addDistribution(address,address,((uint64,uint64,uint128),uint8))": {
        "details": "WARNING: If initializer is provided, it will DELEGATECALL to the initializer. Otherwise, instantiation arguments will be passed to the distribution for self-initialization. Initializer contract MUST be trusted by the distributor.",
        "params": {
          "initializer": "The address that initializes the distribution.",
          "repository": "The repository to which the distribution will be added.",
          "requirement": "The version requirements for the distribution."
        }
      },
      "addDistribution(bytes32,address)": {
        "details": "This function can only be called by an account with the `DEFAULT_ADMIN_ROLE`.",
        "params": {
          "id": "The unique identifier for the distribution.",
          "initializer": "The address that initializes the distribution."
        }
      },
      "afterCall(bytes,bytes4,address,uint256,bytes,bytes)": {
        "details": "it will revert if: (1) `msg.sender` is not a valid instance; (2) `maybeInstance` is not a valid instance (3) `instanceId` belongs to disactivated distribution",
        "params": {
          "beforeCallResult": "The data returned by `beforeCallValidation`.",
          "configuration": "Middleware-specific configuration data.",
          "data": "The calldata for the function call.",
          "selector": "The function selector being called.",
          "sender": "The address initiating the call.",
          "value": "The amount of ETH sent with the call (if any)."
        }
      },
      "beforeCall(bytes,bytes4,address,uint256,bytes)": {
        "details": "it will revert if: (1) `msg.sender` is not a valid instance; (2) `maybeInstance` is not a valid instance (3) `instanceId` belongs to disactivated distribution",
        "params": {
          "configuration": "Middleware-specific configuration data.",
          "data": "The calldata for the function call.",
          "selector": "The function selector being called.",
          "sender": "The address initiating the call.",
          "value": "The amount of ETH sent with the call (if any)."
        },
        "returns": {
          "_0": "beforeCallResult Arbitrary data to be passed to `afterCallValidation`."
        }
      },
      "beginDefaultAdminTransfer(address)": {
        "details": "Starts a {defaultAdmin} transfer by setting a {pendingDefaultAdmin} scheduled for acceptance after the current timestamp plus a {defaultAdminDelay}. Requirements: - Only can be called by the current {defaultAdmin}. Emits a DefaultAdminRoleChangeStarted event."
      },
      "cancelDefaultAdminTransfer()": {
        "details": "Cancels a {defaultAdmin} transfer previously started with {beginDefaultAdminTransfer}. A {pendingDefaultAdmin} not yet accepted can also be cancelled with this function. Requirements: - Only can be called by the current {defaultAdmin}. May emit a DefaultAdminTransferCanceled event."
      },
      "changeDefaultAdminDelay(uint48)": {
        "details": "Initiates a {defaultAdminDelay} update by setting a {pendingDefaultAdminDelay} scheduled for getting into effect after the current timestamp plus a {defaultAdminDelay}. This function guarantees that any call to {beginDefaultAdminTransfer} done between the timestamp this method is called and the {pendingDefaultAdminDelay} effect schedule will use the current {defaultAdminDelay} set before calling. The {pendingDefaultAdminDelay}'s effect schedule is defined in a way that waiting until the schedule and then calling {beginDefaultAdminTransfer} with the new delay will take at least the same as another {defaultAdmin} complete transfer (including acceptance). The schedule is designed for two scenarios: - When the delay is changed for a larger one the schedule is `block.timestamp + newDelay` capped by {defaultAdminDelayIncreaseWait}. - When the delay is changed for a shorter one, the schedule is `block.timestamp + (current delay - new delay)`. A {pendingDefaultAdminDelay} that never got into effect will be canceled in favor of a new scheduled change. Requirements: - Only can be called by the current {defaultAdmin}. Emits a DefaultAdminDelayChangeScheduled event and may emit a DefaultAdminDelayChangeCanceled event."
      },
      "changeVersion(bytes32,((uint64,uint64,uint128),uint8))": {
        "params": {
          "distributionId": "The unique identifier of the distribution whose version requirement is to be changed.",
          "newRequirement": "The new version requirement to be set for the distribution."
        }
      },
      "defaultAdmin()": {
        "details": "Returns the address of the current `DEFAULT_ADMIN_ROLE` holder."
      },
      "defaultAdminDelay()": {
        "details": "Returns the delay required to schedule the acceptance of a {defaultAdmin} transfer started. This delay will be added to the current timestamp when calling {beginDefaultAdminTransfer} to set the acceptance schedule. NOTE: If a delay change has been scheduled, it will take effect as soon as the schedule passes, making this function returns the new delay. See {changeDefaultAdminDelay}."
      },
      "defaultAdminDelayIncreaseWait()": {
        "details": "Maximum time in seconds for an increase to {defaultAdminDelay} (that is scheduled using {changeDefaultAdminDelay}) to take effect. Default to 5 days. When the {defaultAdminDelay} is scheduled to be increased, it goes into effect after the new delay has passed with the purpose of giving enough time for reverting any accidental change (i.e. using milliseconds instead of seconds) that may lock the contract. However, to avoid excessive schedules, the wait is capped by this function and it can be overrode for a custom {defaultAdminDelay} increase scheduling. IMPORTANT: Make sure to add a reasonable amount of time while overriding this value, otherwise, there's a risk of setting a high new delay that goes into effect almost immediately without the possibility of human intervention in the case of an input error (eg. set milliseconds instead of seconds)."
      },
      "getDistributionId(address)": {
        "params": {
          "instance": "The address of the instance for which the distribution ID is being requested."
        },
        "returns": {
          "_0": "The distribution ID as a bytes32 value."
        }
      },
      "getDistributions()": {
        "returns": {
          "_0": "An array of unique identifiers of all distributions."
        }
      },
      "getInstanceId(address)": {
        "params": {
          "instance": "The address of the instance whose ID is to be retrieved."
        },
        "returns": {
          "_0": "The unique identifier (uint256) associated with the specified instance address."
        }
      },
      "getRoleAdmin(bytes32)": {
        "details": "Returns the admin role that controls `role`. See {grantRole} and {revokeRole}. To change a role's admin, use {_setRoleAdmin}."
      },
      "grantRole(bytes32,address)": {
        "details": "See {AccessControl-grantRole}. Reverts for `DEFAULT_ADMIN_ROLE`."
      },
      "hasRole(bytes32,address)": {
        "details": "Returns `true` if `account` has been granted `role`."
      },
      "instantiate(bytes32,bytes)": {
        "params": {
          "args": "The calldata arguments required for the instantiation process.",
          "id": "The unique identifier for the contract to be instantiated."
        },
        "returns": {
          "name": "The name of the instantiated distribution.",
          "srcs": "An array of instantiated infrastructure",
          "version": "The version number of the instantiated distribution."
        }
      },
      "owner()": {
        "details": "See {IERC5313-owner}."
      },
      "pendingDefaultAdmin()": {
        "details": "Returns a tuple of a `newAdmin` and an accept schedule. After the `schedule` passes, the `newAdmin` will be able to accept the {defaultAdmin} role by calling {acceptDefaultAdminTransfer}, completing the role transfer. A zero value only in `acceptSchedule` indicates no pending admin transfer. NOTE: A zero address `newAdmin` means that {defaultAdmin} is being renounced."
      },
      "pendingDefaultAdminDelay()": {
        "details": "Returns a tuple of `newDelay` and an effect schedule. After the `schedule` passes, the `newDelay` will get into effect immediately for every new {defaultAdmin} transfer started with {beginDefaultAdminTransfer}. A zero value only in `effectSchedule` indicates no pending delay change. NOTE: A zero value only for `newDelay` means that the next {defaultAdminDelay} will be zero after the effect schedule."
      },
      "removeDistribution(bytes32)": {
        "details": "This function can only be called by an account with the `DEFAULT_ADMIN_ROLE`.",
        "params": {
          "id": "The unique identifier of the distribution entry to be removed."
        }
      },
      "renounceRole(bytes32,address)": {
        "details": "See {AccessControl-renounceRole}. For the `DEFAULT_ADMIN_ROLE`, it only allows renouncing in two steps by first calling {beginDefaultAdminTransfer} to the `address(0)`, so it's required that the {pendingDefaultAdmin} schedule has also passed when calling this function. After its execution, it will not be possible to call `onlyRole(DEFAULT_ADMIN_ROLE)` functions. NOTE: Renouncing `DEFAULT_ADMIN_ROLE` will leave the contract without a {defaultAdmin}, thereby disabling any functionality that is only available for it, and the possibility of reassigning a non-administrated role."
      },
      "revokeRole(bytes32,address)": {
        "details": "See {AccessControl-revokeRole}. Reverts for `DEFAULT_ADMIN_ROLE`."
      },
      "rollbackDefaultAdminDelay()": {
        "details": "Cancels a scheduled {defaultAdminDelay} change. Requirements: - Only can be called by the current {defaultAdmin}. May emit a DefaultAdminDelayChangeCanceled event."
      },
      "setInstantiationCost(bytes32,uint256)": {
        "params": {
          "cost": "cost of instantiation",
          "id": "distributors id"
        }
      },
      "supportsInterface(bytes4)": {
        "params": {
          "interfaceId": "The interface identifier, as specified in ERC-165."
        },
        "returns": {
          "_0": "`true` if the contract implements `interfaceId` and `interfaceId` is not 0xffffffff, `false` otherwise."
        }
      }
    },
    "title": "DAODistributor",
    "version": 1
  },
  "userdoc": {
    "errors": {
      "DistributionExists(bytes32)": [
        {
          "notice": "Error indicating that a distribution with the specified ID already exists."
        }
      ],
      "DistributionNotFound(bytes32)": [
        {
          "notice": "Error indicating that the distribution with the specified ID was not found."
        }
      ],
      "InitializerNotFound(bytes32)": [
        {
          "notice": "Error indicating that the initializer for the distribution was not found."
        }
      ]
    },
    "events": {
      "DistributionAdded(bytes32,address,address)": {
        "notice": "Event emitted when a distribution is added."
      },
      "DistributionRemoved(bytes32)": {
        "notice": "Event emitted when a distribution is removed."
      },
      "Instantiated(bytes32,uint256,uint256,address[],bytes)": {
        "notice": "Event emitted when a new distribution is instantiated."
      },
      "VersionChanged(bytes32,((uint64,uint64,uint128),uint8),((uint64,uint64,uint128),uint8))": {
        "notice": "Emitted when the version of the distributor is changed."
      }
    },
    "kind": "user",
    "methods": {
      "addDistribution(address,address,((uint64,uint64,uint128),uint8))": {
        "notice": "Adds a new versioned distribution to the repository."
      },
      "addDistribution(bytes32,address)": {
        "notice": "Adds a new distribution with the given identifier and initializer address."
      },
      "afterCall(bytes,bytes4,address,uint256,bytes,bytes)": {
        "notice": "This is ERC7746 hook must be called by instance methods that access scope is limited to the same instance or distribution"
      },
      "beforeCall(bytes,bytes4,address,uint256,bytes)": {
        "notice": "This is ERC7746 hook must be called by instance methods that access scope is limited to the same instance or distribution"
      },
      "changeVersion(bytes32,((uint64,uint64,uint128),uint8))": {
        "notice": "Changes the version requirement for a specific distribution."
      },
      "getDistributionId(address)": {
        "notice": "Retrieves the distribution ID associated with a given instance address."
      },
      "getDistributions()": {
        "notice": "Retrieves the unique identifiers of all distributions."
      },
      "getInstanceId(address)": {
        "notice": "Retrieves the unique identifier for a given instance address."
      },
      "instantiate(bytes32,bytes)": {
        "notice": "Instantiates a new contract with the given identifier and arguments."
      },
      "removeDistribution(bytes32)": {
        "notice": "Removes a distribution entry identified by the given ID."
      },
      "setInstantiationCost(bytes32,uint256)": {
        "notice": "Sets instantiation cost on a specific instantiation id"
      },
      "supportsInterface(bytes4)": {
        "notice": "This function checks if the contract implements the interface defined by ERC165"
      }
    },
    "notice": "This contract is a distributor for Peeramid Labs. It is designed to handle the distribution logic specific to Peeramid Labs. The contract leverages access control mechanisms to ensure that only authorized users can perform certain actions.",
    "version": 1
  },
  "storageLayout": {
    "storage": [
      {
        "astId": 5425,
        "contract": "src/distributors/DAODistributor.sol:DAODistributor",
        "label": "distributionsSet",
        "offset": 0,
        "slot": "0",
        "type": "t_struct(Bytes32Set)4917_storage"
      },
      {
        "astId": 5429,
        "contract": "src/distributors/DAODistributor.sol:DAODistributor",
        "label": "instanceIds",
        "offset": 0,
        "slot": "2",
        "type": "t_mapping(t_address,t_uint256)"
      },
      {
        "astId": 5433,
        "contract": "src/distributors/DAODistributor.sol:DAODistributor",
        "label": "distributionOf",
        "offset": 0,
        "slot": "3",
        "type": "t_mapping(t_uint256,t_bytes32)"
      },
      {
        "astId": 5438,
        "contract": "src/distributors/DAODistributor.sol:DAODistributor",
        "label": "distributionComponents",
        "offset": 0,
        "slot": "4",
        "type": "t_mapping(t_bytes32,t_struct(DistributionComponent)5414_storage)"
      },
      {
        "astId": 5443,
        "contract": "src/distributors/DAODistributor.sol:DAODistributor",
        "label": "versionRequirements",
        "offset": 0,
        "slot": "5",
        "type": "t_mapping(t_bytes32,t_struct(VersionRequirement)6860_storage)"
      },
      {
        "astId": 5448,
        "contract": "src/distributors/DAODistributor.sol:DAODistributor",
        "label": "instanceVersions",
        "offset": 0,
        "slot": "6",
        "type": "t_mapping(t_uint256,t_struct(Version)6844_storage)"
      },
      {
        "astId": 5450,
        "contract": "src/distributors/DAODistributor.sol:DAODistributor",
        "label": "numInstances",
        "offset": 0,
        "slot": "7",
        "type": "t_uint256"
      },
      {
        "astId": 6323,
        "contract": "src/distributors/DAODistributor.sol:DAODistributor",
        "label": "paymentToken",
        "offset": 0,
        "slot": "8",
        "type": "t_contract(IERC20)1282"
      },
      {
        "astId": 6325,
        "contract": "src/distributors/DAODistributor.sol:DAODistributor",
        "label": "_beneficiary",
        "offset": 0,
        "slot": "9",
        "type": "t_address"
      },
      {
        "astId": 6329,
        "contract": "src/distributors/DAODistributor.sol:DAODistributor",
        "label": "instantiationCosts",
        "offset": 0,
        "slot": "10",
        "type": "t_mapping(t_bytes32,t_uint256)"
      },
      {
        "astId": 6331,
        "contract": "src/distributors/DAODistributor.sol:DAODistributor",
        "label": "defaultInstantiationCost",
        "offset": 0,
        "slot": "11",
        "type": "t_uint256"
      },
      {
        "astId": 26,
        "contract": "src/distributors/DAODistributor.sol:DAODistributor",
        "label": "_roles",
        "offset": 0,
        "slot": "12",
        "type": "t_mapping(t_bytes32,t_struct(RoleData)21_storage)"
      },
      {
        "astId": 400,
        "contract": "src/distributors/DAODistributor.sol:DAODistributor",
        "label": "_pendingDefaultAdmin",
        "offset": 0,
        "slot": "13",
        "type": "t_address"
      },
      {
        "astId": 402,
        "contract": "src/distributors/DAODistributor.sol:DAODistributor",
        "label": "_pendingDefaultAdminSchedule",
        "offset": 20,
        "slot": "13",
        "type": "t_uint48"
      },
      {
        "astId": 404,
        "contract": "src/distributors/DAODistributor.sol:DAODistributor",
        "label": "_currentDelay",
        "offset": 26,
        "slot": "13",
        "type": "t_uint48"
      },
      {
        "astId": 406,
        "contract": "src/distributors/DAODistributor.sol:DAODistributor",
        "label": "_currentDefaultAdmin",
        "offset": 0,
        "slot": "14",
        "type": "t_address"
      },
      {
        "astId": 408,
        "contract": "src/distributors/DAODistributor.sol:DAODistributor",
        "label": "_pendingDelay",
        "offset": 20,
        "slot": "14",
        "type": "t_uint48"
      },
      {
        "astId": 410,
        "contract": "src/distributors/DAODistributor.sol:DAODistributor",
        "label": "_pendingDelaySchedule",
        "offset": 26,
        "slot": "14",
        "type": "t_uint48"
      }
    ],
    "types": {
      "t_address": {
        "encoding": "inplace",
        "label": "address",
        "numberOfBytes": "20"
      },
      "t_array(t_bytes32)dyn_storage": {
        "base": "t_bytes32",
        "encoding": "dynamic_array",
        "label": "bytes32[]",
        "numberOfBytes": "32"
      },
      "t_bool": {
        "encoding": "inplace",
        "label": "bool",
        "numberOfBytes": "1"
      },
      "t_bytes32": {
        "encoding": "inplace",
        "label": "bytes32",
        "numberOfBytes": "32"
      },
      "t_contract(IERC20)1282": {
        "encoding": "inplace",
        "label": "contract IERC20",
        "numberOfBytes": "20"
      },
      "t_enum(requirements)6853": {
        "encoding": "inplace",
        "label": "enum LibSemver.requirements",
        "numberOfBytes": "1"
      },
      "t_mapping(t_address,t_bool)": {
        "encoding": "mapping",
        "key": "t_address",
        "label": "mapping(address => bool)",
        "numberOfBytes": "32",
        "value": "t_bool"
      },
      "t_mapping(t_address,t_uint256)": {
        "encoding": "mapping",
        "key": "t_address",
        "label": "mapping(address => uint256)",
        "numberOfBytes": "32",
        "value": "t_uint256"
      },
      "t_mapping(t_bytes32,t_struct(DistributionComponent)5414_storage)": {
        "encoding": "mapping",
        "key": "t_bytes32",
        "label": "mapping(bytes32 => struct Distributor.DistributionComponent)",
        "numberOfBytes": "32",
        "value": "t_struct(DistributionComponent)5414_storage"
      },
      "t_mapping(t_bytes32,t_struct(RoleData)21_storage)": {
        "encoding": "mapping",
        "key": "t_bytes32",
        "label": "mapping(bytes32 => struct AccessControl.RoleData)",
        "numberOfBytes": "32",
        "value": "t_struct(RoleData)21_storage"
      },
      "t_mapping(t_bytes32,t_struct(VersionRequirement)6860_storage)": {
        "encoding": "mapping",
        "key": "t_bytes32",
        "label": "mapping(bytes32 => struct LibSemver.VersionRequirement)",
        "numberOfBytes": "32",
        "value": "t_struct(VersionRequirement)6860_storage"
      },
      "t_mapping(t_bytes32,t_uint256)": {
        "encoding": "mapping",
        "key": "t_bytes32",
        "label": "mapping(bytes32 => uint256)",
        "numberOfBytes": "32",
        "value": "t_uint256"
      },
      "t_mapping(t_uint256,t_bytes32)": {
        "encoding": "mapping",
        "key": "t_uint256",
        "label": "mapping(uint256 => bytes32)",
        "numberOfBytes": "32",
        "value": "t_bytes32"
      },
      "t_mapping(t_uint256,t_struct(Version)6844_storage)": {
        "encoding": "mapping",
        "key": "t_uint256",
        "label": "mapping(uint256 => struct LibSemver.Version)",
        "numberOfBytes": "32",
        "value": "t_struct(Version)6844_storage"
      },
      "t_struct(Bytes32Set)4917_storage": {
        "encoding": "inplace",
        "label": "struct EnumerableSet.Bytes32Set",
        "members": [
          {
            "astId": 4916,
            "contract": "src/distributors/DAODistributor.sol:DAODistributor",
            "label": "_inner",
            "offset": 0,
            "slot": "0",
            "type": "t_struct(Set)4723_storage"
          }
        ],
        "numberOfBytes": "64"
      },
      "t_struct(DistributionComponent)5414_storage": {
        "encoding": "inplace",
        "label": "struct Distributor.DistributionComponent",
        "members": [
          {
            "astId": 5411,
            "contract": "src/distributors/DAODistributor.sol:DAODistributor",
            "label": "distributionLocation",
            "offset": 0,
            "slot": "0",
            "type": "t_address"
          },
          {
            "astId": 5413,
            "contract": "src/distributors/DAODistributor.sol:DAODistributor",
            "label": "initializer",
            "offset": 0,
            "slot": "1",
            "type": "t_address"
          }
        ],
        "numberOfBytes": "64"
      },
      "t_struct(RoleData)21_storage": {
        "encoding": "inplace",
        "label": "struct AccessControl.RoleData",
        "members": [
          {
            "astId": 18,
            "contract": "src/distributors/DAODistributor.sol:DAODistributor",
            "label": "hasRole",
            "offset": 0,
            "slot": "0",
            "type": "t_mapping(t_address,t_bool)"
          },
          {
            "astId": 20,
            "contract": "src/distributors/DAODistributor.sol:DAODistributor",
            "label": "adminRole",
            "offset": 0,
            "slot": "1",
            "type": "t_bytes32"
          }
        ],
        "numberOfBytes": "64"
      },
      "t_struct(Set)4723_storage": {
        "encoding": "inplace",
        "label": "struct EnumerableSet.Set",
        "members": [
          {
            "astId": 4718,
            "contract": "src/distributors/DAODistributor.sol:DAODistributor",
            "label": "_values",
            "offset": 0,
            "slot": "0",
            "type": "t_array(t_bytes32)dyn_storage"
          },
          {
            "astId": 4722,
            "contract": "src/distributors/DAODistributor.sol:DAODistributor",
            "label": "_positions",
            "offset": 0,
            "slot": "1",
            "type": "t_mapping(t_bytes32,t_uint256)"
          }
        ],
        "numberOfBytes": "64"
      },
      "t_struct(Version)6844_storage": {
        "encoding": "inplace",
        "label": "struct LibSemver.Version",
        "members": [
          {
            "astId": 6839,
            "contract": "src/distributors/DAODistributor.sol:DAODistributor",
            "label": "major",
            "offset": 0,
            "slot": "0",
            "type": "t_uint64"
          },
          {
            "astId": 6841,
            "contract": "src/distributors/DAODistributor.sol:DAODistributor",
            "label": "minor",
            "offset": 8,
            "slot": "0",
            "type": "t_uint64"
          },
          {
            "astId": 6843,
            "contract": "src/distributors/DAODistributor.sol:DAODistributor",
            "label": "patch",
            "offset": 16,
            "slot": "0",
            "type": "t_uint128"
          }
        ],
        "numberOfBytes": "32"
      },
      "t_struct(VersionRequirement)6860_storage": {
        "encoding": "inplace",
        "label": "struct LibSemver.VersionRequirement",
        "members": [
          {
            "astId": 6856,
            "contract": "src/distributors/DAODistributor.sol:DAODistributor",
            "label": "version",
            "offset": 0,
            "slot": "0",
            "type": "t_struct(Version)6844_storage"
          },
          {
            "astId": 6859,
            "contract": "src/distributors/DAODistributor.sol:DAODistributor",
            "label": "requirement",
            "offset": 0,
            "slot": "1",
            "type": "t_enum(requirements)6853"
          }
        ],
        "numberOfBytes": "64"
      },
      "t_uint128": {
        "encoding": "inplace",
        "label": "uint128",
        "numberOfBytes": "16"
      },
      "t_uint256": {
        "encoding": "inplace",
        "label": "uint256",
        "numberOfBytes": "32"
      },
      "t_uint48": {
        "encoding": "inplace",
        "label": "uint48",
        "numberOfBytes": "6"
      },
      "t_uint64": {
        "encoding": "inplace",
        "label": "uint64",
        "numberOfBytes": "8"
      }
    }
  }
}