{
  "address": "0x287ec64ab06E0C4642dDD950Da15C3Fb33cE1b25",
  "abi": [
    {
      "inputs": [
        {
          "internalType": "string",
          "name": "_name",
          "type": "string"
        },
        {
          "internalType": "string",
          "name": "_symbol",
          "type": "string"
        },
        {
          "components": [
            {
              "internalType": "address[]",
              "name": "receivers",
              "type": "address[]"
            },
            {
              "internalType": "uint256[]",
              "name": "amounts",
              "type": "uint256[]"
            }
          ],
          "internalType": "struct MintSettings",
          "name": "_mintSettings",
          "type": "tuple"
        },
        {
          "internalType": "address",
          "name": "_accessManager",
          "type": "address"
        }
      ],
      "stateMutability": "nonpayable",
      "type": "constructor"
    },
    {
      "inputs": [],
      "name": "CheckpointUnorderedInsertion",
      "type": "error"
    },
    {
      "inputs": [],
      "name": "ECDSAInvalidSignature",
      "type": "error"
    },
    {
      "inputs": [
        {
          "internalType": "uint256",
          "name": "length",
          "type": "uint256"
        }
      ],
      "name": "ECDSAInvalidSignatureLength",
      "type": "error"
    },
    {
      "inputs": [
        {
          "internalType": "bytes32",
          "name": "s",
          "type": "bytes32"
        }
      ],
      "name": "ECDSAInvalidSignatureS",
      "type": "error"
    },
    {
      "inputs": [
        {
          "internalType": "uint256",
          "name": "increasedSupply",
          "type": "uint256"
        },
        {
          "internalType": "uint256",
          "name": "cap",
          "type": "uint256"
        }
      ],
      "name": "ERC20ExceededSafeSupply",
      "type": "error"
    },
    {
      "inputs": [
        {
          "internalType": "address",
          "name": "spender",
          "type": "address"
        },
        {
          "internalType": "uint256",
          "name": "allowance",
          "type": "uint256"
        },
        {
          "internalType": "uint256",
          "name": "needed",
          "type": "uint256"
        }
      ],
      "name": "ERC20InsufficientAllowance",
      "type": "error"
    },
    {
      "inputs": [
        {
          "internalType": "address",
          "name": "sender",
          "type": "address"
        },
        {
          "internalType": "uint256",
          "name": "balance",
          "type": "uint256"
        },
        {
          "internalType": "uint256",
          "name": "needed",
          "type": "uint256"
        }
      ],
      "name": "ERC20InsufficientBalance",
      "type": "error"
    },
    {
      "inputs": [
        {
          "internalType": "address",
          "name": "approver",
          "type": "address"
        }
      ],
      "name": "ERC20InvalidApprover",
      "type": "error"
    },
    {
      "inputs": [
        {
          "internalType": "address",
          "name": "receiver",
          "type": "address"
        }
      ],
      "name": "ERC20InvalidReceiver",
      "type": "error"
    },
    {
      "inputs": [
        {
          "internalType": "address",
          "name": "sender",
          "type": "address"
        }
      ],
      "name": "ERC20InvalidSender",
      "type": "error"
    },
    {
      "inputs": [
        {
          "internalType": "address",
          "name": "spender",
          "type": "address"
        }
      ],
      "name": "ERC20InvalidSpender",
      "type": "error"
    },
    {
      "inputs": [
        {
          "internalType": "uint256",
          "name": "timepoint",
          "type": "uint256"
        },
        {
          "internalType": "uint48",
          "name": "clock",
          "type": "uint48"
        }
      ],
      "name": "ERC5805FutureLookup",
      "type": "error"
    },
    {
      "inputs": [],
      "name": "ERC6372InconsistentClock",
      "type": "error"
    },
    {
      "inputs": [
        {
          "internalType": "address",
          "name": "account",
          "type": "address"
        },
        {
          "internalType": "uint256",
          "name": "currentNonce",
          "type": "uint256"
        }
      ],
      "name": "InvalidAccountNonce",
      "type": "error"
    },
    {
      "inputs": [],
      "name": "InvalidInitialization",
      "type": "error"
    },
    {
      "inputs": [
        {
          "internalType": "uint256",
          "name": "receiversArrayLength",
          "type": "uint256"
        },
        {
          "internalType": "uint256",
          "name": "amountsArrayLength",
          "type": "uint256"
        }
      ],
      "name": "MintSettingsArrayLengthMismatch",
      "type": "error"
    },
    {
      "inputs": [],
      "name": "NotInitializing",
      "type": "error"
    },
    {
      "inputs": [],
      "name": "ReentrancyGuardReentrantCall",
      "type": "error"
    },
    {
      "inputs": [
        {
          "internalType": "uint8",
          "name": "bits",
          "type": "uint8"
        },
        {
          "internalType": "uint256",
          "name": "value",
          "type": "uint256"
        }
      ],
      "name": "SafeCastOverflowedUintDowncast",
      "type": "error"
    },
    {
      "inputs": [
        {
          "internalType": "uint256",
          "name": "expiry",
          "type": "uint256"
        }
      ],
      "name": "VotesExpiredSignature",
      "type": "error"
    },
    {
      "anonymous": false,
      "inputs": [
        {
          "indexed": true,
          "internalType": "address",
          "name": "owner",
          "type": "address"
        },
        {
          "indexed": true,
          "internalType": "address",
          "name": "spender",
          "type": "address"
        },
        {
          "indexed": false,
          "internalType": "uint256",
          "name": "value",
          "type": "uint256"
        }
      ],
      "name": "Approval",
      "type": "event"
    },
    {
      "anonymous": false,
      "inputs": [
        {
          "indexed": true,
          "internalType": "address",
          "name": "delegator",
          "type": "address"
        },
        {
          "indexed": true,
          "internalType": "address",
          "name": "fromDelegate",
          "type": "address"
        },
        {
          "indexed": true,
          "internalType": "address",
          "name": "toDelegate",
          "type": "address"
        }
      ],
      "name": "DelegateChanged",
      "type": "event"
    },
    {
      "anonymous": false,
      "inputs": [
        {
          "indexed": true,
          "internalType": "address",
          "name": "delegate",
          "type": "address"
        },
        {
          "indexed": false,
          "internalType": "uint256",
          "name": "previousVotes",
          "type": "uint256"
        },
        {
          "indexed": false,
          "internalType": "uint256",
          "name": "newVotes",
          "type": "uint256"
        }
      ],
      "name": "DelegateVotesChanged",
      "type": "event"
    },
    {
      "anonymous": false,
      "inputs": [],
      "name": "EIP712DomainChanged",
      "type": "event"
    },
    {
      "anonymous": false,
      "inputs": [
        {
          "indexed": false,
          "internalType": "uint64",
          "name": "version",
          "type": "uint64"
        }
      ],
      "name": "Initialized",
      "type": "event"
    },
    {
      "anonymous": false,
      "inputs": [
        {
          "indexed": true,
          "internalType": "address",
          "name": "from",
          "type": "address"
        },
        {
          "indexed": true,
          "internalType": "address",
          "name": "to",
          "type": "address"
        },
        {
          "indexed": false,
          "internalType": "uint256",
          "name": "value",
          "type": "uint256"
        }
      ],
      "name": "Transfer",
      "type": "event"
    },
    {
      "inputs": [],
      "name": "CLOCK_MODE",
      "outputs": [
        {
          "internalType": "string",
          "name": "",
          "type": "string"
        }
      ],
      "stateMutability": "view",
      "type": "function"
    },
    {
      "inputs": [
        {
          "internalType": "address",
          "name": "owner",
          "type": "address"
        },
        {
          "internalType": "address",
          "name": "spender",
          "type": "address"
        }
      ],
      "name": "allowance",
      "outputs": [
        {
          "internalType": "uint256",
          "name": "",
          "type": "uint256"
        }
      ],
      "stateMutability": "view",
      "type": "function"
    },
    {
      "inputs": [
        {
          "internalType": "address",
          "name": "spender",
          "type": "address"
        },
        {
          "internalType": "uint256",
          "name": "value",
          "type": "uint256"
        }
      ],
      "name": "approve",
      "outputs": [
        {
          "internalType": "bool",
          "name": "",
          "type": "bool"
        }
      ],
      "stateMutability": "nonpayable",
      "type": "function"
    },
    {
      "inputs": [
        {
          "internalType": "address",
          "name": "account",
          "type": "address"
        }
      ],
      "name": "balanceOf",
      "outputs": [
        {
          "internalType": "uint256",
          "name": "",
          "type": "uint256"
        }
      ],
      "stateMutability": "view",
      "type": "function"
    },
    {
      "inputs": [
        {
          "internalType": "address",
          "name": "account",
          "type": "address"
        },
        {
          "internalType": "uint32",
          "name": "pos",
          "type": "uint32"
        }
      ],
      "name": "checkpoints",
      "outputs": [
        {
          "components": [
            {
              "internalType": "uint48",
              "name": "_key",
              "type": "uint48"
            },
            {
              "internalType": "uint208",
              "name": "_value",
              "type": "uint208"
            }
          ],
          "internalType": "struct Checkpoints.Checkpoint208",
          "name": "",
          "type": "tuple"
        }
      ],
      "stateMutability": "view",
      "type": "function"
    },
    {
      "inputs": [],
      "name": "clock",
      "outputs": [
        {
          "internalType": "uint48",
          "name": "",
          "type": "uint48"
        }
      ],
      "stateMutability": "view",
      "type": "function"
    },
    {
      "inputs": [],
      "name": "decimals",
      "outputs": [
        {
          "internalType": "uint8",
          "name": "",
          "type": "uint8"
        }
      ],
      "stateMutability": "view",
      "type": "function"
    },
    {
      "inputs": [
        {
          "internalType": "address",
          "name": "delegatee",
          "type": "address"
        }
      ],
      "name": "delegate",
      "outputs": [],
      "stateMutability": "nonpayable",
      "type": "function"
    },
    {
      "inputs": [
        {
          "internalType": "address",
          "name": "delegatee",
          "type": "address"
        },
        {
          "internalType": "uint256",
          "name": "nonce",
          "type": "uint256"
        },
        {
          "internalType": "uint256",
          "name": "expiry",
          "type": "uint256"
        },
        {
          "internalType": "uint8",
          "name": "v",
          "type": "uint8"
        },
        {
          "internalType": "bytes32",
          "name": "r",
          "type": "bytes32"
        },
        {
          "internalType": "bytes32",
          "name": "s",
          "type": "bytes32"
        }
      ],
      "name": "delegateBySig",
      "outputs": [],
      "stateMutability": "nonpayable",
      "type": "function"
    },
    {
      "inputs": [
        {
          "internalType": "address",
          "name": "account",
          "type": "address"
        }
      ],
      "name": "delegates",
      "outputs": [
        {
          "internalType": "address",
          "name": "",
          "type": "address"
        }
      ],
      "stateMutability": "view",
      "type": "function"
    },
    {
      "inputs": [],
      "name": "eip712Domain",
      "outputs": [
        {
          "internalType": "bytes1",
          "name": "fields",
          "type": "bytes1"
        },
        {
          "internalType": "string",
          "name": "name",
          "type": "string"
        },
        {
          "internalType": "string",
          "name": "version",
          "type": "string"
        },
        {
          "internalType": "uint256",
          "name": "chainId",
          "type": "uint256"
        },
        {
          "internalType": "address",
          "name": "verifyingContract",
          "type": "address"
        },
        {
          "internalType": "bytes32",
          "name": "salt",
          "type": "bytes32"
        },
        {
          "internalType": "uint256[]",
          "name": "extensions",
          "type": "uint256[]"
        }
      ],
      "stateMutability": "view",
      "type": "function"
    },
    {
      "inputs": [
        {
          "internalType": "uint256",
          "name": "timepoint",
          "type": "uint256"
        }
      ],
      "name": "getPastTotalSupply",
      "outputs": [
        {
          "internalType": "uint256",
          "name": "",
          "type": "uint256"
        }
      ],
      "stateMutability": "view",
      "type": "function"
    },
    {
      "inputs": [
        {
          "internalType": "address",
          "name": "account",
          "type": "address"
        },
        {
          "internalType": "uint256",
          "name": "timepoint",
          "type": "uint256"
        }
      ],
      "name": "getPastVotes",
      "outputs": [
        {
          "internalType": "uint256",
          "name": "",
          "type": "uint256"
        }
      ],
      "stateMutability": "view",
      "type": "function"
    },
    {
      "inputs": [
        {
          "internalType": "address",
          "name": "account",
          "type": "address"
        }
      ],
      "name": "getVotes",
      "outputs": [
        {
          "internalType": "uint256",
          "name": "",
          "type": "uint256"
        }
      ],
      "stateMutability": "view",
      "type": "function"
    },
    {
      "inputs": [
        {
          "internalType": "string",
          "name": "_name",
          "type": "string"
        },
        {
          "internalType": "string",
          "name": "_symbol",
          "type": "string"
        },
        {
          "components": [
            {
              "internalType": "address[]",
              "name": "receivers",
              "type": "address[]"
            },
            {
              "internalType": "uint256[]",
              "name": "amounts",
              "type": "uint256[]"
            }
          ],
          "internalType": "struct MintSettings",
          "name": "_mintSettings",
          "type": "tuple"
        },
        {
          "internalType": "address",
          "name": "accessManager",
          "type": "address"
        }
      ],
      "name": "initialize",
      "outputs": [],
      "stateMutability": "nonpayable",
      "type": "function"
    },
    {
      "inputs": [
        {
          "internalType": "address",
          "name": "to",
          "type": "address"
        },
        {
          "internalType": "uint256",
          "name": "amount",
          "type": "uint256"
        }
      ],
      "name": "mint",
      "outputs": [],
      "stateMutability": "nonpayable",
      "type": "function"
    },
    {
      "inputs": [],
      "name": "name",
      "outputs": [
        {
          "internalType": "string",
          "name": "",
          "type": "string"
        }
      ],
      "stateMutability": "view",
      "type": "function"
    },
    {
      "inputs": [
        {
          "internalType": "address",
          "name": "owner",
          "type": "address"
        }
      ],
      "name": "nonces",
      "outputs": [
        {
          "internalType": "uint256",
          "name": "",
          "type": "uint256"
        }
      ],
      "stateMutability": "view",
      "type": "function"
    },
    {
      "inputs": [
        {
          "internalType": "address",
          "name": "account",
          "type": "address"
        }
      ],
      "name": "numCheckpoints",
      "outputs": [
        {
          "internalType": "uint32",
          "name": "",
          "type": "uint32"
        }
      ],
      "stateMutability": "view",
      "type": "function"
    },
    {
      "inputs": [
        {
          "internalType": "bytes4",
          "name": "interfaceId",
          "type": "bytes4"
        }
      ],
      "name": "supportsInterface",
      "outputs": [
        {
          "internalType": "bool",
          "name": "",
          "type": "bool"
        }
      ],
      "stateMutability": "view",
      "type": "function"
    },
    {
      "inputs": [],
      "name": "symbol",
      "outputs": [
        {
          "internalType": "string",
          "name": "",
          "type": "string"
        }
      ],
      "stateMutability": "view",
      "type": "function"
    },
    {
      "inputs": [],
      "name": "totalSupply",
      "outputs": [
        {
          "internalType": "uint256",
          "name": "",
          "type": "uint256"
        }
      ],
      "stateMutability": "view",
      "type": "function"
    },
    {
      "inputs": [
        {
          "internalType": "address",
          "name": "to",
          "type": "address"
        },
        {
          "internalType": "uint256",
          "name": "value",
          "type": "uint256"
        }
      ],
      "name": "transfer",
      "outputs": [
        {
          "internalType": "bool",
          "name": "",
          "type": "bool"
        }
      ],
      "stateMutability": "nonpayable",
      "type": "function"
    },
    {
      "inputs": [
        {
          "internalType": "address",
          "name": "from",
          "type": "address"
        },
        {
          "internalType": "address",
          "name": "to",
          "type": "address"
        },
        {
          "internalType": "uint256",
          "name": "value",
          "type": "uint256"
        }
      ],
      "name": "transferFrom",
      "outputs": [
        {
          "internalType": "bool",
          "name": "",
          "type": "bool"
        }
      ],
      "stateMutability": "nonpayable",
      "type": "function"
    }
  ],
  "transactionHash": "0x227e89920a1381a4d735272cbbff7316af7905718b03dfcabcbe77e7eafff6d8",
  "args": [
    "TokenName",
    "tkn",
    {
      "amounts": [],
      "receivers": []
    },
    "0x0000000000000000000000000000000000000000"
  ],
  "numDeployments": 1,
  "solcInputHash": "8ca306f60a6528f95ce0da03c9e56451",
  "bytecode": "0x608060405234801561001057600080fd5b5060405161444938038061444983398101604081905261002f91610e7d565b61003b84848484610044565b505050506111b1565b7ff0c57e16840df040f15088dc2f81fe391c3923bec73e23a9662efc9c229c6a00805468010000000000000000810460ff1615906001600160401b031660008115801561008e5750825b90506000826001600160401b031660011480156100aa5750303b155b9050811580156100b8575080155b156100d65760405163f92ee8a960e01b815260040160405180910390fd5b84546001600160401b0319166001178555831561010457845460ff60401b1916680100000000000000001785555b604080516001808252818301909252600091816020015b60408051808201909152600081526060602082015281526020019060019003908161011b5790505090506040518060400160405280886001600160a01b03168152602001604051806020016040528060008152508152508160008151811061018557610185610fe2565b602090810291909101015261019981610293565b602088015151885151146101d7578751516020890151516040516398b1381560e01b8152600481019290925260248201526044015b60405180910390fd5b6101e18a8a6102d5565b60005b885151811015610240576102388960000151828151811061020757610207610fe2565b60200260200101518a60200151838151811061022557610225610fe2565b60200260200101516102eb60201b60201c565b6001016101e4565b5050831561028857845460ff60401b19168555604051600181527fc7f505b2f371ae2175ee4913f4499e1f2633a7b5936321eed1cdaeb6115181d29060200160405180910390a15b505050505050505050565b805160005b818110156102d0576102c88382815181106102b5576102b5610fe2565b602002602001015161032160201b60201c565b600101610298565b505050565b6102dd6103d2565b6102e78282610422565b5050565b6001600160a01b0382166103155760405163ec442f0560e01b8152600060048201526024016101ce565b6102e760008383610479565b7f650fcebb359486b662eb1b0aa6a1d52f283f87f1ffcacdfb2b58744a08e075ae8054600181018255600082905282517fda2a52c55025b17bec7d5eef42765efcfebc5e19591a1b3d775cf38f4689f236600290920291820180546001600160a01b0319166001600160a01b03909216919091178155602084015184927fda2a52c55025b17bec7d5eef42765efcfebc5e19591a1b3d775cf38f4689f23701906103cb9082611079565b5050505050565b7ff0c57e16840df040f15088dc2f81fe391c3923bec73e23a9662efc9c229c6a005468010000000000000000900460ff1661042057604051631afcd79f60e31b815260040160405180910390fd5b565b61042a6103d2565b6000805160206144098339815191527f52c63247e1f47db19d5ce0460030c497f067ca4cebf71ba98eeadabe20bace036104648482611079565b50600481016104738382611079565b50505050565b6104848383836104e8565b6001600160a01b038216158015906104a857506104a08261056e565b63ffffffff16155b80156104d957506001600160a01b0382811660009081526000805160206143e9833981519152602052604090205416155b156102d0576102d0828061057f565b6104f383838361062f565b6001600160a01b03831661056357600061052b7f52c63247e1f47db19d5ce0460030c497f067ca4cebf71ba98eeadabe20bace025490565b90506001600160d01b038082111561056057604051630e58ae9360e11b815260048101839052602481018290526044016101ce565b50505b6102d083838361076d565b600061057982610816565b92915050565b6000805160206143e983398151915260006105bf846001600160a01b0390811660009081526000805160206143e983398151915260205260409020541690565b6001600160a01b0385811660008181526020869052604080822080546001600160a01b031916898616908117909155905194955093928516927f3134e8a2e6d97e929a7e54011ea5485d7d196dd5f0ba4d4ef95803e8e3fc257f9190a4610473818461062a8761086e565b610899565b6000805160206144098339815191526001600160a01b03841661066b5781816002016000828254610660919061114d565b909155506106dd9050565b6001600160a01b038416600090815260208290526040902054828110156106be5760405163391434e360e21b81526001600160a01b038616600482015260248101829052604481018490526064016101ce565b6001600160a01b03851660009081526020839052604090209083900390555b6001600160a01b0383166106fb57600281018054839003905561071a565b6001600160a01b03831660009081526020829052604090208054830190555b826001600160a01b0316846001600160a01b03167fddf252ad1be2c89b69c2b068fc378daa952ba7f163c4a11628f55a4df523b3ef8460405161075f91815260200190565b60405180910390a350505050565b6000805160206143e98339815191526001600160a01b0384166107ac576107a960028201610ece6109fc60201b176107a485610a08565b610a40565b50505b6001600160a01b0383166107d7576107d460028201610eda610a7660201b176107a485610a08565b50505b6001600160a01b0384811660009081526000805160206143e9833981519152602052604080822054868416835291205461047392918216911684610899565b6001600160a01b03811660009081527fe8b26c30fad74198956032a3533d903385d56dd795af560196f9c78d4af40d0160205260408120546000805160206143e98339815191529061086790610a82565b9392505050565b6001600160a01b03811660009081526000805160206144098339815191526020526040812054610579565b6000805160206143e98339815191526001600160a01b03848116908416148015906108c45750600082115b15610473576001600160a01b03841615610960576001600160a01b038416600090815260018201602090815260408220829161090d9190610a76901b610eda176107a487610a08565b6001600160d01b031691506001600160d01b03169150856001600160a01b03166000805160206144298339815191528383604051610955929190918252602082015260400190565b60405180910390a250505b6001600160a01b03831615610473576001600160a01b03831660009081526001820160209081526040822082916109a491906109fc901b610ece176107a487610a08565b6001600160d01b031691506001600160d01b03169150846001600160a01b031660008051602061442983398151915283836040516109ec929190918252602082015260400190565b60405180910390a2505050505050565b60006108678284611160565b60006001600160d01b03821115610a3c576040516306dfcc6560e41b815260d06004820152602481018390526044016101ce565b5090565b600080610a69610a4e610ab3565b610a61610a5a88610ac2565b868860201c565b879190610b0c565b915091505b935093915050565b6000610867828461117f565b600063ffffffff821115610a3c576040516306dfcc6560e41b815260206004820152602481018390526044016101ce565b6000610abd610b1a565b905090565b80546000908015610b0357610aea83610adc60018461119e565b600091825260209091200190565b54660100000000000090046001600160d01b0316610867565b60009392505050565b600080610a69858585610b25565b6000610abd43610cab565b825460009081908015610c4d576000610b4387610adc60018561119e565b60408051808201909152905465ffffffffffff80821680845266010000000000009092046001600160d01b031660208401529192509087161015610b9a57604051632520601d60e01b815260040160405180910390fd5b805165ffffffffffff808816911603610be95784610bbd88610adc60018661119e565b80546001600160d01b039290921666010000000000000265ffffffffffff909216919091179055610c3d565b6040805180820190915265ffffffffffff80881682526001600160d01b0380881660208085019182528b54600181018d5560008d815291909120945191519092166601000000000000029216919091179101555b602001519250839150610a6e9050565b50506040805180820190915265ffffffffffff80851682526001600160d01b0380851660208085019182528854600181018a5560008a8152918220955192519093166601000000000000029190931617920191909155905081610a6e565b600065ffffffffffff821115610a3c576040516306dfcc6560e41b815260306004820152602481018390526044016101ce565b634e487b7160e01b600052604160045260246000fd5b604080519081016001600160401b0381118282101715610d1657610d16610cde565b60405290565b604051601f8201601f191681016001600160401b0381118282101715610d4457610d44610cde565b604052919050565b600082601f830112610d5d57600080fd5b81516001600160401b03811115610d7657610d76610cde565b610d89601f8201601f1916602001610d1c565b818152846020838601011115610d9e57600080fd5b60005b82811015610dbd57602081860181015183830182015201610da1565b506000918101602001919091529392505050565b60006001600160401b03821115610dea57610dea610cde565b5060051b60200190565b80516001600160a01b0381168114610e0b57600080fd5b919050565b600082601f830112610e2157600080fd5b8151610e34610e2f82610dd1565b610d1c565b8082825260208201915060208360051b860101925085831115610e5657600080fd5b602085015b83811015610e73578051835260209283019201610e5b565b5095945050505050565b60008060008060808587031215610e9357600080fd5b84516001600160401b03811115610ea957600080fd5b610eb587828801610d4c565b602087015190955090506001600160401b03811115610ed357600080fd5b610edf87828801610d4c565b604087015190945090506001600160401b03811115610efd57600080fd5b850160408188031215610f0f57600080fd5b610f17610cf4565b81516001600160401b03811115610f2d57600080fd5b8201601f81018913610f3e57600080fd5b8051610f4c610e2f82610dd1565b8082825260208201915060208360051b85010192508b831115610f6e57600080fd5b6020840193505b82841015610f9757610f8684610df4565b825260209384019390910190610f75565b845250505060208201516001600160401b03811115610fb557600080fd5b610fc189828501610e10565b6020830152509250610fd7905060608601610df4565b905092959194509250565b634e487b7160e01b600052603260045260246000fd5b600181811c9082168061100c57607f821691505b60208210810361102c57634e487b7160e01b600052602260045260246000fd5b50919050565b601f8211156102d057806000526020600020601f840160051c810160208510156110595750805b601f840160051c820191505b818110156103cb5760008155600101611065565b81516001600160401b0381111561109257611092610cde565b6110a6816110a08454610ff8565b84611032565b6020601f8211600181146110da57600083156110c25750848201515b600019600385901b1c1916600184901b1784556103cb565b600084815260208120601f198516915b8281101561110a57878501518255602094850194600190920191016110ea565b50848210156111285786840151600019600387901b60f8161c191681555b50505050600190811b01905550565b634e487b7160e01b600052601160045260246000fd5b8082018082111561057957610579611137565b6001600160d01b03818116838216019081111561057957610579611137565b6001600160d01b03828116828216039081111561057957610579611137565b8181038181111561057957610579611137565b613229806111c06000396000f3fe608060405234801561001057600080fd5b50600436106101985760003560e01c80636fcfff45116100e357806395d89b411161008c578063c3cda52011610066578063c3cda520146103c2578063dd62ed3e146103d5578063f1127ed81461042d57600080fd5b806395d89b41146103945780639ab24eb01461039c578063a9059cbb146103af57600080fd5b806384b0196e116100bd57806384b0196e146103475780638e539e8c1461036257806391ddadf41461037557600080fd5b80636fcfff45146102f957806370a08231146103215780637ecebe001461033457600080fd5b80633a46b1a8116101455780634bf5d7e91161011f5780634bf5d7e91461027b578063587cde1e146102835780635c19a95c146102e657600080fd5b80633a46b1a8146102405780633bd0365b1461025357806340c10f191461026857600080fd5b806318160ddd1161017657806318160ddd146101ed57806323b872dd1461021e578063313ce5671461023157600080fd5b806301ffc9a71461019d57806306fdde03146101c5578063095ea7b3146101da575b600080fd5b6101b06101ab366004612837565b61046c565b60405190151581526020015b60405180910390f35b6101cd610571565b6040516101bc91906128b1565b6101b06101e83660046128e0565b61062c565b7f52c63247e1f47db19d5ce0460030c497f067ca4cebf71ba98eeadabe20bace02545b6040519081526020016101bc565b6101b061022c36600461290a565b610644565b604051601281526020016101bc565b61021061024e3660046128e0565b610668565b610266610261366004612ac1565b61072b565b005b6102666102763660046128e0565b6109c5565b6101cd610a3b565b6102ce610291366004612c27565b6001600160a01b0390811660009081527fe8b26c30fad74198956032a3533d903385d56dd795af560196f9c78d4af40d0060205260409020541690565b6040516001600160a01b0390911681526020016101bc565b6102666102f4366004612c27565b610acc565b61030c610307366004612c27565b610ad7565b60405163ffffffff90911681526020016101bc565b61021061032f366004612c27565b610ae2565b610210610342366004612c27565b610b27565b61034f610b50565b6040516101bc9796959493929190612c42565b610210610370366004612cf6565b610c4c565b61037d610cf3565b60405165ffffffffffff90911681526020016101bc565b6101cd610d02565b6102106103aa366004612c27565b610d53565b6101b06103bd3660046128e0565b610dc5565b6102666103d0366004612d0f565b610dd3565b6102106103e3366004612d6f565b6001600160a01b0391821660009081527f52c63247e1f47db19d5ce0460030c497f067ca4cebf71ba98eeadabe20bace016020908152604080832093909416825291909152205490565b61044061043b366004612da2565b610ea9565b60408051825165ffffffffffff1681526020928301516001600160d01b031692810192909252016101bc565b60006001600160e01b031982167f942e8b220000000000000000000000000000000000000000000000000000000014806104cf57506001600160e01b031982167fa219a02500000000000000000000000000000000000000000000000000000000145b8061050357506001600160e01b031982167f3327c9eb00000000000000000000000000000000000000000000000000000000145b8061053757506001600160e01b031982167f40c10f1900000000000000000000000000000000000000000000000000000000145b8061056b57507f01ffc9a7000000000000000000000000000000000000000000000000000000006001600160e01b03198316145b92915050565b606060007f52c63247e1f47db19d5ce0460030c497f067ca4cebf71ba98eeadabe20bace005b90508060030180546105a890612de2565b80601f01602080910402602001604051908101604052809291908181526020018280546105d490612de2565b80156106215780601f106105f657610100808354040283529160200191610621565b820191906000526020600020905b81548152906001019060200180831161060457829003601f168201915b505050505091505090565b60003361063a818585610ee6565b5060019392505050565b600033610652858285610ef8565b61065d858585610fae565b506001949350505050565b60007fe8b26c30fad74198956032a3533d903385d56dd795af560196f9c78d4af40d0081610694610cf3565b90508065ffffffffffff1684106106ed576040517fecd3f81e0000000000000000000000000000000000000000000000000000000081526004810185905265ffffffffffff821660248201526044015b60405180910390fd5b6107196106f98561103f565b6001600160a01b0387166000908152600185016020526040902090611076565b6001600160d01b031695945050505050565b7ff0c57e16840df040f15088dc2f81fe391c3923bec73e23a9662efc9c229c6a00805468010000000000000000810460ff16159067ffffffffffffffff166000811580156107765750825b905060008267ffffffffffffffff1660011480156107935750303b155b9050811580156107a1575080155b156107d8576040517ff92ee8a900000000000000000000000000000000000000000000000000000000815260040160405180910390fd5b84547fffffffffffffffffffffffffffffffffffffffffffffffff0000000000000000166001178555831561082357845468ff00000000000000001916680100000000000000001785555b604080516001808252818301909252600091816020015b60408051808201909152600081526060602082015281526020019060019003908161083a5790505090506040518060400160405280886001600160a01b0316815260200160405180602001604052806000815250815250816000815181106108a4576108a4612e1c565b60200260200101819052506108b88161112f565b6020880151518851511461090a578751516020890151516040517f98b13815000000000000000000000000000000000000000000000000000000008152600481019290925260248201526044016106e4565b6109148a8a611166565b60005b88515181101561096d576109658960000151828151811061093a5761093a612e1c565b60200260200101518a60200151838151811061095857610958612e1c565b6020026020010151611178565b600101610917565b505083156109ba57845468ff000000000000000019168555604051600181527fc7f505b2f371ae2175ee4913f4499e1f2633a7b5936321eed1cdaeb6115181d29060200160405180910390a15b505050505050505050565b6109cd6111c7565b6000356001600160e01b031916336000366000806109ee8686868686611248565b90506109fa8888611178565b610a08868686868686611360565b505050505050610a3760017f9b779b17422d0df92223018b32b4d1fa46e071723d6817e2486d003becc55f0055565b5050565b6060610a456113f2565b65ffffffffffff16610a55610cf3565b65ffffffffffff1614610a94576040517f6ff0714000000000000000000000000000000000000000000000000000000000815260040160405180910390fd5b5060408051808201909152601d81527f6d6f64653d626c6f636b6e756d6265722666726f6d3d64656661756c74000000602082015290565b33610a3781836113fd565b600061056b826114e9565b6000807f52c63247e1f47db19d5ce0460030c497f067ca4cebf71ba98eeadabe20bace005b6001600160a01b0390931660009081526020939093525050604090205490565b6000807f5ab42ced628888259c08ac98db1eb0cf702fc1501344311d8b100cd1bfe4bb00610b07565b600060608082808083817fa16a46d94261c7517cc8ff89f61c0ce93598e3c849801011dee649a6a557d1008054909150158015610b8f57506001810154155b610bf5576040517f08c379a000000000000000000000000000000000000000000000000000000000815260206004820152601560248201527f4549503731323a20556e696e697469616c697a6564000000000000000000000060448201526064016106e4565b610bfd61154c565b610c0561159d565b604080516000808252602082019092527f0f000000000000000000000000000000000000000000000000000000000000009c939b5091995046985030975095509350915050565b60007fe8b26c30fad74198956032a3533d903385d56dd795af560196f9c78d4af40d0081610c78610cf3565b90508065ffffffffffff168410610ccc576040517fecd3f81e0000000000000000000000000000000000000000000000000000000081526004810185905265ffffffffffff821660248201526044016106e4565b610ce2610cd88561103f565b6002840190611076565b6001600160d01b0316949350505050565b6000610cfd6113f2565b905090565b7f52c63247e1f47db19d5ce0460030c497f067ca4cebf71ba98eeadabe20bace0480546060917f52c63247e1f47db19d5ce0460030c497f067ca4cebf71ba98eeadabe20bace00916105a890612de2565b6001600160a01b03811660009081527fe8b26c30fad74198956032a3533d903385d56dd795af560196f9c78d4af40d01602052604081207fe8b26c30fad74198956032a3533d903385d56dd795af560196f9c78d4af40d0090610db5906115c7565b6001600160d01b03169392505050565b60003361063a818585610fae565b83421115610e10576040517f4683af0e000000000000000000000000000000000000000000000000000000008152600481018590526024016106e4565b604080517fe48329057bfd03d55e49b547132e39cffd9c1820ad7b9d4c5307691425d15adf60208201526001600160a01b038816918101919091526060810186905260808101859052600090610e8a90610e829060a00160405160208183030381529060405280519060200120611603565b85858561164b565b9050610e968187611679565b610ea081886113fd565b50505050505050565b6040805180820190915260008082526020820152610ec78383611704565b9392505050565b6000610ec78284612e48565b6000610ec78284612e67565b610ef38383836001611781565b505050565b6001600160a01b0383811660009081527f52c63247e1f47db19d5ce0460030c497f067ca4cebf71ba98eeadabe20bace0160209081526040808320938616835292905220546000198114610fa85781811015610f99576040517ffb8f41b20000000000000000000000000000000000000000000000000000000081526001600160a01b038416600482015260248101829052604481018390526064016106e4565b610fa884848484036000611781565b50505050565b6001600160a01b038316610ff1576040517f96c6fd1e000000000000000000000000000000000000000000000000000000008152600060048201526024016106e4565b6001600160a01b038216611034576040517fec442f05000000000000000000000000000000000000000000000000000000008152600060048201526024016106e4565b610ef38383836118ad565b600065ffffffffffff821115611072576040516306dfcc6560e41b815260306004820152602481018390526044016106e4565b5090565b8154600090818160058111156110d55760006110918461192e565b61109b9085612e86565b60008881526020902090915081015465ffffffffffff90811690871610156110c5578091506110d3565b6110d0816001612e99565b92505b505b60006110e387878585611a16565b9050801561112157611108876110fa600184612e86565b600091825260209091200190565b54660100000000000090046001600160d01b0316611124565b60005b979650505050505050565b805160005b81811015610ef35761115e83828151811061115157611151612e1c565b6020026020010151611a78565b600101611134565b61116e611b3a565b610a378282611ba3565b6001600160a01b0382166111bb576040517fec442f05000000000000000000000000000000000000000000000000000000008152600060048201526024016106e4565b610a37600083836118ad565b7f9b779b17422d0df92223018b32b4d1fa46e071723d6817e2486d003becc55f0080547ffffffffffffffffffffffffffffffffffffffffffffffffffffffffffffffffe01611242576040517f3ee5aeb500000000000000000000000000000000000000000000000000000000815260040160405180910390fd5b60029055565b7f650fcebb359486b662eb1b0aa6a1d52f283f87f1ffcacdfb2b58744a08e075ae80546060919060008167ffffffffffffffff81111561128a5761128a612947565b6040519080825280602002602001820160405280156112bd57816020015b60608152602001906001900390816112a85790505b50905060005b828110156113535761132e8482815481106112e0576112e0612e1c565b90600052602060002090600202018b8b8b8b8080601f0160208091040260200160405190810160405280939291908181526020018383808284376000920191909152508d9250611c06915050565b82828151811061134057611340612e1c565b60209081029190910101526001016112c3565b5098975050505050505050565b7f650fcebb359486b662eb1b0aa6a1d52f283f87f1ffcacdfb2b58744a08e075ae805460005b818110156109ba576113ea838261139e600186612e86565b6113a89190612e86565b815481106113b8576113b8612e1c565b90600052602060002090600202018a8a8a8a8a8a88815181106113dd576113dd612e1c565b6020026020010151611ca6565b600101611386565b6000610cfd4361103f565b7fe8b26c30fad74198956032a3533d903385d56dd795af560196f9c78d4af40d006000611461846001600160a01b0390811660009081527fe8b26c30fad74198956032a3533d903385d56dd795af560196f9c78d4af40d0060205260409020541690565b6001600160a01b0385811660008181526020869052604080822080547fffffffffffffffffffffffff000000000000000000000000000000000000000016898616908117909155905194955093928516927f3134e8a2e6d97e929a7e54011ea5485d7d196dd5f0ba4d4ef95803e8e3fc257f9190a4610fa881846114e487611d38565b611d43565b6001600160a01b03811660009081527fe8b26c30fad74198956032a3533d903385d56dd795af560196f9c78d4af40d0160205260408120547fe8b26c30fad74198956032a3533d903385d56dd795af560196f9c78d4af40d0090610ec790611ecf565b7fa16a46d94261c7517cc8ff89f61c0ce93598e3c849801011dee649a6a557d10280546060917fa16a46d94261c7517cc8ff89f61c0ce93598e3c849801011dee649a6a557d100916105a890612de2565b606060007fa16a46d94261c7517cc8ff89f61c0ce93598e3c849801011dee649a6a557d100610597565b805460009080156115fa576115e1836110fa600184612e86565b54660100000000000090046001600160d01b0316610ec7565b60009392505050565b600061056b611610611f00565b836040517f19010000000000000000000000000000000000000000000000000000000000008152600281019290925260228201526042902090565b60008060008061165d88888888611f0a565b92509250925061166d8282611fd9565b50909695505050505050565b6001600160a01b03821660009081527f5ab42ced628888259c08ac98db1eb0cf702fc1501344311d8b100cd1bfe4bb0060205260409020805460018101909155818114610ef3576040517f752d88c00000000000000000000000000000000000000000000000000000000081526001600160a01b0384166004820152602481018290526044016106e4565b604080518082018252600080825260208083018290526001600160a01b03861682527fe8b26c30fad74198956032a3533d903385d56dd795af560196f9c78d4af40d019052919091207fe8b26c30fad74198956032a3533d903385d56dd795af560196f9c78d4af40d009061177990846120dd565b949350505050565b7f52c63247e1f47db19d5ce0460030c497f067ca4cebf71ba98eeadabe20bace006001600160a01b0385166117e5576040517fe602df05000000000000000000000000000000000000000000000000000000008152600060048201526024016106e4565b6001600160a01b038416611828576040517f94280d62000000000000000000000000000000000000000000000000000000008152600060048201526024016106e4565b6001600160a01b038086166000908152600183016020908152604080832093881683529290522083905581156118a657836001600160a01b0316856001600160a01b03167f8c5be1e5ebec7d5bd14f71427d1e84f3dd0314c0f7b2291e5b200ac8c7c3b9258560405161189d91815260200190565b60405180910390a35b5050505050565b6118b8838383612150565b6001600160a01b038216158015906118dc57506118d482610ad7565b63ffffffff16155b801561191f57506001600160a01b0382811660009081527fe8b26c30fad74198956032a3533d903385d56dd795af560196f9c78d4af40d00602052604090205416155b15610ef357610ef382836113fd565b60008160000361194057506000919050565b6000600161194d846121ef565b901c6001901b9050600181848161196657611966612eac565b048201901c9050600181848161197e5761197e612eac565b048201901c9050600181848161199657611996612eac565b048201901c905060018184816119ae576119ae612eac565b048201901c905060018184816119c6576119c6612eac565b048201901c905060018184816119de576119de612eac565b048201901c905060018184816119f6576119f6612eac565b048201901c9050610ec781828581611a1057611a10612eac565b04612283565b60005b81831015611a70576000611a2d8484612299565b60008781526020902090915065ffffffffffff86169082015465ffffffffffff161115611a5c57809250611a6a565b611a67816001612e99565b93505b50611a19565b509392505050565b7f650fcebb359486b662eb1b0aa6a1d52f283f87f1ffcacdfb2b58744a08e075ae8054600181018255600082905282517fda2a52c55025b17bec7d5eef42765efcfebc5e19591a1b3d775cf38f4689f236600290920291820180547fffffffffffffffffffffffff0000000000000000000000000000000000000000166001600160a01b03909216919091178155602084015184927fda2a52c55025b17bec7d5eef42765efcfebc5e19591a1b3d775cf38f4689f23701906118a69082612f09565b7ff0c57e16840df040f15088dc2f81fe391c3923bec73e23a9662efc9c229c6a005468010000000000000000900460ff16611ba1576040517fd7e6bcf800000000000000000000000000000000000000000000000000000000815260040160405180910390fd5b565b611bab611b3a565b7f52c63247e1f47db19d5ce0460030c497f067ca4cebf71ba98eeadabe20bace007f52c63247e1f47db19d5ce0460030c497f067ca4cebf71ba98eeadabe20bace03611bf78482612f09565b5060048101610fa88382612f09565b84546040517f4440d2450000000000000000000000000000000000000000000000000000000081526060916000916001600160a01b0390911690634440d24590611c5f9060018b01908a908a9089908b90600401613069565b6000604051808303816000875af1158015611c7e573d6000803e3d6000fd5b505050506040513d6000823e601f3d908101601f1916820160405261112491908101906130bf565b86546040517fc3e9576a0000000000000000000000000000000000000000000000000000000081526001600160a01b039091169063c3e9576a90611cfd9060018b01908a908a9088908b908b908a90600401613136565b600060405180830381600087803b158015611d1757600080fd5b505af1158015611d2b573d6000803e3d6000fd5b5050505050505050505050565b600061056b82610ae2565b7fe8b26c30fad74198956032a3533d903385d56dd795af560196f9c78d4af40d006001600160a01b0384811690841614801590611d805750600082115b15610fa8576001600160a01b03841615611e2a576001600160a01b038416600090815260018201602052604081208190611dc590610eda611dc0876122b4565b6122e8565b6001600160d01b031691506001600160d01b03169150856001600160a01b03167fdec2bacdd2f05b59de34da9b523dff8be42e5e38e818c82fdb0bae774387a7248383604051611e1f929190918252602082015260400190565b60405180910390a250505b6001600160a01b03831615610fa8576001600160a01b038316600090815260018201602052604081208190611e6590610ece611dc0876122b4565b6001600160d01b031691506001600160d01b03169150846001600160a01b03167fdec2bacdd2f05b59de34da9b523dff8be42e5e38e818c82fdb0bae774387a7248383604051611ebf929190918252602082015260400190565b60405180910390a2505050505050565b600063ffffffff821115611072576040516306dfcc6560e41b815260206004820152602481018390526044016106e4565b6000610cfd612321565b600080807f7fffffffffffffffffffffffffffffff5d576e7357a4501ddfe92f46681b20a0841115611f455750600091506003905082611fcf565b604080516000808252602082018084528a905260ff891692820192909252606081018790526080810186905260019060a0016020604051602081039080840390855afa158015611f99573d6000803e3d6000fd5b5050604051601f1901519150506001600160a01b038116611fc557506000925060019150829050611fcf565b9250600091508190505b9450945094915050565b6000826003811115611fed57611fed6131bb565b03611ff6575050565b600182600381111561200a5761200a6131bb565b03612041576040517ff645eedf00000000000000000000000000000000000000000000000000000000815260040160405180910390fd5b6002826003811115612055576120556131bb565b0361208f576040517ffce698f7000000000000000000000000000000000000000000000000000000008152600481018290526024016106e4565b60038260038111156120a3576120a36131bb565b03610a37576040517fd78bce0c000000000000000000000000000000000000000000000000000000008152600481018290526024016106e4565b6040805180820190915260008082526020820152826000018263ffffffff168154811061210c5761210c612e1c565b60009182526020918290206040805180820190915291015465ffffffffffff81168252660100000000000090046001600160d01b0316918101919091529392505050565b61215b838383612395565b6001600160a01b0383166121e45760006121937f52c63247e1f47db19d5ce0460030c497f067ca4cebf71ba98eeadabe20bace025490565b90506001600160d01b03808211156121e1576040517f1cb15d2600000000000000000000000000000000000000000000000000000000815260048101839052602481018290526044016106e4565b50505b610ef38383836124fe565b600080608083901c1561220457608092831c92015b604083901c1561221657604092831c92015b602083901c1561222857602092831c92015b601083901c1561223a57601092831c92015b600883901c1561224c57600892831c92015b600483901c1561225e57600492831c92015b600283901c1561227057600292831c92015b600183901c1561056b5760010192915050565b60008183106122925781610ec7565b5090919050565b60006122a860028484186131d1565b610ec790848416612e99565b60006001600160d01b03821115611072576040516306dfcc6560e41b815260d06004820152602481018390526044016106e4565b6000806123146122f6610cf3565b61230c612302886115c7565b868863ffffffff16565b8791906125b8565b915091505b935093915050565b60007f8b73c3c69bb8fe3d512ecc4cf759cc79239f7b179b0ffacaa9a75d522b39400f61234c6125c6565b612354612642565b60408051602081019490945283019190915260608201524660808201523060a082015260c00160405160208183030381529060405280519060200120905090565b7f52c63247e1f47db19d5ce0460030c497f067ca4cebf71ba98eeadabe20bace006001600160a01b0384166123e357818160020160008282546123d89190612e99565b9091555061246e9050565b6001600160a01b0384166000908152602082905260409020548281101561244f576040517fe450d38c0000000000000000000000000000000000000000000000000000000081526001600160a01b038616600482015260248101829052604481018490526064016106e4565b6001600160a01b03851660009081526020839052604090209083900390555b6001600160a01b03831661248c5760028101805483900390556124ab565b6001600160a01b03831660009081526020829052604090208054830190555b826001600160a01b0316846001600160a01b03167fddf252ad1be2c89b69c2b068fc378daa952ba7f163c4a11628f55a4df523b3ef846040516124f091815260200190565b60405180910390a350505050565b7fe8b26c30fad74198956032a3533d903385d56dd795af560196f9c78d4af40d006001600160a01b0384166125435761254081600201610ece611dc0856122b4565b50505b6001600160a01b0383166125675761256481600201610eda611dc0856122b4565b50505b6001600160a01b0384811660009081527fe8b26c30fad74198956032a3533d903385d56dd795af560196f9c78d4af40d006020526040808220548684168352912054610fa892918216911684611d43565b600080612314858585612698565b60007fa16a46d94261c7517cc8ff89f61c0ce93598e3c849801011dee649a6a557d100816125f261154c565b80519091501561260a57805160209091012092915050565b81548015612619579392505050565b7fc5d2460186f7233c927e7db2dcc703c0e500b653ca82273b7bfad8045d85a470935050505090565b60007fa16a46d94261c7517cc8ff89f61c0ce93598e3c849801011dee649a6a557d1008161266e61159d565b80519091501561268657805160209091012092915050565b60018201548015612619579392505050565b8254600090819080156127d95760006126b6876110fa600185612e86565b60408051808201909152905465ffffffffffff80821680845266010000000000009092046001600160d01b031660208401529192509087161015612726576040517f2520601d00000000000000000000000000000000000000000000000000000000815260040160405180910390fd5b805165ffffffffffff8088169116036127755784612749886110fa600186612e86565b80546001600160d01b039290921666010000000000000265ffffffffffff9092169190911790556127c9565b6040805180820190915265ffffffffffff80881682526001600160d01b0380881660208085019182528b54600181018d5560008d815291909120945191519092166601000000000000029216919091179101555b6020015192508391506123199050565b50506040805180820190915265ffffffffffff80851682526001600160d01b0380851660208085019182528854600181018a5560008a8152918220955192519093166601000000000000029190931617920191909155905081612319565b60006020828403121561284957600080fd5b81356001600160e01b031981168114610ec757600080fd5b60005b8381101561287c578181015183820152602001612864565b50506000910152565b6000815180845261289d816020860160208601612861565b601f01601f19169290920160200192915050565b602081526000610ec76020830184612885565b80356001600160a01b03811681146128db57600080fd5b919050565b600080604083850312156128f357600080fd5b6128fc836128c4565b946020939093013593505050565b60008060006060848603121561291f57600080fd5b612928846128c4565b9250612936602085016128c4565b929592945050506040919091013590565b634e487b7160e01b600052604160045260246000fd5b6040805190810167ffffffffffffffff8111828210171561298057612980612947565b60405290565b604051601f8201601f1916810167ffffffffffffffff811182821017156129af576129af612947565b604052919050565b600067ffffffffffffffff8211156129d1576129d1612947565b50601f01601f191660200190565b600082601f8301126129f057600080fd5b8135612a036129fe826129b7565b612986565b818152846020838601011115612a1857600080fd5b816020850160208301376000918101602001919091529392505050565b600067ffffffffffffffff821115612a4f57612a4f612947565b5060051b60200190565b600082601f830112612a6a57600080fd5b8135612a786129fe82612a35565b8082825260208201915060208360051b860101925085831115612a9a57600080fd5b602085015b83811015612ab7578035835260209283019201612a9f565b5095945050505050565b60008060008060808587031215612ad757600080fd5b843567ffffffffffffffff811115612aee57600080fd5b612afa878288016129df565b945050602085013567ffffffffffffffff811115612b1757600080fd5b612b23878288016129df565b935050604085013567ffffffffffffffff811115612b4057600080fd5b850160408188031215612b5257600080fd5b612b5a61295d565b813567ffffffffffffffff811115612b7157600080fd5b8201601f81018913612b8257600080fd5b8035612b906129fe82612a35565b8082825260208201915060208360051b85010192508b831115612bb257600080fd5b6020840193505b82841015612bdb57612bca846128c4565b825260209384019390910190612bb9565b8452505050602082013567ffffffffffffffff811115612bfa57600080fd5b612c0689828501612a59565b6020830152509250612c1c9050606086016128c4565b905092959194509250565b600060208284031215612c3957600080fd5b610ec7826128c4565b7fff000000000000000000000000000000000000000000000000000000000000008816815260e060208201526000612c7d60e0830189612885565b8281036040840152612c8f8189612885565b606084018890526001600160a01b038716608085015260a0840186905283810360c08501528451808252602080870193509091019060005b81811015612ce5578351835260209384019390920191600101612cc7565b50909b9a5050505050505050505050565b600060208284031215612d0857600080fd5b5035919050565b60008060008060008060c08789031215612d2857600080fd5b612d31876128c4565b95506020870135945060408701359350606087013560ff81168114612d5557600080fd5b9598949750929560808101359460a0909101359350915050565b60008060408385031215612d8257600080fd5b612d8b836128c4565b9150612d99602084016128c4565b90509250929050565b60008060408385031215612db557600080fd5b612dbe836128c4565b9150602083013563ffffffff81168114612dd757600080fd5b809150509250929050565b600181811c90821680612df657607f821691505b602082108103612e1657634e487b7160e01b600052602260045260246000fd5b50919050565b634e487b7160e01b600052603260045260246000fd5b634e487b7160e01b600052601160045260246000fd5b6001600160d01b03818116838216019081111561056b5761056b612e32565b6001600160d01b03828116828216039081111561056b5761056b612e32565b8181038181111561056b5761056b612e32565b8082018082111561056b5761056b612e32565b634e487b7160e01b600052601260045260246000fd5b601f821115610ef357806000526020600020601f840160051c81016020851015612ee95750805b601f840160051c820191505b818110156118a65760008155600101612ef5565b815167ffffffffffffffff811115612f2357612f23612947565b612f3781612f318454612de2565b84612ec2565b6020601f821160018114612f6b5760008315612f535750848201515b600019600385901b1c1916600184901b1784556118a6565b600084815260208120601f198516915b82811015612f9b5787850151825560209485019460019092019101612f7b565b5084821015612fb95786840151600019600387901b60f8161c191681555b50505050600190811b01905550565b60008154612fd581612de2565b808552600182168015612fef576001811461302957613060565b7fffffffffffffffffffffffffffffffffffffffffffffffffffffffffffffff0083166020870152602082151560051b8701019350613060565b84600052602060002060005b838110156130575781546020828a010152600182019150602081019050613035565b87016020019450505b50505092915050565b60a08152600061307c60a0830188612fc8565b6001600160e01b0319871660208401526001600160a01b038616604084015284606084015282810360808401526130b38185612885565b98975050505050505050565b6000602082840312156130d157600080fd5b815167ffffffffffffffff8111156130e857600080fd5b8201601f810184136130f957600080fd5b80516131076129fe826129b7565b81815285602083850101111561311c57600080fd5b61312d826020830160208601612861565b95945050505050565b60c08152600061314960c083018a612fc8565b6001600160e01b0319891660208401526001600160a01b0388166040840152866060840152828103608084015284815284866020830137600060208683010152601f19601f8601168101905060208382030160a08401526131ad6020820185612885565b9a9950505050505050505050565b634e487b7160e01b600052602160045260246000fd5b6000826131ee57634e487b7160e01b600052601260045260246000fd5b50049056fea264697066735822122089ef91dee46cf2ddd879ec90783ad5c2f4a258d655e3cbb4d0985c4491061cac64736f6c634300081c0033e8b26c30fad74198956032a3533d903385d56dd795af560196f9c78d4af40d0052c63247e1f47db19d5ce0460030c497f067ca4cebf71ba98eeadabe20bace00dec2bacdd2f05b59de34da9b523dff8be42e5e38e818c82fdb0bae774387a724",
  "devdoc": {
    "author": "Peeramid Labs, adapted version from Aragon Association",
    "errors": {
      "CheckpointUnorderedInsertion()": [
        {
          "details": "A value was attempted to be inserted on a past checkpoint."
        }
      ],
      "ECDSAInvalidSignature()": [
        {
          "details": "The signature derives the `address(0)`."
        }
      ],
      "ECDSAInvalidSignatureLength(uint256)": [
        {
          "details": "The signature has an invalid length."
        }
      ],
      "ECDSAInvalidSignatureS(bytes32)": [
        {
          "details": "The signature has an S value that is in the upper half order."
        }
      ],
      "ERC20ExceededSafeSupply(uint256,uint256)": [
        {
          "details": "Total supply cap has been exceeded, introducing a risk of votes overflowing."
        }
      ],
      "ERC20InsufficientAllowance(address,uint256,uint256)": [
        {
          "details": "Indicates a failure with the `spender`s `allowance`. Used in transfers.",
          "params": {
            "allowance": "Amount of tokens a `spender` is allowed to operate with.",
            "needed": "Minimum amount required to perform a transfer.",
            "spender": "Address that may be allowed to operate on tokens without being their owner."
          }
        }
      ],
      "ERC20InsufficientBalance(address,uint256,uint256)": [
        {
          "details": "Indicates an error related to the current `balance` of a `sender`. Used in transfers.",
          "params": {
            "balance": "Current balance for the interacting account.",
            "needed": "Minimum amount required to perform a transfer.",
            "sender": "Address whose tokens are being transferred."
          }
        }
      ],
      "ERC20InvalidApprover(address)": [
        {
          "details": "Indicates a failure with the `approver` of a token to be approved. Used in approvals.",
          "params": {
            "approver": "Address initiating an approval operation."
          }
        }
      ],
      "ERC20InvalidReceiver(address)": [
        {
          "details": "Indicates a failure with the token `receiver`. Used in transfers.",
          "params": {
            "receiver": "Address to which tokens are being transferred."
          }
        }
      ],
      "ERC20InvalidSender(address)": [
        {
          "details": "Indicates a failure with the token `sender`. Used in transfers.",
          "params": {
            "sender": "Address whose tokens are being transferred."
          }
        }
      ],
      "ERC20InvalidSpender(address)": [
        {
          "details": "Indicates a failure with the `spender` to be approved. Used in approvals.",
          "params": {
            "spender": "Address that may be allowed to operate on tokens without being their owner."
          }
        }
      ],
      "ERC5805FutureLookup(uint256,uint48)": [
        {
          "details": "Lookup to future votes is not available."
        }
      ],
      "ERC6372InconsistentClock()": [
        {
          "details": "The clock was incorrectly modified."
        }
      ],
      "InvalidAccountNonce(address,uint256)": [
        {
          "details": "The nonce used for an `account` is not the expected current nonce."
        }
      ],
      "InvalidInitialization()": [
        {
          "details": "The contract is already initialized."
        }
      ],
      "MintSettingsArrayLengthMismatch(uint256,uint256)": [
        {
          "params": {
            "amountsArrayLength": "The length of the `amounts` array.",
            "receiversArrayLength": "The length of the `receivers` array."
          }
        }
      ],
      "NotInitializing()": [
        {
          "details": "The contract is not initializing."
        }
      ],
      "ReentrancyGuardReentrantCall()": [
        {
          "details": "Unauthorized reentrant call."
        }
      ],
      "SafeCastOverflowedUintDowncast(uint8,uint256)": [
        {
          "details": "Value doesn't fit in an uint of `bits` size."
        }
      ],
      "VotesExpiredSignature(uint256)": [
        {
          "details": "The signature used has expired."
        }
      ]
    },
    "events": {
      "Approval(address,address,uint256)": {
        "details": "Emitted when the allowance of a `spender` for an `owner` is set by a call to {approve}. `value` is the new allowance."
      },
      "DelegateChanged(address,address,address)": {
        "details": "Emitted when an account changes their delegate."
      },
      "DelegateVotesChanged(address,uint256,uint256)": {
        "details": "Emitted when a token transfer or delegate change results in changes to a delegate's number of voting units."
      },
      "EIP712DomainChanged()": {
        "details": "MAY be emitted to signal that the domain could have changed."
      },
      "Initialized(uint64)": {
        "details": "Triggered when the contract has been initialized or reinitialized."
      },
      "Transfer(address,address,uint256)": {
        "details": "Emitted when `value` tokens are moved from one account (`from`) to another (`to`). Note that `value` may be zero."
      }
    },
    "kind": "dev",
    "methods": {
      "CLOCK_MODE()": {
        "details": "Machine-readable description of the clock as specified in EIP-6372."
      },
      "allowance(address,address)": {
        "details": "See {IERC20-allowance}."
      },
      "approve(address,uint256)": {
        "details": "See {IERC20-approve}. NOTE: If `value` is the maximum `uint256`, the allowance is not updated on `transferFrom`. This is semantically equivalent to an infinite approval. Requirements: - `spender` cannot be the zero address."
      },
      "balanceOf(address)": {
        "details": "See {IERC20-balanceOf}."
      },
      "checkpoints(address,uint32)": {
        "details": "Get the `pos`-th checkpoint for `account`."
      },
      "clock()": {
        "details": "Clock used for flagging checkpoints. Can be overridden to implement timestamp based checkpoints (and voting), in which case {CLOCK_MODE} should be overridden as well to match."
      },
      "constructor": {
        "params": {
          "_mintSettings": "The token mint settings struct containing the `receivers` and `amounts`.",
          "_name": "The name of the [ERC-20](https://eips.ethereum.org/EIPS/eip-20) governance token.",
          "_symbol": "The symbol of the [ERC-20](https://eips.ethereum.org/EIPS/eip-20) governance token."
        }
      },
      "decimals()": {
        "details": "Returns the number of decimals used to get its user representation. For example, if `decimals` equals `2`, a balance of `505` tokens should be displayed to a user as `5.05` (`505 / 10 ** 2`). Tokens usually opt for a value of 18, imitating the relationship between Ether and Wei. This is the default value returned by this function, unless it's overridden. NOTE: This information is only used for _display_ purposes: it in no way affects any of the arithmetic of the contract, including {IERC20-balanceOf} and {IERC20-transfer}."
      },
      "delegate(address)": {
        "details": "Delegates votes from the sender to `delegatee`."
      },
      "delegateBySig(address,uint256,uint256,uint8,bytes32,bytes32)": {
        "details": "Delegates votes from signer to `delegatee`."
      },
      "delegates(address)": {
        "details": "Returns the delegate that `account` has chosen."
      },
      "eip712Domain()": {
        "details": "See {IERC-5267}."
      },
      "getPastTotalSupply(uint256)": {
        "details": "Returns the total supply of votes available at a specific moment in the past. If the `clock()` is configured to use block numbers, this will return the value at the end of the corresponding block. NOTE: This value is the sum of all available votes, which is not necessarily the sum of all delegated votes. Votes that have not been delegated are still part of total supply, even though they would not participate in a vote. Requirements: - `timepoint` must be in the past. If operating using block numbers, the block must be already mined."
      },
      "getPastVotes(address,uint256)": {
        "details": "Returns the amount of votes that `account` had at a specific moment in the past. If the `clock()` is configured to use block numbers, this will return the value at the end of the corresponding block. Requirements: - `timepoint` must be in the past. If operating using block numbers, the block must be already mined."
      },
      "getVotes(address)": {
        "details": "Returns the current amount of votes that `account` has."
      },
      "initialize(string,string,(address[],uint256[]),address)": {
        "params": {
          "_mintSettings": "The token mint settings struct containing the `receivers` and `amounts`.",
          "_name": "The name of the [ERC-20](https://eips.ethereum.org/EIPS/eip-20) governance token.",
          "_symbol": "The symbol of the [ERC-20](https://eips.ethereum.org/EIPS/eip-20) governance token."
        }
      },
      "mint(address,uint256)": {
        "params": {
          "amount": "The amount of tokens to be minted.",
          "to": "The address receiving the tokens."
        }
      },
      "name()": {
        "details": "Returns the name of the token."
      },
      "nonces(address)": {
        "details": "Returns the next unused nonce for an address."
      },
      "numCheckpoints(address)": {
        "details": "Get number of checkpoints for `account`."
      },
      "supportsInterface(bytes4)": {
        "params": {
          "interfaceId": "The ID of the interface."
        },
        "returns": {
          "_0": "Returns `true` if the interface is supported."
        }
      },
      "symbol()": {
        "details": "Returns the symbol of the token, usually a shorter version of the name."
      },
      "totalSupply()": {
        "details": "See {IERC20-totalSupply}."
      },
      "transfer(address,uint256)": {
        "details": "See {IERC20-transfer}. Requirements: - `to` cannot be the zero address. - the caller must have a balance of at least `value`."
      },
      "transferFrom(address,address,uint256)": {
        "details": "See {IERC20-transferFrom}. Emits an {Approval} event indicating the updated allowance. This is not required by the EIP. See the note at the beginning of {ERC20}. NOTE: Does not update the allowance if the current allowance is the maximum `uint256`. Requirements: - `from` and `to` cannot be the zero address. - `from` must have a balance of at least `value`. - the caller must have allowance for ``from``'s tokens of at least `value`."
      }
    },
    "title": "DistributableGovernanceERC20",
    "version": 1
  },
  "userdoc": {
    "errors": {
      "MintSettingsArrayLengthMismatch(uint256,uint256)": [
        {
          "notice": "Thrown if the number of receivers and amounts specified in the mint settings do not match."
        }
      ]
    },
    "kind": "user",
    "methods": {
      "constructor": {
        "notice": "Calls the initialize function."
      },
      "initialize(string,string,(address[],uint256[]),address)": {
        "notice": "Initializes the contract and mints tokens to a list of receivers."
      },
      "mint(address,uint256)": {
        "notice": "Mints tokens to an address."
      },
      "supportsInterface(bytes4)": {
        "notice": "Checks if this or the parent contract supports an interface by its ID."
      }
    },
    "notice": "An [OpenZeppelin `Votes`](https://docs.openzeppelin.com/contracts/4.x/api/governance#Votes) compatible [ERC-20](https://eips.ethereum.org/EIPS/eip-20) token that can be used for voting and is managed by a DAO.",
    "version": 1
  },
  "storageLayout": {
    "storage": [],
    "types": null
  }
}