{
  "address": "0xB8DF0b13eF3D2408198d65e5a9c26300FEd9519a",
  "abi": [
    {
      "inputs": [
        {
          "internalType": "contract IDAO",
          "name": "_dao",
          "type": "address"
        },
        {
          "internalType": "string",
          "name": "_name",
          "type": "string"
        },
        {
          "internalType": "string",
          "name": "_symbol",
          "type": "string"
        },
        {
          "components": [
            {
              "internalType": "address[]",
              "name": "receivers",
              "type": "address[]"
            },
            {
              "internalType": "uint256[]",
              "name": "amounts",
              "type": "uint256[]"
            }
          ],
          "internalType": "struct MintSettings",
          "name": "_mintSettings",
          "type": "tuple"
        },
        {
          "internalType": "address",
          "name": "_accessManager",
          "type": "address"
        }
      ],
      "stateMutability": "nonpayable",
      "type": "constructor"
    },
    {
      "inputs": [],
      "name": "CheckpointUnorderedInsertion",
      "type": "error"
    },
    {
      "inputs": [],
      "name": "ECDSAInvalidSignature",
      "type": "error"
    },
    {
      "inputs": [
        {
          "internalType": "uint256",
          "name": "length",
          "type": "uint256"
        }
      ],
      "name": "ECDSAInvalidSignatureLength",
      "type": "error"
    },
    {
      "inputs": [
        {
          "internalType": "bytes32",
          "name": "s",
          "type": "bytes32"
        }
      ],
      "name": "ECDSAInvalidSignatureS",
      "type": "error"
    },
    {
      "inputs": [
        {
          "internalType": "uint256",
          "name": "increasedSupply",
          "type": "uint256"
        },
        {
          "internalType": "uint256",
          "name": "cap",
          "type": "uint256"
        }
      ],
      "name": "ERC20ExceededSafeSupply",
      "type": "error"
    },
    {
      "inputs": [
        {
          "internalType": "address",
          "name": "spender",
          "type": "address"
        },
        {
          "internalType": "uint256",
          "name": "allowance",
          "type": "uint256"
        },
        {
          "internalType": "uint256",
          "name": "needed",
          "type": "uint256"
        }
      ],
      "name": "ERC20InsufficientAllowance",
      "type": "error"
    },
    {
      "inputs": [
        {
          "internalType": "address",
          "name": "sender",
          "type": "address"
        },
        {
          "internalType": "uint256",
          "name": "balance",
          "type": "uint256"
        },
        {
          "internalType": "uint256",
          "name": "needed",
          "type": "uint256"
        }
      ],
      "name": "ERC20InsufficientBalance",
      "type": "error"
    },
    {
      "inputs": [
        {
          "internalType": "address",
          "name": "approver",
          "type": "address"
        }
      ],
      "name": "ERC20InvalidApprover",
      "type": "error"
    },
    {
      "inputs": [
        {
          "internalType": "address",
          "name": "receiver",
          "type": "address"
        }
      ],
      "name": "ERC20InvalidReceiver",
      "type": "error"
    },
    {
      "inputs": [
        {
          "internalType": "address",
          "name": "sender",
          "type": "address"
        }
      ],
      "name": "ERC20InvalidSender",
      "type": "error"
    },
    {
      "inputs": [
        {
          "internalType": "address",
          "name": "spender",
          "type": "address"
        }
      ],
      "name": "ERC20InvalidSpender",
      "type": "error"
    },
    {
      "inputs": [
        {
          "internalType": "uint256",
          "name": "timepoint",
          "type": "uint256"
        },
        {
          "internalType": "uint48",
          "name": "clock",
          "type": "uint48"
        }
      ],
      "name": "ERC5805FutureLookup",
      "type": "error"
    },
    {
      "inputs": [],
      "name": "ERC6372InconsistentClock",
      "type": "error"
    },
    {
      "inputs": [
        {
          "internalType": "address",
          "name": "account",
          "type": "address"
        },
        {
          "internalType": "uint256",
          "name": "currentNonce",
          "type": "uint256"
        }
      ],
      "name": "InvalidAccountNonce",
      "type": "error"
    },
    {
      "inputs": [],
      "name": "InvalidInitialization",
      "type": "error"
    },
    {
      "inputs": [
        {
          "internalType": "uint256",
          "name": "receiversArrayLength",
          "type": "uint256"
        },
        {
          "internalType": "uint256",
          "name": "amountsArrayLength",
          "type": "uint256"
        }
      ],
      "name": "MintSettingsArrayLengthMismatch",
      "type": "error"
    },
    {
      "inputs": [],
      "name": "NotInitializing",
      "type": "error"
    },
    {
      "inputs": [],
      "name": "ReentrancyGuardReentrantCall",
      "type": "error"
    },
    {
      "inputs": [
        {
          "internalType": "uint8",
          "name": "bits",
          "type": "uint8"
        },
        {
          "internalType": "uint256",
          "name": "value",
          "type": "uint256"
        }
      ],
      "name": "SafeCastOverflowedUintDowncast",
      "type": "error"
    },
    {
      "inputs": [
        {
          "internalType": "uint256",
          "name": "expiry",
          "type": "uint256"
        }
      ],
      "name": "VotesExpiredSignature",
      "type": "error"
    },
    {
      "anonymous": false,
      "inputs": [
        {
          "indexed": true,
          "internalType": "address",
          "name": "owner",
          "type": "address"
        },
        {
          "indexed": true,
          "internalType": "address",
          "name": "spender",
          "type": "address"
        },
        {
          "indexed": false,
          "internalType": "uint256",
          "name": "value",
          "type": "uint256"
        }
      ],
      "name": "Approval",
      "type": "event"
    },
    {
      "anonymous": false,
      "inputs": [
        {
          "indexed": true,
          "internalType": "address",
          "name": "delegator",
          "type": "address"
        },
        {
          "indexed": true,
          "internalType": "address",
          "name": "fromDelegate",
          "type": "address"
        },
        {
          "indexed": true,
          "internalType": "address",
          "name": "toDelegate",
          "type": "address"
        }
      ],
      "name": "DelegateChanged",
      "type": "event"
    },
    {
      "anonymous": false,
      "inputs": [
        {
          "indexed": true,
          "internalType": "address",
          "name": "delegate",
          "type": "address"
        },
        {
          "indexed": false,
          "internalType": "uint256",
          "name": "previousVotes",
          "type": "uint256"
        },
        {
          "indexed": false,
          "internalType": "uint256",
          "name": "newVotes",
          "type": "uint256"
        }
      ],
      "name": "DelegateVotesChanged",
      "type": "event"
    },
    {
      "anonymous": false,
      "inputs": [],
      "name": "EIP712DomainChanged",
      "type": "event"
    },
    {
      "anonymous": false,
      "inputs": [
        {
          "indexed": false,
          "internalType": "uint64",
          "name": "version",
          "type": "uint64"
        }
      ],
      "name": "Initialized",
      "type": "event"
    },
    {
      "anonymous": false,
      "inputs": [
        {
          "indexed": true,
          "internalType": "address",
          "name": "from",
          "type": "address"
        },
        {
          "indexed": true,
          "internalType": "address",
          "name": "to",
          "type": "address"
        },
        {
          "indexed": false,
          "internalType": "uint256",
          "name": "value",
          "type": "uint256"
        }
      ],
      "name": "Transfer",
      "type": "event"
    },
    {
      "inputs": [],
      "name": "CLOCK_MODE",
      "outputs": [
        {
          "internalType": "string",
          "name": "",
          "type": "string"
        }
      ],
      "stateMutability": "view",
      "type": "function"
    },
    {
      "inputs": [
        {
          "internalType": "address",
          "name": "owner",
          "type": "address"
        },
        {
          "internalType": "address",
          "name": "spender",
          "type": "address"
        }
      ],
      "name": "allowance",
      "outputs": [
        {
          "internalType": "uint256",
          "name": "",
          "type": "uint256"
        }
      ],
      "stateMutability": "view",
      "type": "function"
    },
    {
      "inputs": [
        {
          "internalType": "address",
          "name": "spender",
          "type": "address"
        },
        {
          "internalType": "uint256",
          "name": "value",
          "type": "uint256"
        }
      ],
      "name": "approve",
      "outputs": [
        {
          "internalType": "bool",
          "name": "",
          "type": "bool"
        }
      ],
      "stateMutability": "nonpayable",
      "type": "function"
    },
    {
      "inputs": [
        {
          "internalType": "address",
          "name": "account",
          "type": "address"
        }
      ],
      "name": "balanceOf",
      "outputs": [
        {
          "internalType": "uint256",
          "name": "",
          "type": "uint256"
        }
      ],
      "stateMutability": "view",
      "type": "function"
    },
    {
      "inputs": [
        {
          "internalType": "address",
          "name": "account",
          "type": "address"
        },
        {
          "internalType": "uint32",
          "name": "pos",
          "type": "uint32"
        }
      ],
      "name": "checkpoints",
      "outputs": [
        {
          "components": [
            {
              "internalType": "uint48",
              "name": "_key",
              "type": "uint48"
            },
            {
              "internalType": "uint208",
              "name": "_value",
              "type": "uint208"
            }
          ],
          "internalType": "struct Checkpoints.Checkpoint208",
          "name": "",
          "type": "tuple"
        }
      ],
      "stateMutability": "view",
      "type": "function"
    },
    {
      "inputs": [],
      "name": "clock",
      "outputs": [
        {
          "internalType": "uint48",
          "name": "",
          "type": "uint48"
        }
      ],
      "stateMutability": "view",
      "type": "function"
    },
    {
      "inputs": [],
      "name": "dao",
      "outputs": [
        {
          "internalType": "contract IDAO",
          "name": "",
          "type": "address"
        }
      ],
      "stateMutability": "view",
      "type": "function"
    },
    {
      "inputs": [],
      "name": "decimals",
      "outputs": [
        {
          "internalType": "uint8",
          "name": "",
          "type": "uint8"
        }
      ],
      "stateMutability": "view",
      "type": "function"
    },
    {
      "inputs": [
        {
          "internalType": "address",
          "name": "delegatee",
          "type": "address"
        }
      ],
      "name": "delegate",
      "outputs": [],
      "stateMutability": "nonpayable",
      "type": "function"
    },
    {
      "inputs": [
        {
          "internalType": "address",
          "name": "delegatee",
          "type": "address"
        },
        {
          "internalType": "uint256",
          "name": "nonce",
          "type": "uint256"
        },
        {
          "internalType": "uint256",
          "name": "expiry",
          "type": "uint256"
        },
        {
          "internalType": "uint8",
          "name": "v",
          "type": "uint8"
        },
        {
          "internalType": "bytes32",
          "name": "r",
          "type": "bytes32"
        },
        {
          "internalType": "bytes32",
          "name": "s",
          "type": "bytes32"
        }
      ],
      "name": "delegateBySig",
      "outputs": [],
      "stateMutability": "nonpayable",
      "type": "function"
    },
    {
      "inputs": [
        {
          "internalType": "address",
          "name": "account",
          "type": "address"
        }
      ],
      "name": "delegates",
      "outputs": [
        {
          "internalType": "address",
          "name": "",
          "type": "address"
        }
      ],
      "stateMutability": "view",
      "type": "function"
    },
    {
      "inputs": [],
      "name": "eip712Domain",
      "outputs": [
        {
          "internalType": "bytes1",
          "name": "fields",
          "type": "bytes1"
        },
        {
          "internalType": "string",
          "name": "name",
          "type": "string"
        },
        {
          "internalType": "string",
          "name": "version",
          "type": "string"
        },
        {
          "internalType": "uint256",
          "name": "chainId",
          "type": "uint256"
        },
        {
          "internalType": "address",
          "name": "verifyingContract",
          "type": "address"
        },
        {
          "internalType": "bytes32",
          "name": "salt",
          "type": "bytes32"
        },
        {
          "internalType": "uint256[]",
          "name": "extensions",
          "type": "uint256[]"
        }
      ],
      "stateMutability": "view",
      "type": "function"
    },
    {
      "inputs": [
        {
          "internalType": "uint256",
          "name": "timepoint",
          "type": "uint256"
        }
      ],
      "name": "getPastTotalSupply",
      "outputs": [
        {
          "internalType": "uint256",
          "name": "",
          "type": "uint256"
        }
      ],
      "stateMutability": "view",
      "type": "function"
    },
    {
      "inputs": [
        {
          "internalType": "address",
          "name": "account",
          "type": "address"
        },
        {
          "internalType": "uint256",
          "name": "timepoint",
          "type": "uint256"
        }
      ],
      "name": "getPastVotes",
      "outputs": [
        {
          "internalType": "uint256",
          "name": "",
          "type": "uint256"
        }
      ],
      "stateMutability": "view",
      "type": "function"
    },
    {
      "inputs": [
        {
          "internalType": "address",
          "name": "account",
          "type": "address"
        }
      ],
      "name": "getVotes",
      "outputs": [
        {
          "internalType": "uint256",
          "name": "",
          "type": "uint256"
        }
      ],
      "stateMutability": "view",
      "type": "function"
    },
    {
      "inputs": [
        {
          "internalType": "contract IDAO",
          "name": "_dao",
          "type": "address"
        },
        {
          "internalType": "string",
          "name": "_name",
          "type": "string"
        },
        {
          "internalType": "string",
          "name": "_symbol",
          "type": "string"
        },
        {
          "components": [
            {
              "internalType": "address[]",
              "name": "receivers",
              "type": "address[]"
            },
            {
              "internalType": "uint256[]",
              "name": "amounts",
              "type": "uint256[]"
            }
          ],
          "internalType": "struct MintSettings",
          "name": "_mintSettings",
          "type": "tuple"
        },
        {
          "internalType": "address",
          "name": "accessManager",
          "type": "address"
        }
      ],
      "name": "initialize",
      "outputs": [],
      "stateMutability": "nonpayable",
      "type": "function"
    },
    {
      "inputs": [
        {
          "internalType": "address",
          "name": "to",
          "type": "address"
        },
        {
          "internalType": "uint256",
          "name": "amount",
          "type": "uint256"
        }
      ],
      "name": "mint",
      "outputs": [],
      "stateMutability": "nonpayable",
      "type": "function"
    },
    {
      "inputs": [],
      "name": "name",
      "outputs": [
        {
          "internalType": "string",
          "name": "",
          "type": "string"
        }
      ],
      "stateMutability": "view",
      "type": "function"
    },
    {
      "inputs": [
        {
          "internalType": "address",
          "name": "owner",
          "type": "address"
        }
      ],
      "name": "nonces",
      "outputs": [
        {
          "internalType": "uint256",
          "name": "",
          "type": "uint256"
        }
      ],
      "stateMutability": "view",
      "type": "function"
    },
    {
      "inputs": [
        {
          "internalType": "address",
          "name": "account",
          "type": "address"
        }
      ],
      "name": "numCheckpoints",
      "outputs": [
        {
          "internalType": "uint32",
          "name": "",
          "type": "uint32"
        }
      ],
      "stateMutability": "view",
      "type": "function"
    },
    {
      "inputs": [
        {
          "internalType": "bytes4",
          "name": "interfaceId",
          "type": "bytes4"
        }
      ],
      "name": "supportsInterface",
      "outputs": [
        {
          "internalType": "bool",
          "name": "",
          "type": "bool"
        }
      ],
      "stateMutability": "view",
      "type": "function"
    },
    {
      "inputs": [],
      "name": "symbol",
      "outputs": [
        {
          "internalType": "string",
          "name": "",
          "type": "string"
        }
      ],
      "stateMutability": "view",
      "type": "function"
    },
    {
      "inputs": [],
      "name": "totalSupply",
      "outputs": [
        {
          "internalType": "uint256",
          "name": "",
          "type": "uint256"
        }
      ],
      "stateMutability": "view",
      "type": "function"
    },
    {
      "inputs": [
        {
          "internalType": "address",
          "name": "to",
          "type": "address"
        },
        {
          "internalType": "uint256",
          "name": "value",
          "type": "uint256"
        }
      ],
      "name": "transfer",
      "outputs": [
        {
          "internalType": "bool",
          "name": "",
          "type": "bool"
        }
      ],
      "stateMutability": "nonpayable",
      "type": "function"
    },
    {
      "inputs": [
        {
          "internalType": "address",
          "name": "from",
          "type": "address"
        },
        {
          "internalType": "address",
          "name": "to",
          "type": "address"
        },
        {
          "internalType": "uint256",
          "name": "value",
          "type": "uint256"
        }
      ],
      "name": "transferFrom",
      "outputs": [
        {
          "internalType": "bool",
          "name": "",
          "type": "bool"
        }
      ],
      "stateMutability": "nonpayable",
      "type": "function"
    }
  ],
  "transactionHash": "0xb630699be7e98257e67ce0e161d14d5516154f251b116b3472e0d4b530d877e3",
  "args": [
    "0x0000000000000000000000000000000000000000",
    "TokenName",
    "tkn",
    {
      "amounts": [],
      "receivers": []
    },
    "0x0000000000000000000000000000000000000000"
  ],
  "numDeployments": 1,
  "solcInputHash": "8b178e5db390f3cab8ab670750551215",
  "bytecode": "0x60806040523480156200001157600080fd5b506040516200466538038062004665833981016040819052620000349162000fa1565b6200004385858585856200004e565b505050505062001334565b7ff0c57e16840df040f15088dc2f81fe391c3923bec73e23a9662efc9c229c6a00805468010000000000000000810460ff1615906001600160401b0316600081158015620000995750825b90506000826001600160401b03166001148015620000b65750303b155b905081158015620000c5575080155b15620000e45760405163f92ee8a960e01b815260040160405180910390fd5b84546001600160401b031916600117855583156200011357845460ff60401b1916680100000000000000001785555b604080516001808252818301909252600091816020015b6040805180820190915260008152606060208201528152602001906001900390816200012a5790505090506040518060400160405280886001600160a01b03168152602001604051806020016040528060008152508152508160008151811062000198576200019862001119565b6020908102919091010152620001ae81620002cc565b60208801515188515114620001ed578751516020890151516040516398b1381560e01b8152600481019290925260248201526044015b60405180910390fd5b620001f98a8a6200031f565b620002048b62000339565b60005b885151811015620002775762000264896000015182815181106200022f576200022f62001119565b60200260200101518a60200151838151811062000250576200025062001119565b60200260200101516200036560201b60201c565b6200026f8162001145565b905062000207565b50508315620002c057845460ff60401b19168555604051600181527fc7f505b2f371ae2175ee4913f4499e1f2633a7b5936321eed1cdaeb6115181d29060200160405180910390a15b50505050505050505050565b805160005b818110156200031a5762000307838281518110620002f357620002f362001119565b60200260200101516200039f60201b60201c565b620003128162001145565b9050620002d1565b505050565b6200032962000452565b620003358282620004a3565b5050565b6200034362000452565b600080546001600160a01b0319166001600160a01b0392909216919091179055565b6001600160a01b038216620003915760405163ec442f0560e01b815260006004820152602401620001e4565b620003356000838362000501565b7f650fcebb359486b662eb1b0aa6a1d52f283f87f1ffcacdfb2b58744a08e075ae8054600181018255600082905282517fda2a52c55025b17bec7d5eef42765efcfebc5e19591a1b3d775cf38f4689f236600290920291820180546001600160a01b0319166001600160a01b03909216919091178155602084015184927fda2a52c55025b17bec7d5eef42765efcfebc5e19591a1b3d775cf38f4689f23701906200044b9082620011ef565b5050505050565b7ff0c57e16840df040f15088dc2f81fe391c3923bec73e23a9662efc9c229c6a005468010000000000000000900460ff16620004a157604051631afcd79f60e31b815260040160405180910390fd5b565b620004ad62000452565b600080516020620046258339815191527f52c63247e1f47db19d5ce0460030c497f067ca4cebf71ba98eeadabe20bace03620004ea8482620011ef565b5060048101620004fb8382620011ef565b50505050565b6200050e8383836200057a565b6001600160a01b038216158015906200053557506200052d8262000608565b63ffffffff16155b80156200056857506001600160a01b03828116600090815260008051602062004605833981519152602052604090205416155b156200031a576200031a82806200061b565b62000587838383620006d2565b6001600160a01b038316620005fb576000620005c17f52c63247e1f47db19d5ce0460030c497f067ca4cebf71ba98eeadabe20bace025490565b90506001600160d01b0380821115620005f857604051630e58ae9360e11b81526004810183905260248101829052604401620001e4565b50505b6200031a8383836200081a565b60006200061582620008d4565b92915050565b6000805160206200460583398151915260006200065e846001600160a01b0390811660009081526000805160206200460583398151915260205260409020541690565b6001600160a01b0385811660008181526020869052604080822080546001600160a01b031916898616908117909155905194955093928516927f3134e8a2e6d97e929a7e54011ea5485d7d196dd5f0ba4d4ef95803e8e3fc257f9190a4620004fb8184620006cc876200092f565b6200095c565b600080516020620046258339815191526001600160a01b038416620007135781816002016000828254620007079190620012bb565b90915550620007879050565b6001600160a01b03841660009081526020829052604090205482811015620007685760405163391434e360e21b81526001600160a01b03861660048201526024810182905260448101849052606401620001e4565b6001600160a01b03851660009081526020839052604090209083900390555b6001600160a01b038316620007a7576002810180548390039055620007c6565b6001600160a01b03831660009081526020829052604090208054830190555b826001600160a01b0316846001600160a01b03167fddf252ad1be2c89b69c2b068fc378daa952ba7f163c4a11628f55a4df523b3ef846040516200080c91815260200190565b60405180910390a350505050565b600080516020620046058339815191526001600160a01b03841662000861576200085e6002820162000ef862000ad260201b17620008588562000ae0565b62000b1a565b50505b6001600160a01b03831662000892576200088f6002820162000f0462000b5760201b17620008588562000ae0565b50505b6001600160a01b038481166000908152600080516020620046058339815191526020526040808220548684168352912054620004fb929182169116846200095c565b6001600160a01b03811660009081527fe8b26c30fad74198956032a3533d903385d56dd795af560196f9c78d4af40d0160205260408120546000805160206200460583398151915290620009289062000b65565b9392505050565b6001600160a01b038116600090815260008051602062004625833981519152602052604081205462000615565b600080516020620046058339815191526001600160a01b0384811690841614801590620009895750600082115b15620004fb576001600160a01b0384161562000a2e576001600160a01b0384166000908152600182016020908152604082208291620009d9919062000b57901b62000f0417620008588762000ae0565b6001600160d01b031691506001600160d01b03169150856001600160a01b031660008051602062004645833981519152838360405162000a23929190918252602082015260400190565b60405180910390a250505b6001600160a01b03831615620004fb576001600160a01b038316600090815260018201602090815260408220829162000a78919062000ad2901b62000ef817620008588762000ae0565b6001600160d01b031691506001600160d01b03169150846001600160a01b031660008051602062004645833981519152838360405162000ac2929190918252602082015260400190565b60405180910390a2505050505050565b6000620009288284620012d1565b60006001600160d01b0382111562000b16576040516306dfcc6560e41b815260d0600482015260248101839052604401620001e4565b5090565b60008062000b4a62000b2b62000b98565b62000b4162000b3a8862000ba9565b868860201c565b87919062000bf8565b915091505b935093915050565b6000620009288284620012fb565b600063ffffffff82111562000b16576040516306dfcc6560e41b81526020600482015260248101839052604401620001e4565b600062000ba462000c08565b905090565b8054600090801562000bef5762000bd58362000bc76001846200131e565b600091825260209091200190565b54660100000000000090046001600160d01b031662000928565b60009392505050565b60008062000b4a85858562000c15565b600062000ba44362000da7565b82546000908190801562000d4857600062000c378762000bc76001856200131e565b60408051808201909152905465ffffffffffff80821680845266010000000000009092046001600160d01b03166020840152919250908716101562000c8f57604051632520601d60e01b815260040160405180910390fd5b805165ffffffffffff80881691160362000ce3578462000cb68862000bc76001866200131e565b80546001600160d01b039290921666010000000000000265ffffffffffff90921691909117905562000d37565b6040805180820190915265ffffffffffff80881682526001600160d01b0380881660208085019182528b54600181018d5560008d815291909120945191519092166601000000000000029216919091179101555b60200151925083915062000b4f9050565b50506040805180820190915265ffffffffffff80851682526001600160d01b0380851660208085019182528854600181018a5560008a815291822095519251909316660100000000000002919093161792019190915590508162000b4f565b600065ffffffffffff82111562000b16576040516306dfcc6560e41b81526030600482015260248101839052604401620001e4565b6001600160a01b038116811462000df257600080fd5b50565b634e487b7160e01b600052604160045260246000fd5b604080519081016001600160401b038111828210171562000e305762000e3062000df5565b60405290565b604051601f8201601f191681016001600160401b038111828210171562000e615762000e6162000df5565b604052919050565b600082601f83011262000e7b57600080fd5b81516001600160401b0381111562000e975762000e9762000df5565b602062000ead601f8301601f1916820162000e36565b828152858284870101111562000ec257600080fd5b60005b8381101562000ee257858101830151828201840152820162000ec5565b506000928101909101919091529392505050565b60006001600160401b0382111562000f125762000f1262000df5565b5060051b60200190565b805162000f298162000ddc565b919050565b600082601f83011262000f4057600080fd5b8151602062000f5962000f538362000ef6565b62000e36565b82815260059290921b8401810191818101908684111562000f7957600080fd5b8286015b8481101562000f96578051835291830191830162000f7d565b509695505050505050565b600080600080600060a0868803121562000fba57600080fd5b855162000fc78162000ddc565b602087810151919650906001600160401b038082111562000fe757600080fd5b62000ff58a838b0162000e69565b965060408901519150808211156200100c57600080fd5b6200101a8a838b0162000e69565b955060608901519150808211156200103157600080fd5b908801906040828b0312156200104657600080fd5b6200105062000e0b565b8251828111156200106057600080fd5b8301601f81018c136200107257600080fd5b80516200108362000f538262000ef6565b81815260059190911b8201860190868101908e831115620010a357600080fd5b928701925b82841015620010ce578351620010be8162000ddc565b82529287019290870190620010a8565b84525050508284015182811115620010e557600080fd5b620010f38c82860162000f2e565b8583015250809550505050506200110d6080870162000f1c565b90509295509295909350565b634e487b7160e01b600052603260045260246000fd5b634e487b7160e01b600052601160045260246000fd5b6000600182016200115a576200115a6200112f565b5060010190565b600181811c908216806200117657607f821691505b6020821081036200119757634e487b7160e01b600052602260045260246000fd5b50919050565b601f8211156200031a57600081815260208120601f850160051c81016020861015620011c65750805b601f850160051c820191505b81811015620011e757828155600101620011d2565b505050505050565b81516001600160401b038111156200120b576200120b62000df5565b62001223816200121c845462001161565b846200119d565b602080601f8311600181146200125b5760008415620012425750858301515b600019600386901b1c1916600185901b178555620011e7565b600085815260208120601f198616915b828110156200128c578886015182559484019460019091019084016200126b565b5085821015620012ab5787850151600019600388901b60f8161c191681555b5050505050600190811b01905550565b808201808211156200061557620006156200112f565b6001600160d01b03818116838216019080821115620012f457620012f46200112f565b5092915050565b6001600160d01b03828116828216039080821115620012f457620012f46200112f565b818103818111156200061557620006156200112f565b6132c180620013446000396000f3fe608060405234801561001057600080fd5b50600436106101a35760003560e01c80636c8864d1116100ee57806391ddadf411610097578063a9059cbb11610071578063a9059cbb146103c7578063c3cda520146103da578063dd62ed3e146103ed578063f1127ed81461044557600080fd5b806391ddadf41461038d57806395d89b41146103ac5780639ab24eb0146103b457600080fd5b80637ecebe00116100c85780637ecebe001461034c57806384b0196e1461035f5780638e539e8c1461037a57600080fd5b80636c8864d1146102fe5780636fcfff451461031157806370a082311461033957600080fd5b80633a46b1a8116101505780634bf5d7e91161012a5780634bf5d7e914610298578063587cde1e146102a05780635c19a95c146102eb57600080fd5b80633a46b1a81461024b57806340c10f191461025e5780634162169f1461027357600080fd5b806318160ddd1161018157806318160ddd146101f857806323b872dd14610229578063313ce5671461023c57600080fd5b806301ffc9a7146101a857806306fdde03146101d0578063095ea7b3146101e5575b600080fd5b6101bb6101b63660046128a6565b610484565b60405190151581526020015b60405180910390f35b6101d8610589565b6040516101c79190612920565b6101bb6101f336600461295b565b610644565b7f52c63247e1f47db19d5ce0460030c497f067ca4cebf71ba98eeadabe20bace02545b6040519081526020016101c7565b6101bb610237366004612987565b61065c565b604051601281526020016101c7565b61021b61025936600461295b565b610680565b61027161026c36600461295b565b610743565b005b6000546001600160a01b03165b6040516001600160a01b0390911681526020016101c7565b6101d86107b9565b6102806102ae3660046129c8565b6001600160a01b0390811660009081527fe8b26c30fad74198956032a3533d903385d56dd795af560196f9c78d4af40d0060205260409020541690565b6102716102f93660046129c8565b61084a565b61027161030c366004612b5d565b610855565b61032461031f3660046129c8565b610b01565b60405163ffffffff90911681526020016101c7565b61021b6103473660046129c8565b610b0c565b61021b61035a3660046129c8565b610b51565b610367610b7a565b6040516101c79796959493929190612cb8565b61021b610388366004612d6a565b610c76565b610395610d1d565b60405165ffffffffffff90911681526020016101c7565b6101d8610d2c565b61021b6103c23660046129c8565b610d7d565b6101bb6103d536600461295b565b610def565b6102716103e8366004612d83565b610dfd565b61021b6103fb366004612de5565b6001600160a01b0391821660009081527f52c63247e1f47db19d5ce0460030c497f067ca4cebf71ba98eeadabe20bace016020908152604080832093909416825291909152205490565b610458610453366004612e1e565b610ed3565b60408051825165ffffffffffff1681526020928301516001600160d01b031692810192909252016101c7565b60006001600160e01b031982167f942e8b220000000000000000000000000000000000000000000000000000000014806104e757506001600160e01b031982167fa219a02500000000000000000000000000000000000000000000000000000000145b8061051b57506001600160e01b031982167f3327c9eb00000000000000000000000000000000000000000000000000000000145b8061054f57506001600160e01b031982167f40c10f1900000000000000000000000000000000000000000000000000000000145b8061058357507f01ffc9a7000000000000000000000000000000000000000000000000000000006001600160e01b03198316145b92915050565b606060007f52c63247e1f47db19d5ce0460030c497f067ca4cebf71ba98eeadabe20bace005b90508060030180546105c090612e55565b80601f01602080910402602001604051908101604052809291908181526020018280546105ec90612e55565b80156106395780601f1061060e57610100808354040283529160200191610639565b820191906000526020600020905b81548152906001019060200180831161061c57829003601f168201915b505050505091505090565b600033610652818585610f10565b5060019392505050565b60003361066a858285610f22565b610675858585610fd8565b506001949350505050565b60007fe8b26c30fad74198956032a3533d903385d56dd795af560196f9c78d4af40d00816106ac610d1d565b90508065ffffffffffff168410610705576040517fecd3f81e0000000000000000000000000000000000000000000000000000000081526004810185905265ffffffffffff821660248201526044015b60405180910390fd5b61073161071185611069565b6001600160a01b03871660009081526001850160205260409020906110a0565b6001600160d01b031695945050505050565b61074b611159565b6000356001600160e01b0319163360003660008061076c86868686866111da565b905061077888886112fb565b61078686868686868661134a565b5050505050506107b560017f9b779b17422d0df92223018b32b4d1fa46e071723d6817e2486d003becc55f0055565b5050565b60606107c36113ef565b65ffffffffffff166107d3610d1d565b65ffffffffffff1614610812576040517f6ff0714000000000000000000000000000000000000000000000000000000000815260040160405180910390fd5b5060408051808201909152601d81527f6d6f64653d626c6f636b6e756d6265722666726f6d3d64656661756c74000000602082015290565b336107b581836113fa565b7ff0c57e16840df040f15088dc2f81fe391c3923bec73e23a9662efc9c229c6a00805468010000000000000000810460ff16159067ffffffffffffffff166000811580156108a05750825b905060008267ffffffffffffffff1660011480156108bd5750303b155b9050811580156108cb575080155b15610902576040517ff92ee8a900000000000000000000000000000000000000000000000000000000815260040160405180910390fd5b84547fffffffffffffffffffffffffffffffffffffffffffffffff0000000000000000166001178555831561094d57845468ff00000000000000001916680100000000000000001785555b604080516001808252818301909252600091816020015b6040805180820190915260008152606060208201528152602001906001900390816109645790505090506040518060400160405280886001600160a01b0316815260200160405180602001604052806000815250815250816000815181106109ce576109ce612e8f565b60200260200101819052506109e2816114db565b60208801515188515114610a34578751516020890151516040517f98b13815000000000000000000000000000000000000000000000000000000008152600481019290925260248201526044016106fc565b610a3e8a8a61151a565b610a478b61152c565b60005b885151811015610aa857610a9889600001518281518110610a6d57610a6d612e8f565b60200260200101518a602001518381518110610a8b57610a8b612e8f565b60200260200101516112fb565b610aa181612ebb565b9050610a4a565b50508315610af557845468ff000000000000000019168555604051600181527fc7f505b2f371ae2175ee4913f4499e1f2633a7b5936321eed1cdaeb6115181d29060200160405180910390a15b50505050505050505050565b600061058382611563565b6000807f52c63247e1f47db19d5ce0460030c497f067ca4cebf71ba98eeadabe20bace005b6001600160a01b0390931660009081526020939093525050604090205490565b6000807f5ab42ced628888259c08ac98db1eb0cf702fc1501344311d8b100cd1bfe4bb00610b31565b600060608082808083817fa16a46d94261c7517cc8ff89f61c0ce93598e3c849801011dee649a6a557d1008054909150158015610bb957506001810154155b610c1f576040517f08c379a000000000000000000000000000000000000000000000000000000000815260206004820152601560248201527f4549503731323a20556e696e697469616c697a6564000000000000000000000060448201526064016106fc565b610c276115c6565b610c2f611617565b604080516000808252602082019092527f0f000000000000000000000000000000000000000000000000000000000000009c939b5091995046985030975095509350915050565b60007fe8b26c30fad74198956032a3533d903385d56dd795af560196f9c78d4af40d0081610ca2610d1d565b90508065ffffffffffff168410610cf6576040517fecd3f81e0000000000000000000000000000000000000000000000000000000081526004810185905265ffffffffffff821660248201526044016106fc565b610d0c610d0285611069565b60028401906110a0565b6001600160d01b0316949350505050565b6000610d276113ef565b905090565b7f52c63247e1f47db19d5ce0460030c497f067ca4cebf71ba98eeadabe20bace0480546060917f52c63247e1f47db19d5ce0460030c497f067ca4cebf71ba98eeadabe20bace00916105c090612e55565b6001600160a01b03811660009081527fe8b26c30fad74198956032a3533d903385d56dd795af560196f9c78d4af40d01602052604081207fe8b26c30fad74198956032a3533d903385d56dd795af560196f9c78d4af40d0090610ddf90611641565b6001600160d01b03169392505050565b600033610652818585610fd8565b83421115610e3a576040517f4683af0e000000000000000000000000000000000000000000000000000000008152600481018590526024016106fc565b604080517fe48329057bfd03d55e49b547132e39cffd9c1820ad7b9d4c5307691425d15adf60208201526001600160a01b038816918101919091526060810186905260808101859052600090610eb490610eac9060a0016040516020818303038152906040528051906020012061167d565b8585856116c5565b9050610ec081876116f3565b610eca81886113fa565b50505050505050565b6040805180820190915260008082526020820152610ef1838361177e565b9392505050565b6000610ef18284612ed5565b6000610ef18284612efc565b610f1d83838360016117fb565b505050565b6001600160a01b0383811660009081527f52c63247e1f47db19d5ce0460030c497f067ca4cebf71ba98eeadabe20bace0160209081526040808320938616835292905220546000198114610fd25781811015610fc3576040517ffb8f41b20000000000000000000000000000000000000000000000000000000081526001600160a01b038416600482015260248101829052604481018390526064016106fc565b610fd2848484840360006117fb565b50505050565b6001600160a01b03831661101b576040517f96c6fd1e000000000000000000000000000000000000000000000000000000008152600060048201526024016106fc565b6001600160a01b03821661105e576040517fec442f05000000000000000000000000000000000000000000000000000000008152600060048201526024016106fc565b610f1d838383611927565b600065ffffffffffff82111561109c576040516306dfcc6560e41b815260306004820152602481018390526044016106fc565b5090565b8154600090818160058111156110ff5760006110bb846119a8565b6110c59085612f1c565b60008881526020902090915081015465ffffffffffff90811690871610156110ef578091506110fd565b6110fa816001612f2f565b92505b505b600061110d87878585611a90565b9050801561114b5761113287611124600184612f1c565b600091825260209091200190565b54660100000000000090046001600160d01b031661114e565b60005b979650505050505050565b7f9b779b17422d0df92223018b32b4d1fa46e071723d6817e2486d003becc55f0080547ffffffffffffffffffffffffffffffffffffffffffffffffffffffffffffffffe016111d4576040517f3ee5aeb500000000000000000000000000000000000000000000000000000000815260040160405180910390fd5b60029055565b7f650fcebb359486b662eb1b0aa6a1d52f283f87f1ffcacdfb2b58744a08e075ae80546060919060008167ffffffffffffffff81111561121c5761121c6129e5565b60405190808252806020026020018201604052801561124f57816020015b606081526020019060019003908161123a5790505b50905060005b828110156112ee576112c084828154811061127257611272612e8f565b90600052602060002090600202018b8b8b8b8080601f0160208091040260200160405190810160405280939291908181526020018383808284376000920191909152508d9250611af2915050565b8282815181106112d2576112d2612e8f565b6020026020010181905250806112e790612ebb565b9050611255565b5098975050505050505050565b6001600160a01b03821661133e576040517fec442f05000000000000000000000000000000000000000000000000000000008152600060048201526024016106fc565b6107b560008383611927565b7f650fcebb359486b662eb1b0aa6a1d52f283f87f1ffcacdfb2b58744a08e075ae805460005b818110156113e4576113d48382611388600186612f1c565b6113929190612f1c565b815481106113a2576113a2612e8f565b90600052602060002090600202018a8a8a8a8a8a88815181106113c7576113c7612e8f565b6020026020010151611b92565b6113dd81612ebb565b9050611370565b505050505050505050565b6000610d2743611069565b7fe8b26c30fad74198956032a3533d903385d56dd795af560196f9c78d4af40d00600061145e846001600160a01b0390811660009081527fe8b26c30fad74198956032a3533d903385d56dd795af560196f9c78d4af40d0060205260409020541690565b6001600160a01b03858116600081815260208690526040808220805473ffffffffffffffffffffffffffffffffffffffff1916898616908117909155905194955093928516927f3134e8a2e6d97e929a7e54011ea5485d7d196dd5f0ba4d4ef95803e8e3fc257f9190a4610fd281846114d687611c24565b611c2f565b805160005b81811015610f1d5761150a8382815181106114fd576114fd612e8f565b6020026020010151611dbb565b61151381612ebb565b90506114e0565b611522611e72565b6107b58282611edb565b611534611e72565b6000805473ffffffffffffffffffffffffffffffffffffffff19166001600160a01b0392909216919091179055565b6001600160a01b03811660009081527fe8b26c30fad74198956032a3533d903385d56dd795af560196f9c78d4af40d0160205260408120547fe8b26c30fad74198956032a3533d903385d56dd795af560196f9c78d4af40d0090610ef190611f3e565b7fa16a46d94261c7517cc8ff89f61c0ce93598e3c849801011dee649a6a557d10280546060917fa16a46d94261c7517cc8ff89f61c0ce93598e3c849801011dee649a6a557d100916105c090612e55565b606060007fa16a46d94261c7517cc8ff89f61c0ce93598e3c849801011dee649a6a557d1006105af565b805460009080156116745761165b83611124600184612f1c565b54660100000000000090046001600160d01b0316610ef1565b60009392505050565b600061058361168a611f6f565b836040517f19010000000000000000000000000000000000000000000000000000000000008152600281019290925260228201526042902090565b6000806000806116d788888888611f79565b9250925092506116e78282612048565b50909695505050505050565b6001600160a01b03821660009081527f5ab42ced628888259c08ac98db1eb0cf702fc1501344311d8b100cd1bfe4bb0060205260409020805460018101909155818114610f1d576040517f752d88c00000000000000000000000000000000000000000000000000000000081526001600160a01b0384166004820152602481018290526044016106fc565b604080518082018252600080825260208083018290526001600160a01b03861682527fe8b26c30fad74198956032a3533d903385d56dd795af560196f9c78d4af40d019052919091207fe8b26c30fad74198956032a3533d903385d56dd795af560196f9c78d4af40d00906117f3908461214c565b949350505050565b7f52c63247e1f47db19d5ce0460030c497f067ca4cebf71ba98eeadabe20bace006001600160a01b03851661185f576040517fe602df05000000000000000000000000000000000000000000000000000000008152600060048201526024016106fc565b6001600160a01b0384166118a2576040517f94280d62000000000000000000000000000000000000000000000000000000008152600060048201526024016106fc565b6001600160a01b0380861660009081526001830160209081526040808320938816835292905220839055811561192057836001600160a01b0316856001600160a01b03167f8c5be1e5ebec7d5bd14f71427d1e84f3dd0314c0f7b2291e5b200ac8c7c3b9258560405161191791815260200190565b60405180910390a35b5050505050565b6119328383836121bf565b6001600160a01b03821615801590611956575061194e82610b01565b63ffffffff16155b801561199957506001600160a01b0382811660009081527fe8b26c30fad74198956032a3533d903385d56dd795af560196f9c78d4af40d00602052604090205416155b15610f1d57610f1d82836113fa565b6000816000036119ba57506000919050565b600060016119c78461225e565b901c6001901b905060018184816119e0576119e0612f42565b048201901c905060018184816119f8576119f8612f42565b048201901c90506001818481611a1057611a10612f42565b048201901c90506001818481611a2857611a28612f42565b048201901c90506001818481611a4057611a40612f42565b048201901c90506001818481611a5857611a58612f42565b048201901c90506001818481611a7057611a70612f42565b048201901c9050610ef181828581611a8a57611a8a612f42565b046122f2565b60005b81831015611aea576000611aa78484612308565b60008781526020902090915065ffffffffffff86169082015465ffffffffffff161115611ad657809250611ae4565b611ae1816001612f2f565b93505b50611a93565b509392505050565b84546040517f4440d2450000000000000000000000000000000000000000000000000000000081526060916000916001600160a01b0390911690634440d24590611b4b9060018b01908a908a9089908b90600401612ff3565b6000604051808303816000875af1158015611b6a573d6000803e3d6000fd5b505050506040513d6000823e601f3d908101601f1916820160405261114e9190810190613049565b86546040517fc3e9576a0000000000000000000000000000000000000000000000000000000081526001600160a01b039091169063c3e9576a90611be99060018b01908a908a9088908b908b908a906004016130c0565b600060405180830381600087803b158015611c0357600080fd5b505af1158015611c17573d6000803e3d6000fd5b5050505050505050505050565b600061058382610b0c565b7fe8b26c30fad74198956032a3533d903385d56dd795af560196f9c78d4af40d006001600160a01b0384811690841614801590611c6c5750600082115b15610fd2576001600160a01b03841615611d16576001600160a01b038416600090815260018201602052604081208190611cb190610f04611cac87612323565b612357565b6001600160d01b031691506001600160d01b03169150856001600160a01b03167fdec2bacdd2f05b59de34da9b523dff8be42e5e38e818c82fdb0bae774387a7248383604051611d0b929190918252602082015260400190565b60405180910390a250505b6001600160a01b03831615610fd2576001600160a01b038316600090815260018201602052604081208190611d5190610ef8611cac87612323565b6001600160d01b031691506001600160d01b03169150846001600160a01b03167fdec2bacdd2f05b59de34da9b523dff8be42e5e38e818c82fdb0bae774387a7248383604051611dab929190918252602082015260400190565b60405180910390a2505050505050565b7f650fcebb359486b662eb1b0aa6a1d52f283f87f1ffcacdfb2b58744a08e075ae8054600181018255600082905282517fda2a52c55025b17bec7d5eef42765efcfebc5e19591a1b3d775cf38f4689f2366002909202918201805473ffffffffffffffffffffffffffffffffffffffff19166001600160a01b03909216919091178155602084015184927fda2a52c55025b17bec7d5eef42765efcfebc5e19591a1b3d775cf38f4689f23701906119209082613193565b7ff0c57e16840df040f15088dc2f81fe391c3923bec73e23a9662efc9c229c6a005468010000000000000000900460ff16611ed9576040517fd7e6bcf800000000000000000000000000000000000000000000000000000000815260040160405180910390fd5b565b611ee3611e72565b7f52c63247e1f47db19d5ce0460030c497f067ca4cebf71ba98eeadabe20bace007f52c63247e1f47db19d5ce0460030c497f067ca4cebf71ba98eeadabe20bace03611f2f8482613193565b5060048101610fd28382613193565b600063ffffffff82111561109c576040516306dfcc6560e41b815260206004820152602481018390526044016106fc565b6000610d27612390565b600080807f7fffffffffffffffffffffffffffffff5d576e7357a4501ddfe92f46681b20a0841115611fb4575060009150600390508261203e565b604080516000808252602082018084528a905260ff891692820192909252606081018790526080810186905260019060a0016020604051602081039080840390855afa158015612008573d6000803e3d6000fd5b5050604051601f1901519150506001600160a01b0381166120345750600092506001915082905061203e565b9250600091508190505b9450945094915050565b600082600381111561205c5761205c613253565b03612065575050565b600182600381111561207957612079613253565b036120b0576040517ff645eedf00000000000000000000000000000000000000000000000000000000815260040160405180910390fd5b60028260038111156120c4576120c4613253565b036120fe576040517ffce698f7000000000000000000000000000000000000000000000000000000008152600481018290526024016106fc565b600382600381111561211257612112613253565b036107b5576040517fd78bce0c000000000000000000000000000000000000000000000000000000008152600481018290526024016106fc565b6040805180820190915260008082526020820152826000018263ffffffff168154811061217b5761217b612e8f565b60009182526020918290206040805180820190915291015465ffffffffffff81168252660100000000000090046001600160d01b0316918101919091529392505050565b6121ca838383612404565b6001600160a01b0383166122535760006122027f52c63247e1f47db19d5ce0460030c497f067ca4cebf71ba98eeadabe20bace025490565b90506001600160d01b0380821115612250576040517f1cb15d2600000000000000000000000000000000000000000000000000000000815260048101839052602481018290526044016106fc565b50505b610f1d83838361256d565b600080608083901c1561227357608092831c92015b604083901c1561228557604092831c92015b602083901c1561229757602092831c92015b601083901c156122a957601092831c92015b600883901c156122bb57600892831c92015b600483901c156122cd57600492831c92015b600283901c156122df57600292831c92015b600183901c156105835760010192915050565b60008183106123015781610ef1565b5090919050565b60006123176002848418613269565b610ef190848416612f2f565b60006001600160d01b0382111561109c576040516306dfcc6560e41b815260d06004820152602481018390526044016106fc565b600080612383612365610d1d565b61237b61237188611641565b868863ffffffff16565b879190612627565b915091505b935093915050565b60007f8b73c3c69bb8fe3d512ecc4cf759cc79239f7b179b0ffacaa9a75d522b39400f6123bb612635565b6123c36126b1565b60408051602081019490945283019190915260608201524660808201523060a082015260c00160405160208183030381529060405280519060200120905090565b7f52c63247e1f47db19d5ce0460030c497f067ca4cebf71ba98eeadabe20bace006001600160a01b03841661245257818160020160008282546124479190612f2f565b909155506124dd9050565b6001600160a01b038416600090815260208290526040902054828110156124be576040517fe450d38c0000000000000000000000000000000000000000000000000000000081526001600160a01b038616600482015260248101829052604481018490526064016106fc565b6001600160a01b03851660009081526020839052604090209083900390555b6001600160a01b0383166124fb57600281018054839003905561251a565b6001600160a01b03831660009081526020829052604090208054830190555b826001600160a01b0316846001600160a01b03167fddf252ad1be2c89b69c2b068fc378daa952ba7f163c4a11628f55a4df523b3ef8460405161255f91815260200190565b60405180910390a350505050565b7fe8b26c30fad74198956032a3533d903385d56dd795af560196f9c78d4af40d006001600160a01b0384166125b2576125af81600201610ef8611cac85612323565b50505b6001600160a01b0383166125d6576125d381600201610f04611cac85612323565b50505b6001600160a01b0384811660009081527fe8b26c30fad74198956032a3533d903385d56dd795af560196f9c78d4af40d006020526040808220548684168352912054610fd292918216911684611c2f565b600080612383858585612707565b60007fa16a46d94261c7517cc8ff89f61c0ce93598e3c849801011dee649a6a557d100816126616115c6565b80519091501561267957805160209091012092915050565b81548015612688579392505050565b7fc5d2460186f7233c927e7db2dcc703c0e500b653ca82273b7bfad8045d85a470935050505090565b60007fa16a46d94261c7517cc8ff89f61c0ce93598e3c849801011dee649a6a557d100816126dd611617565b8051909150156126f557805160209091012092915050565b60018201548015612688579392505050565b82546000908190801561284857600061272587611124600185612f1c565b60408051808201909152905465ffffffffffff80821680845266010000000000009092046001600160d01b031660208401529192509087161015612795576040517f2520601d00000000000000000000000000000000000000000000000000000000815260040160405180910390fd5b805165ffffffffffff8088169116036127e457846127b888611124600186612f1c565b80546001600160d01b039290921666010000000000000265ffffffffffff909216919091179055612838565b6040805180820190915265ffffffffffff80881682526001600160d01b0380881660208085019182528b54600181018d5560008d815291909120945191519092166601000000000000029216919091179101555b6020015192508391506123889050565b50506040805180820190915265ffffffffffff80851682526001600160d01b0380851660208085019182528854600181018a5560008a8152918220955192519093166601000000000000029190931617920191909155905081612388565b6000602082840312156128b857600080fd5b81356001600160e01b031981168114610ef157600080fd5b60005b838110156128eb5781810151838201526020016128d3565b50506000910152565b6000815180845261290c8160208601602086016128d0565b601f01601f19169290920160200192915050565b602081526000610ef160208301846128f4565b6001600160a01b038116811461294857600080fd5b50565b803561295681612933565b919050565b6000806040838503121561296e57600080fd5b823561297981612933565b946020939093013593505050565b60008060006060848603121561299c57600080fd5b83356129a781612933565b925060208401356129b781612933565b929592945050506040919091013590565b6000602082840312156129da57600080fd5b8135610ef181612933565b634e487b7160e01b600052604160045260246000fd5b6040805190810167ffffffffffffffff81118282101715612a1e57612a1e6129e5565b60405290565b604051601f8201601f1916810167ffffffffffffffff81118282101715612a4d57612a4d6129e5565b604052919050565b600067ffffffffffffffff821115612a6f57612a6f6129e5565b50601f01601f191660200190565b600082601f830112612a8e57600080fd5b8135612aa1612a9c82612a55565b612a24565b818152846020838601011115612ab657600080fd5b816020850160208301376000918101602001919091529392505050565b600067ffffffffffffffff821115612aed57612aed6129e5565b5060051b60200190565b600082601f830112612b0857600080fd5b81356020612b18612a9c83612ad3565b82815260059290921b84018101918181019086841115612b3757600080fd5b8286015b84811015612b525780358352918301918301612b3b565b509695505050505050565b600080600080600060a08688031215612b7557600080fd5b8535612b8081612933565b945060208681013567ffffffffffffffff80821115612b9e57600080fd5b612baa8a838b01612a7d565b96506040890135915080821115612bc057600080fd5b612bcc8a838b01612a7d565b95506060890135915080821115612be257600080fd5b908801906040828b031215612bf657600080fd5b612bfe6129fb565b823582811115612c0d57600080fd5b8301601f81018c13612c1e57600080fd5b8035612c2c612a9c82612ad3565b81815260059190911b8201860190868101908e831115612c4b57600080fd5b928701925b82841015612c72578335612c6381612933565b82529287019290870190612c50565b84525050508284013582811115612c8857600080fd5b612c948c828601612af7565b858301525080955050505050612cac6080870161294b565b90509295509295909350565b7fff00000000000000000000000000000000000000000000000000000000000000881681526000602060e081840152612cf460e084018a6128f4565b8381036040850152612d06818a6128f4565b606085018990526001600160a01b038816608086015260a0850187905284810360c0860152855180825283870192509083019060005b81811015612d5857835183529284019291840191600101612d3c565b50909c9b505050505050505050505050565b600060208284031215612d7c57600080fd5b5035919050565b60008060008060008060c08789031215612d9c57600080fd5b8635612da781612933565b95506020870135945060408701359350606087013560ff81168114612dcb57600080fd5b9598949750929560808101359460a0909101359350915050565b60008060408385031215612df857600080fd5b8235612e0381612933565b91506020830135612e1381612933565b809150509250929050565b60008060408385031215612e3157600080fd5b8235612e3c81612933565b9150602083013563ffffffff81168114612e1357600080fd5b600181811c90821680612e6957607f821691505b602082108103612e8957634e487b7160e01b600052602260045260246000fd5b50919050565b634e487b7160e01b600052603260045260246000fd5b634e487b7160e01b600052601160045260246000fd5b60006000198203612ece57612ece612ea5565b5060010190565b6001600160d01b03818116838216019080821115612ef557612ef5612ea5565b5092915050565b6001600160d01b03828116828216039080821115612ef557612ef5612ea5565b8181038181111561058357610583612ea5565b8082018082111561058357610583612ea5565b634e487b7160e01b600052601260045260246000fd5b60008154612f6581612e55565b808552602060018381168015612f825760018114612fba57612fe8565b7fffffffffffffffffffffffffffffffffffffffffffffffffffffffffffffff008516838901528284151560051b8901019550612fe8565b866000528260002060005b85811015612fe05781548a8201860152908301908401612fc5565b890184019650505b505050505092915050565b60a08152600061300660a0830188612f58565b6001600160e01b0319871660208401526001600160a01b0386166040840152846060840152828103608084015261303d81856128f4565b98975050505050505050565b60006020828403121561305b57600080fd5b815167ffffffffffffffff81111561307257600080fd5b8201601f8101841361308357600080fd5b8051613091612a9c82612a55565b8181528560208385010111156130a657600080fd5b6130b78260208301602086016128d0565b95945050505050565b60c0815260006130d360c083018a612f58565b6001600160e01b0319891660208401526001600160a01b0388166040840152866060840152828103608084015284815284866020830137600060208683010152601f19601f8601168101905060208382030160a084015261313760208201856128f4565b9a9950505050505050505050565b601f821115610f1d57600081815260208120601f850160051c8101602086101561316c5750805b601f850160051c820191505b8181101561318b57828155600101613178565b505050505050565b815167ffffffffffffffff8111156131ad576131ad6129e5565b6131c1816131bb8454612e55565b84613145565b602080601f8311600181146131f657600084156131de5750858301515b600019600386901b1c1916600185901b17855561318b565b600085815260208120601f198616915b8281101561322557888601518255948401946001909101908401613206565b50858210156132435787850151600019600388901b60f8161c191681555b5050505050600190811b01905550565b634e487b7160e01b600052602160045260246000fd5b60008261328657634e487b7160e01b600052601260045260246000fd5b50049056fea264697066735822122091ad8179067ce33fa05a324bed8a7bca3921bfd971ad187ada8b5018223fec3164736f6c63430008140033e8b26c30fad74198956032a3533d903385d56dd795af560196f9c78d4af40d0052c63247e1f47db19d5ce0460030c497f067ca4cebf71ba98eeadabe20bace00dec2bacdd2f05b59de34da9b523dff8be42e5e38e818c82fdb0bae774387a724",
  "devdoc": {
    "author": "Aragon Association",
    "errors": {
      "CheckpointUnorderedInsertion()": [
        {
          "details": "A value was attempted to be inserted on a past checkpoint."
        }
      ],
      "ECDSAInvalidSignature()": [
        {
          "details": "The signature derives the `address(0)`."
        }
      ],
      "ECDSAInvalidSignatureLength(uint256)": [
        {
          "details": "The signature has an invalid length."
        }
      ],
      "ECDSAInvalidSignatureS(bytes32)": [
        {
          "details": "The signature has an S value that is in the upper half order."
        }
      ],
      "ERC20ExceededSafeSupply(uint256,uint256)": [
        {
          "details": "Total supply cap has been exceeded, introducing a risk of votes overflowing."
        }
      ],
      "ERC20InsufficientAllowance(address,uint256,uint256)": [
        {
          "details": "Indicates a failure with the `spender`s `allowance`. Used in transfers.",
          "params": {
            "allowance": "Amount of tokens a `spender` is allowed to operate with.",
            "needed": "Minimum amount required to perform a transfer.",
            "spender": "Address that may be allowed to operate on tokens without being their owner."
          }
        }
      ],
      "ERC20InsufficientBalance(address,uint256,uint256)": [
        {
          "details": "Indicates an error related to the current `balance` of a `sender`. Used in transfers.",
          "params": {
            "balance": "Current balance for the interacting account.",
            "needed": "Minimum amount required to perform a transfer.",
            "sender": "Address whose tokens are being transferred."
          }
        }
      ],
      "ERC20InvalidApprover(address)": [
        {
          "details": "Indicates a failure with the `approver` of a token to be approved. Used in approvals.",
          "params": {
            "approver": "Address initiating an approval operation."
          }
        }
      ],
      "ERC20InvalidReceiver(address)": [
        {
          "details": "Indicates a failure with the token `receiver`. Used in transfers.",
          "params": {
            "receiver": "Address to which tokens are being transferred."
          }
        }
      ],
      "ERC20InvalidSender(address)": [
        {
          "details": "Indicates a failure with the token `sender`. Used in transfers.",
          "params": {
            "sender": "Address whose tokens are being transferred."
          }
        }
      ],
      "ERC20InvalidSpender(address)": [
        {
          "details": "Indicates a failure with the `spender` to be approved. Used in approvals.",
          "params": {
            "spender": "Address that may be allowed to operate on tokens without being their owner."
          }
        }
      ],
      "ERC5805FutureLookup(uint256,uint48)": [
        {
          "details": "Lookup to future votes is not available."
        }
      ],
      "ERC6372InconsistentClock()": [
        {
          "details": "The clock was incorrectly modified."
        }
      ],
      "InvalidAccountNonce(address,uint256)": [
        {
          "details": "The nonce used for an `account` is not the expected current nonce."
        }
      ],
      "InvalidInitialization()": [
        {
          "details": "The contract is already initialized."
        }
      ],
      "MintSettingsArrayLengthMismatch(uint256,uint256)": [
        {
          "params": {
            "amountsArrayLength": "The length of the `amounts` array.",
            "receiversArrayLength": "The length of the `receivers` array."
          }
        }
      ],
      "NotInitializing()": [
        {
          "details": "The contract is not initializing."
        }
      ],
      "ReentrancyGuardReentrantCall()": [
        {
          "details": "Unauthorized reentrant call."
        }
      ],
      "SafeCastOverflowedUintDowncast(uint8,uint256)": [
        {
          "details": "Value doesn't fit in an uint of `bits` size."
        }
      ],
      "VotesExpiredSignature(uint256)": [
        {
          "details": "The signature used has expired."
        }
      ]
    },
    "events": {
      "Approval(address,address,uint256)": {
        "details": "Emitted when the allowance of a `spender` for an `owner` is set by a call to {approve}. `value` is the new allowance."
      },
      "DelegateChanged(address,address,address)": {
        "details": "Emitted when an account changes their delegate."
      },
      "DelegateVotesChanged(address,uint256,uint256)": {
        "details": "Emitted when a token transfer or delegate change results in changes to a delegate's number of voting units."
      },
      "EIP712DomainChanged()": {
        "details": "MAY be emitted to signal that the domain could have changed."
      },
      "Initialized(uint64)": {
        "details": "Triggered when the contract has been initialized or reinitialized."
      },
      "Transfer(address,address,uint256)": {
        "details": "Emitted when `value` tokens are moved from one account (`from`) to another (`to`). Note that `value` may be zero."
      }
    },
    "kind": "dev",
    "methods": {
      "CLOCK_MODE()": {
        "details": "Machine-readable description of the clock as specified in EIP-6372."
      },
      "allowance(address,address)": {
        "details": "See {IERC20-allowance}."
      },
      "approve(address,uint256)": {
        "details": "See {IERC20-approve}. NOTE: If `value` is the maximum `uint256`, the allowance is not updated on `transferFrom`. This is semantically equivalent to an infinite approval. Requirements: - `spender` cannot be the zero address."
      },
      "balanceOf(address)": {
        "details": "See {IERC20-balanceOf}."
      },
      "checkpoints(address,uint32)": {
        "details": "Get the `pos`-th checkpoint for `account`."
      },
      "clock()": {
        "details": "Clock used for flagging checkpoints. Can be overridden to implement timestamp based checkpoints (and voting), in which case {CLOCK_MODE} should be overridden as well to match."
      },
      "constructor": {
        "params": {
          "_dao": "The managing DAO.",
          "_mintSettings": "The token mint settings struct containing the `receivers` and `amounts`.",
          "_name": "The name of the [ERC-20](https://eips.ethereum.org/EIPS/eip-20) governance token.",
          "_symbol": "The symbol of the [ERC-20](https://eips.ethereum.org/EIPS/eip-20) governance token."
        }
      },
      "dao()": {
        "returns": {
          "_0": "The DAO contract."
        }
      },
      "decimals()": {
        "details": "Returns the number of decimals used to get its user representation. For example, if `decimals` equals `2`, a balance of `505` tokens should be displayed to a user as `5.05` (`505 / 10 ** 2`). Tokens usually opt for a value of 18, imitating the relationship between Ether and Wei. This is the default value returned by this function, unless it's overridden. NOTE: This information is only used for _display_ purposes: it in no way affects any of the arithmetic of the contract, including {IERC20-balanceOf} and {IERC20-transfer}."
      },
      "delegate(address)": {
        "details": "Delegates votes from the sender to `delegatee`."
      },
      "delegateBySig(address,uint256,uint256,uint8,bytes32,bytes32)": {
        "details": "Delegates votes from signer to `delegatee`."
      },
      "delegates(address)": {
        "details": "Returns the delegate that `account` has chosen."
      },
      "eip712Domain()": {
        "details": "See {IERC-5267}."
      },
      "getPastTotalSupply(uint256)": {
        "details": "Returns the total supply of votes available at a specific moment in the past. If the `clock()` is configured to use block numbers, this will return the value at the end of the corresponding block. NOTE: This value is the sum of all available votes, which is not necessarily the sum of all delegated votes. Votes that have not been delegated are still part of total supply, even though they would not participate in a vote. Requirements: - `timepoint` must be in the past. If operating using block numbers, the block must be already mined."
      },
      "getPastVotes(address,uint256)": {
        "details": "Returns the amount of votes that `account` had at a specific moment in the past. If the `clock()` is configured to use block numbers, this will return the value at the end of the corresponding block. Requirements: - `timepoint` must be in the past. If operating using block numbers, the block must be already mined."
      },
      "getVotes(address)": {
        "details": "Returns the current amount of votes that `account` has."
      },
      "initialize(address,string,string,(address[],uint256[]),address)": {
        "params": {
          "_dao": "The managing DAO.",
          "_mintSettings": "The token mint settings struct containing the `receivers` and `amounts`.",
          "_name": "The name of the [ERC-20](https://eips.ethereum.org/EIPS/eip-20) governance token.",
          "_symbol": "The symbol of the [ERC-20](https://eips.ethereum.org/EIPS/eip-20) governance token."
        }
      },
      "mint(address,uint256)": {
        "params": {
          "amount": "The amount of tokens to be minted.",
          "to": "The address receiving the tokens."
        }
      },
      "name()": {
        "details": "Returns the name of the token."
      },
      "nonces(address)": {
        "details": "Returns the next unused nonce for an address."
      },
      "numCheckpoints(address)": {
        "details": "Get number of checkpoints for `account`."
      },
      "supportsInterface(bytes4)": {
        "params": {
          "interfaceId": "The ID of the interface."
        },
        "returns": {
          "_0": "Returns `true` if the interface is supported."
        }
      },
      "symbol()": {
        "details": "Returns the symbol of the token, usually a shorter version of the name."
      },
      "totalSupply()": {
        "details": "See {IERC20-totalSupply}."
      },
      "transfer(address,uint256)": {
        "details": "See {IERC20-transfer}. Requirements: - `to` cannot be the zero address. - the caller must have a balance of at least `value`."
      },
      "transferFrom(address,address,uint256)": {
        "details": "See {IERC20-transferFrom}. Emits an {Approval} event indicating the updated allowance. This is not required by the EIP. See the note at the beginning of {ERC20}. NOTE: Does not update the allowance if the current allowance is the maximum `uint256`. Requirements: - `from` and `to` cannot be the zero address. - `from` must have a balance of at least `value`. - the caller must have allowance for ``from``'s tokens of at least `value`."
      }
    },
    "title": "GovernanceERC20",
    "version": 1
  },
  "userdoc": {
    "errors": {
      "MintSettingsArrayLengthMismatch(uint256,uint256)": [
        {
          "notice": "Thrown if the number of receivers and amounts specified in the mint settings do not match."
        }
      ]
    },
    "kind": "user",
    "methods": {
      "constructor": {
        "notice": "Calls the initialize function."
      },
      "dao()": {
        "notice": "Returns the DAO contract."
      },
      "initialize(address,string,string,(address[],uint256[]),address)": {
        "notice": "Initializes the contract and mints tokens to a list of receivers."
      },
      "mint(address,uint256)": {
        "notice": "Mints tokens to an address."
      },
      "supportsInterface(bytes4)": {
        "notice": "Checks if this or the parent contract supports an interface by its ID."
      }
    },
    "notice": "An [OpenZeppelin `Votes`](https://docs.openzeppelin.com/contracts/4.x/api/governance#Votes) compatible [ERC-20](https://eips.ethereum.org/EIPS/eip-20) token that can be used for voting and is managed by a DAO.",
    "version": 1
  },
  "storageLayout": {
    "storage": [
      {
        "astId": 171,
        "contract": "src/tokens/DistributableGovernanceERC20.sol:DistributableGovernanceERC20",
        "label": "dao_",
        "offset": 0,
        "slot": "0",
        "type": "t_contract(IDAO)156"
      },
      {
        "astId": 220,
        "contract": "src/tokens/DistributableGovernanceERC20.sol:DistributableGovernanceERC20",
        "label": "__gap",
        "offset": 0,
        "slot": "1",
        "type": "t_array(t_uint256)49_storage"
      }
    ],
    "types": {
      "t_array(t_uint256)49_storage": {
        "base": "t_uint256",
        "encoding": "inplace",
        "label": "uint256[49]",
        "numberOfBytes": "1568"
      },
      "t_contract(IDAO)156": {
        "encoding": "inplace",
        "label": "contract IDAO",
        "numberOfBytes": "20"
      },
      "t_uint256": {
        "encoding": "inplace",
        "label": "uint256",
        "numberOfBytes": "32"
      }
    }
  }
}