{
  "address": "0xbaF7c7C1eDDFBd391D9a5298867818f06E2C00Db",
  "abi": [
    {
      "anonymous": false,
      "inputs": [
        {
          "indexed": true,
          "internalType": "bytes32",
          "name": "domainName",
          "type": "bytes32"
        }
      ],
      "name": "DomainActivated",
      "type": "event"
    },
    {
      "anonymous": false,
      "inputs": [
        {
          "indexed": true,
          "internalType": "bytes32",
          "name": "domainName",
          "type": "bytes32"
        },
        {
          "indexed": true,
          "internalType": "bytes32[]",
          "name": "changes",
          "type": "bytes32[]"
        }
      ],
      "name": "DomainChangesAreLive",
      "type": "event"
    },
    {
      "anonymous": false,
      "inputs": [
        {
          "indexed": true,
          "internalType": "bytes32",
          "name": "domainName",
          "type": "bytes32"
        }
      ],
      "name": "DomainDeactivated",
      "type": "event"
    },
    {
      "anonymous": false,
      "inputs": [
        {
          "indexed": true,
          "internalType": "bytes32",
          "name": "domainName",
          "type": "bytes32"
        },
        {
          "indexed": true,
          "internalType": "uint256",
          "name": "newFee",
          "type": "uint256"
        }
      ],
      "name": "DomainFeeChanged",
      "type": "event"
    },
    {
      "anonymous": false,
      "inputs": [
        {
          "indexed": true,
          "internalType": "uint256",
          "name": "domainIndex",
          "type": "uint256"
        },
        {
          "indexed": true,
          "internalType": "bytes32",
          "name": "NewDomainName",
          "type": "bytes32"
        }
      ],
      "name": "DomainNameChangeRequested",
      "type": "event"
    },
    {
      "anonymous": false,
      "inputs": [
        {
          "indexed": true,
          "internalType": "bytes32",
          "name": "domainName",
          "type": "bytes32"
        },
        {
          "indexed": false,
          "internalType": "uint256",
          "name": "amount",
          "type": "uint256"
        }
      ],
      "name": "DomainTTLChangeRequested",
      "type": "event"
    },
    {
      "anonymous": false,
      "inputs": [
        {
          "indexed": true,
          "internalType": "uint256",
          "name": "domainIndex",
          "type": "uint256"
        },
        {
          "indexed": true,
          "internalType": "uint256",
          "name": "newAmount",
          "type": "uint256"
        }
      ],
      "name": "FreeRegistrationsChanged",
      "type": "event"
    },
    {
      "anonymous": false,
      "inputs": [
        {
          "indexed": true,
          "internalType": "address",
          "name": "registrar",
          "type": "address"
        },
        {
          "indexed": false,
          "internalType": "uint256",
          "name": "freeRegistrationsNumber",
          "type": "uint256"
        },
        {
          "indexed": true,
          "internalType": "uint256",
          "name": "fee",
          "type": "uint256"
        },
        {
          "indexed": true,
          "internalType": "bytes32",
          "name": "domainName",
          "type": "bytes32"
        },
        {
          "indexed": false,
          "internalType": "uint256",
          "name": "referrerReward",
          "type": "uint256"
        },
        {
          "indexed": false,
          "internalType": "uint256",
          "name": "referralDiscount",
          "type": "uint256"
        }
      ],
      "name": "InitializedDomain",
      "type": "event"
    },
    {
      "anonymous": false,
      "inputs": [
        {
          "indexed": true,
          "internalType": "bytes32",
          "name": "domainName",
          "type": "bytes32"
        },
        {
          "indexed": false,
          "internalType": "uint256",
          "name": "reward",
          "type": "uint256"
        },
        {
          "indexed": false,
          "internalType": "uint256",
          "name": "discount",
          "type": "uint256"
        },
        {
          "indexed": true,
          "internalType": "uint256",
          "name": "freeNumber",
          "type": "uint256"
        }
      ],
      "name": "ReferralProgramChanged",
      "type": "event"
    },
    {
      "anonymous": false,
      "inputs": [
        {
          "components": [
            {
              "internalType": "address",
              "name": "wallet",
              "type": "address"
            },
            {
              "internalType": "bytes32",
              "name": "name",
              "type": "bytes32"
            },
            {
              "internalType": "bytes32",
              "name": "id",
              "type": "bytes32"
            },
            {
              "internalType": "uint96",
              "name": "nonce",
              "type": "uint96"
            },
            {
              "internalType": "bytes32",
              "name": "domainName",
              "type": "bytes32"
            }
          ],
          "indexed": false,
          "internalType": "struct LibMultipass.Record",
          "name": "refferrer",
          "type": "tuple"
        },
        {
          "components": [
            {
              "internalType": "address",
              "name": "wallet",
              "type": "address"
            },
            {
              "internalType": "bytes32",
              "name": "name",
              "type": "bytes32"
            },
            {
              "internalType": "bytes32",
              "name": "id",
              "type": "bytes32"
            },
            {
              "internalType": "uint96",
              "name": "nonce",
              "type": "uint96"
            },
            {
              "internalType": "bytes32",
              "name": "domainName",
              "type": "bytes32"
            }
          ],
          "indexed": false,
          "internalType": "struct LibMultipass.Record",
          "name": "newRecord",
          "type": "tuple"
        },
        {
          "indexed": true,
          "internalType": "bytes32",
          "name": "domainName",
          "type": "bytes32"
        }
      ],
      "name": "Referred",
      "type": "event"
    },
    {
      "anonymous": false,
      "inputs": [
        {
          "indexed": true,
          "internalType": "bytes32",
          "name": "domainName",
          "type": "bytes32"
        },
        {
          "components": [
            {
              "internalType": "address",
              "name": "wallet",
              "type": "address"
            },
            {
              "internalType": "bytes32",
              "name": "name",
              "type": "bytes32"
            },
            {
              "internalType": "bytes32",
              "name": "id",
              "type": "bytes32"
            },
            {
              "internalType": "uint96",
              "name": "nonce",
              "type": "uint96"
            },
            {
              "internalType": "bytes32",
              "name": "domainName",
              "type": "bytes32"
            }
          ],
          "indexed": false,
          "internalType": "struct LibMultipass.Record",
          "name": "NewRecord",
          "type": "tuple"
        }
      ],
      "name": "Registered",
      "type": "event"
    },
    {
      "anonymous": false,
      "inputs": [
        {
          "indexed": true,
          "internalType": "bytes32",
          "name": "domainName",
          "type": "bytes32"
        },
        {
          "indexed": true,
          "internalType": "address",
          "name": "registrar",
          "type": "address"
        }
      ],
      "name": "RegistrarChangeRequested",
      "type": "event"
    },
    {
      "anonymous": false,
      "inputs": [
        {
          "components": [
            {
              "internalType": "address",
              "name": "wallet",
              "type": "address"
            },
            {
              "internalType": "bytes32",
              "name": "name",
              "type": "bytes32"
            },
            {
              "internalType": "bytes32",
              "name": "id",
              "type": "bytes32"
            },
            {
              "internalType": "uint96",
              "name": "nonce",
              "type": "uint96"
            },
            {
              "internalType": "bytes32",
              "name": "domainName",
              "type": "bytes32"
            }
          ],
          "indexed": true,
          "internalType": "struct LibMultipass.Record",
          "name": "newRecord",
          "type": "tuple"
        },
        {
          "indexed": true,
          "internalType": "bytes32",
          "name": "oldName",
          "type": "bytes32"
        },
        {
          "indexed": true,
          "internalType": "bytes32",
          "name": "domainName",
          "type": "bytes32"
        }
      ],
      "name": "UserRecordModified",
      "type": "event"
    },
    {
      "anonymous": false,
      "inputs": [
        {
          "indexed": true,
          "internalType": "bytes32",
          "name": "domainName",
          "type": "bytes32"
        },
        {
          "indexed": true,
          "internalType": "bytes32[]",
          "name": "changes",
          "type": "bytes32[]"
        }
      ],
      "name": "changesQeueCanceled",
      "type": "event"
    },
    {
      "anonymous": false,
      "inputs": [
        {
          "indexed": true,
          "internalType": "uint256",
          "name": "amount",
          "type": "uint256"
        },
        {
          "indexed": true,
          "internalType": "address",
          "name": "account",
          "type": "address"
        }
      ],
      "name": "fundsWithdawn",
      "type": "event"
    },
    {
      "anonymous": false,
      "inputs": [
        {
          "indexed": true,
          "internalType": "bytes32",
          "name": "domainName",
          "type": "bytes32"
        },
        {
          "indexed": true,
          "internalType": "address",
          "name": "wallet",
          "type": "address"
        },
        {
          "indexed": true,
          "internalType": "bytes32",
          "name": "id",
          "type": "bytes32"
        },
        {
          "indexed": false,
          "internalType": "bytes32",
          "name": "name",
          "type": "bytes32"
        }
      ],
      "name": "nameDeleted",
      "type": "event"
    },
    {
      "inputs": [
        {
          "internalType": "bytes32",
          "name": "domainName",
          "type": "bytes32"
        }
      ],
      "name": "activateDomain",
      "outputs": [],
      "stateMutability": "nonpayable",
      "type": "function"
    },
    {
      "inputs": [
        {
          "internalType": "bytes32",
          "name": "domainName",
          "type": "bytes32"
        },
        {
          "internalType": "uint256",
          "name": "fee",
          "type": "uint256"
        }
      ],
      "name": "changeFee",
      "outputs": [],
      "stateMutability": "nonpayable",
      "type": "function"
    },
    {
      "inputs": [
        {
          "internalType": "uint256",
          "name": "referrerReward",
          "type": "uint256"
        },
        {
          "internalType": "uint256",
          "name": "freeRegistrations",
          "type": "uint256"
        },
        {
          "internalType": "uint256",
          "name": "referralDiscount",
          "type": "uint256"
        },
        {
          "internalType": "bytes32",
          "name": "domainName",
          "type": "bytes32"
        }
      ],
      "name": "changeReferralProgram",
      "outputs": [],
      "stateMutability": "nonpayable",
      "type": "function"
    },
    {
      "inputs": [
        {
          "internalType": "bytes32",
          "name": "domainName",
          "type": "bytes32"
        },
        {
          "internalType": "address",
          "name": "newRegistrar",
          "type": "address"
        }
      ],
      "name": "changeRegistrar",
      "outputs": [],
      "stateMutability": "nonpayable",
      "type": "function"
    },
    {
      "inputs": [
        {
          "internalType": "bytes32",
          "name": "domainName",
          "type": "bytes32"
        }
      ],
      "name": "deactivateDomain",
      "outputs": [],
      "stateMutability": "nonpayable",
      "type": "function"
    },
    {
      "inputs": [
        {
          "components": [
            {
              "internalType": "bytes32",
              "name": "domainName",
              "type": "bytes32"
            },
            {
              "internalType": "address",
              "name": "wallet",
              "type": "address"
            },
            {
              "internalType": "bytes32",
              "name": "name",
              "type": "bytes32"
            },
            {
              "internalType": "bytes32",
              "name": "id",
              "type": "bytes32"
            },
            {
              "internalType": "bytes32",
              "name": "targetDomain",
              "type": "bytes32"
            }
          ],
          "internalType": "struct LibMultipass.NameQuery",
          "name": "query",
          "type": "tuple"
        }
      ],
      "name": "deleteName",
      "outputs": [],
      "stateMutability": "nonpayable",
      "type": "function"
    },
    {
      "inputs": [],
      "name": "getBalance",
      "outputs": [
        {
          "internalType": "uint256",
          "name": "",
          "type": "uint256"
        }
      ],
      "stateMutability": "view",
      "type": "function"
    },
    {
      "inputs": [],
      "name": "getContractState",
      "outputs": [
        {
          "internalType": "uint256",
          "name": "",
          "type": "uint256"
        }
      ],
      "stateMutability": "view",
      "type": "function"
    },
    {
      "inputs": [
        {
          "internalType": "bytes32",
          "name": "domainName",
          "type": "bytes32"
        }
      ],
      "name": "getDomainState",
      "outputs": [
        {
          "components": [
            {
              "internalType": "bytes32",
              "name": "name",
              "type": "bytes32"
            },
            {
              "internalType": "uint256",
              "name": "fee",
              "type": "uint256"
            },
            {
              "internalType": "uint256",
              "name": "freeRegistrationsNumber",
              "type": "uint256"
            },
            {
              "internalType": "uint256",
              "name": "referrerReward",
              "type": "uint256"
            },
            {
              "internalType": "uint256",
              "name": "referralDiscount",
              "type": "uint256"
            },
            {
              "internalType": "bool",
              "name": "isActive",
              "type": "bool"
            },
            {
              "internalType": "address",
              "name": "registrar",
              "type": "address"
            },
            {
              "internalType": "uint24",
              "name": "ttl",
              "type": "uint24"
            },
            {
              "internalType": "uint256",
              "name": "registerSize",
              "type": "uint256"
            }
          ],
          "internalType": "struct LibMultipass.Domain",
          "name": "",
          "type": "tuple"
        }
      ],
      "stateMutability": "view",
      "type": "function"
    },
    {
      "inputs": [
        {
          "internalType": "uint256",
          "name": "index",
          "type": "uint256"
        }
      ],
      "name": "getDomainStateByIdx",
      "outputs": [
        {
          "components": [
            {
              "internalType": "bytes32",
              "name": "name",
              "type": "bytes32"
            },
            {
              "internalType": "uint256",
              "name": "fee",
              "type": "uint256"
            },
            {
              "internalType": "uint256",
              "name": "freeRegistrationsNumber",
              "type": "uint256"
            },
            {
              "internalType": "uint256",
              "name": "referrerReward",
              "type": "uint256"
            },
            {
              "internalType": "uint256",
              "name": "referralDiscount",
              "type": "uint256"
            },
            {
              "internalType": "bool",
              "name": "isActive",
              "type": "bool"
            },
            {
              "internalType": "address",
              "name": "registrar",
              "type": "address"
            },
            {
              "internalType": "uint24",
              "name": "ttl",
              "type": "uint24"
            },
            {
              "internalType": "uint256",
              "name": "registerSize",
              "type": "uint256"
            }
          ],
          "internalType": "struct LibMultipass.Domain",
          "name": "",
          "type": "tuple"
        }
      ],
      "stateMutability": "view",
      "type": "function"
    },
    {
      "inputs": [
        {
          "components": [
            {
              "internalType": "bytes32",
              "name": "domainName",
              "type": "bytes32"
            },
            {
              "internalType": "address",
              "name": "wallet",
              "type": "address"
            },
            {
              "internalType": "bytes32",
              "name": "name",
              "type": "bytes32"
            },
            {
              "internalType": "bytes32",
              "name": "id",
              "type": "bytes32"
            },
            {
              "internalType": "bytes32",
              "name": "targetDomain",
              "type": "bytes32"
            }
          ],
          "internalType": "struct LibMultipass.NameQuery",
          "name": "query",
          "type": "tuple"
        }
      ],
      "name": "getModifyPrice",
      "outputs": [
        {
          "internalType": "uint256",
          "name": "",
          "type": "uint256"
        }
      ],
      "stateMutability": "view",
      "type": "function"
    },
    {
      "inputs": [
        {
          "internalType": "address",
          "name": "registrar",
          "type": "address"
        },
        {
          "internalType": "uint256",
          "name": "freeRegistrationsNumber",
          "type": "uint256"
        },
        {
          "internalType": "uint256",
          "name": "fee",
          "type": "uint256"
        },
        {
          "internalType": "bytes32",
          "name": "domainName",
          "type": "bytes32"
        },
        {
          "internalType": "uint256",
          "name": "referrerReward",
          "type": "uint256"
        },
        {
          "internalType": "uint256",
          "name": "referralDiscount",
          "type": "uint256"
        }
      ],
      "name": "initializeDomain",
      "outputs": [],
      "stateMutability": "nonpayable",
      "type": "function"
    },
    {
      "inputs": [
        {
          "internalType": "bytes32",
          "name": "domainName",
          "type": "bytes32"
        },
        {
          "components": [
            {
              "internalType": "bytes32",
              "name": "domainName",
              "type": "bytes32"
            },
            {
              "internalType": "address",
              "name": "wallet",
              "type": "address"
            },
            {
              "internalType": "bytes32",
              "name": "name",
              "type": "bytes32"
            },
            {
              "internalType": "bytes32",
              "name": "id",
              "type": "bytes32"
            },
            {
              "internalType": "bytes32",
              "name": "targetDomain",
              "type": "bytes32"
            }
          ],
          "internalType": "struct LibMultipass.NameQuery",
          "name": "query",
          "type": "tuple"
        },
        {
          "internalType": "bytes32",
          "name": "newName",
          "type": "bytes32"
        },
        {
          "internalType": "bytes",
          "name": "registrarSignature",
          "type": "bytes"
        },
        {
          "internalType": "uint256",
          "name": "signatureDeadline",
          "type": "uint256"
        }
      ],
      "name": "modifyUserName",
      "outputs": [],
      "stateMutability": "payable",
      "type": "function"
    },
    {
      "inputs": [
        {
          "components": [
            {
              "internalType": "address",
              "name": "wallet",
              "type": "address"
            },
            {
              "internalType": "bytes32",
              "name": "name",
              "type": "bytes32"
            },
            {
              "internalType": "bytes32",
              "name": "id",
              "type": "bytes32"
            },
            {
              "internalType": "uint96",
              "name": "nonce",
              "type": "uint96"
            },
            {
              "internalType": "bytes32",
              "name": "domainName",
              "type": "bytes32"
            }
          ],
          "internalType": "struct LibMultipass.Record",
          "name": "newRecord",
          "type": "tuple"
        },
        {
          "internalType": "bytes32",
          "name": "domainName",
          "type": "bytes32"
        },
        {
          "internalType": "bytes",
          "name": "registrarSignature",
          "type": "bytes"
        },
        {
          "internalType": "uint256",
          "name": "signatureDeadline",
          "type": "uint256"
        },
        {
          "components": [
            {
              "internalType": "bytes32",
              "name": "domainName",
              "type": "bytes32"
            },
            {
              "internalType": "address",
              "name": "wallet",
              "type": "address"
            },
            {
              "internalType": "bytes32",
              "name": "name",
              "type": "bytes32"
            },
            {
              "internalType": "bytes32",
              "name": "id",
              "type": "bytes32"
            },
            {
              "internalType": "bytes32",
              "name": "targetDomain",
              "type": "bytes32"
            }
          ],
          "internalType": "struct LibMultipass.NameQuery",
          "name": "referrer",
          "type": "tuple"
        },
        {
          "internalType": "bytes",
          "name": "referralCode",
          "type": "bytes"
        }
      ],
      "name": "register",
      "outputs": [],
      "stateMutability": "payable",
      "type": "function"
    },
    {
      "inputs": [
        {
          "components": [
            {
              "internalType": "bytes32",
              "name": "domainName",
              "type": "bytes32"
            },
            {
              "internalType": "address",
              "name": "wallet",
              "type": "address"
            },
            {
              "internalType": "bytes32",
              "name": "name",
              "type": "bytes32"
            },
            {
              "internalType": "bytes32",
              "name": "id",
              "type": "bytes32"
            },
            {
              "internalType": "bytes32",
              "name": "targetDomain",
              "type": "bytes32"
            }
          ],
          "internalType": "struct LibMultipass.NameQuery",
          "name": "query",
          "type": "tuple"
        }
      ],
      "name": "resolveRecord",
      "outputs": [
        {
          "internalType": "bool",
          "name": "",
          "type": "bool"
        },
        {
          "components": [
            {
              "internalType": "address",
              "name": "wallet",
              "type": "address"
            },
            {
              "internalType": "bytes32",
              "name": "name",
              "type": "bytes32"
            },
            {
              "internalType": "bytes32",
              "name": "id",
              "type": "bytes32"
            },
            {
              "internalType": "uint96",
              "name": "nonce",
              "type": "uint96"
            },
            {
              "internalType": "bytes32",
              "name": "domainName",
              "type": "bytes32"
            }
          ],
          "internalType": "struct LibMultipass.Record",
          "name": "",
          "type": "tuple"
        }
      ],
      "stateMutability": "view",
      "type": "function"
    },
    {
      "inputs": [
        {
          "internalType": "address",
          "name": "to",
          "type": "address"
        }
      ],
      "name": "withrawFunds",
      "outputs": [],
      "stateMutability": "nonpayable",
      "type": "function"
    }
  ],
  "transactionHash": "0x4356212991e5a83b384b7b09be90e1b2d81e3455da733b1536b020adfc4c0884",
  "args": [],
  "numDeployments": 1,
  "solcInputHash": "d4243cadb17b72c1adc02b25740ca647",
  "bytecode": "0x608060405234801561001057600080fd5b50613676806100206000396000f3fe6080604052600436106100f35760003560e01c8063a5def8b71161008a578063d9eb0fd111610059578063d9eb0fd11461027f578063de12c65a1461029f578063eb924472146102bf578063f8a7e791146102d257600080fd5b8063a5def8b71461020c578063b0ffc3421461022c578063bdfa11301461024c578063ca55d6e41461025f57600080fd5b806375b83e5e116100c657806375b83e5e1461017c5780637916692c1461019c5780637f4e4849146101c9578063898c2bd7146101de57600080fd5b80630b07a3d1146100f857806312065fe01461011a5780636608ef421461013c578063743790ed1461015c575b600080fd5b34801561010457600080fd5b50610118610113366004612e26565b6102f2565b005b34801561012657600080fd5b50475b6040519081526020015b60405180910390f35b34801561014857600080fd5b50610118610157366004612e63565b61036d565b34801561016857600080fd5b50610118610177366004612ead565b610788565b34801561018857600080fd5b50610118610197366004612e26565b610871565b3480156101a857600080fd5b506101bc6101b7366004612e26565b6108ba565b6040516101339190612ed9565b3480156101d557600080fd5b506101296109ae565b3480156101ea57600080fd5b506101fe6101f936600461300d565b6109dd565b604051610133929190613029565b34801561021857600080fd5b5061012961022736600461300d565b610a19565b34801561023857600080fd5b5061011861024736600461308e565b610aa9565b61011861025a36600461316b565b610ca6565b34801561026b57600080fd5b5061011861027a3660046131d7565b61135f565b34801561028b57600080fd5b5061011861029a3660046131f9565b61145d565b3480156102ab57600080fd5b506101bc6102ba366004612e26565b6114ab565b6101186102cd366004613214565b611528565b3480156102de57600080fd5b506101186102ed36600461300d565b6118ff565b6102fa611b35565b61030381611c00565b600061030e82611d2f565b6005810180547fffffffffffffffffffffffffffffffffffffffffffffffffffffffffffffff0016600117905560405190915082907f12ba12d5905656d674e5e6eb43518e8037aa5c2d412275fed1d6c87b3579f8f490600090a25050565b610375611b35565b73ffffffffffffffffffffffffffffffffffffffff8616610443576040517f08c379a000000000000000000000000000000000000000000000000000000000815260206004820152604160248201527f4d756c7469706173732d3e696e697469616c697a65446f6d61696e3a20596f7560448201527f206d7573742070726f766964652061207265676973747261722061646472657360648201527f7300000000000000000000000000000000000000000000000000000000000000608482015260a4015b60405180910390fd5b61044c83611d9f565b6104d8576040517f08c379a000000000000000000000000000000000000000000000000000000000815260206004820152603860248201527f4d756c7469706173732d3e696e697469616c697a65446f6d61696e3a20446f6d60448201527f61696e206e616d652063616e6e6f7420626520656d7074790000000000000000606482015260840161043a565b60008381527f942042f0915323d42178db3492cec6b17698133c921389900ae2a4ec284adb09602052604090205415610593576040517f08c379a000000000000000000000000000000000000000000000000000000000815260206004820152603760248201527f4d756c7469706173732d3e696e697469616c697a65446f6d61696e3a20446f6d60448201527f61696e206e616d6520616c726561647920657869737473000000000000000000606482015260840161043a565b6000806105a08484611dbe565b909250905060018215151461065d576040517f08c379a000000000000000000000000000000000000000000000000000000000815260206004820152604760248201527f4d756c7469706173732d3e696e697469616c697a65446f6d61696e3a2072656660448201527f6572726572526577617264202b20726566657272616c446973636f756e74206f60648201527f766572666c6f7700000000000000000000000000000000000000000000000000608482015260a40161043a565b85811115610713576040517f08c379a000000000000000000000000000000000000000000000000000000000815260206004820152604760248201527f4d756c7469706173732d3e696e697469616c697a65446f6d61696e3a2072656660448201527f657272616c2076616c7565732061726520686967686572207468656e2066656560648201527f20697473656c6600000000000000000000000000000000000000000000000000608482015260a40161043a565b610721888888888888611de7565b60408051888152602081018690529081018490528590879073ffffffffffffffffffffffffffffffffffffffff8b16907fbe3801c0181d8af90729c68d92bf7b5f04bd95932ab4bd4364d75bafe12a65389060600160405180910390a45050505050505050565b610790611b35565b61079982611c00565b60006107a483611d2f565b905073ffffffffffffffffffffffffffffffffffffffff8216610823576040517f08c379a000000000000000000000000000000000000000000000000000000000815260206004820152601c60248201527f6e6577207265676973747261722063616e6e6f74206265207a65726f00000000604482015260640161043a565b600501805473ffffffffffffffffffffffffffffffffffffffff909216610100027fffffffffffffffffffffff0000000000000000000000000000000000000000ff90921691909117905550565b610879611b35565b61088281611c00565b600061088d82611d2f565b60050180547fffffffffffffffffffffffffffffffffffffffffffffffffffffffffffffff001690555050565b6040805161012081018252600080825260208201819052918101829052606081018290526080810182905260a0810182905260c0810182905260e0810182905261010081018290529061090c83611d2f565b604080516101208101825282548152600183015460208201526002830154918101919091526003820154606082015260048201546080820152600582015460ff8116151560a083015261010080820473ffffffffffffffffffffffffffffffffffffffff1660c0840152750100000000000000000000000000000000000000000090910462ffffff1660e0830152600690920154918101919091529392505050565b60006109d87f942042f0915323d42178db3492cec6b17698133c921389900ae2a4ec284adb0a5490565b905090565b6040805160a0810182526000808252602082018190529181018290526060810182905260808101829052610a1083611ee3565b91509150915091565b6000806000610a2784611ee3565b9092509050600182151514610a98576040517f08c379a000000000000000000000000000000000000000000000000000000000815260206004820152601f60248201527f6765744d6f6469667950726963652d3e75736572206e6f7420666f756e642000604482015260640161043a565b610aa181611f16565b949350505050565b610ab1611b35565b610aba81611c00565b6000610ac582611d2f565b9050600080610ad48786611dbe565b9092509050600182151514610b91576040517f08c379a000000000000000000000000000000000000000000000000000000000815260206004820152604c60248201527f4d756c7469706173732d3e6368616e6765526566657272616c50726f6772616d60448201527f3a207265666572726572526577617264202b20726566657272616c446973636f60648201527f756e74206f766572666c6f770000000000000000000000000000000000000000608482015260a40161043a565b6001830154811115610c4b576040517f08c379a000000000000000000000000000000000000000000000000000000000815260206004820152605060248201527f4d756c7469706173732d3e6368616e6765526566657272616c50726f6772616d60448201527f3a20726566657272616c2076616c75657320617265206869676865722074686560648201527f6e207468652066656520697473656c6600000000000000000000000000000000608482015260a40161043a565b6003830187905560048301859055600283018690556040805188815260208101879052879186917fa9e253dabd6e5f02d60f00939674a88ef4de2ad412ea1dc78ce69a31a4216a94910160405180910390a350505050505050565b610caf85611c00565b608084018590526000610cc186611d2f565b600581015490915060ff16610d58576040517f08c379a000000000000000000000000000000000000000000000000000000000815260206004820152603c60248201527f4d756c7469706173732d3e6d6f64696679557365724e616d653a204c69624d7560448201527f6c7469706173732e446f6d61696e206973206e6f742061637469766500000000606482015260840161043a565b83610de5576040517f08c379a000000000000000000000000000000000000000000000000000000000815260206004820152602f60248201527f4d756c7469706173732d3e6d6f64696679557365724e616d653a204e616d652060448201527f63616e6e6f7420626520656d7074790000000000000000000000000000000000606482015260840161043a565b43821015610e9b576040517f08c379a000000000000000000000000000000000000000000000000000000000815260206004820152605760248201527f4d756c7469706173732d3e6d6f64696679557365724e616d653a205369676e6160448201527f7475726520646561646c696e65206d757374206265206772656174657220746860648201527f616e2063757272656e7420626c6f636b206e756d626572000000000000000000608482015260a40161043a565b600080610ea787611ee3565b6020810180519089905291935091508190600184151514610f4a576040517f08c379a000000000000000000000000000000000000000000000000000000000815260206004820152602b60248201527f7573657220646f6573206e6f742065786973742c20757365207265676973746560448201527f72282920696e7374656164000000000000000000000000000000000000000000606482015260840161043a565b60007f829c23f309973881020b4844a250746aaa001c672df3f7b11a665572e05517998360200151846040015185608001518a8860600151604051602001610fc89695949392919095865260208601949094526040850192909252606084015260808301526bffffffffffffffffffffffff1660a082015260c00190565b604051602081830303815290604052905061100b81898860000160050160019054906101000a900473ffffffffffffffffffffffffffffffffffffffff16611f81565b611097576040517f08c379a000000000000000000000000000000000000000000000000000000000815260206004820152603060248201527f4d756c7469706173732d3e6d6f64696679557365724e616d653a204e6f74206160448201527f2076616c6964207369676e617475726500000000000000000000000000000000606482015260840161043a565b60006110a284611f16565b905080341015611134576040517f08c379a000000000000000000000000000000000000000000000000000000000815260206004820152602d60248201527f4d756c7469706173732d3e6d6f64696679557365724e616d653a204e6f74206560448201527f6e6f756768207061796d656e7400000000000000000000000000000000000000606482015260840161043a565b6060850151604080870151600090815260088a0160205220546bffffffffffffffffffffffff9081169116146111ec576040517f08c379a000000000000000000000000000000000000000000000000000000000815260206004820152602860248201527f4d756c7469706173732d3e6d6f64696679557365724e616d653a20696e76616c60448201527f6964206e6f6e6365000000000000000000000000000000000000000000000000606482015260840161043a565b60008a8152600a880160205260409020541561128a576040517f08c379a000000000000000000000000000000000000000000000000000000000815260206004820152603560248201527f4f76654d756c7469706173732d3e6d6f64696679557365724e616d653a206e6560448201527f77206e616d6520616c7265616479206578697374730000000000000000000000606482015260840161043a565b6112948785611fac565b6040808501516000908152600b89016020908152828220548252600a8a01905281812055518c90849061132190879073ffffffffffffffffffffffffffffffffffffffff825116815260208201516020820152604082015160408201526bffffffffffffffffffffffff606083015116606082015260808201516080820152600060a08201905092915050565b604051908190038120907f02d9a5627e4bd1785c150ee39c4c50a61974b9064d5ce32fe39cf6f6053efcae90600090a4505050505050505050505050565b611367611b35565b61137082611c00565b600061137b83611d2f565b600381015460048201549192509083611394838361333a565b1115611422576040517f08c379a000000000000000000000000000000000000000000000000000000000815260206004820152603c60248201527f4d756c7469706173732d3e6368616e67654665653a20726566657272616c207260448201527f65776172647320776f756c64206265636f6d6520746f6f206869676800000000606482015260840161043a565b60018301849055604051849086907f850b5f3a1167567889ff23ccba717cf63dc8e533b3ce66ebe7f9036ea50d397490600090a35050505050565b611465611b35565b60405173ffffffffffffffffffffffffffffffffffffffff8216904780156108fc02916000818181858888f193505050501580156114a7573d6000803e3d6000fd5b5050565b6040805161012081018252600080825260208201819052918101829052606081018290526080810182905260a0810182905260c0810182905260e0810182905261010081018290529061090c8360009081527f942042f0915323d42178db3492cec6b17698133c921389900ae2a4ec284adb086020526040902090565b61153185611c00565b61153d8686868661209e565b600061154886611d2f565b905060008061155685611ee3565b915091506000611565846126b5565b611634578261157557600061157b565b60038401545b905060006115a08560000160010154856115965760006126d0565b60048701546126d0565b905080341015611632576040517f08c379a000000000000000000000000000000000000000000000000000000000815260206004820152603060248201527f4d756c7469706173732d3e72656769737465723a205061796d656e742076616c60448201527f7565206973206e6f7420656e6f75676800000000000000000000000000000000606482015260840161043a565b505b61163e8a856126dc565b83546040517f21c225a8ca89ef7aa4ecf2b902d3266d4f7cfa1c0b8b6747df607375bf7638c590611670908d9061334d565b60405180910390a282156118f3578151604080517f216da2d1b8943b28c3c65d1a24b58fdf6dfd051d8f0667966ebf5d8ae37ceb76602082015273ffffffffffffffffffffffffffffffffffffffff909216828201528051808303820181526060909201905282516116e59082908890611f81565b611771576040517f08c379a000000000000000000000000000000000000000000000000000000000815260206004820152602f60248201527f4d756c7469706173732d3e72656769737465723a20526566657272616c20636f60448201527f6465206973206e6f742076616c69640000000000000000000000000000000000606482015260840161043a565b825160405173ffffffffffffffffffffffffffffffffffffffff9091169083156108fc029084906000818181858888f19350505050611832576040517f08c379a000000000000000000000000000000000000000000000000000000000815260206004820152603360248201527f4d756c7469706173732d3e72656769737465723a204661696c656420746f207360448201527f656e6420726566657272616c2072657761726400000000000000000000000000606482015260840161043a565b8a51835173ffffffffffffffffffffffffffffffffffffffff9182169116036118b7576040517f08c379a000000000000000000000000000000000000000000000000000000000815260206004820152601560248201527f43616e6e6f7420726566657220796f757273656c660000000000000000000000604482015260640161043a565b897f3afc2c4d6013c0d5dff05b266fa6eed468f77af1096838b66c1b92f34d0e904e848d6040516118e99291906133aa565b60405180910390a2505b50505050505050505050565b611907611b35565b805161191290611c00565b60006119218260000151611d2f565b60006080840181905290915080611937846109dd565b90925090506001821515146119ce576040517f08c379a000000000000000000000000000000000000000000000000000000000815260206004820152602860248201527f4d756c7469706173732d3e64656c6574654e616d653a206e616d65206e6f742060448201527f7265736f6c766564000000000000000000000000000000000000000000000000606482015260840161043a565b805173ffffffffffffffffffffffffffffffffffffffff16600090815260098401602090815260408083208390558084018051845260078701835281842080547fffffffffffffffffffffffff000000000000000000000000000000000000000016905580518452600b87018352818420849055828501518452600a87018352818420849055518352600886019091528120805460019290611a7f9084906bffffffffffffffffffffffff16613462565b92506101000a8154816bffffffffffffffffffffffff02191690836bffffffffffffffffffffffff160217905550826000016006016000815480929190611ac59061348e565b91905055508060400151816000015173ffffffffffffffffffffffffffffffffffffffff1684600001600001547fee56310501c49a670570d1edf7adfbe3fb90b4ae92c631470d3d4b059b7ab7a78460200151604051611b2791815260200190565b60405180910390a450505050565b7fc8fcad8db84d3cc18b4c41d551ea0ee66dd599cde068d998e57d5e09332c131c6004015473ffffffffffffffffffffffffffffffffffffffff163314611bfe576040517f08c379a000000000000000000000000000000000000000000000000000000000815260206004820152602260248201527f4c69624469616d6f6e643a204d75737420626520636f6e7472616374206f776e60448201527f6572000000000000000000000000000000000000000000000000000000000000606482015260840161043a565b565b611c0981611d9f565b611c95576040517f08c379a000000000000000000000000000000000000000000000000000000000815260206004820152603760248201527f6163746976617465446f6d61696e2d3e506c656173652073706563696679204c60448201527f69624d756c7469706173732e446f6d61696e206e616d65000000000000000000606482015260840161043a565b60008181527f942042f0915323d42178db3492cec6b17698133c921389900ae2a4ec284adb096020526040902054600003611d2c576040517f08c379a000000000000000000000000000000000000000000000000000000000815260206004820152601560248201527f446f6d61696e20646f6573206e6f742065786973740000000000000000000000604482015260640161043a565b50565b60007f942042f0915323d42178db3492cec6b17698133c921389900ae2a4ec284adb088082611d898560009081527f942042f0915323d42178db3492cec6b17698133c921389900ae2a4ec284adb09602052604090205490565b8152602001908152602001600020915050919050565b600081600003611db157506000919050565b506001919050565b919050565b60008083830184811015611dd9576000809250925050611de0565b6001925090505b9250929050565b7f942042f0915323d42178db3492cec6b17698133c921389900ae2a4ec284adb0a547f942042f0915323d42178db3492cec6b17698133c921389900ae2a4ec284adb0890600090611e3990600161333a565b60008181526020849052604081206005810180547fffffffffffffffffffffff0000000000000000000000000000000000000000ff1661010073ffffffffffffffffffffffffffffffffffffffff8e160217905560028082018b9055600182018a9055888255600382018890556004820187905585018054939450909291611ec0836134c3565b909155505050600094855260019091016020526040909320929092555050505050565b6040805160a0810182526000808252602082018190529181018290526060810182905260808101829052610a1083612707565b600080611f268360800151611d2f565b90506000611f3c8260000160010154600a61291a565b6060850151909150600090611f5f906bffffffffffffffffffffffff1680612926565b9050611f78611f6e8383612926565b6001850154612932565b95945050505050565b600080611f94858051906020012061293e565b9050611fa1838286612986565b9150505b9392505050565b60408181018051835173ffffffffffffffffffffffffffffffffffffffff90811660009081526009870160209081528582209390935585518451825260078801845285822080547fffffffffffffffffffffffff0000000000000000000000000000000000000000169190931617909155818501805184518352600b8801845285832055835190518252600a87018352848220559151825260088501905290812080546001929061206c9084906bffffffffffffffffffffffff16613462565b92506101000a8154816bffffffffffffffffffffffff02191690836bffffffffffffffffffffffff1602179055505050565b6040805160a08082018352600080835260208084018290528385018290526060808501839052608094850183905285519384018652828452838201838152848701848152918501848152958501939093529489015193849052878352880151909352865173ffffffffffffffffffffffffffffffffffffffff1690925261212490611d9f565b6121b0576040517f08c379a000000000000000000000000000000000000000000000000000000000815260206004820152603260248201527f5f76616c69646174654e616d6551756572792d3e206e6577207265636f72642060448201527f69642063616e6e6f7420626520656d7074790000000000000000000000000000606482015260840161043a565b80516121bb90611d9f565b612247576040517f08c379a000000000000000000000000000000000000000000000000000000000815260206004820152603660248201527f5f76616c69646174654e616d6551756572792d3e206e6577207265636f72642060448201527f646f6d61696e2063616e6e6f7420626520656d70747900000000000000000000606482015260840161043a565b602081015173ffffffffffffffffffffffffffffffffffffffff166122ee576040517f08c379a000000000000000000000000000000000000000000000000000000000815260206004820152603660248201527f5f76616c69646174654e616d6551756572792d3e206e65772065636f7264206160448201527f6464726573732063616e6e6f7420626520656d70747900000000000000000000606482015260840161043a565b60006122f982611ee3565b509050801561238a576040517f08c379a000000000000000000000000000000000000000000000000000000000815260206004820152602b60248201527f5573657220616c726561647920726567697374657265642c20757365206d6f6460448201527f69667920696e7374656164000000000000000000000000000000000000000000606482015260840161043a565b60006123998360000151611d2f565b600581015490915060ff16612430576040517f08c379a000000000000000000000000000000000000000000000000000000000815260206004820152602960248201527f4d756c7469706173732d3e72656769737465723a20646f6d61696e206973206e60448201527f6f74206163746976650000000000000000000000000000000000000000000000606482015260840161043a565b4384116124bf576040517f08c379a000000000000000000000000000000000000000000000000000000000815260206004820152603f60248201527f4d756c7469706173732d3e72656769737465723a20446561646c696e6520697360448201527f206c657373207468616e2063757272656e7420626c6f636b206e756d62657200606482015260840161043a565b604080840151606080860151865184517f829c23f309973881020b4844a250746aaa001c672df3f7b11a665572e055179960208201529485019390935290830152608082015260a08101859052600060c082018190529060e001604051602081830303815290604052905061255c81878460000160050160019054906101000a900473ffffffffffffffffffffffffffffffffffffffff16611f81565b6125e8576040517f08c379a000000000000000000000000000000000000000000000000000000000815260206004820152603560248201527f4d756c7469706173732d3e72656769737465723a20526567697374726172207360448201527f69676e6174757265206973206e6f742076616c69640000000000000000000000606482015260840161043a565b5060006125f484611ee3565b50905080156126ab576040517f08c379a000000000000000000000000000000000000000000000000000000000815260206004820152604960248201527f4d756c7469706173732d3e72656769737465723a206170706c6963616e74206960448201527f7320616c726561647920726567697374657265642c20757365206d6f6469667960648201527f20696e7374726561640000000000000000000000000000000000000000000000608482015260a40161043a565b5050505050505050565b6006810154600282015460009110611db15760005b92915050565b6000611fa582846134fb565b6126e68183611fac565b60018160000160060160008282546126fe919061333a565b90915550505050565b6040805160a0810182526000808252602082018190529181018290526060810182905260808101829052602083015173ffffffffffffffffffffffffffffffffffffffff1615801561275b57506060830151155b801561276957506040830151155b156127a15750506040805160a08101825260008082526020820181905291810182905260608101829052608081018290529092909150565b825160009081527f942042f0915323d42178db3492cec6b17698133c921389900ae2a4ec284adb09602081815260408084205484527f942042f0915323d42178db3492cec6b17698133c921389900ae2a4ec284adb0891829052832060808701519193909290918491839182901561281d578960800151612820565b89515b8152602001908152602001600020548152602001908152602001600020905060008073ffffffffffffffffffffffffffffffffffffffff16876020015173ffffffffffffffffffffffffffffffffffffffff161461288357506020860151612903565b6060870151156128bf57506060860151600090815260078301602052604090205473ffffffffffffffffffffffffffffffffffffffff16612903565b60408701511561290357506040808701516000908152600a84016020908152828220548252600785019052205473ffffffffffffffffffffffffffffffffffffffff165b61290d8183612a01565b9550955050505050915091565b6000611fa5828461350e565b6000611fa58284613549565b6000611fa5828461333a565b60006126ca61294b612abe565b836040517f19010000000000000000000000000000000000000000000000000000000000008152600281019290925260228201526042902090565b60008060006129958585612b98565b909250905060008160048111156129ae576129ae613560565b1480156129e657508573ffffffffffffffffffffffffffffffffffffffff168273ffffffffffffffffffffffffffffffffffffffff16145b806129f757506129f7868686612bda565b9695505050505050565b6040805160a0808201835260008083526020808401829052838501829052606080850183905260808086018490528651948501875283855284830184815285880185815292860185815291860185815273ffffffffffffffffffffffffffffffffffffffff8b1680875260098b018652898720548086528752600b8b018652898720549092528351865260088a01909452968420546bffffffffffffffffffffffff169052948352855490529251611dd957600092509050611de0565b7fe5b6a7afa77789577f2802f0da58895f660e5798c5c11b2ea18b0a53bd65d3a9546000907fe5b6a7afa77789577f2802f0da58895f660e5798c5c11b2ea18b0a53bd65d3a79073ffffffffffffffffffffffffffffffffffffffff1630148015612b2c5750806001015446145b15612b375754919050565b612b928160050154826003015483600401546040805160208101859052908101839052606081018290524660808201523060a082015260009060c0016040516020818303038152906040528051906020012090509392505050565b91505090565b6000808251604103612bce5760208301516040840151606085015160001a612bc287828585612d37565b94509450505050611de0565b50600090506002611de0565b60008060008573ffffffffffffffffffffffffffffffffffffffff16631626ba7e60e01b8686604051602401612c119291906135b3565b604080517fffffffffffffffffffffffffffffffffffffffffffffffffffffffffffffffe08184030181529181526020820180517bffffffffffffffffffffffffffffffffffffffffffffffffffffffff167fffffffff00000000000000000000000000000000000000000000000000000000909416939093179092529051612c9a919061360b565b600060405180830381855afa9150503d8060008114612cd5576040519150601f19603f3d011682016040523d82523d6000602084013e612cda565b606091505b5091509150818015612cee57506020815110155b80156129f7575080517f1626ba7e0000000000000000000000000000000000000000000000000000000090612d2c9083016020908101908401613627565b149695505050505050565b6000807f7fffffffffffffffffffffffffffffff5d576e7357a4501ddfe92f46681b20a0831115612d6e5750600090506003612e1d565b6040805160008082526020820180845289905260ff881692820192909252606081018690526080810185905260019060a0016020604051602081039080840390855afa158015612dc2573d6000803e3d6000fd5b50506040517fffffffffffffffffffffffffffffffffffffffffffffffffffffffffffffffe0015191505073ffffffffffffffffffffffffffffffffffffffff8116612e1657600060019250925050612e1d565b9150600090505b94509492505050565b600060208284031215612e3857600080fd5b5035919050565b803573ffffffffffffffffffffffffffffffffffffffff81168114611db957600080fd5b60008060008060008060c08789031215612e7c57600080fd5b612e8587612e3f565b9860208801359850604088013597606081013597506080810135965060a00135945092505050565b60008060408385031215612ec057600080fd5b82359150612ed060208401612e3f565b90509250929050565b600061012082019050825182526020830151602083015260408301516040830152606083015160608301526080830151608083015260a0830151151560a083015273ffffffffffffffffffffffffffffffffffffffff60c08401511660c083015260e0830151612f5060e084018262ffffff169052565b5061010092830151919092015290565b7f4e487b7100000000000000000000000000000000000000000000000000000000600052604160045260246000fd5b60405160a0810167ffffffffffffffff81118282101715612fb257612fb2612f60565b60405290565b600060a08284031215612fca57600080fd5b612fd2612f8f565b905081358152612fe460208301612e3f565b602082015260408201356040820152606082013560608201526080820135608082015292915050565b600060a0828403121561301f57600080fd5b611fa58383612fb8565b821515815260c08101611fa5602083018473ffffffffffffffffffffffffffffffffffffffff815116825260208101516020830152604081015160408301526bffffffffffffffffffffffff6060820151166060830152608081015160808301525050565b600080600080608085870312156130a457600080fd5b5050823594602084013594506040840135936060013592509050565b600082601f8301126130d157600080fd5b813567ffffffffffffffff808211156130ec576130ec612f60565b604051601f83017fffffffffffffffffffffffffffffffffffffffffffffffffffffffffffffffe0908116603f0116810190828211818310171561313257613132612f60565b8160405283815286602085880101111561314b57600080fd5b836020870160208301376000602085830101528094505050505092915050565b6000806000806000610120868803121561318457600080fd5b853594506131958760208801612fb8565b935060c0860135925060e086013567ffffffffffffffff8111156131b857600080fd5b6131c4888289016130c0565b9598949750929561010001359392505050565b600080604083850312156131ea57600080fd5b50508035926020909101359150565b60006020828403121561320b57600080fd5b611fa582612e3f565b6000806000806000808688036101c081121561322f57600080fd5b60a081121561323d57600080fd5b50613246612f8f565b61324f88612e3f565b8152602088013560208201526040880135604082015260608801356bffffffffffffffffffffffff8116811461328457600080fd5b606082015260808881013590820152955060a0870135945060c087013567ffffffffffffffff808211156132b757600080fd5b6132c38a838b016130c0565b955060e089013594506132da8a6101008b01612fb8565b93506101a08901359150808211156132f157600080fd5b506132fe89828a016130c0565b9150509295509295509295565b7f4e487b7100000000000000000000000000000000000000000000000000000000600052601160045260246000fd5b808201808211156126ca576126ca61330b565b60a081016126ca828473ffffffffffffffffffffffffffffffffffffffff815116825260208101516020830152604081015160408301526bffffffffffffffffffffffff6060820151166060830152608081015160808301525050565b6101408101613408828573ffffffffffffffffffffffffffffffffffffffff815116825260208101516020830152604081015160408301526bffffffffffffffffffffffff6060820151166060830152608081015160808301525050565b825173ffffffffffffffffffffffffffffffffffffffff1660a0830152602083015160c0830152604083015160e083015260608301516bffffffffffffffffffffffff166101008301526080830151610120830152611fa5565b6bffffffffffffffffffffffff8181168382160190808211156134875761348761330b565b5092915050565b60008161349d5761349d61330b565b507fffffffffffffffffffffffffffffffffffffffffffffffffffffffffffffffff0190565b60007fffffffffffffffffffffffffffffffffffffffffffffffffffffffffffffffff82036134f4576134f461330b565b5060010190565b818103818111156126ca576126ca61330b565b600082613544577f4e487b7100000000000000000000000000000000000000000000000000000000600052601260045260246000fd5b500490565b80820281158282048414176126ca576126ca61330b565b7f4e487b7100000000000000000000000000000000000000000000000000000000600052602160045260246000fd5b60005b838110156135aa578181015183820152602001613592565b50506000910152565b82815260406020820152600082518060408401526135d881606085016020870161358f565b601f017fffffffffffffffffffffffffffffffffffffffffffffffffffffffffffffffe016919091016060019392505050565b6000825161361d81846020870161358f565b9190910192915050565b60006020828403121561363957600080fd5b505191905056fea2646970667358221220270fc0b423977733c504b736d0c666cfdf032abd46d386032e7861c31e1f2fe964736f6c63430008140033",
  "devdoc": {
    "kind": "dev",
    "methods": {
      "activateDomain(bytes32)": {
        "details": "Activates LibMultipass.Domain name Requirements:  msg.sender is Owner  Emits an {DomainActivated} event."
      },
      "changeFee(bytes32,uint256)": {
        "details": "Changes registrar address Requirements:  msg.sender is Owner  Emits an {DomainFeeChanged} event."
      },
      "changeRegistrar(bytes32,address)": {
        "details": "Changes registrar address Requirements:  msg.sender is Owner  Emits an {RegistrarChangeRequested} event."
      },
      "deactivateDomain(bytes32)": {
        "details": "Deactivates LibMultipass.Domain name Deactivated LibMultipass.Domain cannot mutate names and will return zeros Requirements:  msg.sender is Owner OR registrar  Emits an {DomainDeactivated} event."
      },
      "deleteName((bytes32,address,bytes32,bytes32,bytes32))": {
        "details": "deletes name Requirements:  msg.sender is Owner  Emits an {DomainTTLChangeRequested} event."
      },
      "getBalance()": {
        "details": "returns balance of this contract"
      },
      "getContractState()": {
        "details": "returns contract state variables",
        "returns": {
          "_0": "(s_numDomains)"
        }
      },
      "getDomainState(bytes32)": {
        "details": "returns LibMultipass.Domain state variables",
        "params": {
          "domainName": "name of the LibMultipass.Domain"
        },
        "returns": {
          "_0": "(name, fee, freeRegistrationsNumber, referrerReward, referralDiscount, isActive, registrar, ttl, registerSize)"
        }
      },
      "initializeDomain(address,uint256,uint256,bytes32,uint256,uint256)": {
        "details": "Initializes new LibMultipass.Domain and configures it's parameters Requirements:  registrar is not zero  domainName is not empty  domainIndex is either zero(auto assign) or can be one of preoccupied LibMultipass.Domain names  domainName does not exist yet  onlyOwner  referrerReward+referralDiscount cannot be larger than fee",
        "params": {
          "domainName": "name of LibMultipass.Domain",
          "fee": "fee in base currency of network",
          "freeRegistrationsNumber": "number of registrations free of fee",
          "referralDiscount": "referral discount in base currency of network  Emits an {InitializedDomain} event.",
          "referrerReward": "referral fee share in base currency of network",
          "registrar": "address of registrar"
        }
      },
      "modifyUserName(bytes32,(bytes32,address,bytes32,bytes32,bytes32),bytes32,bytes,uint256)": {
        "details": "modifies exsisting LibMultipass.Record Requirements: resolveRecord for given arguments should return valid LibMultipass.Record LibMultipass.Domain must be active newAddress and newName should be set and be unique in current LibMultipass.Domain",
        "params": {
          "domainName": "LibMultipass.Domain",
          "newName": "new name  Emits an {Modified} event."
        }
      },
      "register((address,bytes32,bytes32,uint96,bytes32),bytes32,bytes,uint256,(bytes32,address,bytes32,bytes32,bytes32),bytes)": {
        "details": "registers new name under LibMultipass.Domain Requirements:  all arguments must be set  domainName must be active resolveRecord for given arguments should return no LibMultipass.Record  Emits an {registered} event."
      },
      "resolveRecord((bytes32,address,bytes32,bytes32,bytes32))": {
        "details": "resolves LibMultipass.Record of name query in to status and identity "
      },
      "withrawFunds(address)": {
        "details": "Withraws funds stored in smart contract Requirements:  onlyOwner  Emits an {fundsWithdawn} event."
      }
    },
    "version": 1
  },
  "userdoc": {
    "kind": "user",
    "methods": {},
    "version": 1
  },
  "storageLayout": {
    "storage": [],
    "types": null
  }
}