{
  "address": "0x1CA3156d2Ad50745Bd2fCfc18A5a8C4162d3e2aC",
  "abi": [
    {
      "inputs": [],
      "name": "currentChainId",
      "outputs": [
        {
          "internalType": "uint256",
          "name": "",
          "type": "uint256"
        }
      ],
      "stateMutability": "view",
      "type": "function"
    },
    {
      "inputs": [],
      "name": "inspectEIP712Hashes",
      "outputs": [
        {
          "internalType": "bytes32",
          "name": "_CACHED_DOMAIN_SEPARATOR",
          "type": "bytes32"
        },
        {
          "internalType": "uint256",
          "name": "_CACHED_CHAIN_ID",
          "type": "uint256"
        },
        {
          "internalType": "address",
          "name": "_CACHED_THIS",
          "type": "address"
        },
        {
          "internalType": "bytes32",
          "name": "_HASHED_NAME",
          "type": "bytes32"
        },
        {
          "internalType": "bytes32",
          "name": "_HASHED_VERSION",
          "type": "bytes32"
        },
        {
          "internalType": "bytes32",
          "name": "_TYPE_HASH",
          "type": "bytes32"
        }
      ],
      "stateMutability": "view",
      "type": "function"
    }
  ],
  "args": [],
  "numDeployments": 1,
  "solcInputHash": "98f223e0e15a68b93bd549695e1ee12b",
  "bytecode": "0x6080604052348015600f57600080fd5b506101988061001f6000396000f3fe608060405234801561001057600080fd5b50600436106100365760003560e01c80636cbadbfa1461003b578063d3a8018d1461004e575b600080fd5b6040514681526020015b60405180910390f35b7fe5b6a7afa77789577f2802f0da58895f660e5798c5c11b2ea18b0a53bd65d3a7547fe5b6a7afa77789577f2802f0da58895f660e5798c5c11b2ea18b0a53bd65d3a8547fe5b6a7afa77789577f2802f0da58895f660e5798c5c11b2ea18b0a53bd65d3a9547fe5b6a7afa77789577f2802f0da58895f660e5798c5c11b2ea18b0a53bd65d3aa547fe5b6a7afa77789577f2802f0da58895f660e5798c5c11b2ea18b0a53bd65d3ab547fe5b6a7afa77789577f2802f0da58895f660e5798c5c11b2ea18b0a53bd65d3ac5460408051968752602087019590955273ffffffffffffffffffffffffffffffffffffffff909316938501939093526060840152608083019190915260a082015260c00161004556fea26469706673582212201a193a7ff3f094161b7a5122d89619bcd70244f2cd0adbf0f0b11fbb3d12399264736f6c63430008080033",
  "devdoc": {
    "kind": "dev",
    "methods": {},
    "version": 1
  },
  "userdoc": {
    "kind": "user",
    "methods": {},
    "version": 1
  },
  "storageLayout": {
    "storage": [],
    "types": null
  }
}