{
  "address": "0xd28cA2C4B2B2e06B18DEe21F2447D86868265910",
  "abi": [
    {
      "inputs": [],
      "name": "currentChainId",
      "outputs": [
        {
          "internalType": "uint256",
          "name": "",
          "type": "uint256"
        }
      ],
      "stateMutability": "view",
      "type": "function"
    },
    {
      "inputs": [],
      "name": "inspectEIP712Hashes",
      "outputs": [
        {
          "internalType": "bytes32",
          "name": "_CACHED_DOMAIN_SEPARATOR",
          "type": "bytes32"
        },
        {
          "internalType": "uint256",
          "name": "_CACHED_CHAIN_ID",
          "type": "uint256"
        },
        {
          "internalType": "address",
          "name": "_CACHED_THIS",
          "type": "address"
        },
        {
          "internalType": "bytes32",
          "name": "_HASHED_NAME",
          "type": "bytes32"
        },
        {
          "internalType": "bytes32",
          "name": "_HASHED_VERSION",
          "type": "bytes32"
        },
        {
          "internalType": "bytes32",
          "name": "_TYPE_HASH",
          "type": "bytes32"
        }
      ],
      "stateMutability": "view",
      "type": "function"
    }
  ],
  "transactionHash": "0xbd126ad4a2a8cee1dc46ab04182f2c0f42b75e51ba5bc10a5ecb71699cd8fd9f",
  "args": [],
  "numDeployments": 1,
  "solcInputHash": "cad9be4a74df9309b87687d34505b675",
  "bytecode": "0x6080604052348015600f57600080fd5b506101988061001f6000396000f3fe608060405234801561001057600080fd5b50600436106100365760003560e01c80636cbadbfa1461003b578063d3a8018d1461004e575b600080fd5b6040514681526020015b60405180910390f35b7fe5b6a7afa77789577f2802f0da58895f660e5798c5c11b2ea18b0a53bd65d3a7547fe5b6a7afa77789577f2802f0da58895f660e5798c5c11b2ea18b0a53bd65d3a8547fe5b6a7afa77789577f2802f0da58895f660e5798c5c11b2ea18b0a53bd65d3a9547fe5b6a7afa77789577f2802f0da58895f660e5798c5c11b2ea18b0a53bd65d3aa547fe5b6a7afa77789577f2802f0da58895f660e5798c5c11b2ea18b0a53bd65d3ab547fe5b6a7afa77789577f2802f0da58895f660e5798c5c11b2ea18b0a53bd65d3ac5460408051968752602087019590955273ffffffffffffffffffffffffffffffffffffffff909316938501939093526060840152608083019190915260a082015260c00161004556fea2646970667358221220c56b8a8547afa76171c664bdb12d496a0638f5d5f8275fdb0d4b72615ea1e18e64736f6c63430008140033",
  "devdoc": {
    "kind": "dev",
    "methods": {},
    "version": 1
  },
  "userdoc": {
    "kind": "user",
    "methods": {},
    "version": 1
  },
  "storageLayout": {
    "storage": [],
    "types": null
  }
}