{
  "address": "0x0DCCda9B7a4A3C187fF5B177457472ecfD8b3Ed5",
  "abi": [
    {
      "inputs": [],
      "name": "currentChainId",
      "outputs": [
        {
          "internalType": "uint256",
          "name": "",
          "type": "uint256"
        }
      ],
      "stateMutability": "view",
      "type": "function"
    },
    {
      "inputs": [],
      "name": "inspectEIP712Hashes",
      "outputs": [
        {
          "internalType": "bytes32",
          "name": "_CACHED_DOMAIN_SEPARATOR",
          "type": "bytes32"
        },
        {
          "internalType": "uint256",
          "name": "_CACHED_CHAIN_ID",
          "type": "uint256"
        },
        {
          "internalType": "address",
          "name": "_CACHED_THIS",
          "type": "address"
        },
        {
          "internalType": "bytes32",
          "name": "_HASHED_NAME",
          "type": "bytes32"
        },
        {
          "internalType": "bytes32",
          "name": "_HASHED_VERSION",
          "type": "bytes32"
        },
        {
          "internalType": "bytes32",
          "name": "_TYPE_HASH",
          "type": "bytes32"
        }
      ],
      "stateMutability": "view",
      "type": "function"
    }
  ],
  "transactionHash": "0xb87dad0b4ee9d1bd1fd816eb310f30f9aa63ce1642bb0314097bab649c8dbf91",
  "args": [],
  "numDeployments": 2,
  "solcInputHash": "512adeba88794de946e2534616827e00",
  "bytecode": "0x6080604052348015600f57600080fd5b506101988061001f6000396000f3fe608060405234801561001057600080fd5b50600436106100365760003560e01c80636cbadbfa1461003b578063d3a8018d1461004e575b600080fd5b6040514681526020015b60405180910390f35b7fe5b6a7afa77789577f2802f0da58895f660e5798c5c11b2ea18b0a53bd65d3a7547fe5b6a7afa77789577f2802f0da58895f660e5798c5c11b2ea18b0a53bd65d3a8547fe5b6a7afa77789577f2802f0da58895f660e5798c5c11b2ea18b0a53bd65d3a9547fe5b6a7afa77789577f2802f0da58895f660e5798c5c11b2ea18b0a53bd65d3aa547fe5b6a7afa77789577f2802f0da58895f660e5798c5c11b2ea18b0a53bd65d3ab547fe5b6a7afa77789577f2802f0da58895f660e5798c5c11b2ea18b0a53bd65d3ac5460408051968752602087019590955273ffffffffffffffffffffffffffffffffffffffff909316938501939093526060840152608083019190915260a082015260c00161004556fea26469706673582212209e14621c19d6cf9cbe2fd28dba1f5d41efce090afb38de127ccf2c3e910b5f0264736f6c63430008140033",
  "devdoc": {
    "kind": "dev",
    "methods": {},
    "version": 1
  },
  "userdoc": {
    "kind": "user",
    "methods": {},
    "version": 1
  },
  "storageLayout": {
    "storage": [],
    "types": null
  }
}