{
  "address": "0xFc1a48da310eA71649847C120c04cF13aCa4c30E",
  "abi": [
    {
      "anonymous": false,
      "inputs": [
        {
          "indexed": true,
          "internalType": "uint256",
          "name": "gameId",
          "type": "uint256"
        },
        {
          "indexed": true,
          "internalType": "address[]",
          "name": "players",
          "type": "address[]"
        },
        {
          "indexed": true,
          "internalType": "uint256[]",
          "name": "scores",
          "type": "uint256[]"
        }
      ],
      "name": "GameOver",
      "type": "event"
    },
    {
      "anonymous": false,
      "inputs": [
        {
          "indexed": true,
          "internalType": "uint256",
          "name": "gameId",
          "type": "uint256"
        }
      ],
      "name": "LastTurn",
      "type": "event"
    },
    {
      "anonymous": false,
      "inputs": [
        {
          "indexed": true,
          "internalType": "uint256",
          "name": "gameId",
          "type": "uint256"
        }
      ],
      "name": "OverTime",
      "type": "event"
    },
    {
      "anonymous": false,
      "inputs": [
        {
          "indexed": true,
          "internalType": "uint256",
          "name": "gameId",
          "type": "uint256"
        },
        {
          "indexed": true,
          "internalType": "uint256",
          "name": "turn",
          "type": "uint256"
        },
        {
          "indexed": true,
          "internalType": "address",
          "name": "proposer",
          "type": "address"
        },
        {
          "indexed": false,
          "internalType": "bytes32",
          "name": "commitmentHash",
          "type": "bytes32"
        },
        {
          "indexed": false,
          "internalType": "string",
          "name": "proposalEncryptedByGM",
          "type": "string"
        }
      ],
      "name": "ProposalSubmitted",
      "type": "event"
    },
    {
      "anonymous": false,
      "inputs": [
        {
          "indexed": true,
          "internalType": "uint256",
          "name": "gameId",
          "type": "uint256"
        },
        {
          "indexed": true,
          "internalType": "uint256",
          "name": "turn",
          "type": "uint256"
        },
        {
          "indexed": false,
          "internalType": "address[]",
          "name": "players",
          "type": "address[]"
        },
        {
          "indexed": false,
          "internalType": "uint256[]",
          "name": "scores",
          "type": "uint256[]"
        },
        {
          "indexed": false,
          "internalType": "string[]",
          "name": "newProposals",
          "type": "string[]"
        }
      ],
      "name": "TurnEnded",
      "type": "event"
    },
    {
      "anonymous": false,
      "inputs": [
        {
          "indexed": true,
          "internalType": "uint256",
          "name": "gameId",
          "type": "uint256"
        },
        {
          "indexed": true,
          "internalType": "uint256",
          "name": "turn",
          "type": "uint256"
        },
        {
          "indexed": true,
          "internalType": "address",
          "name": "player",
          "type": "address"
        },
        {
          "indexed": false,
          "internalType": "bytes32",
          "name": "votesHidden",
          "type": "bytes32"
        }
      ],
      "name": "VoteSubmitted",
      "type": "event"
    },
    {
      "inputs": [
        {
          "internalType": "bytes",
          "name": "message",
          "type": "bytes"
        },
        {
          "internalType": "bytes",
          "name": "signature",
          "type": "bytes"
        },
        {
          "internalType": "address",
          "name": "account",
          "type": "address"
        }
      ],
      "name": "checkSignature",
      "outputs": [
        {
          "internalType": "bool",
          "name": "",
          "type": "bool"
        }
      ],
      "stateMutability": "view",
      "type": "function"
    },
    {
      "inputs": [
        {
          "internalType": "uint256",
          "name": "gameId",
          "type": "uint256"
        },
        {
          "internalType": "uint256[][]",
          "name": "votes",
          "type": "uint256[][]"
        },
        {
          "internalType": "string[]",
          "name": "newProposals",
          "type": "string[]"
        },
        {
          "internalType": "uint256[]",
          "name": "proposerIndicies",
          "type": "uint256[]"
        }
      ],
      "name": "endTurn",
      "outputs": [],
      "stateMutability": "nonpayable",
      "type": "function"
    },
    {
      "inputs": [
        {
          "internalType": "address",
          "name": "player",
          "type": "address"
        },
        {
          "internalType": "bytes32",
          "name": "turnSalt",
          "type": "bytes32"
        }
      ],
      "name": "playerSalt",
      "outputs": [
        {
          "internalType": "bytes32",
          "name": "",
          "type": "bytes32"
        }
      ],
      "stateMutability": "pure",
      "type": "function"
    },
    {
      "inputs": [
        {
          "components": [
            {
              "internalType": "uint256",
              "name": "gameId",
              "type": "uint256"
            },
            {
              "internalType": "string",
              "name": "encryptedProposal",
              "type": "string"
            },
            {
              "internalType": "bytes32",
              "name": "commitmentHash",
              "type": "bytes32"
            },
            {
              "internalType": "address",
              "name": "proposer",
              "type": "address"
            }
          ],
          "internalType": "struct GameMastersFacet.ProposalParams",
          "name": "proposalData",
          "type": "tuple"
        }
      ],
      "name": "submitProposal",
      "outputs": [],
      "stateMutability": "nonpayable",
      "type": "function"
    },
    {
      "inputs": [
        {
          "internalType": "uint256",
          "name": "gameId",
          "type": "uint256"
        },
        {
          "internalType": "bytes32",
          "name": "votesHash",
          "type": "bytes32"
        },
        {
          "internalType": "address",
          "name": "voter",
          "type": "address"
        }
      ],
      "name": "submitVote",
      "outputs": [],
      "stateMutability": "nonpayable",
      "type": "function"
    }
  ],
  "transactionHash": "0x2ec77db76fb15ab9325a97c3cf1b334835a214fe3cdf7817430d3b649f5e2662",
  "args": [],
  "numDeployments": 1,
  "solcInputHash": "398c7be87a7306824351955d85968459",
  "bytecode": "0x608060405234801561001057600080fd5b506140b9806100206000396000f3fe608060405234801561001057600080fd5b50600436106100675760003560e01c80637fb7f588116100505780637fb7f588146100945780638a2afe83146100ba578063ceb5beb6146100cd57600080fd5b80630c6446d51461006c578063463bc35514610081575b600080fd5b61007f61007a366004613892565b6100f0565b005b61007f61008f3660046139b2565b6102b7565b6100a76100a2366004613a5a565b610587565b6040519081526020015b60405180910390f35b61007f6100c8366004613a84565b6105e2565b6100e06100db366004613ab9565b610747565b60405190151581526020016100b1565b6100fa8433610770565b6000610105856107f3565b90506101108561081c565b1561014e5760405162461bcd60e51b815260206004820152600960248201526823b0b6b29037bb32b960b91b60448201526064015b60405180910390fd5b610157856108ac565b600085815260008051602061406483398151915260205260409020600101546001146101d75761018685610928565b15156001146101d75760405162461bcd60e51b815260206004820152601260248201527f43616e6e6f7420646f2074686973206e6f7700000000000000000000000000006044820152606401610145565b6101e0856109a2565b610275576101ed85610a17565b5181600501541480610203575061020385610a41565b6102755760405162461bcd60e51b815260206004820152602760248201527f536f6d6520706c6179657273207374696c6c20686176652074696d6520746f2060448201527f70726f706f7365000000000000000000000000000000000000000000000000006064820152608401610145565b600085815260008051602061406483398151915260205260409020600101546001146102a6576102a6858584610acf565b6102b08584610c4c565b5050505050565b80516102c290610e13565b80516102ce9033610770565b80516102d99061081c565b156103125760405162461bcd60e51b815260206004820152600960248201526823b0b6b29037bb32b960b91b6044820152606401610145565b805161031d906108ac565b600061032c82600001516107f3565b825160608401516001600160a01b031660009081527f91591bea3fc8863c74b4740fa2dfd9fd428a1e509b60555e4d1e8d8028901f366020526040902054919250146103ba5760405162461bcd60e51b815260206004820152600c60248201527f6e6f74206120706c6179657200000000000000000000000000000000000000006044820152606401610145565b81516103c5906109a2565b156104125760405162461bcd60e51b815260206004820152601b60248201527f43616e6e6f742070726f706f736520696e206c617374207475726e00000000006044820152606401610145565b6020820151516104645760405162461bcd60e51b815260206004820152601460248201527f43616e6e6f742070726f706f736520656d7074790000000000000000000000006044820152606401610145565b60608201516001600160a01b03166000908152600482016020526040902054156104d05760405162461bcd60e51b815260206004820152601160248201527f416c72656164792070726f706f736564210000000000000000000000000000006044820152606401610145565b60408083015160608401516001600160a01b03166000908152600484016020529182205560058201805460019290610509908490613b3a565b909155505060608201518251600090815260008051602061406483398151915260205260409020600101546001600160a01b03909116908351604080860151602087015191517f525b2e06a8f927c08033ec5d6334d7796bbea62d2d4f0486fe60196d4fe6d0ad9261057b9291613baa565b60405180910390a45050565b6040517fffffffffffffffffffffffffffffffffffffffff000000000000000000000000606084901b166020820152603481018290526000906054016040516020818303038152906040528051906020012090505b92915050565b6105ec8333610770565b6105f583610e13565b6105fe836108ac565b6106078361081c565b156106405760405162461bcd60e51b815260206004820152600960248201526823b0b6b29037bb32b960b91b6044820152606401610145565b600083815260008051602061406483398151915260205260409020600190810154116106d45760405162461bcd60e51b815260206004820152602960248201527f4e6f2070726f706f73616c73206578697374206174207475726e20313a20636160448201527f6e6e6f7420766f746500000000000000000000000000000000000000000000006064820152608401610145565b6106de8382610e73565b600083815260008051602061406483398151915260205260409020600101546001600160a01b03821690847fdd1ba206b981d525a5e51521b1fc6d9acfd3e615914568c434e712c3b4c6bf1e8560405161073a91815260200190565b60405180910390a4505050565b60008061075a8580519060200120611053565b905061076783828661109b565b95945050505050565b61077982610e13565b600082815260008051602061406483398151915260205260409020546001600160a01b038281169116146107ef5760405162461bcd60e51b815260206004820152601060248201527f4f6e6c792067616d65206d6173746572000000000000000000000000000000006044820152606401610145565b5050565b600081815260008051602061406483398151915260205260408120600a015481905b9392505050565b6000818152600080516020614064833981519152602052604081207f91591bea3fc8863c74b4740fa2dfd9fd428a1e509b60555e4d1e8d8028901f315460018201547f91591bea3fc8863c74b4740fa2dfd9fd428a1e509b60555e4d1e8d8028901f2d92911080156108935750600b81015460ff16155b156108a2575060019392505050565b5060009392505050565b600081815260008051602061406483398151915260205260409020816108d4576108d4613bc3565b600481015460ff166107ef5760405162461bcd60e51b815260206004820152601860248201527f47616d6520686173206e6f7420796574207374617274656400000000000000006044820152606401610145565b600081815260008051602061406483398151915260205260408120600061094e84610a41565b9050600061095e836005016110fc565b83600801541461096f576000610972565b60015b905080801561097f575081155b806109875750815b1561099757506001949350505050565b506000949350505050565b6000818152600080516020614064833981519152602052604081207f91591bea3fc8863c74b4740fa2dfd9fd428a1e509b60555e4d1e8d8028901f315460018201547f91591bea3fc8863c74b4740fa2dfd9fd428a1e509b60555e4d1e8d8028901f2d929114156108a2575060019392505050565b60008181526000805160206140648339815191526020526040902060609061081560058201611106565b6000818152600080516020614064833981519152602052604081207f91591bea3fc8863c74b4740fa2dfd9fd428a1e509b60555e4d1e8d8028901f2d9083610a8b57610a8b613bc3565b600481015460ff161515600114610aa457610aa4613bc3565b60028101548254610ab59190613b3a565b4311610ac5575060009392505050565b5060019392505050565b6000610ada84610a17565b90506000815167ffffffffffffffff811115610af857610af86136cc565b604051908082528060200260200182016040528015610b21578160200160208202803683370190505b50905060005b8251811015610c44578251848281518110610b4457610b44613bd9565b60200260200101511015610c3257610b768686868481518110610b6957610b69613bd9565b6020026020010151611113565b610bcd87858481518110610b8c57610b8c613bd9565b60200260200101516000918252600080516020614064833981519152602090815260408084206001600160a01b039390931684526009909201905290205490565b610bd79190613b3a565b828281518110610be957610be9613bd9565b602002602001018181525050610c3286848381518110610c0b57610c0b613bd9565b6020026020010151848481518110610c2557610c25613bd9565b602002602001015161133a565b80610c3c81613bef565b915050610b27565b505050505050565b610c55826113cc565b6000610c6083610a17565b90506000806000610c70866114c6565b509250925092506000610c8287611645565b9150506001610cad886000908152600080516020614064833981519152602052604090206001015490565b610cb79190613c0a565b877f87fb5325f8ca7b8e30baf087b27b96df2740e28ba4c324bab3c5de310e586d9a87848a604051610ceb93929190613c76565b60405180910390a3838015610cfd5750825b15610d2e5760405187907f16b81a8b7a63ff74301aeb7a5b3048ff92880ec2bb0773136ed953bf4ef6f47390600090a25b8315610d605760405187907f355ab9c54569d91a1467b11b130e91c3f6c15c3c50c7225177cfaf66ba44ddd090600090a25b8115610e00576000610da6610d9c7fc8fcad8db84d3cc18b4c41d551ea0ee66dd599cde068d998e57d5e09332c1320546001600160a01b031690565b89906116f9611749565b905080604051610db69190613d0d565b604051809103902086604051610dcc9190613d43565b604051908190038120908a907f310cab2765035ece7f5c89e2f74e216e41485f0911e38063d06de80c47e14b7e90600090a4505b610e0a87876118d0565b50505050505050565b610e1b611959565b610e24816119d2565b610e705760405162461bcd60e51b815260206004820152600d60248201527f6e6f2067616d6520666f756e64000000000000000000000000000000000000006044820152606401610145565b50565b81610e7d81610a41565b15610eca5760405162461bcd60e51b815260206004820152601f60248201527f6f6e6c79496e5475726e54696d65202d3e207475726e2074696d65646f7574006044820152606401610145565b600083815260008051602061406483398151915260205260409020610eee846108ac565b610ef784611a0f565b6001600160a01b038316600090815260078201602052604090205460ff1615610f625760405162461bcd60e51b815260206004820152601360248201527f616c7265616479206d6164652061206d6f7665000000000000000000000000006044820152606401610145565b6001600160a01b03831660009081527f91591bea3fc8863c74b4740fa2dfd9fd428a1e509b60555e4d1e8d8028901f3660205260409020547f91591bea3fc8863c74b4740fa2dfd9fd428a1e509b60555e4d1e8d8028901f2d90851461100a5760405162461bcd60e51b815260206004820152601260248201527f6973206e6f7420696e207468652067616d6500000000000000000000000000006044820152606401610145565b6001600160a01b03841660009081526007830160205260408120805460ff1916600190811790915560088401805491929091611047908490613b3a565b90915550505050505050565b60006105dc611060611a51565b836040517f19010000000000000000000000000000000000000000000000000000000000008152600281019290925260228201526042902090565b60008060006110aa8585611b22565b909250905060008160048111156110c3576110c3613d76565b1480156110e15750856001600160a01b0316826001600160a01b0316145b806110f257506110f2868686611b68565b9695505050505050565b60006105dc825490565b6060600061081583611c9a565b60008061111f85610a17565b6000868152600080516020614064833981519152602052604081209192507f91591bea3fc8863c74b4740fa2dfd9fd428a1e509b60555e4d1e8d8028901f2d815b845181101561132d57600084600701600087848151811061118357611183613bd9565b6020908102919091018101516001600160a01b031682528101919091526040016000205460ff166111cc57600b8301546111bd9085613b3a565b600684015490945090506112c6565b60008983815181106111e0576111e0613bd9565b602002602001015190508083815181106111fc576111fc613bd9565b60200260200101516000146112535760405162461bcd60e51b815260206004820152601160248201527f566f74656420666f722068696d73656c660000000000000000000000000000006044820152606401610145565b80898151811061126557611265613bd9565b6020026020010151856112789190613b3a565b945080898151811061128c5761128c613bd9565b6020026020010151818a815181106112a6576112a6613bd9565b60200260200101516112b89190613d8c565b6112c29083613b3a565b9150505b600683015481111561131a5760405162461bcd60e51b815260206004820152601f60248201527f5175616472617469633a20766f74652063726564697473206f76657272756e006044820152606401610145565b508061132581613bef565b915050611160565b5090979650505050505050565b60008381526000805160206140648339815191526020526040902061135f8484611cf6565b6113ab5760405162461bcd60e51b815260206004820152601460248201527f706c61796572206e6f7420696e20612067616d650000000000000000000000006044820152606401610145565b6001600160a01b039092166000908152600990920160205260409091205550565b60006113d782610a17565b905060006113e4836107f3565b600060038201819055600582018190559091505b82518110156114c0576000801b82600401600085848151811061141d5761141d613bd9565b6020908102919091018101516001600160a01b031682528181019290925260409081016000908120939093558051808301808352848252858552600287019093529220915161146d9291906135ca565b506000801b82600601600085848151811061148a5761148a613bd9565b6020908102919091018101516001600160a01b0316825281019190915260400160002055806114b881613bef565b9150506113f8565b50505050565b6000806000606060006114f18660009081526000805160206140648339815191526020526040902090565b90506114fc866108ac565b61150586611a0f565b61150e81611d68565b60018160010160008282546115239190613b3a565b90915550504360028201556000611539876109a2565b600b83015490915060ff16600061154f89610a17565b5167ffffffffffffffff811115611568576115686136cc565b604051908082528060200260200182016040528015611591578160200160208202803683370190505b50905082806115a45750600b84015460ff165b806115b357506115b38961081c565b156115d7576115c189611dcc565b600b8601805460ff191683151517905590925090505b80516115ec90600c860190602084019061364a565b506115f68961081c565b60049490940180547fffffffffffffffffffffffffffffffffffffffffffffffffffffffffffff00ff1661010095151586021790819055929991985060ff939092049290921695509350915050565b606080600061165384610a17565b90506000815167ffffffffffffffff811115611671576116716136cc565b60405190808252806020026020018201604052801561169a578160200160208202803683370190505b50905060005b82518110156116ee576116bf86848381518110610b8c57610b8c613bd9565b8282815181106116d1576116d1613bd9565b6020908102919091010152806116e681613bef565b9150506116a0565b509094909350915050565b6000611704836107f3565b60018101549091506117449084906001600160a01b031661172482611ec6565b60008151811061173657611736613bd9565b602002602001015185611f47565b505050565b606061175484610e13565b6117668461176186611ec6565b611faa565b600061177185611645565b915050600061177f86610a17565b905060005b81518110156117e9576117b0878383815181106117a3576117a3613bd9565b6020026020010151612034565b6117d7878383815181106117c6576117c6613bd9565b60200260200101518763ffffffff16565b806117e181613bef565b915050611784565b5060006117f46120e1565b60018101548154845160028401549394506001600160a01b039092169263a9059cbb928a92916118249190613d8c565b61182e9190613b3a565b6040517fffffffff0000000000000000000000000000000000000000000000000000000060e085901b1681526001600160a01b0390921660048301526024820152604401602060405180830381600087803b15801561188c57600080fd5b505af11580156118a0573d6000803e3d6000fd5b505050506040513d601f19601f820116820180604052508101906118c49190613dab565b50919695505050505050565b60006118db836107f3565b905060005b82518110156114c0578281815181106118fb576118fb613bd9565b6020026020010151826002016000838152602001908152602001600020908051906020019061192b9291906135ca565b5060018260030160008282546119419190613b3a565b9091555081905061195181613bef565b9150506118e0565b60006119636120e1565b600481015490915074010000000000000000000000000000000000000000900460ff16610e705760405162461bcd60e51b815260206004820152600f60248201527f6f6e6c79496e697469616c697a656400000000000000000000000000000000006044820152606401610145565b60008181526000805160206140648339815191526020526040812080546001600160a01b031615611a065750600192915050565b50600092915050565b611a188161081c565b15610e705760405162461bcd60e51b815260206004820152600960248201526823b0b6b29037bb32b960b91b6044820152606401610145565b7fe5b6a7afa77789577f2802f0da58895f660e5798c5c11b2ea18b0a53bd65d3a9546000907fe5b6a7afa77789577f2802f0da58895f660e5798c5c11b2ea18b0a53bd65d3a7906001600160a01b031630148015611ab25750806001015446145b15611abd5754919050565b611b188160050154826003015483600401546040805160208101859052908101839052606081018290524660808201523060a082015260009060c0016040516020818303038152906040528051906020012090509392505050565b91505090565b5090565b600080825160411415611b595760208301516040840151606085015160001a611b4d8782858561210a565b94509450505050611b61565b506000905060025b9250929050565b6000806000856001600160a01b0316631626ba7e60e01b8686604051602401611b92929190613baa565b60408051601f198184030181529181526020820180517bffffffffffffffffffffffffffffffffffffffffffffffffffffffff167fffffffff00000000000000000000000000000000000000000000000000000000909416939093179092529051611bfd9190613dcd565b600060405180830381855afa9150503d8060008114611c38576040519150601f19603f3d011682016040523d82523d6000602084013e611c3d565b606091505b5091509150818015611c5157506020815110155b80156110f2575080517f1626ba7e0000000000000000000000000000000000000000000000000000000090611c8f9083016020908101908401613de9565b149695505050505050565b606081600001805480602002602001604051908101604052809291908181526020018280548015611cea57602002820191906000526020600020905b815481526020019060010190808311611cd6575b50505050509050919050565b6001600160a01b03811660009081527f91591bea3fc8863c74b4740fa2dfd9fd428a1e509b60555e4d1e8d8028901f3660205260408120547f91591bea3fc8863c74b4740fa2dfd9fd428a1e509b60555e4d1e8d8028901f2d908414611d5d576000611d60565b60015b949350505050565b60005b611d77826005016110fc565b811015611dc1576000611d8d60058401836121ce565b6001600160a01b031660009081526007840160205260409020805460ff191690555080611db981613bef565b915050611d6b565b506000600890910155565b600060607f91591bea3fc8863c74b4740fa2dfd9fd428a1e509b60555e4d1e8d8028901f2d8280611dfc86611645565b91509150611e1981600060018451611e149190613c0a565b6121da565b60005b60018351611e2a9190613c0a565b811015611eb7576005840154611e4290600190613c0a565b8111611ea05781611e54826001613b3a565b81518110611e6457611e64613bd9565b6020026020010151828281518110611e7e57611e7e613bd9565b60200260200101511415611e9b5750600196919550909350505050565b611ea5565b611eb7565b80611eaf81613bef565b915050611e1c565b50600096919550909350505050565b60008181526000805160206140648339815191526020526040812060609190600c8101805460408051602080840282018101909252828152939450830182828015611f3a57602002820191906000526020600020905b81546001600160a01b03168152600190910190602001808311611f1c575b5050505050915050919050565b6000611f9c8560408051602080820193909352815180820384018152908201825280519083012060009081527fb12a0409539e5fa777ebbd0648c2d35d1b56f5385885518278a66364324a9138909252902090565b90506102b081858585612353565b6000611fb5836107f3565b90506000611fc16120e1565b6004810154909150611fdf90859085906001600160a01b03166123e8565b60005b60078301548110156102b057612022858585600701848154811061200857612008613bd9565b6000918252602090912001546001600160a01b03166123e8565b8061202c81613bef565b915050611fe2565b61203d82610e13565b612047828261265a565b60006120516120e1565b9050600061205e846107f3565b90506001816000015411156114c057805460048301546120889185916001600160a01b03166127ec565b60005b60078201548110156102b0576120cf8483600001548460070184815481106120b5576120b5613bd9565b6000918252602090912001546001600160a01b03166127ec565b806120d981613bef565b91505061208b565b6000807f7acf15cdb85906c3736403f86bf7ccb69a25bb6dbdcde1cbcbf35fe2a64df8526105dc565b6000807f7fffffffffffffffffffffffffffffff5d576e7357a4501ddfe92f46681b20a083111561214157506000905060036121c5565b6040805160008082526020820180845289905260ff881692820192909252606081018690526080810185905260019060a0016020604051602081039080840390855afa158015612195573d6000803e3d6000fd5b5050604051601f1901519150506001600160a01b0381166121be576000600192509250506121c5565b9150600090505b94509492505050565b60006108158383612877565b8181808214156121eb575050505050565b60008560026121fa8787613e02565b6122049190613e5a565b61220e9087613e96565b8151811061221e5761221e613bd9565b602002602001015190505b81831361232d575b8086848151811061224457612244613bd9565b60200260200101511115612264578261225c81613eee565b935050612231565b85828151811061227657612276613bd9565b6020026020010151811115612297578161228f81613f20565b925050612264565b818313612328578582815181106122b0576122b0613bd9565b60200260200101518684815181106122ca576122ca613bd9565b60200260200101518785815181106122e4576122e4613bd9565b602002602001018885815181106122fd576122fd613bd9565b6020908102919091010191909152528261231681613eee565b935050818061232490613f20565b9250505b612229565b81851215612340576123408686846121da565b83831215610c4457610c448684866121da565b83600801548460070154856006015461236c9190613b3a565b106123b95760405162461bcd60e51b815260206004820152601d60248201527f4e6f7420656e6f7567682062616c616e636520746f2072656c656173650000006044820152606401610145565b6123c8843085856000866128a1565b60018460070160008282546123dd9190613b3a565b909155505050505050565b60006123f3846107f3565b90506000829050806001600160a01b031663f242432a308660008151811061241d5761241d613bd9565b6020026020010151856000015460016124369190613b3a565b6040517fffffffff0000000000000000000000000000000000000000000000000000000060e086901b1681526001600160a01b03938416600482015292909116602483015260448201526001606482015260a06084820152600060a482015260c401600060405180830381600087803b1580156124b257600080fd5b505af11580156124c6573d6000803e3d6000fd5b50505050806001600160a01b031663f242432a30866001815181106124ed576124ed613bd9565b602090810291909101015185546040517fffffffff0000000000000000000000000000000000000000000000000000000060e086901b1681526001600160a01b03938416600482015292909116602483015260448201526002606482015260a06084820152600060a482015260c401600060405180830381600087803b15801561257657600080fd5b505af115801561258a573d6000803e3d6000fd5b50505050806001600160a01b031663f242432a30866002815181106125b1576125b1613bd9565b602090810291909101015185546040517fffffffff0000000000000000000000000000000000000000000000000000000060e086901b1681526001600160a01b03938416600482015292909116602483015260448201526001606482015260a06084820152600060a482015260c4015b600060405180830381600087803b15801561263b57600080fd5b505af115801561264f573d6000803e3d6000fd5b505050505050505050565b6000828152600080516020614064833981519152602052604090207f91591bea3fc8863c74b4740fa2dfd9fd428a1e509b60555e4d1e8d8028901f2d906126a0846119d2565b6126ec5760405162461bcd60e51b815260206004820152601360248201527f67616d6520646f6573206e6f74206578697374000000000000000000000000006044820152606401610145565b6001600160a01b038316600090815260098301602052604090205484146127555760405162461bcd60e51b815260206004820152600f60248201527f4e6f7420696e207468652067616d6500000000000000000000000000000000006044820152606401610145565b600481015460ff1615806127785750600481015460ff6101009091041615156001145b6127c45760405162461bcd60e51b815260206004820152601960248201527f43616e6e6f74206c65617665206f6e63652073746172746564000000000000006044820152606401610145565b6001600160a01b03831660009081526009830160205260408120556102b06005820184612bd4565b6040517f6dab959f0000000000000000000000000000000000000000000000000000000081526001600160a01b0384811660048301526024820184905260016044830152829190821690636dab959f90606401600060405180830381600087803b15801561285957600080fd5b505af115801561286d573d6000803e3d6000fd5b5050505050505050565b600082600001828154811061288e5761288e613bd9565b9060005260206000200154905092915050565b6001600160a01b0385163014156129cb576002860154156128f75760028601546040516001600160a01b0383169180156108fc02916000818181858888f193505050501580156128f5573d6000803e3d6000fd5b505b60048601541561293c5760048601546040516001600160a01b0386169180156108fc02916000818181858888f1935050505015801561293a573d6000803e3d6000fd5b505b6005860154156129815760058601546040516001600160a01b0385169180156108fc02916000818181858888f1935050505015801561297f573d6000803e3d6000fd5b505b6003860154156129c65760038601546040516001600160a01b0384169180156108fc02916000818181858888f193505050501580156129c4573d6000803e3d6000fd5b505b612a55565b600386015460058701546004880154600289015460009392916129ed91613b3a565b6129f79190613b3a565b612a019190613b3a565b905080341015612a535760405162461bcd60e51b815260206004820152601160248201527f6d73672e76616c756520746f6f206c6f770000000000000000000000000000006044820152606401610145565b505b60005b600a870154811015610e0a57600087600a018281548110612a7b57612a7b613bd9565b6000918252602082200154600b8a0180546001600160a01b0390921693509084908110612aaa57612aaa613bd9565b906000526020600020015490506000896009018481548110612ace57612ace613bd9565b60009182526020808320908204015460ff601f9092166101000a90041691508a81836002811115612b0157612b01613d76565b6002811115612b1257612b12613d76565b8152602080820192909252604090810160009081206001600160a01b0388168252835281812086825290925281209150826002811115612b5457612b54613d76565b1415612b6e57612b6984828c8c8c8c8c612be9565b612bbd565b6002826002811115612b8257612b82613d76565b1415612b9357612b6984828c612d3c565b6001826002811115612ba757612ba7613d76565b1415612bbd57612bbd8484838d8d8d8d8d612ec8565b505050508080612bcc90613bef565b915050612a58565b6000610815836001600160a01b038416613249565b612bfc878683896002016001015461333c565b612c0f878684896004016001015461333c565b612c22878686896006016001015461333c565b612c35878685896008016001015461333c565b600186015487908015801590612c5457506001600160a01b0387163014155b1561264f576040517f70a082310000000000000000000000000000000000000000000000000000000081526001600160a01b0388811660048301528291908416906370a082319060240160206040518083038186803b158015612cb657600080fd5b505afa158015612cca573d6000803e3d6000fd5b505050506040513d601f19601f82011682018060405250810190612cee9190613de9565b101561264f5760405162461bcd60e51b815260206004820152601760248201527f4e6f7420656e6f75676820657263323020746f6b656e730000000000000000006044820152606401610145565b60038201548390158015612d5257506005830154155b8015612d6057506007830154155b8015612d6e57506009830154155b612dba5760405162461bcd60e51b815260206004820152601e60248201527f455243373231207472616e7366657273206e6f7420737570706f7274656400006044820152606401610145565b600183015415801590612dd657506001600160a01b0382163014155b156114c0576040517f70a082310000000000000000000000000000000000000000000000000000000081526001600160a01b038381166004830152600091908316906370a082319060240160206040518083038186803b158015612e3957600080fd5b505afa158015612e4d573d6000803e3d6000fd5b505050506040513d601f19601f82011682018060405250810190612e719190613de9565b60018501549091508110156102b05760405162461bcd60e51b815260206004820152601960248201527f4e6f7420656e6f756768204552433732312062616c616e6365000000000000006044820152606401610145565b600186015488908015612fc4576040517efdd58e0000000000000000000000000000000000000000000000000000000081526001600160a01b038881166004830152602482018b90526000919084169062fdd58e9060440160206040518083038186803b158015612f3857600080fd5b505afa158015612f4c573d6000803e3d6000fd5b505050506040513d601f19601f82011682018060405250810190612f709190613de9565b905081811015612fc25760405162461bcd60e51b815260206004820152601c60248201527f455243313135352062616c616e6365206973206e6f742076616c6964000000006044820152606401610145565b505b506007870154801561303d57816001600160a01b031663f242432a88888c858d6006016000016040518663ffffffff1660e01b815260040161300a959493929190613f79565b600060405180830381600087803b15801561302457600080fd5b505af1158015613038573d6000803e3d6000fd5b505050505b50600987015480156130b657816001600160a01b031663f242432a88878c858d6008016000016040518663ffffffff1660e01b8152600401613083959493929190613f79565b600060405180830381600087803b15801561309d57600080fd5b505af11580156130b1573d6000803e3d6000fd5b505050505b50600587015480156131c4576001600160a01b038416613157576040517ff5298aca0000000000000000000000000000000000000000000000000000000081526001600160a01b038881166004830152602482018b90526044820183905283169063f5298aca90606401600060405180830381600087803b15801561313a57600080fd5b505af115801561314e573d6000803e3d6000fd5b505050506131c4565b816001600160a01b031663f242432a88868c858d6004016000016040518663ffffffff1660e01b8152600401613191959493929190613f79565b600060405180830381600087803b1580156131ab57600080fd5b505af11580156131bf573d6000803e3d6000fd5b505050505b506003870154801561323d57816001600160a01b031663f242432a88858c858d6002016000016040518663ffffffff1660e01b815260040161320a959493929190613f79565b600060405180830381600087803b15801561322457600080fd5b505af1158015613238573d6000803e3d6000fd5b505050505b50505050505050505050565b6000818152600183016020526040812054801561333257600061326d600183613c0a565b855490915060009061328190600190613c0a565b90508181146132e65760008660000182815481106132a1576132a1613bd9565b90600052602060002001549050808760000184815481106132c4576132c4613bd9565b6000918252602080832090910192909255918252600188019052604090208390555b85548690806132f7576132f761404d565b6001900381819060005260206000200160009055905585600101600086815260200190815260200160002060009055600193505050506105dc565b60009150506105dc565b8381156102b0576001600160a01b03841630141561347d576001600160a01b03831615613405576040517fa9059cbb0000000000000000000000000000000000000000000000000000000081526001600160a01b0384811660048301526024820184905282169063a9059cbb906044015b602060405180830381600087803b1580156133c757600080fd5b505af11580156133db573d6000803e3d6000fd5b505050506040513d601f19601f820116820180604052508101906133ff9190613dab565b506102b0565b6040517f42966c68000000000000000000000000000000000000000000000000000000008152600481018390526001600160a01b038216906342966c6890602401600060405180830381600087803b15801561346057600080fd5b505af1158015613474573d6000803e3d6000fd5b505050506102b0565b6001600160a01b038316156134e2576040517f23b872dd0000000000000000000000000000000000000000000000000000000081526001600160a01b0385811660048301528481166024830152604482018490528216906323b872dd906064016133ad565b6040517f23b872dd0000000000000000000000000000000000000000000000000000000081526001600160a01b038581166004830152306024830152604482018490528216906323b872dd90606401602060405180830381600087803b15801561354b57600080fd5b505af115801561355f573d6000803e3d6000fd5b505050506040513d601f19601f820116820180604052508101906135839190613dab565b506040517f42966c68000000000000000000000000000000000000000000000000000000008152600481018390526001600160a01b038216906342966c6890602401612621565b8280546135d690613f3e565b90600052602060002090601f0160209004810192826135f8576000855561363e565b82601f1061361157805160ff191683800117855561363e565b8280016001018555821561363e579182015b8281111561363e578251825591602001919060010190613623565b50611b1e9291506136b7565b82805482825590600052602060002090810192821561363e579160200282015b8281111561363e57825182547fffffffffffffffffffffffff0000000000000000000000000000000000000000166001600160a01b0390911617825560209092019160019091019061366a565b5b80821115611b1e57600081556001016136b8565b634e487b7160e01b600052604160045260246000fd5b604051601f8201601f1916810167ffffffffffffffff8111828210171561370b5761370b6136cc565b604052919050565b600067ffffffffffffffff82111561372d5761372d6136cc565b5060051b60200190565b600082601f83011261374857600080fd5b8135602061375d61375883613713565b6136e2565b82815260059290921b8401810191818101908684111561377c57600080fd5b8286015b848110156137975780358352918301918301613780565b509695505050505050565b600082601f8301126137b357600080fd5b813567ffffffffffffffff8111156137cd576137cd6136cc565b6137e06020601f19601f840116016136e2565b8181528460208386010111156137f557600080fd5b816020850160208301376000918101602001919091529392505050565b600082601f83011261382357600080fd5b8135602061383361375883613713565b82815260059290921b8401810191818101908684111561385257600080fd5b8286015b8481101561379757803567ffffffffffffffff8111156138765760008081fd5b6138848986838b01016137a2565b845250918301918301613856565b600080600080608085870312156138a857600080fd5b8435935060208086013567ffffffffffffffff808211156138c857600080fd5b818801915088601f8301126138dc57600080fd5b81356138ea61375882613713565b81815260059190911b8301840190848101908b83111561390957600080fd5b8585015b83811015613941578035858111156139255760008081fd5b6139338e89838a0101613737565b84525091860191860161390d565b5097505050604088013592508083111561395a57600080fd5b61396689848a01613812565b9450606088013592508083111561397c57600080fd5b505061398a87828801613737565b91505092959194509250565b80356001600160a01b03811681146139ad57600080fd5b919050565b6000602082840312156139c457600080fd5b813567ffffffffffffffff808211156139dc57600080fd5b90830190608082860312156139f057600080fd5b604051608081018181108382111715613a0b57613a0b6136cc565b60405282358152602083013582811115613a2457600080fd5b613a30878286016137a2565b60208301525060408301356040820152613a4c60608401613996565b606082015295945050505050565b60008060408385031215613a6d57600080fd5b613a7683613996565b946020939093013593505050565b600080600060608486031215613a9957600080fd5b8335925060208401359150613ab060408501613996565b90509250925092565b600080600060608486031215613ace57600080fd5b833567ffffffffffffffff80821115613ae657600080fd5b613af2878388016137a2565b94506020860135915080821115613b0857600080fd5b50613b15868287016137a2565b925050613ab060408501613996565b634e487b7160e01b600052601160045260246000fd5b60008219821115613b4d57613b4d613b24565b500190565b60005b83811015613b6d578181015183820152602001613b55565b838111156114c05750506000910152565b60008151808452613b96816020860160208601613b52565b601f01601f19169290920160200192915050565b828152604060208201526000611d606040830184613b7e565b634e487b7160e01b600052600160045260246000fd5b634e487b7160e01b600052603260045260246000fd5b6000600019821415613c0357613c03613b24565b5060010190565b600082821015613c1c57613c1c613b24565b500390565b600081518084526020808501808196508360051b8101915082860160005b85811015613c69578284038952613c57848351613b7e565b98850198935090840190600101613c3f565b5091979650505050505050565b606080825284519082018190526000906020906080840190828801845b82811015613cb85781516001600160a01b031684529284019290840190600101613c93565b5050508381038285015285518082528683019183019060005b81811015613ced57835183529284019291840191600101613cd1565b50508481036040860152613d018187613c21565b98975050505050505050565b815160009082906020808601845b83811015613d3757815185529382019390820190600101613d1b565b50929695505050505050565b815160009082906020808601845b83811015613d375781516001600160a01b031685529382019390820190600101613d51565b634e487b7160e01b600052602160045260246000fd5b6000816000190483118215151615613da657613da6613b24565b500290565b600060208284031215613dbd57600080fd5b8151801515811461081557600080fd5b60008251613ddf818460208701613b52565b9190910192915050565b600060208284031215613dfb57600080fd5b5051919050565b600080831283600160ff1b01831281151615613e2057613e20613b24565b837f7fffffffffffffffffffffffffffffffffffffffffffffffffffffffffffffff018313811615613e5457613e54613b24565b50500390565b600082613e7757634e487b7160e01b600052601260045260246000fd5b6000198314600160ff1b83141615613e9157613e91613b24565b500590565b6000808212827f7fffffffffffffffffffffffffffffffffffffffffffffffffffffffffffffff03841381151615613ed057613ed0613b24565b82600160ff1b038412811615613ee857613ee8613b24565b50500190565b60007f7fffffffffffffffffffffffffffffffffffffffffffffffffffffffffffffff821415613c0357613c03613b24565b6000600160ff1b821415613f3657613f36613b24565b506000190190565b600181811c90821680613f5257607f821691505b60208210811415613f7357634e487b7160e01b600052602260045260246000fd5b50919050565b60006001600160a01b03808816835260208188168185015286604085015285606085015260a0608085015260009150845482600182811c915080831680613fc157607f831692505b848310811415613fdf57634e487b7160e01b86526022600452602486fd5b60a0880183905260c08801818015613ffe576001811461400f5761403a565b60ff1986168252868201975061403a565b60008b81526020902060005b868110156140345781548482015290850190880161401b565b83019850505b50959d9c50505050505050505050505050565b634e487b7160e01b600052603160045260246000fdfe91591bea3fc8863c74b4740fa2dfd9fd428a1e509b60555e4d1e8d8028901f35a26469706673582212209a897264d2dbba6dbf01fe0a4de1b26c21d01eadf0496c4a142cad29842a3e2d64736f6c63430008080033",
  "devdoc": {
    "kind": "dev",
    "methods": {},
    "version": 1
  },
  "userdoc": {
    "kind": "user",
    "methods": {},
    "version": 1
  },
  "storageLayout": {
    "storage": [],
    "types": null
  }
}