{
  "address": "0xAe0AA1e1bDBA5A9cdca6a756bB3Ce9ce957031b9",
  "abi": [
    {
      "inputs": [
        {
          "internalType": "address",
          "name": "trustedForwarder",
          "type": "address"
        },
        {
          "internalType": "address",
          "name": "paymentToken",
          "type": "address"
        },
        {
          "internalType": "address",
          "name": "beneficiary",
          "type": "address"
        },
        {
          "internalType": "bytes32",
          "name": "rankTokenCodeId",
          "type": "bytes32"
        },
        {
          "internalType": "bytes32",
          "name": "RankifyDIistributionId",
          "type": "bytes32"
        },
        {
          "internalType": "bytes32",
          "name": "accessManagerId",
          "type": "bytes32"
        },
        {
          "internalType": "bytes32",
          "name": "governanceERC20BaseId",
          "type": "bytes32"
        },
        {
          "internalType": "bytes32",
          "name": "distributionName",
          "type": "bytes32"
        },
        {
          "components": [
            {
              "internalType": "uint64",
              "name": "major",
              "type": "uint64"
            },
            {
              "internalType": "uint64",
              "name": "minor",
              "type": "uint64"
            },
            {
              "internalType": "uint128",
              "name": "patch",
              "type": "uint128"
            }
          ],
          "internalType": "struct LibSemver.Version",
          "name": "distributionVersion",
          "type": "tuple"
        }
      ],
      "stateMutability": "nonpayable",
      "type": "constructor"
    },
    {
      "inputs": [],
      "name": "ERC1167FailedCreateClone",
      "type": "error"
    },
    {
      "anonymous": false,
      "inputs": [
        {
          "indexed": true,
          "internalType": "address",
          "name": "distributor",
          "type": "address"
        },
        {
          "indexed": false,
          "internalType": "address[]",
          "name": "instances",
          "type": "address[]"
        }
      ],
      "name": "Distributed",
      "type": "event"
    },
    {
      "inputs": [],
      "name": "contractURI",
      "outputs": [
        {
          "internalType": "string",
          "name": "",
          "type": "string"
        }
      ],
      "stateMutability": "pure",
      "type": "function"
    },
    {
      "inputs": [],
      "name": "distributionSchema",
      "outputs": [
        {
          "components": [
            {
              "components": [
                {
                  "internalType": "string",
                  "name": "tokenName",
                  "type": "string"
                },
                {
                  "internalType": "string",
                  "name": "tokenSymbol",
                  "type": "string"
                }
              ],
              "internalType": "struct MAODistribution.TokenArguments",
              "name": "tokenSettings",
              "type": "tuple"
            },
            {
              "components": [
                {
                  "internalType": "uint256",
                  "name": "principalCost",
                  "type": "uint256"
                },
                {
                  "internalType": "uint96",
                  "name": "principalTimeConstant",
                  "type": "uint96"
                },
                {
                  "internalType": "string",
                  "name": "metadata",
                  "type": "string"
                },
                {
                  "internalType": "string",
                  "name": "rankTokenURI",
                  "type": "string"
                },
                {
                  "internalType": "string",
                  "name": "rankTokenContractURI",
                  "type": "string"
                }
              ],
              "internalType": "struct MAODistribution.UserRankifySettings",
              "name": "rankifySettings",
              "type": "tuple"
            }
          ],
          "internalType": "struct MAODistribution.DistributorArguments",
          "name": "",
          "type": "tuple"
        }
      ],
      "stateMutability": "pure",
      "type": "function"
    },
    {
      "inputs": [],
      "name": "get",
      "outputs": [
        {
          "internalType": "address[]",
          "name": "sources",
          "type": "address[]"
        },
        {
          "internalType": "bytes32",
          "name": "",
          "type": "bytes32"
        },
        {
          "internalType": "uint256",
          "name": "",
          "type": "uint256"
        }
      ],
      "stateMutability": "view",
      "type": "function"
    },
    {
      "inputs": [
        {
          "internalType": "bytes",
          "name": "data",
          "type": "bytes"
        }
      ],
      "name": "instantiate",
      "outputs": [
        {
          "internalType": "address[]",
          "name": "instances",
          "type": "address[]"
        },
        {
          "internalType": "bytes32",
          "name": "distributionName",
          "type": "bytes32"
        },
        {
          "internalType": "uint256",
          "name": "distributionVersion",
          "type": "uint256"
        }
      ],
      "stateMutability": "nonpayable",
      "type": "function"
    }
  ],
  "transactionHash": "0xddda32a09a964d8cbe9562ad9b7cf024d58b1a1505fe22d3d89cb532cb55969d",
  "args": [
    "0x0000000000000000000000000000000000000000",
    "0x79351F5d761490344F8AC2A1547D3112E962571C",
    "0x520E00225C4a43B6c55474Db44a4a44199b4c3eE",
    "0xc45f7146f3b03d2f84eaf696a8de2749d769b5508a6f1904817f31c408f95f60",
    "0x87b7002df2eb623c81a7861c9c88eefae51c9aeeb33b8fc63e3cb8a4b13c5d5d",
    "0x7b34a3a7d81217f02d0bcdeabb3385674214eb5c3c67f5338b8b383d11236311",
    "0x78f02106ceb1842586b7102001b2d891ee3f66bda23a5bf4d4c67c10794bd698",
    "0x4d414f0000000000000000000000000000000000000000000000000000000000",
    {
      "major": 0,
      "minor": 1,
      "patch": 0
    }
  ],
  "numDeployments": 1,
  "solcInputHash": "0626e7b2f6daacce34b354f8c1b3c1e7",
  "bytecode": "0x6101a060405234801561001157600080fd5b506040516127f23803806127f28339810160408190526100309161062a565b6001600160a01b03891660805260a082905261008381600081604001516001600160801b0316608083602001516001600160401b0316901b60c084600001516001600160401b0316901b17179050919050565b60c05260405163023aa9ab60e61b81526004810187905273c0d31d398c5ee86c5f8a23fa253ee8a586da03ce90638eaa6ac090602401602060405180830381865afa1580156100d6573d6000803e3d6000fd5b505050506040513d601f19601f820116820180604052508101906100fa919061074c565b6001600160a01b031660e05260405163023aa9ab60e61b81526004810184905273c0d31d398c5ee86c5f8a23fa253ee8a586da03ce90638eaa6ac090602401602060405180830381865afa158015610156573d6000803e3d6000fd5b505050506040513d601f19601f8201168201806040525081019061017a919061074c565b6001600160a01b03166101208190526101da5760405162461bcd60e51b815260206004820152601f60248201527f476f7665726e616e63652045524332302062617365206e6f7420666f756e640060448201526064015b60405180910390fd5b6001600160a01b0387166102305760405162461bcd60e51b815260206004820152601560248201527f42656e6566696369617279206e6f7420666f756e64000000000000000000000060448201526064016101d1565b6001600160a01b0380881661018052881661028d5760405162461bcd60e51b815260206004820152601760248201527f5061796d656e7420746f6b656e206e6f7420666f756e6400000000000000000060448201526064016101d1565b6001600160a01b038089166101605260e051166102ec5760405162461bcd60e51b815260206004820152601960248201527f52616e6b20746f6b656e2062617365206e6f7420666f756e640000000000000060448201526064016101d1565b60405163023aa9ab60e61b81526004810186905273c0d31d398c5ee86c5f8a23fa253ee8a586da03ce90638eaa6ac090602401602060405180830381865afa15801561033c573d6000803e3d6000fd5b505050506040513d601f19601f82011682018060405250810190610360919061074c565b6001600160a01b03166101008190526103c75760405162461bcd60e51b815260206004820152602360248201527f52616e6b69667920646973747269627574696f6e2062617365206e6f7420666f6044820152621d5b9960ea1b60648201526084016101d1565b60405163023aa9ab60e61b81526004810185905273c0d31d398c5ee86c5f8a23fa253ee8a586da03ce90638eaa6ac090602401602060405180830381865afa158015610417573d6000803e3d6000fd5b505050506040513d601f19601f8201168201806040525081019061043b919061074c565b6001600160a01b03166101408190526104965760405162461bcd60e51b815260206004820152601d60248201527f416363657373206d616e616765722062617365206e6f7420666f756e6400000060448201526064016101d1565b610140516104ab906387a9852f60e01b610516565b6105085760405162461bcd60e51b815260206004820152602860248201527f416363657373206d616e6167657220646f6573206e6f7420737570706f72742060448201526724a2a9219b9b9a1b60c11b60648201526084016101d1565b505050505050505050610767565b600061052183610539565b80156105325750610532838361056d565b9392505050565b600061054c826301ffc9a760e01b61056d565b80156105675750610565826001600160e01b031961056d565b155b92915050565b6040516001600160e01b031982166024820152600090819060440160408051601f19818403018152919052602080820180516001600160e01b03166301ffc9a760e01b178152825192935060009283928392909183918a617530fa92503d915060005190508280156105e0575060208210155b80156105ec5750600081115b979650505050505050565b80516001600160a01b038116811461060e57600080fd5b919050565b80516001600160401b038116811461060e57600080fd5b6000806000806000806000806000898b0361016081121561064a57600080fd5b6106538b6105f7565b995061066160208c016105f7565b985061066f60408c016105f7565b9750600060608c0151905080975050600060808c0151905080965050600060a08c0151905080955050600060c08c0151905080945050600060e08c0151905080935050606060ff19820112156106c457600080fd5b50604051606081016001600160401b03811182821017156106f557634e487b7160e01b600052604160045260246000fd5b6040526107056101008c01610613565b81526107146101208c01610613565b60208201526101408b01516001600160801b038116811461073457600080fd5b80604083015250809150509295985092959850929598565b60006020828403121561075e57600080fd5b610532826105f7565b60805160a05160c05160e0516101005161012051610140516101605161018051611feb610807600039600061112c015260006110fd015260008181610230015281816107200152610b480152600081816101dc01526105cf015260008181610188015261104601526000818161013401526109210152600081816102a0015261044001526000818161027d015261041d0152600060e00152611feb6000f3fe608060405234801561001057600080fd5b506004361061004c5760003560e01c80636d4ce63c146100515780639ca33c9e14610071578063d7d036ba14610084578063e8a3d48514610099575b600080fd5b6100596100b3565b60405161006893929190611689565b60405180910390f35b61005961007f36600461179c565b6102c5565b61008c610469565b604051610068919061186c565b604080516020810182526000815290516100689190611956565b60408051600580825260c0820190925260609160009182918291906020820160a0803683370190505090507f00000000000000000000000000000000000000000000000000000000000000008160008151811061011257610112611970565b60200260200101906001600160a01b031690816001600160a01b0316815250507f00000000000000000000000000000000000000000000000000000000000000008160018151811061016657610166611970565b60200260200101906001600160a01b031690816001600160a01b0316815250507f0000000000000000000000000000000000000000000000000000000000000000816002815181106101ba576101ba611970565b60200260200101906001600160a01b031690816001600160a01b0316815250507f00000000000000000000000000000000000000000000000000000000000000008160038151811061020e5761020e611970565b60200260200101906001600160a01b031690816001600160a01b0316815250507f00000000000000000000000000000000000000000000000000000000000000008160048151811061026257610262611970565b6001600160a01b0390921660209283029190910190910152937f000000000000000000000000000000000000000000000000000000000000000093507f000000000000000000000000000000000000000000000000000000000000000092509050565b60606000806000848060200190518101906102e09190611aaa565b905060006102f182600001516104ec565b5050905060006103048360200151610915565b505090506000815183516103189190611ba9565b67ffffffffffffffff811115610330576103306116e1565b604051908082528060200260200182016040528015610359578160200160208202803683370190505b50905060005b83518110156103b45783818151811061037a5761037a611970565b602002602001015182828151811061039457610394611970565b6001600160a01b039092166020928302919091019091015260010161035f565b5060005b8251811015610419578281815181106103d3576103d3611970565b6020026020010151828286516103e99190611ba9565b815181106103f9576103f9611970565b6001600160a01b03909216602092830291909101909101526001016103b8565b50977f000000000000000000000000000000000000000000000000000000000000000097507f00000000000000000000000000000000000000000000000000000000000000009650945050505050565b610471611623565b506040805160a0808201835260006080808401828152848601908152855160208181018852848252606080880192909252918652865194850187528385528482018490528651808301885284815285880152865180830188528481529085015285518082019096529185528201939093529181019190915290565b606060008060006040518060400160405280600167ffffffffffffffff811115610518576105186116e1565b604051908082528060200260200182016040528015610541578160200160208202803683370190505b50815260408051600180825281830190925260209092019190816020016020820280368337505050905280518051919250309160009061058357610583611970565b60200260200101906001600160a01b031690816001600160a01b031681525050600081602001516000815181106105bc576105bc611970565b60200260200101818152505060006105fc7f00000000000000000000000000000000000000000000000000000000000000006001600160a01b0316611380565b604080516060810182526001600160a01b03831681528851602080830191909152890151818301528151600180825281840190935292935091600091816020015b6040805160608082018352600080835260208301919091529181019190915281526020019060019003908161063d5790505090506340c10f1960e01b8160008151811061068c5761068c611970565b60209081029190910101516001600160e01b03199190911690526040805160018082528183019092529081602001602082028036833701905050816000815181106106d9576106d9611970565b6020026020010151602001819052506001816000815181106106fd576106fd611970565b602090810291909101015190151560409091015260006107456001600160a01b037f000000000000000000000000000000000000000000000000000000000000000016611380565b83516040517f90c2e4940000000000000000000000000000000000000000000000000000000081529192506001600160a01b038316916390c2e49491610792918691903390600401611c0f565b600060405180830381600087803b1580156107ac57600080fd5b505af11580156107c0573d6000803e3d6000fd5b50508451602086015160408088015190517f3bd0365b0000000000000000000000000000000000000000000000000000000081526001600160a01b039093169450633bd0365b9350610818928a908790600401611cdd565b600060405180830381600087803b15801561083257600080fd5b505af1158015610846573d6000803e3d6000fd5b5060009250600291506108569050565b60405190808252806020026020018201604052801561087f578160200160208202803683370190505b509050848160008151811061089657610896611970565b60200260200101906001600160a01b031690816001600160a01b03168152505081816001815181106108ca576108ca611970565b6001600160a01b039290921660209283029190910190910152997f4f5378446973747269627574696f6e00000000000000000000000000000000009950600198509650505050505050565b6060600080600061094e7f00000000000000000000000000000000000000000000000000000000000000006001600160a01b0316611380565b60408051600680825260e08201909252919250600091906020820160c08036833701905050905063731133e960e01b8160008151811061099057610990611970565b6001600160e01b03199092166020928302919091019091015280517fe2ab691d0000000000000000000000000000000000000000000000000000000090829060019081106109e0576109e0611970565b6001600160e01b03199092166020928302919091019091015280517fb5674c68000000000000000000000000000000000000000000000000000000009082906002908110610a3057610a30611970565b6001600160e01b03199092166020928302919091019091015280517fb48ab8b6000000000000000000000000000000000000000000000000000000009082906003908110610a8057610a80611970565b6001600160e01b03199092166020928302919091019091015280517f02fe5305000000000000000000000000000000000000000000000000000000009082906004908110610ad057610ad0611970565b6001600160e01b03199092166020928302919091019091015280517f938e3d7b000000000000000000000000000000000000000000000000000000009082906005908110610b2057610b20611970565b6001600160e01b0319909216602092830291909101909101526000610b6d6001600160a01b037f000000000000000000000000000000000000000000000000000000000000000016611380565b60408051600680825260e0820190925291925060009190816020015b60408051606080820183526000808352602083019190915291810191909152815260200190600190039081610b8957905050905063731133e960e01b81600081518110610bd857610bd8611970565b60209081029190910101516001600160e01b0319919091169052604080516001808252818301909252908160200160208202803683370190505081600081518110610c2557610c25611970565b602002602001015160200181905250600181600081518110610c4957610c49611970565b6020026020010151604001901515908115158152505063e2ab691d60e01b81600181518110610c7a57610c7a611970565b60209081029190910101516001600160e01b0319919091169052604080516001808252818301909252908160200160208202803683370190505081600181518110610cc757610cc7611970565b602002602001015160200181905250600181600181518110610ceb57610ceb611970565b6020026020010151604001901515908115158152505063b5674c6860e01b81600281518110610d1c57610d1c611970565b60209081029190910101516001600160e01b0319919091169052604080516001808252818301909252908160200160208202803683370190505081600281518110610d6957610d69611970565b602002602001015160200181905250600181600281518110610d8d57610d8d611970565b6020026020010151604001901515908115158152505063b48ab8b660e01b81600381518110610dbe57610dbe611970565b60209081029190910101516001600160e01b0319919091169052604080516001808252818301909252908160200160208202803683370190505081600381518110610e0b57610e0b611970565b602002602001015160200181905250600181600381518110610e2f57610e2f611970565b602002602001015160400190151590811515815250506302fe530560e01b81600481518110610e6057610e60611970565b60209081029190910101516001600160e01b03199091169052805160019082906004908110610e9157610e91611970565b6020026020010151604001901515908115158152505063938e3d7b60e01b81600581518110610ec257610ec2611970565b60209081029190910101516001600160e01b03199091169052805160019082906005908110610ef357610ef3611970565b6020908102919091010151901515604091820152517f90c2e4940000000000000000000000000000000000000000000000000000000081526001600160a01b038316906390c2e49490610f4e90849088903390600401611c0f565b600060405180830381600087803b158015610f6857600080fd5b505af1158015610f7c573d6000803e3d6000fd5b50505050606088015160808901516040517f077f224a0000000000000000000000000000000000000000000000000000000081526001600160a01b0387169263077f224a92610fcf928790600401611d7f565b600060405180830381600087803b158015610fe957600080fd5b505af1158015610ffd573d6000803e3d6000fd5b50506040517f9ca33c9e00000000000000000000000000000000000000000000000000000000815260206004820152600060248201819052925082915081906001600160a01b037f00000000000000000000000000000000000000000000000000000000000000001690639ca33c9e906044016000604051808303816000875af115801561108f573d6000803e3d6000fd5b505050506040513d6000823e601f3d908101601f191682016040526110b79190810190611dbe565b92509250925060006040518060a00160405280896001600160a01b031681526020018d6000015181526020018d602001516bffffffffffffffffffffffff1681526020017f00000000000000000000000000000000000000000000000000000000000000006001600160a01b031681526020017f00000000000000000000000000000000000000000000000000000000000000006001600160a01b031681525090508360008151811061116c5761116c611970565b60200260200101516001600160a01b0316636d4eaddf8460405160200161119591815260200190565b60408051601f198184030181526060808401835260008085526020858101829052948401528251908101835260c088901c815267ffffffffffffffff608089901c16938101939093526fffffffffffffffffffffffffffffffff871691830191909152906112029061140b565b846040518463ffffffff1660e01b815260040161122193929190611e96565b600060405180830381600087803b15801561123b57600080fd5b505af115801561124f573d6000803e3d6000fd5b505050506000845160026112639190611ba9565b67ffffffffffffffff81111561127b5761127b6116e1565b6040519080825280602002602001820160405280156112a4578160200160208202803683370190505b50905060005b85518110156112ff578581815181106112c5576112c5611970565b60200260200101518282815181106112df576112df611970565b6001600160a01b03909216602092830291909101909101526001016112aa565b50868186518151811061131457611314611970565b60200260200101906001600160a01b031690816001600160a01b0316815250508881865160016113449190611ba9565b8151811061135457611354611970565b6001600160a01b03909216602092830291909101909101529a5091985096505050505050509193909250565b6000763d602d80600a3d3981f3363d3d373d3d3d363d730000008260601b60e81c176000526e5af43d82803e903d91602b57fd5bf38260781b17602052603760096000f090506001600160a01b038116611406576040517fc2f868f400000000000000000000000000000000000000000000000000000000815260040160405180910390fd5b919050565b6060611424826000015167ffffffffffffffff16611482565b61143b836020015167ffffffffffffffff16611482565b61145a84604001516fffffffffffffffffffffffffffffffff16611482565b60405160200161146c93929190611f1e565b6040516020818303038152906040529050919050565b6060600061148f83611540565b600101905060008167ffffffffffffffff8111156114af576114af6116e1565b6040519080825280601f01601f1916602001820160405280156114d9576020820181803683370190505b5090508181016020015b7fffffffffffffffffffffffffffffffffffffffffffffffffffffffffffffffff017f3031323334353637383961626364656600000000000000000000000000000000600a86061a8153600a85049450846114e357509392505050565b6000807a184f03e93ff9f4daa797ed6e38ed64bf6a1f0100000000000000008310611589577a184f03e93ff9f4daa797ed6e38ed64bf6a1f010000000000000000830492506040015b6d04ee2d6d415b85acef810000000083106115b5576d04ee2d6d415b85acef8100000000830492506020015b662386f26fc1000083106115d357662386f26fc10000830492506010015b6305f5e10083106115eb576305f5e100830492506008015b61271083106115ff57612710830492506004015b60648310611611576064830492506002015b600a831061161d576001015b92915050565b6040805160808101825260609181018281528282019290925290819081526020016116846040518060a001604052806000815260200160006bffffffffffffffffffffffff1681526020016060815260200160608152602001606081525090565b905290565b6060808252845190820181905260009060208601906080840190835b818110156116cc5783516001600160a01b03168352602093840193909201916001016116a5565b50506020840195909552505060400152919050565b634e487b7160e01b600052604160045260246000fd5b60405160a0810167ffffffffffffffff8111828210171561171a5761171a6116e1565b60405290565b6040805190810167ffffffffffffffff8111828210171561171a5761171a6116e1565b604051601f8201601f1916810167ffffffffffffffff8111828210171561176c5761176c6116e1565b604052919050565b600067ffffffffffffffff82111561178e5761178e6116e1565b50601f01601f191660200190565b6000602082840312156117ae57600080fd5b813567ffffffffffffffff8111156117c557600080fd5b8201601f810184136117d657600080fd5b80356117e96117e482611774565b611743565b8181528560208385010111156117fe57600080fd5b81602084016020830137600091810160200191909152949350505050565b60005b8381101561183757818101518382015260200161181f565b50506000910152565b6000815180845261185881602086016020860161181c565b601f01601f19169290920160200192915050565b60208152600082516040602084015280516040606085015261189160a0850182611840565b9050602082015191507fffffffffffffffffffffffffffffffffffffffffffffffffffffffffffffffa08482030160808501526118ce8183611840565b9150506020840151601f19848303016040850152805182526bffffffffffffffffffffffff6020820151166020830152604081015160a0604084015261191760a0840182611840565b9050606082015183820360608501526119308282611840565b91505060808201519150828103608084015261194c8183611840565b9695505050505050565b6020815260006119696020830184611840565b9392505050565b634e487b7160e01b600052603260045260246000fd5b600082601f83011261199757600080fd5b81516119a56117e482611774565b8181528460208386010111156119ba57600080fd5b6119cb82602083016020870161181c565b949350505050565b80516bffffffffffffffffffffffff8116811461140657600080fd5b600060a08284031215611a0157600080fd5b611a096116f7565b825181529050611a1b602083016119d3565b6020820152604082015167ffffffffffffffff811115611a3a57600080fd5b611a4684828501611986565b604083015250606082015167ffffffffffffffff811115611a6657600080fd5b611a7284828501611986565b606083015250608082015167ffffffffffffffff811115611a9257600080fd5b611a9e84828501611986565b60808301525092915050565b600060208284031215611abc57600080fd5b815167ffffffffffffffff811115611ad357600080fd5b820160408185031215611ae557600080fd5b611aed611720565b815167ffffffffffffffff811115611b0457600080fd5b820160408187031215611b1657600080fd5b611b1e611720565b815167ffffffffffffffff811115611b3557600080fd5b611b4188828501611986565b825250602082015167ffffffffffffffff811115611b5e57600080fd5b611b6a88828501611986565b6020830152508083525050602082015167ffffffffffffffff811115611b8f57600080fd5b611b9b868285016119ef565b602083015250949350505050565b8082018082111561161d57634e487b7160e01b600052601160045260246000fd5b600081518084526020840193506020830160005b82811015611c055781516001600160a01b0316865260209586019590910190600101611bde565b5093949350505050565b6000606082016060835280865180835260808501915060808160051b86010192506020880160005b82811015611cb4577fffffffffffffffffffffffffffffffffffffffffffffffffffffffffffffff8087860301845281516001600160e01b03198151168652602081015160606020880152611c8f6060880182611bca565b6040928301511515979092019690965294506020938401939190910190600101611c37565b5050506001600160a01b03861660208501525090506001600160a01b03831660408301526119cb565b608081526000611cf06080830187611840565b8281036020840152611d028187611840565b90508281036040840152845160408252611d1f6040830182611bca565b602087810151848303948201949094528351808352918101930191506000905b80821015611d625782518452602084019350602083019250600182019150611d3f565b5050506001600160a01b0384166060840152905095945050505050565b606081526000611d926060830186611840565b8281036020840152611da48186611840565b9150506001600160a01b0383166040830152949350505050565b600080600060608486031215611dd357600080fd5b835167ffffffffffffffff811115611dea57600080fd5b8401601f81018613611dfb57600080fd5b805167ffffffffffffffff811115611e1557611e156116e1565b8060051b611e2560208201611743565b91825260208184018101929081019089841115611e4157600080fd5b6020850194505b83851015611e7b57845192506001600160a01b0383168314611e6957600080fd5b82825260209485019490910190611e48565b6020890151604090990151909a989950979650505050505050565b60e081526000611ea960e0830186611840565b8281036020840152611ebb8186611840565b9150506001600160a01b038351166040830152602083015160608301526bffffffffffffffffffffffff60408401511660808301526001600160a01b0360608401511660a08301526001600160a01b0360808401511660c0830152949350505050565b60008451611f3081846020890161181c565b7f2e000000000000000000000000000000000000000000000000000000000000009083019081528451611f6a81600184016020890161181c565b7f2e00000000000000000000000000000000000000000000000000000000000000600192909101918201528351611fa881600284016020880161181c565b016002019594505050505056fea2646970667358221220882b7be43f42bc4c083fab53a61c795fa8e39f74985538e775ab8babb4f423b064736f6c634300081c0033",
  "devdoc": {
    "author": "Peeramid Labs, 2024",
    "details": "This contract implements the IDistribution and CodeIndexer interfaces. It uses the Clones library for address cloning.",
    "errors": {
      "ERC1167FailedCreateClone()": [
        {
          "details": "A clone instance deployment failed."
        }
      ]
    },
    "events": {
      "Distributed(address,address[])": {
        "params": {
          "distributor": "The address of the entity that performed the distribution.",
          "instances": "An array of addresses that were produced."
        }
      }
    },
    "kind": "dev",
    "methods": {
      "constructor": {
        "details": "Retrieves contract addresses from a contract index using the provided identifiers      and initializes the distribution system.",
        "params": {
          "RankifyDIistributionId": "Identifier for the Rankify distribution implementation",
          "accessManagerId": "Identifier for the access manager implementation",
          "beneficiary": "Address that receives payments and fees",
          "distributionName": "Name identifier for this distribution",
          "distributionVersion": "Semantic version information as LibSemver.Version struct",
          "governanceERC20BaseId": "Identifier for the governance token implementation",
          "paymentToken": "Address of the token used for payments in the system",
          "rankTokenCodeId": "Identifier for the rank token implementation in CodeIndex",
          "trustedForwarder": "Address of the trusted forwarder for meta-transactions (WARNING: Not yet reviewed)"
        }
      },
      "distributionSchema()": {
        "details": "This is only needed to ensure `DistributorArguments` are provided in ABI, as it would be internal otherwise.",
        "returns": {
          "_0": "DistributorArguments The schema of the distribution."
        }
      },
      "get()": {
        "returns": {
          "_1": "The name of the distribution.",
          "_2": "The version of the distribution.",
          "sources": "An array of addresses that are used for instantiation."
        }
      },
      "instantiate(bytes)": {
        "details": "`instances` array contents: DAO, GovernanceToken, Gov Token AccessManager, Rankify Diamond, 8x Rankify Diamond facets, RankTokenAccessManager, RankToken",
        "params": {
          "data": "The initialization data for the new instance, typeof {DistributorArguments}."
        },
        "returns": {
          "distributionName": "A bytes32 value representing the name of the distribution.",
          "distributionVersion": "A uint256 value representing the version of the distribution.",
          "instances": "An array of addresses representing the new instances."
        }
      }
    },
    "title": "MAODistribution",
    "version": 1
  },
  "userdoc": {
    "events": {
      "Distributed(address,address[])": {
        "notice": "Emitted when a distribution occurs."
      }
    },
    "kind": "user",
    "methods": {
      "constructor": {
        "notice": "Initializes the contract with the provided parameters and performs necessary checks."
      },
      "distributionSchema()": {
        "notice": "Returns the schema of the distribution."
      },
      "get()": {
        "notice": "Retrieves the current distribution sources."
      },
      "instantiate(bytes)": {
        "notice": "Instantiates a new instance with the provided data."
      }
    },
    "notice": "The contract is responsible for creating and managing DAOs and Rankify distributions.",
    "version": 1
  },
  "storageLayout": {
    "storage": [],
    "types": null
  }
}