{
  "address": "0x7f5b3d109fbb2570188aB211Fdcac98FbdA079c0",
  "abi": [
    {
      "inputs": [
        {
          "internalType": "address",
          "name": "tokenVotingPluginRepo",
          "type": "address"
        },
        {
          "internalType": "address",
          "name": "daoFactory",
          "type": "address"
        },
        {
          "internalType": "address",
          "name": "trustedForwarder",
          "type": "address"
        },
        {
          "internalType": "bytes32",
          "name": "rankTokenCodeId",
          "type": "bytes32"
        },
        {
          "internalType": "bytes32",
          "name": "ACIDDIistributionId",
          "type": "bytes32"
        },
        {
          "internalType": "bytes32",
          "name": "accessManagerId",
          "type": "bytes32"
        },
        {
          "internalType": "bytes32",
          "name": "governanceERC20BaseId",
          "type": "bytes32"
        },
        {
          "internalType": "bytes32",
          "name": "distributionName",
          "type": "bytes32"
        },
        {
          "components": [
            {
              "internalType": "uint64",
              "name": "major",
              "type": "uint64"
            },
            {
              "internalType": "uint64",
              "name": "minor",
              "type": "uint64"
            },
            {
              "internalType": "uint128",
              "name": "patch",
              "type": "uint128"
            }
          ],
          "internalType": "struct LibSemver.Version",
          "name": "distributionVersion",
          "type": "tuple"
        }
      ],
      "stateMutability": "nonpayable",
      "type": "constructor"
    },
    {
      "inputs": [],
      "name": "ERC1167FailedCreateClone",
      "type": "error"
    },
    {
      "anonymous": false,
      "inputs": [
        {
          "indexed": true,
          "internalType": "address",
          "name": "distributor",
          "type": "address"
        },
        {
          "indexed": false,
          "internalType": "address[]",
          "name": "instances",
          "type": "address[]"
        }
      ],
      "name": "Distributed",
      "type": "event"
    },
    {
      "inputs": [],
      "name": "contractURI",
      "outputs": [
        {
          "internalType": "string",
          "name": "",
          "type": "string"
        }
      ],
      "stateMutability": "pure",
      "type": "function"
    },
    {
      "inputs": [],
      "name": "distributionSchema",
      "outputs": [
        {
          "components": [
            {
              "components": [
                {
                  "internalType": "string",
                  "name": "daoURI",
                  "type": "string"
                },
                {
                  "internalType": "string",
                  "name": "subdomain",
                  "type": "string"
                },
                {
                  "internalType": "bytes",
                  "name": "metadata",
                  "type": "bytes"
                },
                {
                  "internalType": "string",
                  "name": "tokenName",
                  "type": "string"
                },
                {
                  "internalType": "string",
                  "name": "tokenSymbol",
                  "type": "string"
                }
              ],
              "internalType": "struct MAODistribution.OSxDistributionArguments",
              "name": "DAOSEttings",
              "type": "tuple"
            },
            {
              "components": [
                {
                  "internalType": "uint256",
                  "name": "timePerTurn",
                  "type": "uint256"
                },
                {
                  "internalType": "uint256",
                  "name": "maxPlayersSize",
                  "type": "uint256"
                },
                {
                  "internalType": "uint256",
                  "name": "minPlayersSize",
                  "type": "uint256"
                },
                {
                  "internalType": "uint256",
                  "name": "timeToJoin",
                  "type": "uint256"
                },
                {
                  "internalType": "uint256",
                  "name": "maxTurns",
                  "type": "uint256"
                },
                {
                  "internalType": "uint256",
                  "name": "voteCredits",
                  "type": "uint256"
                },
                {
                  "internalType": "uint256",
                  "name": "gamePrice",
                  "type": "uint256"
                },
                {
                  "internalType": "address",
                  "name": "paymentToken",
                  "type": "address"
                },
                {
                  "internalType": "uint256",
                  "name": "joinGamePrice",
                  "type": "uint256"
                },
                {
                  "internalType": "string",
                  "name": "metadata",
                  "type": "string"
                },
                {
                  "internalType": "string",
                  "name": "rankTokenURI",
                  "type": "string"
                },
                {
                  "internalType": "string",
                  "name": "RankTokenContractURI",
                  "type": "string"
                }
              ],
              "internalType": "struct MAODistribution.UserACIDSettings",
              "name": "ACIDSettings",
              "type": "tuple"
            }
          ],
          "internalType": "struct MAODistribution.DistributorArguments",
          "name": "",
          "type": "tuple"
        }
      ],
      "stateMutability": "pure",
      "type": "function"
    },
    {
      "inputs": [],
      "name": "get",
      "outputs": [
        {
          "internalType": "address[]",
          "name": "sources",
          "type": "address[]"
        },
        {
          "internalType": "bytes32",
          "name": "",
          "type": "bytes32"
        },
        {
          "internalType": "uint256",
          "name": "",
          "type": "uint256"
        }
      ],
      "stateMutability": "view",
      "type": "function"
    },
    {
      "inputs": [
        {
          "internalType": "bytes",
          "name": "data",
          "type": "bytes"
        }
      ],
      "name": "instantiate",
      "outputs": [
        {
          "internalType": "address[]",
          "name": "instances",
          "type": "address[]"
        },
        {
          "internalType": "bytes32",
          "name": "distributionName",
          "type": "bytes32"
        },
        {
          "internalType": "uint256",
          "name": "distributionVersion",
          "type": "uint256"
        }
      ],
      "stateMutability": "nonpayable",
      "type": "function"
    }
  ],
  "transactionHash": "0x25b85ed42d4ec9a44150801d00a04f97b5085a9b1dd533f7b1bd6257e25b77e3",
  "args": [
    "0x1AeD2BEb470aeFD65B43f905Bd5371b1E4749d18",
    "0x08633901DdF9cD8e2DC3a073594d0A7DaD6f3f57",
    "0x0000000000000000000000000000000000000000",
    "0xcfbddc4ef9938401c9f998db20cd97e3dba0a5c283be0458c118ec898dce4a33",
    "0x857fa7136daab4c1b026d1786091c122b1903deb60cbbbdfbffeb8aa1e2f72f3",
    "0xc5dfea654e5a5438eb1b706acaa6a261ce0c6dfd3fb6d15986e0d51e3beee05b",
    "0x0b410f1e670163dcc524c39830c5c489777c6a12235344c5ffab3c4558ec9cd0",
    "0x4d414f0000000000000000000000000000000000000000000000000000000000",
    {
      "major": 0,
      "minor": 1,
      "patch": 0
    }
  ],
  "numDeployments": 1,
  "solcInputHash": "8b178e5db390f3cab8ab670750551215",
  "bytecode": "0x6101a06040523480156200001257600080fd5b50604051620032d8380380620032d883398101604081905262000035916200053e565b60405163023aa9ab60e61b81526004810184905273c0d31d398c5ee86c5f8a23fa253ee8a586da03ce90638eaa6ac090602401602060405180830381865afa15801562000086573d6000803e3d6000fd5b505050506040513d601f19601f82011682018060405250810190620000ac919062000650565b6001600160a01b039081166101605289811660805288811660a052871660c05260e08290526200011381600081604001516001600160801b0316608083602001516001600160401b0316901b60c084600001516001600160401b0316901b17179050919050565b6101005260405163023aa9ab60e61b81526004810187905273c0d31d398c5ee86c5f8a23fa253ee8a586da03ce90638eaa6ac090602401602060405180830381865afa15801562000168573d6000803e3d6000fd5b505050506040513d601f19601f820116820180604052508101906200018e919062000650565b6001600160a01b0316610120819052620001ef5760405162461bcd60e51b815260206004820152601960248201527f52616e6b20746f6b656e2062617365206e6f7420666f756e640000000000000060448201526064015b60405180910390fd5b60405163023aa9ab60e61b81526004810186905273c0d31d398c5ee86c5f8a23fa253ee8a586da03ce90638eaa6ac090602401602060405180830381865afa15801562000240573d6000803e3d6000fd5b505050506040513d601f19601f8201168201806040525081019062000266919062000650565b6001600160a01b0316610140819052620002c35760405162461bcd60e51b815260206004820181905260248201527f4143494420646973747269627574696f6e2062617365206e6f7420666f756e646044820152606401620001e6565b60405163023aa9ab60e61b81526004810185905273c0d31d398c5ee86c5f8a23fa253ee8a586da03ce90638eaa6ac090602401602060405180830381865afa15801562000314573d6000803e3d6000fd5b505050506040513d601f19601f820116820180604052508101906200033a919062000650565b6001600160a01b0316610180819052620003975760405162461bcd60e51b815260206004820152601d60248201527f416363657373206d616e616765722062617365206e6f7420666f756e640000006044820152606401620001e6565b61018051620003ae906387a9852f60e01b6200041c565b6200040d5760405162461bcd60e51b815260206004820152602860248201527f416363657373206d616e6167657220646f6573206e6f7420737570706f72742060448201526724a2a9219b9b9a1b60c11b6064820152608401620001e6565b5050505050505050506200066e565b6000620004298362000444565b80156200043d57506200043d83836200047d565b9392505050565b600062000459826301ffc9a760e01b6200047d565b801562000477575062000475826001600160e01b03196200047d565b155b92915050565b6040516001600160e01b031982166024820152600090819060440160408051601f19818403018152919052602080820180516001600160e01b03166301ffc9a760e01b178152825192935060009283928392909183918a617530fa92503d91506000519050828015620004f1575060208210155b8015620004fe5750600081115b979650505050505050565b80516001600160a01b03811681146200052157600080fd5b919050565b80516001600160401b03811681146200052157600080fd5b6000806000806000806000806000898b036101608112156200055f57600080fd5b6200056a8b62000509565b99506200057a60208c0162000509565b98506200058a60408c0162000509565b975060608b0151965060808b0151955060a08b0151945060c08b0151935060e08b01519250606060ff1982011215620005c257600080fd5b50604051606081016001600160401b0381118282101715620005f457634e487b7160e01b600052604160045260246000fd5b604052620006066101008c0162000526565b8152620006176101208c0162000526565b60208201526101408b01516001600160801b03811681146200063857600080fd5b80604083015250809150509295985092959850929598565b6000602082840312156200066357600080fd5b6200043d8262000509565b60805160a05160c05160e0516101005161012051610140516101605161018051612ba662000732600039600081816102da01528181610c390152611565015260008181610286015261074401526000818161023201526116920152600081816101de0152610e5f01526000818161034a015261051501526000818161032701526104f201526000818161018a01526107f50152600081816101360152610a5a01526000818160e20152818161085a01528181610889015261097a0152612ba66000f3fe608060405234801561001057600080fd5b506004361061004c5760003560e01c80636d4ce63c146100515780639ca33c9e14610071578063d7d036ba14610084578063e8a3d48514610099575b600080fd5b6100596100b3565b60405161006893929190611d41565b60405180910390f35b61005961007f366004611e99565b61036f565b61008c61053e565b604051610068919061202f565b604080516020810182526000815290516100689190612111565b6040805160088082526101208201909252606091600091829182919060208201610100803683370190505090507f0000000000000000000000000000000000000000000000000000000000000000816000815181106101145761011461212b565b60200260200101906001600160a01b031690816001600160a01b0316815250507f0000000000000000000000000000000000000000000000000000000000000000816001815181106101685761016861212b565b60200260200101906001600160a01b031690816001600160a01b0316815250507f0000000000000000000000000000000000000000000000000000000000000000816002815181106101bc576101bc61212b565b60200260200101906001600160a01b031690816001600160a01b0316815250507f0000000000000000000000000000000000000000000000000000000000000000816003815181106102105761021061212b565b60200260200101906001600160a01b031690816001600160a01b0316815250507f0000000000000000000000000000000000000000000000000000000000000000816004815181106102645761026461212b565b60200260200101906001600160a01b031690816001600160a01b0316815250507f0000000000000000000000000000000000000000000000000000000000000000816006815181106102b8576102b861212b565b60200260200101906001600160a01b031690816001600160a01b0316815250507f00000000000000000000000000000000000000000000000000000000000000008160078151811061030c5761030c61212b565b6001600160a01b0390921660209283029190910190910152937f000000000000000000000000000000000000000000000000000000000000000093507f000000000000000000000000000000000000000000000000000000000000000092509050565b606060008060008480602001905181019061038a91906122a4565b9050600061039b8260000151610661565b5050905060006103c98360200151836000815181106103bc576103bc61212b565b6020026020010151610e53565b505090506000815183516103dd9190612407565b67ffffffffffffffff8111156103f5576103f5611d97565b60405190808252806020026020018201604052801561041e578160200160208202803683370190505b50905060005b83518110156104815783818151811061043f5761043f61212b565b60200260200101518282815181106104595761045961212b565b6001600160a01b039092166020928302919091019091015261047a8161241a565b9050610424565b5060005b82518110156104ee578281815181106104a0576104a061212b565b6020026020010151828286516104b69190612407565b815181106104c6576104c661212b565b6001600160a01b03909216602092830291909101909101526104e78161241a565b9050610485565b50977f000000000000000000000000000000000000000000000000000000000000000097507f00000000000000000000000000000000000000000000000000000000000000009650945050505050565b610546611c8d565b60405180604001604052806040518060a001604052806040518060200160405280600081525081526020016040518060200160405280600081525081526020016040518060200160405280600081525081526020016040518060200160405280600081525081526020016040518060200160405280600081525081525081526020016040518061018001604052806000815260200160008152602001600081526020016000815260200160008152602001600081526020016000815260200160006001600160a01b031681526020016000815260200160405180602001604052806000815250815260200160405180602001604052806000815250815260200160405180602001604052806000815250815250815250905090565b606060008060006040518060400160405280600167ffffffffffffffff81111561068d5761068d611d97565b6040519080825280602002602001820160405280156106b6578160200160208202803683370190505b5081526040805160018082528183019092526020909201919081602001602082028036833750505090528051805191925030916000906106f8576106f861212b565b60200260200101906001600160a01b031690816001600160a01b031681525050600081602001516000815181106107315761073161212b565b60200260200101818152505060006107717f00000000000000000000000000000000000000000000000000000000000000006001600160a01b0316611a08565b60408051606080820183526001600160a01b03841682528901516020820152608089015181830152815160a0810190925291925060009080828152602001620a2c2a63ffffffff16815260200161271063ffffffff1681526020016201518067ffffffffffffffff16815260200160018152509050600060405180608001604052807f00000000000000000000000000000000000000000000000000000000000000006001600160a01b031681526020018a6000015181526020018a6020015181526020018a6040015181525090506000604051806040016040528060405180604001604052807f00000000000000000000000000000000000000000000000000000000000000006001600160a01b031663e0589bd37f00000000000000000000000000000000000000000000000000000000000000006001600160a01b0316637be0ca5e6040518163ffffffff1660e01b8152600401602060405180830381865afa1580156108e5573d6000803e3d6000fd5b505050506040513d601f19601f820116820180604052508101906109099190612445565b6040516001600160e01b031960e084901b16815260ff9091166004820152602401600060405180830381865afa158015610947573d6000803e3d6000fd5b505050506040513d6000823e601f3d908101601f1916820160405261096f9190810190612460565b6000015181526020017f00000000000000000000000000000000000000000000000000000000000000006001600160a01b031681525081526020018486896040516020016109bf9392919061260d565b60408051808303601f1901815291815291528051600180825281830190925291925060009190816020015b610a226040805160c08101825260006080820181815260a0830182905292820192835260608201529081908152602001606081525090565b8152602001906001900390816109ea5790505090508181600081518110610a4b57610a4b61212b565b602002602001018190525060007f00000000000000000000000000000000000000000000000000000000000000006001600160a01b031663b556883885846040518363ffffffff1660e01b8152600401610aa6929190612697565b6020604051808303816000875af1158015610ac5573d6000803e3d6000fd5b505050506040513d601f19601f82011682018060405250810190610ae991906127b1565b60408051600180825281830190925291925060009190816020015b60408051606080820183526000808352602083019190915291810191909152815260200190600190039081610b045790505090506340c10f1960e01b81600081518110610b5357610b5361212b565b60209081029190910101516001600160e01b0319919091169052604080516001808252818301909252908160200160208202803683370190505081600081518110610ba057610ba061212b565b6020026020010151602001819052508181600081518110610bc357610bc361212b565b602002602001015160200151600081518110610be157610be161212b565b60200260200101906001600160a01b031690816001600160a01b031681525050600181600081518110610c1657610c1661212b565b60209081029190910101519015156040909101526000610c5e6001600160a01b037f000000000000000000000000000000000000000000000000000000000000000016611a08565b88516040517f90c2e4940000000000000000000000000000000000000000000000000000000081529192506001600160a01b038316916390c2e49491610cab9186919033906004016127cc565b600060405180830381600087803b158015610cc557600080fd5b505af1158015610cd9573d6000803e3d6000fd5b5050505087600001516001600160a01b0316636c8864d1848a602001518b604001518e866040518663ffffffff1660e01b8152600401610d1d95949392919061289e565b600060405180830381600087803b158015610d3757600080fd5b505af1158015610d4b573d6000803e3d6000fd5b506000925060039150610d5b9050565b604051908082528060200260200182016040528015610d84578160200160208202803683370190505b5090508381600081518110610d9b57610d9b61212b565b60200260200101906001600160a01b031690816001600160a01b0316815250508981600181518110610dcf57610dcf61212b565b60200260200101906001600160a01b031690816001600160a01b0316815250508181600281518110610e0357610e0361212b565b6001600160a01b0392909216602092830291909101909101529e7f4f5378446973747269627574696f6e00000000000000000000000000000000009e5060019d509b505050505050505050505050565b60606000806000610e8c7f00000000000000000000000000000000000000000000000000000000000000006001600160a01b0316611a08565b60408051600680825260e08201909252919250600091906020820160c08036833701905050905063731133e960e01b81600081518110610ece57610ece61212b565b6001600160e01b03199092166020928302919091019091015280517fe2ab691d000000000000000000000000000000000000000000000000000000009082906001908110610f1e57610f1e61212b565b6001600160e01b03199092166020928302919091019091015280517fb5674c68000000000000000000000000000000000000000000000000000000009082906002908110610f6e57610f6e61212b565b6001600160e01b03199092166020928302919091019091015280517fb48ab8b6000000000000000000000000000000000000000000000000000000009082906003908110610fbe57610fbe61212b565b6001600160e01b03199092166020928302919091019091015280517f02fe530500000000000000000000000000000000000000000000000000000000908290600490811061100e5761100e61212b565b6001600160e01b03199092166020928302919091019091015280517f938e3d7b00000000000000000000000000000000000000000000000000000000908290600590811061105e5761105e61212b565b6001600160e01b0319929092166020928302919091019091015260408051600680825260e08201909252600091816020015b6040805160608082018352600080835260208301919091529181019190915281526020019060019003908161109057905050905063731133e960e01b816000815181106110df576110df61212b565b60209081029190910101516001600160e01b031991909116905260408051600180825281830190925290816020016020820280368337019050508160008151811061112c5761112c61212b565b602002602001015160200181905250868160008151811061114f5761114f61212b565b60200260200101516020015160008151811061116d5761116d61212b565b60200260200101906001600160a01b031690816001600160a01b0316815250506001816000815181106111a2576111a261212b565b6020026020010151604001901515908115158152505063e2ab691d60e01b816001815181106111d3576111d361212b565b60209081029190910101516001600160e01b03199190911690526040805160018082528183019092529081602001602082028036833701905050816001815181106112205761122061212b565b60200260200101516020018190525086816001815181106112435761124361212b565b6020026020010151602001516000815181106112615761126161212b565b60200260200101906001600160a01b031690816001600160a01b0316815250506001816001815181106112965761129661212b565b6020026020010151604001901515908115158152505063b5674c6860e01b816002815181106112c7576112c761212b565b60209081029190910101516001600160e01b03199190911690526040805160018082528183019092529081602001602082028036833701905050816002815181106113145761131461212b565b60200260200101516020018190525086816002815181106113375761133761212b565b6020026020010151602001516000815181106113555761135561212b565b60200260200101906001600160a01b031690816001600160a01b03168152505060018160028151811061138a5761138a61212b565b6020026020010151604001901515908115158152505063b48ab8b660e01b816003815181106113bb576113bb61212b565b60209081029190910101516001600160e01b03199190911690526040805160018082528183019092529081602001602082028036833701905050816003815181106114085761140861212b565b602002602001015160200181905250868160038151811061142b5761142b61212b565b6020026020010151602001516000815181106114495761144961212b565b60200260200101906001600160a01b031690816001600160a01b03168152505060018160038151811061147e5761147e61212b565b602002602001015160400190151590811515815250506302fe530560e01b816004815181106114af576114af61212b565b60209081029190910101516001600160e01b031990911690528051600190829060049081106114e0576114e061212b565b6020026020010151604001901515908115158152505063938e3d7b60e01b816005815181106115115761151161212b565b60209081029190910101516001600160e01b031990911690528051600190829060059081106115425761154261212b565b6020908102919091010151901515604090910152600061158a6001600160a01b037f000000000000000000000000000000000000000000000000000000000000000016611a08565b6040517f90c2e4940000000000000000000000000000000000000000000000000000000081529091506001600160a01b038216906390c2e494906115d6908590889033906004016127cc565b600060405180830381600087803b1580156115f057600080fd5b505af1158015611604573d6000803e3d6000fd5b505050506101408901516101608a01516040517f077f224a0000000000000000000000000000000000000000000000000000000081526001600160a01b0387169263077f224a926116599286906004016128fd565b600060405180830381600087803b15801561167357600080fd5b505af1158015611687573d6000803e3d6000fd5b5050505060008060007f00000000000000000000000000000000000000000000000000000000000000006001600160a01b0316639ca33c9e8c898f61012001516040516020016116d99392919061293c565b6040516020818303038152906040526040518263ffffffff1660e01b81526004016117049190612111565b6000604051808303816000875af1158015611723573d6000803e3d6000fd5b505050506040513d6000823e601f3d908101601f1916820160405261174b9190810190612968565b92509250925060006040518061016001604052808e6000015181526020018e6020015181526020018e604001518152602001896001600160a01b031681526020018e6060015181526020018e60c0015181526020018e610100015181526020018e608001518152602001600181526020018e60a0015181526020018e60e001516001600160a01b03168152509050836000815181106117ec576117ec61212b565b60200260200101516001600160a01b0316631eea6f898460405160200161181591815260200190565b60408051601f198184030181526060808401835260008085526020858101829052948401528251908101835260c088901c815267ffffffffffffffff608089901c16938101939093526fffffffffffffffffffffffffffffffff8716918301919091529061188290611a93565b846040518463ffffffff1660e01b81526004016118a193929190612a28565b600060405180830381600087803b1580156118bb57600080fd5b505af11580156118cf573d6000803e3d6000fd5b505050506000845160026118e39190612407565b67ffffffffffffffff8111156118fb576118fb611d97565b604051908082528060200260200182016040528015611924578160200160208202803683370190505b50905060005b8551811015611987578581815181106119455761194561212b565b602002602001015182828151811061195f5761195f61212b565b6001600160a01b03909216602092830291909101909101526119808161241a565b905061192a565b50858186518151811061199c5761199c61212b565b60200260200101906001600160a01b031690816001600160a01b0316815250508881865160016119cc9190612407565b815181106119dc576119dc61212b565b6001600160a01b03909216602092830291909101909101529a5091985096505050505050509250925092565b6000763d602d80600a3d3981f3363d3d373d3d3d363d730000008260601b60e81c176000526e5af43d82803e903d91602b57fd5bf38260781b17602052603760096000f090506001600160a01b038116611a8e576040517fc2f868f400000000000000000000000000000000000000000000000000000000815260040160405180910390fd5b919050565b6060611aac826000015167ffffffffffffffff16611b0a565b611ac3836020015167ffffffffffffffff16611b0a565b611ae284604001516fffffffffffffffffffffffffffffffff16611b0a565b604051602001611af493929190612afa565b6040516020818303038152906040529050919050565b60606000611b1783611baa565b600101905060008167ffffffffffffffff811115611b3757611b37611d97565b6040519080825280601f01601f191660200182016040528015611b61576020820181803683370190505b5090508181016020015b600019017f3031323334353637383961626364656600000000000000000000000000000000600a86061a8153600a8504945084611b6b57509392505050565b6000807a184f03e93ff9f4daa797ed6e38ed64bf6a1f0100000000000000008310611bf3577a184f03e93ff9f4daa797ed6e38ed64bf6a1f010000000000000000830492506040015b6d04ee2d6d415b85acef81000000008310611c1f576d04ee2d6d415b85acef8100000000830492506020015b662386f26fc100008310611c3d57662386f26fc10000830492506010015b6305f5e1008310611c55576305f5e100830492506008015b6127108310611c6957612710830492506004015b60648310611c7b576064830492506002015b600a8310611c87576001015b92915050565b6040518060400160405280611cca6040518060a0016040528060608152602001606081526020016060815260200160608152602001606081525090565b8152602001611d3c6040518061018001604052806000815260200160008152602001600081526020016000815260200160008152602001600081526020016000815260200160006001600160a01b03168152602001600081526020016060815260200160608152602001606081525090565b905290565b606080825284519082018190526000906020906080840190828801845b82811015611d835781516001600160a01b031684529284019290840190600101611d5e565b505050908301949094525060400152919050565b634e487b7160e01b600052604160045260246000fd5b604051610180810167ffffffffffffffff81118282101715611dd157611dd1611d97565b60405290565b6040805190810167ffffffffffffffff81118282101715611dd157611dd1611d97565b60405160a0810167ffffffffffffffff81118282101715611dd157611dd1611d97565b6040516060810167ffffffffffffffff81118282101715611dd157611dd1611d97565b604051601f8201601f1916810167ffffffffffffffff81118282101715611e6957611e69611d97565b604052919050565b600067ffffffffffffffff821115611e8b57611e8b611d97565b50601f01601f191660200190565b600060208284031215611eab57600080fd5b813567ffffffffffffffff811115611ec257600080fd5b8201601f81018413611ed357600080fd5b8035611ee6611ee182611e71565b611e40565b818152856020838501011115611efb57600080fd5b81602084016020830137600091810160200191909152949350505050565b60005b83811015611f34578181015183820152602001611f1c565b50506000910152565b60008151808452611f55816020860160208601611f19565b601f01601f19169290920160200192915050565b6000610180825184526020830151602085015260408301516040850152606083015160608501526080830151608085015260a083015160a085015260c083015160c085015260e0830151611fc860e08601826001600160a01b03169052565b50610100808401518186015250610120808401518282870152611fed83870182611f3d565b9250505061014080840151858303828701526120098382611f3d565b9250505061016080840151858303828701526120258382611f3d565b9695505050505050565b602081526000825160406020840152805160a06060850152612055610100850182611f3d565b905060208201517fffffffffffffffffffffffffffffffffffffffffffffffffffffffffffffffa0808684030160808701526120918383611f3d565b925060408401519150808684030160a08701526120ae8383611f3d565b925060608401519150808684030160c08701526120cb8383611f3d565b925060808401519350808684030160e087015250506120ea8183611f3d565b9150506020840151601f198483030160408501526121088282611f69565b95945050505050565b6020815260006121246020830184611f3d565b9392505050565b634e487b7160e01b600052603260045260246000fd5b600082601f83011261215257600080fd5b8151612160611ee182611e71565b81815284602083860101111561217557600080fd5b612186826020830160208701611f19565b949350505050565b80516001600160a01b0381168114611a8e57600080fd5b600061018082840312156121b857600080fd5b6121c0611dad565b9050815181526020820151602082015260408201516040820152606082015160608201526080820151608082015260a082015160a082015260c082015160c082015261220e60e0830161218e565b60e082015261010082810151908201526101208083015167ffffffffffffffff8082111561223b57600080fd5b61224786838701612141565b8385015261014092508285015191508082111561226357600080fd5b61226f86838701612141565b8385015261016092508285015191508082111561228b57600080fd5b5061229885828601612141565b82840152505092915050565b6000602082840312156122b657600080fd5b815167ffffffffffffffff808211156122ce57600080fd5b90830190604082860312156122e257600080fd5b6122ea611dd7565b8251828111156122f957600080fd5b830160a0818803121561230b57600080fd5b612313611dfa565b81518481111561232257600080fd5b61232e89828501612141565b82525060208201518481111561234357600080fd5b61234f89828501612141565b60208301525060408201518481111561236757600080fd5b61237389828501612141565b60408301525060608201518481111561238b57600080fd5b61239789828501612141565b6060830152506080820151848111156123af57600080fd5b6123bb89828501612141565b6080830152508252506020830151828111156123d657600080fd5b6123e2878286016121a5565b60208301525095945050505050565b634e487b7160e01b600052601160045260246000fd5b80820180821115611c8757611c876123f1565b6000600019820361242d5761242d6123f1565b5060010190565b805160ff81168114611a8e57600080fd5b60006020828403121561245757600080fd5b61212482612434565b60006020828403121561247257600080fd5b815167ffffffffffffffff8082111561248a57600080fd5b90830190818503608081121561249f57600080fd5b6124a7611e1d565b60408212156124b557600080fd5b6124bd611dd7565b91506124c884612434565b8252602084015161ffff811681146124df57600080fd5b60208301528181526124f36040850161218e565b6020820152606084015191508282111561250c57600080fd5b61251887838601612141565b60408201529695505050505050565b6001600160a01b038151168252600060208201516060602085015261254f6060850182611f3d565b9050604083015184820360408601526121088282611f3d565b600081518084526020808501945080840160005b838110156125a15781516001600160a01b03168752958201959082019060010161257c565b509495945050505050565b60008151604084526125c16040850182612568565b60208481015186830387830152805180845290820193509091600091908301905b8083101561260257845182529383019360019290920191908301906125e2565b509695505050505050565b600084516003811061262f57634e487b7160e01b600052602160045260246000fd5b80835250602085015163ffffffff8082166020850152806040880151166040850152505067ffffffffffffffff60608601511660608301526080850151608083015260e060a083015261268560e0830185612527565b82810360c084015261202581856125ac565b600060408083526001600160a01b0380865116828501526020808701516080606081818901526126ca60c0890184611f3d565b9250858a01517fffffffffffffffffffffffffffffffffffffffffffffffffffffffffffffffc0808a860301848b01526127048583611f3d565b9450828c01519150808a86030160a08b0152506127218482611f3d565b935050878303848901528289518085528585019150858160051b860101868c0160005b8381101561279e57878303601f19018552815180518051805160ff1686528b015161ffff168b8601528a01518b168c85015289015186840188905261278b88850182611f3d565b958a019593505090880190600101612744565b50909d9c50505050505050505050505050565b6000602082840312156127c357600080fd5b6121248261218e565b6000606080830181845280875180835260808601915060808160051b87010192506020808a0160005b8381101561286b577fffffffffffffffffffffffffffffffffffffffffffffffffffffffffffffff8089870301855281516001600160e01b0319815116875283810151888589015261284989890182612568565b60409283015115159890920197909752955093820193908201906001016127f5565b50508395506128848188018a6001600160a01b03169052565b505050505061218660408301846001600160a01b03169052565b60006001600160a01b03808816835260a060208401526128c160a0840188611f3d565b83810360408501526128d38188611f3d565b905083810360608501526128e781876125ac565b9250508084166080840152509695505050505050565b6060815260006129106060830186611f3d565b82810360208401526129228186611f3d565b9150506001600160a01b0383166040830152949350505050565b60006001600160a01b038086168352808516602084015250606060408301526121086060830184611f3d565b60008060006060848603121561297d57600080fd5b835167ffffffffffffffff8082111561299557600080fd5b818601915086601f8301126129a957600080fd5b81516020828211156129bd576129bd611d97565b8160051b92506129ce818401611e40565b828152928401810192818101908a8511156129e857600080fd5b948201945b84861015612a0d576129fe8661218e565b825294820194908201906129ed565b91890151604090990151919a98995090979650505050505050565b60006101a0808352612a3c81840187611f3d565b90508281036020840152612a508186611f3d565b9150508251604083015260208301516060830152604083015160808301526060830151612a8860a08401826001600160a01b03169052565b50608083015160c083015260a083015160e083015260c0830151610100818185015260e08501519150610120828186015281860151925061014091508282860152808601516101608601525080850151915050612af16101808401826001600160a01b03169052565b50949350505050565b60008451612b0c818460208901611f19565b80830190507f2e000000000000000000000000000000000000000000000000000000000000008082528551612b48816001850160208a01611f19565b60019201918201528351612b63816002840160208801611f19565b016002019594505050505056fea26469706673582212207207f5244a4edb292c5ce43f21188892d5bba7adafdd9363aa0f50b37ce6a00b64736f6c63430008140033",
  "devdoc": {
    "author": "Peeramid Labs, 2024",
    "details": "This contract implements the IDistribution and CodeIndexer interfaces. It uses the Clones library for address cloning.",
    "errors": {
      "ERC1167FailedCreateClone()": [
        {
          "details": "A clone instance deployment failed."
        }
      ]
    },
    "events": {
      "Distributed(address,address[])": {
        "params": {
          "distributor": "The address of the entity that performed the distribution.",
          "instances": "An array of addresses that were produced."
        }
      }
    },
    "kind": "dev",
    "methods": {
      "constructor": {
        "details": "- retrieves contract addresses from a contract index using the provided identifiers. - checks if the access manager supports the ERC7746 interface. - EIP712 compatible name/version can be extracted with use of LibSemver WARNING: _trustedForwarder functionality hasn't been yet reviewed nor implemented for ACID distribution and if set will affect only OSx DAO setup.",
        "params": {
          "ACIDDIistributionId": "Identifier for the ACID distribution.",
          "accessManagerId": "Identifier for the access manager.",
          "daoFactory": "Address of the Aragons DAO factory.",
          "distributionName": "Name of the distribution.",
          "distributionVersion": "Version of the distribution as a `LibSemver.Version` struct.",
          "governanceERC20BaseId": "Identifier for the governance ERC20 base.",
          "rankTokenCodeId": "Identifier for the rank token code.",
          "tokenVotingPluginRepo": "Address of the token voting plugin repository.",
          "trustedForwarder": "Address of the trusted forwarder."
        }
      },
      "distributionSchema()": {
        "details": "This is only needed to ensure `DistributorArguments` are provided in ABI, as it would be internal otherwise.",
        "returns": {
          "_0": "DistributorArguments The schema of the distribution."
        }
      },
      "get()": {
        "returns": {
          "_1": "The name of the distribution.",
          "_2": "The version of the distribution.",
          "sources": "An array of addresses that are used for instantiation."
        }
      },
      "instantiate(bytes)": {
        "details": "`instances` array contents: DAO, GovernanceToken, Gov Token AccessManager, ACID Diamond, 8x ACID Diamond facets, RankTokenAccessManager, RankToken",
        "params": {
          "data": "The initialization data for the new instance, typeof {DistributorArguments}."
        },
        "returns": {
          "distributionName": "A bytes32 value representing the name of the distribution.",
          "distributionVersion": "A uint256 value representing the version of the distribution.",
          "instances": "An array of addresses representing the new instances."
        }
      }
    },
    "title": "MAODistribution",
    "version": 1
  },
  "userdoc": {
    "events": {
      "Distributed(address,address[])": {
        "notice": "Emitted when a distribution occurs."
      }
    },
    "kind": "user",
    "methods": {
      "constructor": {
        "notice": "Initializes the contract with the provided parameters and performs necessary checks."
      },
      "distributionSchema()": {
        "notice": "Returns the schema of the distribution."
      },
      "get()": {
        "notice": "Retrieves the current distribution sources."
      },
      "instantiate(bytes)": {
        "notice": "Instantiates a new instance with the provided data."
      }
    },
    "notice": "The contract is responsible for creating and managing DAOs and ACID distributions.",
    "version": 1
  },
  "storageLayout": {
    "storage": [],
    "types": null
  }
}