{
  "address": "0x430Bc0dE0193c7a7dC0752452e7164F2b69209B7",
  "abi": [
    {
      "inputs": [
        {
          "internalType": "string",
          "name": "name",
          "type": "string"
        },
        {
          "internalType": "string",
          "name": "version",
          "type": "string"
        }
      ],
      "name": "init",
      "outputs": [],
      "stateMutability": "nonpayable",
      "type": "function"
    }
  ],
  "transactionHash": "0x0b1b204bd9058964457334d7788f46c8d86d8d645fc15c5ad8d683726326a163",
  "args": [],
  "numDeployments": 1,
  "solcInputHash": "d4243cadb17b72c1adc02b25740ca647",
  "bytecode": "0x608060405234801561001057600080fd5b5061056d806100206000396000f3fe608060405234801561001057600080fd5b506004361061002b5760003560e01c80637029144c14610030575b600080fd5b61004361003e3660046104d3565b610045565b005b61004d61032a565b7fc8fcad8db84d3cc18b4c41d551ea0ee66dd599cde068d998e57d5e09332c131f60208181527f699d9daa71b280d05a152715774afa0a81a312594b2d731d6b0b2552b7d6f69f805460017fffffffffffffffffffffffffffffffffffffffffffffffffffffffffffffff0091821681179092557ff97e938d8af42f52387bb74b8b526fda8f184cc2aa534340a8d75a88fbecc77580548216831790557f65d510a5d8f7ef134ec444f7f34ee808c8eeb5177cdfd16be0c40fe1ab43369580548216831790557f7f5828d00000000000000000000000000000000000000000000000000000000060009081527f5622121b47b8cd0120c4efe45dd5483242f54a3d49bd7679be565d47694918c380548316841790558651968401969096208551958401959095207fe5b6a7afa77789577f2802f0da58895f660e5798c5c11b2ea18b0a53bd65d3aa8690557fe5b6a7afa77789577f2802f0da58895f660e5798c5c11b2ea18b0a53bd65d3ab819055467fe5b6a7afa77789577f2802f0da58895f660e5798c5c11b2ea18b0a53bd65d3a8819055604080517f8b73c3c69bb8fe3d512ecc4cf759cc79239f7b179b0ffacaa9a75d522b39400f81880181905281830199909952606081019390935260808301919091523060a08084018290528251808503909101815260c09093019091528151918501919091207fe5b6a7afa77789577f2802f0da58895f660e5798c5c11b2ea18b0a53bd65d3a7557fe5b6a7afa77789577f2802f0da58895f660e5798c5c11b2ea18b0a53bd65d3a980547fffffffffffffffffffffffff00000000000000000000000000000000000000001690911790557fe5b6a7afa77789577f2802f0da58895f660e5798c5c11b2ea18b0a53bd65d3ac949094557f5902e76100000000000000000000000000000000000000000000000000000000909452527f481ff109019922c34004371978b4a3d867fb4ca0452913d17f236dd40f4632de80549091169091179055565b7fc8fcad8db84d3cc18b4c41d551ea0ee66dd599cde068d998e57d5e09332c131c6004015473ffffffffffffffffffffffffffffffffffffffff1633146103f7576040517f08c379a000000000000000000000000000000000000000000000000000000000815260206004820152602260248201527f4c69624469616d6f6e643a204d75737420626520636f6e7472616374206f776e60448201527f6572000000000000000000000000000000000000000000000000000000000000606482015260840160405180910390fd5b565b7f4e487b7100000000000000000000000000000000000000000000000000000000600052604160045260246000fd5b600082601f83011261043957600080fd5b813567ffffffffffffffff80821115610454576104546103f9565b604051601f83017fffffffffffffffffffffffffffffffffffffffffffffffffffffffffffffffe0908116603f0116810190828211818310171561049a5761049a6103f9565b816040528381528660208588010111156104b357600080fd5b836020870160208301376000602085830101528094505050505092915050565b600080604083850312156104e657600080fd5b823567ffffffffffffffff808211156104fe57600080fd5b61050a86838701610428565b9350602085013591508082111561052057600080fd5b5061052d85828601610428565b915050925092905056fea2646970667358221220812698e3fb7eb57352a1051b1509ef12d2e47c7edb701841ec9baca568c82c6964736f6c63430008140033",
  "devdoc": {
    "kind": "dev",
    "methods": {},
    "version": 1
  },
  "userdoc": {
    "kind": "user",
    "methods": {},
    "version": 1
  },
  "storageLayout": {
    "storage": [],
    "types": null
  }
}