{
  "address": "0x7831e817841A05eF244b1e64C0c396B1c447e77f",
  "abi": [
    {
      "inputs": [
        {
          "internalType": "address",
          "name": "defaultAdmin",
          "type": "address"
        }
      ],
      "stateMutability": "nonpayable",
      "type": "constructor"
    },
    {
      "inputs": [],
      "name": "AccessControlBadConfirmation",
      "type": "error"
    },
    {
      "inputs": [
        {
          "internalType": "uint48",
          "name": "schedule",
          "type": "uint48"
        }
      ],
      "name": "AccessControlEnforcedDefaultAdminDelay",
      "type": "error"
    },
    {
      "inputs": [],
      "name": "AccessControlEnforcedDefaultAdminRules",
      "type": "error"
    },
    {
      "inputs": [
        {
          "internalType": "address",
          "name": "defaultAdmin",
          "type": "address"
        }
      ],
      "name": "AccessControlInvalidDefaultAdmin",
      "type": "error"
    },
    {
      "inputs": [
        {
          "internalType": "address",
          "name": "account",
          "type": "address"
        },
        {
          "internalType": "bytes32",
          "name": "neededRole",
          "type": "bytes32"
        }
      ],
      "name": "AccessControlUnauthorizedAccount",
      "type": "error"
    },
    {
      "inputs": [
        {
          "internalType": "bytes32",
          "name": "id",
          "type": "bytes32"
        }
      ],
      "name": "DistributionExists",
      "type": "error"
    },
    {
      "inputs": [
        {
          "internalType": "bytes32",
          "name": "id",
          "type": "bytes32"
        }
      ],
      "name": "DistributionNotFound",
      "type": "error"
    },
    {
      "inputs": [
        {
          "internalType": "bytes32",
          "name": "id",
          "type": "bytes32"
        }
      ],
      "name": "InitializerNotFound",
      "type": "error"
    },
    {
      "inputs": [
        {
          "internalType": "address",
          "name": "instance",
          "type": "address"
        }
      ],
      "name": "InvalidInstance",
      "type": "error"
    },
    {
      "inputs": [
        {
          "internalType": "address",
          "name": "repository",
          "type": "address"
        }
      ],
      "name": "InvalidRepository",
      "type": "error"
    },
    {
      "inputs": [
        {
          "internalType": "bytes32",
          "name": "distributionId",
          "type": "bytes32"
        },
        {
          "internalType": "string",
          "name": "version",
          "type": "string"
        }
      ],
      "name": "InvalidVersionRequested",
      "type": "error"
    },
    {
      "inputs": [
        {
          "internalType": "address",
          "name": "repository",
          "type": "address"
        }
      ],
      "name": "RepositoryAlreadyExists",
      "type": "error"
    },
    {
      "inputs": [
        {
          "internalType": "uint8",
          "name": "bits",
          "type": "uint8"
        },
        {
          "internalType": "uint256",
          "name": "value",
          "type": "uint256"
        }
      ],
      "name": "SafeCastOverflowedUintDowncast",
      "type": "error"
    },
    {
      "inputs": [
        {
          "internalType": "bytes32",
          "name": "distributionId",
          "type": "bytes32"
        }
      ],
      "name": "UniversionedDistribution",
      "type": "error"
    },
    {
      "inputs": [
        {
          "internalType": "bytes32",
          "name": "distributionId",
          "type": "bytes32"
        },
        {
          "internalType": "string",
          "name": "version",
          "type": "string"
        }
      ],
      "name": "VersionOutdated",
      "type": "error"
    },
    {
      "anonymous": false,
      "inputs": [],
      "name": "DefaultAdminDelayChangeCanceled",
      "type": "event"
    },
    {
      "anonymous": false,
      "inputs": [
        {
          "indexed": false,
          "internalType": "uint48",
          "name": "newDelay",
          "type": "uint48"
        },
        {
          "indexed": false,
          "internalType": "uint48",
          "name": "effectSchedule",
          "type": "uint48"
        }
      ],
      "name": "DefaultAdminDelayChangeScheduled",
      "type": "event"
    },
    {
      "anonymous": false,
      "inputs": [],
      "name": "DefaultAdminTransferCanceled",
      "type": "event"
    },
    {
      "anonymous": false,
      "inputs": [
        {
          "indexed": true,
          "internalType": "address",
          "name": "newAdmin",
          "type": "address"
        },
        {
          "indexed": false,
          "internalType": "uint48",
          "name": "acceptSchedule",
          "type": "uint48"
        }
      ],
      "name": "DefaultAdminTransferScheduled",
      "type": "event"
    },
    {
      "anonymous": false,
      "inputs": [
        {
          "indexed": true,
          "internalType": "bytes32",
          "name": "id",
          "type": "bytes32"
        },
        {
          "indexed": false,
          "internalType": "address",
          "name": "distribution",
          "type": "address"
        },
        {
          "indexed": true,
          "internalType": "address",
          "name": "initializer",
          "type": "address"
        }
      ],
      "name": "DistributionAdded",
      "type": "event"
    },
    {
      "anonymous": false,
      "inputs": [
        {
          "indexed": true,
          "internalType": "bytes32",
          "name": "id",
          "type": "bytes32"
        }
      ],
      "name": "DistributionRemoved",
      "type": "event"
    },
    {
      "anonymous": false,
      "inputs": [
        {
          "indexed": true,
          "internalType": "bytes32",
          "name": "distributionId",
          "type": "bytes32"
        },
        {
          "indexed": true,
          "internalType": "uint256",
          "name": "newInstanceId",
          "type": "uint256"
        },
        {
          "indexed": true,
          "internalType": "uint256",
          "name": "version",
          "type": "uint256"
        },
        {
          "indexed": false,
          "internalType": "address[]",
          "name": "instances",
          "type": "address[]"
        },
        {
          "indexed": false,
          "internalType": "bytes",
          "name": "args",
          "type": "bytes"
        }
      ],
      "name": "Instantiated",
      "type": "event"
    },
    {
      "anonymous": false,
      "inputs": [
        {
          "indexed": true,
          "internalType": "bytes32",
          "name": "role",
          "type": "bytes32"
        },
        {
          "indexed": true,
          "internalType": "bytes32",
          "name": "previousAdminRole",
          "type": "bytes32"
        },
        {
          "indexed": true,
          "internalType": "bytes32",
          "name": "newAdminRole",
          "type": "bytes32"
        }
      ],
      "name": "RoleAdminChanged",
      "type": "event"
    },
    {
      "anonymous": false,
      "inputs": [
        {
          "indexed": true,
          "internalType": "bytes32",
          "name": "role",
          "type": "bytes32"
        },
        {
          "indexed": true,
          "internalType": "address",
          "name": "account",
          "type": "address"
        },
        {
          "indexed": true,
          "internalType": "address",
          "name": "sender",
          "type": "address"
        }
      ],
      "name": "RoleGranted",
      "type": "event"
    },
    {
      "anonymous": false,
      "inputs": [
        {
          "indexed": true,
          "internalType": "bytes32",
          "name": "role",
          "type": "bytes32"
        },
        {
          "indexed": true,
          "internalType": "address",
          "name": "account",
          "type": "address"
        },
        {
          "indexed": true,
          "internalType": "address",
          "name": "sender",
          "type": "address"
        }
      ],
      "name": "RoleRevoked",
      "type": "event"
    },
    {
      "anonymous": false,
      "inputs": [
        {
          "indexed": true,
          "internalType": "bytes32",
          "name": "distributionId",
          "type": "bytes32"
        },
        {
          "components": [
            {
              "components": [
                {
                  "internalType": "uint64",
                  "name": "major",
                  "type": "uint64"
                },
                {
                  "internalType": "uint64",
                  "name": "minor",
                  "type": "uint64"
                },
                {
                  "internalType": "uint128",
                  "name": "patch",
                  "type": "uint128"
                }
              ],
              "internalType": "struct LibSemver.Version",
              "name": "version",
              "type": "tuple"
            },
            {
              "internalType": "enum LibSemver.requirements",
              "name": "requirement",
              "type": "uint8"
            }
          ],
          "indexed": true,
          "internalType": "struct LibSemver.VersionRequirement",
          "name": "newRequirement",
          "type": "tuple"
        },
        {
          "components": [
            {
              "components": [
                {
                  "internalType": "uint64",
                  "name": "major",
                  "type": "uint64"
                },
                {
                  "internalType": "uint64",
                  "name": "minor",
                  "type": "uint64"
                },
                {
                  "internalType": "uint128",
                  "name": "patch",
                  "type": "uint128"
                }
              ],
              "internalType": "struct LibSemver.Version",
              "name": "version",
              "type": "tuple"
            },
            {
              "internalType": "enum LibSemver.requirements",
              "name": "requirement",
              "type": "uint8"
            }
          ],
          "indexed": false,
          "internalType": "struct LibSemver.VersionRequirement",
          "name": "newRequirementData",
          "type": "tuple"
        }
      ],
      "name": "VersionChanged",
      "type": "event"
    },
    {
      "inputs": [],
      "name": "DEFAULT_ADMIN_ROLE",
      "outputs": [
        {
          "internalType": "bytes32",
          "name": "",
          "type": "bytes32"
        }
      ],
      "stateMutability": "view",
      "type": "function"
    },
    {
      "inputs": [],
      "name": "acceptDefaultAdminTransfer",
      "outputs": [],
      "stateMutability": "nonpayable",
      "type": "function"
    },
    {
      "inputs": [
        {
          "internalType": "contract IRepository",
          "name": "repository",
          "type": "address"
        },
        {
          "internalType": "address",
          "name": "initializer",
          "type": "address"
        },
        {
          "components": [
            {
              "components": [
                {
                  "internalType": "uint64",
                  "name": "major",
                  "type": "uint64"
                },
                {
                  "internalType": "uint64",
                  "name": "minor",
                  "type": "uint64"
                },
                {
                  "internalType": "uint128",
                  "name": "patch",
                  "type": "uint128"
                }
              ],
              "internalType": "struct LibSemver.Version",
              "name": "version",
              "type": "tuple"
            },
            {
              "internalType": "enum LibSemver.requirements",
              "name": "requirement",
              "type": "uint8"
            }
          ],
          "internalType": "struct LibSemver.VersionRequirement",
          "name": "requirement",
          "type": "tuple"
        }
      ],
      "name": "addDistribution",
      "outputs": [],
      "stateMutability": "nonpayable",
      "type": "function"
    },
    {
      "inputs": [
        {
          "internalType": "bytes32",
          "name": "id",
          "type": "bytes32"
        },
        {
          "internalType": "address",
          "name": "initializer",
          "type": "address"
        }
      ],
      "name": "addDistribution",
      "outputs": [],
      "stateMutability": "nonpayable",
      "type": "function"
    },
    {
      "inputs": [
        {
          "internalType": "bytes",
          "name": "config",
          "type": "bytes"
        },
        {
          "internalType": "bytes4",
          "name": "",
          "type": "bytes4"
        },
        {
          "internalType": "address",
          "name": "maybeInstance",
          "type": "address"
        },
        {
          "internalType": "uint256",
          "name": "",
          "type": "uint256"
        },
        {
          "internalType": "bytes",
          "name": "",
          "type": "bytes"
        },
        {
          "internalType": "bytes",
          "name": "",
          "type": "bytes"
        }
      ],
      "name": "afterCall",
      "outputs": [],
      "stateMutability": "nonpayable",
      "type": "function"
    },
    {
      "inputs": [
        {
          "internalType": "bytes",
          "name": "config",
          "type": "bytes"
        },
        {
          "internalType": "bytes4",
          "name": "",
          "type": "bytes4"
        },
        {
          "internalType": "address",
          "name": "maybeInstance",
          "type": "address"
        },
        {
          "internalType": "uint256",
          "name": "",
          "type": "uint256"
        },
        {
          "internalType": "bytes",
          "name": "",
          "type": "bytes"
        }
      ],
      "name": "beforeCall",
      "outputs": [
        {
          "internalType": "bytes",
          "name": "",
          "type": "bytes"
        }
      ],
      "stateMutability": "view",
      "type": "function"
    },
    {
      "inputs": [
        {
          "internalType": "address",
          "name": "newAdmin",
          "type": "address"
        }
      ],
      "name": "beginDefaultAdminTransfer",
      "outputs": [],
      "stateMutability": "nonpayable",
      "type": "function"
    },
    {
      "inputs": [],
      "name": "cancelDefaultAdminTransfer",
      "outputs": [],
      "stateMutability": "nonpayable",
      "type": "function"
    },
    {
      "inputs": [
        {
          "internalType": "uint48",
          "name": "newDelay",
          "type": "uint48"
        }
      ],
      "name": "changeDefaultAdminDelay",
      "outputs": [],
      "stateMutability": "nonpayable",
      "type": "function"
    },
    {
      "inputs": [
        {
          "internalType": "bytes32",
          "name": "distributionId",
          "type": "bytes32"
        },
        {
          "components": [
            {
              "components": [
                {
                  "internalType": "uint64",
                  "name": "major",
                  "type": "uint64"
                },
                {
                  "internalType": "uint64",
                  "name": "minor",
                  "type": "uint64"
                },
                {
                  "internalType": "uint128",
                  "name": "patch",
                  "type": "uint128"
                }
              ],
              "internalType": "struct LibSemver.Version",
              "name": "version",
              "type": "tuple"
            },
            {
              "internalType": "enum LibSemver.requirements",
              "name": "requirement",
              "type": "uint8"
            }
          ],
          "internalType": "struct LibSemver.VersionRequirement",
          "name": "newRequirement",
          "type": "tuple"
        }
      ],
      "name": "changeVersion",
      "outputs": [],
      "stateMutability": "nonpayable",
      "type": "function"
    },
    {
      "inputs": [],
      "name": "defaultAdmin",
      "outputs": [
        {
          "internalType": "address",
          "name": "",
          "type": "address"
        }
      ],
      "stateMutability": "view",
      "type": "function"
    },
    {
      "inputs": [],
      "name": "defaultAdminDelay",
      "outputs": [
        {
          "internalType": "uint48",
          "name": "",
          "type": "uint48"
        }
      ],
      "stateMutability": "view",
      "type": "function"
    },
    {
      "inputs": [],
      "name": "defaultAdminDelayIncreaseWait",
      "outputs": [
        {
          "internalType": "uint48",
          "name": "",
          "type": "uint48"
        }
      ],
      "stateMutability": "view",
      "type": "function"
    },
    {
      "inputs": [
        {
          "internalType": "bytes32",
          "name": "distributorsId",
          "type": "bytes32"
        }
      ],
      "name": "distributionComponents",
      "outputs": [
        {
          "internalType": "address",
          "name": "distributionLocation",
          "type": "address"
        },
        {
          "internalType": "address",
          "name": "initializer",
          "type": "address"
        }
      ],
      "stateMutability": "view",
      "type": "function"
    },
    {
      "inputs": [
        {
          "internalType": "uint256",
          "name": "instance",
          "type": "uint256"
        }
      ],
      "name": "distributionOf",
      "outputs": [
        {
          "internalType": "bytes32",
          "name": "distributorsId",
          "type": "bytes32"
        }
      ],
      "stateMutability": "view",
      "type": "function"
    },
    {
      "inputs": [
        {
          "internalType": "address",
          "name": "instance",
          "type": "address"
        }
      ],
      "name": "getDistributionId",
      "outputs": [
        {
          "internalType": "bytes32",
          "name": "",
          "type": "bytes32"
        }
      ],
      "stateMutability": "view",
      "type": "function"
    },
    {
      "inputs": [
        {
          "internalType": "bytes32",
          "name": "distributorsId",
          "type": "bytes32"
        }
      ],
      "name": "getDistributionURI",
      "outputs": [
        {
          "internalType": "string",
          "name": "",
          "type": "string"
        }
      ],
      "stateMutability": "view",
      "type": "function"
    },
    {
      "inputs": [],
      "name": "getDistributions",
      "outputs": [
        {
          "internalType": "bytes32[]",
          "name": "",
          "type": "bytes32[]"
        }
      ],
      "stateMutability": "view",
      "type": "function"
    },
    {
      "inputs": [
        {
          "internalType": "address",
          "name": "instance",
          "type": "address"
        }
      ],
      "name": "getInstanceId",
      "outputs": [
        {
          "internalType": "uint256",
          "name": "",
          "type": "uint256"
        }
      ],
      "stateMutability": "view",
      "type": "function"
    },
    {
      "inputs": [
        {
          "internalType": "bytes32",
          "name": "role",
          "type": "bytes32"
        }
      ],
      "name": "getRoleAdmin",
      "outputs": [
        {
          "internalType": "bytes32",
          "name": "",
          "type": "bytes32"
        }
      ],
      "stateMutability": "view",
      "type": "function"
    },
    {
      "inputs": [
        {
          "internalType": "bytes32",
          "name": "role",
          "type": "bytes32"
        },
        {
          "internalType": "address",
          "name": "account",
          "type": "address"
        }
      ],
      "name": "grantRole",
      "outputs": [],
      "stateMutability": "nonpayable",
      "type": "function"
    },
    {
      "inputs": [
        {
          "internalType": "bytes32",
          "name": "role",
          "type": "bytes32"
        },
        {
          "internalType": "address",
          "name": "account",
          "type": "address"
        }
      ],
      "name": "hasRole",
      "outputs": [
        {
          "internalType": "bool",
          "name": "",
          "type": "bool"
        }
      ],
      "stateMutability": "view",
      "type": "function"
    },
    {
      "inputs": [
        {
          "internalType": "uint256",
          "name": "instanceId",
          "type": "uint256"
        }
      ],
      "name": "instanceVersions",
      "outputs": [
        {
          "internalType": "uint64",
          "name": "major",
          "type": "uint64"
        },
        {
          "internalType": "uint64",
          "name": "minor",
          "type": "uint64"
        },
        {
          "internalType": "uint128",
          "name": "patch",
          "type": "uint128"
        }
      ],
      "stateMutability": "view",
      "type": "function"
    },
    {
      "inputs": [
        {
          "internalType": "bytes32",
          "name": "id",
          "type": "bytes32"
        },
        {
          "internalType": "bytes",
          "name": "args",
          "type": "bytes"
        }
      ],
      "name": "instantiate",
      "outputs": [
        {
          "internalType": "address[]",
          "name": "srcs",
          "type": "address[]"
        },
        {
          "internalType": "bytes32",
          "name": "name",
          "type": "bytes32"
        },
        {
          "internalType": "uint256",
          "name": "version",
          "type": "uint256"
        }
      ],
      "stateMutability": "nonpayable",
      "type": "function"
    },
    {
      "inputs": [],
      "name": "numInstances",
      "outputs": [
        {
          "internalType": "uint256",
          "name": "",
          "type": "uint256"
        }
      ],
      "stateMutability": "view",
      "type": "function"
    },
    {
      "inputs": [],
      "name": "owner",
      "outputs": [
        {
          "internalType": "address",
          "name": "",
          "type": "address"
        }
      ],
      "stateMutability": "view",
      "type": "function"
    },
    {
      "inputs": [],
      "name": "pendingDefaultAdmin",
      "outputs": [
        {
          "internalType": "address",
          "name": "newAdmin",
          "type": "address"
        },
        {
          "internalType": "uint48",
          "name": "schedule",
          "type": "uint48"
        }
      ],
      "stateMutability": "view",
      "type": "function"
    },
    {
      "inputs": [],
      "name": "pendingDefaultAdminDelay",
      "outputs": [
        {
          "internalType": "uint48",
          "name": "newDelay",
          "type": "uint48"
        },
        {
          "internalType": "uint48",
          "name": "schedule",
          "type": "uint48"
        }
      ],
      "stateMutability": "view",
      "type": "function"
    },
    {
      "inputs": [
        {
          "internalType": "bytes32",
          "name": "id",
          "type": "bytes32"
        }
      ],
      "name": "removeDistribution",
      "outputs": [],
      "stateMutability": "nonpayable",
      "type": "function"
    },
    {
      "inputs": [
        {
          "internalType": "bytes32",
          "name": "role",
          "type": "bytes32"
        },
        {
          "internalType": "address",
          "name": "account",
          "type": "address"
        }
      ],
      "name": "renounceRole",
      "outputs": [],
      "stateMutability": "nonpayable",
      "type": "function"
    },
    {
      "inputs": [
        {
          "internalType": "bytes32",
          "name": "role",
          "type": "bytes32"
        },
        {
          "internalType": "address",
          "name": "account",
          "type": "address"
        }
      ],
      "name": "revokeRole",
      "outputs": [],
      "stateMutability": "nonpayable",
      "type": "function"
    },
    {
      "inputs": [],
      "name": "rollbackDefaultAdminDelay",
      "outputs": [],
      "stateMutability": "nonpayable",
      "type": "function"
    },
    {
      "inputs": [
        {
          "internalType": "bytes4",
          "name": "interfaceId",
          "type": "bytes4"
        }
      ],
      "name": "supportsInterface",
      "outputs": [
        {
          "internalType": "bool",
          "name": "",
          "type": "bool"
        }
      ],
      "stateMutability": "view",
      "type": "function"
    },
    {
      "inputs": [
        {
          "internalType": "bytes32",
          "name": "distributorsId",
          "type": "bytes32"
        }
      ],
      "name": "versionRequirements",
      "outputs": [
        {
          "components": [
            {
              "internalType": "uint64",
              "name": "major",
              "type": "uint64"
            },
            {
              "internalType": "uint64",
              "name": "minor",
              "type": "uint64"
            },
            {
              "internalType": "uint128",
              "name": "patch",
              "type": "uint128"
            }
          ],
          "internalType": "struct LibSemver.Version",
          "name": "version",
          "type": "tuple"
        },
        {
          "internalType": "enum LibSemver.requirements",
          "name": "requirement",
          "type": "uint8"
        }
      ],
      "stateMutability": "view",
      "type": "function"
    }
  ],
  "transactionHash": "0x4a18b6135447ba322370f91ff1675595e0e9502b4d40e77414025881eeae5e34",
  "args": [
    "0x507c2d32185667156de5B4C440FEEf3800078bDb"
  ],
  "numDeployments": 1,
  "solcInputHash": "8b178e5db390f3cab8ab670750551215",
  "bytecode": "0x60806040523480156200001157600080fd5b5060405162003d2f38038062003d2f8339810160408190526200003491620001c6565b6203f480816001600160a01b0381166200006857604051636116401160e11b81526000600482015260240160405180910390fd5b600980546001600160d01b0316600160d01b65ffffffffffff851602179055620000946000826200009e565b50505050620001f8565b600082620000ff576000620000bb600a546001600160a01b031690565b6001600160a01b031614620000e357604051631fe1e13d60e11b815260040160405180910390fd5b600a80546001600160a01b0319166001600160a01b0384161790555b6200010b838362000114565b90505b92915050565b60008281526008602090815260408083206001600160a01b038516845290915281205460ff16620001bd5760008381526008602090815260408083206001600160a01b03861684529091529020805460ff19166001179055620001743390565b6001600160a01b0316826001600160a01b0316847f2f8788117e7eff1d82e926ec794901d17c78024a50270940304540a733656f0d60405160405180910390a45060016200010e565b5060006200010e565b600060208284031215620001d957600080fd5b81516001600160a01b0381168114620001f157600080fd5b9392505050565b613b2780620002086000396000f3fe608060405234801561001057600080fd5b50600436106102265760003560e01c80637591b0c21161012a578063a1eda53c116100bd578063cc8463c81161008c578063cf6eefb711610071578063cf6eefb714610618578063d547741f14610646578063d602b9fd1461065957600080fd5b8063cc8463c814610608578063cefc14291461061057600080fd5b8063a1eda53c14610548578063a217fddf1461056f578063b9ebf39514610577578063c3e9576a146105f557600080fd5b806389478561116100f957806389478561146104eb5780638da5cb5b146104fe57806391d148541461050657806399aa65a71461053f57600080fd5b80637591b0c214610468578063834c4b7e1461048a57806384ef8ffc1461049d5780638740ce05146104c257600080fd5b80632343b000116101bd5780634440d2451161018c578063584ed12c11610171578063584ed12c1461042f578063634e93da14610442578063649a5ec71461045557600080fd5b80634440d2451461039f5780634587af5e146103b257600080fd5b80632343b00014610336578063248a9ca3146103565780632f2ff15d1461037957806336568abe1461038c57600080fd5b80630aa6220b116101f95780630aa6220b14610299578063128ecd1e146102a15780631a0bba04146102b45780631bc82e65146102e257600080fd5b806301ffc9a71461022b578063022d63fb1461025357806302aa63181461026f57806309587fbc14610284575b600080fd5b61023e610239366004613034565b610661565b60405190151581526020015b60405180910390f35b620697805b60405165ffffffffffff909116815260200161024a565b610277610681565b60405161024a919061304f565b6102976102923660046131ea565b610692565b005b6102976106ae565b6102976102af366004613232565b6106c4565b6102d46102c236600461325f565b60036020526000908152604090205481565b60405190815260200161024a565b6103166102f036600461325f565b600460205260009081526040902080546001909101546001600160a01b03918216911682565b604080516001600160a01b0393841681529290911660208301520161024a565b61034961034436600461325f565b6106de565b60405161024a91906132c8565b6102d461036436600461325f565b60009081526008602052604090206001015490565b6102976103873660046132db565b610798565b61029761039a3660046132db565b6107c4565b6103496103ad366004613389565b6108a3565b6103ff6103c036600461325f565b60066020526000908152604090205467ffffffffffffffff8082169168010000000000000000810490911690600160801b90046001600160801b031683565b6040805167ffffffffffffffff94851681529390921660208401526001600160801b03169082015260600161024a565b61029761043d36600461325f565b610b4a565b61029761045036600461341c565b610b5e565b610297610463366004613439565b610b72565b61047b610476366004613461565b610b86565b60405161024a93929190613521565b6102976104983660046132db565b610bda565b600a546001600160a01b03165b6040516001600160a01b03909116815260200161024a565b6102d46104d036600461341c565b6001600160a01b031660009081526002602052604090205490565b6102d46104f936600461341c565b610bef565b6104aa610c2a565b61023e6105143660046132db565b60009182526008602090815260408084206001600160a01b0393909316845291905290205460ff1690565b6102d460075481565b610550610c3e565b6040805165ffffffffffff93841681529290911660208301520161024a565b6102d4600081565b6105e761058536600461325f565b6005602090815260009182526040918290208251606081018452815467ffffffffffffffff80821683526801000000000000000082041693820193909352600160801b9092046001600160801b03169282019290925260019091015460ff1682565b60405161024a92919061357e565b6102976106033660046135bf565b610c92565b610258610ebf565b610297610f1e565b600954604080516001600160a01b0383168152600160a01b90920465ffffffffffff1660208301520161024a565b6102976106543660046132db565b610f6d565b610297610f95565b600061066c82610fa8565b8061067b575061067b82610fe6565b92915050565b606061068d6000611034565b905090565b600061069d81611041565b6106a884848461104b565b50505050565b60006106b981611041565b6106c161127f565b50565b60006106cf81611041565b6106d9838361128c565b505050565b60008181526004602081815260408084208151808301835281546001600160a01b03908116808352600190930154169381019390935281517fe8a3d48500000000000000000000000000000000000000000000000000000000815291516060959394919363e8a3d4859380840193919291908290030181865afa158015610769573d6000803e3d6000fd5b505050506040513d6000823e601f3d908101601f1916820160405261079191908101906136a5565b9392505050565b816107b657604051631fe1e13d60e11b815260040160405180910390fd5b6107c082826114e6565b5050565b811580156107df5750600a546001600160a01b038281169116145b15610899576009546001600160a01b03811690600160a01b900465ffffffffffff1681151580610815575065ffffffffffff8116155b8061082857504265ffffffffffff821610155b1561086e576040517f19ca5ebb00000000000000000000000000000000000000000000000000000000815265ffffffffffff821660048201526024015b60405180910390fd5b5050600980547fffffffffffff000000000000ffffffffffffffffffffffffffffffffffffffff1690555b6107c0828261150b565b60606000808751116108b557336108c9565b868060200190518101906108c991906136f6565b90506000600360006108f0886001600160a01b031660009081526002602052604090205490565b81526020019081526020016000205490506000610922876001600160a01b031660009081526002602052604090205490565b9050811580159061095057508061094e846001600160a01b031660009081526002602052604090205490565b145b80156109625750610962600083611557565b15610b04576000818152600660209081526040808320815160608082018452915467ffffffffffffffff8082168352680100000000000000008083048216848801526001600160801b03600160801b938490048116858801528a89526005885297869020865160a0810188528154808516988201988952928304909316958301959095529190910490951660808601529184526001810154610a3094929383019060ff166007811115610a1757610a17613546565b6007811115610a2857610a28613546565b90525061156f565b610ac9576000818152600660209081526040918290208251606081018452905467ffffffffffffffff80821683526801000000000000000082041692820192909252600160801b9091046001600160801b0316918101919091528290610a959061199b565b6040517fe16fa0c6000000000000000000000000000000000000000000000000000000008152600401610865929190613713565b81604051602001610aeb91815260406020820181905260009082015260600190565b6040516020818303038152906040529350505050610b41565b6040517f0b66d2180000000000000000000000000000000000000000000000000000000081526001600160a01b0388166004820152602401610865565b95945050505050565b6000610b5581611041565b6107c082611a09565b6000610b6981611041565b6107c082611ab9565b6000610b7d81611041565b6107c082611b2c565b6060600080610bcb8686868080601f016020809104026020016040519081016040528093929190818152602001838380828437600092019190915250611b9c92505050565b92509250925093509350939050565b6000610be581611041565b6106d983836123ac565b600060036000610c14846001600160a01b031660009081526002602052604090205490565b8152602001908152602001600020549050919050565b600061068d600a546001600160a01b031690565b600a54600090600160d01b900465ffffffffffff168015158015610c6a57504265ffffffffffff821610155b610c7657600080610c8a565b600a54600160a01b900465ffffffffffff16815b915091509091565b600080875111610ca25733610cb6565b86806020019051810190610cb691906136f6565b9050600060036000610cdd886001600160a01b031660009081526002602052604090205490565b81526020019081526020016000205490506000610d0f876001600160a01b031660009081526002602052604090205490565b9050610d30876001600160a01b031660009081526002602052604090205490565b6001600160a01b03841660009081526002602052604090205414158015610d5d5750610d5d600083611557565b15610d9f576040517f0b66d2180000000000000000000000000000000000000000000000000000000081526001600160a01b0388166004820152602401610865565b6000818152600660209081526040808320815160608082018452915467ffffffffffffffff8082168352680100000000000000008083048216848801526001600160801b03600160801b938490048116858801528a89526005885297869020865160a0810188528154808516988201988952928304909316958301959095529190910490951660808601529184526001810154610e4f94929383019060ff166007811115610a1757610a17613546565b610eb4576000818152600660209081526040918290208251606081018452905467ffffffffffffffff80821683526801000000000000000082041692820192909252600160801b9091046001600160801b0316918101919091528290610a959061199b565b505050505050505050565b600a54600090600160d01b900465ffffffffffff168015158015610eea57504265ffffffffffff8216105b610f0557600954600160d01b900465ffffffffffff16610f18565b600a54600160a01b900465ffffffffffff165b91505090565b6009546001600160a01b0316338114610f65576040517fc22c8022000000000000000000000000000000000000000000000000000000008152336004820152602401610865565b6106c16124c8565b81610f8b57604051631fe1e13d60e11b815260040160405180910390fd5b6107c08282612590565b6000610fa081611041565b6106c16125b5565b60006001600160e01b031982167f3149878600000000000000000000000000000000000000000000000000000000148061067b575061067b826125c0565b60006001600160e01b031982167f9aab004e00000000000000000000000000000000000000000000000000000000148061067b57506301ffc9a760e01b6001600160e01b031983161461067b565b60606000610791836125fe565b6106c1813361265a565b611075837ff9e8488f000000000000000000000000000000000000000000000000000000006126c8565b6110b6576040517f404a13190000000000000000000000000000000000000000000000000000000081526001600160a01b0384166004820152602401610865565b604080516001600160a01b0380861660208301528416918101919091526000906060016040516020818303038152906040528051906020012090506111388260000151600081604001516001600160801b03166080836020015167ffffffffffffffff16901b60c0846000015167ffffffffffffffff16901b17179050919050565b600003611181578061114d836000015161199b565b6040517fb9619f58000000000000000000000000000000000000000000000000000000008152600401610865929190613713565b61118c8185856126e4565b6000818152600560209081526040918290208451805182548285015192909501516001600160801b03908116600160801b0267ffffffffffffffff93841668010000000000000000026fffffffffffffffffffffffffffffffff1990971693909216929092179490941716929092178255830151600180830180548694939260ff199091169083600781111561122457611224613546565b0217905550506040516112399150839061372c565b6040518091039020817fd8f18dfaf582641f02bc0d91a99cf3be0cbc415f5aabae657dea86184cdff4fc84604051611271919061377a565b60405180910390a350505050565b61128a6000806127d4565b565b611297600083611557565b6112b75760405163f737a13760e01b815260048101839052602401610865565b6000828152600560209081526040808320815160a081018352815467ffffffffffffffff808216948301948552680100000000000000008204166060830152600160801b90046001600160801b031660808201529182526001810154919290919083019060ff16600781111561132f5761132f613546565b600781111561134057611340613546565b905250805190915061138b90600081604001516001600160801b03166080836020015167ffffffffffffffff16901b60c0846000015167ffffffffffffffff16901b17179050919050565b6000036113c7576040517fc10a098800000000000000000000000000000000000000000000000000000000815260048101849052602401610865565b815161140c90600081604001516001600160801b03166080836020015167ffffffffffffffff16901b60c0846000015167ffffffffffffffff16901b17179050919050565b600003611421578261114d836000015161199b565b8051825161142f91906128ba565b15611442578261114d836000015161199b565b6000838152600560209081526040918290208451805182548285015192909501516001600160801b03908116600160801b0267ffffffffffffffff93841668010000000000000000026fffffffffffffffffffffffffffffffff1990971693909216929092179490941716929092178255830151600180830180548694939260ff19909116908360078111156114da576114da613546565b02179055505050505050565b60008281526008602052604090206001015461150181611041565b6106a8838361294a565b6001600160a01b038116331461154d576040517f6697b23200000000000000000000000000000000000000000000000000000000815260040160405180910390fd5b6106d982826129bf565b60008181526001830160205260408120541515610791565b6000808260200151600781111561158857611588613546565b036115955750600161067b565b6001826020015160078111156115ad576115ad613546565b036116425781516115f790600081604001516001600160801b03166080836020015167ffffffffffffffff16901b60c0846000015167ffffffffffffffff16901b17179050919050565b61163a84600081604001516001600160801b03166080836020015167ffffffffffffffff16901b60c0846000015167ffffffffffffffff16901b17179050919050565b14905061067b565b60028260200151600781111561165a5761165a613546565b036116795750805151825167ffffffffffffffff90811691161461067b565b60038260200151600781111561169157611691613546565b036116dc57815151835167ffffffffffffffff90811691161480156116d5575081600001516020015167ffffffffffffffff16836020015167ffffffffffffffff16145b905061067b565b6004826020015160078111156116f4576116f4613546565b0361178a57815161173e90600081604001516001600160801b03166080836020015167ffffffffffffffff16901b60c0846000015167ffffffffffffffff16901b17179050919050565b61178184600081604001516001600160801b03166080836020015167ffffffffffffffff16901b60c0846000015167ffffffffffffffff16901b17179050919050565b1015905061067b565b6005826020015160078111156117a2576117a2613546565b036118375781516117ec90600081604001516001600160801b03166080836020015167ffffffffffffffff16901b60c0846000015167ffffffffffffffff16901b17179050919050565b61182f84600081604001516001600160801b03166080836020015167ffffffffffffffff16901b60c0846000015167ffffffffffffffff16901b17179050919050565b11905061067b565b60068260200151600781111561184f5761184f613546565b036118e557815161189990600081604001516001600160801b03166080836020015167ffffffffffffffff16901b60c0846000015167ffffffffffffffff16901b17179050919050565b6118dc84600081604001516001600160801b03166080836020015167ffffffffffffffff16901b60c0846000015167ffffffffffffffff16901b17179050919050565b1115905061067b565b6007826020015160078111156118fd576118fd613546565b0361199257815161194790600081604001516001600160801b03166080836020015167ffffffffffffffff16901b60c0846000015167ffffffffffffffff16901b17179050919050565b61198a84600081604001516001600160801b03166080836020015167ffffffffffffffff16901b60c0846000015167ffffffffffffffff16901b17179050919050565b10905061067b565b50600092915050565b60606119b4826000015167ffffffffffffffff16612a09565b6119cb836020015167ffffffffffffffff16612a09565b6119e184604001516001600160801b0316612a09565b6040516020016119f3939291906137c2565b6040516020818303038152906040529050919050565b611a14600082611557565b611a345760405163f737a13760e01b815260048101829052602401610865565b611a3f600082612aa9565b506000818152600460209081526040808320805473ffffffffffffffffffffffffffffffffffffffff1990811682556001918201805490911690556005909252808320838155909101805460ff191690555182917ff8a76d9c3f55eabd1faadf7d8ec1d8d5ee98ee785eadf2cf343f40e11541c2cd91a250565b6000611ac3610ebf565b611acc42612ab5565b611ad6919061384e565b9050611ae28282612b05565b60405165ffffffffffff821681526001600160a01b038316907f3377dc44241e779dd06afab5b788a35ca5f3b778836e2990bdb26a2a4b2e5ed69060200160405180910390a25050565b6000611b3782612b83565b611b4042612ab5565b611b4a919061384e565b9050611b5682826127d4565b6040805165ffffffffffff8085168252831660208201527ff1038c18cf84a56e432fdbfaf746924b7ea511dfe03a6506a0ceba4888788d9b910160405180910390a15050565b6060600080611bab8186611557565b611bcb5760405163f737a13760e01b815260048101869052602401610865565b60008581526004602090815260408083208151808301835281546001600160a01b039081168252600192830154168185015289855260058452828520835160a081018552815467ffffffffffffffff808216968301968752680100000000000000008204166060830152600160801b90046001600160801b031660808201529384529182015490949383019060ff166007811115611c6b57611c6b613546565b6007811115611c7c57611c7c613546565b90525060208301519091506001600160a01b0316157f4ecbe87100000000000000000000000000000000000000000000000000000000600082611cce5760405180602001604052806000815250611cd0565b885b600780549192506000919082611ce58361386d565b90915550506007548551611d3290600081604001516001600160801b03166080836020015167ffffffffffffffff16901b60c0846000015167ffffffffffffffff16901b17179050919050565b600003611e725786516040517f9ca33c9e0000000000000000000000000000000000000000000000000000000081529092506001600160a01b03831690639ca33c9e90611d839086906004016132c8565b6000604051808303816000875af1158015611da2573d6000803e3d6000fd5b505050506040513d6000823e601f3d908101601f19168201604052611dca9190810190613887565b6040805160608082018352600080835260208084018290529284018190528351918201845280825281830181815282850182815260075483526006909452939020905181549351925167ffffffffffffffff9182166fffffffffffffffffffffffffffffffff1990951694909417680100000000000000009190931602919091176001600160801b03908116600160801b9190931602919091179055919b5099509750612184565b86516040517f28bba5e10000000000000000000000000000000000000000000000000000000081526000906001600160a01b038316906328bba5e190611ebc908b9060040161377a565b600060405180830381865afa158015611ed9573d6000803e3d6000fd5b505050506040513d6000823e601f3d908101601f19168201604052611f01919081019061396c565b60208101516040517f8eaa6ac0000000000000000000000000000000000000000000000000000000008152600481019190915290915073c0d31d398c5ee86c5f8a23fa253ee8a586da03ce908190638eaa6ac090602401602060405180830381865afa158015611f75573d6000803e3d6000fd5b505050506040513d601f19601f82011682018060405250810190611f9991906136f6565b94506001600160a01b038516611fca57816020015160405163f737a13760e01b815260040161086591815260200190565b6040517f9ca33c9e0000000000000000000000000000000000000000000000000000000081526001600160a01b03861690639ca33c9e9061200f9089906004016132c8565b6000604051808303816000875af115801561202e573d6000803e3d6000fd5b505050506040513d6000823e601f3d908101601f191682016040526120569190810190613887565b905050809d5050826001600160a01b03166386019a3f6040518163ffffffff1660e01b8152600401602060405180830381865afa15801561209b573d6000803e3d6000fd5b505050506040513d601f19601f820116820180604052508101906120bf9190613a39565b9b506121088260000151600081604001516001600160801b03166080836020015167ffffffffffffffff16901b60c0846000015167ffffffffffffffff16901b17179050919050565b9151600754600090815260066020908152604091829020835181549285015193909401516001600160801b03908116600160801b0267ffffffffffffffff94851668010000000000000000026fffffffffffffffffffffffffffffffff1990941694909516939093179190911791909116919091179055509850505b84156122e75760008088602001516001600160a01b0316868d8f6040516024016121af929190613a52565b60408051601f198184030181529181526020820180517bffffffffffffffffffffffffffffffffffffffffffffffffffffffff166001600160e01b03199094169390931790925290516122029190613a77565b600060405180830381855af49150503d806000811461223d576040519150601f19603f3d011682016040523d82523d6000602084013e612242565b606091505b5091509150816122e45780511561225c5780518082602001fd5b6040517f08c379a000000000000000000000000000000000000000000000000000000000815260206004820152603560248201527f696e697469616c697a65722064656c656761746563616c6c206661696c65642060448201527f776974686f75742072657665727420726561736f6e00000000000000000000006064820152608401610865565b50505b895160005b818110156123605782600260008e848151811061230b5761230b613a93565b60200260200101516001600160a01b03166001600160a01b03168152602001908152602001600020819055508d6003600085815260200190815260200160002081905550806123599061386d565b90506122ec565b505087818d7fb1a4a6f5e0cc926c0f33c83ca6e5187edc8d9719645709413ffb187e49483eeb8d8f604051612396929190613a52565b60405180910390a4505050505050509250925092565b600073c0d31d398c5ee86c5f8a23fa253ee8a586da03ce6040517f8eaa6ac0000000000000000000000000000000000000000000000000000000008152600481018590529091506000906001600160a01b03831690638eaa6ac090602401602060405180830381865afa158015612427573d6000803e3d6000fd5b505050506040513d601f19601f8201168201806040525081019061244b91906136f6565b90506001600160a01b0381166124775760405163f737a13760e01b815260048101859052602401610865565b6000848460405160200161249e9291909182526001600160a01b0316602082015260400190565b6040516020818303038152906040528051906020012090506124c18183866126e4565b5050505050565b6009546001600160a01b03811690600160a01b900465ffffffffffff168015806124fa57504265ffffffffffff821610155b1561253b576040517f19ca5ebb00000000000000000000000000000000000000000000000000000000815265ffffffffffff82166004820152602401610865565b6125576000612552600a546001600160a01b031690565b6129bf565b5061256360008361294a565b5050600980547fffffffffffff000000000000000000000000000000000000000000000000000016905550565b6000828152600860205260409020600101546125ab81611041565b6106a883836129bf565b61128a600080612b05565b60006001600160e01b031982167f7965db0b00000000000000000000000000000000000000000000000000000000148061067b575061067b82610fe6565b60608160000180548060200260200160405190810160405280929190818152602001828054801561264e57602002820191906000526020600020905b81548152602001906001019080831161263a575b50505050509050919050565b60008281526008602090815260408083206001600160a01b038516845290915290205460ff166107c0576040517fe2517d3f0000000000000000000000000000000000000000000000000000000081526001600160a01b038216600482015260248101839052604401610865565b60006126d383612bcb565b801561079157506107918383612bfe565b6126ef600084611557565b15612729576040517ff605b5bb00000000000000000000000000000000000000000000000000000000815260048101849052602401610865565b612734600084612c9d565b506040805180820182526001600160a01b03848116808352848216602080850182815260008a8152600483528790209551865490861673ffffffffffffffffffffffffffffffffffffffff199182161787559051600190960180549690951695169490941790925592519283529185917f09436bc9a76164325311f392b1018e238b1d0a54bbd9e5b3bbf0b037eda6b500910160405180910390a3505050565b600a54600160d01b900465ffffffffffff16801561286a574265ffffffffffff8216101561284057600a546009805479ffffffffffffffffffffffffffffffffffffffffffffffffffff16600160a01b90920465ffffffffffff16600160d01b0291909117905561286a565b6040517f2b1fa2edafe6f7b9e97c1a9e0c3660e645beb2dcaa2d45bdbf9beaf5472e1ec590600090a15b50600a80546001600160a01b0316600160a01b65ffffffffffff9485160279ffffffffffffffffffffffffffffffffffffffffffffffffffff1617600160d01b9290931691909102919091179055565b60006128ff82600081604001516001600160801b03166080836020015167ffffffffffffffff16901b60c0846000015167ffffffffffffffff16901b17179050919050565b61294284600081604001516001600160801b03166080836020015167ffffffffffffffff16901b60c0846000015167ffffffffffffffff16901b17179050919050565b149392505050565b6000826129b5576000612965600a546001600160a01b031690565b6001600160a01b03161461298c57604051631fe1e13d60e11b815260040160405180910390fd5b600a805473ffffffffffffffffffffffffffffffffffffffff19166001600160a01b0384161790555b6107918383612ca9565b6000821580156129dc5750600a546001600160a01b038381169116145b156129ff57600a805473ffffffffffffffffffffffffffffffffffffffff191690555b6107918383612d57565b60606000612a1683612dde565b600101905060008167ffffffffffffffff811115612a3657612a366130a8565b6040519080825280601f01601f191660200182016040528015612a60576020820181803683370190505b5090508181016020015b600019017f3031323334353637383961626364656600000000000000000000000000000000600a86061a8153600a8504945084612a6a57509392505050565b60006107918383612ec0565b600065ffffffffffff821115612b01576040517f6dfcc6500000000000000000000000000000000000000000000000000000000081526030600482015260248101839052604401610865565b5090565b60098054600160a01b65ffffffffffff84811682027fffffffffffff000000000000000000000000000000000000000000000000000084166001600160a01b038816171790935590041680156106d9576040517f8886ebfc4259abdbc16601dd8fb5678e54878f47b3c34836cfc51154a960510990600090a1505050565b600080612b8e610ebf565b90508065ffffffffffff168365ffffffffffff1611612bb657612bb18382613aa9565b610791565b61079165ffffffffffff841662069780612fba565b6000612bde826301ffc9a760e01b612bfe565b801561067b5750612bf7826001600160e01b0319612bfe565b1592915050565b6040516001600160e01b031982166024820152600090819060440160408051601f19818403018152919052602080820180517bffffffffffffffffffffffffffffffffffffffffffffffffffffffff166301ffc9a760e01b178152825192935060009283928392909183918a617530fa92503d91506000519050828015612c86575060208210155b8015612c925750600081115b979650505050505050565b60006107918383612fd0565b60008281526008602090815260408083206001600160a01b038516845290915281205460ff16612d4f5760008381526008602090815260408083206001600160a01b03861684529091529020805460ff19166001179055612d073390565b6001600160a01b0316826001600160a01b0316847f2f8788117e7eff1d82e926ec794901d17c78024a50270940304540a733656f0d60405160405180910390a450600161067b565b50600061067b565b60008281526008602090815260408083206001600160a01b038516845290915281205460ff1615612d4f5760008381526008602090815260408083206001600160a01b0386168085529252808320805460ff1916905551339286917ff6391f5c32d9c69d2a47ea670b442974b53935d1edc7fd64eb21e047a839171b9190a450600161067b565b6000807a184f03e93ff9f4daa797ed6e38ed64bf6a1f0100000000000000008310612e27577a184f03e93ff9f4daa797ed6e38ed64bf6a1f010000000000000000830492506040015b6d04ee2d6d415b85acef81000000008310612e53576d04ee2d6d415b85acef8100000000830492506020015b662386f26fc100008310612e7157662386f26fc10000830492506010015b6305f5e1008310612e89576305f5e100830492506008015b6127108310612e9d57612710830492506004015b60648310612eaf576064830492506002015b600a831061067b5760010192915050565b60008181526001830160205260408120548015612fa9576000612ee4600183613ac8565b8554909150600090612ef890600190613ac8565b9050808214612f5d576000866000018281548110612f1857612f18613a93565b9060005260206000200154905080876000018481548110612f3b57612f3b613a93565b6000918252602080832090910192909255918252600188019052604090208390555b8554869080612f6e57612f6e613adb565b60019003818190600052602060002001600090559055856001016000868152602001908152602001600020600090556001935050505061067b565b600091505061067b565b5092915050565b6000818310612fc95781610791565b5090919050565b6000818152600183016020526040812054612d4f5750815460018181018455600084815260208082209093018490558454848252828601909352604090209190915561067b565b80356001600160e01b03198116811461302f57600080fd5b919050565b60006020828403121561304657600080fd5b61079182613017565b6020808252825182820181905260009190848201906040850190845b818110156130875783518352928401929184019160010161306b565b50909695505050505050565b6001600160a01b03811681146106c157600080fd5b634e487b7160e01b600052604160045260246000fd5b6040516060810167ffffffffffffffff811182821017156130e1576130e16130a8565b60405290565b604051601f8201601f1916810167ffffffffffffffff81118282101715613110576131106130a8565b604052919050565b67ffffffffffffffff811681146106c157600080fd5b6001600160801b03811681146106c157600080fd5b6000818303608081121561315657600080fd5b6040516040810181811067ffffffffffffffff82111715613179576131796130a8565b604052915081606082121561318d57600080fd5b6131956130be565b915083356131a281613118565b825260208401356131b281613118565b602083015260408401356131c58161312e565b6040830152908152606083013590600882106131e057600080fd5b6020015292915050565b600080600060c084860312156131ff57600080fd5b833561320a81613093565b9250602084013561321a81613093565b91506132298560408601613143565b90509250925092565b60008060a0838503121561324557600080fd5b823591506132568460208501613143565b90509250929050565b60006020828403121561327157600080fd5b5035919050565b60005b8381101561329357818101518382015260200161327b565b50506000910152565b600081518084526132b4816020860160208601613278565b601f01601f19169290920160200192915050565b602081526000610791602083018461329c565b600080604083850312156132ee57600080fd5b82359150602083013561330081613093565b809150509250929050565b600067ffffffffffffffff821115613325576133256130a8565b50601f01601f191660200190565b600082601f83011261334457600080fd5b81356133576133528261330b565b6130e7565b81815284602083860101111561336c57600080fd5b816020850160208301376000918101602001919091529392505050565b600080600080600060a086880312156133a157600080fd5b853567ffffffffffffffff808211156133b957600080fd5b6133c589838a01613333565b96506133d360208901613017565b9550604088013591506133e582613093565b909350606087013592506080870135908082111561340257600080fd5b5061340f88828901613333565b9150509295509295909350565b60006020828403121561342e57600080fd5b813561079181613093565b60006020828403121561344b57600080fd5b813565ffffffffffff8116811461079157600080fd5b60008060006040848603121561347657600080fd5b83359250602084013567ffffffffffffffff8082111561349557600080fd5b818601915086601f8301126134a957600080fd5b8135818111156134b857600080fd5b8760208285010111156134ca57600080fd5b6020830194508093505050509250925092565b600081518084526020808501945080840160005b838110156135165781516001600160a01b0316875295820195908201906001016134f1565b509495945050505050565b60608152600061353460608301866134dd565b60208301949094525060400152919050565b634e487b7160e01b600052602160045260246000fd5b6008811061357a57634e487b7160e01b600052602160045260246000fd5b9052565b825167ffffffffffffffff9081168252602080850151909116908201526040808401516001600160801b03169082015260808101610791606083018461355c565b60008060008060008060c087890312156135d857600080fd5b863567ffffffffffffffff808211156135f057600080fd5b6135fc8a838b01613333565b975061360a60208a01613017565b96506040890135915061361c82613093565b909450606088013593506080880135908082111561363957600080fd5b6136458a838b01613333565b935060a089013591508082111561365b57600080fd5b5061366889828a01613333565b9150509295509295509295565b60006136836133528461330b565b905082815283838301111561369757600080fd5b610791836020830184613278565b6000602082840312156136b757600080fd5b815167ffffffffffffffff8111156136ce57600080fd5b8201601f810184136136df57600080fd5b6136ee84825160208401613675565b949350505050565b60006020828403121561370857600080fd5b815161079181613093565b8281526040602082015260006136ee604083018461329c565b6000825167ffffffffffffffff808251168452806020830151166020850152506001600160801b0360408201511660408401525061377160608301602085015161355c565b50608001919050565b8151805167ffffffffffffffff9081168352602080830151909116908301526040908101516001600160801b031690820152608081016020830151612fb3606084018261355c565b600084516137d4818460208901613278565b80830190507f2e000000000000000000000000000000000000000000000000000000000000008082528551613810816001850160208a01613278565b6001920191820152835161382b816002840160208801613278565b0160020195945050505050565b634e487b7160e01b600052601160045260246000fd5b65ffffffffffff818116838216019080821115612fb357612fb3613838565b6000600019820361388057613880613838565b5060010190565b60008060006060848603121561389c57600080fd5b835167ffffffffffffffff808211156138b457600080fd5b818601915086601f8301126138c857600080fd5b81516020828211156138dc576138dc6130a8565b8160051b92506138ed8184016130e7565b828152928401810192818101908a85111561390757600080fd5b948201945b84861015613931578551935061392184613093565b838252948201949082019061390c565b91890151604090990151919a98995090979650505050505050565b600082601f83011261395d57600080fd5b61079183835160208501613675565b60006020828403121561397e57600080fd5b815167ffffffffffffffff8082111561399657600080fd5b9083019081850360a08112156139ab57600080fd5b6139b36130be565b60608212156139c157600080fd5b6139c96130be565b915083516139d681613118565b825260208401516139e681613118565b602083015260408401516139f98161312e565b60408301529081526060830151602082015260808301519082821115613a1e57600080fd5b613a2a8783860161394c565b60408201529695505050505050565b600060208284031215613a4b57600080fd5b5051919050565b604081526000613a6560408301856134dd565b8281036020840152610b41818561329c565b60008251613a89818460208701613278565b9190910192915050565b634e487b7160e01b600052603260045260246000fd5b65ffffffffffff828116828216039080821115612fb357612fb3613838565b8181038181111561067b5761067b613838565b634e487b7160e01b600052603160045260246000fdfea2646970667358221220bea1aa3c83f543a85cd62f9c9456517f673a162d1082eb84b97c81388372482664736f6c63430008140033",
  "devdoc": {
    "author": "Peeramid Labs, 2024",
    "errors": {
      "AccessControlBadConfirmation()": [
        {
          "details": "The caller of a function is not the expected one. NOTE: Don't confuse with {AccessControlUnauthorizedAccount}."
        }
      ],
      "AccessControlEnforcedDefaultAdminDelay(uint48)": [
        {
          "details": "The delay for transferring the default admin delay is enforced and the operation must wait until `schedule`. NOTE: `schedule` can be 0 indicating there's no transfer scheduled."
        }
      ],
      "AccessControlEnforcedDefaultAdminRules()": [
        {
          "details": "At least one of the following rules was violated: - The `DEFAULT_ADMIN_ROLE` must only be managed by itself. - The `DEFAULT_ADMIN_ROLE` must only be held by one account at the time. - Any `DEFAULT_ADMIN_ROLE` transfer must be in two delayed steps."
        }
      ],
      "AccessControlInvalidDefaultAdmin(address)": [
        {
          "details": "The new default admin is not a valid default admin."
        }
      ],
      "AccessControlUnauthorizedAccount(address,bytes32)": [
        {
          "details": "The `account` is missing a role."
        }
      ],
      "DistributionExists(bytes32)": [
        {
          "params": {
            "id": "The unique identifier of the distribution that already exists."
          }
        }
      ],
      "DistributionNotFound(bytes32)": [
        {
          "params": {
            "id": "The unique identifier of the distribution that was not found."
          }
        }
      ],
      "InitializerNotFound(bytes32)": [
        {
          "params": {
            "id": "The unique identifier of the distribution that was not found."
          }
        }
      ],
      "SafeCastOverflowedUintDowncast(uint8,uint256)": [
        {
          "details": "Value doesn't fit in an uint of `bits` size."
        }
      ]
    },
    "events": {
      "DefaultAdminDelayChangeCanceled()": {
        "details": "Emitted when a {pendingDefaultAdminDelay} is reset if its schedule didn't pass."
      },
      "DefaultAdminDelayChangeScheduled(uint48,uint48)": {
        "details": "Emitted when a {defaultAdminDelay} change is started, setting `newDelay` as the next delay to be applied between default admin transfer after `effectSchedule` has passed."
      },
      "DefaultAdminTransferCanceled()": {
        "details": "Emitted when a {pendingDefaultAdmin} is reset if it was never accepted, regardless of its schedule."
      },
      "DefaultAdminTransferScheduled(address,uint48)": {
        "details": "Emitted when a {defaultAdmin} transfer is started, setting `newAdmin` as the next address to become the {defaultAdmin} by calling {acceptDefaultAdminTransfer} only after `acceptSchedule` passes."
      },
      "DistributionAdded(bytes32,address,address)": {
        "details": "It MUST emit when {IDistributor.addDistribution} is called.",
        "params": {
          "distribution": "The address of the distribution that was added.",
          "id": "The unique identifier of the distribution that was added.",
          "initializer": "The address of the initializer for the distribution."
        }
      },
      "DistributionRemoved(bytes32)": {
        "details": "It MUST emit when {IDistributor.removeDistribution} is called.",
        "params": {
          "id": "The unique identifier of the distribution that was removed."
        }
      },
      "Instantiated(bytes32,uint256,uint256,address[],bytes)": {
        "details": "It MUST emit when {IDistributor.instantiate} is called.",
        "params": {
          "args": "The arguments that were used for instantiation.",
          "distributionId": "The unique identifier of the distribution.",
          "instances": "The addresses of the instances that were created.",
          "newInstanceId": "The unique identifier of the instance.",
          "version": "The version of the distribution, taken either from IDsitribution or from IRepository."
        }
      },
      "RoleAdminChanged(bytes32,bytes32,bytes32)": {
        "details": "Emitted when `newAdminRole` is set as ``role``'s admin role, replacing `previousAdminRole` `DEFAULT_ADMIN_ROLE` is the starting admin for all roles, despite {RoleAdminChanged} not being emitted signaling this."
      },
      "RoleGranted(bytes32,address,address)": {
        "details": "Emitted when `account` is granted `role`. `sender` is the account that originated the contract call, an admin role bearer except when using {AccessControl-_setupRole}."
      },
      "RoleRevoked(bytes32,address,address)": {
        "details": "Emitted when `account` is revoked `role`. `sender` is the account that originated the contract call:   - if using `revokeRole`, it is the admin role bearer   - if using `renounceRole`, it is the role bearer (i.e. `account`)"
      },
      "VersionChanged(bytes32,((uint64,uint64,uint128),uint8),((uint64,uint64,uint128),uint8))": {
        "params": {
          "distributionId": "The unique identifier of the distribution.",
          "newRequirement": "The new version requirement (hashed for indexing).",
          "newRequirementData": "The new version requirement data."
        }
      }
    },
    "kind": "dev",
    "methods": {
      "acceptDefaultAdminTransfer()": {
        "details": "Completes a {defaultAdmin} transfer previously started with {beginDefaultAdminTransfer}. After calling the function: - `DEFAULT_ADMIN_ROLE` should be granted to the caller. - `DEFAULT_ADMIN_ROLE` should be revoked from the previous holder. - {pendingDefaultAdmin} should be reset to zero values. Requirements: - Only can be called by the {pendingDefaultAdmin}'s `newAdmin`. - The {pendingDefaultAdmin}'s `acceptSchedule` should've passed."
      },
      "addDistribution(address,address,((uint64,uint64,uint128),uint8))": {
        "details": "WARNING: If initializer is provided, it will DELEGATECALL to the initializer. Otherwise, instantiation arguments will be passed to the distribution for self-initialization. Initializer contract MUST be trusted by the distributor.",
        "params": {
          "initializer": "The address that initializes the distribution.",
          "repository": "The repository to which the distribution will be added.",
          "requirement": "The version requirements for the distribution."
        }
      },
      "addDistribution(bytes32,address)": {
        "details": "This function can only be called by an account with the `DEFAULT_ADMIN_ROLE`.",
        "params": {
          "id": "The unique identifier for the distribution.     * @param initializer The address that initializes the distribution."
        }
      },
      "afterCall(bytes,bytes4,address,uint256,bytes,bytes)": {
        "details": "it will revert if: (1) `msg.sender` is not a valid instance; (2) `maybeInstance` is not a valid instance (3) `instanceId` belongs to disactivated distribution",
        "params": {
          "beforeCallResult": "The data returned by `beforeCallValidation`.",
          "configuration": "Middleware-specific configuration data.",
          "data": "The calldata for the function call.",
          "selector": "The function selector being called.",
          "sender": "The address initiating the call.",
          "value": "The amount of ETH sent with the call (if any)."
        }
      },
      "beforeCall(bytes,bytes4,address,uint256,bytes)": {
        "details": "it will revert if: (1) `msg.sender` is not a valid instance; (2) `maybeInstance` is not a valid instance (3) `instanceId` belongs to disactivated distribution",
        "params": {
          "configuration": "Middleware-specific configuration data.",
          "data": "The calldata for the function call.",
          "selector": "The function selector being called.",
          "sender": "The address initiating the call.",
          "value": "The amount of ETH sent with the call (if any)."
        },
        "returns": {
          "_0": "beforeCallResult Arbitrary data to be passed to `afterCallValidation`."
        }
      },
      "beginDefaultAdminTransfer(address)": {
        "details": "Starts a {defaultAdmin} transfer by setting a {pendingDefaultAdmin} scheduled for acceptance after the current timestamp plus a {defaultAdminDelay}. Requirements: - Only can be called by the current {defaultAdmin}. Emits a DefaultAdminRoleChangeStarted event."
      },
      "cancelDefaultAdminTransfer()": {
        "details": "Cancels a {defaultAdmin} transfer previously started with {beginDefaultAdminTransfer}. A {pendingDefaultAdmin} not yet accepted can also be cancelled with this function. Requirements: - Only can be called by the current {defaultAdmin}. May emit a DefaultAdminTransferCanceled event."
      },
      "changeDefaultAdminDelay(uint48)": {
        "details": "Initiates a {defaultAdminDelay} update by setting a {pendingDefaultAdminDelay} scheduled for getting into effect after the current timestamp plus a {defaultAdminDelay}. This function guarantees that any call to {beginDefaultAdminTransfer} done between the timestamp this method is called and the {pendingDefaultAdminDelay} effect schedule will use the current {defaultAdminDelay} set before calling. The {pendingDefaultAdminDelay}'s effect schedule is defined in a way that waiting until the schedule and then calling {beginDefaultAdminTransfer} with the new delay will take at least the same as another {defaultAdmin} complete transfer (including acceptance). The schedule is designed for two scenarios: - When the delay is changed for a larger one the schedule is `block.timestamp + newDelay` capped by {defaultAdminDelayIncreaseWait}. - When the delay is changed for a shorter one, the schedule is `block.timestamp + (current delay - new delay)`. A {pendingDefaultAdminDelay} that never got into effect will be canceled in favor of a new scheduled change. Requirements: - Only can be called by the current {defaultAdmin}. Emits a DefaultAdminDelayChangeScheduled event and may emit a DefaultAdminDelayChangeCanceled event."
      },
      "changeVersion(bytes32,((uint64,uint64,uint128),uint8))": {
        "params": {
          "distributionId": "The unique identifier of the distribution whose version requirement is to be changed.",
          "newRequirement": "The new version requirement to be set for the distribution."
        }
      },
      "defaultAdmin()": {
        "details": "Returns the address of the current `DEFAULT_ADMIN_ROLE` holder."
      },
      "defaultAdminDelay()": {
        "details": "Returns the delay required to schedule the acceptance of a {defaultAdmin} transfer started. This delay will be added to the current timestamp when calling {beginDefaultAdminTransfer} to set the acceptance schedule. NOTE: If a delay change has been scheduled, it will take effect as soon as the schedule passes, making this function returns the new delay. See {changeDefaultAdminDelay}."
      },
      "defaultAdminDelayIncreaseWait()": {
        "details": "Maximum time in seconds for an increase to {defaultAdminDelay} (that is scheduled using {changeDefaultAdminDelay}) to take effect. Default to 5 days. When the {defaultAdminDelay} is scheduled to be increased, it goes into effect after the new delay has passed with the purpose of giving enough time for reverting any accidental change (i.e. using milliseconds instead of seconds) that may lock the contract. However, to avoid excessive schedules, the wait is capped by this function and it can be overrode for a custom {defaultAdminDelay} increase scheduling. IMPORTANT: Make sure to add a reasonable amount of time while overriding this value, otherwise, there's a risk of setting a high new delay that goes into effect almost immediately without the possibility of human intervention in the case of an input error (eg. set milliseconds instead of seconds)."
      },
      "getDistributionId(address)": {
        "params": {
          "instance": "The address of the instance for which the distribution ID is being requested."
        },
        "returns": {
          "_0": "The distribution ID as a bytes32 value."
        }
      },
      "getDistributions()": {
        "returns": {
          "_0": "An array of unique identifiers of all distributions."
        }
      },
      "getInstanceId(address)": {
        "params": {
          "instance": "The address of the instance whose ID is to be retrieved."
        },
        "returns": {
          "_0": "The unique identifier (uint256) associated with the specified instance address."
        }
      },
      "getRoleAdmin(bytes32)": {
        "details": "Returns the admin role that controls `role`. See {grantRole} and {revokeRole}. To change a role's admin, use {_setRoleAdmin}."
      },
      "grantRole(bytes32,address)": {
        "details": "See {AccessControl-grantRole}. Reverts for `DEFAULT_ADMIN_ROLE`."
      },
      "hasRole(bytes32,address)": {
        "details": "Returns `true` if `account` has been granted `role`."
      },
      "instantiate(bytes32,bytes)": {
        "params": {
          "args": "The calldata arguments required for the instantiation process.",
          "id": "The unique identifier for the contract to be instantiated."
        },
        "returns": {
          "name": "The name of the instantiated distribution.",
          "srcs": "An array of instantiated infrastructure",
          "version": "The version number of the instantiated distribution."
        }
      },
      "owner()": {
        "details": "See {IERC5313-owner}."
      },
      "pendingDefaultAdmin()": {
        "details": "Returns a tuple of a `newAdmin` and an accept schedule. After the `schedule` passes, the `newAdmin` will be able to accept the {defaultAdmin} role by calling {acceptDefaultAdminTransfer}, completing the role transfer. A zero value only in `acceptSchedule` indicates no pending admin transfer. NOTE: A zero address `newAdmin` means that {defaultAdmin} is being renounced."
      },
      "pendingDefaultAdminDelay()": {
        "details": "Returns a tuple of `newDelay` and an effect schedule. After the `schedule` passes, the `newDelay` will get into effect immediately for every new {defaultAdmin} transfer started with {beginDefaultAdminTransfer}. A zero value only in `effectSchedule` indicates no pending delay change. NOTE: A zero value only for `newDelay` means that the next {defaultAdminDelay} will be zero after the effect schedule."
      },
      "removeDistribution(bytes32)": {
        "details": "This function can only be called by an account with the `DEFAULT_ADMIN_ROLE`.",
        "params": {
          "id": "The unique identifier of the distribution entry to be removed."
        }
      },
      "renounceRole(bytes32,address)": {
        "details": "See {AccessControl-renounceRole}. For the `DEFAULT_ADMIN_ROLE`, it only allows renouncing in two steps by first calling {beginDefaultAdminTransfer} to the `address(0)`, so it's required that the {pendingDefaultAdmin} schedule has also passed when calling this function. After its execution, it will not be possible to call `onlyRole(DEFAULT_ADMIN_ROLE)` functions. NOTE: Renouncing `DEFAULT_ADMIN_ROLE` will leave the contract without a {defaultAdmin}, thereby disabling any functionality that is only available for it, and the possibility of reassigning a non-administrated role."
      },
      "revokeRole(bytes32,address)": {
        "details": "See {AccessControl-revokeRole}. Reverts for `DEFAULT_ADMIN_ROLE`."
      },
      "rollbackDefaultAdminDelay()": {
        "details": "Cancels a scheduled {defaultAdminDelay} change. Requirements: - Only can be called by the current {defaultAdmin}. May emit a DefaultAdminDelayChangeCanceled event."
      },
      "supportsInterface(bytes4)": {
        "params": {
          "interfaceId": "The interface identifier, as specified in ERC-165."
        },
        "returns": {
          "_0": "`true` if the contract implements `interfaceId` and `interfaceId` is not 0xffffffff, `false` otherwise."
        }
      }
    },
    "title": "PeeramidLabsDistributor",
    "version": 1
  },
  "userdoc": {
    "errors": {
      "DistributionExists(bytes32)": [
        {
          "notice": "Error indicating that a distribution with the specified ID already exists."
        }
      ],
      "DistributionNotFound(bytes32)": [
        {
          "notice": "Error indicating that the distribution with the specified ID was not found."
        }
      ],
      "InitializerNotFound(bytes32)": [
        {
          "notice": "Error indicating that the initializer for the distribution was not found."
        }
      ]
    },
    "events": {
      "DistributionAdded(bytes32,address,address)": {
        "notice": "Event emitted when a distribution is added."
      },
      "DistributionRemoved(bytes32)": {
        "notice": "Event emitted when a distribution is removed."
      },
      "Instantiated(bytes32,uint256,uint256,address[],bytes)": {
        "notice": "Event emitted when a new distribution is instantiated."
      },
      "VersionChanged(bytes32,((uint64,uint64,uint128),uint8),((uint64,uint64,uint128),uint8))": {
        "notice": "Emitted when the version of the distributor is changed."
      }
    },
    "kind": "user",
    "methods": {
      "addDistribution(address,address,((uint64,uint64,uint128),uint8))": {
        "notice": "Adds a new versioned distribution to the repository."
      },
      "addDistribution(bytes32,address)": {
        "notice": "Adds a new distribution with the given identifier and initializer address."
      },
      "afterCall(bytes,bytes4,address,uint256,bytes,bytes)": {
        "notice": "This is ERC7746 hook must be called by instance methods that access scope is limited to the same instance or distribution"
      },
      "beforeCall(bytes,bytes4,address,uint256,bytes)": {
        "notice": "This is ERC7746 hook must be called by instance methods that access scope is limited to the same instance or distribution"
      },
      "changeVersion(bytes32,((uint64,uint64,uint128),uint8))": {
        "notice": "Changes the version requirement for a specific distribution."
      },
      "getDistributionId(address)": {
        "notice": "Retrieves the distribution ID associated with a given instance address."
      },
      "getDistributions()": {
        "notice": "Retrieves the unique identifiers of all distributions."
      },
      "getInstanceId(address)": {
        "notice": "Retrieves the unique identifier for a given instance address."
      },
      "instantiate(bytes32,bytes)": {
        "notice": "Instantiates a new contract with the given identifier and arguments."
      },
      "removeDistribution(bytes32)": {
        "notice": "Removes a distribution entry identified by the given ID."
      },
      "supportsInterface(bytes4)": {
        "notice": "This function checks if the contract implements the interface defined by ERC165"
      }
    },
    "notice": "This contract is a distributor for Peeramid Labs. It is designed to handle the distribution logic specific to Peeramid Labs. The contract leverages access control mechanisms to ensure that only authorized users can perform certain actions.",
    "version": 1
  },
  "storageLayout": {
    "storage": [
      {
        "astId": 15835,
        "contract": "src/distributors/PeeramidLabsDistributor.sol:PeeramidLabsDistributor",
        "label": "distirbutionsSet",
        "offset": 0,
        "slot": "0",
        "type": "t_struct(Bytes32Set)14936_storage"
      },
      {
        "astId": 15839,
        "contract": "src/distributors/PeeramidLabsDistributor.sol:PeeramidLabsDistributor",
        "label": "instanceIds",
        "offset": 0,
        "slot": "2",
        "type": "t_mapping(t_address,t_uint256)"
      },
      {
        "astId": 15843,
        "contract": "src/distributors/PeeramidLabsDistributor.sol:PeeramidLabsDistributor",
        "label": "distributionOf",
        "offset": 0,
        "slot": "3",
        "type": "t_mapping(t_uint256,t_bytes32)"
      },
      {
        "astId": 15848,
        "contract": "src/distributors/PeeramidLabsDistributor.sol:PeeramidLabsDistributor",
        "label": "distributionComponents",
        "offset": 0,
        "slot": "4",
        "type": "t_mapping(t_bytes32,t_struct(DistributionComponent)15824_storage)"
      },
      {
        "astId": 15853,
        "contract": "src/distributors/PeeramidLabsDistributor.sol:PeeramidLabsDistributor",
        "label": "versionRequirements",
        "offset": 0,
        "slot": "5",
        "type": "t_mapping(t_bytes32,t_struct(VersionRequirement)18754_storage)"
      },
      {
        "astId": 15858,
        "contract": "src/distributors/PeeramidLabsDistributor.sol:PeeramidLabsDistributor",
        "label": "instanceVersions",
        "offset": 0,
        "slot": "6",
        "type": "t_mapping(t_uint256,t_struct(Version)18738_storage)"
      },
      {
        "astId": 15860,
        "contract": "src/distributors/PeeramidLabsDistributor.sol:PeeramidLabsDistributor",
        "label": "numInstances",
        "offset": 0,
        "slot": "7",
        "type": "t_uint256"
      },
      {
        "astId": 3962,
        "contract": "src/distributors/PeeramidLabsDistributor.sol:PeeramidLabsDistributor",
        "label": "_roles",
        "offset": 0,
        "slot": "8",
        "type": "t_mapping(t_bytes32,t_struct(RoleData)3957_storage)"
      },
      {
        "astId": 4484,
        "contract": "src/distributors/PeeramidLabsDistributor.sol:PeeramidLabsDistributor",
        "label": "_pendingDefaultAdmin",
        "offset": 0,
        "slot": "9",
        "type": "t_address"
      },
      {
        "astId": 4486,
        "contract": "src/distributors/PeeramidLabsDistributor.sol:PeeramidLabsDistributor",
        "label": "_pendingDefaultAdminSchedule",
        "offset": 20,
        "slot": "9",
        "type": "t_uint48"
      },
      {
        "astId": 4488,
        "contract": "src/distributors/PeeramidLabsDistributor.sol:PeeramidLabsDistributor",
        "label": "_currentDelay",
        "offset": 26,
        "slot": "9",
        "type": "t_uint48"
      },
      {
        "astId": 4490,
        "contract": "src/distributors/PeeramidLabsDistributor.sol:PeeramidLabsDistributor",
        "label": "_currentDefaultAdmin",
        "offset": 0,
        "slot": "10",
        "type": "t_address"
      },
      {
        "astId": 4492,
        "contract": "src/distributors/PeeramidLabsDistributor.sol:PeeramidLabsDistributor",
        "label": "_pendingDelay",
        "offset": 20,
        "slot": "10",
        "type": "t_uint48"
      },
      {
        "astId": 4494,
        "contract": "src/distributors/PeeramidLabsDistributor.sol:PeeramidLabsDistributor",
        "label": "_pendingDelaySchedule",
        "offset": 26,
        "slot": "10",
        "type": "t_uint48"
      }
    ],
    "types": {
      "t_address": {
        "encoding": "inplace",
        "label": "address",
        "numberOfBytes": "20"
      },
      "t_array(t_bytes32)dyn_storage": {
        "base": "t_bytes32",
        "encoding": "dynamic_array",
        "label": "bytes32[]",
        "numberOfBytes": "32"
      },
      "t_bool": {
        "encoding": "inplace",
        "label": "bool",
        "numberOfBytes": "1"
      },
      "t_bytes32": {
        "encoding": "inplace",
        "label": "bytes32",
        "numberOfBytes": "32"
      },
      "t_enum(requirements)18747": {
        "encoding": "inplace",
        "label": "enum LibSemver.requirements",
        "numberOfBytes": "1"
      },
      "t_mapping(t_address,t_bool)": {
        "encoding": "mapping",
        "key": "t_address",
        "label": "mapping(address => bool)",
        "numberOfBytes": "32",
        "value": "t_bool"
      },
      "t_mapping(t_address,t_uint256)": {
        "encoding": "mapping",
        "key": "t_address",
        "label": "mapping(address => uint256)",
        "numberOfBytes": "32",
        "value": "t_uint256"
      },
      "t_mapping(t_bytes32,t_struct(DistributionComponent)15824_storage)": {
        "encoding": "mapping",
        "key": "t_bytes32",
        "label": "mapping(bytes32 => struct Distributor.DistributionComponent)",
        "numberOfBytes": "32",
        "value": "t_struct(DistributionComponent)15824_storage"
      },
      "t_mapping(t_bytes32,t_struct(RoleData)3957_storage)": {
        "encoding": "mapping",
        "key": "t_bytes32",
        "label": "mapping(bytes32 => struct AccessControl.RoleData)",
        "numberOfBytes": "32",
        "value": "t_struct(RoleData)3957_storage"
      },
      "t_mapping(t_bytes32,t_struct(VersionRequirement)18754_storage)": {
        "encoding": "mapping",
        "key": "t_bytes32",
        "label": "mapping(bytes32 => struct LibSemver.VersionRequirement)",
        "numberOfBytes": "32",
        "value": "t_struct(VersionRequirement)18754_storage"
      },
      "t_mapping(t_bytes32,t_uint256)": {
        "encoding": "mapping",
        "key": "t_bytes32",
        "label": "mapping(bytes32 => uint256)",
        "numberOfBytes": "32",
        "value": "t_uint256"
      },
      "t_mapping(t_uint256,t_bytes32)": {
        "encoding": "mapping",
        "key": "t_uint256",
        "label": "mapping(uint256 => bytes32)",
        "numberOfBytes": "32",
        "value": "t_bytes32"
      },
      "t_mapping(t_uint256,t_struct(Version)18738_storage)": {
        "encoding": "mapping",
        "key": "t_uint256",
        "label": "mapping(uint256 => struct LibSemver.Version)",
        "numberOfBytes": "32",
        "value": "t_struct(Version)18738_storage"
      },
      "t_struct(Bytes32Set)14936_storage": {
        "encoding": "inplace",
        "label": "struct EnumerableSet.Bytes32Set",
        "members": [
          {
            "astId": 14935,
            "contract": "src/distributors/PeeramidLabsDistributor.sol:PeeramidLabsDistributor",
            "label": "_inner",
            "offset": 0,
            "slot": "0",
            "type": "t_struct(Set)14742_storage"
          }
        ],
        "numberOfBytes": "64"
      },
      "t_struct(DistributionComponent)15824_storage": {
        "encoding": "inplace",
        "label": "struct Distributor.DistributionComponent",
        "members": [
          {
            "astId": 15821,
            "contract": "src/distributors/PeeramidLabsDistributor.sol:PeeramidLabsDistributor",
            "label": "distributionLocation",
            "offset": 0,
            "slot": "0",
            "type": "t_address"
          },
          {
            "astId": 15823,
            "contract": "src/distributors/PeeramidLabsDistributor.sol:PeeramidLabsDistributor",
            "label": "initializer",
            "offset": 0,
            "slot": "1",
            "type": "t_address"
          }
        ],
        "numberOfBytes": "64"
      },
      "t_struct(RoleData)3957_storage": {
        "encoding": "inplace",
        "label": "struct AccessControl.RoleData",
        "members": [
          {
            "astId": 3954,
            "contract": "src/distributors/PeeramidLabsDistributor.sol:PeeramidLabsDistributor",
            "label": "hasRole",
            "offset": 0,
            "slot": "0",
            "type": "t_mapping(t_address,t_bool)"
          },
          {
            "astId": 3956,
            "contract": "src/distributors/PeeramidLabsDistributor.sol:PeeramidLabsDistributor",
            "label": "adminRole",
            "offset": 0,
            "slot": "1",
            "type": "t_bytes32"
          }
        ],
        "numberOfBytes": "64"
      },
      "t_struct(Set)14742_storage": {
        "encoding": "inplace",
        "label": "struct EnumerableSet.Set",
        "members": [
          {
            "astId": 14737,
            "contract": "src/distributors/PeeramidLabsDistributor.sol:PeeramidLabsDistributor",
            "label": "_values",
            "offset": 0,
            "slot": "0",
            "type": "t_array(t_bytes32)dyn_storage"
          },
          {
            "astId": 14741,
            "contract": "src/distributors/PeeramidLabsDistributor.sol:PeeramidLabsDistributor",
            "label": "_positions",
            "offset": 0,
            "slot": "1",
            "type": "t_mapping(t_bytes32,t_uint256)"
          }
        ],
        "numberOfBytes": "64"
      },
      "t_struct(Version)18738_storage": {
        "encoding": "inplace",
        "label": "struct LibSemver.Version",
        "members": [
          {
            "astId": 18733,
            "contract": "src/distributors/PeeramidLabsDistributor.sol:PeeramidLabsDistributor",
            "label": "major",
            "offset": 0,
            "slot": "0",
            "type": "t_uint64"
          },
          {
            "astId": 18735,
            "contract": "src/distributors/PeeramidLabsDistributor.sol:PeeramidLabsDistributor",
            "label": "minor",
            "offset": 8,
            "slot": "0",
            "type": "t_uint64"
          },
          {
            "astId": 18737,
            "contract": "src/distributors/PeeramidLabsDistributor.sol:PeeramidLabsDistributor",
            "label": "patch",
            "offset": 16,
            "slot": "0",
            "type": "t_uint128"
          }
        ],
        "numberOfBytes": "32"
      },
      "t_struct(VersionRequirement)18754_storage": {
        "encoding": "inplace",
        "label": "struct LibSemver.VersionRequirement",
        "members": [
          {
            "astId": 18750,
            "contract": "src/distributors/PeeramidLabsDistributor.sol:PeeramidLabsDistributor",
            "label": "version",
            "offset": 0,
            "slot": "0",
            "type": "t_struct(Version)18738_storage"
          },
          {
            "astId": 18753,
            "contract": "src/distributors/PeeramidLabsDistributor.sol:PeeramidLabsDistributor",
            "label": "requirement",
            "offset": 0,
            "slot": "1",
            "type": "t_enum(requirements)18747"
          }
        ],
        "numberOfBytes": "64"
      },
      "t_uint128": {
        "encoding": "inplace",
        "label": "uint128",
        "numberOfBytes": "16"
      },
      "t_uint256": {
        "encoding": "inplace",
        "label": "uint256",
        "numberOfBytes": "32"
      },
      "t_uint48": {
        "encoding": "inplace",
        "label": "uint48",
        "numberOfBytes": "6"
      },
      "t_uint64": {
        "encoding": "inplace",
        "label": "uint64",
        "numberOfBytes": "8"
      }
    }
  }
}