{
  "address": "0xBe3A3CC7aC2dCB484118b069DC12F8FC97E41299",
  "abi": [
    {
      "inputs": [
        {
          "internalType": "string",
          "name": "uri_",
          "type": "string"
        },
        {
          "internalType": "string",
          "name": "cURI",
          "type": "string"
        },
        {
          "internalType": "address",
          "name": "accessLayer",
          "type": "address"
        }
      ],
      "stateMutability": "nonpayable",
      "type": "constructor"
    },
    {
      "inputs": [
        {
          "internalType": "address",
          "name": "sender",
          "type": "address"
        },
        {
          "internalType": "uint256",
          "name": "balance",
          "type": "uint256"
        },
        {
          "internalType": "uint256",
          "name": "needed",
          "type": "uint256"
        },
        {
          "internalType": "uint256",
          "name": "tokenId",
          "type": "uint256"
        }
      ],
      "name": "ERC1155InsufficientBalance",
      "type": "error"
    },
    {
      "inputs": [
        {
          "internalType": "address",
          "name": "approver",
          "type": "address"
        }
      ],
      "name": "ERC1155InvalidApprover",
      "type": "error"
    },
    {
      "inputs": [
        {
          "internalType": "uint256",
          "name": "idsLength",
          "type": "uint256"
        },
        {
          "internalType": "uint256",
          "name": "valuesLength",
          "type": "uint256"
        }
      ],
      "name": "ERC1155InvalidArrayLength",
      "type": "error"
    },
    {
      "inputs": [
        {
          "internalType": "address",
          "name": "operator",
          "type": "address"
        }
      ],
      "name": "ERC1155InvalidOperator",
      "type": "error"
    },
    {
      "inputs": [
        {
          "internalType": "address",
          "name": "receiver",
          "type": "address"
        }
      ],
      "name": "ERC1155InvalidReceiver",
      "type": "error"
    },
    {
      "inputs": [
        {
          "internalType": "address",
          "name": "sender",
          "type": "address"
        }
      ],
      "name": "ERC1155InvalidSender",
      "type": "error"
    },
    {
      "inputs": [
        {
          "internalType": "address",
          "name": "operator",
          "type": "address"
        },
        {
          "internalType": "address",
          "name": "owner",
          "type": "address"
        }
      ],
      "name": "ERC1155MissingApprovalForAll",
      "type": "error"
    },
    {
      "inputs": [],
      "name": "InvalidInitialization",
      "type": "error"
    },
    {
      "inputs": [],
      "name": "NotInitializing",
      "type": "error"
    },
    {
      "inputs": [
        {
          "internalType": "uint256",
          "name": "id",
          "type": "uint256"
        },
        {
          "internalType": "uint256",
          "name": "balance",
          "type": "uint256"
        },
        {
          "internalType": "uint256",
          "name": "required",
          "type": "uint256"
        }
      ],
      "name": "insufficient",
      "type": "error"
    },
    {
      "anonymous": false,
      "inputs": [
        {
          "indexed": true,
          "internalType": "address",
          "name": "account",
          "type": "address"
        },
        {
          "indexed": true,
          "internalType": "address",
          "name": "operator",
          "type": "address"
        },
        {
          "indexed": false,
          "internalType": "bool",
          "name": "approved",
          "type": "bool"
        }
      ],
      "name": "ApprovalForAll",
      "type": "event"
    },
    {
      "anonymous": false,
      "inputs": [
        {
          "indexed": false,
          "internalType": "uint64",
          "name": "version",
          "type": "uint64"
        }
      ],
      "name": "Initialized",
      "type": "event"
    },
    {
      "anonymous": false,
      "inputs": [
        {
          "indexed": true,
          "internalType": "address",
          "name": "newRankingInstance",
          "type": "address"
        }
      ],
      "name": "RankingInstanceUpdated",
      "type": "event"
    },
    {
      "anonymous": false,
      "inputs": [
        {
          "indexed": true,
          "internalType": "address",
          "name": "account",
          "type": "address"
        },
        {
          "indexed": true,
          "internalType": "uint256",
          "name": "id",
          "type": "uint256"
        },
        {
          "indexed": false,
          "internalType": "uint256",
          "name": "value",
          "type": "uint256"
        }
      ],
      "name": "TokensLocked",
      "type": "event"
    },
    {
      "anonymous": false,
      "inputs": [
        {
          "indexed": true,
          "internalType": "address",
          "name": "account",
          "type": "address"
        },
        {
          "indexed": true,
          "internalType": "uint256",
          "name": "id",
          "type": "uint256"
        },
        {
          "indexed": false,
          "internalType": "uint256",
          "name": "value",
          "type": "uint256"
        }
      ],
      "name": "TokensUnlocked",
      "type": "event"
    },
    {
      "anonymous": false,
      "inputs": [
        {
          "indexed": true,
          "internalType": "address",
          "name": "operator",
          "type": "address"
        },
        {
          "indexed": true,
          "internalType": "address",
          "name": "from",
          "type": "address"
        },
        {
          "indexed": true,
          "internalType": "address",
          "name": "to",
          "type": "address"
        },
        {
          "indexed": false,
          "internalType": "uint256[]",
          "name": "ids",
          "type": "uint256[]"
        },
        {
          "indexed": false,
          "internalType": "uint256[]",
          "name": "values",
          "type": "uint256[]"
        }
      ],
      "name": "TransferBatch",
      "type": "event"
    },
    {
      "anonymous": false,
      "inputs": [
        {
          "indexed": true,
          "internalType": "address",
          "name": "operator",
          "type": "address"
        },
        {
          "indexed": true,
          "internalType": "address",
          "name": "from",
          "type": "address"
        },
        {
          "indexed": true,
          "internalType": "address",
          "name": "to",
          "type": "address"
        },
        {
          "indexed": false,
          "internalType": "uint256",
          "name": "id",
          "type": "uint256"
        },
        {
          "indexed": false,
          "internalType": "uint256",
          "name": "value",
          "type": "uint256"
        }
      ],
      "name": "TransferSingle",
      "type": "event"
    },
    {
      "anonymous": false,
      "inputs": [
        {
          "indexed": false,
          "internalType": "string",
          "name": "value",
          "type": "string"
        },
        {
          "indexed": true,
          "internalType": "uint256",
          "name": "id",
          "type": "uint256"
        }
      ],
      "name": "URI",
      "type": "event"
    },
    {
      "inputs": [
        {
          "internalType": "address",
          "name": "account",
          "type": "address"
        },
        {
          "internalType": "uint256",
          "name": "id",
          "type": "uint256"
        }
      ],
      "name": "balanceOf",
      "outputs": [
        {
          "internalType": "uint256",
          "name": "",
          "type": "uint256"
        }
      ],
      "stateMutability": "view",
      "type": "function"
    },
    {
      "inputs": [
        {
          "internalType": "address[]",
          "name": "accounts",
          "type": "address[]"
        },
        {
          "internalType": "uint256[]",
          "name": "ids",
          "type": "uint256[]"
        }
      ],
      "name": "balanceOfBatch",
      "outputs": [
        {
          "internalType": "uint256[]",
          "name": "",
          "type": "uint256[]"
        }
      ],
      "stateMutability": "view",
      "type": "function"
    },
    {
      "inputs": [
        {
          "internalType": "address",
          "name": "to",
          "type": "address"
        },
        {
          "internalType": "uint256[]",
          "name": "ids",
          "type": "uint256[]"
        },
        {
          "internalType": "uint256[]",
          "name": "amounts",
          "type": "uint256[]"
        },
        {
          "internalType": "bytes",
          "name": "data",
          "type": "bytes"
        }
      ],
      "name": "batchMint",
      "outputs": [],
      "stateMutability": "nonpayable",
      "type": "function"
    },
    {
      "inputs": [
        {
          "internalType": "address",
          "name": "account",
          "type": "address"
        },
        {
          "internalType": "uint256",
          "name": "id",
          "type": "uint256"
        },
        {
          "internalType": "uint256",
          "name": "value",
          "type": "uint256"
        }
      ],
      "name": "burn",
      "outputs": [],
      "stateMutability": "nonpayable",
      "type": "function"
    },
    {
      "inputs": [
        {
          "internalType": "address",
          "name": "account",
          "type": "address"
        },
        {
          "internalType": "uint256[]",
          "name": "ids",
          "type": "uint256[]"
        },
        {
          "internalType": "uint256[]",
          "name": "values",
          "type": "uint256[]"
        }
      ],
      "name": "burnBatch",
      "outputs": [],
      "stateMutability": "nonpayable",
      "type": "function"
    },
    {
      "inputs": [],
      "name": "contractURI",
      "outputs": [
        {
          "internalType": "string",
          "name": "",
          "type": "string"
        }
      ],
      "stateMutability": "view",
      "type": "function"
    },
    {
      "inputs": [
        {
          "internalType": "string",
          "name": "uri_",
          "type": "string"
        },
        {
          "internalType": "string",
          "name": "cURI",
          "type": "string"
        },
        {
          "internalType": "address",
          "name": "accessLayer",
          "type": "address"
        }
      ],
      "name": "initialize",
      "outputs": [],
      "stateMutability": "nonpayable",
      "type": "function"
    },
    {
      "inputs": [
        {
          "internalType": "address",
          "name": "account",
          "type": "address"
        },
        {
          "internalType": "address",
          "name": "operator",
          "type": "address"
        }
      ],
      "name": "isApprovedForAll",
      "outputs": [
        {
          "internalType": "bool",
          "name": "",
          "type": "bool"
        }
      ],
      "stateMutability": "view",
      "type": "function"
    },
    {
      "inputs": [
        {
          "internalType": "address",
          "name": "account",
          "type": "address"
        },
        {
          "internalType": "uint256",
          "name": "id",
          "type": "uint256"
        },
        {
          "internalType": "uint256",
          "name": "amount",
          "type": "uint256"
        }
      ],
      "name": "lock",
      "outputs": [],
      "stateMutability": "nonpayable",
      "type": "function"
    },
    {
      "inputs": [
        {
          "internalType": "address",
          "name": "to",
          "type": "address"
        },
        {
          "internalType": "uint256",
          "name": "amount",
          "type": "uint256"
        },
        {
          "internalType": "uint256",
          "name": "level",
          "type": "uint256"
        },
        {
          "internalType": "bytes",
          "name": "data",
          "type": "bytes"
        }
      ],
      "name": "mint",
      "outputs": [],
      "stateMutability": "nonpayable",
      "type": "function"
    },
    {
      "inputs": [
        {
          "internalType": "address",
          "name": "from",
          "type": "address"
        },
        {
          "internalType": "address",
          "name": "to",
          "type": "address"
        },
        {
          "internalType": "uint256[]",
          "name": "ids",
          "type": "uint256[]"
        },
        {
          "internalType": "uint256[]",
          "name": "values",
          "type": "uint256[]"
        },
        {
          "internalType": "bytes",
          "name": "data",
          "type": "bytes"
        }
      ],
      "name": "safeBatchTransferFrom",
      "outputs": [],
      "stateMutability": "nonpayable",
      "type": "function"
    },
    {
      "inputs": [
        {
          "internalType": "address",
          "name": "from",
          "type": "address"
        },
        {
          "internalType": "address",
          "name": "to",
          "type": "address"
        },
        {
          "internalType": "uint256",
          "name": "id",
          "type": "uint256"
        },
        {
          "internalType": "uint256",
          "name": "value",
          "type": "uint256"
        },
        {
          "internalType": "bytes",
          "name": "data",
          "type": "bytes"
        }
      ],
      "name": "safeTransferFrom",
      "outputs": [],
      "stateMutability": "nonpayable",
      "type": "function"
    },
    {
      "inputs": [
        {
          "internalType": "address",
          "name": "operator",
          "type": "address"
        },
        {
          "internalType": "bool",
          "name": "approved",
          "type": "bool"
        }
      ],
      "name": "setApprovalForAll",
      "outputs": [],
      "stateMutability": "nonpayable",
      "type": "function"
    },
    {
      "inputs": [
        {
          "internalType": "string",
          "name": "uri_",
          "type": "string"
        }
      ],
      "name": "setContractURI",
      "outputs": [],
      "stateMutability": "nonpayable",
      "type": "function"
    },
    {
      "inputs": [
        {
          "internalType": "string",
          "name": "uri_",
          "type": "string"
        }
      ],
      "name": "setURI",
      "outputs": [],
      "stateMutability": "nonpayable",
      "type": "function"
    },
    {
      "inputs": [
        {
          "internalType": "bytes4",
          "name": "interfaceId",
          "type": "bytes4"
        }
      ],
      "name": "supportsInterface",
      "outputs": [
        {
          "internalType": "bool",
          "name": "",
          "type": "bool"
        }
      ],
      "stateMutability": "view",
      "type": "function"
    },
    {
      "inputs": [
        {
          "internalType": "address",
          "name": "account",
          "type": "address"
        },
        {
          "internalType": "uint256",
          "name": "id",
          "type": "uint256"
        },
        {
          "internalType": "uint256",
          "name": "amount",
          "type": "uint256"
        }
      ],
      "name": "unlock",
      "outputs": [],
      "stateMutability": "nonpayable",
      "type": "function"
    },
    {
      "inputs": [
        {
          "internalType": "address",
          "name": "account",
          "type": "address"
        },
        {
          "internalType": "uint256",
          "name": "id",
          "type": "uint256"
        }
      ],
      "name": "unlockedBalanceOf",
      "outputs": [
        {
          "internalType": "uint256",
          "name": "",
          "type": "uint256"
        }
      ],
      "stateMutability": "view",
      "type": "function"
    },
    {
      "inputs": [
        {
          "internalType": "uint256",
          "name": "",
          "type": "uint256"
        }
      ],
      "name": "uri",
      "outputs": [
        {
          "internalType": "string",
          "name": "",
          "type": "string"
        }
      ],
      "stateMutability": "view",
      "type": "function"
    }
  ],
  "transactionHash": "0xa9e60713b2c6fc3b033629066d475f7a0606b975e9053c37561c99266fb15043",
  "args": [
    "https://assets.vote4best.app/rank",
    "https://assets.vote4best.app/musicRankToken.json",
    "0x0000000000000000000000000000000000000000"
  ],
  "numDeployments": 1,
  "solcInputHash": "8ca306f60a6528f95ce0da03c9e56451",
  "bytecode": "0x608060405234801561001057600080fd5b506040516132d23803806132d283398101604081905261002f91610415565b61003a838383610042565b5050506105f5565b7ff0c57e16840df040f15088dc2f81fe391c3923bec73e23a9662efc9c229c6a00805468010000000000000000810460ff1615906001600160401b031660008115801561008c5750825b90506000826001600160401b031660011480156100a85750303b155b9050811580156100b6575080155b156100d45760405163f92ee8a960e01b815260040160405180910390fd5b84546001600160401b0319166001178555831561010257845460ff60401b1916680100000000000000001785555b61010b8861021d565b7fabb1a8240a51bc1a396d93f585b28abbeb62208a7cb4238eab6b9a656a02af266101368882610521565b50604080516001808252818301909252600091816020015b60408051808201909152600081526060602082015281526020019060019003908161014e5790505090506040518060400160405280886001600160a01b0316815260200160405180602001604052806000815250815250816000815181106101b8576101b86105df565b60209081029190910101526101cc8161026e565b50831561021357845460ff60401b19168555604051600181527fc7f505b2f371ae2175ee4913f4499e1f2633a7b5936321eed1cdaeb6115181d29060200160405180910390a15b5050505050505050565b7f88be536d5240c274a3b1d3a1be54482fd9caa294f08c62a7cde569f49a3c45007f88be536d5240c274a3b1d3a1be54482fd9caa294f08c62a7cde569f49a3c45026102698382610521565b505050565b805160005b81811015610269576102a3838281518110610290576102906105df565b60200260200101516102ab60201b60201c565b600101610273565b7f650fcebb359486b662eb1b0aa6a1d52f283f87f1ffcacdfb2b58744a08e075ae8054600181018255600082905282517fda2a52c55025b17bec7d5eef42765efcfebc5e19591a1b3d775cf38f4689f236600290920291820180546001600160a01b0319166001600160a01b03909216919091178155602084015184927fda2a52c55025b17bec7d5eef42765efcfebc5e19591a1b3d775cf38f4689f23701906103559082610521565b5050505050565b634e487b7160e01b600052604160045260246000fd5b600082601f83011261038357600080fd5b81516001600160401b0381111561039c5761039c61035c565b604051601f8201601f19908116603f011681016001600160401b03811182821017156103ca576103ca61035c565b6040528181528382016020018510156103e257600080fd5b60005b82811015610401576020818601810151838301820152016103e5565b506000918101602001919091529392505050565b60008060006060848603121561042a57600080fd5b83516001600160401b0381111561044057600080fd5b61044c86828701610372565b602086015190945090506001600160401b0381111561046a57600080fd5b61047686828701610372565b604086015190935090506001600160a01b038116811461049557600080fd5b809150509250925092565b600181811c908216806104b457607f821691505b6020821081036104d457634e487b7160e01b600052602260045260246000fd5b50919050565b601f82111561026957806000526020600020601f840160051c810160208510156105015750805b601f840160051c820191505b81811015610355576000815560010161050d565b81516001600160401b0381111561053a5761053a61035c565b61054e8161054884546104a0565b846104da565b6020601f821160018114610582576000831561056a5750848201515b600019600385901b1c1916600184901b178455610355565b600084815260208120601f198516915b828110156105b25787850151825560209485019460019092019101610592565b50848210156105d05786840151600019600387901b60f8161c191681555b50505050600190811b01905550565b634e487b7160e01b600052603260045260246000fd5b612cce806106046000396000f3fe608060405234801561001057600080fd5b50600436106101505760003560e01c8063731133e9116100cd578063e2ab691d11610081578063e985e9c511610066578063e985e9c5146102b9578063f242432a14610314578063f5298aca1461032757600080fd5b8063e2ab691d1461029e578063e8a3d485146102b157600080fd5b8063a22cb465116100b2578063a22cb46514610265578063b48ab8b614610278578063b5674c681461028b57600080fd5b8063731133e91461023f578063938e3d7b1461025257600080fd5b80630e89341c11610124578063468b3b3311610109578063468b3b33146101f95780634e1273f41461020c5780636b20c4541461022c57600080fd5b80630e89341c146101c65780632eb2c2d6146101e657600080fd5b8062fdd58e1461015557806301ffc9a71461017b57806302fe53051461019e578063077f224a146101b3575b600080fd5b610168610163366004612146565b61033a565b6040519081526020015b60405180910390f35b61018e610189366004612189565b610383565b6040519015158152602001610172565b6101b16101ac366004612275565b6103c1565b005b6101b16101c13660046122aa565b610404565b6101d96101d4366004612323565b61061c565b604051610172919061238c565b6101b16101f436600461242b565b6106f3565b610168610207366004612146565b61079d565b61021f61021a3660046124e1565b6107fc565b60405161017291906125e6565b6101b161023a3660046125f9565b6108e2565b6101b161024d366004612672565b610982565b6101b1610260366004612275565b6109cb565b6101b16102733660046126d3565b610a28565b6101b161028636600461270f565b610a37565b6101b161029936600461279c565b610ba2565b6101b16102ac36600461279c565b610be9565b6101d9610c17565b61018e6102c73660046127cf565b6001600160a01b0391821660009081527f88be536d5240c274a3b1d3a1be54482fd9caa294f08c62a7cde569f49a3c45016020908152604080832093909416825291909152205460ff1690565b6101b1610322366004612802565b610cc8565b6101b161033536600461279c565b610d65565b60008181527f88be536d5240c274a3b1d3a1be54482fd9caa294f08c62a7cde569f49a3c4500602090815260408083206001600160a01b03861684529091529020545b92915050565b60006001600160e01b031982167fc79b8b5f00000000000000000000000000000000000000000000000000000000148061037d575061037d82610d93565b6000356001600160e01b031916336000366000806103e28686868686610e2e565b90506103ed87610f46565b6103fb868686868686610f92565b50505050505050565b7ff0c57e16840df040f15088dc2f81fe391c3923bec73e23a9662efc9c229c6a00805468010000000000000000810460ff16159067ffffffffffffffff1660008115801561044f5750825b905060008267ffffffffffffffff16600114801561046c5750303b155b90508115801561047a575080155b156104b1576040517ff92ee8a900000000000000000000000000000000000000000000000000000000815260040160405180910390fd5b84547fffffffffffffffffffffffffffffffffffffffffffffffff000000000000000016600117855583156104fc57845468ff00000000000000001916680100000000000000001785555b61050588610f46565b7fabb1a8240a51bc1a396d93f585b28abbeb62208a7cb4238eab6b9a656a02af2661053088826128dc565b50604080516001808252818301909252600091816020015b6040805180820190915260008152606060208201528152602001906001900390816105485790505090506040518060400160405280886001600160a01b0316815260200160405180602001604052806000815250815250816000815181106105b2576105b261299b565b60200260200101819052506105c681611024565b50831561061257845468ff000000000000000019168555604051600181527fc7f505b2f371ae2175ee4913f4499e1f2633a7b5936321eed1cdaeb6115181d29060200160405180910390a15b5050505050505050565b7f88be536d5240c274a3b1d3a1be54482fd9caa294f08c62a7cde569f49a3c450280546060917f88be536d5240c274a3b1d3a1be54482fd9caa294f08c62a7cde569f49a3c45009161066d9061285b565b80601f01602080910402602001604051908101604052809291908181526020018280546106999061285b565b80156106e65780601f106106bb576101008083540402835291602001916106e6565b820191906000526020600020905b8154815290600101906020018083116106c957829003601f168201915b5050505050915050919050565b336001600160a01b038616811480159061075257506001600160a01b0380871660009081527f88be536d5240c274a3b1d3a1be54482fd9caa294f08c62a7cde569f49a3c4501602090815260408083209385168352929052205460ff16155b156107885760405163711bec9160e11b81526001600160a01b038083166004830152871660248201526044015b60405180910390fd5b610795868686868661105b565b505050505050565b6001600160a01b03821660009081527fabb1a8240a51bc1a396d93f585b28abbeb62208a7cb4238eab6b9a656a02af26602081815260408084208585529091528220546107ea858561033a565b6107f491906129c7565b949350505050565b6060815183511461084657815183516040517f5b0599910000000000000000000000000000000000000000000000000000000081526004810192909252602482015260440161077f565b6000835167ffffffffffffffff811115610862576108626121ad565b60405190808252806020026020018201604052801561088b578160200160208202803683370190505b50905060005b84518110156108da576020808202860101516108b59060208084028701015161033a565b8282815181106108c7576108c761299b565b6020908102919091010152600101610891565b509392505050565b6001600160a01b038316331480159061093e57506001600160a01b03831660009081527f88be536d5240c274a3b1d3a1be54482fd9caa294f08c62a7cde569f49a3c45016020908152604080832033845290915290205460ff16155b1561097257335b60405163711bec9160e11b81526001600160a01b039182166004820152908416602482015260440161077f565b61097d8383836110c2565b505050565b6000356001600160e01b031916336000366000806109a38686868686610e2e565b90506109b18a8a8a8a611108565b6109bf868686868686610f92565b50505050505050505050565b6000356001600160e01b031916336000366000806109ec8686868686610e2e565b90507fabb1a8240a51bc1a396d93f585b28abbeb62208a7cb4238eab6b9a656a02af26610a1988826128dc565b506103fb868686868686610f92565b610a33338383611254565b5050565b6000356001600160e01b03191633600036600080610a588686868686610e2e565b90506001600160a01b038a16610abf5760405162461bcd60e51b815260206004820152602660248201527f52616e6b546f6b656e2d3e6d696e743a2041646472657373206e6f742073706560448201526518da599a595960d21b606482015260840161077f565b8751600003610b365760405162461bcd60e51b815260206004820152602560248201527f52616e6b546f6b656e2d3e6d696e743a20616d6f756e74206e6f74207370656360448201527f6966696564000000000000000000000000000000000000000000000000000000606482015260840161077f565b8851600003610b965760405162461bcd60e51b815260206004820152602660248201527f52616e6b546f6b656e2d3e6d696e743a20706f6f6c206964206e6f742073706560448201526518da599a595960d21b606482015260840161077f565b6109b18a8a8a8a611329565b6000356001600160e01b03191633600036600080610bc38686868686610e2e565b9050610bd0898989611361565b610bde868686868686610f92565b505050505050505050565b6000356001600160e01b03191633600036600080610c0a8686868686610e2e565b9050610bd089898961146d565b60607fabb1a8240a51bc1a396d93f585b28abbeb62208a7cb4238eab6b9a656a02af268054610c459061285b565b80601f0160208091040260200160405190810160405280929190818152602001828054610c719061285b565b8015610cbe5780601f10610c9357610100808354040283529160200191610cbe565b820191906000526020600020905b815481529060010190602001808311610ca157829003601f168201915b5050505050905090565b336001600160a01b0386168114801590610d2757506001600160a01b0380871660009081527f88be536d5240c274a3b1d3a1be54482fd9caa294f08c62a7cde569f49a3c4501602090815260408083209385168352929052205460ff16155b15610d585760405163711bec9160e11b81526001600160a01b0380831660048301528716602482015260440161077f565b610795868686868661158d565b6000356001600160e01b03191633600036600080610d868686868686610e2e565b9050610bd0898989611612565b60006001600160e01b031982167fd9b67a26000000000000000000000000000000000000000000000000000000001480610df657506001600160e01b031982167f0e89341c00000000000000000000000000000000000000000000000000000000145b8061037d57507f01ffc9a7000000000000000000000000000000000000000000000000000000006001600160e01b031983161461037d565b7f650fcebb359486b662eb1b0aa6a1d52f283f87f1ffcacdfb2b58744a08e075ae80546060919060008167ffffffffffffffff811115610e7057610e706121ad565b604051908082528060200260200182016040528015610ea357816020015b6060815260200190600190039081610e8e5790505b50905060005b82811015610f3957610f14848281548110610ec657610ec661299b565b90600052602060002090600202018b8b8b8b8080601f0160208091040260200160405190810160405280939291908181526020018383808284376000920191909152508d92506116fc915050565b828281518110610f2657610f2661299b565b6020908102919091010152600101610ea9565b5098975050505050505050565b7f88be536d5240c274a3b1d3a1be54482fd9caa294f08c62a7cde569f49a3c45007f88be536d5240c274a3b1d3a1be54482fd9caa294f08c62a7cde569f49a3c450261097d83826128dc565b7f650fcebb359486b662eb1b0aa6a1d52f283f87f1ffcacdfb2b58744a08e075ae805460005b81811015610bde5761101c8382610fd06001866129c7565b610fda91906129c7565b81548110610fea57610fea61299b565b90600052602060002090600202018a8a8a8a8a8a888151811061100f5761100f61299b565b60200260200101516117a7565b600101610fb8565b805160005b8181101561097d576110538382815181106110465761104661299b565b6020026020010151611839565b600101611029565b6001600160a01b03841661108557604051632bfa23e760e11b81526000600482015260240161077f565b6001600160a01b0385166110ae57604051626a0d4560e21b81526000600482015260240161077f565b6110bb85858585856118fb565b5050505050565b6001600160a01b0383166110eb57604051626a0d4560e21b81526000600482015260240161077f565b61097d8360008484604051806020016040528060008152506118fb565b6001600160a01b03841661116d5760405162461bcd60e51b815260206004820152602660248201527f52616e6b546f6b656e2d3e6d696e743a2041646472657373206e6f742073706560448201526518da599a595960d21b606482015260840161077f565b826000036111e35760405162461bcd60e51b815260206004820152602560248201527f52616e6b546f6b656e2d3e6d696e743a20616d6f756e74206e6f74207370656360448201527f6966696564000000000000000000000000000000000000000000000000000000606482015260840161077f565b816000036112425760405162461bcd60e51b815260206004820152602660248201527f52616e6b546f6b656e2d3e6d696e743a20706f6f6c206964206e6f742073706560448201526518da599a595960d21b606482015260840161077f565b61124e8483858461194e565b50505050565b7f88be536d5240c274a3b1d3a1be54482fd9caa294f08c62a7cde569f49a3c45006001600160a01b0383166112b8576040517fced3e1000000000000000000000000000000000000000000000000000000000081526000600482015260240161077f565b6001600160a01b038481166000818152600184016020908152604080832094881680845294825291829020805460ff191687151590811790915591519182527f17307eab39ab6107e8899845ad3d59bd9653f200f220920489ca2b5937696c3191015b60405180910390a350505050565b6001600160a01b03841661135357604051632bfa23e760e11b81526000600482015260240161077f565b61124e6000858585856118fb565b6001600160a01b03831660009081527fabb1a8240a51bc1a396d93f585b28abbeb62208a7cb4238eab6b9a656a02af2660208181526040808420868552909152909120548211156113fa576001600160a01b038416600090815260208281526040808320868452909152908190205490516331303bbb60e01b81526004810185905260248101919091526044810183905260640161077f565b6001600160a01b0384166000908152602082815260408083208684529091528120805484929061142b9084906129c7565b909155505060405182815283906001600160a01b038616907f89882ad382a3742d4db24e4dabc5000c5852aed762904db28442e4e1630a1d079060200161131b565b6001600160a01b03831660009081527fabb1a8240a51bc1a396d93f585b28abbeb62208a7cb4238eab6b9a656a02af2660208181526040808420868552909152909120546114bc9083906129da565b6114c6858561033a565b101561151a576001600160a01b038416600090815260208281526040808320868452909152908190205490516331303bbb60e01b81526004810185905260248101919091526044810183905260640161077f565b6001600160a01b0384166000908152602082815260408083208684529091528120805484929061154b9084906129da565b909155505060405182815283906001600160a01b038616907fd741e738a23fd18a03a26522320d9fc6cac1fed483e215ea9150fbc2fc43385d9060200161131b565b6001600160a01b0384166115b757604051632bfa23e760e11b81526000600482015260240161077f565b6001600160a01b0385166115e057604051626a0d4560e21b81526000600482015260240161077f565b604080516001808252602082018690528183019081526060820185905260808201909252906103fb87878484876118fb565b61161c838361033a565b817fabb1a8240a51bc1a396d93f585b28abbeb62208a7cb4238eab6b9a656a02af266001600160a01b038616600090815260209182526040808220878352909252205461166991906129da565b11156116f1578161167a848461033a565b827fabb1a8240a51bc1a396d93f585b28abbeb62208a7cb4238eab6b9a656a02af266001600160a01b03871660009081526020918252604080822088835290925220546116c791906129da565b6040516331303bbb60e01b815260048101939093526024830191909152604482015260640161077f565b61097d8383836119ab565b84546040517f4440d2450000000000000000000000000000000000000000000000000000000081526060916000916001600160a01b0390911690634440d245906117559060018b01908a908a9089908b90600401612a70565b6000604051808303816000875af1158015611774573d6000803e3d6000fd5b505050506040513d6000823e601f3d908101601f1916820160405261179c9190810190612ac6565b979650505050505050565b86546040517fc3e9576a0000000000000000000000000000000000000000000000000000000081526001600160a01b039091169063c3e9576a906117fe9060018b01908a908a9088908b908b908a90600401612b3d565b600060405180830381600087803b15801561181857600080fd5b505af115801561182c573d6000803e3d6000fd5b5050505050505050505050565b7f650fcebb359486b662eb1b0aa6a1d52f283f87f1ffcacdfb2b58744a08e075ae8054600181018255600082905282517fda2a52c55025b17bec7d5eef42765efcfebc5e19591a1b3d775cf38f4689f236600290920291820180547fffffffffffffffffffffffff0000000000000000000000000000000000000000166001600160a01b03909216919091178155602084015184927fda2a52c55025b17bec7d5eef42765efcfebc5e19591a1b3d775cf38f4689f23701906110bb90826128dc565b61190785858585611a1d565b6001600160a01b038416156110bb57825133906001036119405760208481015190840151611939838989858589611a29565b5050610795565b610795818787878787611b7f565b6001600160a01b03841661197857604051632bfa23e760e11b81526000600482015260240161077f565b604080516001808252602082018690528183019081526060820185905260808201909252906107956000878484876118fb565b6001600160a01b0383163314801590611a0757506001600160a01b03831660009081527f88be536d5240c274a3b1d3a1be54482fd9caa294f08c62a7cde569f49a3c45016020908152604080832033845290915290205460ff16155b15611a125733610945565b61097d838383611c9a565b61124e84848484611d02565b6001600160a01b0384163b15610795576040517ff23a6e610000000000000000000000000000000000000000000000000000000081526001600160a01b0385169063f23a6e6190611a869089908990889088908890600401612bc2565b6020604051808303816000875af1925050508015611ac1575060408051601f3d908101601f19168201909252611abe91810190612bff565b60015b611b2a573d808015611aef576040519150601f19603f3d011682016040523d82523d6000602084013e611af4565b606091505b508051600003611b2257604051632bfa23e760e11b81526001600160a01b038616600482015260240161077f565b805181602001fd5b6001600160e01b031981167ff23a6e6100000000000000000000000000000000000000000000000000000000146103fb57604051632bfa23e760e11b81526001600160a01b038616600482015260240161077f565b6001600160a01b0384163b15610795576040517fbc197c810000000000000000000000000000000000000000000000000000000081526001600160a01b0385169063bc197c8190611bdc9089908990889088908890600401612c1c565b6020604051808303816000875af1925050508015611c17575060408051601f3d908101601f19168201909252611c1491810190612bff565b60015b611c45573d808015611aef576040519150601f19603f3d011682016040523d82523d6000602084013e611af4565b6001600160e01b031981167fbc197c8100000000000000000000000000000000000000000000000000000000146103fb57604051632bfa23e760e11b81526001600160a01b038616600482015260240161077f565b6001600160a01b038316611cc357604051626a0d4560e21b81526000600482015260240161077f565b604080516001808252602082018590528183019081526060820184905260a082019092526000608082018181529192916110bb918791859085906118fb565b60005b8251811015611eb6576001600160a01b03851615611eae57611d4085848381518110611d3357611d3361299b565b602002602001015161033a565b828281518110611d5257611d5261299b565b6020026020010151611d817fabb1a8240a51bc1a396d93f585b28abbeb62208a7cb4238eab6b9a656a02af2690565b6000016000886001600160a01b03166001600160a01b031681526020019081526020016000206000868581518110611dbb57611dbb61299b565b6020026020010151815260200190815260200160002054611ddc91906129da565b1115611eae57828181518110611df457611df461299b565b6020026020010151611e1286858481518110611d3357611d3361299b565b838381518110611e2457611e2461299b565b6020026020010151611e537fabb1a8240a51bc1a396d93f585b28abbeb62208a7cb4238eab6b9a656a02af2690565b6000016000896001600160a01b03166001600160a01b031681526020019081526020016000206000878681518110611e8d57611e8d61299b565b60200260200101518152602001908152602001600020546116c791906129da565b600101611d05565b5061124e8484848460007f88be536d5240c274a3b1d3a1be54482fd9caa294f08c62a7cde569f49a3c450090508151835114611f2b57825182516040517f5b0599910000000000000000000000000000000000000000000000000000000081526004810192909252602482015260440161077f565b3360005b845181101561204a576020818102868101820151908601909101516001600160a01b03891615611ffb576000828152602086815260408083206001600160a01b038d16845290915290205481811015611fd4576040517f03dee4c50000000000000000000000000000000000000000000000000000000081526001600160a01b038b16600482015260248101829052604481018390526064810184905260840161077f565b6000838152602087815260408083206001600160a01b038e16845290915290209082900390555b6001600160a01b03881615612040576000828152602086815260408083206001600160a01b038c1684529091528120805483929061203a9084906129da565b90915550505b5050600101611f2f565b5083516001036120cb5760208401516000906020850151909150866001600160a01b0316886001600160a01b0316846001600160a01b03167fc3d58168c5ae7397731d063d5bbf3d657854427343f4c083240f7aacaa2d0f6285856040516120bc929190918252602082015260400190565b60405180910390a45050610795565b846001600160a01b0316866001600160a01b0316826001600160a01b03167f4a39dc06d4c0dbc64b70af90fd698a233a518aa5d07e595d983b8c0526c8f7fb878760405161211a929190612c73565b60405180910390a4505050505050565b80356001600160a01b038116811461214157600080fd5b919050565b6000806040838503121561215957600080fd5b6121628361212a565b946020939093013593505050565b6001600160e01b03198116811461218657600080fd5b50565b60006020828403121561219b57600080fd5b81356121a681612170565b9392505050565b634e487b7160e01b600052604160045260246000fd5b604051601f8201601f1916810167ffffffffffffffff811182821017156121ec576121ec6121ad565b604052919050565b600067ffffffffffffffff82111561220e5761220e6121ad565b50601f01601f191660200190565b600082601f83011261222d57600080fd5b8135602083016000612246612241846121f4565b6121c3565b905082815285838301111561225a57600080fd5b82826020830137600092810160200192909252509392505050565b60006020828403121561228757600080fd5b813567ffffffffffffffff81111561229e57600080fd5b6107f48482850161221c565b6000806000606084860312156122bf57600080fd5b833567ffffffffffffffff8111156122d657600080fd5b6122e28682870161221c565b935050602084013567ffffffffffffffff8111156122ff57600080fd5b61230b8682870161221c565b92505061231a6040850161212a565b90509250925092565b60006020828403121561233557600080fd5b5035919050565b60005b8381101561235757818101518382015260200161233f565b50506000910152565b6000815180845261237881602086016020860161233c565b601f01601f19169290920160200192915050565b6020815260006121a66020830184612360565b600067ffffffffffffffff8211156123b9576123b96121ad565b5060051b60200190565b600082601f8301126123d457600080fd5b81356123e26122418261239f565b8082825260208201915060208360051b86010192508583111561240457600080fd5b602085015b83811015612421578035835260209283019201612409565b5095945050505050565b600080600080600060a0868803121561244357600080fd5b61244c8661212a565b945061245a6020870161212a565b9350604086013567ffffffffffffffff81111561247657600080fd5b612482888289016123c3565b935050606086013567ffffffffffffffff81111561249f57600080fd5b6124ab888289016123c3565b925050608086013567ffffffffffffffff8111156124c857600080fd5b6124d48882890161221c565b9150509295509295909350565b600080604083850312156124f457600080fd5b823567ffffffffffffffff81111561250b57600080fd5b8301601f8101851361251c57600080fd5b803561252a6122418261239f565b8082825260208201915060208360051b85010192508783111561254c57600080fd5b6020840193505b82841015612575576125648461212a565b825260209384019390910190612553565b9450505050602083013567ffffffffffffffff81111561259457600080fd5b6125a0858286016123c3565b9150509250929050565b600081518084526020840193506020830160005b828110156125dc5781518652602095860195909101906001016125be565b5093949350505050565b6020815260006121a660208301846125aa565b60008060006060848603121561260e57600080fd5b6126178461212a565b9250602084013567ffffffffffffffff81111561263357600080fd5b61263f868287016123c3565b925050604084013567ffffffffffffffff81111561265c57600080fd5b612668868287016123c3565b9150509250925092565b6000806000806080858703121561268857600080fd5b6126918561212a565b93506020850135925060408501359150606085013567ffffffffffffffff8111156126bb57600080fd5b6126c78782880161221c565b91505092959194509250565b600080604083850312156126e657600080fd5b6126ef8361212a565b91506020830135801515811461270457600080fd5b809150509250929050565b6000806000806080858703121561272557600080fd5b61272e8561212a565b9350602085013567ffffffffffffffff81111561274a57600080fd5b612756878288016123c3565b935050604085013567ffffffffffffffff81111561277357600080fd5b61277f878288016123c3565b925050606085013567ffffffffffffffff8111156126bb57600080fd5b6000806000606084860312156127b157600080fd5b6127ba8461212a565b95602085013595506040909401359392505050565b600080604083850312156127e257600080fd5b6127eb8361212a565b91506127f96020840161212a565b90509250929050565b600080600080600060a0868803121561281a57600080fd5b6128238661212a565b94506128316020870161212a565b93506040860135925060608601359150608086013567ffffffffffffffff8111156124c857600080fd5b600181811c9082168061286f57607f821691505b60208210810361288f57634e487b7160e01b600052602260045260246000fd5b50919050565b601f82111561097d57806000526020600020601f840160051c810160208510156128bc5750805b601f840160051c820191505b818110156110bb57600081556001016128c8565b815167ffffffffffffffff8111156128f6576128f66121ad565b61290a81612904845461285b565b84612895565b6020601f82116001811461293e57600083156129265750848201515b600019600385901b1c1916600184901b1784556110bb565b600084815260208120601f198516915b8281101561296e578785015182556020948501946001909201910161294e565b508482101561298c5786840151600019600387901b60f8161c191681555b50505050600190811b01905550565b634e487b7160e01b600052603260045260246000fd5b634e487b7160e01b600052601160045260246000fd5b8181038181111561037d5761037d6129b1565b8082018082111561037d5761037d6129b1565b600081546129fa8161285b565b808552600182168015612a145760018114612a3057612a67565b60ff1983166020870152602082151560051b8701019350612a67565b84600052602060002060005b83811015612a5e5781546020828a010152600182019150602081019050612a3c565b87016020019450505b50505092915050565b60a081526000612a8360a08301886129ed565b6001600160e01b0319871660208401526001600160a01b03861660408401528460608401528281036080840152612aba8185612360565b98975050505050505050565b600060208284031215612ad857600080fd5b815167ffffffffffffffff811115612aef57600080fd5b8201601f81018413612b0057600080fd5b8051612b0e612241826121f4565b818152856020838501011115612b2357600080fd5b612b3482602083016020860161233c565b95945050505050565b60c081526000612b5060c083018a6129ed565b6001600160e01b0319891660208401526001600160a01b0388166040840152866060840152828103608084015284815284866020830137600060208683010152601f19601f8601168101905060208382030160a0840152612bb46020820185612360565b9a9950505050505050505050565b6001600160a01b03861681526001600160a01b038516602082015283604082015282606082015260a06080820152600061179c60a0830184612360565b600060208284031215612c1157600080fd5b81516121a681612170565b6001600160a01b03861681526001600160a01b038516602082015260a060408201526000612c4d60a08301866125aa565b8281036060840152612c5f81866125aa565b90508281036080840152612aba8185612360565b604081526000612c8660408301856125aa565b8281036020840152612b3481856125aa56fea2646970667358221220b824e53b69bfea5c351219c797dfc613406e6de23f783296187552c665cd198764736f6c634300081c0033",
  "devdoc": {
    "author": "Peersky",
    "errors": {
      "ERC1155InsufficientBalance(address,uint256,uint256,uint256)": [
        {
          "details": "Indicates an error related to the current `balance` of a `sender`. Used in transfers.",
          "params": {
            "balance": "Current balance for the interacting account.",
            "needed": "Minimum amount required to perform a transfer.",
            "sender": "Address whose tokens are being transferred.",
            "tokenId": "Identifier number of a token."
          }
        }
      ],
      "ERC1155InvalidApprover(address)": [
        {
          "details": "Indicates a failure with the `approver` of a token to be approved. Used in approvals.",
          "params": {
            "approver": "Address initiating an approval operation."
          }
        }
      ],
      "ERC1155InvalidArrayLength(uint256,uint256)": [
        {
          "details": "Indicates an array length mismatch between ids and values in a safeBatchTransferFrom operation. Used in batch transfers.",
          "params": {
            "idsLength": "Length of the array of token identifiers",
            "valuesLength": "Length of the array of token amounts"
          }
        }
      ],
      "ERC1155InvalidOperator(address)": [
        {
          "details": "Indicates a failure with the `operator` to be approved. Used in approvals.",
          "params": {
            "operator": "Address that may be allowed to operate on tokens without being their owner."
          }
        }
      ],
      "ERC1155InvalidReceiver(address)": [
        {
          "details": "Indicates a failure with the token `receiver`. Used in transfers.",
          "params": {
            "receiver": "Address to which tokens are being transferred."
          }
        }
      ],
      "ERC1155InvalidSender(address)": [
        {
          "details": "Indicates a failure with the token `sender`. Used in transfers.",
          "params": {
            "sender": "Address whose tokens are being transferred."
          }
        }
      ],
      "ERC1155MissingApprovalForAll(address,address)": [
        {
          "details": "Indicates a failure with the `operator`s approval. Used in transfers.",
          "params": {
            "operator": "Address that may be allowed to operate on tokens without being their owner.",
            "owner": "Address of the current owner of a token."
          }
        }
      ],
      "InvalidInitialization()": [
        {
          "details": "The contract is already initialized."
        }
      ],
      "NotInitializing()": [
        {
          "details": "The contract is not initializing."
        }
      ]
    },
    "events": {
      "ApprovalForAll(address,address,bool)": {
        "details": "Emitted when `account` grants or revokes permission to `operator` to transfer their tokens, according to `approved`."
      },
      "Initialized(uint64)": {
        "details": "Triggered when the contract has been initialized or reinitialized."
      },
      "TransferBatch(address,address,address,uint256[],uint256[])": {
        "details": "Equivalent to multiple {TransferSingle} events, where `operator`, `from` and `to` are the same for all transfers."
      },
      "TransferSingle(address,address,address,uint256,uint256)": {
        "details": "Emitted when `value` amount of tokens of type `id` are transferred from `from` to `to` by `operator`."
      },
      "URI(string,uint256)": {
        "details": "Emitted when the URI for token type `id` changes to `value`, if it is a non-programmatic URI. If an {URI} event was emitted for `id`, the standard https://eips.ethereum.org/EIPS/eip-1155#metadata-extensions[guarantees] that `value` will equal the value returned by {IERC1155MetadataURI-uri}."
      }
    },
    "kind": "dev",
    "methods": {
      "balanceOf(address,uint256)": {
        "details": "See {IERC1155-balanceOf}."
      },
      "balanceOfBatch(address[],uint256[])": {
        "details": "See {IERC1155-balanceOfBatch}. Requirements: - `accounts` and `ids` must have the same length."
      },
      "batchMint(address,uint256[],uint256[],bytes)": {
        "details": "Mints specified amounts of tokens to an account. `to` is the address of the account to mint the tokens to. `ids` is the array of IDs of the tokens to mint. `amounts` is the array of amounts of tokens to mint. `data` is the additional data."
      },
      "isApprovedForAll(address,address)": {
        "details": "See {IERC1155-isApprovedForAll}."
      },
      "safeBatchTransferFrom(address,address,uint256[],uint256[],bytes)": {
        "details": "See {IERC1155-safeBatchTransferFrom}."
      },
      "safeTransferFrom(address,address,uint256,uint256,bytes)": {
        "details": "See {IERC1155-safeTransferFrom}."
      },
      "setApprovalForAll(address,bool)": {
        "details": "See {IERC1155-setApprovalForAll}."
      },
      "unlockedBalanceOf(address,uint256)": {
        "details": "Returns the unlocked balance of a specific ERC1155 token for an account. The unlocked balance is calculated by subtracting the locked amount from the total balance.",
        "params": {
          "account": "The address of the account.",
          "id": "The ID of the ERC1155 token."
        },
        "returns": {
          "_0": "The unlocked balance of the ERC1155 token for the account."
        }
      },
      "uri(uint256)": {
        "details": "See {IERC1155MetadataURI-uri}. This implementation returns the same URI for *all* token types. It relies on the token type ID substitution mechanism https://eips.ethereum.org/EIPS/eip-1155#metadata[defined in the EIP]. Clients calling this function must replace the `\\{id\\}` substring with the actual token type ID."
      }
    },
    "title": "RankToken",
    "version": 1
  },
  "userdoc": {
    "kind": "user",
    "methods": {},
    "notice": "RankToken is a composite ERC1155 token that is used to track user ranks",
    "version": 1
  },
  "storageLayout": {
    "storage": [],
    "types": null
  }
}