{
  "address": "0x231E0B68978ca2015a8c3CaE7AA3cA34dC1700bC",
  "abi": [
    {
      "inputs": [
        {
          "internalType": "string",
          "name": "uri_",
          "type": "string"
        },
        {
          "internalType": "address",
          "name": "owner_",
          "type": "address"
        },
        {
          "internalType": "string",
          "name": "cURI",
          "type": "string"
        },
        {
          "internalType": "uint256",
          "name": "levelUpThreshold",
          "type": "uint256"
        },
        {
          "internalType": "address[]",
          "name": "components",
          "type": "address[]"
        },
        {
          "internalType": "uint256[]",
          "name": "componentWeights",
          "type": "uint256[]"
        }
      ],
      "stateMutability": "nonpayable",
      "type": "constructor"
    },
    {
      "inputs": [
        {
          "internalType": "uint256",
          "name": "id",
          "type": "uint256"
        },
        {
          "internalType": "uint256",
          "name": "balance",
          "type": "uint256"
        },
        {
          "internalType": "uint256",
          "name": "required",
          "type": "uint256"
        }
      ],
      "name": "insufficient",
      "type": "error"
    },
    {
      "anonymous": false,
      "inputs": [
        {
          "indexed": true,
          "internalType": "address",
          "name": "account",
          "type": "address"
        },
        {
          "indexed": true,
          "internalType": "address",
          "name": "operator",
          "type": "address"
        },
        {
          "indexed": false,
          "internalType": "bool",
          "name": "approved",
          "type": "bool"
        }
      ],
      "name": "ApprovalForAll",
      "type": "event"
    },
    {
      "anonymous": false,
      "inputs": [
        {
          "indexed": true,
          "internalType": "address",
          "name": "account",
          "type": "address"
        },
        {
          "indexed": true,
          "internalType": "uint256",
          "name": "rank",
          "type": "uint256"
        }
      ],
      "name": "Leader",
      "type": "event"
    },
    {
      "anonymous": false,
      "inputs": [
        {
          "indexed": true,
          "internalType": "address",
          "name": "account",
          "type": "address"
        },
        {
          "indexed": false,
          "internalType": "uint256",
          "name": "id",
          "type": "uint256"
        }
      ],
      "name": "LevelUp",
      "type": "event"
    },
    {
      "anonymous": false,
      "inputs": [
        {
          "indexed": true,
          "internalType": "address",
          "name": "previousOwner",
          "type": "address"
        },
        {
          "indexed": true,
          "internalType": "address",
          "name": "newOwner",
          "type": "address"
        }
      ],
      "name": "OwnershipTransferred",
      "type": "event"
    },
    {
      "anonymous": false,
      "inputs": [
        {
          "indexed": true,
          "internalType": "address",
          "name": "account",
          "type": "address"
        },
        {
          "indexed": true,
          "internalType": "uint256",
          "name": "rank",
          "type": "uint256"
        }
      ],
      "name": "RankUpdated",
      "type": "event"
    },
    {
      "anonymous": false,
      "inputs": [
        {
          "indexed": true,
          "internalType": "address",
          "name": "newRankingInstance",
          "type": "address"
        }
      ],
      "name": "RankingInstanceUpdated",
      "type": "event"
    },
    {
      "anonymous": false,
      "inputs": [
        {
          "indexed": true,
          "internalType": "address",
          "name": "account",
          "type": "address"
        },
        {
          "indexed": true,
          "internalType": "uint256",
          "name": "id",
          "type": "uint256"
        },
        {
          "indexed": false,
          "internalType": "uint256",
          "name": "value",
          "type": "uint256"
        }
      ],
      "name": "TokensLocked",
      "type": "event"
    },
    {
      "anonymous": false,
      "inputs": [
        {
          "indexed": true,
          "internalType": "address",
          "name": "account",
          "type": "address"
        },
        {
          "indexed": true,
          "internalType": "uint256",
          "name": "id",
          "type": "uint256"
        },
        {
          "indexed": false,
          "internalType": "uint256",
          "name": "value",
          "type": "uint256"
        }
      ],
      "name": "TokensUnlocked",
      "type": "event"
    },
    {
      "anonymous": false,
      "inputs": [
        {
          "indexed": true,
          "internalType": "address",
          "name": "operator",
          "type": "address"
        },
        {
          "indexed": true,
          "internalType": "address",
          "name": "from",
          "type": "address"
        },
        {
          "indexed": true,
          "internalType": "address",
          "name": "to",
          "type": "address"
        },
        {
          "indexed": false,
          "internalType": "uint256[]",
          "name": "ids",
          "type": "uint256[]"
        },
        {
          "indexed": false,
          "internalType": "uint256[]",
          "name": "values",
          "type": "uint256[]"
        }
      ],
      "name": "TransferBatch",
      "type": "event"
    },
    {
      "anonymous": false,
      "inputs": [
        {
          "indexed": true,
          "internalType": "address",
          "name": "operator",
          "type": "address"
        },
        {
          "indexed": true,
          "internalType": "address",
          "name": "from",
          "type": "address"
        },
        {
          "indexed": true,
          "internalType": "address",
          "name": "to",
          "type": "address"
        },
        {
          "indexed": false,
          "internalType": "uint256",
          "name": "id",
          "type": "uint256"
        },
        {
          "indexed": false,
          "internalType": "uint256",
          "name": "value",
          "type": "uint256"
        }
      ],
      "name": "TransferSingle",
      "type": "event"
    },
    {
      "anonymous": false,
      "inputs": [
        {
          "indexed": false,
          "internalType": "string",
          "name": "value",
          "type": "string"
        },
        {
          "indexed": true,
          "internalType": "uint256",
          "name": "id",
          "type": "uint256"
        }
      ],
      "name": "URI",
      "type": "event"
    },
    {
      "inputs": [
        {
          "internalType": "address",
          "name": "account",
          "type": "address"
        },
        {
          "internalType": "uint256",
          "name": "id",
          "type": "uint256"
        }
      ],
      "name": "balanceOf",
      "outputs": [
        {
          "internalType": "uint256",
          "name": "",
          "type": "uint256"
        }
      ],
      "stateMutability": "view",
      "type": "function"
    },
    {
      "inputs": [
        {
          "internalType": "address[]",
          "name": "accounts",
          "type": "address[]"
        },
        {
          "internalType": "uint256[]",
          "name": "ids",
          "type": "uint256[]"
        }
      ],
      "name": "balanceOfBatch",
      "outputs": [
        {
          "internalType": "uint256[]",
          "name": "",
          "type": "uint256[]"
        }
      ],
      "stateMutability": "view",
      "type": "function"
    },
    {
      "inputs": [
        {
          "internalType": "address",
          "name": "to",
          "type": "address"
        },
        {
          "internalType": "uint256[]",
          "name": "ids",
          "type": "uint256[]"
        },
        {
          "internalType": "uint256[]",
          "name": "amounts",
          "type": "uint256[]"
        },
        {
          "internalType": "bytes",
          "name": "data",
          "type": "bytes"
        }
      ],
      "name": "batchMint",
      "outputs": [],
      "stateMutability": "nonpayable",
      "type": "function"
    },
    {
      "inputs": [
        {
          "internalType": "address",
          "name": "account",
          "type": "address"
        },
        {
          "internalType": "uint256",
          "name": "id",
          "type": "uint256"
        },
        {
          "internalType": "uint256",
          "name": "value",
          "type": "uint256"
        }
      ],
      "name": "burn",
      "outputs": [],
      "stateMutability": "nonpayable",
      "type": "function"
    },
    {
      "inputs": [],
      "name": "contractURI",
      "outputs": [
        {
          "internalType": "string",
          "name": "",
          "type": "string"
        }
      ],
      "stateMutability": "view",
      "type": "function"
    },
    {
      "inputs": [
        {
          "internalType": "address",
          "name": "from",
          "type": "address"
        },
        {
          "internalType": "uint256",
          "name": "id",
          "type": "uint256"
        },
        {
          "internalType": "uint256",
          "name": "amount",
          "type": "uint256"
        }
      ],
      "name": "decompose",
      "outputs": [],
      "stateMutability": "nonpayable",
      "type": "function"
    },
    {
      "inputs": [
        {
          "internalType": "address",
          "name": "account",
          "type": "address"
        },
        {
          "internalType": "uint256",
          "name": "oldRank",
          "type": "uint256"
        }
      ],
      "name": "findNewRank",
      "outputs": [
        {
          "internalType": "uint256",
          "name": "",
          "type": "uint256"
        }
      ],
      "stateMutability": "view",
      "type": "function"
    },
    {
      "inputs": [
        {
          "internalType": "address",
          "name": "account",
          "type": "address"
        }
      ],
      "name": "getAccountRank",
      "outputs": [
        {
          "internalType": "uint256",
          "name": "",
          "type": "uint256"
        }
      ],
      "stateMutability": "view",
      "type": "function"
    },
    {
      "inputs": [],
      "name": "getComponents",
      "outputs": [
        {
          "internalType": "address[]",
          "name": "",
          "type": "address[]"
        },
        {
          "internalType": "uint256[]",
          "name": "",
          "type": "uint256[]"
        }
      ],
      "stateMutability": "nonpayable",
      "type": "function"
    },
    {
      "inputs": [],
      "name": "getRankingInstance",
      "outputs": [
        {
          "internalType": "address",
          "name": "",
          "type": "address"
        }
      ],
      "stateMutability": "view",
      "type": "function"
    },
    {
      "inputs": [
        {
          "internalType": "address",
          "name": "account",
          "type": "address"
        },
        {
          "internalType": "address",
          "name": "operator",
          "type": "address"
        }
      ],
      "name": "isApprovedForAll",
      "outputs": [
        {
          "internalType": "bool",
          "name": "",
          "type": "bool"
        }
      ],
      "stateMutability": "view",
      "type": "function"
    },
    {
      "inputs": [
        {
          "internalType": "address",
          "name": "to",
          "type": "address"
        },
        {
          "internalType": "uint256",
          "name": "level",
          "type": "uint256"
        },
        {
          "internalType": "bytes",
          "name": "data",
          "type": "bytes"
        }
      ],
      "name": "levelUp",
      "outputs": [],
      "stateMutability": "nonpayable",
      "type": "function"
    },
    {
      "inputs": [
        {
          "internalType": "address",
          "name": "account",
          "type": "address"
        },
        {
          "internalType": "uint256",
          "name": "id",
          "type": "uint256"
        },
        {
          "internalType": "uint256",
          "name": "amount",
          "type": "uint256"
        }
      ],
      "name": "lock",
      "outputs": [],
      "stateMutability": "nonpayable",
      "type": "function"
    },
    {
      "inputs": [
        {
          "internalType": "address",
          "name": "to",
          "type": "address"
        },
        {
          "internalType": "uint256",
          "name": "amount",
          "type": "uint256"
        },
        {
          "internalType": "uint256",
          "name": "level",
          "type": "uint256"
        },
        {
          "internalType": "bytes",
          "name": "data",
          "type": "bytes"
        }
      ],
      "name": "mint",
      "outputs": [],
      "stateMutability": "nonpayable",
      "type": "function"
    },
    {
      "inputs": [],
      "name": "owner",
      "outputs": [
        {
          "internalType": "address",
          "name": "",
          "type": "address"
        }
      ],
      "stateMutability": "view",
      "type": "function"
    },
    {
      "inputs": [
        {
          "internalType": "address",
          "name": "",
          "type": "address"
        }
      ],
      "name": "rank",
      "outputs": [
        {
          "internalType": "uint256",
          "name": "",
          "type": "uint256"
        }
      ],
      "stateMutability": "view",
      "type": "function"
    },
    {
      "inputs": [],
      "name": "renounceOwnership",
      "outputs": [],
      "stateMutability": "nonpayable",
      "type": "function"
    },
    {
      "inputs": [
        {
          "internalType": "address",
          "name": "from",
          "type": "address"
        },
        {
          "internalType": "address",
          "name": "to",
          "type": "address"
        },
        {
          "internalType": "uint256[]",
          "name": "ids",
          "type": "uint256[]"
        },
        {
          "internalType": "uint256[]",
          "name": "amounts",
          "type": "uint256[]"
        },
        {
          "internalType": "bytes",
          "name": "data",
          "type": "bytes"
        }
      ],
      "name": "safeBatchTransferFrom",
      "outputs": [],
      "stateMutability": "nonpayable",
      "type": "function"
    },
    {
      "inputs": [
        {
          "internalType": "address",
          "name": "from",
          "type": "address"
        },
        {
          "internalType": "address",
          "name": "to",
          "type": "address"
        },
        {
          "internalType": "uint256",
          "name": "id",
          "type": "uint256"
        },
        {
          "internalType": "uint256",
          "name": "amount",
          "type": "uint256"
        },
        {
          "internalType": "bytes",
          "name": "data",
          "type": "bytes"
        }
      ],
      "name": "safeTransferFrom",
      "outputs": [],
      "stateMutability": "nonpayable",
      "type": "function"
    },
    {
      "inputs": [
        {
          "internalType": "address",
          "name": "operator",
          "type": "address"
        },
        {
          "internalType": "bool",
          "name": "approved",
          "type": "bool"
        }
      ],
      "name": "setApprovalForAll",
      "outputs": [],
      "stateMutability": "nonpayable",
      "type": "function"
    },
    {
      "inputs": [
        {
          "internalType": "string",
          "name": "uri_",
          "type": "string"
        }
      ],
      "name": "setContractURI",
      "outputs": [],
      "stateMutability": "nonpayable",
      "type": "function"
    },
    {
      "inputs": [
        {
          "internalType": "string",
          "name": "uri_",
          "type": "string"
        }
      ],
      "name": "setURI",
      "outputs": [],
      "stateMutability": "nonpayable",
      "type": "function"
    },
    {
      "inputs": [
        {
          "internalType": "bytes4",
          "name": "interfaceId",
          "type": "bytes4"
        }
      ],
      "name": "supportsInterface",
      "outputs": [
        {
          "internalType": "bool",
          "name": "",
          "type": "bool"
        }
      ],
      "stateMutability": "view",
      "type": "function"
    },
    {
      "inputs": [],
      "name": "topRank",
      "outputs": [
        {
          "internalType": "uint256",
          "name": "",
          "type": "uint256"
        }
      ],
      "stateMutability": "view",
      "type": "function"
    },
    {
      "inputs": [
        {
          "internalType": "address",
          "name": "newOwner",
          "type": "address"
        }
      ],
      "name": "transferOwnership",
      "outputs": [],
      "stateMutability": "nonpayable",
      "type": "function"
    },
    {
      "inputs": [
        {
          "internalType": "address",
          "name": "account",
          "type": "address"
        },
        {
          "internalType": "uint256",
          "name": "id",
          "type": "uint256"
        },
        {
          "internalType": "uint256",
          "name": "amount",
          "type": "uint256"
        }
      ],
      "name": "unlock",
      "outputs": [],
      "stateMutability": "nonpayable",
      "type": "function"
    },
    {
      "inputs": [
        {
          "internalType": "address",
          "name": "account",
          "type": "address"
        },
        {
          "internalType": "uint256",
          "name": "id",
          "type": "uint256"
        }
      ],
      "name": "unlockedBalanceOf",
      "outputs": [
        {
          "internalType": "uint256",
          "name": "",
          "type": "uint256"
        }
      ],
      "stateMutability": "view",
      "type": "function"
    },
    {
      "inputs": [
        {
          "internalType": "address",
          "name": "newRankingInstance",
          "type": "address"
        }
      ],
      "name": "updateRankingInstance",
      "outputs": [],
      "stateMutability": "nonpayable",
      "type": "function"
    },
    {
      "inputs": [
        {
          "internalType": "uint256",
          "name": "",
          "type": "uint256"
        }
      ],
      "name": "uri",
      "outputs": [
        {
          "internalType": "string",
          "name": "",
          "type": "string"
        }
      ],
      "stateMutability": "view",
      "type": "function"
    }
  ],
  "transactionHash": "0x14c4f1bc3f2dac4919d8b94c43aef626503dd7f9d1032285da6c5bcde9f38b51",
  "args": [
    "https:/assets.vote4best.app/rank",
    "0x6Cf8d74C7875de8C2FfB09228F4bf2A21b25e583",
    "https:/assets.vote4best.app/rankToken.json",
    "3",
    [],
    []
  ],
  "numDeployments": 1,
  "solcInputHash": "bd58975ffd7280b06225c119ff824fc6",
  "bytecode": "0x60806040523480156200001157600080fd5b5060405162003c4138038062003c4183398101604081905262000034916200056d565b85828282620000438162000172565b5080518251146200009b5760405162461bcd60e51b815260206004820152601b60248201527f4172726179206c656e67746873206d75737420626520657175616c000000000060448201526064015b60405180910390fd5b8151620000b0906004906020850190620002b7565b508051620000c690600590602084019062000321565b50505050620000e4620000de6200018460201b60201c565b62000188565b6001600160a01b038516620001475760405162461bcd60e51b815260206004820152602260248201527f6d7573742073706563696679206f776e6572206f662074686520636f6e74726160448201526118dd60f21b606482015260840162000092565b6007620001558582620006d0565b50600b8390556200016685620001da565b5050505050506200079c565b6002620001808282620006d0565b5050565b3390565b600680546001600160a01b038381166001600160a01b0319831681179093556040519116919082907f8be0079c531659141344cd1fd0a4f28419497f9722a3daafe3b4186f6b6457e090600090a35050565b620001e462000259565b6001600160a01b0381166200024b5760405162461bcd60e51b815260206004820152602660248201527f4f776e61626c653a206e6577206f776e657220697320746865207a65726f206160448201526564647265737360d01b606482015260840162000092565b620002568162000188565b50565b6006546001600160a01b03163314620002b55760405162461bcd60e51b815260206004820181905260248201527f4f776e61626c653a2063616c6c6572206973206e6f7420746865206f776e6572604482015260640162000092565b565b8280548282559060005260206000209081019282156200030f579160200282015b828111156200030f57825182546001600160a01b0319166001600160a01b03909116178255602090920191600190910190620002d8565b506200031d9291506200035f565b5090565b8280548282559060005260206000209081019282156200030f579160200282015b828111156200030f57825182559160200191906001019062000342565b5b808211156200031d576000815560010162000360565b634e487b7160e01b600052604160045260246000fd5b604051601f8201601f191681016001600160401b0381118282101715620003b757620003b762000376565b604052919050565b600082601f830112620003d157600080fd5b81516001600160401b03811115620003ed57620003ed62000376565b602062000403601f8301601f191682016200038c565b82815285828487010111156200041857600080fd5b60005b83811015620004385785810183015182820184015282016200041b565b506000928101909101919091529392505050565b80516001600160a01b03811681146200046457600080fd5b919050565b60006001600160401b0382111562000485576200048562000376565b5060051b60200190565b600082601f830112620004a157600080fd5b81516020620004ba620004b48362000469565b6200038c565b82815260059290921b84018101918181019086841115620004da57600080fd5b8286015b848110156200050057620004f2816200044c565b8352918301918301620004de565b509695505050505050565b600082601f8301126200051d57600080fd5b8151602062000530620004b48362000469565b82815260059290921b840181019181810190868411156200055057600080fd5b8286015b8481101562000500578051835291830191830162000554565b60008060008060008060c087890312156200058757600080fd5b86516001600160401b03808211156200059f57600080fd5b620005ad8a838b01620003bf565b9750620005bd60208a016200044c565b96506040890151915080821115620005d457600080fd5b620005e28a838b01620003bf565b95506060890151945060808901519150808211156200060057600080fd5b6200060e8a838b016200048f565b935060a08901519150808211156200062557600080fd5b506200063489828a016200050b565b9150509295509295509295565b600181811c908216806200065657607f821691505b6020821081036200067757634e487b7160e01b600052602260045260246000fd5b50919050565b601f821115620006cb57600081815260208120601f850160051c81016020861015620006a65750805b601f850160051c820191505b81811015620006c757828155600101620006b2565b5050505b505050565b81516001600160401b03811115620006ec57620006ec62000376565b6200070481620006fd845462000641565b846200067d565b602080601f8311600181146200073c5760008415620007235750858301515b600019600386901b1c1916600185901b178555620006c7565b600085815260208120601f198616915b828110156200076d578886015182559484019460019091019084016200074c565b50858210156200078c5787850151600019600388901b60f8161c191681555b5050505050600190811b01905550565b61349580620007ac6000396000f3fe608060405234801561001057600080fd5b50600436106101ce5760003560e01c80638b81c63911610104578063b5674c68116100a2578063f242432a11610071578063f242432a1461041f578063f2fde38b14610432578063f5298aca14610445578063f8f88dc21461045857600080fd5b8063b5674c68146103b5578063e2ab691d146103c8578063e8a3d485146103db578063e985e9c5146103e357600080fd5b806399d50d5d116100de57806399d50d5d14610350578063a22cb46514610366578063a89027f814610379578063b48ab8b6146103a257600080fd5b80638b81c639146103195780638da5cb5b1461032c578063938e3d7b1461033d57600080fd5b80632eb2c2d6116101715780635c87c8f91161014b5780635c87c8f9146102d0578063715018a6146102f5578063731133e9146102fd5780638215eccd1461031057600080fd5b80632eb2c2d61461028a578063468b3b331461029d5780634e1273f4146102b057600080fd5b806302fe5305116101ad57806302fe53051461023157806305917eee146102445780630dbaf77f146102575780630e89341c1461026a57600080fd5b8062fdd58e146101d357806301ffc9a7146101f9578063022b23d51461021c575b600080fd5b6101e66101e13660046129d5565b610478565b6040519081526020015b60405180910390f35b61020c610207366004612a15565b610524565b60405190151581526020016101f0565b61022f61022a366004612a32565b610562565b005b61022f61023f366004612b06565b610663565b61022f610252366004612b57565b610677565b61022f610265366004612b92565b610737565b61027d610278366004612be9565b610806565b6040516101f09190612c48565b61022f610298366004612cf0565b61089a565b6101e66102ab3660046129d5565b61093c565b6102c36102be366004612d9a565b61097b565b6040516101f09190612ea0565b600a546001600160a01b03165b6040516001600160a01b0390911681526020016101f0565b61022f610ab9565b61022f61030b366004612eb3565b610acd565b6101e660095481565b6101e66103273660046129d5565b610b43565b6006546001600160a01b03166102dd565b61022f61034b366004612b06565b610b86565b610358610b9e565b6040516101f0929190612f14565b61022f610374366004612f74565b610c5b565b6101e6610387366004612b57565b6001600160a01b031660009081526008602052604090205490565b61022f6103b0366004612fb0565b610c66565b61022f6103c3366004612a32565b610e12565b61022f6103d6366004612a32565b610e81565b61027d610ef0565b61020c6103f136600461303d565b6001600160a01b03918216600090815260016020908152604080832093909416825291909152205460ff1690565b61022f61042d366004613070565b610f82565b61022f610440366004612b57565b61101d565b61022f610453366004612a32565b6110aa565b6101e6610466366004612b57565b60086020526000908152604090205481565b60006001600160a01b0383166104fb5760405162461bcd60e51b815260206004820152602a60248201527f455243313135353a2061646472657373207a65726f206973206e6f742061207660448201527f616c6964206f776e65720000000000000000000000000000000000000000000060648201526084015b60405180910390fd5b506000818152602081815260408083206001600160a01b03861684529091529020545b92915050565b60006001600160e01b031982167fb0262bf600000000000000000000000000000000000000000000000000000000148061051e575061051e82611143565b60005b6004548110156106525760048181548110610582576105826130d5565b9060005260206000200160009054906101000a90046001600160a01b03166001600160a01b031663b5674c688585600585815481106105c3576105c36130d5565b9060005260206000200154866105d99190613101565b6040516001600160e01b031960e086901b1681526001600160a01b03909316600484015260248301919091526044820152606401600060405180830381600087803b15801561062757600080fd5b505af115801561063b573d6000803e3d6000fd5b50505050808061064a90613118565b915050610565565b5061065e8383836111de565b505050565b61066b6112da565b61067481611334565b50565b61067f6112da565b6001600160a01b0381166106d55760405162461bcd60e51b815260206004820152601d60248201527f6d75737420737065636966792072616e6b696e6720696e7374616e636500000060448201526064016104f2565b600a80547fffffffffffffffffffffffff0000000000000000000000000000000000000000166001600160a01b0383169081179091556040517f6a0707879bc3853a8fcf9dbebe74a41dd8ea34813c262a58f1f99038559d1e2190600090a250565b6001600160a01b0383163314806107585750600a546001600160a01b031633145b6107a45760405162461bcd60e51b815260206004820152601660248201527f6c6576656c55703a204e6f74207065726d69747465640000000000000000000060448201526064016104f2565b6107b18383600b546111de565b6107be8360018484611340565b826001600160a01b03167f91e51c29e7e87a74ad3b8ccba98538970f50a4309242735467f41e27c6b0fbac836040516107f991815260200190565b60405180910390a2505050565b60606002805461081590613132565b80601f016020809104026020016040519081016040528092919081815260200182805461084190613132565b801561088e5780601f106108635761010080835404028352916020019161088e565b820191906000526020600020905b81548152906001019060200180831161087157829003601f168201915b50505050509050919050565b6001600160a01b0385163314806108b657506108b685336103f1565b6109285760405162461bcd60e51b815260206004820152602e60248201527f455243313135353a2063616c6c6572206973206e6f7420746f6b656e206f776e60448201527f6572206f7220617070726f76656400000000000000000000000000000000000060648201526084016104f2565b61093585858585856114cc565b5050505050565b6001600160a01b038216600090815260036020908152604080832084845290915281205461096a8484610478565b610974919061316c565b9392505050565b606081518351146109f45760405162461bcd60e51b815260206004820152602960248201527f455243313135353a206163636f756e747320616e6420696473206c656e67746860448201527f206d69736d61746368000000000000000000000000000000000000000000000060648201526084016104f2565b6000835167ffffffffffffffff811115610a1057610a10612a65565b604051908082528060200260200182016040528015610a39578160200160208202803683370190505b50905060005b8451811015610ab157610a84858281518110610a5d57610a5d6130d5565b6020026020010151858381518110610a7757610a776130d5565b6020026020010151610478565b828281518110610a9657610a966130d5565b6020908102919091010152610aaa81613118565b9050610a3f565b509392505050565b610ac16112da565b610acb6000611786565b565b600a546001600160a01b03163314610b315760405162461bcd60e51b815260206004820152602160248201527f6f6e6c792072616e6b696e6720636f6e74726163742063616e20646f207468616044820152601d60fa1b60648201526084016104f2565b610b3d84848484611340565b50505050565b6000815b8015610b7c576000610b598583610478565b90508015610b695750905061051e565b5080610b748161317f565b915050610b47565b5060009392505050565b610b8e6112da565b6007610b9a82826131dc565b5050565b6060806004600581805480602002602001604051908101604052809291908181526020018280548015610bfa57602002820191906000526020600020905b81546001600160a01b03168152600190910190602001808311610bdc575b5050505050915080805480602002602001604051908101604052809291908181526020018280548015610c4c57602002820191906000526020600020905b815481526020019060010190808311610c38575b50505050509050915091509091565b610b9a3383836117f0565b600a546001600160a01b03163314610cca5760405162461bcd60e51b815260206004820152602160248201527f6f6e6c792072616e6b696e6720636f6e74726163742063616e20646f207468616044820152601d60fa1b60648201526084016104f2565b6001600160a01b038416610d2f5760405162461bcd60e51b815260206004820152602660248201527f52616e6b546f6b656e2d3e6d696e743a2041646472657373206e6f742073706560448201526518da599a595960d21b60648201526084016104f2565b8151600003610da65760405162461bcd60e51b815260206004820152602560248201527f52616e6b546f6b656e2d3e6d696e743a20616d6f756e74206e6f74207370656360448201527f696669656400000000000000000000000000000000000000000000000000000060648201526084016104f2565b8251600003610e065760405162461bcd60e51b815260206004820152602660248201527f52616e6b546f6b656e2d3e6d696e743a20706f6f6c206964206e6f742073706560448201526518da599a595960d21b60648201526084016104f2565b610b3d84848484611903565b600a546001600160a01b03163314610e765760405162461bcd60e51b815260206004820152602160248201527f6f6e6c792072616e6b696e6720636f6e74726163742063616e20646f207468616044820152601d60fa1b60648201526084016104f2565b61065e838383611b18565b600a546001600160a01b03163314610ee55760405162461bcd60e51b815260206004820152602160248201527f6f6e6c792072616e6b696e6720636f6e74726163742063616e20646f207468616044820152601d60fa1b60648201526084016104f2565b61065e838383611c08565b606060078054610eff90613132565b80601f0160208091040260200160405190810160405280929190818152602001828054610f2b90613132565b8015610f785780601f10610f4d57610100808354040283529160200191610f78565b820191906000526020600020905b815481529060010190602001808311610f5b57829003601f168201915b5050505050905090565b6001600160a01b038516331480610f9e5750610f9e85336103f1565b6110105760405162461bcd60e51b815260206004820152602e60248201527f455243313135353a2063616c6c6572206973206e6f7420746f6b656e206f776e60448201527f6572206f7220617070726f76656400000000000000000000000000000000000060648201526084016104f2565b6109358585858585611d0c565b6110256112da565b6001600160a01b0381166110a15760405162461bcd60e51b815260206004820152602660248201527f4f776e61626c653a206e6577206f776e657220697320746865207a65726f206160448201527f646472657373000000000000000000000000000000000000000000000000000060648201526084016104f2565b61067481611786565b6001600160a01b0383163314806110c657506110c683336103f1565b6111385760405162461bcd60e51b815260206004820152602e60248201527f455243313135353a2063616c6c6572206973206e6f7420746f6b656e206f776e60448201527f6572206f7220617070726f76656400000000000000000000000000000000000060648201526084016104f2565b61065e8383836111de565b60006001600160e01b031982167fd9b67a260000000000000000000000000000000000000000000000000000000014806111a657506001600160e01b031982167f0e89341c00000000000000000000000000000000000000000000000000000000145b8061051e57507f01ffc9a7000000000000000000000000000000000000000000000000000000006001600160e01b031983161461051e565b60005b6004548110156112ce57600481815481106111fe576111fe6130d5565b9060005260206000200160009054906101000a90046001600160a01b03166001600160a01b031663f5298aca85856005858154811061123f5761123f6130d5565b9060005260206000200154866112559190613101565b6040516001600160e01b031960e086901b1681526001600160a01b03909316600484015260248301919091526044820152606401600060405180830381600087803b1580156112a357600080fd5b505af11580156112b7573d6000803e3d6000fd5b5050505080806112c690613118565b9150506111e1565b5061065e838383611efe565b6006546001600160a01b03163314610acb5760405162461bcd60e51b815260206004820181905260248201527f4f776e61626c653a2063616c6c6572206973206e6f7420746865206f776e657260448201526064016104f2565b6002610b9a82826131dc565b6001600160a01b0384166113a55760405162461bcd60e51b815260206004820152602660248201527f52616e6b546f6b656e2d3e6d696e743a2041646472657373206e6f742073706560448201526518da599a595960d21b60648201526084016104f2565b8260000361141b5760405162461bcd60e51b815260206004820152602560248201527f52616e6b546f6b656e2d3e6d696e743a20616d6f756e74206e6f74207370656360448201527f696669656400000000000000000000000000000000000000000000000000000060648201526084016104f2565b8160000361147a5760405162461bcd60e51b815260206004820152602660248201527f52616e6b546f6b656e2d3e6d696e743a20706f6f6c206964206e6f742073706560448201526518da599a595960d21b60648201526084016104f2565b6009548211156114c057600982905560405182906001600160a01b038616907f05c066fccc179a1b704e61617b73bc27a30a3162d36704cb8d4305064471a24090600090a35b610b3d848385846120d4565b81518351146115435760405162461bcd60e51b815260206004820152602860248201527f455243313135353a2069647320616e6420616d6f756e7473206c656e6774682060448201527f6d69736d6174636800000000000000000000000000000000000000000000000060648201526084016104f2565b6001600160a01b0384166115bf5760405162461bcd60e51b815260206004820152602560248201527f455243313135353a207472616e7366657220746f20746865207a65726f20616460448201527f647265737300000000000000000000000000000000000000000000000000000060648201526084016104f2565b336115ce8187878787876121d1565b60005b845181101561170a5760008582815181106115ee576115ee6130d5565b60200260200101519050600085838151811061160c5761160c6130d5565b602090810291909101810151600084815280835260408082206001600160a01b038e1683529093529190912054909150818110156116b25760405162461bcd60e51b815260206004820152602a60248201527f455243313135353a20696e73756666696369656e742062616c616e636520666f60448201527f72207472616e736665720000000000000000000000000000000000000000000060648201526084016104f2565b6000838152602081815260408083206001600160a01b038e8116855292528083208585039055908b168252812080548492906116ef90849061329c565b925050819055505050508061170390613118565b90506115d1565b50846001600160a01b0316866001600160a01b0316826001600160a01b03167f4a39dc06d4c0dbc64b70af90fd698a233a518aa5d07e595d983b8c0526c8f7fb878760405161175a9291906132af565b60405180910390a4611770818787878787612318565b61177e8187878787876124fa565b505050505050565b600680546001600160a01b038381167fffffffffffffffffffffffff0000000000000000000000000000000000000000831681179093556040519116919082907f8be0079c531659141344cd1fd0a4f28419497f9722a3daafe3b4186f6b6457e090600090a35050565b816001600160a01b0316836001600160a01b0316036118775760405162461bcd60e51b815260206004820152602960248201527f455243313135353a2073657474696e6720617070726f76616c2073746174757360448201527f20666f722073656c66000000000000000000000000000000000000000000000060648201526084016104f2565b6001600160a01b0383811660008181526001602090815260408083209487168084529482529182902080547fffffffffffffffffffffffffffffffffffffffffffffffffffffffffffffff001686151590811790915591519182527f17307eab39ab6107e8899845ad3d59bd9653f200f220920489ca2b5937696c3191015b60405180910390a3505050565b6001600160a01b03841661197f5760405162461bcd60e51b815260206004820152602160248201527f455243313135353a206d696e7420746f20746865207a65726f2061646472657360448201527f730000000000000000000000000000000000000000000000000000000000000060648201526084016104f2565b81518351146119f65760405162461bcd60e51b815260206004820152602860248201527f455243313135353a2069647320616e6420616d6f756e7473206c656e6774682060448201527f6d69736d6174636800000000000000000000000000000000000000000000000060648201526084016104f2565b33611a06816000878787876121d1565b60005b8451811015611aa157838181518110611a2457611a246130d5565b6020026020010151600080878481518110611a4157611a416130d5565b602002602001015181526020019081526020016000206000886001600160a01b03166001600160a01b031681526020019081526020016000206000828254611a89919061329c565b90915550819050611a9981613118565b915050611a09565b50846001600160a01b031660006001600160a01b0316826001600160a01b03167f4a39dc06d4c0dbc64b70af90fd698a233a518aa5d07e595d983b8c0526c8f7fb8787604051611af29291906132af565b60405180910390a4611b0981600087878787612318565b610935816000878787876124fa565b6001600160a01b0383166000908152600360209081526040808320858452909152902054811115611b93576001600160a01b0383166000908152600360209081526040808320858452909152908190205490516331303bbb60e01b8152600481018490526024810191909152604481018290526064016104f2565b6001600160a01b038316600090815260036020908152604080832085845290915281208054839290611bc690849061316c565b909155505060405181815282906001600160a01b038516907f89882ad382a3742d4db24e4dabc5000c5852aed762904db28442e4e1630a1d07906020016118f6565b6001600160a01b0383166000908152600360209081526040808320858452909152902054611c3790829061329c565b611c418484610478565b1015611c97576001600160a01b0383166000908152600360209081526040808320858452909152908190205490516331303bbb60e01b8152600481018490526024810191909152604481018290526064016104f2565b6001600160a01b038316600090815260036020908152604080832085845290915281208054839290611cca90849061329c565b909155505060405181815282906001600160a01b038516907fd741e738a23fd18a03a26522320d9fc6cac1fed483e215ea9150fbc2fc43385d906020016118f6565b6001600160a01b038416611d885760405162461bcd60e51b815260206004820152602560248201527f455243313135353a207472616e7366657220746f20746865207a65726f20616460448201527f647265737300000000000000000000000000000000000000000000000000000060648201526084016104f2565b336000611d94856126e6565b90506000611da1856126e6565b9050611db18389898585896121d1565b6000868152602081815260408083206001600160a01b038c16845290915290205485811015611e485760405162461bcd60e51b815260206004820152602a60248201527f455243313135353a20696e73756666696369656e742062616c616e636520666f60448201527f72207472616e736665720000000000000000000000000000000000000000000060648201526084016104f2565b6000878152602081815260408083206001600160a01b038d8116855292528083208985039055908a16825281208054889290611e8590849061329c565b909155505060408051888152602081018890526001600160a01b03808b16928c821692918816917fc3d58168c5ae7397731d063d5bbf3d657854427343f4c083240f7aacaa2d0f62910160405180910390a4611ee5848a8a86868a612318565b611ef3848a8a8a8a8a612731565b505050505050505050565b6001600160a01b038316611f7a5760405162461bcd60e51b815260206004820152602360248201527f455243313135353a206275726e2066726f6d20746865207a65726f206164647260448201527f657373000000000000000000000000000000000000000000000000000000000060648201526084016104f2565b336000611f86846126e6565b90506000611f93846126e6565b9050611fb3838760008585604051806020016040528060008152506121d1565b6000858152602081815260408083206001600160a01b038a168452909152902054848110156120495760405162461bcd60e51b8152602060048201526024808201527f455243313135353a206275726e20616d6f756e7420657863656564732062616c60448201527f616e63650000000000000000000000000000000000000000000000000000000060648201526084016104f2565b6000868152602081815260408083206001600160a01b038b81168086529184528285208a8703905582518b81529384018a90529092908816917fc3d58168c5ae7397731d063d5bbf3d657854427343f4c083240f7aacaa2d0f62910160405180910390a46120cb84886000868660405180602001604052806000815250612318565b50505050505050565b60005b6004548110156121c457600481815481106120f4576120f46130d5565b9060005260206000200160009054906101000a90046001600160a01b03166001600160a01b031663e2ab691d868660058581548110612135576121356130d5565b90600052602060002001548761214b9190613101565b6040516001600160e01b031960e086901b1681526001600160a01b03909316600484015260248301919091526044820152606401600060405180830381600087803b15801561219957600080fd5b505af11580156121ad573d6000803e3d6000fd5b5050505080806121bc90613118565b9150506120d7565b50610b3d84848484612874565b60005b8351811015612312576001600160a01b038616156123005761220286858381518110610a7757610a776130d5565b838281518110612214576122146130d5565b602002602001015160036000896001600160a01b03166001600160a01b031681526020019081526020016000206000878581518110612255576122556130d5565b6020026020010151815260200190815260200160002054612276919061329c565b11156123005783818151811061228e5761228e6130d5565b60200260200101516122b9878684815181106122ac576122ac6130d5565b602002602001015161093c565b8483815181106122cb576122cb6130d5565b60200260200101516040516331303bbb60e01b81526004016104f2939291909283526020830191909152604082015260600190565b8061230a81613118565b9150506121d4565b5061177e565b60005b83518110156120cb57838181518110612336576123366130d5565b602002602001015160086000876001600160a01b03166001600160a01b031681526020019081526020016000205410801561238b575082818151811061237e5761237e6130d5565b6020026020010151600014155b15612424578381815181106123a2576123a26130d5565b602002602001015160086000876001600160a01b03166001600160a01b03168152602001908152602001600020819055508381815181106123e5576123e56130d5565b6020026020010151856001600160a01b03167f83868f8c9b95fb4e3033e4bd8340c88ee6137771dbaf89333c960a3183258fb760405160405180910390a35b6001600160a01b0386161580159061247757506001600160a01b03861660009081526008602052604090205461245b908790610b43565b6001600160a01b03871660009081526008602052604090205414155b156124e8576001600160a01b0386166000908152600860205260408120546124a0908890610b43565b6001600160a01b0388166000818152600860205260408082208490555192935083927f83868f8c9b95fb4e3033e4bd8340c88ee6137771dbaf89333c960a3183258fb79190a3505b806124f281613118565b91505061231b565b6001600160a01b0384163b1561177e576040517fbc197c810000000000000000000000000000000000000000000000000000000081526001600160a01b0385169063bc197c819061255790899089908890889088906004016132dd565b6020604051808303816000875af1925050508015612592575060408051601f3d908101601f1916820190925261258f9181019061333b565b60015b6126475761259e613358565b806308c379a0036125d757506125b2613374565b806125bd57506125d9565b8060405162461bcd60e51b81526004016104f29190612c48565b505b60405162461bcd60e51b815260206004820152603460248201527f455243313135353a207472616e7366657220746f206e6f6e2d4552433131353560448201527f526563656976657220696d706c656d656e74657200000000000000000000000060648201526084016104f2565b6001600160e01b031981167fbc197c8100000000000000000000000000000000000000000000000000000000146120cb5760405162461bcd60e51b815260206004820152602860248201527f455243313135353a204552433131353552656365697665722072656a6563746560448201527f6420746f6b656e7300000000000000000000000000000000000000000000000060648201526084016104f2565b60408051600180825281830190925260609160009190602080830190803683370190505090508281600081518110612720576127206130d5565b602090810291909101015292915050565b6001600160a01b0384163b1561177e576040517ff23a6e610000000000000000000000000000000000000000000000000000000081526001600160a01b0385169063f23a6e619061278e908990899088908890889060040161341c565b6020604051808303816000875af19250505080156127c9575060408051601f3d908101601f191682019092526127c69181019061333b565b60015b6127d55761259e613358565b6001600160e01b031981167ff23a6e6100000000000000000000000000000000000000000000000000000000146120cb5760405162461bcd60e51b815260206004820152602860248201527f455243313135353a204552433131353552656365697665722072656a6563746560448201527f6420746f6b656e7300000000000000000000000000000000000000000000000060648201526084016104f2565b6001600160a01b0384166128f05760405162461bcd60e51b815260206004820152602160248201527f455243313135353a206d696e7420746f20746865207a65726f2061646472657360448201527f730000000000000000000000000000000000000000000000000000000000000060648201526084016104f2565b3360006128fc856126e6565b90506000612909856126e6565b905061291a836000898585896121d1565b6000868152602081815260408083206001600160a01b038b1684529091528120805487929061294a90849061329c565b909155505060408051878152602081018790526001600160a01b03808a1692600092918716917fc3d58168c5ae7397731d063d5bbf3d657854427343f4c083240f7aacaa2d0f62910160405180910390a46129aa83600089858589612318565b6120cb83600089898989612731565b80356001600160a01b03811681146129d057600080fd5b919050565b600080604083850312156129e857600080fd5b6129f1836129b9565b946020939093013593505050565b6001600160e01b03198116811461067457600080fd5b600060208284031215612a2757600080fd5b8135610974816129ff565b600080600060608486031215612a4757600080fd5b612a50846129b9565b95602085013595506040909401359392505050565b634e487b7160e01b600052604160045260246000fd5b601f19601f830116810181811067ffffffffffffffff82111715612aa157612aa1612a65565b6040525050565b600067ffffffffffffffff831115612ac257612ac2612a65565b604051612ad96020601f19601f8701160182612a7b565b809150838152848484011115612aee57600080fd5b83836020830137600060208583010152509392505050565b600060208284031215612b1857600080fd5b813567ffffffffffffffff811115612b2f57600080fd5b8201601f81018413612b4057600080fd5b612b4f84823560208401612aa8565b949350505050565b600060208284031215612b6957600080fd5b610974826129b9565b600082601f830112612b8357600080fd5b61097483833560208501612aa8565b600080600060608486031215612ba757600080fd5b612bb0846129b9565b925060208401359150604084013567ffffffffffffffff811115612bd357600080fd5b612bdf86828701612b72565b9150509250925092565b600060208284031215612bfb57600080fd5b5035919050565b6000815180845260005b81811015612c2857602081850181015186830182015201612c0c565b506000602082860101526020601f19601f83011685010191505092915050565b6020815260006109746020830184612c02565b600067ffffffffffffffff821115612c7557612c75612a65565b5060051b60200190565b600082601f830112612c9057600080fd5b81356020612c9d82612c5b565b604051612caa8282612a7b565b83815260059390931b8501820192828101915086841115612cca57600080fd5b8286015b84811015612ce55780358352918301918301612cce565b509695505050505050565b600080600080600060a08688031215612d0857600080fd5b612d11866129b9565b9450612d1f602087016129b9565b9350604086013567ffffffffffffffff80821115612d3c57600080fd5b612d4889838a01612c7f565b94506060880135915080821115612d5e57600080fd5b612d6a89838a01612c7f565b93506080880135915080821115612d8057600080fd5b50612d8d88828901612b72565b9150509295509295909350565b60008060408385031215612dad57600080fd5b823567ffffffffffffffff80821115612dc557600080fd5b818501915085601f830112612dd957600080fd5b81356020612de682612c5b565b604051612df38282612a7b565b83815260059390931b8501820192828101915089841115612e1357600080fd5b948201945b83861015612e3857612e29866129b9565b82529482019490820190612e18565b96505086013592505080821115612e4e57600080fd5b50612e5b85828601612c7f565b9150509250929050565b600081518084526020808501945080840160005b83811015612e9557815187529582019590820190600101612e79565b509495945050505050565b6020815260006109746020830184612e65565b60008060008060808587031215612ec957600080fd5b612ed2856129b9565b93506020850135925060408501359150606085013567ffffffffffffffff811115612efc57600080fd5b612f0887828801612b72565b91505092959194509250565b604080825283519082018190526000906020906060840190828701845b82811015612f565781516001600160a01b031684529284019290840190600101612f31565b50505083810382850152612f6a8186612e65565b9695505050505050565b60008060408385031215612f8757600080fd5b612f90836129b9565b915060208301358015158114612fa557600080fd5b809150509250929050565b60008060008060808587031215612fc657600080fd5b612fcf856129b9565b9350602085013567ffffffffffffffff80821115612fec57600080fd5b612ff888838901612c7f565b9450604087013591508082111561300e57600080fd5b61301a88838901612c7f565b9350606087013591508082111561303057600080fd5b50612f0887828801612b72565b6000806040838503121561305057600080fd5b613059836129b9565b9150613067602084016129b9565b90509250929050565b600080600080600060a0868803121561308857600080fd5b613091866129b9565b945061309f602087016129b9565b93506040860135925060608601359150608086013567ffffffffffffffff8111156130c957600080fd5b612d8d88828901612b72565b634e487b7160e01b600052603260045260246000fd5b634e487b7160e01b600052601160045260246000fd5b808202811582820484141761051e5761051e6130eb565b6000600019820361312b5761312b6130eb565b5060010190565b600181811c9082168061314657607f821691505b60208210810361316657634e487b7160e01b600052602260045260246000fd5b50919050565b8181038181111561051e5761051e6130eb565b60008161318e5761318e6130eb565b506000190190565b601f82111561065e57600081815260208120601f850160051c810160208610156131bd5750805b601f850160051c820191505b8181101561177e578281556001016131c9565b815167ffffffffffffffff8111156131f6576131f6612a65565b61320a816132048454613132565b84613196565b602080601f83116001811461323f57600084156132275750858301515b600019600386901b1c1916600185901b17855561177e565b600085815260208120601f198616915b8281101561326e5788860151825594840194600190910190840161324f565b508582101561328c5787850151600019600388901b60f8161c191681555b5050505050600190811b01905550565b8082018082111561051e5761051e6130eb565b6040815260006132c26040830185612e65565b82810360208401526132d48185612e65565b95945050505050565b60006001600160a01b03808816835280871660208401525060a0604083015261330960a0830186612e65565b828103606084015261331b8186612e65565b9050828103608084015261332f8185612c02565b98975050505050505050565b60006020828403121561334d57600080fd5b8151610974816129ff565b600060033d11156133715760046000803e5060005160e01c5b90565b600060443d10156133825790565b6040517ffffffffffffffffffffffffffffffffffffffffffffffffffffffffffffffffc803d016004833e81513d67ffffffffffffffff81602484011181841117156133d057505050505090565b82850191508151818111156133e85750505050505090565b843d87010160208285010111156134025750505050505090565b61341160208286010187612a7b565b509095945050505050565b60006001600160a01b03808816835280871660208401525084604083015283606083015260a0608083015261345460a0830184612c02565b97965050505050505056fea264697066735822122022c8b8310c542bf0dac7b9713f07ae5085d099fbd6a4c455380098a30d2ca1ba64736f6c63430008140033",
  "devdoc": {
    "events": {
      "ApprovalForAll(address,address,bool)": {
        "details": "Emitted when `account` grants or revokes permission to `operator` to transfer their tokens, according to `approved`."
      },
      "TransferBatch(address,address,address,uint256[],uint256[])": {
        "details": "Equivalent to multiple {TransferSingle} events, where `operator`, `from` and `to` are the same for all transfers."
      },
      "TransferSingle(address,address,address,uint256,uint256)": {
        "details": "Emitted when `value` tokens of token type `id` are transferred from `from` to `to` by `operator`."
      },
      "URI(string,uint256)": {
        "details": "Emitted when the URI for token type `id` changes to `value`, if it is a non-programmatic URI. If an {URI} event was emitted for `id`, the standard https://eips.ethereum.org/EIPS/eip-1155#metadata-extensions[guarantees] that `value` will equal the value returned by {IERC1155MetadataURI-uri}."
      }
    },
    "kind": "dev",
    "methods": {
      "balanceOf(address,uint256)": {
        "details": "See {IERC1155-balanceOf}. Requirements: - `account` cannot be the zero address."
      },
      "balanceOfBatch(address[],uint256[])": {
        "details": "See {IERC1155-balanceOfBatch}. Requirements: - `accounts` and `ids` must have the same length."
      },
      "isApprovedForAll(address,address)": {
        "details": "See {IERC1155-isApprovedForAll}."
      },
      "owner()": {
        "details": "Returns the address of the current owner."
      },
      "renounceOwnership()": {
        "details": "Leaves the contract without owner. It will not be possible to call `onlyOwner` functions. Can only be called by the current owner. NOTE: Renouncing ownership will leave the contract without an owner, thereby disabling any functionality that is only available to the owner."
      },
      "safeBatchTransferFrom(address,address,uint256[],uint256[],bytes)": {
        "details": "See {IERC1155-safeBatchTransferFrom}."
      },
      "safeTransferFrom(address,address,uint256,uint256,bytes)": {
        "details": "See {IERC1155-safeTransferFrom}."
      },
      "setApprovalForAll(address,bool)": {
        "details": "See {IERC1155-setApprovalForAll}."
      },
      "transferOwnership(address)": {
        "details": "Transfers ownership of the contract to a new account (`newOwner`). Can only be called by the current owner."
      },
      "updateRankingInstance(address)": {
        "details": "Updates the address of the ranking instance contract.",
        "params": {
          "newRankingInstance": "The new address of the ranking instance contract."
        }
      },
      "uri(uint256)": {
        "details": "See {IERC1155MetadataURI-uri}. This implementation returns the same URI for *all* token types. It relies on the token type ID substitution mechanism https://eips.ethereum.org/EIPS/eip-1155#metadata[defined in the EIP]. Clients calling this function must replace the `\\{id\\}` substring with the actual token type ID."
      }
    },
    "version": 1
  },
  "userdoc": {
    "kind": "user",
    "methods": {},
    "version": 1
  },
  "storageLayout": {
    "storage": [
      {
        "astId": 158,
        "contract": "src/tokens/RankToken.sol:RankToken",
        "label": "_balances",
        "offset": 0,
        "slot": "0",
        "type": "t_mapping(t_uint256,t_mapping(t_address,t_uint256))"
      },
      {
        "astId": 164,
        "contract": "src/tokens/RankToken.sol:RankToken",
        "label": "_operatorApprovals",
        "offset": 0,
        "slot": "1",
        "type": "t_mapping(t_address,t_mapping(t_address,t_bool))"
      },
      {
        "astId": 166,
        "contract": "src/tokens/RankToken.sol:RankToken",
        "label": "_uri",
        "offset": 0,
        "slot": "2",
        "type": "t_string_storage"
      },
      {
        "astId": 14807,
        "contract": "src/tokens/RankToken.sol:RankToken",
        "label": "lockedAmounts",
        "offset": 0,
        "slot": "3",
        "type": "t_mapping(t_address,t_mapping(t_uint256,t_uint256))"
      },
      {
        "astId": 14526,
        "contract": "src/tokens/RankToken.sol:RankToken",
        "label": "dimensions",
        "offset": 0,
        "slot": "4",
        "type": "t_array(t_address)dyn_storage"
      },
      {
        "astId": 14529,
        "contract": "src/tokens/RankToken.sol:RankToken",
        "label": "weights",
        "offset": 0,
        "slot": "5",
        "type": "t_array(t_uint256)dyn_storage"
      },
      {
        "astId": 7,
        "contract": "src/tokens/RankToken.sol:RankToken",
        "label": "_owner",
        "offset": 0,
        "slot": "6",
        "type": "t_address"
      },
      {
        "astId": 20789,
        "contract": "src/tokens/RankToken.sol:RankToken",
        "label": "_contractURI",
        "offset": 0,
        "slot": "7",
        "type": "t_string_storage"
      },
      {
        "astId": 20793,
        "contract": "src/tokens/RankToken.sol:RankToken",
        "label": "rank",
        "offset": 0,
        "slot": "8",
        "type": "t_mapping(t_address,t_uint256)"
      },
      {
        "astId": 20795,
        "contract": "src/tokens/RankToken.sol:RankToken",
        "label": "topRank",
        "offset": 0,
        "slot": "9",
        "type": "t_uint256"
      },
      {
        "astId": 20797,
        "contract": "src/tokens/RankToken.sol:RankToken",
        "label": "_rankingInstance",
        "offset": 0,
        "slot": "10",
        "type": "t_address"
      },
      {
        "astId": 20799,
        "contract": "src/tokens/RankToken.sol:RankToken",
        "label": "_levelUpThreshold",
        "offset": 0,
        "slot": "11",
        "type": "t_uint256"
      }
    ],
    "types": {
      "t_address": {
        "encoding": "inplace",
        "label": "address",
        "numberOfBytes": "20"
      },
      "t_array(t_address)dyn_storage": {
        "base": "t_address",
        "encoding": "dynamic_array",
        "label": "address[]",
        "numberOfBytes": "32"
      },
      "t_array(t_uint256)dyn_storage": {
        "base": "t_uint256",
        "encoding": "dynamic_array",
        "label": "uint256[]",
        "numberOfBytes": "32"
      },
      "t_bool": {
        "encoding": "inplace",
        "label": "bool",
        "numberOfBytes": "1"
      },
      "t_mapping(t_address,t_bool)": {
        "encoding": "mapping",
        "key": "t_address",
        "label": "mapping(address => bool)",
        "numberOfBytes": "32",
        "value": "t_bool"
      },
      "t_mapping(t_address,t_mapping(t_address,t_bool))": {
        "encoding": "mapping",
        "key": "t_address",
        "label": "mapping(address => mapping(address => bool))",
        "numberOfBytes": "32",
        "value": "t_mapping(t_address,t_bool)"
      },
      "t_mapping(t_address,t_mapping(t_uint256,t_uint256))": {
        "encoding": "mapping",
        "key": "t_address",
        "label": "mapping(address => mapping(uint256 => uint256))",
        "numberOfBytes": "32",
        "value": "t_mapping(t_uint256,t_uint256)"
      },
      "t_mapping(t_address,t_uint256)": {
        "encoding": "mapping",
        "key": "t_address",
        "label": "mapping(address => uint256)",
        "numberOfBytes": "32",
        "value": "t_uint256"
      },
      "t_mapping(t_uint256,t_mapping(t_address,t_uint256))": {
        "encoding": "mapping",
        "key": "t_uint256",
        "label": "mapping(uint256 => mapping(address => uint256))",
        "numberOfBytes": "32",
        "value": "t_mapping(t_address,t_uint256)"
      },
      "t_mapping(t_uint256,t_uint256)": {
        "encoding": "mapping",
        "key": "t_uint256",
        "label": "mapping(uint256 => uint256)",
        "numberOfBytes": "32",
        "value": "t_uint256"
      },
      "t_string_storage": {
        "encoding": "bytes",
        "label": "string",
        "numberOfBytes": "32"
      },
      "t_uint256": {
        "encoding": "inplace",
        "label": "uint256",
        "numberOfBytes": "32"
      }
    }
  }
}