{
  "address": "0x231E0B68978ca2015a8c3CaE7AA3cA34dC1700bC",
  "abi": [
    {
      "inputs": [
        {
          "internalType": "string",
          "name": "uri_",
          "type": "string"
        },
        {
          "internalType": "address",
          "name": "owner_",
          "type": "address"
        },
        {
          "internalType": "string",
          "name": "cURI",
          "type": "string"
        },
        {
          "internalType": "uint256",
          "name": "levelUpThreshold",
          "type": "uint256"
        },
        {
          "internalType": "address[]",
          "name": "components",
          "type": "address[]"
        },
        {
          "internalType": "uint256[]",
          "name": "componentWeights",
          "type": "uint256[]"
        }
      ],
      "stateMutability": "nonpayable",
      "type": "constructor"
    },
    {
      "anonymous": false,
      "inputs": [
        {
          "indexed": true,
          "internalType": "address",
          "name": "account",
          "type": "address"
        },
        {
          "indexed": true,
          "internalType": "address",
          "name": "operator",
          "type": "address"
        },
        {
          "indexed": false,
          "internalType": "bool",
          "name": "approved",
          "type": "bool"
        }
      ],
      "name": "ApprovalForAll",
      "type": "event"
    },
    {
      "anonymous": false,
      "inputs": [
        {
          "indexed": true,
          "internalType": "address",
          "name": "account",
          "type": "address"
        },
        {
          "indexed": true,
          "internalType": "uint256",
          "name": "rank",
          "type": "uint256"
        }
      ],
      "name": "Leader",
      "type": "event"
    },
    {
      "anonymous": false,
      "inputs": [
        {
          "indexed": true,
          "internalType": "address",
          "name": "account",
          "type": "address"
        },
        {
          "indexed": false,
          "internalType": "uint256",
          "name": "id",
          "type": "uint256"
        }
      ],
      "name": "LevelUp",
      "type": "event"
    },
    {
      "anonymous": false,
      "inputs": [
        {
          "indexed": true,
          "internalType": "address",
          "name": "previousOwner",
          "type": "address"
        },
        {
          "indexed": true,
          "internalType": "address",
          "name": "newOwner",
          "type": "address"
        }
      ],
      "name": "OwnershipTransferred",
      "type": "event"
    },
    {
      "anonymous": false,
      "inputs": [
        {
          "indexed": true,
          "internalType": "address",
          "name": "account",
          "type": "address"
        },
        {
          "indexed": true,
          "internalType": "uint256",
          "name": "rank",
          "type": "uint256"
        }
      ],
      "name": "RankUpdated",
      "type": "event"
    },
    {
      "anonymous": false,
      "inputs": [
        {
          "indexed": true,
          "internalType": "address",
          "name": "newRankingInstance",
          "type": "address"
        }
      ],
      "name": "RankingInstanceUpdated",
      "type": "event"
    },
    {
      "anonymous": false,
      "inputs": [
        {
          "indexed": true,
          "internalType": "address",
          "name": "account",
          "type": "address"
        },
        {
          "indexed": true,
          "internalType": "uint256",
          "name": "id",
          "type": "uint256"
        },
        {
          "indexed": false,
          "internalType": "uint256",
          "name": "value",
          "type": "uint256"
        }
      ],
      "name": "TokensLocked",
      "type": "event"
    },
    {
      "anonymous": false,
      "inputs": [
        {
          "indexed": true,
          "internalType": "address",
          "name": "account",
          "type": "address"
        },
        {
          "indexed": true,
          "internalType": "uint256",
          "name": "id",
          "type": "uint256"
        },
        {
          "indexed": false,
          "internalType": "uint256",
          "name": "value",
          "type": "uint256"
        }
      ],
      "name": "TokensUnlocked",
      "type": "event"
    },
    {
      "anonymous": false,
      "inputs": [
        {
          "indexed": true,
          "internalType": "address",
          "name": "operator",
          "type": "address"
        },
        {
          "indexed": true,
          "internalType": "address",
          "name": "from",
          "type": "address"
        },
        {
          "indexed": true,
          "internalType": "address",
          "name": "to",
          "type": "address"
        },
        {
          "indexed": false,
          "internalType": "uint256[]",
          "name": "ids",
          "type": "uint256[]"
        },
        {
          "indexed": false,
          "internalType": "uint256[]",
          "name": "values",
          "type": "uint256[]"
        }
      ],
      "name": "TransferBatch",
      "type": "event"
    },
    {
      "anonymous": false,
      "inputs": [
        {
          "indexed": true,
          "internalType": "address",
          "name": "operator",
          "type": "address"
        },
        {
          "indexed": true,
          "internalType": "address",
          "name": "from",
          "type": "address"
        },
        {
          "indexed": true,
          "internalType": "address",
          "name": "to",
          "type": "address"
        },
        {
          "indexed": false,
          "internalType": "uint256",
          "name": "id",
          "type": "uint256"
        },
        {
          "indexed": false,
          "internalType": "uint256",
          "name": "value",
          "type": "uint256"
        }
      ],
      "name": "TransferSingle",
      "type": "event"
    },
    {
      "anonymous": false,
      "inputs": [
        {
          "indexed": false,
          "internalType": "string",
          "name": "value",
          "type": "string"
        },
        {
          "indexed": true,
          "internalType": "uint256",
          "name": "id",
          "type": "uint256"
        }
      ],
      "name": "URI",
      "type": "event"
    },
    {
      "inputs": [
        {
          "internalType": "address",
          "name": "account",
          "type": "address"
        },
        {
          "internalType": "uint256",
          "name": "id",
          "type": "uint256"
        }
      ],
      "name": "balanceOf",
      "outputs": [
        {
          "internalType": "uint256",
          "name": "",
          "type": "uint256"
        }
      ],
      "stateMutability": "view",
      "type": "function"
    },
    {
      "inputs": [
        {
          "internalType": "address[]",
          "name": "accounts",
          "type": "address[]"
        },
        {
          "internalType": "uint256[]",
          "name": "ids",
          "type": "uint256[]"
        }
      ],
      "name": "balanceOfBatch",
      "outputs": [
        {
          "internalType": "uint256[]",
          "name": "",
          "type": "uint256[]"
        }
      ],
      "stateMutability": "view",
      "type": "function"
    },
    {
      "inputs": [
        {
          "internalType": "address",
          "name": "to",
          "type": "address"
        },
        {
          "internalType": "uint256[]",
          "name": "ids",
          "type": "uint256[]"
        },
        {
          "internalType": "uint256[]",
          "name": "amounts",
          "type": "uint256[]"
        },
        {
          "internalType": "bytes",
          "name": "data",
          "type": "bytes"
        }
      ],
      "name": "batchMint",
      "outputs": [],
      "stateMutability": "nonpayable",
      "type": "function"
    },
    {
      "inputs": [
        {
          "internalType": "address",
          "name": "account",
          "type": "address"
        },
        {
          "internalType": "uint256",
          "name": "id",
          "type": "uint256"
        },
        {
          "internalType": "uint256",
          "name": "value",
          "type": "uint256"
        }
      ],
      "name": "burn",
      "outputs": [],
      "stateMutability": "nonpayable",
      "type": "function"
    },
    {
      "inputs": [],
      "name": "contractURI",
      "outputs": [
        {
          "internalType": "string",
          "name": "",
          "type": "string"
        }
      ],
      "stateMutability": "view",
      "type": "function"
    },
    {
      "inputs": [
        {
          "internalType": "address",
          "name": "from",
          "type": "address"
        },
        {
          "internalType": "uint256",
          "name": "id",
          "type": "uint256"
        },
        {
          "internalType": "uint256",
          "name": "amount",
          "type": "uint256"
        }
      ],
      "name": "decompose",
      "outputs": [],
      "stateMutability": "nonpayable",
      "type": "function"
    },
    {
      "inputs": [
        {
          "internalType": "address",
          "name": "account",
          "type": "address"
        },
        {
          "internalType": "uint256",
          "name": "oldRank",
          "type": "uint256"
        }
      ],
      "name": "findNewRank",
      "outputs": [
        {
          "internalType": "uint256",
          "name": "",
          "type": "uint256"
        }
      ],
      "stateMutability": "view",
      "type": "function"
    },
    {
      "inputs": [
        {
          "internalType": "address",
          "name": "account",
          "type": "address"
        }
      ],
      "name": "getAccountRank",
      "outputs": [
        {
          "internalType": "uint256",
          "name": "",
          "type": "uint256"
        }
      ],
      "stateMutability": "view",
      "type": "function"
    },
    {
      "inputs": [],
      "name": "getComponents",
      "outputs": [
        {
          "internalType": "address[]",
          "name": "",
          "type": "address[]"
        },
        {
          "internalType": "uint256[]",
          "name": "",
          "type": "uint256[]"
        }
      ],
      "stateMutability": "nonpayable",
      "type": "function"
    },
    {
      "inputs": [],
      "name": "getRankingInstance",
      "outputs": [
        {
          "internalType": "address",
          "name": "",
          "type": "address"
        }
      ],
      "stateMutability": "view",
      "type": "function"
    },
    {
      "inputs": [
        {
          "internalType": "address",
          "name": "account",
          "type": "address"
        },
        {
          "internalType": "address",
          "name": "operator",
          "type": "address"
        }
      ],
      "name": "isApprovedForAll",
      "outputs": [
        {
          "internalType": "bool",
          "name": "",
          "type": "bool"
        }
      ],
      "stateMutability": "view",
      "type": "function"
    },
    {
      "inputs": [
        {
          "internalType": "address",
          "name": "to",
          "type": "address"
        },
        {
          "internalType": "uint256",
          "name": "level",
          "type": "uint256"
        },
        {
          "internalType": "bytes",
          "name": "data",
          "type": "bytes"
        }
      ],
      "name": "levelUp",
      "outputs": [],
      "stateMutability": "nonpayable",
      "type": "function"
    },
    {
      "inputs": [
        {
          "internalType": "address",
          "name": "account",
          "type": "address"
        },
        {
          "internalType": "uint256",
          "name": "id",
          "type": "uint256"
        },
        {
          "internalType": "uint256",
          "name": "amount",
          "type": "uint256"
        }
      ],
      "name": "lock",
      "outputs": [],
      "stateMutability": "nonpayable",
      "type": "function"
    },
    {
      "inputs": [
        {
          "internalType": "address",
          "name": "to",
          "type": "address"
        },
        {
          "internalType": "uint256",
          "name": "amount",
          "type": "uint256"
        },
        {
          "internalType": "uint256",
          "name": "level",
          "type": "uint256"
        },
        {
          "internalType": "bytes",
          "name": "data",
          "type": "bytes"
        }
      ],
      "name": "mint",
      "outputs": [],
      "stateMutability": "nonpayable",
      "type": "function"
    },
    {
      "inputs": [],
      "name": "owner",
      "outputs": [
        {
          "internalType": "address",
          "name": "",
          "type": "address"
        }
      ],
      "stateMutability": "view",
      "type": "function"
    },
    {
      "inputs": [
        {
          "internalType": "address",
          "name": "",
          "type": "address"
        }
      ],
      "name": "rank",
      "outputs": [
        {
          "internalType": "uint256",
          "name": "",
          "type": "uint256"
        }
      ],
      "stateMutability": "view",
      "type": "function"
    },
    {
      "inputs": [],
      "name": "renounceOwnership",
      "outputs": [],
      "stateMutability": "nonpayable",
      "type": "function"
    },
    {
      "inputs": [
        {
          "internalType": "address",
          "name": "from",
          "type": "address"
        },
        {
          "internalType": "address",
          "name": "to",
          "type": "address"
        },
        {
          "internalType": "uint256[]",
          "name": "ids",
          "type": "uint256[]"
        },
        {
          "internalType": "uint256[]",
          "name": "amounts",
          "type": "uint256[]"
        },
        {
          "internalType": "bytes",
          "name": "data",
          "type": "bytes"
        }
      ],
      "name": "safeBatchTransferFrom",
      "outputs": [],
      "stateMutability": "nonpayable",
      "type": "function"
    },
    {
      "inputs": [
        {
          "internalType": "address",
          "name": "from",
          "type": "address"
        },
        {
          "internalType": "address",
          "name": "to",
          "type": "address"
        },
        {
          "internalType": "uint256",
          "name": "id",
          "type": "uint256"
        },
        {
          "internalType": "uint256",
          "name": "amount",
          "type": "uint256"
        },
        {
          "internalType": "bytes",
          "name": "data",
          "type": "bytes"
        }
      ],
      "name": "safeTransferFrom",
      "outputs": [],
      "stateMutability": "nonpayable",
      "type": "function"
    },
    {
      "inputs": [
        {
          "internalType": "address",
          "name": "operator",
          "type": "address"
        },
        {
          "internalType": "bool",
          "name": "approved",
          "type": "bool"
        }
      ],
      "name": "setApprovalForAll",
      "outputs": [],
      "stateMutability": "nonpayable",
      "type": "function"
    },
    {
      "inputs": [
        {
          "internalType": "string",
          "name": "uri_",
          "type": "string"
        }
      ],
      "name": "setContractURI",
      "outputs": [],
      "stateMutability": "nonpayable",
      "type": "function"
    },
    {
      "inputs": [
        {
          "internalType": "string",
          "name": "uri_",
          "type": "string"
        }
      ],
      "name": "setURI",
      "outputs": [],
      "stateMutability": "nonpayable",
      "type": "function"
    },
    {
      "inputs": [
        {
          "internalType": "bytes4",
          "name": "interfaceId",
          "type": "bytes4"
        }
      ],
      "name": "supportsInterface",
      "outputs": [
        {
          "internalType": "bool",
          "name": "",
          "type": "bool"
        }
      ],
      "stateMutability": "view",
      "type": "function"
    },
    {
      "inputs": [],
      "name": "topRank",
      "outputs": [
        {
          "internalType": "uint256",
          "name": "",
          "type": "uint256"
        }
      ],
      "stateMutability": "view",
      "type": "function"
    },
    {
      "inputs": [
        {
          "internalType": "address",
          "name": "newOwner",
          "type": "address"
        }
      ],
      "name": "transferOwnership",
      "outputs": [],
      "stateMutability": "nonpayable",
      "type": "function"
    },
    {
      "inputs": [
        {
          "internalType": "address",
          "name": "account",
          "type": "address"
        },
        {
          "internalType": "uint256",
          "name": "id",
          "type": "uint256"
        },
        {
          "internalType": "uint256",
          "name": "amount",
          "type": "uint256"
        }
      ],
      "name": "unlock",
      "outputs": [],
      "stateMutability": "nonpayable",
      "type": "function"
    },
    {
      "inputs": [
        {
          "internalType": "address",
          "name": "account",
          "type": "address"
        },
        {
          "internalType": "uint256",
          "name": "id",
          "type": "uint256"
        }
      ],
      "name": "unlockedBalanceOf",
      "outputs": [
        {
          "internalType": "uint256",
          "name": "",
          "type": "uint256"
        }
      ],
      "stateMutability": "view",
      "type": "function"
    },
    {
      "inputs": [
        {
          "internalType": "address",
          "name": "newRankingInstance",
          "type": "address"
        }
      ],
      "name": "updateRankingInstance",
      "outputs": [],
      "stateMutability": "nonpayable",
      "type": "function"
    },
    {
      "inputs": [
        {
          "internalType": "uint256",
          "name": "",
          "type": "uint256"
        }
      ],
      "name": "uri",
      "outputs": [
        {
          "internalType": "string",
          "name": "",
          "type": "string"
        }
      ],
      "stateMutability": "view",
      "type": "function"
    }
  ],
  "transactionHash": "0x08b85591647a29b72721bbff27f5ff809869b8006c13f341dbebf758600a40d7",
  "args": [
    "https:/assets.vote4best.app/rank",
    "0x6Cf8d74C7875de8C2FfB09228F4bf2A21b25e583",
    "https://assets.vote4best.app/musicRankToken.json",
    "3",
    [],
    []
  ],
  "numDeployments": 1,
  "solcInputHash": "d4243cadb17b72c1adc02b25740ca647",
  "bytecode": "0x60806040523480156200001157600080fd5b506040516200477b3803806200477b83398101604081905262000034916200056d565b85828282620000438162000172565b5080518251146200009b5760405162461bcd60e51b815260206004820152601b60248201527f4172726179206c656e67746873206d75737420626520657175616c000000000060448201526064015b60405180910390fd5b8151620000b0906004906020850190620002b7565b508051620000c690600590602084019062000321565b50505050620000e4620000de6200018460201b60201c565b62000188565b6001600160a01b038516620001475760405162461bcd60e51b815260206004820152602260248201527f6d7573742073706563696679206f776e6572206f662074686520636f6e74726160448201526118dd60f21b606482015260840162000092565b6007620001558582620006d0565b50600b8390556200016685620001da565b5050505050506200079c565b6002620001808282620006d0565b5050565b3390565b600680546001600160a01b038381166001600160a01b0319831681179093556040519116919082907f8be0079c531659141344cd1fd0a4f28419497f9722a3daafe3b4186f6b6457e090600090a35050565b620001e462000259565b6001600160a01b0381166200024b5760405162461bcd60e51b815260206004820152602660248201527f4f776e61626c653a206e6577206f776e657220697320746865207a65726f206160448201526564647265737360d01b606482015260840162000092565b620002568162000188565b50565b6006546001600160a01b03163314620002b55760405162461bcd60e51b815260206004820181905260248201527f4f776e61626c653a2063616c6c6572206973206e6f7420746865206f776e6572604482015260640162000092565b565b8280548282559060005260206000209081019282156200030f579160200282015b828111156200030f57825182546001600160a01b0319166001600160a01b03909116178255602090920191600190910190620002d8565b506200031d9291506200035f565b5090565b8280548282559060005260206000209081019282156200030f579160200282015b828111156200030f57825182559160200191906001019062000342565b5b808211156200031d576000815560010162000360565b634e487b7160e01b600052604160045260246000fd5b604051601f8201601f191681016001600160401b0381118282101715620003b757620003b762000376565b604052919050565b600082601f830112620003d157600080fd5b81516001600160401b03811115620003ed57620003ed62000376565b602062000403601f8301601f191682016200038c565b82815285828487010111156200041857600080fd5b60005b83811015620004385785810183015182820184015282016200041b565b506000928101909101919091529392505050565b80516001600160a01b03811681146200046457600080fd5b919050565b60006001600160401b0382111562000485576200048562000376565b5060051b60200190565b600082601f830112620004a157600080fd5b81516020620004ba620004b48362000469565b6200038c565b82815260059290921b84018101918181019086841115620004da57600080fd5b8286015b848110156200050057620004f2816200044c565b8352918301918301620004de565b509695505050505050565b600082601f8301126200051d57600080fd5b8151602062000530620004b48362000469565b82815260059290921b840181019181810190868411156200055057600080fd5b8286015b8481101562000500578051835291830191830162000554565b60008060008060008060c087890312156200058757600080fd5b86516001600160401b03808211156200059f57600080fd5b620005ad8a838b01620003bf565b9750620005bd60208a016200044c565b96506040890151915080821115620005d457600080fd5b620005e28a838b01620003bf565b95506060890151945060808901519150808211156200060057600080fd5b6200060e8a838b016200048f565b935060a08901519150808211156200062557600080fd5b506200063489828a016200050b565b9150509295509295509295565b600181811c908216806200065657607f821691505b6020821081036200067757634e487b7160e01b600052602260045260246000fd5b50919050565b601f821115620006cb57600081815260208120601f850160051c81016020861015620006a65750805b601f850160051c820191505b81811015620006c757828155600101620006b2565b5050505b505050565b81516001600160401b03811115620006ec57620006ec62000376565b6200070481620006fd845462000641565b846200067d565b602080601f8311600181146200073c5760008415620007235750858301515b600019600386901b1c1916600185901b178555620006c7565b600085815260208120601f198616915b828110156200076d578886015182559484019460019091019084016200074c565b50858210156200078c5787850151600019600388901b60f8161c191681555b5050505050600190811b01905550565b613fcf80620007ac6000396000f3fe608060405234801561001057600080fd5b50600436106101ce5760003560e01c80638b81c63911610104578063b5674c68116100a2578063f242432a11610071578063f242432a14610460578063f2fde38b14610473578063f5298aca14610486578063f8f88dc21461049957600080fd5b8063b5674c68146103e9578063e2ab691d146103fc578063e8a3d4851461040f578063e985e9c51461041757600080fd5b806399d50d5d116100de57806399d50d5d14610377578063a22cb4651461038d578063a89027f8146103a0578063b48ab8b6146103d657600080fd5b80638b81c639146103335780638da5cb5b14610346578063938e3d7b1461036457600080fd5b80632eb2c2d6116101715780635c87c8f91161014b5780635c87c8f9146102d0578063715018a61461030f578063731133e9146103175780638215eccd1461032a57600080fd5b80632eb2c2d61461028a578063468b3b331461029d5780634e1273f4146102b057600080fd5b806302fe5305116101ad57806302fe53051461023157806305917eee146102445780630dbaf77f146102575780630e89341c1461026a57600080fd5b8062fdd58e146101d357806301ffc9a7146101f9578063022b23d51461021c575b600080fd5b6101e66101e136600461337c565b6104b9565b6040519081526020015b60405180910390f35b61020c6102073660046133d4565b610599565b60405190151581526020016101f0565b61022f61022a3660046133f1565b6105ef565b005b61022f61023f36600461351a565b61072f565b61022f61025236600461356b565b610743565b61022f6102653660046135a6565b610837565b61027d6102783660046135fd565b610947565b6040516101f0919061367a565b61022f610298366004613722565b6109db565b6101e66102ab36600461337c565b610aa4565b6102c36102be3660046137cc565b610af0565b6040516101f091906138d2565b600a5473ffffffffffffffffffffffffffffffffffffffff165b60405173ffffffffffffffffffffffffffffffffffffffff90911681526020016101f0565b61022f610c48565b61022f6103253660046138e5565b610c5c565b6101e660095481565b6101e661034136600461337c565b610d15565b60065473ffffffffffffffffffffffffffffffffffffffff166102ea565b61022f61037236600461351a565b610d58565b61037f610d70565b6040516101f0929190613946565b61022f61039b3660046139b3565b610e3a565b6101e66103ae36600461356b565b73ffffffffffffffffffffffffffffffffffffffff1660009081526008602052604090205490565b61022f6103e43660046139ef565b610e45565b61022f6103f73660046133f1565b6110bd565b61022f61040a3660046133f1565b61116f565b61027d611221565b61020c610425366004613a7c565b73ffffffffffffffffffffffffffffffffffffffff918216600090815260016020908152604080832093909416825291909152205460ff1690565b61022f61046e366004613aaf565b6112b3565b61022f61048136600461356b565b611375565b61022f6104943660046133f1565b611429565b6101e66104a736600461356b565b60086020526000908152604090205481565b600073ffffffffffffffffffffffffffffffffffffffff8316610563576040517f08c379a000000000000000000000000000000000000000000000000000000000815260206004820152602a60248201527f455243313135353a2061646472657373207a65726f206973206e6f742061207660448201527f616c6964206f776e65720000000000000000000000000000000000000000000060648201526084015b60405180910390fd5b5060008181526020818152604080832073ffffffffffffffffffffffffffffffffffffffff861684529091529020545b92915050565b60007fffffffff0000000000000000000000000000000000000000000000000000000082167fb0262bf60000000000000000000000000000000000000000000000000000000014806105935750610593826114e9565b60005b60045481101561071e576004818154811061060f5761060f613b14565b9060005260206000200160009054906101000a900473ffffffffffffffffffffffffffffffffffffffff1673ffffffffffffffffffffffffffffffffffffffff1663b5674c6885856005858154811061066a5761066a613b14565b9060005260206000200154866106809190613b72565b6040517fffffffff0000000000000000000000000000000000000000000000000000000060e086901b16815273ffffffffffffffffffffffffffffffffffffffff909316600484015260248301919091526044820152606401600060405180830381600087803b1580156106f357600080fd5b505af1158015610707573d6000803e3d6000fd5b50505050808061071690613b89565b9150506105f2565b5061072a8383836115cc565b505050565b610737611707565b61074081611788565b50565b61074b611707565b73ffffffffffffffffffffffffffffffffffffffff81166107c8576040517f08c379a000000000000000000000000000000000000000000000000000000000815260206004820152601d60248201527f6d75737420737065636966792072616e6b696e6720696e7374616e6365000000604482015260640161055a565b600a80547fffffffffffffffffffffffff00000000000000000000000000000000000000001673ffffffffffffffffffffffffffffffffffffffff83169081179091556040517f6a0707879bc3853a8fcf9dbebe74a41dd8ea34813c262a58f1f99038559d1e2190600090a250565b73ffffffffffffffffffffffffffffffffffffffff83163314806108725750600a5473ffffffffffffffffffffffffffffffffffffffff1633145b6108d8576040517f08c379a000000000000000000000000000000000000000000000000000000000815260206004820152601660248201527f6c6576656c55703a204e6f74207065726d697474656400000000000000000000604482015260640161055a565b6108e58383600b546115cc565b6108f28360018484611794565b8273ffffffffffffffffffffffffffffffffffffffff167f91e51c29e7e87a74ad3b8ccba98538970f50a4309242735467f41e27c6b0fbac8360405161093a91815260200190565b60405180910390a2505050565b60606002805461095690613bc1565b80601f016020809104026020016040519081016040528092919081815260200182805461098290613bc1565b80156109cf5780601f106109a4576101008083540402835291602001916109cf565b820191906000526020600020905b8154815290600101906020018083116109b257829003601f168201915b50505050509050919050565b73ffffffffffffffffffffffffffffffffffffffff8516331480610a045750610a048533610425565b610a90576040517f08c379a000000000000000000000000000000000000000000000000000000000815260206004820152602e60248201527f455243313135353a2063616c6c6572206973206e6f7420746f6b656e206f776e60448201527f6572206f7220617070726f766564000000000000000000000000000000000000606482015260840161055a565b610a9d85858585856119b6565b5050505050565b73ffffffffffffffffffffffffffffffffffffffff82166000908152600360209081526040808320848452909152812054610adf84846104b9565b610ae99190613c14565b9392505050565b60608151835114610b83576040517f08c379a000000000000000000000000000000000000000000000000000000000815260206004820152602960248201527f455243313135353a206163636f756e747320616e6420696473206c656e67746860448201527f206d69736d617463680000000000000000000000000000000000000000000000606482015260840161055a565b6000835167ffffffffffffffff811115610b9f57610b9f613424565b604051908082528060200260200182016040528015610bc8578160200160208202803683370190505b50905060005b8451811015610c4057610c13858281518110610bec57610bec613b14565b6020026020010151858381518110610c0657610c06613b14565b60200260200101516104b9565b828281518110610c2557610c25613b14565b6020908102919091010152610c3981613b89565b9050610bce565b509392505050565b610c50611707565b610c5a6000611d0c565b565b600a5473ffffffffffffffffffffffffffffffffffffffff163314610d03576040517f08c379a000000000000000000000000000000000000000000000000000000000815260206004820152602160248201527f6f6e6c792072616e6b696e6720636f6e74726163742063616e20646f2074686160448201527f7400000000000000000000000000000000000000000000000000000000000000606482015260840161055a565b610d0f84848484611794565b50505050565b6000815b8015610d4e576000610d2b85836104b9565b90508015610d3b57509050610593565b5080610d4681613c27565b915050610d19565b5060009392505050565b610d60611707565b6007610d6c8282613ca2565b5050565b6060806004600581805480602002602001604051908101604052809291908181526020018280548015610dd957602002820191906000526020600020905b815473ffffffffffffffffffffffffffffffffffffffff168152600190910190602001808311610dae575b5050505050915080805480602002602001604051908101604052809291908181526020018280548015610e2b57602002820191906000526020600020905b815481526020019060010190808311610e17575b50505050509050915091509091565b610d6c338383611d83565b600a5473ffffffffffffffffffffffffffffffffffffffff163314610eec576040517f08c379a000000000000000000000000000000000000000000000000000000000815260206004820152602160248201527f6f6e6c792072616e6b696e6720636f6e74726163742063616e20646f2074686160448201527f7400000000000000000000000000000000000000000000000000000000000000606482015260840161055a565b73ffffffffffffffffffffffffffffffffffffffff8416610f8f576040517f08c379a000000000000000000000000000000000000000000000000000000000815260206004820152602660248201527f52616e6b546f6b656e2d3e6d696e743a2041646472657373206e6f742073706560448201527f6369666965640000000000000000000000000000000000000000000000000000606482015260840161055a565b8151600003611020576040517f08c379a000000000000000000000000000000000000000000000000000000000815260206004820152602560248201527f52616e6b546f6b656e2d3e6d696e743a20616d6f756e74206e6f74207370656360448201527f6966696564000000000000000000000000000000000000000000000000000000606482015260840161055a565b82516000036110b1576040517f08c379a000000000000000000000000000000000000000000000000000000000815260206004820152602660248201527f52616e6b546f6b656e2d3e6d696e743a20706f6f6c206964206e6f742073706560448201527f6369666965640000000000000000000000000000000000000000000000000000606482015260840161055a565b610d0f84848484611ed7565b600a5473ffffffffffffffffffffffffffffffffffffffff163314611164576040517f08c379a000000000000000000000000000000000000000000000000000000000815260206004820152602160248201527f6f6e6c792072616e6b696e6720636f6e74726163742063616e20646f2074686160448201527f7400000000000000000000000000000000000000000000000000000000000000606482015260840161055a565b61072a83838361216e565b600a5473ffffffffffffffffffffffffffffffffffffffff163314611216576040517f08c379a000000000000000000000000000000000000000000000000000000000815260206004820152602160248201527f6f6e6c792072616e6b696e6720636f6e74726163742063616e20646f2074686160448201527f7400000000000000000000000000000000000000000000000000000000000000606482015260840161055a565b61072a838383612297565b60606007805461123090613bc1565b80601f016020809104026020016040519081016040528092919081815260200182805461125c90613bc1565b80156112a95780601f1061127e576101008083540402835291602001916112a9565b820191906000526020600020905b81548152906001019060200180831161128c57829003601f168201915b5050505050905090565b73ffffffffffffffffffffffffffffffffffffffff85163314806112dc57506112dc8533610425565b611368576040517f08c379a000000000000000000000000000000000000000000000000000000000815260206004820152602e60248201527f455243313135353a2063616c6c6572206973206e6f7420746f6b656e206f776e60448201527f6572206f7220617070726f766564000000000000000000000000000000000000606482015260840161055a565b610a9d85858585856123d4565b61137d611707565b73ffffffffffffffffffffffffffffffffffffffff8116611420576040517f08c379a000000000000000000000000000000000000000000000000000000000815260206004820152602660248201527f4f776e61626c653a206e6577206f776e657220697320746865207a65726f206160448201527f6464726573730000000000000000000000000000000000000000000000000000606482015260840161055a565b61074081611d0c565b73ffffffffffffffffffffffffffffffffffffffff831633148061145257506114528333610425565b6114de576040517f08c379a000000000000000000000000000000000000000000000000000000000815260206004820152602e60248201527f455243313135353a2063616c6c6572206973206e6f7420746f6b656e206f776e60448201527f6572206f7220617070726f766564000000000000000000000000000000000000606482015260840161055a565b61072a8383836115cc565b60007fffffffff0000000000000000000000000000000000000000000000000000000082167fd9b67a2600000000000000000000000000000000000000000000000000000000148061157c57507fffffffff0000000000000000000000000000000000000000000000000000000082167f0e89341c00000000000000000000000000000000000000000000000000000000145b8061059357507f01ffc9a7000000000000000000000000000000000000000000000000000000007fffffffff00000000000000000000000000000000000000000000000000000000831614610593565b60005b6004548110156116fb57600481815481106115ec576115ec613b14565b9060005260206000200160009054906101000a900473ffffffffffffffffffffffffffffffffffffffff1673ffffffffffffffffffffffffffffffffffffffff1663f5298aca85856005858154811061164757611647613b14565b90600052602060002001548661165d9190613b72565b6040517fffffffff0000000000000000000000000000000000000000000000000000000060e086901b16815273ffffffffffffffffffffffffffffffffffffffff909316600484015260248301919091526044820152606401600060405180830381600087803b1580156116d057600080fd5b505af11580156116e4573d6000803e3d6000fd5b5050505080806116f390613b89565b9150506115cf565b5061072a83838361262e565b60065473ffffffffffffffffffffffffffffffffffffffff163314610c5a576040517f08c379a000000000000000000000000000000000000000000000000000000000815260206004820181905260248201527f4f776e61626c653a2063616c6c6572206973206e6f7420746865206f776e6572604482015260640161055a565b6002610d6c8282613ca2565b73ffffffffffffffffffffffffffffffffffffffff8416611837576040517f08c379a000000000000000000000000000000000000000000000000000000000815260206004820152602660248201527f52616e6b546f6b656e2d3e6d696e743a2041646472657373206e6f742073706560448201527f6369666965640000000000000000000000000000000000000000000000000000606482015260840161055a565b826000036118c7576040517f08c379a000000000000000000000000000000000000000000000000000000000815260206004820152602560248201527f52616e6b546f6b656e2d3e6d696e743a20616d6f756e74206e6f74207370656360448201527f6966696564000000000000000000000000000000000000000000000000000000606482015260840161055a565b81600003611957576040517f08c379a000000000000000000000000000000000000000000000000000000000815260206004820152602660248201527f52616e6b546f6b656e2d3e6d696e743a20706f6f6c206964206e6f742073706560448201527f6369666965640000000000000000000000000000000000000000000000000000606482015260840161055a565b6009548211156119aa576009829055604051829073ffffffffffffffffffffffffffffffffffffffff8616907f05c066fccc179a1b704e61617b73bc27a30a3162d36704cb8d4305064471a24090600090a35b610d0f8483858461285f565b8151835114611a47576040517f08c379a000000000000000000000000000000000000000000000000000000000815260206004820152602860248201527f455243313135353a2069647320616e6420616d6f756e7473206c656e6774682060448201527f6d69736d61746368000000000000000000000000000000000000000000000000606482015260840161055a565b73ffffffffffffffffffffffffffffffffffffffff8416611aea576040517f08c379a000000000000000000000000000000000000000000000000000000000815260206004820152602560248201527f455243313135353a207472616e7366657220746f20746865207a65726f20616460448201527f6472657373000000000000000000000000000000000000000000000000000000606482015260840161055a565b33611af981878787878761299b565b60005b8451811015611c69576000858281518110611b1957611b19613b14565b602002602001015190506000858381518110611b3757611b37613b14565b6020908102919091018101516000848152808352604080822073ffffffffffffffffffffffffffffffffffffffff8e168352909352919091205490915081811015611c04576040517f08c379a000000000000000000000000000000000000000000000000000000000815260206004820152602a60248201527f455243313135353a20696e73756666696369656e742062616c616e636520666f60448201527f72207472616e7366657200000000000000000000000000000000000000000000606482015260840161055a565b60008381526020818152604080832073ffffffffffffffffffffffffffffffffffffffff8e8116855292528083208585039055908b16825281208054849290611c4e908490613dbc565b9250508190555050505080611c6290613b89565b9050611afc565b508473ffffffffffffffffffffffffffffffffffffffff168673ffffffffffffffffffffffffffffffffffffffff168273ffffffffffffffffffffffffffffffffffffffff167f4a39dc06d4c0dbc64b70af90fd698a233a518aa5d07e595d983b8c0526c8f7fb8787604051611ce0929190613dcf565b60405180910390a4611cf6818787878787612ae7565b611d04818787878787612d4b565b505050505050565b6006805473ffffffffffffffffffffffffffffffffffffffff8381167fffffffffffffffffffffffff0000000000000000000000000000000000000000831681179093556040519116919082907f8be0079c531659141344cd1fd0a4f28419497f9722a3daafe3b4186f6b6457e090600090a35050565b8173ffffffffffffffffffffffffffffffffffffffff168373ffffffffffffffffffffffffffffffffffffffff1603611e3e576040517f08c379a000000000000000000000000000000000000000000000000000000000815260206004820152602960248201527f455243313135353a2073657474696e6720617070726f76616c2073746174757360448201527f20666f722073656c660000000000000000000000000000000000000000000000606482015260840161055a565b73ffffffffffffffffffffffffffffffffffffffff83811660008181526001602090815260408083209487168084529482529182902080547fffffffffffffffffffffffffffffffffffffffffffffffffffffffffffffff001686151590811790915591519182527f17307eab39ab6107e8899845ad3d59bd9653f200f220920489ca2b5937696c3191015b60405180910390a3505050565b73ffffffffffffffffffffffffffffffffffffffff8416611f7a576040517f08c379a000000000000000000000000000000000000000000000000000000000815260206004820152602160248201527f455243313135353a206d696e7420746f20746865207a65726f2061646472657360448201527f7300000000000000000000000000000000000000000000000000000000000000606482015260840161055a565b815183511461200b576040517f08c379a000000000000000000000000000000000000000000000000000000000815260206004820152602860248201527f455243313135353a2069647320616e6420616d6f756e7473206c656e6774682060448201527f6d69736d61746368000000000000000000000000000000000000000000000000606482015260840161055a565b3361201b8160008787878761299b565b60005b84518110156120d05783818151811061203957612039613b14565b602002602001015160008087848151811061205657612056613b14565b6020026020010151815260200190815260200160002060008873ffffffffffffffffffffffffffffffffffffffff1673ffffffffffffffffffffffffffffffffffffffff16815260200190815260200160002060008282546120b89190613dbc565b909155508190506120c881613b89565b91505061201e565b508473ffffffffffffffffffffffffffffffffffffffff16600073ffffffffffffffffffffffffffffffffffffffff168273ffffffffffffffffffffffffffffffffffffffff167f4a39dc06d4c0dbc64b70af90fd698a233a518aa5d07e595d983b8c0526c8f7fb8787604051612148929190613dcf565b60405180910390a461215f81600087878787612ae7565b610a9d81600087878787612d4b565b73ffffffffffffffffffffffffffffffffffffffff83166000908152600360209081526040808320858452909152902054811115612208576040517f08c379a000000000000000000000000000000000000000000000000000000000815260206004820152600c60248201527f696e73756666696369656e740000000000000000000000000000000000000000604482015260640161055a565b73ffffffffffffffffffffffffffffffffffffffff8316600090815260036020908152604080832085845290915281208054839290612248908490613c14565b9091555050604051818152829073ffffffffffffffffffffffffffffffffffffffff8516907f89882ad382a3742d4db24e4dabc5000c5852aed762904db28442e4e1630a1d0790602001611eca565b73ffffffffffffffffffffffffffffffffffffffff831660009081526003602090815260408083208584529091529020546122d3908290613dbc565b6122dd84846104b9565b1015612345576040517f08c379a000000000000000000000000000000000000000000000000000000000815260206004820152600c60248201527f696e73756666696369656e740000000000000000000000000000000000000000604482015260640161055a565b73ffffffffffffffffffffffffffffffffffffffff8316600090815260036020908152604080832085845290915281208054839290612385908490613dbc565b9091555050604051818152829073ffffffffffffffffffffffffffffffffffffffff8516907fd741e738a23fd18a03a26522320d9fc6cac1fed483e215ea9150fbc2fc43385d90602001611eca565b73ffffffffffffffffffffffffffffffffffffffff8416612477576040517f08c379a000000000000000000000000000000000000000000000000000000000815260206004820152602560248201527f455243313135353a207472616e7366657220746f20746865207a65726f20616460448201527f6472657373000000000000000000000000000000000000000000000000000000606482015260840161055a565b33600061248385612fd5565b9050600061249085612fd5565b90506124a083898985858961299b565b60008681526020818152604080832073ffffffffffffffffffffffffffffffffffffffff8c1684529091529020548581101561255e576040517f08c379a000000000000000000000000000000000000000000000000000000000815260206004820152602a60248201527f455243313135353a20696e73756666696369656e742062616c616e636520666f60448201527f72207472616e7366657200000000000000000000000000000000000000000000606482015260840161055a565b60008781526020818152604080832073ffffffffffffffffffffffffffffffffffffffff8d8116855292528083208985039055908a168252812080548892906125a8908490613dbc565b9091555050604080518881526020810188905273ffffffffffffffffffffffffffffffffffffffff808b16928c821692918816917fc3d58168c5ae7397731d063d5bbf3d657854427343f4c083240f7aacaa2d0f62910160405180910390a4612615848a8a86868a612ae7565b612623848a8a8a8a8a613020565b505050505050505050565b73ffffffffffffffffffffffffffffffffffffffff83166126d1576040517f08c379a000000000000000000000000000000000000000000000000000000000815260206004820152602360248201527f455243313135353a206275726e2066726f6d20746865207a65726f206164647260448201527f6573730000000000000000000000000000000000000000000000000000000000606482015260840161055a565b3360006126dd84612fd5565b905060006126ea84612fd5565b905061270a8387600085856040518060200160405280600081525061299b565b60008581526020818152604080832073ffffffffffffffffffffffffffffffffffffffff8a168452909152902054848110156127c7576040517f08c379a0000000000000000000000000000000000000000000000000000000008152602060048201526024808201527f455243313135353a206275726e20616d6f756e7420657863656564732062616c60448201527f616e636500000000000000000000000000000000000000000000000000000000606482015260840161055a565b60008681526020818152604080832073ffffffffffffffffffffffffffffffffffffffff8b81168086529184528285208a8703905582518b81529384018a90529092908816917fc3d58168c5ae7397731d063d5bbf3d657854427343f4c083240f7aacaa2d0f62910160405180910390a461285684886000868660405180602001604052806000815250612ae7565b50505050505050565b60005b60045481101561298e576004818154811061287f5761287f613b14565b9060005260206000200160009054906101000a900473ffffffffffffffffffffffffffffffffffffffff1673ffffffffffffffffffffffffffffffffffffffff1663e2ab691d8686600585815481106128da576128da613b14565b9060005260206000200154876128f09190613b72565b6040517fffffffff0000000000000000000000000000000000000000000000000000000060e086901b16815273ffffffffffffffffffffffffffffffffffffffff909316600484015260248301919091526044820152606401600060405180830381600087803b15801561296357600080fd5b505af1158015612977573d6000803e3d6000fd5b50505050808061298690613b89565b915050612862565b50610d0f848484846131cd565b60005b8351811015612ae15773ffffffffffffffffffffffffffffffffffffffff861615612acf576129d986858381518110610c0657610c06613b14565b8382815181106129eb576129eb613b14565b6020026020010151600360008973ffffffffffffffffffffffffffffffffffffffff1673ffffffffffffffffffffffffffffffffffffffff1681526020019081526020016000206000878581518110612a4657612a46613b14565b6020026020010151815260200190815260200160002054612a679190613dbc565b1115612acf576040517f08c379a000000000000000000000000000000000000000000000000000000000815260206004820152600c60248201527f696e73756666696369656e740000000000000000000000000000000000000000604482015260640161055a565b80612ad981613b89565b91505061299e565b50611d04565b60005b835181101561285657838181518110612b0557612b05613b14565b6020026020010151600860008773ffffffffffffffffffffffffffffffffffffffff1673ffffffffffffffffffffffffffffffffffffffff16815260200190815260200160002054108015612b745750828181518110612b6757612b67613b14565b6020026020010151600014155b15612c3457838181518110612b8b57612b8b613b14565b6020026020010151600860008773ffffffffffffffffffffffffffffffffffffffff1673ffffffffffffffffffffffffffffffffffffffff16815260200190815260200160002081905550838181518110612be857612be8613b14565b60200260200101518573ffffffffffffffffffffffffffffffffffffffff167f83868f8c9b95fb4e3033e4bd8340c88ee6137771dbaf89333c960a3183258fb760405160405180910390a35b73ffffffffffffffffffffffffffffffffffffffff861615801590612cae575073ffffffffffffffffffffffffffffffffffffffff8616600090815260086020526040902054612c85908790610d15565b73ffffffffffffffffffffffffffffffffffffffff871660009081526008602052604090205414155b15612d395773ffffffffffffffffffffffffffffffffffffffff8616600090815260086020526040812054612ce4908890610d15565b73ffffffffffffffffffffffffffffffffffffffff88166000818152600860205260408082208490555192935083927f83868f8c9b95fb4e3033e4bd8340c88ee6137771dbaf89333c960a3183258fb79190a3505b80612d4381613b89565b915050612aea565b73ffffffffffffffffffffffffffffffffffffffff84163b15611d04576040517fbc197c8100000000000000000000000000000000000000000000000000000000815273ffffffffffffffffffffffffffffffffffffffff85169063bc197c8190612dc29089908990889088908890600401613dfd565b6020604051808303816000875af1925050508015612e1b575060408051601f3d9081017fffffffffffffffffffffffffffffffffffffffffffffffffffffffffffffffe0168201909252612e1891810190613e68565b60015b612f0457612e27613e85565b806308c379a003612e7a5750612e3b613ea1565b80612e465750612e7c565b806040517f08c379a000000000000000000000000000000000000000000000000000000000815260040161055a919061367a565b505b6040517f08c379a000000000000000000000000000000000000000000000000000000000815260206004820152603460248201527f455243313135353a207472616e7366657220746f206e6f6e2d4552433131353560448201527f526563656976657220696d706c656d656e746572000000000000000000000000606482015260840161055a565b7fffffffff0000000000000000000000000000000000000000000000000000000081167fbc197c810000000000000000000000000000000000000000000000000000000014612856576040517f08c379a000000000000000000000000000000000000000000000000000000000815260206004820152602860248201527f455243313135353a204552433131353552656365697665722072656a6563746560448201527f6420746f6b656e73000000000000000000000000000000000000000000000000606482015260840161055a565b6040805160018082528183019092526060916000919060208083019080368337019050509050828160008151811061300f5761300f613b14565b602090810291909101015292915050565b73ffffffffffffffffffffffffffffffffffffffff84163b15611d04576040517ff23a6e6100000000000000000000000000000000000000000000000000000000815273ffffffffffffffffffffffffffffffffffffffff85169063f23a6e61906130979089908990889088908890600401613f49565b6020604051808303816000875af19250505080156130f0575060408051601f3d9081017fffffffffffffffffffffffffffffffffffffffffffffffffffffffffffffffe01682019092526130ed91810190613e68565b60015b6130fc57612e27613e85565b7fffffffff0000000000000000000000000000000000000000000000000000000081167ff23a6e610000000000000000000000000000000000000000000000000000000014612856576040517f08c379a000000000000000000000000000000000000000000000000000000000815260206004820152602860248201527f455243313135353a204552433131353552656365697665722072656a6563746560448201527f6420746f6b656e73000000000000000000000000000000000000000000000000606482015260840161055a565b73ffffffffffffffffffffffffffffffffffffffff8416613270576040517f08c379a000000000000000000000000000000000000000000000000000000000815260206004820152602160248201527f455243313135353a206d696e7420746f20746865207a65726f2061646472657360448201527f7300000000000000000000000000000000000000000000000000000000000000606482015260840161055a565b33600061327c85612fd5565b9050600061328985612fd5565b905061329a8360008985858961299b565b60008681526020818152604080832073ffffffffffffffffffffffffffffffffffffffff8b168452909152812080548792906132d7908490613dbc565b9091555050604080518781526020810187905273ffffffffffffffffffffffffffffffffffffffff808a1692600092918716917fc3d58168c5ae7397731d063d5bbf3d657854427343f4c083240f7aacaa2d0f62910160405180910390a461334483600089858589612ae7565b61285683600089898989613020565b803573ffffffffffffffffffffffffffffffffffffffff8116811461337757600080fd5b919050565b6000806040838503121561338f57600080fd5b61339883613353565b946020939093013593505050565b7fffffffff000000000000000000000000000000000000000000000000000000008116811461074057600080fd5b6000602082840312156133e657600080fd5b8135610ae9816133a6565b60008060006060848603121561340657600080fd5b61340f84613353565b95602085013595506040909401359392505050565b7f4e487b7100000000000000000000000000000000000000000000000000000000600052604160045260246000fd5b7fffffffffffffffffffffffffffffffffffffffffffffffffffffffffffffffe0601f830116810181811067ffffffffffffffff8211171561349757613497613424565b6040525050565b600067ffffffffffffffff8311156134b8576134b8613424565b6040516134ed60207fffffffffffffffffffffffffffffffffffffffffffffffffffffffffffffffe0601f8701160182613453565b80915083815284848401111561350257600080fd5b83836020830137600060208583010152509392505050565b60006020828403121561352c57600080fd5b813567ffffffffffffffff81111561354357600080fd5b8201601f8101841361355457600080fd5b6135638482356020840161349e565b949350505050565b60006020828403121561357d57600080fd5b610ae982613353565b600082601f83011261359757600080fd5b610ae98383356020850161349e565b6000806000606084860312156135bb57600080fd5b6135c484613353565b925060208401359150604084013567ffffffffffffffff8111156135e757600080fd5b6135f386828701613586565b9150509250925092565b60006020828403121561360f57600080fd5b5035919050565b6000815180845260005b8181101561363c57602081850181015186830182015201613620565b5060006020828601015260207fffffffffffffffffffffffffffffffffffffffffffffffffffffffffffffffe0601f83011685010191505092915050565b602081526000610ae96020830184613616565b600067ffffffffffffffff8211156136a7576136a7613424565b5060051b60200190565b600082601f8301126136c257600080fd5b813560206136cf8261368d565b6040516136dc8282613453565b83815260059390931b85018201928281019150868411156136fc57600080fd5b8286015b848110156137175780358352918301918301613700565b509695505050505050565b600080600080600060a0868803121561373a57600080fd5b61374386613353565b945061375160208701613353565b9350604086013567ffffffffffffffff8082111561376e57600080fd5b61377a89838a016136b1565b9450606088013591508082111561379057600080fd5b61379c89838a016136b1565b935060808801359150808211156137b257600080fd5b506137bf88828901613586565b9150509295509295909350565b600080604083850312156137df57600080fd5b823567ffffffffffffffff808211156137f757600080fd5b818501915085601f83011261380b57600080fd5b813560206138188261368d565b6040516138258282613453565b83815260059390931b850182019282810191508984111561384557600080fd5b948201945b8386101561386a5761385b86613353565b8252948201949082019061384a565b9650508601359250508082111561388057600080fd5b5061388d858286016136b1565b9150509250929050565b600081518084526020808501945080840160005b838110156138c7578151875295820195908201906001016138ab565b509495945050505050565b602081526000610ae96020830184613897565b600080600080608085870312156138fb57600080fd5b61390485613353565b93506020850135925060408501359150606085013567ffffffffffffffff81111561392e57600080fd5b61393a87828801613586565b91505092959194509250565b604080825283519082018190526000906020906060840190828701845b8281101561399557815173ffffffffffffffffffffffffffffffffffffffff1684529284019290840190600101613963565b505050838103828501526139a98186613897565b9695505050505050565b600080604083850312156139c657600080fd5b6139cf83613353565b9150602083013580151581146139e457600080fd5b809150509250929050565b60008060008060808587031215613a0557600080fd5b613a0e85613353565b9350602085013567ffffffffffffffff80821115613a2b57600080fd5b613a37888389016136b1565b94506040870135915080821115613a4d57600080fd5b613a59888389016136b1565b93506060870135915080821115613a6f57600080fd5b5061393a87828801613586565b60008060408385031215613a8f57600080fd5b613a9883613353565b9150613aa660208401613353565b90509250929050565b600080600080600060a08688031215613ac757600080fd5b613ad086613353565b9450613ade60208701613353565b93506040860135925060608601359150608086013567ffffffffffffffff811115613b0857600080fd5b6137bf88828901613586565b7f4e487b7100000000000000000000000000000000000000000000000000000000600052603260045260246000fd5b7f4e487b7100000000000000000000000000000000000000000000000000000000600052601160045260246000fd5b808202811582820484141761059357610593613b43565b60007fffffffffffffffffffffffffffffffffffffffffffffffffffffffffffffffff8203613bba57613bba613b43565b5060010190565b600181811c90821680613bd557607f821691505b602082108103613c0e577f4e487b7100000000000000000000000000000000000000000000000000000000600052602260045260246000fd5b50919050565b8181038181111561059357610593613b43565b600081613c3657613c36613b43565b507fffffffffffffffffffffffffffffffffffffffffffffffffffffffffffffffff0190565b601f82111561072a57600081815260208120601f850160051c81016020861015613c835750805b601f850160051c820191505b81811015611d0457828155600101613c8f565b815167ffffffffffffffff811115613cbc57613cbc613424565b613cd081613cca8454613bc1565b84613c5c565b602080601f831160018114613d235760008415613ced5750858301515b7fffffffffffffffffffffffffffffffffffffffffffffffffffffffffffffffff600386901b1c1916600185901b178555611d04565b6000858152602081207fffffffffffffffffffffffffffffffffffffffffffffffffffffffffffffffe08616915b82811015613d7057888601518255948401946001909101908401613d51565b5085821015613dac57878501517fffffffffffffffffffffffffffffffffffffffffffffffffffffffffffffffff600388901b60f8161c191681555b5050505050600190811b01905550565b8082018082111561059357610593613b43565b604081526000613de26040830185613897565b8281036020840152613df48185613897565b95945050505050565b600073ffffffffffffffffffffffffffffffffffffffff808816835280871660208401525060a06040830152613e3660a0830186613897565b8281036060840152613e488186613897565b90508281036080840152613e5c8185613616565b98975050505050505050565b600060208284031215613e7a57600080fd5b8151610ae9816133a6565b600060033d1115613e9e5760046000803e5060005160e01c5b90565b600060443d1015613eaf5790565b6040517ffffffffffffffffffffffffffffffffffffffffffffffffffffffffffffffffc803d016004833e81513d67ffffffffffffffff8160248401118184111715613efd57505050505090565b8285019150815181811115613f155750505050505090565b843d8701016020828501011115613f2f5750505050505090565b613f3e60208286010187613453565b509095945050505050565b600073ffffffffffffffffffffffffffffffffffffffff808816835280871660208401525084604083015283606083015260a06080830152613f8e60a0830184613616565b97965050505050505056fea2646970667358221220812bd2954dfeeae0d116de71179bc84f20928278138ce61872e78ade1bcd22ce64736f6c63430008140033",
  "devdoc": {
    "events": {
      "ApprovalForAll(address,address,bool)": {
        "details": "Emitted when `account` grants or revokes permission to `operator` to transfer their tokens, according to `approved`."
      },
      "TransferBatch(address,address,address,uint256[],uint256[])": {
        "details": "Equivalent to multiple {TransferSingle} events, where `operator`, `from` and `to` are the same for all transfers."
      },
      "TransferSingle(address,address,address,uint256,uint256)": {
        "details": "Emitted when `value` tokens of token type `id` are transferred from `from` to `to` by `operator`."
      },
      "URI(string,uint256)": {
        "details": "Emitted when the URI for token type `id` changes to `value`, if it is a non-programmatic URI. If an {URI} event was emitted for `id`, the standard https://eips.ethereum.org/EIPS/eip-1155#metadata-extensions[guarantees] that `value` will equal the value returned by {IERC1155MetadataURI-uri}."
      }
    },
    "kind": "dev",
    "methods": {
      "balanceOf(address,uint256)": {
        "details": "See {IERC1155-balanceOf}. Requirements: - `account` cannot be the zero address."
      },
      "balanceOfBatch(address[],uint256[])": {
        "details": "See {IERC1155-balanceOfBatch}. Requirements: - `accounts` and `ids` must have the same length."
      },
      "batchMint(address,uint256[],uint256[],bytes)": {
        "details": "Mints specified amounts of tokens to an account. `to` is the address of the account to mint the tokens to. `ids` is the array of IDs of the tokens to mint. `amounts` is the array of amounts of tokens to mint. `data` is the additional data."
      },
      "burn(address,uint256,uint256)": {
        "details": "Burns a specified amount of tokens from the given account. This will burn all underlying (composite) assets Requirements: - `account` must be the token owner or an approved operator. - `id` and `value` must be valid token ID and amount to burn. - All underlying \"composite\" assets implement burn as well",
        "params": {
          "account": "The address of the token owner.",
          "id": "The ID of the token to burn.",
          "value": "The amount of tokens to burn."
        }
      },
      "decompose(address,uint256,uint256)": {
        "details": "Decomposes a composite ERC1155 token into its individual components. This function unlocks the specified amount of the composite token from each dimension, and then burns the specified amount of the composite token from the caller's balance.",
        "params": {
          "amount": "The amount of the composite token to decompose.",
          "from": "The address from which the composite token is being decomposed.",
          "id": "The ID of the composite token being decomposed."
        }
      },
      "findNewRank(address,uint256)": {
        "details": "Finds the new rank of an account. `account` is the address of the account. `oldRank` is the old rank of the account. It checks the balance of the account and returns the new rank that can be upgraded to. Returns: - The new rank of the account."
      },
      "getAccountRank(address)": {
        "details": "Gets the rank of an account. `account` is the address of the account. Returns: - The rank of the account."
      },
      "getComponents()": {
        "details": "Retrieves the components of the CompositeERC1155 contract.",
        "returns": {
          "_0": "An array of component addresses and an array of component weights."
        }
      },
      "getRankingInstance()": {
        "details": "Gets the ranking instance which can emit new rank updates and mint rank tokens. Returns: - The address of the ranking instance."
      },
      "isApprovedForAll(address,address)": {
        "details": "See {IERC1155-isApprovedForAll}."
      },
      "owner()": {
        "details": "Returns the address of the current owner."
      },
      "renounceOwnership()": {
        "details": "Leaves the contract without owner. It will not be possible to call `onlyOwner` functions. Can only be called by the current owner. NOTE: Renouncing ownership will leave the contract without an owner, thereby disabling any functionality that is only available to the owner."
      },
      "safeBatchTransferFrom(address,address,uint256[],uint256[],bytes)": {
        "details": "See {IERC1155-safeBatchTransferFrom}."
      },
      "safeTransferFrom(address,address,uint256,uint256,bytes)": {
        "details": "See {IERC1155-safeTransferFrom}."
      },
      "setApprovalForAll(address,bool)": {
        "details": "See {IERC1155-setApprovalForAll}."
      },
      "transferOwnership(address)": {
        "details": "Transfers ownership of the contract to a new account (`newOwner`). Can only be called by the current owner."
      },
      "unlockedBalanceOf(address,uint256)": {
        "details": "Returns the unlocked balance of a specific ERC1155 token for an account. The unlocked balance is calculated by subtracting the locked amount from the total balance.",
        "params": {
          "account": "The address of the account.",
          "id": "The ID of the ERC1155 token."
        },
        "returns": {
          "_0": "The unlocked balance of the ERC1155 token for the account."
        }
      },
      "updateRankingInstance(address)": {
        "details": "Updates the ranking instance. `newRankingInstance` is the address of the new ranking instance. emits a _RankingInstanceUpdated_ event."
      },
      "uri(uint256)": {
        "details": "See {IERC1155MetadataURI-uri}. This implementation returns the same URI for *all* token types. It relies on the token type ID substitution mechanism https://eips.ethereum.org/EIPS/eip-1155#metadata[defined in the EIP]. Clients calling this function must replace the `\\{id\\}` substring with the actual token type ID."
      }
    },
    "version": 1
  },
  "userdoc": {
    "kind": "user",
    "methods": {},
    "version": 1
  },
  "storageLayout": {
    "storage": [
      {
        "astId": 303,
        "contract": "src/tokens/RankToken.sol:RankToken",
        "label": "_balances",
        "offset": 0,
        "slot": "0",
        "type": "t_mapping(t_uint256,t_mapping(t_address,t_uint256))"
      },
      {
        "astId": 309,
        "contract": "src/tokens/RankToken.sol:RankToken",
        "label": "_operatorApprovals",
        "offset": 0,
        "slot": "1",
        "type": "t_mapping(t_address,t_mapping(t_address,t_bool))"
      },
      {
        "astId": 311,
        "contract": "src/tokens/RankToken.sol:RankToken",
        "label": "_uri",
        "offset": 0,
        "slot": "2",
        "type": "t_string_storage"
      },
      {
        "astId": 15151,
        "contract": "src/tokens/RankToken.sol:RankToken",
        "label": "lockedAmounts",
        "offset": 0,
        "slot": "3",
        "type": "t_mapping(t_address,t_mapping(t_uint256,t_uint256))"
      },
      {
        "astId": 14866,
        "contract": "src/tokens/RankToken.sol:RankToken",
        "label": "dimensions",
        "offset": 0,
        "slot": "4",
        "type": "t_array(t_address)dyn_storage"
      },
      {
        "astId": 14869,
        "contract": "src/tokens/RankToken.sol:RankToken",
        "label": "weights",
        "offset": 0,
        "slot": "5",
        "type": "t_array(t_uint256)dyn_storage"
      },
      {
        "astId": 7,
        "contract": "src/tokens/RankToken.sol:RankToken",
        "label": "_owner",
        "offset": 0,
        "slot": "6",
        "type": "t_address"
      },
      {
        "astId": 28218,
        "contract": "src/tokens/RankToken.sol:RankToken",
        "label": "_contractURI",
        "offset": 0,
        "slot": "7",
        "type": "t_string_storage"
      },
      {
        "astId": 28222,
        "contract": "src/tokens/RankToken.sol:RankToken",
        "label": "rank",
        "offset": 0,
        "slot": "8",
        "type": "t_mapping(t_address,t_uint256)"
      },
      {
        "astId": 28224,
        "contract": "src/tokens/RankToken.sol:RankToken",
        "label": "topRank",
        "offset": 0,
        "slot": "9",
        "type": "t_uint256"
      },
      {
        "astId": 28226,
        "contract": "src/tokens/RankToken.sol:RankToken",
        "label": "_rankingInstance",
        "offset": 0,
        "slot": "10",
        "type": "t_address"
      },
      {
        "astId": 28228,
        "contract": "src/tokens/RankToken.sol:RankToken",
        "label": "_levelUpThreshold",
        "offset": 0,
        "slot": "11",
        "type": "t_uint256"
      }
    ],
    "types": {
      "t_address": {
        "encoding": "inplace",
        "label": "address",
        "numberOfBytes": "20"
      },
      "t_array(t_address)dyn_storage": {
        "base": "t_address",
        "encoding": "dynamic_array",
        "label": "address[]",
        "numberOfBytes": "32"
      },
      "t_array(t_uint256)dyn_storage": {
        "base": "t_uint256",
        "encoding": "dynamic_array",
        "label": "uint256[]",
        "numberOfBytes": "32"
      },
      "t_bool": {
        "encoding": "inplace",
        "label": "bool",
        "numberOfBytes": "1"
      },
      "t_mapping(t_address,t_bool)": {
        "encoding": "mapping",
        "key": "t_address",
        "label": "mapping(address => bool)",
        "numberOfBytes": "32",
        "value": "t_bool"
      },
      "t_mapping(t_address,t_mapping(t_address,t_bool))": {
        "encoding": "mapping",
        "key": "t_address",
        "label": "mapping(address => mapping(address => bool))",
        "numberOfBytes": "32",
        "value": "t_mapping(t_address,t_bool)"
      },
      "t_mapping(t_address,t_mapping(t_uint256,t_uint256))": {
        "encoding": "mapping",
        "key": "t_address",
        "label": "mapping(address => mapping(uint256 => uint256))",
        "numberOfBytes": "32",
        "value": "t_mapping(t_uint256,t_uint256)"
      },
      "t_mapping(t_address,t_uint256)": {
        "encoding": "mapping",
        "key": "t_address",
        "label": "mapping(address => uint256)",
        "numberOfBytes": "32",
        "value": "t_uint256"
      },
      "t_mapping(t_uint256,t_mapping(t_address,t_uint256))": {
        "encoding": "mapping",
        "key": "t_uint256",
        "label": "mapping(uint256 => mapping(address => uint256))",
        "numberOfBytes": "32",
        "value": "t_mapping(t_address,t_uint256)"
      },
      "t_mapping(t_uint256,t_uint256)": {
        "encoding": "mapping",
        "key": "t_uint256",
        "label": "mapping(uint256 => uint256)",
        "numberOfBytes": "32",
        "value": "t_uint256"
      },
      "t_string_storage": {
        "encoding": "bytes",
        "label": "string",
        "numberOfBytes": "32"
      },
      "t_uint256": {
        "encoding": "inplace",
        "label": "uint256",
        "numberOfBytes": "32"
      }
    }
  }
}