{
  "address": "0x8F16eAf97b2C869275eE7aB430262e3Ad5d44051",
  "abi": [
    {
      "inputs": [],
      "stateMutability": "nonpayable",
      "type": "constructor"
    },
    {
      "anonymous": false,
      "inputs": [
        {
          "indexed": true,
          "internalType": "uint256",
          "name": "gameId",
          "type": "uint256"
        }
      ],
      "name": "GameClosed",
      "type": "event"
    },
    {
      "anonymous": false,
      "inputs": [
        {
          "indexed": true,
          "internalType": "uint256",
          "name": "gameId",
          "type": "uint256"
        },
        {
          "indexed": true,
          "internalType": "address[]",
          "name": "players",
          "type": "address[]"
        },
        {
          "indexed": true,
          "internalType": "uint256[]",
          "name": "scores",
          "type": "uint256[]"
        }
      ],
      "name": "GameOver",
      "type": "event"
    },
    {
      "anonymous": false,
      "inputs": [
        {
          "indexed": true,
          "internalType": "uint256",
          "name": "gameId",
          "type": "uint256"
        }
      ],
      "name": "GameStarted",
      "type": "event"
    },
    {
      "anonymous": false,
      "inputs": [
        {
          "indexed": true,
          "internalType": "uint256",
          "name": "gameId",
          "type": "uint256"
        }
      ],
      "name": "LastTurn",
      "type": "event"
    },
    {
      "anonymous": false,
      "inputs": [
        {
          "indexed": true,
          "internalType": "uint256",
          "name": "gameId",
          "type": "uint256"
        }
      ],
      "name": "OverTime",
      "type": "event"
    },
    {
      "anonymous": false,
      "inputs": [
        {
          "indexed": true,
          "internalType": "uint256",
          "name": "gameId",
          "type": "uint256"
        },
        {
          "indexed": false,
          "internalType": "address",
          "name": "participant",
          "type": "address"
        }
      ],
      "name": "PlayerJoined",
      "type": "event"
    },
    {
      "anonymous": false,
      "inputs": [
        {
          "indexed": true,
          "internalType": "uint256",
          "name": "gameId",
          "type": "uint256"
        },
        {
          "indexed": true,
          "internalType": "address",
          "name": "player",
          "type": "address"
        }
      ],
      "name": "PlayerLeft",
      "type": "event"
    },
    {
      "anonymous": false,
      "inputs": [
        {
          "indexed": true,
          "internalType": "uint256",
          "name": "gameId",
          "type": "uint256"
        },
        {
          "indexed": true,
          "internalType": "uint256",
          "name": "turn",
          "type": "uint256"
        },
        {
          "indexed": true,
          "internalType": "string",
          "name": "proposalHash",
          "type": "string"
        },
        {
          "indexed": false,
          "internalType": "string",
          "name": "proposal",
          "type": "string"
        },
        {
          "indexed": false,
          "internalType": "uint256",
          "name": "score",
          "type": "uint256"
        }
      ],
      "name": "ProposalScore",
      "type": "event"
    },
    {
      "anonymous": false,
      "inputs": [
        {
          "indexed": true,
          "internalType": "uint256",
          "name": "gameId",
          "type": "uint256"
        },
        {
          "indexed": true,
          "internalType": "uint256",
          "name": "turn",
          "type": "uint256"
        },
        {
          "indexed": true,
          "internalType": "address",
          "name": "proposer",
          "type": "address"
        },
        {
          "indexed": false,
          "internalType": "bytes32",
          "name": "commitmentHash",
          "type": "bytes32"
        },
        {
          "indexed": false,
          "internalType": "string",
          "name": "proposalEncryptedByGM",
          "type": "string"
        }
      ],
      "name": "ProposalSubmitted",
      "type": "event"
    },
    {
      "anonymous": false,
      "inputs": [
        {
          "indexed": true,
          "internalType": "uint256",
          "name": "gameid",
          "type": "uint256"
        }
      ],
      "name": "RegistrationOpen",
      "type": "event"
    },
    {
      "anonymous": false,
      "inputs": [
        {
          "indexed": true,
          "internalType": "uint256",
          "name": "gameId",
          "type": "uint256"
        },
        {
          "indexed": true,
          "internalType": "uint256",
          "name": "turn",
          "type": "uint256"
        },
        {
          "indexed": false,
          "internalType": "address[]",
          "name": "players",
          "type": "address[]"
        },
        {
          "indexed": false,
          "internalType": "uint256[]",
          "name": "scores",
          "type": "uint256[]"
        },
        {
          "indexed": false,
          "internalType": "string[]",
          "name": "newProposals",
          "type": "string[]"
        },
        {
          "indexed": false,
          "internalType": "uint256[]",
          "name": "proposerIndicies",
          "type": "uint256[]"
        },
        {
          "indexed": false,
          "internalType": "uint256[][]",
          "name": "votes",
          "type": "uint256[][]"
        }
      ],
      "name": "TurnEnded",
      "type": "event"
    },
    {
      "anonymous": false,
      "inputs": [
        {
          "indexed": true,
          "internalType": "uint256",
          "name": "gameId",
          "type": "uint256"
        },
        {
          "indexed": true,
          "internalType": "uint256",
          "name": "turn",
          "type": "uint256"
        },
        {
          "indexed": true,
          "internalType": "address",
          "name": "player",
          "type": "address"
        },
        {
          "indexed": false,
          "internalType": "string",
          "name": "votesHidden",
          "type": "string"
        }
      ],
      "name": "VoteSubmitted",
      "type": "event"
    },
    {
      "anonymous": false,
      "inputs": [
        {
          "indexed": false,
          "internalType": "uint256",
          "name": "gameId",
          "type": "uint256"
        },
        {
          "indexed": true,
          "internalType": "address",
          "name": "gm",
          "type": "address"
        },
        {
          "indexed": true,
          "internalType": "address",
          "name": "creator",
          "type": "address"
        },
        {
          "indexed": true,
          "internalType": "uint256",
          "name": "rank",
          "type": "uint256"
        }
      ],
      "name": "gameCreated",
      "type": "event"
    },
    {
      "inputs": [],
      "name": "fireAll",
      "outputs": [],
      "stateMutability": "nonpayable",
      "type": "function"
    }
  ],
  "transactionHash": "0xaeac628603e84b702e7ccc2b750f3354973aea15b1f707b98e3bdfb2d08af2d9",
  "args": [],
  "numDeployments": 1,
  "solcInputHash": "b7ddbc229d48443da95bde7baaf0bf3a",
  "bytecode": "0x60006101208181526101408290526001610160819052600261018081905260036101a081905260809384526101c08581526101e086905261020084905261022083905261024082905260a0526102608381526102808690526102a08690526102c08390526102e082905260c05261030083815261032083905261034082905261036086905261038086905260e0526104406040526103a09283526103c0919091526103e05261040083905261042083905261010052620000c291906005620002c7565b50348015620000d057600080fd5b5060408051600580825260c082019092526000916020820160a08036833701905050905060005b6005816001600160a01b0316101562000156578082826001600160a01b031681518110620001295762000129620003d1565b6001600160a01b0390921660209283029190910190910152806200014d81620003e7565b915050620000f7565b5060408051600580825260c082019092526000916020820160a08036833701905050905060005b6005816001600160a01b03161015620001d857806001600160a01b031682826001600160a01b031681518110620001b857620001b8620003d1565b602090810291909101015280620001cf81620003e7565b9150506200017d565b5060408051600580825260c08201909252600091816020015b6060815260200190600190039081620001f157905050905060005b6005816001600160a01b0316101562000278576040518060600160405280602b815260200162000f5d602b913982826001600160a01b031681518110620002575762000257620003d1565b602002602001018190525080806200026f90620003e7565b9150506200020c565b506001807f69a9400160c8f6e71eb8c0ab9c5824e20304af8146719a7625c9d15675ebb6d3858585876000604051620002b69594939291906200055a565b60405180910390a350505062000603565b82805482825590600052602060002090810192821562000313579160200282015b828111156200031357825162000302908390600562000325565b5091602001919060010190620002e8565b506200032192915062000376565b5090565b82805482825590600052602060002090810192821562000368579160200282015b8281111562000368578251829060ff1690559160200191906001019062000346565b506200032192915062000397565b80821115620003215760006200038d8282620003ae565b5060010162000376565b5b8082111562000321576000815560010162000398565b5080546000825590600052602060002090810190620003ce919062000397565b50565b634e487b7160e01b600052603260045260246000fd5b60006001600160a01b038281166002600160a01b031981016200041a57634e487b7160e01b600052601160045260246000fd5b6001019392505050565b600081518084526020808501945080840160005b83811015620004565781518752958201959082019060010162000438565b509495945050505050565b6000815180845260208085019450848260051b86018286016000805b86811015620004d9578484038a5282518051808652835b81811015620004b1578281018901518782018a0152880162000494565b5085810188018490529a87019a601f01601f191690940186019350918501916001016200047d565b509198975050505050505050565b6000815480845260208085019450848260051b86016000868152838120815b86811015620004d9578484038a5281548085528284528684208786019190855b82811015620005445781548452928901926001918201910162000526565b5050509986019993506001918201910162000506565b60a0808252865190820181905260009060209060c0840190828a01845b828110156200059e5781516001600160a01b03168452928401929084019060010162000577565b50505083810382850152620005b4818962000424565b9150508281036040840152620005cb818762000461565b90508281036060840152620005e1818662000424565b90508281036080840152620005f78185620004e7565b98975050505050505050565b61094a80620006136000396000f3fe608060405234801561001057600080fd5b506004361061002b5760003560e01c80637c9946a814610030575b600080fd5b61003861003a565b005b60408051600580825260c082019092526000916020820160a08036833701905050905060005b60058173ffffffffffffffffffffffffffffffffffffffff1610156100df5780828273ffffffffffffffffffffffffffffffffffffffff16815181106100a8576100a86105ee565b73ffffffffffffffffffffffffffffffffffffffff90921660209283029190910190910152806100d78161061d565b915050610060565b5060408051600580825260c082019092526000916020820160a08036833701905050905060005b60058173ffffffffffffffffffffffffffffffffffffffff161015610181578073ffffffffffffffffffffffffffffffffffffffff16828273ffffffffffffffffffffffffffffffffffffffff1681518110610164576101646105ee565b6020908102919091010152806101798161061d565b915050610106565b5060408051600580825260c08201909252600091816020015b606081526020019060019003908161019a57905050905060005b60058173ffffffffffffffffffffffffffffffffffffffff161015610232576040518060600160405280602b81526020016108ea602b9139828273ffffffffffffffffffffffffffffffffffffffff1681518110610214576102146105ee565b6020026020010181905250808061022a9061061d565b9150506101b4565b506040516001907f16b81a8b7a63ff74301aeb7a5b3048ff92880ec2bb0773136ed953bf4ef6f47390600090a26040516001907f355ab9c54569d91a1467b11b130e91c3f6c15c3c50c7225177cfaf66ba44ddd090600090a2604080517f30783132333331323331333100000000000000000000000000000000000000008152815190819003600c0181208282526015928201929092527f536f6d65206b696e64206f662070726f706f73616c00000000000000000000006060820152600060208201526002906001907f71cc117353a39d910a72175a56496eefb857568810a5f5b11079400201be4dd49060800160405180910390a4600260017f69a9400160c8f6e71eb8c0ab9c5824e20304af8146719a7625c9d15675ebb6d38585858760006040516103659594939291906107c7565b60405180910390a36040805160008152602081019182905261038691610873565b60405180910390208360405161039c91906108a9565b604051908190038120906001907f310cab2765035ece7f5c89e2f74e216e41485f0911e38063d06de80c47e14b7e90600090a4604080516000815260208101829052600c9181018290527f307831323839303331333031000000000000000000000000000000000000000060608201526002906001907f525b2e06a8f927c08033ec5d6334d7796bbea62d2d4f0486fe60196d4fe6d0ad9060800160405180910390a4600c73ffffffffffffffffffffffffffffffffffffffff16600260017f70a202954fc6b6d8015f8bcfbc543189e19810d2e7e964e655ab5922d1ac5b4e6040516104ba9060208082526008908201527f3078313233313331000000000000000000000000000000000000000000000000604082015260600190565b60405180910390a46040516001907f5da9fef10786347975dd7cc4fc53417cff6969b0f7a9b6763169306c8cbeb63690600090a2604051600c81526001907f87969bc7faf902221a147b95ceba76e011c5efb0339a0a8ee7a2bb82d9cfbbd69060200160405180910390a26040516001907f50ad08f58a27f2851d7e3a1b3a6a46b290f2ce677e99642d30ff639721e7779090600090a260405160018152600090600e90600b907f48f48f6273652830aa3718ca489b3d13c244a7215c70bab5c5c2f523aba583b69060200160405180910390a46040516001907f71f4c9aec1b2c51302bcaf09a3f4985709759853536445493905081899603a2190600090a2604051600c906001907fb2bd643202385c64d9814c6c3fa61b1ba098d6652292e9d9a6f1a0cdae6eb82490600090a3505050565b7f4e487b7100000000000000000000000000000000000000000000000000000000600052603260045260246000fd5b600073ffffffffffffffffffffffffffffffffffffffff80831681810361066d577f4e487b7100000000000000000000000000000000000000000000000000000000600052601160045260246000fd5b6001019392505050565b600081518084526020808501945080840160005b838110156106a75781518752958201959082019060010161068b565b509495945050505050565b600081518084526020808501808196508360051b810191508286016000805b86811015610747578385038a5282518051808752835b81811015610702578281018901518882018a015288016106e7565b5086810188018490529a87019a601f017fffffffffffffffffffffffffffffffffffffffffffffffffffffffffffffffe01690950186019450918501916001016106d1565b509298975050505050505050565b600081548084526020808501808196508360051b810191506000868152838120815b86811015610747578385038a5281548086528284528684208787019190855b828110156107b257815484529289019260019182019101610796565b50505099860199945060019182019101610777565b60a0808252865190820181905260009060209060c0840190828a01845b8281101561081657815173ffffffffffffffffffffffffffffffffffffffff16845292840192908401906001016107e4565b5050508381038285015261082a8189610677565b915050828103604084015261083f81876106b2565b905082810360608401526108538186610677565b905082810360808401526108678185610755565b98975050505050505050565b815160009082906020808601845b8381101561089d57815185529382019390820190600101610881565b50929695505050505050565b815160009082906020808601845b8381101561089d57815173ffffffffffffffffffffffffffffffffffffffff16855293820193908201906001016108b756fe68747470733a2f2f7777772e796f75747562652e636f6d2f77617463683f763d4b614f433964616e784e6fa26469706673582212203bc99dd1d5c82f42e2de39f9ae7fe02d08f1cf6c2cab5d050e513ddf3b46928e64736f6c6343000814003368747470733a2f2f7777772e796f75747562652e636f6d2f77617463683f763d4b614f433964616e784e6f",
  "devdoc": {
    "kind": "dev",
    "methods": {},
    "version": 1
  },
  "userdoc": {
    "kind": "user",
    "methods": {},
    "version": 1
  },
  "storageLayout": {
    "storage": [
      {
        "astId": 144,
        "contract": "src/mocks/RankifyInstanceEventMock.sol:RankifyInstanceEventMock",
        "label": "votes",
        "offset": 0,
        "slot": "0",
        "type": "t_array(t_array(t_uint256)dyn_storage)dyn_storage"
      }
    ],
    "types": {
      "t_array(t_array(t_uint256)dyn_storage)dyn_storage": {
        "base": "t_array(t_uint256)dyn_storage",
        "encoding": "dynamic_array",
        "label": "uint256[][]",
        "numberOfBytes": "32"
      },
      "t_array(t_uint256)dyn_storage": {
        "base": "t_uint256",
        "encoding": "dynamic_array",
        "label": "uint256[]",
        "numberOfBytes": "32"
      },
      "t_uint256": {
        "encoding": "inplace",
        "label": "uint256",
        "numberOfBytes": "32"
      }
    }
  }
}