{
  "address": "0x8F16eAf97b2C869275eE7aB430262e3Ad5d44051",
  "abi": [
    {
      "inputs": [],
      "name": "InvalidInitialization",
      "type": "error"
    },
    {
      "inputs": [],
      "name": "NotInitializing",
      "type": "error"
    },
    {
      "anonymous": false,
      "inputs": [
        {
          "indexed": false,
          "internalType": "uint64",
          "name": "version",
          "type": "uint64"
        }
      ],
      "name": "Initialized",
      "type": "event"
    },
    {
      "inputs": [
        {
          "internalType": "string",
          "name": "name",
          "type": "string"
        },
        {
          "internalType": "string",
          "name": "version",
          "type": "string"
        },
        {
          "components": [
            {
              "internalType": "address",
              "name": "rewardToken",
              "type": "address"
            },
            {
              "internalType": "uint256",
              "name": "principalCost",
              "type": "uint256"
            },
            {
              "internalType": "uint96",
              "name": "principalTimeConstant",
              "type": "uint96"
            },
            {
              "internalType": "address",
              "name": "paymentToken",
              "type": "address"
            },
            {
              "internalType": "address",
              "name": "beneficiary",
              "type": "address"
            }
          ],
          "internalType": "struct RankifyInstanceInit.contractInitializer",
          "name": "initData",
          "type": "tuple"
        }
      ],
      "name": "init",
      "outputs": [],
      "stateMutability": "nonpayable",
      "type": "function"
    }
  ],
  "transactionHash": "0x798de758005764b7d5eecc30797fbadc4ed325dcf4544924dd86b3fbb8eccbf0",
  "args": [],
  "numDeployments": 1,
  "solcInputHash": "0626e7b2f6daacce34b354f8c1b3c1e7",
  "bytecode": "0x6080604052348015600f57600080fd5b506109e88061001f6000396000f3fe608060405234801561001057600080fd5b506004361061002b5760003560e01c80636d4eaddf14610030575b600080fd5b61004361003e366004610882565b610045565b005b7ff0c57e16840df040f15088dc2f81fe391c3923bec73e23a9662efc9c229c6a00805468010000000000000000810460ff16159067ffffffffffffffff166000811580156100905750825b905060008267ffffffffffffffff1660011480156100ad5750303b155b9050811580156100bb575080155b156100f2576040517ff92ee8a900000000000000000000000000000000000000000000000000000000815260040160405180910390fd5b84547fffffffffffffffffffffffffffffffffffffffffffffffff0000000000000000166001178555831561013d57845468ff00000000000000001916680100000000000000001785555b7fc8fcad8db84d3cc18b4c41d551ea0ee66dd599cde068d998e57d5e09332c131f60209081527f699d9daa71b280d05a152715774afa0a81a312594b2d731d6b0b2552b7d6f69f8054600160ff1991821681179092557ff97e938d8af42f52387bb74b8b526fda8f184cc2aa534340a8d75a88fbecc77580548216831790557f65d510a5d8f7ef134ec444f7f34ee808c8eeb5177cdfd16be0c40fe1ab43369580548216831790557f7f5828d0000000000000000000000000000000000000000000000000000000006000527f5622121b47b8cd0120c4efe45dd5483242f54a3d49bd7679be565d47694918c3805490911690911790558851898201208851898301207fe5b6a7afa77789577f2802f0da58895f660e5798c5c11b2ea18b0a53bd65d3aa8290557fe5b6a7afa77789577f2802f0da58895f660e5798c5c11b2ea18b0a53bd65d3ab819055467fe5b6a7afa77789577f2802f0da58895f660e5798c5c11b2ea18b0a53bd65d3a8819055604080517f8b73c3c69bb8fe3d512ecc4cf759cc79239f7b179b0ffacaa9a75d522b39400f8187018190528183018690526060820185905260808201939093523060a0808301919091528251808303909101815260c090910190915280519401939093207fc8fcad8db84d3cc18b4c41d551ea0ee66dd599cde068d998e57d5e09332c131c93907fe5b6a7afa77789577f2802f0da58895f660e5798c5c11b2ea18b0a53bd65d3a79081556002810180547fffffffffffffffffffffffff000000000000000000000000000000000000000016301790556005810182905560006103b47fa12d076190200dcdcbe467d038e4860de98e28ac6ff33e86413a723b4ebb26be90565b60020190508b6020015181600001819055508b604001518160010160006101000a8154816bffffffffffffffffffffffff02191690836bffffffffffffffffffffffff1602179055508b6060015181600101600c6101000a81548173ffffffffffffffffffffffffffffffffffffffff021916908373ffffffffffffffffffffffffffffffffffffffff1602179055508b600001518160020160006101000a81548173ffffffffffffffffffffffffffffffffffffffff021916908373ffffffffffffffffffffffffffffffffffffffff1602179055508b608001518160030160006101000a81548173ffffffffffffffffffffffffffffffffffffffff021916908373ffffffffffffffffffffffffffffffffffffffff16021790555060006104fb7fa12d076190200dcdcbe467d038e4860de98e28ac6ff33e86413a723b4ebb26be90565b60608e015190915073ffffffffffffffffffffffffffffffffffffffff16610584576040517f08c379a000000000000000000000000000000000000000000000000000000000815260206004820181905260248201527f696e697469616c697a65722e7061796d656e74546f6b656e206e6f742073657460448201526064015b60405180910390fd5b8c516040517f01ffc9a70000000000000000000000000000000000000000000000000000000081527fc79b8b5f00000000000000000000000000000000000000000000000000000000600482015273ffffffffffffffffffffffffffffffffffffffff8216906301ffc9a790602401602060405180830381865afa158015610610573d6000803e3d6000fd5b505050506040513d601f19601f820116820180604052508101906106349190610989565b6106e6576040517f08c379a000000000000000000000000000000000000000000000000000000000815260206004820152604960248201527f52616e6b696679496e7374616e63652d3e696e69743a2072616e6b20746f6b6560448201527f6e206164647265737320646f6573206e6f7420737570706f72742052616e6b2060648201527f696e746572666163650000000000000000000000000000000000000000000000608482015260a40161057b565b506001908101805460ff1916909117905550508715935061074a9250505057845468ff000000000000000019168555604051600181527fc7f505b2f371ae2175ee4913f4499e1f2633a7b5936321eed1cdaeb6115181d29060200160405180910390a15b5050505050505050565b7f4e487b7100000000000000000000000000000000000000000000000000000000600052604160045260246000fd5b60405160a0810167ffffffffffffffff811182821017156107a6576107a6610754565b60405290565b600082601f8301126107bd57600080fd5b813567ffffffffffffffff8111156107d7576107d7610754565b604051601f82017fffffffffffffffffffffffffffffffffffffffffffffffffffffffffffffffe0908116603f0116810167ffffffffffffffff8111828210171561082457610824610754565b60405281815283820160200185101561083c57600080fd5b816020850160208301376000918101602001919091529392505050565b803573ffffffffffffffffffffffffffffffffffffffff8116811461087d57600080fd5b919050565b600080600083850360e081121561089857600080fd5b843567ffffffffffffffff8111156108af57600080fd5b6108bb878288016107ac565b945050602085013567ffffffffffffffff8111156108d857600080fd5b6108e4878288016107ac565b93505060a07fffffffffffffffffffffffffffffffffffffffffffffffffffffffffffffffc08201121561091757600080fd5b50610920610783565b61092c60408601610859565b81526060850135602082015260808501356bffffffffffffffffffffffff8116811461095757600080fd5b604082015261096860a08601610859565b606082015261097960c08601610859565b6080820152809150509250925092565b60006020828403121561099b57600080fd5b815180151581146109ab57600080fd5b939250505056fea2646970667358221220be12714fdfcf7e8ad4633a41cc6a0c61866101b2b89967561945be05d3bb688564736f6c634300081c0033",
  "devdoc": {
    "errors": {
      "InvalidInitialization()": [
        {
          "details": "The contract is already initialized."
        }
      ],
      "NotInitializing()": [
        {
          "details": "The contract is not initializing."
        }
      ]
    },
    "events": {
      "Initialized(uint64)": {
        "details": "Triggered when the contract has been initialized or reinitialized."
      }
    },
    "kind": "dev",
    "methods": {},
    "version": 1
  },
  "userdoc": {
    "kind": "user",
    "methods": {},
    "version": 1
  },
  "storageLayout": {
    "storage": [],
    "types": null
  }
}