{
  "address": "0x29ab7FBd0A1603D59E508f79f69cdBBCa8cD9142",
  "abi": [
    {
      "anonymous": false,
      "inputs": [
        {
          "indexed": true,
          "internalType": "uint256",
          "name": "gameId",
          "type": "uint256"
        },
        {
          "components": [
            {
              "components": [
                {
                  "internalType": "uint256",
                  "name": "have",
                  "type": "uint256"
                },
                {
                  "internalType": "uint256",
                  "name": "lock",
                  "type": "uint256"
                },
                {
                  "internalType": "uint256",
                  "name": "burn",
                  "type": "uint256"
                },
                {
                  "internalType": "uint256",
                  "name": "pay",
                  "type": "uint256"
                },
                {
                  "internalType": "uint256",
                  "name": "bet",
                  "type": "uint256"
                }
              ],
              "internalType": "struct LibCoinVending.NumericCondition",
              "name": "ethValues",
              "type": "tuple"
            },
            {
              "components": [
                {
                  "internalType": "address",
                  "name": "contractAddress",
                  "type": "address"
                },
                {
                  "internalType": "uint256",
                  "name": "contractId",
                  "type": "uint256"
                },
                {
                  "internalType": "enum LibCoinVending.ContractTypes",
                  "name": "contractType",
                  "type": "uint8"
                },
                {
                  "components": [
                    {
                      "components": [
                        {
                          "internalType": "bytes",
                          "name": "data",
                          "type": "bytes"
                        },
                        {
                          "internalType": "uint256",
                          "name": "amount",
                          "type": "uint256"
                        }
                      ],
                      "internalType": "struct LibCoinVending.TransactionProperties",
                      "name": "have",
                      "type": "tuple"
                    },
                    {
                      "components": [
                        {
                          "internalType": "bytes",
                          "name": "data",
                          "type": "bytes"
                        },
                        {
                          "internalType": "uint256",
                          "name": "amount",
                          "type": "uint256"
                        }
                      ],
                      "internalType": "struct LibCoinVending.TransactionProperties",
                      "name": "lock",
                      "type": "tuple"
                    },
                    {
                      "components": [
                        {
                          "internalType": "bytes",
                          "name": "data",
                          "type": "bytes"
                        },
                        {
                          "internalType": "uint256",
                          "name": "amount",
                          "type": "uint256"
                        }
                      ],
                      "internalType": "struct LibCoinVending.TransactionProperties",
                      "name": "burn",
                      "type": "tuple"
                    },
                    {
                      "components": [
                        {
                          "internalType": "bytes",
                          "name": "data",
                          "type": "bytes"
                        },
                        {
                          "internalType": "uint256",
                          "name": "amount",
                          "type": "uint256"
                        }
                      ],
                      "internalType": "struct LibCoinVending.TransactionProperties",
                      "name": "pay",
                      "type": "tuple"
                    },
                    {
                      "components": [
                        {
                          "internalType": "bytes",
                          "name": "data",
                          "type": "bytes"
                        },
                        {
                          "internalType": "uint256",
                          "name": "amount",
                          "type": "uint256"
                        }
                      ],
                      "internalType": "struct LibCoinVending.TransactionProperties",
                      "name": "bet",
                      "type": "tuple"
                    }
                  ],
                  "internalType": "struct LibCoinVending.ContractCondition",
                  "name": "contractRequirement",
                  "type": "tuple"
                }
              ],
              "internalType": "struct LibCoinVending.configSmartRequirement[]",
              "name": "contracts",
              "type": "tuple[]"
            }
          ],
          "indexed": false,
          "internalType": "struct LibCoinVending.ConfigPosition",
          "name": "config",
          "type": "tuple"
        }
      ],
      "name": "RequirementsConfigured",
      "type": "event"
    },
    {
      "inputs": [
        {
          "internalType": "uint256",
          "name": "gameId",
          "type": "uint256"
        }
      ],
      "name": "getJoinRequirements",
      "outputs": [
        {
          "components": [
            {
              "components": [
                {
                  "internalType": "uint256",
                  "name": "have",
                  "type": "uint256"
                },
                {
                  "internalType": "uint256",
                  "name": "lock",
                  "type": "uint256"
                },
                {
                  "internalType": "uint256",
                  "name": "burn",
                  "type": "uint256"
                },
                {
                  "internalType": "uint256",
                  "name": "pay",
                  "type": "uint256"
                },
                {
                  "internalType": "uint256",
                  "name": "bet",
                  "type": "uint256"
                }
              ],
              "internalType": "struct LibCoinVending.NumericCondition",
              "name": "ethValues",
              "type": "tuple"
            },
            {
              "internalType": "uint256",
              "name": "timesRefunded",
              "type": "uint256"
            },
            {
              "internalType": "uint256",
              "name": "timesReleased",
              "type": "uint256"
            },
            {
              "internalType": "uint256",
              "name": "timesFunded",
              "type": "uint256"
            },
            {
              "internalType": "address[]",
              "name": "contractAddresses",
              "type": "address[]"
            },
            {
              "internalType": "uint256[]",
              "name": "contractIds",
              "type": "uint256[]"
            },
            {
              "internalType": "enum LibCoinVending.ContractTypes[]",
              "name": "contractTypes",
              "type": "uint8[]"
            },
            {
              "internalType": "bool",
              "name": "_isConfigured",
              "type": "bool"
            }
          ],
          "internalType": "struct LibCoinVending.ConditionReturn",
          "name": "",
          "type": "tuple"
        }
      ],
      "stateMutability": "view",
      "type": "function"
    },
    {
      "inputs": [
        {
          "internalType": "uint256",
          "name": "gameId",
          "type": "uint256"
        },
        {
          "internalType": "address",
          "name": "contractAddress",
          "type": "address"
        },
        {
          "internalType": "uint256",
          "name": "contractId",
          "type": "uint256"
        },
        {
          "internalType": "enum LibCoinVending.ContractTypes",
          "name": "contractType",
          "type": "uint8"
        }
      ],
      "name": "getJoinRequirementsByToken",
      "outputs": [
        {
          "components": [
            {
              "components": [
                {
                  "internalType": "bytes",
                  "name": "data",
                  "type": "bytes"
                },
                {
                  "internalType": "uint256",
                  "name": "amount",
                  "type": "uint256"
                }
              ],
              "internalType": "struct LibCoinVending.TransactionProperties",
              "name": "have",
              "type": "tuple"
            },
            {
              "components": [
                {
                  "internalType": "bytes",
                  "name": "data",
                  "type": "bytes"
                },
                {
                  "internalType": "uint256",
                  "name": "amount",
                  "type": "uint256"
                }
              ],
              "internalType": "struct LibCoinVending.TransactionProperties",
              "name": "lock",
              "type": "tuple"
            },
            {
              "components": [
                {
                  "internalType": "bytes",
                  "name": "data",
                  "type": "bytes"
                },
                {
                  "internalType": "uint256",
                  "name": "amount",
                  "type": "uint256"
                }
              ],
              "internalType": "struct LibCoinVending.TransactionProperties",
              "name": "burn",
              "type": "tuple"
            },
            {
              "components": [
                {
                  "internalType": "bytes",
                  "name": "data",
                  "type": "bytes"
                },
                {
                  "internalType": "uint256",
                  "name": "amount",
                  "type": "uint256"
                }
              ],
              "internalType": "struct LibCoinVending.TransactionProperties",
              "name": "pay",
              "type": "tuple"
            },
            {
              "components": [
                {
                  "internalType": "bytes",
                  "name": "data",
                  "type": "bytes"
                },
                {
                  "internalType": "uint256",
                  "name": "amount",
                  "type": "uint256"
                }
              ],
              "internalType": "struct LibCoinVending.TransactionProperties",
              "name": "bet",
              "type": "tuple"
            }
          ],
          "internalType": "struct LibCoinVending.ContractCondition",
          "name": "",
          "type": "tuple"
        }
      ],
      "stateMutability": "view",
      "type": "function"
    },
    {
      "inputs": [
        {
          "internalType": "uint256",
          "name": "gameId",
          "type": "uint256"
        },
        {
          "components": [
            {
              "components": [
                {
                  "internalType": "uint256",
                  "name": "have",
                  "type": "uint256"
                },
                {
                  "internalType": "uint256",
                  "name": "lock",
                  "type": "uint256"
                },
                {
                  "internalType": "uint256",
                  "name": "burn",
                  "type": "uint256"
                },
                {
                  "internalType": "uint256",
                  "name": "pay",
                  "type": "uint256"
                },
                {
                  "internalType": "uint256",
                  "name": "bet",
                  "type": "uint256"
                }
              ],
              "internalType": "struct LibCoinVending.NumericCondition",
              "name": "ethValues",
              "type": "tuple"
            },
            {
              "components": [
                {
                  "internalType": "address",
                  "name": "contractAddress",
                  "type": "address"
                },
                {
                  "internalType": "uint256",
                  "name": "contractId",
                  "type": "uint256"
                },
                {
                  "internalType": "enum LibCoinVending.ContractTypes",
                  "name": "contractType",
                  "type": "uint8"
                },
                {
                  "components": [
                    {
                      "components": [
                        {
                          "internalType": "bytes",
                          "name": "data",
                          "type": "bytes"
                        },
                        {
                          "internalType": "uint256",
                          "name": "amount",
                          "type": "uint256"
                        }
                      ],
                      "internalType": "struct LibCoinVending.TransactionProperties",
                      "name": "have",
                      "type": "tuple"
                    },
                    {
                      "components": [
                        {
                          "internalType": "bytes",
                          "name": "data",
                          "type": "bytes"
                        },
                        {
                          "internalType": "uint256",
                          "name": "amount",
                          "type": "uint256"
                        }
                      ],
                      "internalType": "struct LibCoinVending.TransactionProperties",
                      "name": "lock",
                      "type": "tuple"
                    },
                    {
                      "components": [
                        {
                          "internalType": "bytes",
                          "name": "data",
                          "type": "bytes"
                        },
                        {
                          "internalType": "uint256",
                          "name": "amount",
                          "type": "uint256"
                        }
                      ],
                      "internalType": "struct LibCoinVending.TransactionProperties",
                      "name": "burn",
                      "type": "tuple"
                    },
                    {
                      "components": [
                        {
                          "internalType": "bytes",
                          "name": "data",
                          "type": "bytes"
                        },
                        {
                          "internalType": "uint256",
                          "name": "amount",
                          "type": "uint256"
                        }
                      ],
                      "internalType": "struct LibCoinVending.TransactionProperties",
                      "name": "pay",
                      "type": "tuple"
                    },
                    {
                      "components": [
                        {
                          "internalType": "bytes",
                          "name": "data",
                          "type": "bytes"
                        },
                        {
                          "internalType": "uint256",
                          "name": "amount",
                          "type": "uint256"
                        }
                      ],
                      "internalType": "struct LibCoinVending.TransactionProperties",
                      "name": "bet",
                      "type": "tuple"
                    }
                  ],
                  "internalType": "struct LibCoinVending.ContractCondition",
                  "name": "contractRequirement",
                  "type": "tuple"
                }
              ],
              "internalType": "struct LibCoinVending.configSmartRequirement[]",
              "name": "contracts",
              "type": "tuple[]"
            }
          ],
          "internalType": "struct LibCoinVending.ConfigPosition",
          "name": "config",
          "type": "tuple"
        }
      ],
      "name": "setJoinRequirements",
      "outputs": [],
      "stateMutability": "nonpayable",
      "type": "function"
    }
  ],
  "transactionHash": "0x22720437bb5b87982cf254e3e5319061604a43d6512b70cd74fce8a0760f031e",
  "args": [],
  "numDeployments": 1,
  "solcInputHash": "0626e7b2f6daacce34b354f8c1b3c1e7",
  "bytecode": "0x6080604052348015600f57600080fd5b50611aac8061001f6000396000f3fe608060405234801561001057600080fd5b50600436106100415760003560e01c80638f298b2a14610046578063bbb294f81461006f578063bf0f2d7e14610084575b600080fd5b6100596100543660046110e2565b6100a4565b60405161006691906111ff565b60405180910390f35b61008261007d36600461156c565b6100c1565b005b610097610092366004611636565b61011a565b6040516100669190611738565b6100ac610f3e565b6100b885858585610131565b95945050505050565b6100cb8233610562565b6100d4826105e2565b6100de82826106e2565b817fcf4865028c280be4f5db8efbf51379eace06ea78a59dad8020a2ac3593b33fbb8260405161010e919061180e565b60405180910390a25050565b610122610fe8565b61012b82610b29565b92915050565b610139610f3e565b600061018e8660408051602080820193909352815180820384018152908201825280519083012060009081527fb12a0409539e5fa777ebbd0648c2d35d1b56f5385885518278a66364324a9138909252902090565b90508060008460028111156101a5576101a56116c6565b60028111156101b6576101b66116c6565b8152602080820192909252604090810160009081206001600160a01b0389168252835281812087825290925290819020815160e081019092528054829060a0820190839082908290610207906118f8565b80601f0160208091040260200160405190810160405280929190818152602001828054610233906118f8565b80156102805780601f1061025557610100808354040283529160200191610280565b820191906000526020600020905b81548152906001019060200180831161026357829003601f168201915b505050505081526020016001820154815250508152602001600282016040518060400160405290816000820180546102b7906118f8565b80601f01602080910402602001604051908101604052809291908181526020018280546102e3906118f8565b80156103305780601f1061030557610100808354040283529160200191610330565b820191906000526020600020905b81548152906001019060200180831161031357829003601f168201915b50505050508152602001600182015481525050815260200160048201604051806040016040529081600082018054610367906118f8565b80601f0160208091040260200160405190810160405280929190818152602001828054610393906118f8565b80156103e05780601f106103b5576101008083540402835291602001916103e0565b820191906000526020600020905b8154815290600101906020018083116103c357829003601f168201915b50505050508152602001600182015481525050815260200160068201604051806040016040529081600082018054610417906118f8565b80601f0160208091040260200160405190810160405280929190818152602001828054610443906118f8565b80156104905780601f1061046557610100808354040283529160200191610490565b820191906000526020600020905b81548152906001019060200180831161047357829003601f168201915b505050505081526020016001820154815250508152602001600882016040518060400160405290816000820180546104c7906118f8565b80601f01602080910402602001604051908101604052809291908181526020018280546104f3906118f8565b80156105405780601f1061051557610100808354040283529160200191610540565b820191906000526020600020905b81548152906001019060200180831161052357829003601f168201915b5050505050815260200160018201548152505081525050915050949350505050565b61056b82610d47565b600061057683610da4565b60028101549091506001600160a01b038381169116146105dd5760405162461bcd60e51b815260206004820152601160248201527f4f6e6c792067616d652063726561746f7200000000000000000000000000000060448201526064015b60405180910390fd5b505050565b6105eb81610ddf565b1561065e5760405162461bcd60e51b815260206004820152602360248201527f43616e6e6f7420646f207768656e20726567697374726174696f6e206973206f60448201527f70656e000000000000000000000000000000000000000000000000000000000060648201526084016105d4565b60008181527faa1f1fd6916372407d8e1fff30618f7864d63b564f087227812164c61d47c74760205260409020600c015460ff16156106df5760405162461bcd60e51b815260206004820152601b60248201527f43616e6e6f7420646f207768656e2067616d652073746172746564000000000060448201526064016105d4565b50565b60006107378360408051602080820193909352815180820384018152908201825280519083012060009081527fb12a0409539e5fa777ebbd0648c2d35d1b56f5385885518278a66364324a9138909252902090565b905080600801546000148061076257508060070154816006015461075b9190611932565b8160080154145b6107d45760405162461bcd60e51b815260206004820152603660248201527f43616e6e6f74206d757461746520706f736974696f6e2077697468206375727260448201527f656e746c7920706f7369746976652062616c616e63650000000000000000000060648201526084016105d4565b815180516001830155602081015160028301556040810151600383015560608101516004830155608001516005820155610812600a8201600061105f565b610820600b8201600061105f565b61082e60098201600061107d565b60005b826020015151811015610b165781600a018360200151828151811061085857610858611953565b60209081029190910181015151825460018101845560009384529282902090920180547fffffffffffffffffffffffff0000000000000000000000000000000000000000166001600160a01b03909316929092179091558301518051600b84019190839081106108ca576108ca611953565b60209081029190910181015181015182546001810184556000938452928290209092019190915583015180516009840191908390811061090c5761090c611953565b60209081029190910181015160400151825460018101845560009384529282902091830490910180549192909160ff601f9092166101000a91820219169083600281111561095c5761095c6116c6565b02179055508260200151818151811061097757610977611953565b6020026020010151606001518260000160008560200151848151811061099f5761099f611953565b60200260200101516040015160028111156109bc576109bc6116c6565b60028111156109cd576109cd6116c6565b81526020019081526020016000206000856020015184815181106109f3576109f3611953565b6020026020010151600001516001600160a01b03166001600160a01b03168152602001908152602001600020600085602001518481518110610a3757610a37611953565b60209081029190910181015181015182528101919091526040016000208151805182908190610a6690826119b7565b50602091820151600190910155820151805160028301908190610a8990826119b7565b50602091909101516001909101556040820151805160048301908190610aaf90826119b7565b50602091909101516001909101556060820151805160068301908190610ad590826119b7565b50602091909101516001909101556080820151805160088301908190610afb90826119b7565b50602082015181600101555050905050806001019050610831565b50600c01805460ff191660011790555050565b610b31610fe8565b6000610b868360408051602080820193909352815180820384018152908201825280519083012060009081527fb12a0409539e5fa777ebbd0648c2d35d1b56f5385885518278a66364324a9138909252902090565b9050610b90610fe8565b6040805160a081018252600184015481526002840154602080830191909152600385015482840152600485015460608084019190915260058601546080840152918452600885015491840191909152600684015483820152600784015483830152600c84015460ff16151560e0840152600a840180548351818402810184019094528084529091830182828015610c5057602002820191906000526020600020905b81546001600160a01b03168152600190910190602001808311610c32575b5050505050816080018190525081600b01805480602002602001604051908101604052809291908181526020018280548015610cab57602002820191906000526020600020905b815481526020019060010190808311610c97575b50505050508160a0018190525081600901805480602002602001604051908101604052809291908181526020018280548015610d3657602002820191906000526020600020906000905b82829054906101000a900460ff166002811115610d1457610d146116c6565b815260206001928301818104948501949093039092029101808411610cf55790505b505050505060c08201529392505050565b610d4f610e62565b610d5881610ec3565b6106df5760405162461bcd60e51b815260206004820152600e60248201527f67616d65206e6f7420666f756e6400000000000000000000000000000000000060448201526064016105d4565b60008181527faa1f1fd6916372407d8e1fff30618f7864d63b564f087227812164c61d47c747602052604081206007015481905b9392505050565b60008181527faa1f1fd6916372407d8e1fff30618f7864d63b564f087227812164c61d47c747602081905260408220600a810154600890910191908303610e2a575060009392505050565b600084815260208290526040902060030154610e469042611932565b826002015410610e57576000610e5a565b60015b949350505050565b6000610e6c610f15565b600181015490915060ff166106df5760405162461bcd60e51b815260206004820152600f60248201527f6f6e6c79496e697469616c697a6564000000000000000000000000000000000060448201526064016105d4565b60008181527faa1f1fd6916372407d8e1fff30618f7864d63b564f087227812164c61d47c7476020526040812060068101546001600160a01b031615610f0c5750600192915050565b50600092915050565b6000807fa12d076190200dcdcbe467d038e4860de98e28ac6ff33e86413a723b4ebb26be61012b565b6040805160e08101909152606060a08201908152600060c083015281908152602001610f7d604051806040016040528060608152602001600081525090565b8152602001610f9f604051806040016040528060608152602001600081525090565b8152602001610fc1604051806040016040528060608152602001600081525090565b8152602001610fe3604051806040016040528060608152602001600081525090565b905290565b6040518061010001604052806110266040518060a0016040528060008152602001600081526020016000815260200160008152602001600081525090565b81526020016000815260200160008152602001600081526020016060815260200160608152602001606081526020016000151581525090565b50805460008255906000526020600020908101906106df919061109e565b50805460008255601f0160209004906000526020600020908101906106df91905b5b808211156110b3576000815560010161109f565b5090565b80356001600160a01b03811681146110ce57600080fd5b919050565b8035600381106110ce57600080fd5b600080600080608085870312156110f857600080fd5b84359350611108602086016110b7565b92506040850135915061111d606086016110d3565b905092959194509250565b6000815160408452805180604086015260005b81811015611158576020818401810151606088840101520161113b565b50600060608287010152602084015160208601526060601f19601f8301168601019250505092915050565b6000815160a0845261119860a0850182611128565b9050602083015184820360208601526111b18282611128565b915050604083015184820360408601526111cb8282611128565b915050606083015184820360608601526111e58282611128565b915050608083015184820360808601526100b88282611128565b602081526000610dd86020830184611183565b634e487b7160e01b600052604160045260246000fd5b6040805190810167ffffffffffffffff8111828210171561124b5761124b611212565b60405290565b6040516080810167ffffffffffffffff8111828210171561124b5761124b611212565b60405160a0810167ffffffffffffffff8111828210171561124b5761124b611212565b604051601f8201601f1916810167ffffffffffffffff811182821017156112c0576112c0611212565b604052919050565b6000604082840312156112da57600080fd5b6112e2611228565b9050813567ffffffffffffffff8111156112fb57600080fd5b8201601f8101841361130c57600080fd5b803567ffffffffffffffff81111561132657611326611212565b6113396020601f19601f84011601611297565b81815285602083850101111561134e57600080fd5b81602084016020830137600060209282018301528352928301359282019290925292915050565b600082601f83011261138657600080fd5b813567ffffffffffffffff8111156113a0576113a0611212565b8060051b6113b060208201611297565b918252602081850181019290810190868411156113cc57600080fd5b6020860192505b8383101561156257823567ffffffffffffffff8111156113f257600080fd5b86016080818903601f1901121561140857600080fd5b611410611251565b61141c602083016110b7565b815260408201356020820152611434606083016110d3565b6040820152608082013567ffffffffffffffff81111561145357600080fd5b60208184010192505060a0828a03121561146c57600080fd5b611474611274565b823567ffffffffffffffff81111561148b57600080fd5b6114978b8286016112c8565b825250602083013567ffffffffffffffff8111156114b457600080fd5b6114c08b8286016112c8565b602083015250604083013567ffffffffffffffff8111156114e057600080fd5b6114ec8b8286016112c8565b604083015250606083013567ffffffffffffffff81111561150c57600080fd5b6115188b8286016112c8565b606083015250608083013567ffffffffffffffff81111561153857600080fd5b6115448b8286016112c8565b608083015250606082015283525060209283019291909101906113d3565b9695505050505050565b6000806040838503121561157f57600080fd5b82359150602083013567ffffffffffffffff81111561159d57600080fd5b830180850360c08112156115b057600080fd5b6115b8611228565b60a08212156115c657600080fd5b6115ce611274565b8335815260208085013590820152604080850135908201526060808501359082015260808085013590820152815260a0830135915067ffffffffffffffff82111561161857600080fd5b61162487838501611375565b60208201528093505050509250929050565b60006020828403121561164857600080fd5b5035919050565b600081518084526020840193506020830160005b8281101561168a5781516001600160a01b0316865260209586019590910190600101611663565b5093949350505050565b600081518084526020840193506020830160005b8281101561168a5781518652602095860195909101906001016116a8565b634e487b7160e01b600052602160045260246000fd5b600381106116fa57634e487b7160e01b600052602160045260246000fd5b9052565b600081518084526020840193506020830160005b8281101561168a576117258683516116dc565b6020958601959190910190600101611712565b6020815261177560208201835180518252602081015160208301526040810151604083015260608101516060830152608081015160808301525050565b602082015160c0820152604082015160e08201526060820151610100820152600060808301516101806101208401526117b26101a084018261164f565b905060a0840151601f19848303016101408501526117d08282611694565b91505060c0840151601f19848303016101608501526117ef82826116fe565b91505060e084015161180661018085018215159052565b509392505050565b60208152600060e0820161185160208401855180518252602081015160208301526040810151604083015260608101516060830152608081015160808301525050565b602084015160c080850152818151808452610100860191506101008160051b870101935060208301925060005b818110156118ec5760ff1987860301835283516001600160a01b0381511686526020810151602087015260408101516118ba60408801826116dc565b5060608101519050608060608701526118d66080870182611183565b955050602093840193929092019160010161187e565b50929695505050505050565b600181811c9082168061190c57607f821691505b60208210810361192c57634e487b7160e01b600052602260045260246000fd5b50919050565b8082018082111561012b57634e487b7160e01b600052601160045260246000fd5b634e487b7160e01b600052603260045260246000fd5b601f8211156105dd57806000526020600020601f840160051c810160208510156119905750805b601f840160051c820191505b818110156119b0576000815560010161199c565b5050505050565b815167ffffffffffffffff8111156119d1576119d1611212565b6119e5816119df84546118f8565b84611969565b6020601f821160018114611a195760008315611a015750848201515b600019600385901b1c1916600184901b1784556119b0565b600084815260208120601f198516915b82811015611a495787850151825560209485019460019092019101611a29565b5084821015611a675786840151600019600387901b60f8161c191681555b50505050600190811b0190555056fea2646970667358221220b8628a2833ab6b8a85bbd41e6feef5d7d3e37e2bd73045990f9825f18d23506a64736f6c634300081c0033",
  "devdoc": {
    "author": "Peeramid Labs, 2024",
    "details": "Implements functionality for setting and checking join requirements for games,      utilizing the LibCoinVending library for configuration management",
    "kind": "dev",
    "methods": {
      "getJoinRequirements(uint256)": {
        "details": "Retrieves the join requirements for a specific game.",
        "params": {
          "gameId": "The ID of the game."
        },
        "returns": {
          "_0": "The join requirements as a `LibCoinVending.ConditionReturn` struct."
        }
      },
      "getJoinRequirementsByToken(uint256,address,uint256,uint8)": {
        "details": "Retrieves the join requirements for a specific token in a game.",
        "params": {
          "contractAddress": "The address of the contract.",
          "contractId": "The ID of the contract.",
          "contractType": "The type of the contract.",
          "gameId": "The ID of the game."
        },
        "returns": {
          "_0": "The join requirements for the specified token."
        }
      },
      "setJoinRequirements(uint256,((uint256,uint256,uint256,uint256,uint256),(address,uint256,uint8,((bytes,uint256),(bytes,uint256),(bytes,uint256),(bytes,uint256),(bytes,uint256)))[]))": {
        "details": "Sets the join requirements for a specific game. Only the game creator can call this function. The game must be in the pre-registration stage.",
        "params": {
          "config": "The configuration position for the join requirements.",
          "gameId": "The ID of the game."
        }
      }
    },
    "title": "RankifyInstanceRequirementsFacet",
    "version": 1
  },
  "userdoc": {
    "kind": "user",
    "methods": {},
    "notice": "Facet handling game requirements and conditions for Rankify instances",
    "version": 1
  },
  "storageLayout": {
    "storage": [],
    "types": null
  }
}