{
  "address": "0xaDe8935badECe88660Ef4a4Bb24792a0673D8259",
  "abi": [
    {
      "anonymous": false,
      "inputs": [
        {
          "indexed": true,
          "internalType": "uint256",
          "name": "gameId",
          "type": "uint256"
        }
      ],
      "name": "GameClosed",
      "type": "event"
    },
    {
      "anonymous": false,
      "inputs": [
        {
          "indexed": true,
          "internalType": "uint256",
          "name": "gameId",
          "type": "uint256"
        }
      ],
      "name": "GameStarted",
      "type": "event"
    },
    {
      "anonymous": false,
      "inputs": [
        {
          "indexed": true,
          "internalType": "uint256",
          "name": "gameId",
          "type": "uint256"
        },
        {
          "indexed": false,
          "internalType": "address",
          "name": "participant",
          "type": "address"
        }
      ],
      "name": "PlayerJoined",
      "type": "event"
    },
    {
      "anonymous": false,
      "inputs": [
        {
          "indexed": true,
          "internalType": "uint256",
          "name": "gameId",
          "type": "uint256"
        },
        {
          "indexed": true,
          "internalType": "address",
          "name": "player",
          "type": "address"
        }
      ],
      "name": "PlayerLeft",
      "type": "event"
    },
    {
      "anonymous": false,
      "inputs": [
        {
          "indexed": true,
          "internalType": "uint256",
          "name": "gameid",
          "type": "uint256"
        }
      ],
      "name": "RegistrationOpen",
      "type": "event"
    },
    {
      "anonymous": false,
      "inputs": [
        {
          "indexed": false,
          "internalType": "uint256",
          "name": "gameId",
          "type": "uint256"
        },
        {
          "indexed": true,
          "internalType": "address",
          "name": "gm",
          "type": "address"
        },
        {
          "indexed": true,
          "internalType": "address",
          "name": "creator",
          "type": "address"
        },
        {
          "indexed": true,
          "internalType": "uint256",
          "name": "rank",
          "type": "uint256"
        }
      ],
      "name": "gameCreated",
      "type": "event"
    },
    {
      "inputs": [
        {
          "internalType": "uint256",
          "name": "gameId",
          "type": "uint256"
        }
      ],
      "name": "canEndTurn",
      "outputs": [
        {
          "internalType": "bool",
          "name": "",
          "type": "bool"
        }
      ],
      "stateMutability": "view",
      "type": "function"
    },
    {
      "inputs": [
        {
          "internalType": "uint256",
          "name": "gameId",
          "type": "uint256"
        }
      ],
      "name": "canStartGame",
      "outputs": [
        {
          "internalType": "bool",
          "name": "",
          "type": "bool"
        }
      ],
      "stateMutability": "view",
      "type": "function"
    },
    {
      "inputs": [
        {
          "internalType": "uint256",
          "name": "gameId",
          "type": "uint256"
        }
      ],
      "name": "cancelGame",
      "outputs": [],
      "stateMutability": "nonpayable",
      "type": "function"
    },
    {
      "inputs": [
        {
          "internalType": "address",
          "name": "gameMaster",
          "type": "address"
        },
        {
          "internalType": "uint256",
          "name": "gameRank",
          "type": "uint256"
        }
      ],
      "name": "createGame",
      "outputs": [],
      "stateMutability": "nonpayable",
      "type": "function"
    },
    {
      "inputs": [
        {
          "internalType": "address",
          "name": "gameMaster",
          "type": "address"
        },
        {
          "internalType": "uint256",
          "name": "gameId",
          "type": "uint256"
        },
        {
          "internalType": "uint256",
          "name": "gameRank",
          "type": "uint256"
        }
      ],
      "name": "createGame",
      "outputs": [],
      "stateMutability": "nonpayable",
      "type": "function"
    },
    {
      "inputs": [
        {
          "internalType": "address",
          "name": "gameMaster",
          "type": "address"
        },
        {
          "internalType": "uint256",
          "name": "gameId",
          "type": "uint256"
        },
        {
          "internalType": "uint256",
          "name": "gameRank",
          "type": "uint256"
        },
        {
          "internalType": "address[]",
          "name": "additionalRanks",
          "type": "address[]"
        }
      ],
      "name": "createGame",
      "outputs": [],
      "stateMutability": "nonpayable",
      "type": "function"
    },
    {
      "inputs": [
        {
          "internalType": "uint256",
          "name": "gameId",
          "type": "uint256"
        }
      ],
      "name": "gameCreator",
      "outputs": [
        {
          "internalType": "address",
          "name": "",
          "type": "address"
        }
      ],
      "stateMutability": "view",
      "type": "function"
    },
    {
      "inputs": [],
      "name": "getContractState",
      "outputs": [
        {
          "components": [
            {
              "components": [
                {
                  "internalType": "uint256",
                  "name": "gamePrice",
                  "type": "uint256"
                },
                {
                  "internalType": "address",
                  "name": "gamePaymentToken",
                  "type": "address"
                },
                {
                  "internalType": "uint256",
                  "name": "joinGamePrice",
                  "type": "uint256"
                },
                {
                  "internalType": "uint256",
                  "name": "numGames",
                  "type": "uint256"
                },
                {
                  "internalType": "address",
                  "name": "rankTokenAddress",
                  "type": "address"
                },
                {
                  "internalType": "bool",
                  "name": "contractInitialized",
                  "type": "bool"
                },
                {
                  "components": [
                    {
                      "internalType": "uint256",
                      "name": "voteCredits",
                      "type": "uint256"
                    },
                    {
                      "internalType": "uint256",
                      "name": "maxQuadraticPoints",
                      "type": "uint256"
                    },
                    {
                      "internalType": "uint256",
                      "name": "minQuadraticPositons",
                      "type": "uint256"
                    }
                  ],
                  "internalType": "struct LibQuadraticVoting.qVotingStruct",
                  "name": "voting",
                  "type": "tuple"
                }
              ],
              "internalType": "struct IRankifyInstanceCommons.RInstanceSettings",
              "name": "BestOfState",
              "type": "tuple"
            },
            {
              "components": [
                {
                  "internalType": "uint256",
                  "name": "timePerTurn",
                  "type": "uint256"
                },
                {
                  "internalType": "uint256",
                  "name": "maxPlayersSize",
                  "type": "uint256"
                },
                {
                  "internalType": "uint256",
                  "name": "minPlayersSize",
                  "type": "uint256"
                },
                {
                  "internalType": "uint256",
                  "name": "timeToJoin",
                  "type": "uint256"
                },
                {
                  "internalType": "uint256",
                  "name": "maxTurns",
                  "type": "uint256"
                },
                {
                  "internalType": "uint256",
                  "name": "numWinners",
                  "type": "uint256"
                },
                {
                  "internalType": "uint256",
                  "name": "voteCredits",
                  "type": "uint256"
                },
                {
                  "internalType": "string",
                  "name": "subject",
                  "type": "string"
                }
              ],
              "internalType": "struct LibTBG.GameSettings",
              "name": "TBGSEttings",
              "type": "tuple"
            }
          ],
          "internalType": "struct IRankifyInstanceCommons.RInstanceState",
          "name": "",
          "type": "tuple"
        }
      ],
      "stateMutability": "view",
      "type": "function"
    },
    {
      "inputs": [
        {
          "internalType": "uint256",
          "name": "gameId",
          "type": "uint256"
        }
      ],
      "name": "getGM",
      "outputs": [
        {
          "internalType": "address",
          "name": "",
          "type": "address"
        }
      ],
      "stateMutability": "view",
      "type": "function"
    },
    {
      "inputs": [
        {
          "internalType": "uint256",
          "name": "gameId",
          "type": "uint256"
        }
      ],
      "name": "getGameRank",
      "outputs": [
        {
          "internalType": "uint256",
          "name": "",
          "type": "uint256"
        }
      ],
      "stateMutability": "view",
      "type": "function"
    },
    {
      "inputs": [
        {
          "internalType": "uint256",
          "name": "gameId",
          "type": "uint256"
        }
      ],
      "name": "getPlayers",
      "outputs": [
        {
          "internalType": "address[]",
          "name": "",
          "type": "address[]"
        }
      ],
      "stateMutability": "view",
      "type": "function"
    },
    {
      "inputs": [
        {
          "internalType": "address",
          "name": "player",
          "type": "address"
        }
      ],
      "name": "getPlayersGame",
      "outputs": [
        {
          "internalType": "uint256",
          "name": "",
          "type": "uint256"
        }
      ],
      "stateMutability": "view",
      "type": "function"
    },
    {
      "inputs": [
        {
          "internalType": "uint256",
          "name": "gameId",
          "type": "uint256"
        }
      ],
      "name": "getScores",
      "outputs": [
        {
          "internalType": "address[]",
          "name": "",
          "type": "address[]"
        },
        {
          "internalType": "uint256[]",
          "name": "",
          "type": "uint256[]"
        }
      ],
      "stateMutability": "view",
      "type": "function"
    },
    {
      "inputs": [
        {
          "internalType": "uint256",
          "name": "gameId",
          "type": "uint256"
        }
      ],
      "name": "getTurn",
      "outputs": [
        {
          "internalType": "uint256",
          "name": "",
          "type": "uint256"
        }
      ],
      "stateMutability": "view",
      "type": "function"
    },
    {
      "inputs": [
        {
          "internalType": "uint256",
          "name": "gameId",
          "type": "uint256"
        }
      ],
      "name": "isGameOver",
      "outputs": [
        {
          "internalType": "bool",
          "name": "",
          "type": "bool"
        }
      ],
      "stateMutability": "view",
      "type": "function"
    },
    {
      "inputs": [
        {
          "internalType": "uint256",
          "name": "gameId",
          "type": "uint256"
        }
      ],
      "name": "isLastTurn",
      "outputs": [
        {
          "internalType": "bool",
          "name": "",
          "type": "bool"
        }
      ],
      "stateMutability": "view",
      "type": "function"
    },
    {
      "inputs": [
        {
          "internalType": "uint256",
          "name": "gameId",
          "type": "uint256"
        }
      ],
      "name": "isOvertime",
      "outputs": [
        {
          "internalType": "bool",
          "name": "",
          "type": "bool"
        }
      ],
      "stateMutability": "view",
      "type": "function"
    },
    {
      "inputs": [
        {
          "internalType": "uint256",
          "name": "gameId",
          "type": "uint256"
        }
      ],
      "name": "isRegistrationOpen",
      "outputs": [
        {
          "internalType": "bool",
          "name": "",
          "type": "bool"
        }
      ],
      "stateMutability": "view",
      "type": "function"
    },
    {
      "inputs": [
        {
          "internalType": "uint256",
          "name": "gameId",
          "type": "uint256"
        }
      ],
      "name": "joinGame",
      "outputs": [],
      "stateMutability": "payable",
      "type": "function"
    },
    {
      "inputs": [
        {
          "internalType": "uint256",
          "name": "gameId",
          "type": "uint256"
        }
      ],
      "name": "leaveGame",
      "outputs": [],
      "stateMutability": "nonpayable",
      "type": "function"
    },
    {
      "inputs": [
        {
          "internalType": "address",
          "name": "operator",
          "type": "address"
        },
        {
          "internalType": "address",
          "name": "",
          "type": "address"
        },
        {
          "internalType": "uint256[]",
          "name": "",
          "type": "uint256[]"
        },
        {
          "internalType": "uint256[]",
          "name": "",
          "type": "uint256[]"
        },
        {
          "internalType": "bytes",
          "name": "",
          "type": "bytes"
        }
      ],
      "name": "onERC1155BatchReceived",
      "outputs": [
        {
          "internalType": "bytes4",
          "name": "",
          "type": "bytes4"
        }
      ],
      "stateMutability": "view",
      "type": "function"
    },
    {
      "inputs": [
        {
          "internalType": "address",
          "name": "operator",
          "type": "address"
        },
        {
          "internalType": "address",
          "name": "",
          "type": "address"
        },
        {
          "internalType": "uint256",
          "name": "",
          "type": "uint256"
        },
        {
          "internalType": "uint256",
          "name": "",
          "type": "uint256"
        },
        {
          "internalType": "bytes",
          "name": "",
          "type": "bytes"
        }
      ],
      "name": "onERC1155Received",
      "outputs": [
        {
          "internalType": "bytes4",
          "name": "",
          "type": "bytes4"
        }
      ],
      "stateMutability": "view",
      "type": "function"
    },
    {
      "inputs": [
        {
          "internalType": "address",
          "name": "operator",
          "type": "address"
        },
        {
          "internalType": "address",
          "name": "",
          "type": "address"
        },
        {
          "internalType": "uint256",
          "name": "",
          "type": "uint256"
        },
        {
          "internalType": "bytes",
          "name": "",
          "type": "bytes"
        }
      ],
      "name": "onERC721Received",
      "outputs": [
        {
          "internalType": "bytes4",
          "name": "",
          "type": "bytes4"
        }
      ],
      "stateMutability": "view",
      "type": "function"
    },
    {
      "inputs": [
        {
          "internalType": "uint256",
          "name": "gameId",
          "type": "uint256"
        }
      ],
      "name": "openRegistration",
      "outputs": [],
      "stateMutability": "nonpayable",
      "type": "function"
    },
    {
      "inputs": [
        {
          "internalType": "uint256",
          "name": "gameId",
          "type": "uint256"
        }
      ],
      "name": "startGame",
      "outputs": [],
      "stateMutability": "nonpayable",
      "type": "function"
    }
  ],
  "transactionHash": "0xab0a41857f8f19229226f9ae89b6f5ce575743aacfda0f3f19b04fc5a30b7c0d",
  "args": [],
  "numDeployments": 2,
  "solcInputHash": "7a9bbef0b3308717a9563a790cb377cf",
  "bytecode": "0x608060405234801561001057600080fd5b50615a7080620000216000396000f3fe6080604052600436106101965760003560e01c80639637460e116100e1578063bfa640361161008a578063e5ed1d5911610064578063e5ed1d59146104d7578063efaa55a0146104f7578063f23a6e611461050a578063f72ea4671461052a57600080fd5b8063bfa6403614610477578063cca84a0c14610497578063e240ae5f146104b757600080fd5b8063b55991c0116100bb578063b55991c014610417578063b881cffe14610437578063bc197c811461045757600080fd5b80639637460e146103845780639a214b1e146103a4578063aee5f34a146103d257600080fd5b80634024ba751161014357806369958ab91161011d57806369958ab9146103225780637f4e4849146103425780638eed01f81461036457600080fd5b80634024ba75146102b5578063460e2049146102d557806358759df71461030257600080fd5b8063392b749c11610174578063392b749c146102455780633b17469e146102755780633feef58a1461029557600080fd5b806304527d901461019b57806307ead930146101d2578063150b7a02146101f4575b600080fd5b3480156101a757600080fd5b506101bb6101b6366004614f74565b61054a565b6040516101c9929190614fde565b60405180910390f35b3480156101de57600080fd5b506101f26101ed366004615067565b61055f565b005b34801561020057600080fd5b5061021461020f3660046150dc565b610593565b6040517fffffffff0000000000000000000000000000000000000000000000000000000090911681526020016101c9565b34801561025157600080fd5b50610265610260366004614f74565b6105ee565b60405190151581526020016101c9565b34801561028157600080fd5b506101f261029036600461514f565b6105ff565b3480156102a157600080fd5b506101f26102b0366004614f74565b61076c565b3480156102c157600080fd5b506102656102d0366004614f74565b61085d565b3480156102e157600080fd5b506102f56102f0366004614f74565b610868565b6040516101c99190615184565b34801561030e57600080fd5b5061026561031d366004614f74565b610873565b34801561032e57600080fd5b506101f261033d366004614f74565b61087e565b34801561034e57600080fd5b506103576109de565b6040516101c99190615255565b34801561037057600080fd5b5061026561037f366004614f74565b610ab8565b34801561039057600080fd5b5061026561039f366004614f74565b610ac3565b3480156103b057600080fd5b506103c46103bf366004614f74565b610afc565b6040519081526020016101c9565b3480156103de57600080fd5b506103f26103ed366004614f74565b610b0e565b60405173ffffffffffffffffffffffffffffffffffffffff90911681526020016101c9565b34801561042357600080fd5b506103c4610432366004614f74565b610b39565b34801561044357600080fd5b50610265610452366004614f74565b610b6f565b34801561046357600080fd5b5061021461047236600461533a565b610b7a565b34801561048357600080fd5b506103c46104923660046153f9565b610bd8565b3480156104a357600080fd5b506101f26104b2366004614f74565b610c22565b3480156104c357600080fd5b506101f26104d2366004615445565b610c6c565b3480156104e357600080fd5b506101f26104f2366004614f74565b611062565b6101f2610505366004614f74565b6110a2565b34801561051657600080fd5b5061021461052536600461554e565b6111c9565b34801561053657600080fd5b506103f2610545366004614f74565b611225565b6060806105568361126e565b91509150915091565b610567611382565b6000610571611418565b905061058e838260030154600161058891906155f9565b846105ff565b505050565b600061059d611382565b3073ffffffffffffffffffffffffffffffffffffffff8716036105e157507f150b7a02000000000000000000000000000000000000000000000000000000006105e5565b5060005b95945050505050565b60006105f982611441565b92915050565b7fddce64af877bbb30b6a5e98c16fd4fee7160a0f8a0a2f9abfbb4a2d661459309805460ff1615610691576040517f08c379a000000000000000000000000000000000000000000000000000000000815260206004820152601860248201527f5245473a20596f75207368616c6c206e6f74207061737321000000000000000060448201526064015b60405180910390fd5b80547fffffffffffffffffffffffffffffffffffffffffffffffffffffffffffffff001660011781556106c6838584336114c0565b6106ce614d5c565b6106d884826117d6565b823373ffffffffffffffffffffffffffffffffffffffff168673ffffffffffffffffffffffffffffffffffffffff167f48f48f6273652830aa3718ca489b3d13c244a7215c70bab5c5c2f523aba583b68760405161073891815260200190565b60405180910390a45080547fffffffffffffffffffffffffffffffffffffffffffffffffffffffffffffff00169055505050565b7fddce64af877bbb30b6a5e98c16fd4fee7160a0f8a0a2f9abfbb4a2d661459309805460ff16156107f9576040517f08c379a000000000000000000000000000000000000000000000000000000000815260206004820152601860248201527f5245473a20596f75207368616c6c206e6f7420706173732100000000000000006044820152606401610688565b80547fffffffffffffffffffffffffffffffffffffffffffffffffffffffffffffff0016600190811782556108349083903390611c84611cd5565b80547fffffffffffffffffffffffffffffffffffffffffffffffffffffffffffffff0016905550565b60006105f982611df9565b60606105f982611e87565b60006105f982611eca565b7fddce64af877bbb30b6a5e98c16fd4fee7160a0f8a0a2f9abfbb4a2d661459309805460ff161561090b576040517f08c379a000000000000000000000000000000000000000000000000000000000815260206004820152601860248201527f5245473a20596f75207368616c6c206e6f7420706173732100000000000000006044820152606401610688565b80547fffffffffffffffffffffffffffffffffffffffffffffffffffffffffffffff0016600117815561093e8233611f5b565b61098a611c846109827fc8fcad8db84d3cc18b4c41d551ea0ee66dd599cde068d998e57d5e09332c13205473ffffffffffffffffffffffffffffffffffffffff1690565b849190611ff8565b60405182907f71f4c9aec1b2c51302bcaf09a3f4985709759853536445493905081899603a2190600090a280547fffffffffffffffffffffffffffffffffffffffffffffffffffffffffffffff0016905550565b6109e6614da6565b60006109f0611418565b905060006109fc6121f3565b60408051610120810182528454818301908152600186015473ffffffffffffffffffffffffffffffffffffffff90811660608085019190915260028801546080850152600388015460a0850152600488015491821660c08501527401000000000000000000000000000000000000000090910460ff16151560e084015283519081018452600587015481526006870154602080830191909152600790970154938101939093526101008201929092529081529283015250919050565b60006105f982612412565b60008181527f91591bea3fc8863c74b4740fa2dfd9fd428a1e509b60555e4d1e8d8028901f3560205260408120600b015460ff166105f9565b6000610b07826124a7565b5492915050565b6000610b19826124a7565b6001015473ffffffffffffffffffffffffffffffffffffffff1692915050565b60008181527f91591bea3fc8863c74b4740fa2dfd9fd428a1e509b60555e4d1e8d8028901f3560205260408120600101546105f9565b60006105f9826124df565b6000610b84611382565b3073ffffffffffffffffffffffffffffffffffffffff8a1603610bc857507fbc197c819b3e337a6f9652dd10becd7eef83032af3b9d958d3d42f6694146621610bcc565b5060005b98975050505050505050565b73ffffffffffffffffffffffffffffffffffffffff811660009081527f91591bea3fc8863c74b4740fa2dfd9fd428a1e509b60555e4d1e8d8028901f3660205260408120546105f9565b610c2c8133611f5b565b610c3581612566565b610c3e81612697565b60405181907f5da9fef10786347975dd7cc4fc53417cff6969b0f7a9b6763169306c8cbeb63690600090a250565b610c778484846105ff565b6000610c82846124a7565b9050815160001461105b5760005b8251811015611043576000838281518110610cad57610cad61560c565b60209081029190910101516040517f01ffc9a70000000000000000000000000000000000000000000000000000000081527fb0262bf600000000000000000000000000000000000000000000000000000000600482015290915073ffffffffffffffffffffffffffffffffffffffff8216906301ffc9a790602401602060405180830381865afa158015610d45573d6000803e3d6000fd5b505050506040513d601f19601f82011682018060405250810190610d69919061563b565b610dcf576040517f08c379a000000000000000000000000000000000000000000000000000000000815260206004820152601b60248201527f6d75737420737570706f72742072616e6b20696e7465726661636500000000006044820152606401610688565b3073ffffffffffffffffffffffffffffffffffffffff168173ffffffffffffffffffffffffffffffffffffffff16635c87c8f96040518163ffffffff1660e01b8152600401602060405180830381865afa158015610e31573d6000803e3d6000fd5b505050506040513d601f19601f82011682018060405250810190610e55919061565d565b73ffffffffffffffffffffffffffffffffffffffff1614610ed2576040517f08c379a000000000000000000000000000000000000000000000000000000000815260206004820152601760248201527f6d7573742062652072616e6b696e67496e7374616e63650000000000000000006044820152606401610688565b73ffffffffffffffffffffffffffffffffffffffff811663731133e9306001610efb89826155f9565b6040517fffffffff0000000000000000000000000000000000000000000000000000000060e086901b16815273ffffffffffffffffffffffffffffffffffffffff909316600484015260248301919091526044820152608060648201526000608482015260a401600060405180830381600087803b158015610f7c57600080fd5b505af1158015610f90573d6000803e3d6000fd5b50506040517f731133e90000000000000000000000000000000000000000000000000000000081523060048201526003602482015260448101889052608060648201526000608482015273ffffffffffffffffffffffffffffffffffffffff8416925063731133e9915060a401600060405180830381600087803b15801561101757600080fd5b505af115801561102b573d6000803e3d6000fd5b5050505050808061103b9061567a565b915050610c90565b5081516110599060088301906020850190614e0b565b505b5050505050565b61106b8161273c565b611074816127b3565b60405181907f50ad08f58a27f2851d7e3a1b3a6a46b290f2ce677e99642d30ff639721e7779090600090a250565b7fddce64af877bbb30b6a5e98c16fd4fee7160a0f8a0a2f9abfbb4a2d661459309805460ff161561112f576040517f08c379a000000000000000000000000000000000000000000000000000000000815260206004820152601860248201527f5245473a20596f75207368616c6c206e6f7420706173732100000000000000006044820152606401610688565b80547fffffffffffffffffffffffffffffffffffffffffffffffffffffffffffffff001660011781556111628233612aa7565b61116b82612bb3565b60405133815282907f87969bc7faf902221a147b95ceba76e011c5efb0339a0a8ee7a2bb82d9cfbbd69060200160405180910390a280547fffffffffffffffffffffffffffffffffffffffffffffffffffffffffffffff0016905550565b60006111d3611382565b3073ffffffffffffffffffffffffffffffffffffffff88160361121757507ff23a6e612e1ff4830e658fe43f4e3cb4a5f8170bd5d9e69fb5d7a7fa9e4fdf9761121b565b5060005b9695505050505050565b60008181527f91591bea3fc8863c74b4740fa2dfd9fd428a1e509b60555e4d1e8d8028901f35602052604081205473ffffffffffffffffffffffffffffffffffffffff166105f9565b606080600061127c84611e87565b90506000815167ffffffffffffffff81111561129a5761129a615416565b6040519080825280602002602001820160405280156112c3578160200160208202803683370190505b50905060005b825181101561137757611348868483815181106112e8576112e861560c565b602002602001015160009182527f91591bea3fc8863c74b4740fa2dfd9fd428a1e509b60555e4d1e8d8028901f356020908152604080842073ffffffffffffffffffffffffffffffffffffffff9390931684526009909201905290205490565b82828151811061135a5761135a61560c565b60209081029190910101528061136f8161567a565b9150506112c9565b509094909350915050565b600061138c611418565b600481015490915074010000000000000000000000000000000000000000900460ff16611415576040517f08c379a000000000000000000000000000000000000000000000000000000000815260206004820152600f60248201527f6f6e6c79496e697469616c697a656400000000000000000000000000000000006044820152606401610688565b50565b6000807f7acf15cdb85906c3736403f86bf7ccb69a25bb6dbdcde1cbcbf35fe2a64df8526105f9565b60008181527f91591bea3fc8863c74b4740fa2dfd9fd428a1e509b60555e4d1e8d8028901f35602052604081207f91591bea3fc8863c74b4740fa2dfd9fd428a1e509b60555e4d1e8d8028901f2d600061149a85612c18565b60028301549091506114ae60058501612ce1565b10156114b8575060005b949350505050565b6114c8611382565b60006114d2611418565b90506114de8585612ceb565b60006114e9866124a7565b905083600003611555576040517f08c379a000000000000000000000000000000000000000000000000000000000815260206004820152601760248201527f67616d652072616e6b206e6f74207370656369666965640000000000000000006044820152606401610688565b81541561160c57600182015482546040517f23b872dd00000000000000000000000000000000000000000000000000000000815273ffffffffffffffffffffffffffffffffffffffff868116600483015230602483015260448201929092529116906323b872dd906064016020604051808303816000875af11580156115df573d6000803e3d6000fd5b505050506040513d601f19601f82011682018060405250810190611603919061563b565b50815460098201555b600181810180547fffffffffffffffffffffffff00000000000000000000000000000000000000001673ffffffffffffffffffffffffffffffffffffffff86161790556003830180546000906116639084906155f9565b9091555050838155600482015473ffffffffffffffffffffffffffffffffffffffff168063731133e930600161169989826155f9565b6040517fffffffff0000000000000000000000000000000000000000000000000000000060e086901b16815273ffffffffffffffffffffffffffffffffffffffff909316600484015260248301919091526044820152608060648201526000608482015260a401600060405180830381600087803b15801561171a57600080fd5b505af115801561172e573d6000803e3d6000fd5b50506040517f731133e90000000000000000000000000000000000000000000000000000000081523060048201526003602482015260448101889052608060648201526000608482015273ffffffffffffffffffffffffffffffffffffffff8416925063731133e9915060a401600060405180830381600087803b1580156117b557600080fd5b505af11580156117c9573d6000803e3d6000fd5b5050505050505050505050565b600061182b8360408051602080820193909352815180820384018152908201825280519083012060009081527fb12a0409539e5fa777ebbd0648c2d35d1b56f5385885518278a66364324a9138909252902090565b905080600801546000148061185657508060070154816006015461184f91906155f9565b8160080154145b6118e2576040517f08c379a000000000000000000000000000000000000000000000000000000000815260206004820152603660248201527f43616e6e6f74206d757461746520706f736974696f6e2077697468206375727260448201527f656e746c7920706f7369746976652062616c616e6365000000000000000000006064820152608401610688565b815180516001830155602081015160028301556040810151600383015560608101516004830155608001516005820155611920600a82016000614e95565b61192e600b82016000614e95565b61193c600982016000614eb3565b60005b826020015151811015611c535781600a01836020015182815181106119665761196661560c565b60209081029190910181015151825460018101845560009384529282902090920180547fffffffffffffffffffffffff00000000000000000000000000000000000000001673ffffffffffffffffffffffffffffffffffffffff909316929092179091558301518051600b84019190839081106119e5576119e561560c565b602090810291909101810151810151825460018101845560009384529282902090920191909155830151805160098401919083908110611a2757611a2761560c565b60209081029190910181015160400151825460018101845560009384529282902091830490910180549192909160ff601f9092166101000a918202191690836002811115611a7757611a776156b2565b021790555082602001518181518110611a9257611a9261560c565b60200260200101516060015182600001600085602001518481518110611aba57611aba61560c565b6020026020010151604001516002811115611ad757611ad76156b2565b6002811115611ae857611ae86156b2565b8152602001908152602001600020600085602001518481518110611b0e57611b0e61560c565b60200260200101516000015173ffffffffffffffffffffffffffffffffffffffff1673ffffffffffffffffffffffffffffffffffffffff168152602001908152602001600020600085602001518481518110611b6c57611b6c61560c565b60209081029190910181015181015182528101919091526040016000208151805182908190611b9b908261577a565b50602091820151600190910155820151805160028301908190611bbe908261577a565b50602091909101516001909101556040820151805160048301908190611be4908261577a565b50602091909101516001909101556060820151805160068301908190611c0a908261577a565b50602091909101516001909101556080820151805160088301908190611c30908261577a565b506020820151816001015550509050508080611c4b9061567a565b91505061193f565b50600c0180547fffffffffffffffffffffffffffffffffffffffffffffffffffffffffffffff001660011790555050565b611c8e8282612fe9565b60405173ffffffffffffffffffffffffffffffffffffffff82169083907fb2bd643202385c64d9814c6c3fa61b1ba098d6652292e9d9a6f1a0cdae6eb82490600090a35050565b6000611cdf611418565b90508060020154600014611de157600083611cfb576001611cfe565b60025b60ff1690506000818360020154611d159190615894565b90506000611d22886124a7565b905081816009016000828254611d3891906158cf565b909155505060018401546040517fa9059cbb00000000000000000000000000000000000000000000000000000000815273ffffffffffffffffffffffffffffffffffffffff8981166004830152602482018590529091169063a9059cbb906044016020604051808303816000875af1158015611db8573d6000803e3d6000fd5b505050506040513d601f19601f82011682018060405250810190611ddc919061563b565b505050505b611deb858561304a565b61105b85858463ffffffff16565b60008181527f91591bea3fc8863c74b4740fa2dfd9fd428a1e509b60555e4d1e8d8028901f356020526040812060038101547f91591bea3fc8863c74b4740fa2dfd9fd428a1e509b60555e4d1e8d8028901f2d908303611e5d575060009392505050565b6003810154611e6c90426155f9565b826003015410611e7d5760006114b8565b6001949350505050565b60008181527f91591bea3fc8863c74b4740fa2dfd9fd428a1e509b60555e4d1e8d8028901f3560205260409020606090611ec360058201613117565b9392505050565b60008181527f91591bea3fc8863c74b4740fa2dfd9fd428a1e509b60555e4d1e8d8028901f35602052604081206000611f0582600501612ce1565b826008015414611f16576000611f19565b60015b600483015490915060ff16611f32575060009392505050565b8080611f425750611f4284613124565b15611f51575060019392505050565b5060009392505050565b611f648261273c565b6000611f6f836124a7565b600181015490915073ffffffffffffffffffffffffffffffffffffffff83811691161461058e576040517f08c379a000000000000000000000000000000000000000000000000000000000815260206004820152601160248201527f4f6e6c792067616d652063726561746f720000000000000000000000000000006044820152606401610688565b600061200384611e87565b905060005b815181101561204957612037858383815181106120275761202761560c565b6020026020010151600087611cd5565b806120418161567a565b915050612008565b506000612055856124a7565b90506000612061611418565b90506000600282600001546120769190615894565b600183810154908501546040517fa9059cbb00000000000000000000000000000000000000000000000000000000815273ffffffffffffffffffffffffffffffffffffffff918216600482015260248101849052929350169063a9059cbb906044016020604051808303816000875af11580156120f7573d6000803e3d6000fd5b505050506040513d601f19601f8201168201806040525081019061211b919061563b565b508083600901600082825461213091906158cf565b9091555050600182015460098401546040517fa9059cbb00000000000000000000000000000000000000000000000000000000815273ffffffffffffffffffffffffffffffffffffffff8881166004830152602482019290925291169063a9059cbb906044016020604051808303816000875af11580156121b5573d6000803e3d6000fd5b505050506040513d601f19601f820116820180604052508101906121d9919061563b565b50600060098401556121ea87613187565b50505050505050565b61223b60405180610100016040528060008152602001600081526020016000815260200160008152602001600081526020016000815260200160008152602001606081525090565b60408051610100810182527f91591bea3fc8863c74b4740fa2dfd9fd428a1e509b60555e4d1e8d8028901f2d805482527f91591bea3fc8863c74b4740fa2dfd9fd428a1e509b60555e4d1e8d8028901f2e5460208301527f91591bea3fc8863c74b4740fa2dfd9fd428a1e509b60555e4d1e8d8028901f2f54928201929092527f91591bea3fc8863c74b4740fa2dfd9fd428a1e509b60555e4d1e8d8028901f305460608201527f91591bea3fc8863c74b4740fa2dfd9fd428a1e509b60555e4d1e8d8028901f315460808201527f91591bea3fc8863c74b4740fa2dfd9fd428a1e509b60555e4d1e8d8028901f325460a08201527f91591bea3fc8863c74b4740fa2dfd9fd428a1e509b60555e4d1e8d8028901f335460c08201527f91591bea3fc8863c74b4740fa2dfd9fd428a1e509b60555e4d1e8d8028901f348054839160e084019161238a906156e1565b80601f01602080910402602001604051908101604052809291908181526020018280546123b6906156e1565b80156124035780601f106123d857610100808354040283529160200191612403565b820191906000526020600020905b8154815290600101906020018083116123e657829003601f168201915b50505050508152505091505090565b60008181527f91591bea3fc8863c74b4740fa2dfd9fd428a1e509b60555e4d1e8d8028901f35602052604081207f91591bea3fc8863c74b4740fa2dfd9fd428a1e509b60555e4d1e8d8028901f315460018201547f91591bea3fc8863c74b4740fa2dfd9fd428a1e509b60555e4d1e8d8028901f2d9291108015611f425750600b81015460ff16611f51575060019392505050565b60008181527f91591bea3fc8863c74b4740fa2dfd9fd428a1e509b60555e4d1e8d8028901f3560205260408120600a01548190611ec3565b60008181527f91591bea3fc8863c74b4740fa2dfd9fd428a1e509b60555e4d1e8d8028901f35602052604081207f91591bea3fc8863c74b4740fa2dfd9fd428a1e509b60555e4d1e8d8028901f315460018201547f91591bea3fc8863c74b4740fa2dfd9fd428a1e509b60555e4d1e8d8028901f2d92919003611f51575060019392505050565b61256f81611df9565b156125fc576040517f08c379a000000000000000000000000000000000000000000000000000000000815260206004820152602360248201527f43616e6e6f7420646f207768656e20726567697374726174696f6e206973206f60448201527f70656e00000000000000000000000000000000000000000000000000000000006064820152608401610688565b60008181527f91591bea3fc8863c74b4740fa2dfd9fd428a1e509b60555e4d1e8d8028901f35602052604090206004015460ff1615611415576040517f08c379a000000000000000000000000000000000000000000000000000000000815260206004820152601b60248201527f43616e6e6f7420646f207768656e2067616d65207374617274656400000000006044820152606401610688565b6126a0816133f2565b612706576040517f08c379a000000000000000000000000000000000000000000000000000000000815260206004820152600e60248201527f67616d65206e6f7420666f756e640000000000000000000000000000000000006044820152606401610688565b60009081527f91591bea3fc8863c74b4740fa2dfd9fd428a1e509b60555e4d1e8d8028901f356020526040902042600390910155565b612744611382565b61274d816133f2565b611415576040517f08c379a000000000000000000000000000000000000000000000000000000000815260206004820152600d60248201527f6e6f2067616d6520666f756e64000000000000000000000000000000000000006044820152606401610688565b60008181527f91591bea3fc8863c74b4740fa2dfd9fd428a1e509b60555e4d1e8d8028901f356020526040902060048101547f91591bea3fc8863c74b4740fa2dfd9fd428a1e509b60555e4d1e8d8028901f2d9060ff1615612871576040517f08c379a000000000000000000000000000000000000000000000000000000000815260206004820152601a60248201527f737461727447616d652d3e616c726561647920737461727465640000000000006044820152606401610688565b8160030154600003612905576040517f08c379a000000000000000000000000000000000000000000000000000000000815260206004820152602d60248201527f737461727447616d652d3e47616d6520726567697374726174696f6e2077617360448201527f206e6f7420796574206f70656e000000000000000000000000000000000000006064820152608401610688565b6003808201549083015461291991906155f9565b4211612981576040517f08c379a000000000000000000000000000000000000000000000000000000000815260206004820152601960248201527f737461727447616d652d3e5374696c6c2043616e204a6f696e000000000000006044820152606401610688565b826000036129eb576040517f08c379a000000000000000000000000000000000000000000000000000000000815260206004820152601960248201527f737461727447616d652d3e47616d65206e6f7420666f756e64000000000000006044820152606401610688565b60028101546129fc60058401612ce1565b1015612a64576040517f08c379a000000000000000000000000000000000000000000000000000000000815260206004820152601d60248201527f737461727447616d652d3e4e6f7420656e6f75676820706c61796572730000006044820152606401610688565b6004820180547fffffffffffffffffffffffffffffffffffffffffffffffffffffffffffff00001660019081179091558281015542600283015561058e8261344e565b612ab08261273c565b612aba82826134df565b6000612ac4611418565b90508060020154600014612ba957600181015460028201546040517f23b872dd00000000000000000000000000000000000000000000000000000000815273ffffffffffffffffffffffffffffffffffffffff858116600483015230602483015260448201929092529116906323b872dd906064016020604051808303816000875af1158015612b58573d6000803e3d6000fd5b505050506040513d601f19601f82011682018060405250810190612b7c919061563b565b506000612b88846124a7565b90508160020154816009016000828254612ba291906155f9565b9091555050505b61058e8383613593565b6000612c088260408051602080820193909352815180820384018152908201825280519083012060009081527fb12a0409539e5fa777ebbd0648c2d35d1b56f5385885518278a66364324a9138909252902090565b9050612c148133613832565b5050565b60008181527f91591bea3fc8863c74b4740fa2dfd9fd428a1e509b60555e4d1e8d8028901f356020526040812060048101547f91591bea3fc8863c74b4740fa2dfd9fd428a1e509b60555e4d1e8d8028901f2d9060019060ff1615612c7b575060005b8260030154600003612c8b575060005b60038083015490840154612c9f91906155f9565b4211612ca9575060005b84600003612cb5575060005b6001820154612cc660058501612ce1565b612cd19060016155f9565b036114b857506000949350505050565b60006105f9825490565b7f91591bea3fc8863c74b4740fa2dfd9fd428a1e509b60555e4d1e8d8028901f2d612d15836133f2565b15612d7c576040517f08c379a000000000000000000000000000000000000000000000000000000000815260206004820152601a60248201527f63726561746547616d652d3e416c7265616479206578697374730000000000006044820152606401610688565b73ffffffffffffffffffffffffffffffffffffffff8216612df9576040517f08c379a000000000000000000000000000000000000000000000000000000000815260206004820152600e60248201527f63726561746547616d652d3e474d0000000000000000000000000000000000006044820152606401610688565b82600003612e63576040517f08c379a000000000000000000000000000000000000000000000000000000000815260206004820152601260248201527f63726561746547616d652d3e67616d65496400000000000000000000000000006044820152606401610688565b600083815260088201602052604090205473ffffffffffffffffffffffffffffffffffffffff1615612ef1576040517f08c379a000000000000000000000000000000000000000000000000000000000815260206004820152601260248201527f63726561746547616d652d3e67616d65496400000000000000000000000000006044820152606401610688565b6000838152600882016020526040812080547fffffffffffffffffffffffff00000000000000000000000000000000000000001673ffffffffffffffffffffffffffffffffffffffff8516179055600a8201805460019290612f549084906155f9565b9091555050600a8101546040805160208101869052908101919091527f91591bea3fc8863c74b4740fa2dfd9fd428a1e509b60555e4d1e8d8028901f2d6060820152608001604080517fffffffffffffffffffffffffffffffffffffffffffffffffffffffffffffffe0818403018152918152815160209283012060009586526008909301909152909220600a019190915550565b600061303e8360408051602080820193909352815180820384018152908201825280519083012060009081527fb12a0409539e5fa777ebbd0648c2d35d1b56f5385885518278a66364324a9138909252902090565b905061058e81836138cc565b6130538261273c565b61305d828261396f565b6000613067611418565b90506000613074846124a7565b905060018160000154111561311157805460048301546130ab91859173ffffffffffffffffffffffffffffffffffffffff16613b7b565b60005b600882015481101561105b576130ff8483600001548460080184815481106130d8576130d861560c565b60009182526020909120015473ffffffffffffffffffffffffffffffffffffffff16613b7b565b806131098161567a565b9150506130ae565b50505050565b60606000611ec383613c14565b60008061313083613c70565b60008481527f91591bea3fc8863c74b4740fa2dfd9fd428a1e509b60555e4d1e8d8028901f356020526040902060048101549192509060ff16613177575060009392505050565b8115611f51575060019392505050565b60008181527f91591bea3fc8863c74b4740fa2dfd9fd428a1e509b60555e4d1e8d8028901f35602052604081207f91591bea3fc8863c74b4740fa2dfd9fd428a1e509b60555e4d1e8d8028901f2d916131e260058301613117565b905060005b8151811015613301576000846008016000878152602001908152602001600020600901600084848151811061321e5761321e61560c565b602002602001015173ffffffffffffffffffffffffffffffffffffffff1673ffffffffffffffffffffffffffffffffffffffff16815260200190815260200160002081905550600084600801600087815260200190815260200160002060070160008484815181106132925761329261560c565b60209081029190910181015173ffffffffffffffffffffffffffffffffffffffff16825281019190915260400160002080547fffffffffffffffffffffffffffffffffffffffffffffffffffffffffffffff0016911515919091179055806132f98161567a565b9150506131e7565b506000848152600884016020526040812080547fffffffffffffffffffffffff0000000000000000000000000000000000000000168155600181018290556004810180547fffffffffffffffffffffffffffffffffffffffffffffffffffffffffffff0000169055600a8101829055600b810180547fffffffffffffffffffffffffffffffffffffffffffffffffffffffffffffff001690556133a991600c90910190614e95565b60008481526008808501602052604082209081018290556005019081816133d08282614e95565b5050506000948552505050600801602052604081206003810182905560020155565b60008181527f91591bea3fc8863c74b4740fa2dfd9fd428a1e509b60555e4d1e8d8028901f3560205260408120805473ffffffffffffffffffffffffffffffffffffffff16156134455750600192915050565b50600092915050565b60005b61345d82600501612ce1565b811015612c145760006134736005840183613d09565b73ffffffffffffffffffffffffffffffffffffffff166000908152600784016020908152604080832080547fffffffffffffffffffffffffffffffffffffffffffffffffffffffffffffff001690556009860190915281205550806134d78161567a565b915050613451565b60006134e9611418565b905060006134f6846124a7565b9050600181600001541115613111578054600483015461352d91859173ffffffffffffffffffffffffffffffffffffffff16613d15565b60005b600882015481101561105b5761358184836000015484600801848154811061355a5761355a61560c565b60009182526020909120015473ffffffffffffffffffffffffffffffffffffffff16613d15565b8061358b8161567a565b915050613530565b7f91591bea3fc8863c74b4740fa2dfd9fd428a1e509b60555e4d1e8d8028901f2d6135bd836133f2565b613623576040517f08c379a000000000000000000000000000000000000000000000000000000000815260206004820152601760248201527f616464506c617965722d3e696e76616c69642067616d650000000000000000006044820152606401610688565b73ffffffffffffffffffffffffffffffffffffffff82166000908152600982016020526040902054156136b2576040517f08c379a000000000000000000000000000000000000000000000000000000000815260206004820152601960248201527f616464506c617965722d3e506c6179657220696e2067616d65000000000000006044820152606401610688565b60008381527f91591bea3fc8863c74b4740fa2dfd9fd428a1e509b60555e4d1e8d8028901f356020526040902060018201546136f060058301612ce1565b10613757576040517f08c379a000000000000000000000000000000000000000000000000000000000815260206004820152601560248201527f616464506c617965722d3e70617274792066756c6c00000000000000000000006044820152606401610688565b61376084613d7a565b6137c6576040517f08c379a000000000000000000000000000000000000000000000000000000000815260206004820152601860248201527f616464506c617965722d3e63616e74206a6f696e206e6f7700000000000000006044820152606401610688565b6137d36005820184613dd3565b5073ffffffffffffffffffffffffffffffffffffffff909216600090815260079092016020908152604080842080547fffffffffffffffffffffffffffffffffffffffffffffffffffffffffffffff0016905560099092019052902055565b600c82015460ff166138a0576040517f08c379a000000000000000000000000000000000000000000000000000000000815260206004820152601760248201527f506f736974696f6e20646f6573206e6f742065786973740000000000000000006044820152606401610688565b6138ae828230303030613df5565b60018260080160008282546138c391906155f9565b90915550505050565b8160080154826007015483600601546138e591906155f9565b1061394c576040517f08c379a000000000000000000000000000000000000000000000000000000000815260206004820152601c60248201527f4e6f7420656e6f7567682062616c616e636520746f20726566756e64000000006044820152606401610688565b61395a823083848586613df5565b60018260060160008282546138c391906155f9565b60008281527f91591bea3fc8863c74b4740fa2dfd9fd428a1e509b60555e4d1e8d8028901f35602052604090207f91591bea3fc8863c74b4740fa2dfd9fd428a1e509b60555e4d1e8d8028901f2d906139c7846133f2565b613a2d576040517f08c379a000000000000000000000000000000000000000000000000000000000815260206004820152601360248201527f67616d6520646f6573206e6f74206578697374000000000000000000000000006044820152606401610688565b73ffffffffffffffffffffffffffffffffffffffff831660009081526009830160205260409020548414613abd576040517f08c379a000000000000000000000000000000000000000000000000000000000815260206004820152600f60248201527f4e6f7420696e207468652067616d6500000000000000000000000000000000006044820152606401610688565b600481015460ff161580613ae05750600481015460ff6101009091041615156001145b613b46576040517f08c379a000000000000000000000000000000000000000000000000000000000815260206004820152601960248201527f43616e6e6f74206c65617665206f6e63652073746172746564000000000000006044820152606401610688565b73ffffffffffffffffffffffffffffffffffffffff8316600090815260098301602052604081205561105b6005820184614199565b6040517fb5674c6800000000000000000000000000000000000000000000000000000000815273ffffffffffffffffffffffffffffffffffffffff8481166004830152602482018490526001604483015282919082169063b5674c68906064015b600060405180830381600087803b158015613bf657600080fd5b505af1158015613c0a573d6000803e3d6000fd5b5050505050505050565b606081600001805480602002602001604051908101604052809291908181526020018280548015613c6457602002820191906000526020600020905b815481526020019060010190808311613c50575b50505050509050919050565b60008181527f91591bea3fc8863c74b4740fa2dfd9fd428a1e509b60555e4d1e8d8028901f35602052604081207f91591bea3fc8863c74b4740fa2dfd9fd428a1e509b60555e4d1e8d8028901f2d9083600003613ccf57613ccf6158e2565b600481015460ff161515600114613ce857613ce86158e2565b60028101548254613cf991906155f9565b4211611e7d575060009392505050565b6000611ec383836141bb565b6040517fe2ab691d00000000000000000000000000000000000000000000000000000000815273ffffffffffffffffffffffffffffffffffffffff8481166004830152602482018490526001604483015282919082169063e2ab691d90606401613bdc565b60008181527f91591bea3fc8863c74b4740fa2dfd9fd428a1e509b60555e4d1e8d8028901f3560205260408120600481015460ff1680613dbc57506003810154155b15613dca5750600092915050565b50600192915050565b6000611ec38373ffffffffffffffffffffffffffffffffffffffff84166141e5565b3073ffffffffffffffffffffffffffffffffffffffff861603613f5f57600286015415613e6457600286015460405173ffffffffffffffffffffffffffffffffffffffff83169180156108fc02916000818181858888f19350505050158015613e62573d6000803e3d6000fd5b505b600486015415613eb657600486015460405173ffffffffffffffffffffffffffffffffffffffff86169180156108fc02916000818181858888f19350505050158015613eb4573d6000803e3d6000fd5b505b600586015415613f0857600586015460405173ffffffffffffffffffffffffffffffffffffffff85169180156108fc02916000818181858888f19350505050158015613f06573d6000803e3d6000fd5b505b600386015415613f5a57600386015460405173ffffffffffffffffffffffffffffffffffffffff84169180156108fc02916000818181858888f19350505050158015613f58573d6000803e3d6000fd5b505b614003565b60038601546005870154600488015460028901546000939291613f81916155f9565b613f8b91906155f9565b613f9591906155f9565b905080341015614001576040517f08c379a000000000000000000000000000000000000000000000000000000000815260206004820152601160248201527f6d73672e76616c756520746f6f206c6f770000000000000000000000000000006044820152606401610688565b505b60005b600a8701548110156121ea57600087600a0182815481106140295761402961560c565b6000918252602082200154600b8a01805473ffffffffffffffffffffffffffffffffffffffff909216935090849081106140655761406561560c565b9060005260206000200154905060008960090184815481106140895761408961560c565b60009182526020808320908204015460ff601f9092166101000a90041691508a818360028111156140bc576140bc6156b2565b60028111156140cd576140cd6156b2565b81526020808201929092526040908101600090812073ffffffffffffffffffffffffffffffffffffffff8816825283528181208682529092528120915082600281111561411c5761411c6156b2565b036141355761413084828c8c8c8c8c614234565b614182565b6002826002811115614149576141496156b2565b036141595761413084828c6143b7565b600182600281111561416d5761416d6156b2565b03614182576141828484838d8d8d8d8d614582565b5050505080806141919061567a565b915050614006565b6000611ec38373ffffffffffffffffffffffffffffffffffffffff8416614969565b60008260000182815481106141d2576141d261560c565b9060005260206000200154905092915050565b600081815260018301602052604081205461422c575081546001818101845560008481526020808220909301849055845484825282860190935260409020919091556105f9565b5060006105f9565b6142478786838960020160010154614a5c565b61425a8786848960040160010154614a5c565b61426d8786868960060160010154614a5c565b6142808786858960080160010154614a5c565b6001860154879080158015906142ac575073ffffffffffffffffffffffffffffffffffffffff87163014155b156143ac576040517f70a0823100000000000000000000000000000000000000000000000000000000815273ffffffffffffffffffffffffffffffffffffffff88811660048301528291908416906370a0823190602401602060405180830381865afa158015614320573d6000803e3d6000fd5b505050506040513d601f19601f820116820180604052508101906143449190615911565b10156143ac576040517f08c379a000000000000000000000000000000000000000000000000000000000815260206004820152601760248201527f4e6f7420656e6f75676820657263323020746f6b656e730000000000000000006044820152606401610688565b505050505050505050565b600382015483901580156143cd57506005830154155b80156143db57506007830154155b80156143e957506009830154155b61444f576040517f08c379a000000000000000000000000000000000000000000000000000000000815260206004820152601e60248201527f455243373231207472616e7366657273206e6f7420737570706f7274656400006044820152606401610688565b600183015415801590614478575073ffffffffffffffffffffffffffffffffffffffff82163014155b15613111576040517f70a0823100000000000000000000000000000000000000000000000000000000815273ffffffffffffffffffffffffffffffffffffffff8381166004830152600091908316906370a0823190602401602060405180830381865afa1580156144ed573d6000803e3d6000fd5b505050506040513d601f19601f820116820180604052508101906145119190615911565b600185015490915081101561105b576040517f08c379a000000000000000000000000000000000000000000000000000000000815260206004820152601960248201527f4e6f7420656e6f756768204552433732312062616c616e6365000000000000006044820152606401610688565b600186015488908015614696576040517efdd58e00000000000000000000000000000000000000000000000000000000815273ffffffffffffffffffffffffffffffffffffffff8881166004830152602482018b90526000919084169062fdd58e90604401602060405180830381865afa158015614604573d6000803e3d6000fd5b505050506040513d601f19601f820116820180604052508101906146289190615911565b905081811015614694576040517f08c379a000000000000000000000000000000000000000000000000000000000815260206004820152601c60248201527f455243313135352062616c616e6365206973206e6f742076616c6964000000006044820152606401610688565b505b506007870154801561471c578173ffffffffffffffffffffffffffffffffffffffff1663f242432a88888c858d6006016000016040518663ffffffff1660e01b81526004016146e995949392919061592a565b600060405180830381600087803b15801561470357600080fd5b505af1158015614717573d6000803e3d6000fd5b505050505b50600987015480156147a2578173ffffffffffffffffffffffffffffffffffffffff1663f242432a88878c858d6008016000016040518663ffffffff1660e01b815260040161476f95949392919061592a565b600060405180830381600087803b15801561478957600080fd5b505af115801561479d573d6000803e3d6000fd5b505050505b50600587015480156148d75773ffffffffffffffffffffffffffffffffffffffff841661485d576040517ff5298aca00000000000000000000000000000000000000000000000000000000815273ffffffffffffffffffffffffffffffffffffffff8881166004830152602482018b90526044820183905283169063f5298aca90606401600060405180830381600087803b15801561484057600080fd5b505af1158015614854573d6000803e3d6000fd5b505050506148d7565b8173ffffffffffffffffffffffffffffffffffffffff1663f242432a88868c858d6004016000016040518663ffffffff1660e01b81526004016148a495949392919061592a565b600060405180830381600087803b1580156148be57600080fd5b505af11580156148d2573d6000803e3d6000fd5b505050505b506003870154801561495d578173ffffffffffffffffffffffffffffffffffffffff1663f242432a88858c858d6002016000016040518663ffffffff1660e01b815260040161492a95949392919061592a565b600060405180830381600087803b15801561494457600080fd5b505af1158015614958573d6000803e3d6000fd5b505050505b50505050505050505050565b60008181526001830160205260408120548015614a5257600061498d6001836158cf565b85549091506000906149a1906001906158cf565b9050818114614a065760008660000182815481106149c1576149c161560c565b90600052602060002001549050808760000184815481106149e4576149e461560c565b6000918252602080832090910192909255918252600188019052604090208390555b8554869080614a1757614a17615a0b565b6001900381819060005260206000200160009055905585600101600086815260200190815260200160002060009055600193505050506105f9565b60009150506105f9565b83811561105b573073ffffffffffffffffffffffffffffffffffffffff851603614bc15773ffffffffffffffffffffffffffffffffffffffff831615614b3c576040517fa9059cbb00000000000000000000000000000000000000000000000000000000815273ffffffffffffffffffffffffffffffffffffffff84811660048301526024820184905282169063a9059cbb906044015b6020604051808303816000875af1158015614b12573d6000803e3d6000fd5b505050506040513d601f19601f82011682018060405250810190614b36919061563b565b5061105b565b6040517f42966c680000000000000000000000000000000000000000000000000000000081526004810183905273ffffffffffffffffffffffffffffffffffffffff8216906342966c6890602401600060405180830381600087803b158015614ba457600080fd5b505af1158015614bb8573d6000803e3d6000fd5b5050505061105b565b73ffffffffffffffffffffffffffffffffffffffff831615614c40576040517f23b872dd00000000000000000000000000000000000000000000000000000000815273ffffffffffffffffffffffffffffffffffffffff85811660048301528481166024830152604482018490528216906323b872dd90606401614af3565b6040517f23b872dd00000000000000000000000000000000000000000000000000000000815273ffffffffffffffffffffffffffffffffffffffff8581166004830152306024830152604482018490528216906323b872dd906064016020604051808303816000875af1158015614cbb573d6000803e3d6000fd5b505050506040513d601f19601f82011682018060405250810190614cdf919061563b565b506040517f42966c680000000000000000000000000000000000000000000000000000000081526004810183905273ffffffffffffffffffffffffffffffffffffffff8216906342966c6890602401600060405180830381600087803b158015614d4857600080fd5b505af11580156143ac573d6000803e3d6000fd5b6040518060400160405280614d996040518060a0016040528060008152602001600081526020016000815260200160008152602001600081525090565b8152602001606081525090565b6040518060400160405280614db9614ed8565b8152602001614e0660405180610100016040528060008152602001600081526020016000815260200160008152602001600081526020016000815260200160008152602001606081525090565b905290565b828054828255906000526020600020908101928215614e85579160200282015b82811115614e8557825182547fffffffffffffffffffffffff00000000000000000000000000000000000000001673ffffffffffffffffffffffffffffffffffffffff909116178255602090920191600190910190614e2b565b50614e91929150614f5f565b5090565b50805460008255906000526020600020908101906114159190614f5f565b50805460008255601f0160209004906000526020600020908101906114159190614f5f565b6040518060e0016040528060008152602001600073ffffffffffffffffffffffffffffffffffffffff1681526020016000815260200160008152602001600073ffffffffffffffffffffffffffffffffffffffff168152602001600015158152602001614e0660405180606001604052806000815260200160008152602001600081525090565b5b80821115614e915760008155600101614f60565b600060208284031215614f8657600080fd5b5035919050565b600081518084526020808501945080840160005b83811015614fd357815173ffffffffffffffffffffffffffffffffffffffff1687529582019590820190600101614fa1565b509495945050505050565b604081526000614ff16040830185614f8d565b82810360208481019190915284518083528582019282019060005b818110156150285784518352938301939183019160010161500c565b5090979650505050505050565b73ffffffffffffffffffffffffffffffffffffffff8116811461141557600080fd5b803561506281615035565b919050565b6000806040838503121561507a57600080fd5b823561508581615035565b946020939093013593505050565b60008083601f8401126150a557600080fd5b50813567ffffffffffffffff8111156150bd57600080fd5b6020830191508360208285010111156150d557600080fd5b9250929050565b6000806000806000608086880312156150f457600080fd5b85356150ff81615035565b9450602086013561510f81615035565b935060408601359250606086013567ffffffffffffffff81111561513257600080fd5b61513e88828901615093565b969995985093965092949392505050565b60008060006060848603121561516457600080fd5b833561516f81615035565b95602085013595506040909401359392505050565b602081526000611ec36020830184614f8d565b6000610100825184526020808401518186015260408401516040860152606084015160608601526080840151608086015260a084015160a086015260c084015160c086015260e08401518260e087015280518084880152600093505b80841015615212578184018301518785016101200152928201926151f3565b61012093506000848289010152837fffffffffffffffffffffffffffffffffffffffffffffffffffffffffffffffe0601f83011688010194505050505092915050565b602081526000825180516020840152602081015173ffffffffffffffffffffffffffffffffffffffff808216604086015260408301516060860152606083015160808601528060808401511660a0860152505060a0810151151560c084015260c08101519050805160e0840152602081015161010084015260408101516101208401525060208301516101408081850152506114b8610160840182615197565b60008083601f84011261530757600080fd5b50813567ffffffffffffffff81111561531f57600080fd5b6020830191508360208260051b85010111156150d557600080fd5b60008060008060008060008060a0898b03121561535657600080fd5b883561536181615035565b9750602089013561537181615035565b9650604089013567ffffffffffffffff8082111561538e57600080fd5b61539a8c838d016152f5565b909850965060608b01359150808211156153b357600080fd5b6153bf8c838d016152f5565b909650945060808b01359150808211156153d857600080fd5b506153e58b828c01615093565b999c989b5096995094979396929594505050565b60006020828403121561540b57600080fd5b8135611ec381615035565b7f4e487b7100000000000000000000000000000000000000000000000000000000600052604160045260246000fd5b6000806000806080858703121561545b57600080fd5b843561546681615035565b9350602085810135935060408601359250606086013567ffffffffffffffff8082111561549257600080fd5b818801915088601f8301126154a657600080fd5b8135818111156154b8576154b8615416565b8060051b6040517fffffffffffffffffffffffffffffffffffffffffffffffffffffffffffffffe0603f830116810181811085821117156154fb576154fb615416565b60405291825284820192508381018501918b83111561551957600080fd5b938501935b8285101561553e5761552f85615057565b8452938501939285019261551e565b989b979a50959850505050505050565b60008060008060008060a0878903121561556757600080fd5b863561557281615035565b9550602087013561558281615035565b94506040870135935060608701359250608087013567ffffffffffffffff8111156155ac57600080fd5b6155b889828a01615093565b979a9699509497509295939492505050565b7f4e487b7100000000000000000000000000000000000000000000000000000000600052601160045260246000fd5b808201808211156105f9576105f96155ca565b7f4e487b7100000000000000000000000000000000000000000000000000000000600052603260045260246000fd5b60006020828403121561564d57600080fd5b81518015158114611ec357600080fd5b60006020828403121561566f57600080fd5b8151611ec381615035565b60007fffffffffffffffffffffffffffffffffffffffffffffffffffffffffffffffff82036156ab576156ab6155ca565b5060010190565b7f4e487b7100000000000000000000000000000000000000000000000000000000600052602160045260246000fd5b600181811c908216806156f557607f821691505b60208210810361572e577f4e487b7100000000000000000000000000000000000000000000000000000000600052602260045260246000fd5b50919050565b601f82111561058e57600081815260208120601f850160051c8101602086101561575b5750805b601f850160051c820191505b8181101561105957828155600101615767565b815167ffffffffffffffff81111561579457615794615416565b6157a8816157a284546156e1565b84615734565b602080601f8311600181146157fb57600084156157c55750858301515b7fffffffffffffffffffffffffffffffffffffffffffffffffffffffffffffffff600386901b1c1916600185901b178555611059565b6000858152602081207fffffffffffffffffffffffffffffffffffffffffffffffffffffffffffffffe08616915b8281101561584857888601518255948401946001909101908401615829565b508582101561588457878501517fffffffffffffffffffffffffffffffffffffffffffffffffffffffffffffffff600388901b60f8161c191681555b5050505050600190811b01905550565b6000826158ca577f4e487b7100000000000000000000000000000000000000000000000000000000600052601260045260246000fd5b500490565b818103818111156105f9576105f96155ca565b7f4e487b7100000000000000000000000000000000000000000000000000000000600052600160045260246000fd5b60006020828403121561592357600080fd5b5051919050565b600073ffffffffffffffffffffffffffffffffffffffff808816835260208188168185015286604085015285606085015260a06080850152600091508454615971816156e1565b8060a087015260c060018084166000811461599357600181146159cb576159f9565b7fffffffffffffffffffffffffffffffffffffffffffffffffffffffffffffff008516838a01528284151560051b8a010196506159f9565b896000528560002060005b858110156159f15781548b82018601529083019087016159d6565b8a0184019750505b50949c9b505050505050505050505050565b7f4e487b7100000000000000000000000000000000000000000000000000000000600052603160045260246000fdfea2646970667358221220ba2f5b09217df6052aadccd74db375d2f574364fe5d40aa5e769c055e578a86364736f6c63430008140033",
  "devdoc": {
    "kind": "dev",
    "methods": {},
    "version": 1
  },
  "userdoc": {
    "kind": "user",
    "methods": {},
    "version": 1
  },
  "storageLayout": {
    "storage": [],
    "types": null
  }
}