{
  "address": "0x579B560e048871384Bc46950EEd0fb44b66b0bC4",
  "abi": [
    {
      "anonymous": false,
      "inputs": [
        {
          "indexed": true,
          "internalType": "uint256",
          "name": "gameId",
          "type": "uint256"
        },
        {
          "indexed": true,
          "internalType": "address[]",
          "name": "players",
          "type": "address[]"
        },
        {
          "indexed": true,
          "internalType": "uint256[]",
          "name": "scores",
          "type": "uint256[]"
        }
      ],
      "name": "GameOver",
      "type": "event"
    },
    {
      "anonymous": false,
      "inputs": [
        {
          "indexed": true,
          "internalType": "uint256",
          "name": "gameId",
          "type": "uint256"
        }
      ],
      "name": "LastTurn",
      "type": "event"
    },
    {
      "anonymous": false,
      "inputs": [
        {
          "indexed": true,
          "internalType": "uint256",
          "name": "gameId",
          "type": "uint256"
        }
      ],
      "name": "OverTime",
      "type": "event"
    },
    {
      "anonymous": false,
      "inputs": [
        {
          "indexed": true,
          "internalType": "uint256",
          "name": "gameId",
          "type": "uint256"
        },
        {
          "indexed": true,
          "internalType": "uint256",
          "name": "turn",
          "type": "uint256"
        },
        {
          "indexed": true,
          "internalType": "string",
          "name": "proposalHash",
          "type": "string"
        },
        {
          "indexed": false,
          "internalType": "string",
          "name": "proposal",
          "type": "string"
        },
        {
          "indexed": false,
          "internalType": "uint256",
          "name": "score",
          "type": "uint256"
        }
      ],
      "name": "ProposalScore",
      "type": "event"
    },
    {
      "anonymous": false,
      "inputs": [
        {
          "indexed": true,
          "internalType": "uint256",
          "name": "gameId",
          "type": "uint256"
        },
        {
          "indexed": true,
          "internalType": "uint256",
          "name": "turn",
          "type": "uint256"
        },
        {
          "indexed": true,
          "internalType": "address",
          "name": "proposer",
          "type": "address"
        },
        {
          "indexed": false,
          "internalType": "bytes32",
          "name": "commitmentHash",
          "type": "bytes32"
        },
        {
          "indexed": false,
          "internalType": "string",
          "name": "proposalEncryptedByGM",
          "type": "string"
        }
      ],
      "name": "ProposalSubmitted",
      "type": "event"
    },
    {
      "anonymous": false,
      "inputs": [
        {
          "indexed": true,
          "internalType": "uint256",
          "name": "gameId",
          "type": "uint256"
        },
        {
          "indexed": true,
          "internalType": "uint256",
          "name": "turn",
          "type": "uint256"
        },
        {
          "indexed": false,
          "internalType": "address[]",
          "name": "players",
          "type": "address[]"
        },
        {
          "indexed": false,
          "internalType": "uint256[]",
          "name": "scores",
          "type": "uint256[]"
        },
        {
          "indexed": false,
          "internalType": "string[]",
          "name": "newProposals",
          "type": "string[]"
        },
        {
          "indexed": false,
          "internalType": "uint256[]",
          "name": "proposerIndicies",
          "type": "uint256[]"
        },
        {
          "indexed": false,
          "internalType": "uint256[][]",
          "name": "votes",
          "type": "uint256[][]"
        }
      ],
      "name": "TurnEnded",
      "type": "event"
    },
    {
      "anonymous": false,
      "inputs": [
        {
          "indexed": true,
          "internalType": "uint256",
          "name": "gameId",
          "type": "uint256"
        },
        {
          "indexed": true,
          "internalType": "uint256",
          "name": "turn",
          "type": "uint256"
        },
        {
          "indexed": true,
          "internalType": "address",
          "name": "player",
          "type": "address"
        },
        {
          "indexed": false,
          "internalType": "string",
          "name": "votesHidden",
          "type": "string"
        }
      ],
      "name": "VoteSubmitted",
      "type": "event"
    },
    {
      "inputs": [
        {
          "internalType": "bytes",
          "name": "message",
          "type": "bytes"
        },
        {
          "internalType": "bytes",
          "name": "signature",
          "type": "bytes"
        },
        {
          "internalType": "address",
          "name": "account",
          "type": "address"
        }
      ],
      "name": "checkSignature",
      "outputs": [
        {
          "internalType": "bool",
          "name": "",
          "type": "bool"
        }
      ],
      "stateMutability": "view",
      "type": "function"
    },
    {
      "inputs": [
        {
          "internalType": "uint256",
          "name": "gameId",
          "type": "uint256"
        },
        {
          "internalType": "uint256[][]",
          "name": "votes",
          "type": "uint256[][]"
        },
        {
          "internalType": "string[]",
          "name": "newProposals",
          "type": "string[]"
        },
        {
          "internalType": "uint256[]",
          "name": "proposerIndicies",
          "type": "uint256[]"
        }
      ],
      "name": "endTurn",
      "outputs": [],
      "stateMutability": "nonpayable",
      "type": "function"
    },
    {
      "inputs": [
        {
          "internalType": "address",
          "name": "player",
          "type": "address"
        },
        {
          "internalType": "bytes32",
          "name": "turnSalt",
          "type": "bytes32"
        }
      ],
      "name": "playerSalt",
      "outputs": [
        {
          "internalType": "bytes32",
          "name": "",
          "type": "bytes32"
        }
      ],
      "stateMutability": "pure",
      "type": "function"
    },
    {
      "inputs": [
        {
          "components": [
            {
              "internalType": "uint256",
              "name": "gameId",
              "type": "uint256"
            },
            {
              "internalType": "string",
              "name": "encryptedProposal",
              "type": "string"
            },
            {
              "internalType": "bytes32",
              "name": "commitmentHash",
              "type": "bytes32"
            },
            {
              "internalType": "address",
              "name": "proposer",
              "type": "address"
            }
          ],
          "internalType": "struct RankifyInstanceGameMastersFacet.ProposalParams",
          "name": "proposalData",
          "type": "tuple"
        }
      ],
      "name": "submitProposal",
      "outputs": [],
      "stateMutability": "nonpayable",
      "type": "function"
    },
    {
      "inputs": [
        {
          "internalType": "uint256",
          "name": "gameId",
          "type": "uint256"
        },
        {
          "internalType": "string",
          "name": "encryptedVotes",
          "type": "string"
        },
        {
          "internalType": "address",
          "name": "voter",
          "type": "address"
        }
      ],
      "name": "submitVote",
      "outputs": [],
      "stateMutability": "nonpayable",
      "type": "function"
    }
  ],
  "transactionHash": "0xc02b540155bd93af26356d3adcf3a5fface34e842e7dbf1fd4f93689b5111734",
  "args": [],
  "numDeployments": 1,
  "solcInputHash": "d55eeab339e8856ffb382b163eeb5dec",
  "bytecode": "0x608060405234801561001057600080fd5b506153f3806100206000396000f3fe608060405234801561001057600080fd5b50600436106100675760003560e01c80636a994735116100505780636a994735146100945780637fb7f588146100a7578063ceb5beb6146100cd57600080fd5b80630c6446d51461006c578063463bc35514610081575b600080fd5b61007f61007a366004614788565b6100f0565b005b61007f61008f3660046148b5565b6104f2565b61007f6100a236600461495d565b6108b9565b6100ba6100b53660046149b4565b610b18565b6040519081526020015b60405180910390f35b6100e06100db3660046149de565b610b73565b60405190151581526020016100c4565b6100fa8433610b9c565b600061010585610c58565b905061011085610c93565b1561017c576040517f08c379a000000000000000000000000000000000000000000000000000000000815260206004820152600960248201527f47616d65206f766572000000000000000000000000000000000000000000000060448201526064015b60405180910390fd5b61018585610d35565b60008581527f91591bea3fc8863c74b4740fa2dfd9fd428a1e509b60555e4d1e8d8028901f356020526040812060010154905080600114610234576101c986610de0565b1515600114610234576040517f08c379a000000000000000000000000000000000000000000000000000000000815260206004820152601860248201527f656e645475726e2d3e63616e456e645475726e4561726c7900000000000000006044820152606401610173565b61023d86610e41565b6102ec5761024a86610ec8565b5182600601541480610260575061026086610f04565b6102ec576040517f08c379a000000000000000000000000000000000000000000000000000000000815260206004820152602760248201527f536f6d6520706c6179657273207374696c6c20686176652074696d6520746f2060448201527f70726f706f7365000000000000000000000000000000000000000000000000006064820152608401610173565b60006102f787610ec8565b90508160011461045857600061030e888887610fa7565b91505060005b825181101561045557600085600201600088848151811061033757610337614a3a565b60200260200101518152602001908152602001600020805461035890614a69565b80601f016020809104026020016040519081016040528092919081815260200182805461038490614a69565b80156103d15780601f106103a6576101008083540402835291602001916103d1565b820191906000526020600020905b8154815290600101906020018083116103b457829003601f168201915b50505050509050806040516103e69190614ae0565b6040518091039020858b7f71cc117353a39d910a72175a56496eefb857568810a5f5b11079400201be4dd48487878151811061042457610424614a3a565b602002602001015160405161043a929190614b46565b60405180910390a4508061044d81614b97565b915050610314565b50505b600061046388611294565b91505061049e8860009081527f91591bea3fc8863c74b4740fa2dfd9fd428a1e509b60555e4d1e8d8028901f35602052604090206001015490565b887f69a9400160c8f6e71eb8c0ab9c5824e20304af8146719a7625c9d15675ebb6d384848a8a8d6040516104d6959493929190614ca7565b60405180910390a36104e888876113a8565b5050505050505050565b80516104fd906114ff565b80516105099033610b9c565b805161051490610c93565b1561057b576040517f08c379a000000000000000000000000000000000000000000000000000000000815260206004820152600960248201527f47616d65206f76657200000000000000000000000000000000000000000000006044820152606401610173565b805161058690610d35565b60006105958260000151610c58565b8251606084015173ffffffffffffffffffffffffffffffffffffffff1660009081527f91591bea3fc8863c74b4740fa2dfd9fd428a1e509b60555e4d1e8d8028901f3660205260409020549192501461064a576040517f08c379a000000000000000000000000000000000000000000000000000000000815260206004820152600c60248201527f6e6f74206120706c6179657200000000000000000000000000000000000000006044820152606401610173565b815161065590610e41565b156106bc576040517f08c379a000000000000000000000000000000000000000000000000000000000815260206004820152601b60248201527f43616e6e6f742070726f706f736520696e206c617374207475726e00000000006044820152606401610173565b81602001515160000361072b576040517f08c379a000000000000000000000000000000000000000000000000000000000815260206004820152601460248201527f43616e6e6f742070726f706f736520656d7074790000000000000000000000006044820152606401610173565b606082015173ffffffffffffffffffffffffffffffffffffffff166000908152600582016020526040902054156107be576040517f08c379a000000000000000000000000000000000000000000000000000000000815260206004820152601160248201527f416c72656164792070726f706f736564210000000000000000000000000000006044820152606401610173565b815160009081527f91591bea3fc8863c74b4740fa2dfd9fd428a1e509b60555e4d1e8d8028901f356020526040812060010154604080850151606086015173ffffffffffffffffffffffffffffffffffffffff166000908152600586016020529182205560068401805492935060019290919061083c908490614d47565b90915550506060830151835161085191611579565b50826060015173ffffffffffffffffffffffffffffffffffffffff168184600001517f525b2e06a8f927c08033ec5d6334d7796bbea62d2d4f0486fe60196d4fe6d0ad866040015187602001516040516108ac929190614d5a565b60405180910390a4505050565b6108c38333610b9c565b6108cc836114ff565b6108d583610d35565b6108de83610c93565b15610945576040517f08c379a000000000000000000000000000000000000000000000000000000000815260206004820152600960248201527f47616d65206f76657200000000000000000000000000000000000000000000006044820152606401610173565b61094f8382611694565b60008381527f91591bea3fc8863c74b4740fa2dfd9fd428a1e509b60555e4d1e8d8028901f356020526040902060019081015411610a0f576040517f08c379a000000000000000000000000000000000000000000000000000000000815260206004820152602960248201527f4e6f2070726f706f73616c73206578697374206174207475726e20313a20636160448201527f6e6e6f7420766f746500000000000000000000000000000000000000000000006064820152608401610173565b6000610a1a84610c58565b9050600181600a016000828254610a319190614d47565b909155505073ffffffffffffffffffffffffffffffffffffffff82166000908152600c82016020526040902080547fffffffffffffffffffffffffffffffffffffffffffffffffffffffffffffff00166001179055610a908483611579565b5060008481527f91591bea3fc8863c74b4740fa2dfd9fd428a1e509b60555e4d1e8d8028901f35602052604090206001015473ffffffffffffffffffffffffffffffffffffffff831690857f70a202954fc6b6d8015f8bcfbc543189e19810d2e7e964e655ab5922d1ac5b4e86604051610b0a9190614d73565b60405180910390a450505050565b6040517fffffffffffffffffffffffffffffffffffffffff000000000000000000000000606084901b166020820152603481018290526000906054016040516020818303038152906040528051906020012090505b92915050565b600080610b868580519060200120611768565b9050610b938382866117b0565b95945050505050565b610ba5826114ff565b60008281527f91591bea3fc8863c74b4740fa2dfd9fd428a1e509b60555e4d1e8d8028901f35602052604090205473ffffffffffffffffffffffffffffffffffffffff828116911614610c54576040517f08c379a000000000000000000000000000000000000000000000000000000000815260206004820152601060248201527f4f6e6c792067616d65206d6173746572000000000000000000000000000000006044820152606401610173565b5050565b60008181527f91591bea3fc8863c74b4740fa2dfd9fd428a1e509b60555e4d1e8d8028901f3560205260408120600a015481905b9392505050565b60008181527f91591bea3fc8863c74b4740fa2dfd9fd428a1e509b60555e4d1e8d8028901f35602052604081207f91591bea3fc8863c74b4740fa2dfd9fd428a1e509b60555e4d1e8d8028901f315460018201547f91591bea3fc8863c74b4740fa2dfd9fd428a1e509b60555e4d1e8d8028901f2d9291108015610d1c5750600b81015460ff16155b15610d2b575060019392505050565b5060009392505050565b60008181527f91591bea3fc8863c74b4740fa2dfd9fd428a1e509b60555e4d1e8d8028901f356020526040812090829003610d7257610d72614d86565b600481015460ff16610c54576040517f08c379a000000000000000000000000000000000000000000000000000000000815260206004820152601860248201527f47616d6520686173206e6f7420796574207374617274656400000000000000006044820152606401610173565b60008181527f91591bea3fc8863c74b4740fa2dfd9fd428a1e509b60555e4d1e8d8028901f35602052604081206000610e1b8260050161182b565b826008015414610e2c576000610e2f565b60015b90508080610d1c5750610d1c84611835565b60008181527f91591bea3fc8863c74b4740fa2dfd9fd428a1e509b60555e4d1e8d8028901f35602052604081207f91591bea3fc8863c74b4740fa2dfd9fd428a1e509b60555e4d1e8d8028901f315460018201547f91591bea3fc8863c74b4740fa2dfd9fd428a1e509b60555e4d1e8d8028901f2d92919003610d2b575060019392505050565b60008181527f91591bea3fc8863c74b4740fa2dfd9fd428a1e509b60555e4d1e8d8028901f3560205260409020606090610c8c6005820161185b565b60008181527f91591bea3fc8863c74b4740fa2dfd9fd428a1e509b60555e4d1e8d8028901f35602052604081207f91591bea3fc8863c74b4740fa2dfd9fd428a1e509b60555e4d1e8d8028901f2d9083600003610f6357610f63614d86565b600481015460ff161515600114610f7c57610f7c614d86565b60028101548254610f8d9190614d47565b4211610f9d575060009392505050565b5060019392505050565b6060806000610fb586610ec8565b90506000815167ffffffffffffffff811115610fd357610fd361456d565b604051908082528060200260200182016040528015610ffc578160200160208202803683370190505b5090506000825167ffffffffffffffff81111561101b5761101b61456d565b604051908082528060200260200182016040528015611044578160200160208202803683370190505b5090506000835167ffffffffffffffff8111156110635761106361456d565b60405190808252806020026020018201604052801561108c578160200160208202803683370190505b5090506000611099611868565b905060006110a68b610c58565b905060005b86518110156111505781600c0160008883815181106110cc576110cc614a3a565b602002602001015173ffffffffffffffffffffffffffffffffffffffff1673ffffffffffffffffffffffffffffffffffffffff16815260200190815260200160002060009054906101000a900460ff1684828151811061112e5761112e614a3a565b911515602092830291909101909101528061114881614b97565b9150506110ab565b506006820154895160408051606081018252600586015481526020810184905260078601549181019190915261118b9290918d918791611891565b935060005b86518110156112825786518a82815181106111ad576111ad614a3a565b60200260200101511015611270578481815181106111cd576111cd614a3a565b60200260200101516112018883815181106111ea576111ea614a3a565b60200260200101518e611b3490919063ffffffff16565b61120b9190614d47565b86828151811061121d5761121d614a3a565b60200260200101818152505061127087828151811061123e5761123e614a3a565b602002602001015187838151811061125857611258614a3a565b60200260200101518e611b8c9092919063ffffffff16565b8061127a81614b97565b915050611190565b50939a92995091975050505050505050565b60608060006112a284610ec8565b90506000815167ffffffffffffffff8111156112c0576112c061456d565b6040519080825280602002602001820160405280156112e9578160200160208202803683370190505b50905060005b825181101561139d5761136e8684838151811061130e5761130e614a3a565b602002602001015160009182527f91591bea3fc8863c74b4740fa2dfd9fd428a1e509b60555e4d1e8d8028901f356020908152604080842073ffffffffffffffffffffffffffffffffffffffff9390931684526009909201905290205490565b82828151811061138057611380614a3a565b60209081029190910101528061139581614b97565b9150506112ef565b509094909350915050565b6113b182611c57565b60008060006113bf85611e12565b509250925092508280156113d05750815b156114015760405185907f16b81a8b7a63ff74301aeb7a5b3048ff92880ec2bb0773136ed953bf4ef6f47390600090a25b82156114335760405185907f355ab9c54569d91a1467b11b130e91c3f6c15c3c50c7225177cfaf66ba44ddd090600090a25b80156114ee57600061148661147c7fc8fcad8db84d3cc18b4c41d551ea0ee66dd599cde068d998e57d5e09332c13205473ffffffffffffffffffffffffffffffffffffffff1690565b8790611fc1612019565b9050600061149387610ec8565b9050816040516114a39190614db5565b6040518091039020816040516114b99190614deb565b6040519081900381209089907f310cab2765035ece7f5c89e2f74e216e41485f0911e38063d06de80c47e14b7e90600090a450505b6114f885856121ab565b5050505050565b611507612233565b611510816122c6565b611576576040517f08c379a000000000000000000000000000000000000000000000000000000000815260206004820152600d60248201527f6e6f2067616d6520666f756e64000000000000000000000000000000000000006044820152606401610173565b50565b60008281527f91591bea3fc8863c74b4740fa2dfd9fd428a1e509b60555e4d1e8d8028901f35602052604081206001015460006115b4611868565b905060006115c186610c58565b90506001808481036115d657600091506115e8565b6115df88610e41565b156115e8575060005b6007840154600484015410156115fd57600091505b6001828015611634575073ffffffffffffffffffffffffffffffffffffffff88166000908152600c8501602052604090205460ff16155b1561163d575060005b81801561166f575073ffffffffffffffffffffffffffffffffffffffff88166000908152600585016020526040902054155b15611678575060005b8015611688576116888989612319565b98975050505050505050565b73ffffffffffffffffffffffffffffffffffffffff811660009081527f91591bea3fc8863c74b4740fa2dfd9fd428a1e509b60555e4d1e8d8028901f3660205260409020547f91591bea3fc8863c74b4740fa2dfd9fd428a1e509b60555e4d1e8d8028901f2d908314611763576040517f08c379a000000000000000000000000000000000000000000000000000000000815260206004820152601260248201527f6973206e6f7420696e207468652067616d6500000000000000000000000000006044820152606401610173565b505050565b6000610b6d61177561259e565b836040517f19010000000000000000000000000000000000000000000000000000000000008152600281019290925260228201526042902090565b60008060006117bf858561267c565b909250905060008160048111156117d8576117d8614e2b565b14801561181057508573ffffffffffffffffffffffffffffffffffffffff168273ffffffffffffffffffffffffffffffffffffffff16145b8061182157506118218686866126c1565b9695505050505050565b6000610b6d825490565b60008061184183610f04565b905080156118525750600192915050565b50600092915050565b60606000610c8c8361281e565b6000807f7acf15cdb85906c3736403f86bf7ccb69a25bb6dbdcde1cbcbf35fe2a64df852610b6d565b606060008267ffffffffffffffff8111156118ae576118ae61456d565b6040519080825280602002602001820160405280156118d7578160200160208202803683370190505b5090506000865167ffffffffffffffff8111156118f6576118f661456d565b60405190808252806020026020018201604052801561191f578160200160208202803683370190505b50905060005b84811015611b2757600083828151811061194157611941614a3a565b60200260200101818152505060005b8851811015611b1457600089828151811061196d5761196d614a3a565b6020026020010151905088828151811061198957611989614a3a565b60200260200101516119e657878584815181106119a8576119a8614a3a565b602002602001018181516119bc9190614d47565b9052508a5184518590849081106119d5576119d5614a3a565b602002602001018181525050611b01565b8083815181106119f8576119f8614a3a565b6020026020010151858481518110611a1257611a12614a3a565b60200260200101818151611a269190614d47565b9052508051600290829085908110611a4057611a40614a3a565b6020026020010151611a529190614f7a565b848381518110611a6457611a64614a3a565b60200260200101818151611a789190614d47565b9052508a518451859084908110611a9157611a91614a3a565b60200260200101511115611b01576040517f08c379a000000000000000000000000000000000000000000000000000000000815260206004820152601460248201527f717561647261746963566f74696e674572726f720000000000000000000000006044820152606401610173565b5080611b0c81614b97565b915050611950565b5080611b1f81614b97565b915050611925565b5090979650505050505050565b60009182527f91591bea3fc8863c74b4740fa2dfd9fd428a1e509b60555e4d1e8d8028901f356020908152604080842073ffffffffffffffffffffffffffffffffffffffff9390931684526009909201905290205490565b60008381527f91591bea3fc8863c74b4740fa2dfd9fd428a1e509b60555e4d1e8d8028901f3560205260409020611bc3848461287a565b611c29576040517f08c379a000000000000000000000000000000000000000000000000000000000815260206004820152601460248201527f706c61796572206e6f7420696e20612067616d650000000000000000000000006044820152606401610173565b73ffffffffffffffffffffffffffffffffffffffff9092166000908152600990920160205260409091205550565b6000611c6282610ec8565b90506000611c6f83610c58565b6000600682018190559091505b8251811015611deb576000801b826005016000858481518110611ca157611ca1614a3a565b602002602001015173ffffffffffffffffffffffffffffffffffffffff1673ffffffffffffffffffffffffffffffffffffffff16815260200190815260200160002081905550604051806020016040528060008152508260020160008381526020019081526020016000209081611d189190614fcf565b50600082600c016000858481518110611d3357611d33614a3a565b602002602001015173ffffffffffffffffffffffffffffffffffffffff1673ffffffffffffffffffffffffffffffffffffffff16815260200190815260200160002060006101000a81548160ff0219169083151502179055506000801b826007016000858481518110611da857611da8614a3a565b60209081029190910181015173ffffffffffffffffffffffffffffffffffffffff1682528101919091526040016000205580611de381614b97565b915050611c7c565b50600a81018054600b83015560009081905560038201805460049093019290925590555050565b600080600060606000611e4f8660009081527f91591bea3fc8863c74b4740fa2dfd9fd428a1e509b60555e4d1e8d8028901f356020526040902090565b9050611e5a86610d35565b611e63866128f9565b611e6c81612969565b6001816001016000828254611e819190614d47565b90915550504260028201556000611e9787610e41565b600b83015490915060ff166000611ead89610ec8565b5167ffffffffffffffff811115611ec657611ec661456d565b604051908082528060200260200182016040528015611eef578160200160208202803683370190505b5090508280611f025750600b84015460ff165b80611f115750611f1189610c93565b15611f5357611f1f896129f8565b600b860180547fffffffffffffffffffffffffffffffffffffffffffffffffffffffffffffff001683151517905590925090505b8051611f6890600c86019060208401906144d7565b50611f7289610c93565b60049490940180547fffffffffffffffffffffffffffffffffffffffffffffffffffffffffffff00ff1661010095151586021790819055929991985060ff939092049290921695509350915050565b6000611fcc83610c58565b600181015490915061176390849073ffffffffffffffffffffffffffffffffffffffff16611ff982612af1565b60008151811061200b5761200b614a3a565b602002602001015185612b91565b6060612024846114ff565b6120368461203186612af1565b612bf4565b600061204185611294565b915050600061204f86610ec8565b905060005b81518110156120b9576120808783838151811061207357612073614a3a565b6020026020010151612c98565b6120a78783838151811061209657612096614a3a565b60200260200101518763ffffffff16565b806120b181614b97565b915050612054565b5060006120c4611868565b600181015481548451600284015493945073ffffffffffffffffffffffffffffffffffffffff9092169263a9059cbb928a929161210191906150e9565b61210b9190614d47565b6040517fffffffff0000000000000000000000000000000000000000000000000000000060e085901b16815273ffffffffffffffffffffffffffffffffffffffff909216600483015260248201526044016020604051808303816000875af115801561217b573d6000803e3d6000fd5b505050506040513d601f19601f8201168201806040525081019061219f9190615100565b50919695505050505050565b60006121b683610c58565b905060005b825181101561222d578281815181106121d6576121d6614a3a565b602002602001015182600201600083815260200190815260200160002090816121ff9190614fcf565b5060018260030160008282546122159190614d47565b9091555081905061222581614b97565b9150506121bb565b50505050565b600061223d611868565b600481015490915074010000000000000000000000000000000000000000900460ff16611576576040517f08c379a000000000000000000000000000000000000000000000000000000000815260206004820152600f60248201527f6f6e6c79496e697469616c697a656400000000000000000000000000000000006044820152606401610173565b60008181527f91591bea3fc8863c74b4740fa2dfd9fd428a1e509b60555e4d1e8d8028901f3560205260408120805473ffffffffffffffffffffffffffffffffffffffff16156118525750600192915050565b8161232381610f04565b1561238a576040517f08c379a000000000000000000000000000000000000000000000000000000000815260206004820152601f60248201527f6f6e6c79496e5475726e54696d65202d3e207475726e2074696d65646f7574006044820152606401610173565b60008381527f91591bea3fc8863c74b4740fa2dfd9fd428a1e509b60555e4d1e8d8028901f35602052604090206123c084610d35565b6123c9846128f9565b73ffffffffffffffffffffffffffffffffffffffff8316600090815260078201602052604090205460ff161561245b576040517f08c379a000000000000000000000000000000000000000000000000000000000815260206004820152601360248201527f616c7265616479206d6164652061206d6f7665000000000000000000000000006044820152606401610173565b73ffffffffffffffffffffffffffffffffffffffff831660009081527f91591bea3fc8863c74b4740fa2dfd9fd428a1e509b60555e4d1e8d8028901f3660205260409020547f91591bea3fc8863c74b4740fa2dfd9fd428a1e509b60555e4d1e8d8028901f2d90851461252a576040517f08c379a000000000000000000000000000000000000000000000000000000000815260206004820152601260248201527f6973206e6f7420696e207468652067616d6500000000000000000000000000006044820152606401610173565b73ffffffffffffffffffffffffffffffffffffffff84166000908152600783016020526040812080547fffffffffffffffffffffffffffffffffffffffffffffffffffffffffffffff0016600190811790915560088401805491929091612592908490614d47565b90915550505050505050565b7fe5b6a7afa77789577f2802f0da58895f660e5798c5c11b2ea18b0a53bd65d3a9546000907fe5b6a7afa77789577f2802f0da58895f660e5798c5c11b2ea18b0a53bd65d3a79073ffffffffffffffffffffffffffffffffffffffff163014801561260c5750806001015446145b156126175754919050565b6126728160050154826003015483600401546040805160208101859052908101839052606081018290524660808201523060a082015260009060c0016040516020818303038152906040528051906020012090509392505050565b91505090565b5090565b60008082516041036126b25760208301516040840151606085015160001a6126a687828585612d5f565b945094505050506126ba565b506000905060025b9250929050565b60008060008573ffffffffffffffffffffffffffffffffffffffff16631626ba7e60e01b86866040516024016126f8929190614d5a565b604080517fffffffffffffffffffffffffffffffffffffffffffffffffffffffffffffffe08184030181529181526020820180517bffffffffffffffffffffffffffffffffffffffffffffffffffffffff167fffffffff000000000000000000000000000000000000000000000000000000009094169390931790925290516127819190614ae0565b600060405180830381855afa9150503d80600081146127bc576040519150601f19603f3d011682016040523d82523d6000602084013e6127c1565b606091505b50915091508180156127d557506020815110155b8015611821575080517f1626ba7e00000000000000000000000000000000000000000000000000000000906128139083016020908101908401615122565b149695505050505050565b60608160000180548060200260200160405190810160405280929190818152602001828054801561286e57602002820191906000526020600020905b81548152602001906001019080831161285a575b50505050509050919050565b73ffffffffffffffffffffffffffffffffffffffff811660009081527f91591bea3fc8863c74b4740fa2dfd9fd428a1e509b60555e4d1e8d8028901f3660205260408120547f91591bea3fc8863c74b4740fa2dfd9fd428a1e509b60555e4d1e8d8028901f2d9084146128ee5760006128f1565b60015b949350505050565b61290281610c93565b15611576576040517f08c379a000000000000000000000000000000000000000000000000000000000815260206004820152600960248201527f47616d65206f76657200000000000000000000000000000000000000000000006044820152606401610173565b60005b6129788260050161182b565b8110156129ed57600061298e6005840183612e4e565b73ffffffffffffffffffffffffffffffffffffffff166000908152600784016020526040902080547fffffffffffffffffffffffffffffffffffffffffffffffffffffffffffffff0016905550806129e581614b97565b91505061296c565b506000600890910155565b600060607f91591bea3fc8863c74b4740fa2dfd9fd428a1e509b60555e4d1e8d8028901f2d8280612a2886611294565b91509150612a4581600060018451612a40919061513b565b612e5a565b60005b60018351612a56919061513b565b811015612ae2576005840154612a6e9060019061513b565b8111612acb5781612a80826001614d47565b81518110612a9057612a90614a3a565b6020026020010151828281518110612aaa57612aaa614a3a565b602002602001015103612ac65750600196919550909350505050565b612ad0565b612ae2565b80612ada81614b97565b915050612a48565b50600096919550909350505050565b60008181527f91591bea3fc8863c74b4740fa2dfd9fd428a1e509b60555e4d1e8d8028901f356020526040812060609190600c8101805460408051602080840282018101909252828152939450830182828015612b8457602002820191906000526020600020905b815473ffffffffffffffffffffffffffffffffffffffff168152600190910190602001808311612b59575b5050505050915050919050565b6000612be68560408051602080820193909352815180820384018152908201825280519083012060009081527fb12a0409539e5fa777ebbd0648c2d35d1b56f5385885518278a66364324a9138909252902090565b90506114f881858585612fda565b6000612bff83610c58565b90506000612c0b611868565b6004810154909150612c36908590859073ffffffffffffffffffffffffffffffffffffffff16613089565b60005b60088301548110156114f857612c868585856008018481548110612c5f57612c5f614a3a565b60009182526020909120015473ffffffffffffffffffffffffffffffffffffffff16613089565b80612c9081614b97565b915050612c39565b612ca1826114ff565b612cab8282613349565b6000612cb5611868565b90506000612cc284610c58565b905060018160000154111561222d5780546004830154612cf991859173ffffffffffffffffffffffffffffffffffffffff16613555565b60005b60088201548110156114f857612d4d848360000154846008018481548110612d2657612d26614a3a565b60009182526020909120015473ffffffffffffffffffffffffffffffffffffffff16613555565b80612d5781614b97565b915050612cfc565b6000807f7fffffffffffffffffffffffffffffff5d576e7357a4501ddfe92f46681b20a0831115612d965750600090506003612e45565b6040805160008082526020820180845289905260ff881692820192909252606081018690526080810185905260019060a0016020604051602081039080840390855afa158015612dea573d6000803e3d6000fd5b50506040517fffffffffffffffffffffffffffffffffffffffffffffffffffffffffffffffe0015191505073ffffffffffffffffffffffffffffffffffffffff8116612e3e57600060019250925050612e45565b9150600090505b94509492505050565b6000610c8c83836135e3565b8181808203612e6a575050505050565b6000856002612e79878761514e565b612e83919061516e565b612e8d90876151fd565b81518110612e9d57612e9d614a3a565b602002602001015190505b818313612fac575b80868481518110612ec357612ec3614a3a565b60200260200101511115612ee35782612edb81615225565b935050612eb0565b858281518110612ef557612ef5614a3a565b6020026020010151811115612f165781612f0e81615256565b925050612ee3565b818313612fa757858281518110612f2f57612f2f614a3a565b6020026020010151868481518110612f4957612f49614a3a565b6020026020010151878581518110612f6357612f63614a3a565b60200260200101888581518110612f7c57612f7c614a3a565b60209081029190910101919091525282612f9581615225565b9350508180612fa390615256565b9250505b612ea8565b81851215612fbf57612fbf868684612e5a565b83831215612fd257612fd2868486612e5a565b505050505050565b836008015484600701548560060154612ff39190614d47565b1061305a576040517f08c379a000000000000000000000000000000000000000000000000000000000815260206004820152601d60248201527f4e6f7420656e6f7567682062616c616e636520746f2072656c656173650000006044820152606401610173565b6130698430858560008661360d565b600184600701600082825461307e9190614d47565b909155505050505050565b600061309484610c58565b905060008290508073ffffffffffffffffffffffffffffffffffffffff1663f242432a30866000815181106130cb576130cb614a3a565b6020026020010151856000015460016130e49190614d47565b6040517fffffffff0000000000000000000000000000000000000000000000000000000060e086901b16815273ffffffffffffffffffffffffffffffffffffffff938416600482015292909116602483015260448201526001606482015260a06084820152600060a482015260c401600060405180830381600087803b15801561316d57600080fd5b505af1158015613181573d6000803e3d6000fd5b505050508073ffffffffffffffffffffffffffffffffffffffff1663f242432a30866001815181106131b5576131b5614a3a565b602090810291909101015185546040517fffffffff0000000000000000000000000000000000000000000000000000000060e086901b16815273ffffffffffffffffffffffffffffffffffffffff938416600482015292909116602483015260448201526002606482015260a06084820152600060a482015260c401600060405180830381600087803b15801561324b57600080fd5b505af115801561325f573d6000803e3d6000fd5b505050508073ffffffffffffffffffffffffffffffffffffffff1663f242432a308660028151811061329357613293614a3a565b602090810291909101015185546040517fffffffff0000000000000000000000000000000000000000000000000000000060e086901b16815273ffffffffffffffffffffffffffffffffffffffff938416600482015292909116602483015260448201526001606482015260a06084820152600060a482015260c4015b600060405180830381600087803b15801561332a57600080fd5b505af115801561333e573d6000803e3d6000fd5b505050505050505050565b60008281527f91591bea3fc8863c74b4740fa2dfd9fd428a1e509b60555e4d1e8d8028901f35602052604090207f91591bea3fc8863c74b4740fa2dfd9fd428a1e509b60555e4d1e8d8028901f2d906133a1846122c6565b613407576040517f08c379a000000000000000000000000000000000000000000000000000000000815260206004820152601360248201527f67616d6520646f6573206e6f74206578697374000000000000000000000000006044820152606401610173565b73ffffffffffffffffffffffffffffffffffffffff831660009081526009830160205260409020548414613497576040517f08c379a000000000000000000000000000000000000000000000000000000000815260206004820152600f60248201527f4e6f7420696e207468652067616d6500000000000000000000000000000000006044820152606401610173565b600481015460ff1615806134ba5750600481015460ff6101009091041615156001145b613520576040517f08c379a000000000000000000000000000000000000000000000000000000000815260206004820152601960248201527f43616e6e6f74206c65617665206f6e63652073746172746564000000000000006044820152606401610173565b73ffffffffffffffffffffffffffffffffffffffff831660009081526009830160205260408120556114f860058201846139ba565b6040517fb5674c6800000000000000000000000000000000000000000000000000000000815273ffffffffffffffffffffffffffffffffffffffff8481166004830152602482018490526001604483015282919082169063b5674c6890606401600060405180830381600087803b1580156135cf57600080fd5b505af11580156104e8573d6000803e3d6000fd5b60008260000182815481106135fa576135fa614a3a565b9060005260206000200154905092915050565b3073ffffffffffffffffffffffffffffffffffffffff8616036137775760028601541561367c57600286015460405173ffffffffffffffffffffffffffffffffffffffff83169180156108fc02916000818181858888f1935050505015801561367a573d6000803e3d6000fd5b505b6004860154156136ce57600486015460405173ffffffffffffffffffffffffffffffffffffffff86169180156108fc02916000818181858888f193505050501580156136cc573d6000803e3d6000fd5b505b60058601541561372057600586015460405173ffffffffffffffffffffffffffffffffffffffff85169180156108fc02916000818181858888f1935050505015801561371e573d6000803e3d6000fd5b505b60038601541561377257600386015460405173ffffffffffffffffffffffffffffffffffffffff84169180156108fc02916000818181858888f19350505050158015613770573d6000803e3d6000fd5b505b61381b565b6003860154600587015460048801546002890154600093929161379991614d47565b6137a39190614d47565b6137ad9190614d47565b905080341015613819576040517f08c379a000000000000000000000000000000000000000000000000000000000815260206004820152601160248201527f6d73672e76616c756520746f6f206c6f770000000000000000000000000000006044820152606401610173565b505b60005b600a8701548110156139b157600087600a01828154811061384157613841614a3a565b6000918252602082200154600b8a01805473ffffffffffffffffffffffffffffffffffffffff9092169350908490811061387d5761387d614a3a565b9060005260206000200154905060008960090184815481106138a1576138a1614a3a565b60009182526020808320908204015460ff601f9092166101000a90041691508a818360028111156138d4576138d4614e2b565b60028111156138e5576138e5614e2b565b81526020808201929092526040908101600090812073ffffffffffffffffffffffffffffffffffffffff8816825283528181208682529092528120915082600281111561393457613934614e2b565b0361394d5761394884828c8c8c8c8c6139dc565b61399a565b600282600281111561396157613961614e2b565b036139715761394884828c613b54565b600182600281111561398557613985614e2b565b0361399a5761399a8484838d8d8d8d8d613d1f565b5050505080806139a990614b97565b91505061381e565b50505050505050565b6000610c8c8373ffffffffffffffffffffffffffffffffffffffff8416614106565b6139ef8786838960020160010154614200565b613a028786848960040160010154614200565b613a158786868960060160010154614200565b613a288786858960080160010154614200565b600186015487908015801590613a54575073ffffffffffffffffffffffffffffffffffffffff87163014155b1561333e576040517f70a0823100000000000000000000000000000000000000000000000000000000815273ffffffffffffffffffffffffffffffffffffffff88811660048301528291908416906370a0823190602401602060405180830381865afa158015613ac8573d6000803e3d6000fd5b505050506040513d601f19601f82011682018060405250810190613aec9190615122565b101561333e576040517f08c379a000000000000000000000000000000000000000000000000000000000815260206004820152601760248201527f4e6f7420656e6f75676820657263323020746f6b656e730000000000000000006044820152606401610173565b60038201548390158015613b6a57506005830154155b8015613b7857506007830154155b8015613b8657506009830154155b613bec576040517f08c379a000000000000000000000000000000000000000000000000000000000815260206004820152601e60248201527f455243373231207472616e7366657273206e6f7420737570706f7274656400006044820152606401610173565b600183015415801590613c15575073ffffffffffffffffffffffffffffffffffffffff82163014155b1561222d576040517f70a0823100000000000000000000000000000000000000000000000000000000815273ffffffffffffffffffffffffffffffffffffffff8381166004830152600091908316906370a0823190602401602060405180830381865afa158015613c8a573d6000803e3d6000fd5b505050506040513d601f19601f82011682018060405250810190613cae9190615122565b60018501549091508110156114f8576040517f08c379a000000000000000000000000000000000000000000000000000000000815260206004820152601960248201527f4e6f7420656e6f756768204552433732312062616c616e6365000000000000006044820152606401610173565b600186015488908015613e33576040517efdd58e00000000000000000000000000000000000000000000000000000000815273ffffffffffffffffffffffffffffffffffffffff8881166004830152602482018b90526000919084169062fdd58e90604401602060405180830381865afa158015613da1573d6000803e3d6000fd5b505050506040513d601f19601f82011682018060405250810190613dc59190615122565b905081811015613e31576040517f08c379a000000000000000000000000000000000000000000000000000000000815260206004820152601c60248201527f455243313135352062616c616e6365206973206e6f742076616c6964000000006044820152606401610173565b505b5060078701548015613eb9578173ffffffffffffffffffffffffffffffffffffffff1663f242432a88888c858d6006016000016040518663ffffffff1660e01b8152600401613e869594939291906152ad565b600060405180830381600087803b158015613ea057600080fd5b505af1158015613eb4573d6000803e3d6000fd5b505050505b5060098701548015613f3f578173ffffffffffffffffffffffffffffffffffffffff1663f242432a88878c858d6008016000016040518663ffffffff1660e01b8152600401613f0c9594939291906152ad565b600060405180830381600087803b158015613f2657600080fd5b505af1158015613f3a573d6000803e3d6000fd5b505050505b50600587015480156140745773ffffffffffffffffffffffffffffffffffffffff8416613ffa576040517ff5298aca00000000000000000000000000000000000000000000000000000000815273ffffffffffffffffffffffffffffffffffffffff8881166004830152602482018b90526044820183905283169063f5298aca90606401600060405180830381600087803b158015613fdd57600080fd5b505af1158015613ff1573d6000803e3d6000fd5b50505050614074565b8173ffffffffffffffffffffffffffffffffffffffff1663f242432a88868c858d6004016000016040518663ffffffff1660e01b81526004016140419594939291906152ad565b600060405180830381600087803b15801561405b57600080fd5b505af115801561406f573d6000803e3d6000fd5b505050505b50600387015480156140fa578173ffffffffffffffffffffffffffffffffffffffff1663f242432a88858c858d6002016000016040518663ffffffff1660e01b81526004016140c79594939291906152ad565b600060405180830381600087803b1580156140e157600080fd5b505af11580156140f5573d6000803e3d6000fd5b505050505b50505050505050505050565b600081815260018301602052604081205480156141ef57600061412a60018361513b565b855490915060009061413e9060019061513b565b90508181146141a357600086600001828154811061415e5761415e614a3a565b906000526020600020015490508087600001848154811061418157614181614a3a565b6000918252602080832090910192909255918252600188019052604090208390555b85548690806141b4576141b461538e565b600190038181906000526020600020016000905590558560010160008681526020019081526020016000206000905560019350505050610b6d565b6000915050610b6d565b5092915050565b8381156114f8573073ffffffffffffffffffffffffffffffffffffffff8516036143655773ffffffffffffffffffffffffffffffffffffffff8316156142e0576040517fa9059cbb00000000000000000000000000000000000000000000000000000000815273ffffffffffffffffffffffffffffffffffffffff84811660048301526024820184905282169063a9059cbb906044015b6020604051808303816000875af11580156142b6573d6000803e3d6000fd5b505050506040513d601f19601f820116820180604052508101906142da9190615100565b506114f8565b6040517f42966c680000000000000000000000000000000000000000000000000000000081526004810183905273ffffffffffffffffffffffffffffffffffffffff8216906342966c6890602401600060405180830381600087803b15801561434857600080fd5b505af115801561435c573d6000803e3d6000fd5b505050506114f8565b73ffffffffffffffffffffffffffffffffffffffff8316156143e4576040517f23b872dd00000000000000000000000000000000000000000000000000000000815273ffffffffffffffffffffffffffffffffffffffff85811660048301528481166024830152604482018490528216906323b872dd90606401614297565b6040517f23b872dd00000000000000000000000000000000000000000000000000000000815273ffffffffffffffffffffffffffffffffffffffff8581166004830152306024830152604482018490528216906323b872dd906064016020604051808303816000875af115801561445f573d6000803e3d6000fd5b505050506040513d601f19601f820116820180604052508101906144839190615100565b506040517f42966c680000000000000000000000000000000000000000000000000000000081526004810183905273ffffffffffffffffffffffffffffffffffffffff8216906342966c6890602401613310565b828054828255906000526020600020908101928215614551579160200282015b8281111561455157825182547fffffffffffffffffffffffff00000000000000000000000000000000000000001673ffffffffffffffffffffffffffffffffffffffff9091161782556020909201916001909101906144f7565b506126789291505b808211156126785760008155600101614559565b7f4e487b7100000000000000000000000000000000000000000000000000000000600052604160045260246000fd5b604051601f82017fffffffffffffffffffffffffffffffffffffffffffffffffffffffffffffffe016810167ffffffffffffffff811182821017156145e3576145e361456d565b604052919050565b600067ffffffffffffffff8211156146055761460561456d565b5060051b60200190565b600082601f83011261462057600080fd5b81356020614635614630836145eb565b61459c565b82815260059290921b8401810191818101908684111561465457600080fd5b8286015b8481101561466f5780358352918301918301614658565b509695505050505050565b600082601f83011261468b57600080fd5b813567ffffffffffffffff8111156146a5576146a561456d565b6146d660207fffffffffffffffffffffffffffffffffffffffffffffffffffffffffffffffe0601f8401160161459c565b8181528460208386010111156146eb57600080fd5b816020850160208301376000918101602001919091529392505050565b600082601f83011261471957600080fd5b81356020614729614630836145eb565b82815260059290921b8401810191818101908684111561474857600080fd5b8286015b8481101561466f57803567ffffffffffffffff81111561476c5760008081fd5b61477a8986838b010161467a565b84525091830191830161474c565b6000806000806080858703121561479e57600080fd5b8435935060208086013567ffffffffffffffff808211156147be57600080fd5b818801915088601f8301126147d257600080fd5b81356147e0614630826145eb565b81815260059190911b8301840190848101908b8311156147ff57600080fd5b8585015b838110156148375780358581111561481b5760008081fd5b6148298e89838a010161460f565b845250918601918601614803565b5097505050604088013592508083111561485057600080fd5b61485c89848a01614708565b9450606088013592508083111561487257600080fd5b50506148808782880161460f565b91505092959194509250565b803573ffffffffffffffffffffffffffffffffffffffff811681146148b057600080fd5b919050565b6000602082840312156148c757600080fd5b813567ffffffffffffffff808211156148df57600080fd5b90830190608082860312156148f357600080fd5b60405160808101818110838211171561490e5761490e61456d565b6040528235815260208301358281111561492757600080fd5b6149338782860161467a565b6020830152506040830135604082015261494f6060840161488c565b606082015295945050505050565b60008060006060848603121561497257600080fd5b83359250602084013567ffffffffffffffff81111561499057600080fd5b61499c8682870161467a565b9250506149ab6040850161488c565b90509250925092565b600080604083850312156149c757600080fd5b6149d08361488c565b946020939093013593505050565b6000806000606084860312156149f357600080fd5b833567ffffffffffffffff80821115614a0b57600080fd5b614a178783880161467a565b94506020860135915080821115614a2d57600080fd5b5061499c8682870161467a565b7f4e487b7100000000000000000000000000000000000000000000000000000000600052603260045260246000fd5b600181811c90821680614a7d57607f821691505b602082108103614ab6577f4e487b7100000000000000000000000000000000000000000000000000000000600052602260045260246000fd5b50919050565b60005b83811015614ad7578181015183820152602001614abf565b50506000910152565b60008251614af2818460208701614abc565b9190910192915050565b60008151808452614b14816020860160208601614abc565b601f017fffffffffffffffffffffffffffffffffffffffffffffffffffffffffffffffe0169290920160200192915050565b604081526000614b596040830185614afc565b90508260208301529392505050565b7f4e487b7100000000000000000000000000000000000000000000000000000000600052601160045260246000fd5b60007fffffffffffffffffffffffffffffffffffffffffffffffffffffffffffffffff8203614bc857614bc8614b68565b5060010190565b600081518084526020808501945080840160005b83811015614bff57815187529582019590820190600101614be3565b509495945050505050565b600081518084526020808501808196508360051b8101915082860160005b85811015614c52578284038952614c40848351614afc565b98850198935090840190600101614c28565b5091979650505050505050565b600081518084526020808501808196508360051b8101915082860160005b85811015614c52578284038952614c95848351614bcf565b98850198935090840190600101614c7d565b60a0808252865190820181905260009060209060c0840190828a01845b82811015614cf657815173ffffffffffffffffffffffffffffffffffffffff1684529284019290840190600101614cc4565b50505083810382850152614d0a8189614bcf565b9150508281036040840152614d1f8187614c0a565b90508281036060840152614d338186614bcf565b905082810360808401526116888185614c5f565b80820180821115610b6d57610b6d614b68565b8281526040602082015260006128f16040830184614afc565b602081526000610c8c6020830184614afc565b7f4e487b7100000000000000000000000000000000000000000000000000000000600052600160045260246000fd5b815160009082906020808601845b83811015614ddf57815185529382019390820190600101614dc3565b50929695505050505050565b815160009082906020808601845b83811015614ddf57815173ffffffffffffffffffffffffffffffffffffffff1685529382019390820190600101614df9565b7f4e487b7100000000000000000000000000000000000000000000000000000000600052602160045260246000fd5b600181815b80851115614eb357817fffffffffffffffffffffffffffffffffffffffffffffffffffffffffffffffff04821115614e9957614e99614b68565b80851615614ea657918102915b93841c9390800290614e5f565b509250929050565b600082614eca57506001610b6d565b81614ed757506000610b6d565b8160018114614eed5760028114614ef757614f13565b6001915050610b6d565b60ff841115614f0857614f08614b68565b50506001821b610b6d565b5060208310610133831016604e8410600b8410161715614f36575081810a610b6d565b614f408383614e5a565b807fffffffffffffffffffffffffffffffffffffffffffffffffffffffffffffffff04821115614f7257614f72614b68565b029392505050565b6000610c8c60ff841683614ebb565b601f82111561176357600081815260208120601f850160051c81016020861015614fb05750805b601f850160051c820191505b81811015612fd257828155600101614fbc565b815167ffffffffffffffff811115614fe957614fe961456d565b614ffd81614ff78454614a69565b84614f89565b602080601f831160018114615050576000841561501a5750858301515b7fffffffffffffffffffffffffffffffffffffffffffffffffffffffffffffffff600386901b1c1916600185901b178555612fd2565b6000858152602081207fffffffffffffffffffffffffffffffffffffffffffffffffffffffffffffffe08616915b8281101561509d5788860151825594840194600190910190840161507e565b50858210156150d957878501517fffffffffffffffffffffffffffffffffffffffffffffffffffffffffffffffff600388901b60f8161c191681555b5050505050600190811b01905550565b8082028115828204841417610b6d57610b6d614b68565b60006020828403121561511257600080fd5b81518015158114610c8c57600080fd5b60006020828403121561513457600080fd5b5051919050565b81810381811115610b6d57610b6d614b68565b81810360008312801583831316838312821617156141f9576141f9614b68565b6000826151a4577f4e487b7100000000000000000000000000000000000000000000000000000000600052601260045260246000fd5b7fffffffffffffffffffffffffffffffffffffffffffffffffffffffffffffffff83147f8000000000000000000000000000000000000000000000000000000000000000831416156151f8576151f8614b68565b500590565b808201828112600083128015821682158216171561521d5761521d614b68565b505092915050565b60007f7fffffffffffffffffffffffffffffffffffffffffffffffffffffffffffffff8203614bc857614bc8614b68565b60007f8000000000000000000000000000000000000000000000000000000000000000820361528757615287614b68565b507fffffffffffffffffffffffffffffffffffffffffffffffffffffffffffffffff0190565b600073ffffffffffffffffffffffffffffffffffffffff808816835260208188168185015286604085015285606085015260a060808501526000915084546152f481614a69565b8060a087015260c0600180841660008114615316576001811461534e5761537c565b7fffffffffffffffffffffffffffffffffffffffffffffffffffffffffffffff008516838a01528284151560051b8a0101965061537c565b896000528560002060005b858110156153745781548b8201860152908301908701615359565b8a0184019750505b50949c9b505050505050505050505050565b7f4e487b7100000000000000000000000000000000000000000000000000000000600052603160045260246000fdfea2646970667358221220cd96a12eb933445e1df089c54bb0eff2654ee99f7990c3721754a4190c4c45fc64736f6c63430008140033",
  "devdoc": {
    "kind": "dev",
    "methods": {},
    "version": 1
  },
  "userdoc": {
    "kind": "user",
    "methods": {},
    "version": 1
  },
  "storageLayout": {
    "storage": [],
    "types": null
  }
}