{
  "address": "0xE0744E372a685aE1c1a4ec3C5E56524b03582c9B",
  "abi": [
    {
      "anonymous": false,
      "inputs": [
        {
          "indexed": true,
          "internalType": "uint256",
          "name": "gameId",
          "type": "uint256"
        }
      ],
      "name": "GameClosed",
      "type": "event"
    },
    {
      "anonymous": false,
      "inputs": [
        {
          "indexed": true,
          "internalType": "uint256",
          "name": "gameId",
          "type": "uint256"
        }
      ],
      "name": "GameStarted",
      "type": "event"
    },
    {
      "anonymous": false,
      "inputs": [
        {
          "indexed": true,
          "internalType": "uint256",
          "name": "gameId",
          "type": "uint256"
        },
        {
          "indexed": false,
          "internalType": "address",
          "name": "participant",
          "type": "address"
        }
      ],
      "name": "PlayerJoined",
      "type": "event"
    },
    {
      "anonymous": false,
      "inputs": [
        {
          "indexed": true,
          "internalType": "uint256",
          "name": "gameId",
          "type": "uint256"
        },
        {
          "indexed": true,
          "internalType": "address",
          "name": "player",
          "type": "address"
        }
      ],
      "name": "PlayerLeft",
      "type": "event"
    },
    {
      "anonymous": false,
      "inputs": [
        {
          "indexed": true,
          "internalType": "uint256",
          "name": "gameid",
          "type": "uint256"
        }
      ],
      "name": "RegistrationOpen",
      "type": "event"
    },
    {
      "anonymous": false,
      "inputs": [
        {
          "indexed": false,
          "internalType": "uint256",
          "name": "gameId",
          "type": "uint256"
        },
        {
          "indexed": true,
          "internalType": "address",
          "name": "gm",
          "type": "address"
        },
        {
          "indexed": true,
          "internalType": "address",
          "name": "creator",
          "type": "address"
        },
        {
          "indexed": true,
          "internalType": "uint256",
          "name": "rank",
          "type": "uint256"
        }
      ],
      "name": "gameCreated",
      "type": "event"
    },
    {
      "inputs": [
        {
          "internalType": "uint256",
          "name": "gameId",
          "type": "uint256"
        }
      ],
      "name": "canEndTurn",
      "outputs": [
        {
          "internalType": "bool",
          "name": "",
          "type": "bool"
        }
      ],
      "stateMutability": "view",
      "type": "function"
    },
    {
      "inputs": [
        {
          "internalType": "uint256",
          "name": "gameId",
          "type": "uint256"
        }
      ],
      "name": "canStartGame",
      "outputs": [
        {
          "internalType": "bool",
          "name": "",
          "type": "bool"
        }
      ],
      "stateMutability": "view",
      "type": "function"
    },
    {
      "inputs": [
        {
          "internalType": "uint256",
          "name": "gameId",
          "type": "uint256"
        }
      ],
      "name": "cancelGame",
      "outputs": [],
      "stateMutability": "nonpayable",
      "type": "function"
    },
    {
      "inputs": [
        {
          "internalType": "address",
          "name": "gameMaster",
          "type": "address"
        },
        {
          "internalType": "uint256",
          "name": "gameRank",
          "type": "uint256"
        }
      ],
      "name": "createGame",
      "outputs": [],
      "stateMutability": "nonpayable",
      "type": "function"
    },
    {
      "inputs": [
        {
          "internalType": "address",
          "name": "gameMaster",
          "type": "address"
        },
        {
          "internalType": "uint256",
          "name": "gameId",
          "type": "uint256"
        },
        {
          "internalType": "uint256",
          "name": "gameRank",
          "type": "uint256"
        }
      ],
      "name": "createGame",
      "outputs": [],
      "stateMutability": "nonpayable",
      "type": "function"
    },
    {
      "inputs": [
        {
          "internalType": "address",
          "name": "gameMaster",
          "type": "address"
        },
        {
          "internalType": "uint256",
          "name": "gameId",
          "type": "uint256"
        },
        {
          "internalType": "uint256",
          "name": "gameRank",
          "type": "uint256"
        },
        {
          "internalType": "address[]",
          "name": "additionalRanks",
          "type": "address[]"
        }
      ],
      "name": "createGame",
      "outputs": [],
      "stateMutability": "nonpayable",
      "type": "function"
    },
    {
      "inputs": [
        {
          "internalType": "uint256",
          "name": "gameId",
          "type": "uint256"
        }
      ],
      "name": "gameCreator",
      "outputs": [
        {
          "internalType": "address",
          "name": "",
          "type": "address"
        }
      ],
      "stateMutability": "view",
      "type": "function"
    },
    {
      "inputs": [],
      "name": "getContractState",
      "outputs": [
        {
          "components": [
            {
              "components": [
                {
                  "internalType": "uint256",
                  "name": "gamePrice",
                  "type": "uint256"
                },
                {
                  "internalType": "address",
                  "name": "gamePaymentToken",
                  "type": "address"
                },
                {
                  "internalType": "uint256",
                  "name": "joinGamePrice",
                  "type": "uint256"
                },
                {
                  "internalType": "uint256",
                  "name": "numGames",
                  "type": "uint256"
                },
                {
                  "internalType": "address",
                  "name": "rankTokenAddress",
                  "type": "address"
                },
                {
                  "internalType": "bool",
                  "name": "contractInitialized",
                  "type": "bool"
                },
                {
                  "components": [
                    {
                      "internalType": "uint256",
                      "name": "voteCredits",
                      "type": "uint256"
                    },
                    {
                      "internalType": "uint256",
                      "name": "maxQuadraticPoints",
                      "type": "uint256"
                    },
                    {
                      "internalType": "uint256",
                      "name": "minQuadraticPositons",
                      "type": "uint256"
                    }
                  ],
                  "internalType": "struct LibQuadraticVoting.qVotingStruct",
                  "name": "voting",
                  "type": "tuple"
                }
              ],
              "internalType": "struct IRankifyInstanceCommons.RInstanceSettings",
              "name": "BestOfState",
              "type": "tuple"
            },
            {
              "components": [
                {
                  "internalType": "uint256",
                  "name": "timePerTurn",
                  "type": "uint256"
                },
                {
                  "internalType": "uint256",
                  "name": "maxPlayersSize",
                  "type": "uint256"
                },
                {
                  "internalType": "uint256",
                  "name": "minPlayersSize",
                  "type": "uint256"
                },
                {
                  "internalType": "uint256",
                  "name": "timeToJoin",
                  "type": "uint256"
                },
                {
                  "internalType": "uint256",
                  "name": "maxTurns",
                  "type": "uint256"
                },
                {
                  "internalType": "uint256",
                  "name": "numWinners",
                  "type": "uint256"
                },
                {
                  "internalType": "uint256",
                  "name": "voteCredits",
                  "type": "uint256"
                },
                {
                  "internalType": "string",
                  "name": "subject",
                  "type": "string"
                }
              ],
              "internalType": "struct LibTBG.GameSettings",
              "name": "TBGSEttings",
              "type": "tuple"
            }
          ],
          "internalType": "struct IRankifyInstanceCommons.RInstanceState",
          "name": "",
          "type": "tuple"
        }
      ],
      "stateMutability": "view",
      "type": "function"
    },
    {
      "inputs": [
        {
          "internalType": "uint256",
          "name": "gameId",
          "type": "uint256"
        }
      ],
      "name": "getGM",
      "outputs": [
        {
          "internalType": "address",
          "name": "",
          "type": "address"
        }
      ],
      "stateMutability": "view",
      "type": "function"
    },
    {
      "inputs": [
        {
          "internalType": "uint256",
          "name": "gameId",
          "type": "uint256"
        }
      ],
      "name": "getGameRank",
      "outputs": [
        {
          "internalType": "uint256",
          "name": "",
          "type": "uint256"
        }
      ],
      "stateMutability": "view",
      "type": "function"
    },
    {
      "inputs": [
        {
          "internalType": "uint256",
          "name": "gameId",
          "type": "uint256"
        }
      ],
      "name": "getPlayers",
      "outputs": [
        {
          "internalType": "address[]",
          "name": "",
          "type": "address[]"
        }
      ],
      "stateMutability": "view",
      "type": "function"
    },
    {
      "inputs": [
        {
          "internalType": "address",
          "name": "player",
          "type": "address"
        }
      ],
      "name": "getPlayersGame",
      "outputs": [
        {
          "internalType": "uint256",
          "name": "",
          "type": "uint256"
        }
      ],
      "stateMutability": "view",
      "type": "function"
    },
    {
      "inputs": [
        {
          "internalType": "uint256",
          "name": "gameId",
          "type": "uint256"
        }
      ],
      "name": "getScores",
      "outputs": [
        {
          "internalType": "address[]",
          "name": "",
          "type": "address[]"
        },
        {
          "internalType": "uint256[]",
          "name": "",
          "type": "uint256[]"
        }
      ],
      "stateMutability": "view",
      "type": "function"
    },
    {
      "inputs": [
        {
          "internalType": "uint256",
          "name": "gameId",
          "type": "uint256"
        }
      ],
      "name": "getTurn",
      "outputs": [
        {
          "internalType": "uint256",
          "name": "",
          "type": "uint256"
        }
      ],
      "stateMutability": "view",
      "type": "function"
    },
    {
      "inputs": [
        {
          "internalType": "uint256",
          "name": "gameId",
          "type": "uint256"
        }
      ],
      "name": "isGameOver",
      "outputs": [
        {
          "internalType": "bool",
          "name": "",
          "type": "bool"
        }
      ],
      "stateMutability": "view",
      "type": "function"
    },
    {
      "inputs": [
        {
          "internalType": "uint256",
          "name": "gameId",
          "type": "uint256"
        }
      ],
      "name": "isLastTurn",
      "outputs": [
        {
          "internalType": "bool",
          "name": "",
          "type": "bool"
        }
      ],
      "stateMutability": "view",
      "type": "function"
    },
    {
      "inputs": [
        {
          "internalType": "uint256",
          "name": "gameId",
          "type": "uint256"
        }
      ],
      "name": "isOvertime",
      "outputs": [
        {
          "internalType": "bool",
          "name": "",
          "type": "bool"
        }
      ],
      "stateMutability": "view",
      "type": "function"
    },
    {
      "inputs": [
        {
          "internalType": "uint256",
          "name": "gameId",
          "type": "uint256"
        }
      ],
      "name": "isRegistrationOpen",
      "outputs": [
        {
          "internalType": "bool",
          "name": "",
          "type": "bool"
        }
      ],
      "stateMutability": "view",
      "type": "function"
    },
    {
      "inputs": [
        {
          "internalType": "uint256",
          "name": "gameId",
          "type": "uint256"
        }
      ],
      "name": "joinGame",
      "outputs": [],
      "stateMutability": "payable",
      "type": "function"
    },
    {
      "inputs": [
        {
          "internalType": "uint256",
          "name": "gameId",
          "type": "uint256"
        }
      ],
      "name": "leaveGame",
      "outputs": [],
      "stateMutability": "nonpayable",
      "type": "function"
    },
    {
      "inputs": [
        {
          "internalType": "address",
          "name": "operator",
          "type": "address"
        },
        {
          "internalType": "address",
          "name": "",
          "type": "address"
        },
        {
          "internalType": "uint256[]",
          "name": "",
          "type": "uint256[]"
        },
        {
          "internalType": "uint256[]",
          "name": "",
          "type": "uint256[]"
        },
        {
          "internalType": "bytes",
          "name": "",
          "type": "bytes"
        }
      ],
      "name": "onERC1155BatchReceived",
      "outputs": [
        {
          "internalType": "bytes4",
          "name": "",
          "type": "bytes4"
        }
      ],
      "stateMutability": "view",
      "type": "function"
    },
    {
      "inputs": [
        {
          "internalType": "address",
          "name": "operator",
          "type": "address"
        },
        {
          "internalType": "address",
          "name": "",
          "type": "address"
        },
        {
          "internalType": "uint256",
          "name": "",
          "type": "uint256"
        },
        {
          "internalType": "uint256",
          "name": "",
          "type": "uint256"
        },
        {
          "internalType": "bytes",
          "name": "",
          "type": "bytes"
        }
      ],
      "name": "onERC1155Received",
      "outputs": [
        {
          "internalType": "bytes4",
          "name": "",
          "type": "bytes4"
        }
      ],
      "stateMutability": "view",
      "type": "function"
    },
    {
      "inputs": [
        {
          "internalType": "address",
          "name": "operator",
          "type": "address"
        },
        {
          "internalType": "address",
          "name": "",
          "type": "address"
        },
        {
          "internalType": "uint256",
          "name": "",
          "type": "uint256"
        },
        {
          "internalType": "bytes",
          "name": "",
          "type": "bytes"
        }
      ],
      "name": "onERC721Received",
      "outputs": [
        {
          "internalType": "bytes4",
          "name": "",
          "type": "bytes4"
        }
      ],
      "stateMutability": "view",
      "type": "function"
    },
    {
      "inputs": [
        {
          "internalType": "uint256",
          "name": "gameId",
          "type": "uint256"
        }
      ],
      "name": "openRegistration",
      "outputs": [],
      "stateMutability": "nonpayable",
      "type": "function"
    },
    {
      "inputs": [
        {
          "internalType": "uint256",
          "name": "gameId",
          "type": "uint256"
        }
      ],
      "name": "startGame",
      "outputs": [],
      "stateMutability": "nonpayable",
      "type": "function"
    }
  ],
  "transactionHash": "0xe3e13d74b362ffc6f75836b50f034eec6eef6a9b0eaf8f0c9011dc44b51b4a66",
  "args": [],
  "numDeployments": 1,
  "solcInputHash": "d4243cadb17b72c1adc02b25740ca647",
  "bytecode": "0x608060405234801561001057600080fd5b50615ac480620000216000396000f3fe6080604052600436106101965760003560e01c80639637460e116100e1578063bfa640361161008a578063e5ed1d5911610064578063e5ed1d59146104d7578063efaa55a0146104f7578063f23a6e611461050a578063f72ea4671461052a57600080fd5b8063bfa6403614610477578063cca84a0c14610497578063e240ae5f146104b757600080fd5b8063b55991c0116100bb578063b55991c014610417578063b881cffe14610437578063bc197c811461045757600080fd5b80639637460e146103845780639a214b1e146103a4578063aee5f34a146103d257600080fd5b80634024ba751161014357806369958ab91161011d57806369958ab9146103225780637f4e4849146103425780638eed01f81461036457600080fd5b80634024ba75146102b5578063460e2049146102d557806358759df71461030257600080fd5b8063392b749c11610174578063392b749c146102455780633b17469e146102755780633feef58a1461029557600080fd5b806304527d901461019b57806307ead930146101d2578063150b7a02146101f4575b600080fd5b3480156101a757600080fd5b506101bb6101b6366004614fc8565b61054a565b6040516101c9929190615032565b60405180910390f35b3480156101de57600080fd5b506101f26101ed3660046150bb565b61055f565b005b34801561020057600080fd5b5061021461020f366004615130565b610593565b6040517fffffffff0000000000000000000000000000000000000000000000000000000090911681526020016101c9565b34801561025157600080fd5b50610265610260366004614fc8565b6105ee565b60405190151581526020016101c9565b34801561028157600080fd5b506101f26102903660046151a3565b6105ff565b3480156102a157600080fd5b506101f26102b0366004614fc8565b61076c565b3480156102c157600080fd5b506102656102d0366004614fc8565b61085d565b3480156102e157600080fd5b506102f56102f0366004614fc8565b610868565b6040516101c991906151d8565b34801561030e57600080fd5b5061026561031d366004614fc8565b610873565b34801561032e57600080fd5b506101f261033d366004614fc8565b61087e565b34801561034e57600080fd5b506103576109de565b6040516101c991906152a9565b34801561037057600080fd5b5061026561037f366004614fc8565b610ab8565b34801561039057600080fd5b5061026561039f366004614fc8565b610ac3565b3480156103b057600080fd5b506103c46103bf366004614fc8565b610afc565b6040519081526020016101c9565b3480156103de57600080fd5b506103f26103ed366004614fc8565b610b0e565b60405173ffffffffffffffffffffffffffffffffffffffff90911681526020016101c9565b34801561042357600080fd5b506103c4610432366004614fc8565b610b39565b34801561044357600080fd5b50610265610452366004614fc8565b610b6f565b34801561046357600080fd5b5061021461047236600461538e565b610b7a565b34801561048357600080fd5b506103c461049236600461544d565b610bd8565b3480156104a357600080fd5b506101f26104b2366004614fc8565b610c22565b3480156104c357600080fd5b506101f26104d2366004615499565b610c6c565b3480156104e357600080fd5b506101f26104f2366004614fc8565b611062565b6101f2610505366004614fc8565b6110a2565b34801561051657600080fd5b506102146105253660046155a2565b6111c9565b34801561053657600080fd5b506103f2610545366004614fc8565b611225565b6060806105568361126e565b91509150915091565b610567611382565b6000610571611418565b905061058e8382600301546001610588919061564d565b846105ff565b505050565b600061059d611382565b3073ffffffffffffffffffffffffffffffffffffffff8716036105e157507f150b7a02000000000000000000000000000000000000000000000000000000006105e5565b5060005b95945050505050565b60006105f982611441565b92915050565b7fddce64af877bbb30b6a5e98c16fd4fee7160a0f8a0a2f9abfbb4a2d661459309805460ff1615610691576040517f08c379a000000000000000000000000000000000000000000000000000000000815260206004820152601860248201527f5245473a20596f75207368616c6c206e6f74207061737321000000000000000060448201526064015b60405180910390fd5b80547fffffffffffffffffffffffffffffffffffffffffffffffffffffffffffffff001660011781556106c6838584336114e7565b6106ce614db0565b6106d884826117fd565b823373ffffffffffffffffffffffffffffffffffffffff168673ffffffffffffffffffffffffffffffffffffffff167f48f48f6273652830aa3718ca489b3d13c244a7215c70bab5c5c2f523aba583b68760405161073891815260200190565b60405180910390a45080547fffffffffffffffffffffffffffffffffffffffffffffffffffffffffffffff00169055505050565b7fddce64af877bbb30b6a5e98c16fd4fee7160a0f8a0a2f9abfbb4a2d661459309805460ff16156107f9576040517f08c379a000000000000000000000000000000000000000000000000000000000815260206004820152601860248201527f5245473a20596f75207368616c6c206e6f7420706173732100000000000000006044820152606401610688565b80547fffffffffffffffffffffffffffffffffffffffffffffffffffffffffffffff0016600190811782556108349083903390611cab611cfc565b80547fffffffffffffffffffffffffffffffffffffffffffffffffffffffffffffff0016905550565b60006105f982611e20565b60606105f982611eaf565b60006105f982611ef2565b7fddce64af877bbb30b6a5e98c16fd4fee7160a0f8a0a2f9abfbb4a2d661459309805460ff161561090b576040517f08c379a000000000000000000000000000000000000000000000000000000000815260206004820152601860248201527f5245473a20596f75207368616c6c206e6f7420706173732100000000000000006044820152606401610688565b80547fffffffffffffffffffffffffffffffffffffffffffffffffffffffffffffff0016600117815561093e8233611f7b565b61098a611cab6109827fc8fcad8db84d3cc18b4c41d551ea0ee66dd599cde068d998e57d5e09332c13205473ffffffffffffffffffffffffffffffffffffffff1690565b849190612018565b60405182907f71f4c9aec1b2c51302bcaf09a3f4985709759853536445493905081899603a2190600090a280547fffffffffffffffffffffffffffffffffffffffffffffffffffffffffffffff0016905550565b6109e6614dfa565b60006109f0611418565b905060006109fc612213565b60408051610120810182528454818301908152600186015473ffffffffffffffffffffffffffffffffffffffff90811660608085019190915260028801546080850152600388015460a0850152600488015491821660c08501527401000000000000000000000000000000000000000090910460ff16151560e084015283519081018452600587015481526006870154602080830191909152600790970154938101939093526101008201929092529081529283015250919050565b60006105f982612432565b60008181527f91591bea3fc8863c74b4740fa2dfd9fd428a1e509b60555e4d1e8d8028901f3560205260408120600b015460ff166105f9565b6000610b07826124c7565b5492915050565b6000610b19826124c7565b6001015473ffffffffffffffffffffffffffffffffffffffff1692915050565b60008181527f91591bea3fc8863c74b4740fa2dfd9fd428a1e509b60555e4d1e8d8028901f3560205260408120600101546105f9565b60006105f9826124ff565b6000610b84611382565b3073ffffffffffffffffffffffffffffffffffffffff8a1603610bc857507fbc197c819b3e337a6f9652dd10becd7eef83032af3b9d958d3d42f6694146621610bcc565b5060005b98975050505050505050565b73ffffffffffffffffffffffffffffffffffffffff811660009081527f91591bea3fc8863c74b4740fa2dfd9fd428a1e509b60555e4d1e8d8028901f3660205260408120546105f9565b610c2c8133611f7b565b610c3581612586565b610c3e816126b7565b60405181907f5da9fef10786347975dd7cc4fc53417cff6969b0f7a9b6763169306c8cbeb63690600090a250565b610c778484846105ff565b6000610c82846124c7565b9050815160001461105b5760005b8251811015611043576000838281518110610cad57610cad615660565b60209081029190910101516040517f01ffc9a70000000000000000000000000000000000000000000000000000000081527fb0262bf600000000000000000000000000000000000000000000000000000000600482015290915073ffffffffffffffffffffffffffffffffffffffff8216906301ffc9a790602401602060405180830381865afa158015610d45573d6000803e3d6000fd5b505050506040513d601f19601f82011682018060405250810190610d69919061568f565b610dcf576040517f08c379a000000000000000000000000000000000000000000000000000000000815260206004820152601b60248201527f6d75737420737570706f72742072616e6b20696e7465726661636500000000006044820152606401610688565b3073ffffffffffffffffffffffffffffffffffffffff168173ffffffffffffffffffffffffffffffffffffffff16635c87c8f96040518163ffffffff1660e01b8152600401602060405180830381865afa158015610e31573d6000803e3d6000fd5b505050506040513d601f19601f82011682018060405250810190610e5591906156b1565b73ffffffffffffffffffffffffffffffffffffffff1614610ed2576040517f08c379a000000000000000000000000000000000000000000000000000000000815260206004820152601760248201527f6d7573742062652072616e6b696e67496e7374616e63650000000000000000006044820152606401610688565b73ffffffffffffffffffffffffffffffffffffffff811663731133e9306001610efb898261564d565b6040517fffffffff0000000000000000000000000000000000000000000000000000000060e086901b16815273ffffffffffffffffffffffffffffffffffffffff909316600484015260248301919091526044820152608060648201526000608482015260a401600060405180830381600087803b158015610f7c57600080fd5b505af1158015610f90573d6000803e3d6000fd5b50506040517f731133e90000000000000000000000000000000000000000000000000000000081523060048201526003602482015260448101889052608060648201526000608482015273ffffffffffffffffffffffffffffffffffffffff8416925063731133e9915060a401600060405180830381600087803b15801561101757600080fd5b505af115801561102b573d6000803e3d6000fd5b5050505050808061103b906156ce565b915050610c90565b5081516110599060088301906020850190614e5f565b505b5050505050565b61106b8161275c565b611074816127d3565b60405181907f50ad08f58a27f2851d7e3a1b3a6a46b290f2ce677e99642d30ff639721e7779090600090a250565b7fddce64af877bbb30b6a5e98c16fd4fee7160a0f8a0a2f9abfbb4a2d661459309805460ff161561112f576040517f08c379a000000000000000000000000000000000000000000000000000000000815260206004820152601860248201527f5245473a20596f75207368616c6c206e6f7420706173732100000000000000006044820152606401610688565b80547fffffffffffffffffffffffffffffffffffffffffffffffffffffffffffffff001660011781556111628233612ae0565b61116b82612bec565b60405133815282907f87969bc7faf902221a147b95ceba76e011c5efb0339a0a8ee7a2bb82d9cfbbd69060200160405180910390a280547fffffffffffffffffffffffffffffffffffffffffffffffffffffffffffffff0016905550565b60006111d3611382565b3073ffffffffffffffffffffffffffffffffffffffff88160361121757507ff23a6e612e1ff4830e658fe43f4e3cb4a5f8170bd5d9e69fb5d7a7fa9e4fdf9761121b565b5060005b9695505050505050565b60008181527f91591bea3fc8863c74b4740fa2dfd9fd428a1e509b60555e4d1e8d8028901f35602052604081205473ffffffffffffffffffffffffffffffffffffffff166105f9565b606080600061127c84611eaf565b90506000815167ffffffffffffffff81111561129a5761129a61546a565b6040519080825280602002602001820160405280156112c3578160200160208202803683370190505b50905060005b825181101561137757611348868483815181106112e8576112e8615660565b602002602001015160009182527f91591bea3fc8863c74b4740fa2dfd9fd428a1e509b60555e4d1e8d8028901f356020908152604080842073ffffffffffffffffffffffffffffffffffffffff9390931684526009909201905290205490565b82828151811061135a5761135a615660565b60209081029190910101528061136f816156ce565b9150506112c9565b509094909350915050565b600061138c611418565b600481015490915074010000000000000000000000000000000000000000900460ff16611415576040517f08c379a000000000000000000000000000000000000000000000000000000000815260206004820152600f60248201527f6f6e6c79496e697469616c697a656400000000000000000000000000000000006044820152606401610688565b50565b6000807f7acf15cdb85906c3736403f86bf7ccb69a25bb6dbdcde1cbcbf35fe2a64df8526105f9565b60008181527f91591bea3fc8863c74b4740fa2dfd9fd428a1e509b60555e4d1e8d8028901f35602052604081207f91591bea3fc8863c74b4740fa2dfd9fd428a1e509b60555e4d1e8d8028901f2e547f91591bea3fc8863c74b4740fa2dfd9fd428a1e509b60555e4d1e8d8028901f2d906114be60058401612c51565b14806114ce57506114ce84612c5b565b156114dd575060019392505050565b5060009392505050565b6114ef611382565b60006114f9611418565b90506115058585612d2e565b6000611510866124c7565b90508360000361157c576040517f08c379a000000000000000000000000000000000000000000000000000000000815260206004820152601760248201527f67616d652072616e6b206e6f74207370656369666965640000000000000000006044820152606401610688565b81541561163357600182015482546040517f23b872dd00000000000000000000000000000000000000000000000000000000815273ffffffffffffffffffffffffffffffffffffffff868116600483015230602483015260448201929092529116906323b872dd906064016020604051808303816000875af1158015611606573d6000803e3d6000fd5b505050506040513d601f19601f8201168201806040525081019061162a919061568f565b50815460098201555b600181810180547fffffffffffffffffffffffff00000000000000000000000000000000000000001673ffffffffffffffffffffffffffffffffffffffff861617905560038301805460009061168a90849061564d565b9091555050838155600482015473ffffffffffffffffffffffffffffffffffffffff168063731133e93060016116c0898261564d565b6040517fffffffff0000000000000000000000000000000000000000000000000000000060e086901b16815273ffffffffffffffffffffffffffffffffffffffff909316600484015260248301919091526044820152608060648201526000608482015260a401600060405180830381600087803b15801561174157600080fd5b505af1158015611755573d6000803e3d6000fd5b50506040517f731133e90000000000000000000000000000000000000000000000000000000081523060048201526003602482015260448101889052608060648201526000608482015273ffffffffffffffffffffffffffffffffffffffff8416925063731133e9915060a401600060405180830381600087803b1580156117dc57600080fd5b505af11580156117f0573d6000803e3d6000fd5b5050505050505050505050565b60006118528360408051602080820193909352815180820384018152908201825280519083012060009081527fb12a0409539e5fa777ebbd0648c2d35d1b56f5385885518278a66364324a9138909252902090565b905080600801546000148061187d575080600701548160060154611876919061564d565b8160080154145b611909576040517f08c379a000000000000000000000000000000000000000000000000000000000815260206004820152603660248201527f43616e6e6f74206d757461746520706f736974696f6e2077697468206375727260448201527f656e746c7920706f7369746976652062616c616e6365000000000000000000006064820152608401610688565b815180516001830155602081015160028301556040810151600383015560608101516004830155608001516005820155611947600a82016000614ee9565b611955600b82016000614ee9565b611963600982016000614f07565b60005b826020015151811015611c7a5781600a018360200151828151811061198d5761198d615660565b60209081029190910181015151825460018101845560009384529282902090920180547fffffffffffffffffffffffff00000000000000000000000000000000000000001673ffffffffffffffffffffffffffffffffffffffff909316929092179091558301518051600b8401919083908110611a0c57611a0c615660565b602090810291909101810151810151825460018101845560009384529282902090920191909155830151805160098401919083908110611a4e57611a4e615660565b60209081029190910181015160400151825460018101845560009384529282902091830490910180549192909160ff601f9092166101000a918202191690836002811115611a9e57611a9e615706565b021790555082602001518181518110611ab957611ab9615660565b60200260200101516060015182600001600085602001518481518110611ae157611ae1615660565b6020026020010151604001516002811115611afe57611afe615706565b6002811115611b0f57611b0f615706565b8152602001908152602001600020600085602001518481518110611b3557611b35615660565b60200260200101516000015173ffffffffffffffffffffffffffffffffffffffff1673ffffffffffffffffffffffffffffffffffffffff168152602001908152602001600020600085602001518481518110611b9357611b93615660565b60209081029190910181015181015182528101919091526040016000208151805182908190611bc290826157ce565b50602091820151600190910155820151805160028301908190611be590826157ce565b50602091909101516001909101556040820151805160048301908190611c0b90826157ce565b50602091909101516001909101556060820151805160068301908190611c3190826157ce565b50602091909101516001909101556080820151805160088301908190611c5790826157ce565b506020820151816001015550509050508080611c72906156ce565b915050611966565b50600c0180547fffffffffffffffffffffffffffffffffffffffffffffffffffffffffffffff001660011790555050565b611cb5828261302c565b60405173ffffffffffffffffffffffffffffffffffffffff82169083907fb2bd643202385c64d9814c6c3fa61b1ba098d6652292e9d9a6f1a0cdae6eb82490600090a35050565b6000611d06611418565b90508060020154600014611e0857600083611d22576001611d25565b60025b60ff1690506000818360020154611d3c91906158e8565b90506000611d49886124c7565b905081816009016000828254611d5f9190615923565b909155505060018401546040517fa9059cbb00000000000000000000000000000000000000000000000000000000815273ffffffffffffffffffffffffffffffffffffffff8981166004830152602482018590529091169063a9059cbb906044016020604051808303816000875af1158015611ddf573d6000803e3d6000fd5b505050506040513d601f19601f82011682018060405250810190611e03919061568f565b505050505b611e12858561308d565b61105b85858463ffffffff16565b60008181527f91591bea3fc8863c74b4740fa2dfd9fd428a1e509b60555e4d1e8d8028901f356020526040812060038101547f91591bea3fc8863c74b4740fa2dfd9fd428a1e509b60555e4d1e8d8028901f2d908303611e84575060009392505050565b6003810154611e93904261564d565b826003015410611ea4576000611ea7565b60015b949350505050565b60008181527f91591bea3fc8863c74b4740fa2dfd9fd428a1e509b60555e4d1e8d8028901f3560205260409020606090611eeb6005820161315a565b9392505050565b60008181527f91591bea3fc8863c74b4740fa2dfd9fd428a1e509b60555e4d1e8d8028901f35602052604081206000611f2d82600501612c51565b826008015414611f3e576000611f41565b60015b600483015490915060ff161580611f5c5750611f5c84612432565b15611f6b575060009392505050565b80806114ce57506114ce84613167565b611f848261275c565b6000611f8f836124c7565b600181015490915073ffffffffffffffffffffffffffffffffffffffff83811691161461058e576040517f08c379a000000000000000000000000000000000000000000000000000000000815260206004820152601160248201527f4f6e6c792067616d652063726561746f720000000000000000000000000000006044820152606401610688565b600061202384611eaf565b905060005b8151811015612069576120578583838151811061204757612047615660565b6020026020010151600087611cfc565b80612061816156ce565b915050612028565b506000612075856124c7565b90506000612081611418565b905060006002826000015461209691906158e8565b600183810154908501546040517fa9059cbb00000000000000000000000000000000000000000000000000000000815273ffffffffffffffffffffffffffffffffffffffff918216600482015260248101849052929350169063a9059cbb906044016020604051808303816000875af1158015612117573d6000803e3d6000fd5b505050506040513d601f19601f8201168201806040525081019061213b919061568f565b50808360090160008282546121509190615923565b9091555050600182015460098401546040517fa9059cbb00000000000000000000000000000000000000000000000000000000815273ffffffffffffffffffffffffffffffffffffffff8881166004830152602482019290925291169063a9059cbb906044016020604051808303816000875af11580156121d5573d6000803e3d6000fd5b505050506040513d601f19601f820116820180604052508101906121f9919061568f565b506000600984015561220a876131db565b50505050505050565b61225b60405180610100016040528060008152602001600081526020016000815260200160008152602001600081526020016000815260200160008152602001606081525090565b60408051610100810182527f91591bea3fc8863c74b4740fa2dfd9fd428a1e509b60555e4d1e8d8028901f2d805482527f91591bea3fc8863c74b4740fa2dfd9fd428a1e509b60555e4d1e8d8028901f2e5460208301527f91591bea3fc8863c74b4740fa2dfd9fd428a1e509b60555e4d1e8d8028901f2f54928201929092527f91591bea3fc8863c74b4740fa2dfd9fd428a1e509b60555e4d1e8d8028901f305460608201527f91591bea3fc8863c74b4740fa2dfd9fd428a1e509b60555e4d1e8d8028901f315460808201527f91591bea3fc8863c74b4740fa2dfd9fd428a1e509b60555e4d1e8d8028901f325460a08201527f91591bea3fc8863c74b4740fa2dfd9fd428a1e509b60555e4d1e8d8028901f335460c08201527f91591bea3fc8863c74b4740fa2dfd9fd428a1e509b60555e4d1e8d8028901f348054839160e08401916123aa90615735565b80601f01602080910402602001604051908101604052809291908181526020018280546123d690615735565b80156124235780601f106123f857610100808354040283529160200191612423565b820191906000526020600020905b81548152906001019060200180831161240657829003601f168201915b50505050508152505091505090565b60008181527f91591bea3fc8863c74b4740fa2dfd9fd428a1e509b60555e4d1e8d8028901f35602052604081207f91591bea3fc8863c74b4740fa2dfd9fd428a1e509b60555e4d1e8d8028901f315460018201547f91591bea3fc8863c74b4740fa2dfd9fd428a1e509b60555e4d1e8d8028901f2d92911080156114ce5750600b81015460ff166114dd575060019392505050565b60008181527f91591bea3fc8863c74b4740fa2dfd9fd428a1e509b60555e4d1e8d8028901f3560205260408120600a01548190611eeb565b60008181527f91591bea3fc8863c74b4740fa2dfd9fd428a1e509b60555e4d1e8d8028901f35602052604081207f91591bea3fc8863c74b4740fa2dfd9fd428a1e509b60555e4d1e8d8028901f315460018201547f91591bea3fc8863c74b4740fa2dfd9fd428a1e509b60555e4d1e8d8028901f2d929190036114dd575060019392505050565b61258f81611e20565b1561261c576040517f08c379a000000000000000000000000000000000000000000000000000000000815260206004820152602360248201527f43616e6e6f7420646f207768656e20726567697374726174696f6e206973206f60448201527f70656e00000000000000000000000000000000000000000000000000000000006064820152608401610688565b60008181527f91591bea3fc8863c74b4740fa2dfd9fd428a1e509b60555e4d1e8d8028901f35602052604090206004015460ff1615611415576040517f08c379a000000000000000000000000000000000000000000000000000000000815260206004820152601b60248201527f43616e6e6f7420646f207768656e2067616d65207374617274656400000000006044820152606401610688565b6126c081613446565b612726576040517f08c379a000000000000000000000000000000000000000000000000000000000815260206004820152600e60248201527f67616d65206e6f7420666f756e640000000000000000000000000000000000006044820152606401610688565b60009081527f91591bea3fc8863c74b4740fa2dfd9fd428a1e509b60555e4d1e8d8028901f356020526040902042600390910155565b612764611382565b61276d81613446565b611415576040517f08c379a000000000000000000000000000000000000000000000000000000000815260206004820152600d60248201527f6e6f2067616d6520666f756e64000000000000000000000000000000000000006044820152606401610688565b60008181527f91591bea3fc8863c74b4740fa2dfd9fd428a1e509b60555e4d1e8d8028901f356020526040902060048101547f91591bea3fc8863c74b4740fa2dfd9fd428a1e509b60555e4d1e8d8028901f2d9060ff1615612891576040517f08c379a000000000000000000000000000000000000000000000000000000000815260206004820152601a60248201527f737461727447616d652d3e616c726561647920737461727465640000000000006044820152606401610688565b8160030154600003612925576040517f08c379a000000000000000000000000000000000000000000000000000000000815260206004820152602d60248201527f737461727447616d652d3e47616d6520726567697374726174696f6e2077617360448201527f206e6f7420796574206f70656e000000000000000000000000000000000000006064820152608401610688565b8260000361298f576040517f08c379a000000000000000000000000000000000000000000000000000000000815260206004820152601960248201527f737461727447616d652d3e47616d65206e6f7420666f756e64000000000000006044820152606401610688565b60028101546129a060058401612c51565b1015612a08576040517f08c379a000000000000000000000000000000000000000000000000000000000815260206004820152601d60248201527f737461727447616d652d3e4e6f7420656e6f75676820706c61796572730000006044820152606401610688565b6001810154612a1960058401612c51565b1480612a37575060038082015490830154612a34919061564d565b42115b612a9d576040517f08c379a000000000000000000000000000000000000000000000000000000000815260206004820152601d60248201527f737461727447616d652d3e4e6f7420656e6f75676820706c61796572730000006044820152606401610688565b6004820180547fffffffffffffffffffffffffffffffffffffffffffffffffffffffffffff00001660019081179091558281015542600283015561058e826134a2565b612ae98261275c565b612af38282613533565b6000612afd611418565b90508060020154600014612be257600181015460028201546040517f23b872dd00000000000000000000000000000000000000000000000000000000815273ffffffffffffffffffffffffffffffffffffffff858116600483015230602483015260448201929092529116906323b872dd906064016020604051808303816000875af1158015612b91573d6000803e3d6000fd5b505050506040513d601f19601f82011682018060405250810190612bb5919061568f565b506000612bc1846124c7565b90508160020154816009016000828254612bdb919061564d565b9091555050505b61058e83836135e7565b6000612c418260408051602080820193909352815180820384018152908201825280519083012060009081527fb12a0409539e5fa777ebbd0648c2d35d1b56f5385885518278a66364324a9138909252902090565b9050612c4d8133613886565b5050565b60006105f9825490565b60008181527f91591bea3fc8863c74b4740fa2dfd9fd428a1e509b60555e4d1e8d8028901f356020526040812060048101547f91591bea3fc8863c74b4740fa2dfd9fd428a1e509b60555e4d1e8d8028901f2d9060ff1615612cc1575060009392505050565b8160030154600003612cd7575060009392505050565b83600003612ce9575060009392505050565b60038082015490830154612cfd919061564d565b4211612d0d575060009392505050565b6002810154612d1e60058401612c51565b1015611ea4575060009392505050565b7f91591bea3fc8863c74b4740fa2dfd9fd428a1e509b60555e4d1e8d8028901f2d612d5883613446565b15612dbf576040517f08c379a000000000000000000000000000000000000000000000000000000000815260206004820152601a60248201527f63726561746547616d652d3e416c7265616479206578697374730000000000006044820152606401610688565b73ffffffffffffffffffffffffffffffffffffffff8216612e3c576040517f08c379a000000000000000000000000000000000000000000000000000000000815260206004820152600e60248201527f63726561746547616d652d3e474d0000000000000000000000000000000000006044820152606401610688565b82600003612ea6576040517f08c379a000000000000000000000000000000000000000000000000000000000815260206004820152601260248201527f63726561746547616d652d3e67616d65496400000000000000000000000000006044820152606401610688565b600083815260088201602052604090205473ffffffffffffffffffffffffffffffffffffffff1615612f34576040517f08c379a000000000000000000000000000000000000000000000000000000000815260206004820152601260248201527f63726561746547616d652d3e67616d65496400000000000000000000000000006044820152606401610688565b6000838152600882016020526040812080547fffffffffffffffffffffffff00000000000000000000000000000000000000001673ffffffffffffffffffffffffffffffffffffffff8516179055600a8201805460019290612f9790849061564d565b9091555050600a8101546040805160208101869052908101919091527f91591bea3fc8863c74b4740fa2dfd9fd428a1e509b60555e4d1e8d8028901f2d6060820152608001604080517fffffffffffffffffffffffffffffffffffffffffffffffffffffffffffffffe0818403018152918152815160209283012060009586526008909301909152909220600a019190915550565b60006130818360408051602080820193909352815180820384018152908201825280519083012060009081527fb12a0409539e5fa777ebbd0648c2d35d1b56f5385885518278a66364324a9138909252902090565b905061058e8183613920565b6130968261275c565b6130a082826139c3565b60006130aa611418565b905060006130b7846124c7565b905060018160000154111561315457805460048301546130ee91859173ffffffffffffffffffffffffffffffffffffffff16613bcf565b60005b600882015481101561105b5761314284836000015484600801848154811061311b5761311b615660565b60009182526020909120015473ffffffffffffffffffffffffffffffffffffffff16613bcf565b8061314c816156ce565b9150506130f1565b50505050565b60606000611eeb83613c68565b60008061317383613cc4565b60008481527f91591bea3fc8863c74b4740fa2dfd9fd428a1e509b60555e4d1e8d8028901f356020526040902060048101549192509060ff1615806131bc57506131bc84612432565b156131cb575060009392505050565b81156114dd575060019392505050565b60008181527f91591bea3fc8863c74b4740fa2dfd9fd428a1e509b60555e4d1e8d8028901f35602052604081207f91591bea3fc8863c74b4740fa2dfd9fd428a1e509b60555e4d1e8d8028901f2d916132366005830161315a565b905060005b8151811015613355576000846008016000878152602001908152602001600020600901600084848151811061327257613272615660565b602002602001015173ffffffffffffffffffffffffffffffffffffffff1673ffffffffffffffffffffffffffffffffffffffff16815260200190815260200160002081905550600084600801600087815260200190815260200160002060070160008484815181106132e6576132e6615660565b60209081029190910181015173ffffffffffffffffffffffffffffffffffffffff16825281019190915260400160002080547fffffffffffffffffffffffffffffffffffffffffffffffffffffffffffffff00169115159190911790558061334d816156ce565b91505061323b565b506000848152600884016020526040812080547fffffffffffffffffffffffff0000000000000000000000000000000000000000168155600181018290556004810180547fffffffffffffffffffffffffffffffffffffffffffffffffffffffffffff0000169055600a8101829055600b810180547fffffffffffffffffffffffffffffffffffffffffffffffffffffffffffffff001690556133fd91600c90910190614ee9565b60008481526008808501602052604082209081018290556005019081816134248282614ee9565b5050506000948552505050600801602052604081206003810182905560020155565b60008181527f91591bea3fc8863c74b4740fa2dfd9fd428a1e509b60555e4d1e8d8028901f3560205260408120805473ffffffffffffffffffffffffffffffffffffffff16156134995750600192915050565b50600092915050565b60005b6134b182600501612c51565b811015612c4d5760006134c76005840183613d5d565b73ffffffffffffffffffffffffffffffffffffffff166000908152600784016020908152604080832080547fffffffffffffffffffffffffffffffffffffffffffffffffffffffffffffff0016905560098601909152812055508061352b816156ce565b9150506134a5565b600061353d611418565b9050600061354a846124c7565b9050600181600001541115613154578054600483015461358191859173ffffffffffffffffffffffffffffffffffffffff16613d69565b60005b600882015481101561105b576135d58483600001548460080184815481106135ae576135ae615660565b60009182526020909120015473ffffffffffffffffffffffffffffffffffffffff16613d69565b806135df816156ce565b915050613584565b7f91591bea3fc8863c74b4740fa2dfd9fd428a1e509b60555e4d1e8d8028901f2d61361183613446565b613677576040517f08c379a000000000000000000000000000000000000000000000000000000000815260206004820152601760248201527f616464506c617965722d3e696e76616c69642067616d650000000000000000006044820152606401610688565b73ffffffffffffffffffffffffffffffffffffffff8216600090815260098201602052604090205415613706576040517f08c379a000000000000000000000000000000000000000000000000000000000815260206004820152601960248201527f616464506c617965722d3e506c6179657220696e2067616d65000000000000006044820152606401610688565b60008381527f91591bea3fc8863c74b4740fa2dfd9fd428a1e509b60555e4d1e8d8028901f3560205260409020600182015461374460058301612c51565b106137ab576040517f08c379a000000000000000000000000000000000000000000000000000000000815260206004820152601560248201527f616464506c617965722d3e70617274792066756c6c00000000000000000000006044820152606401610688565b6137b484613dce565b61381a576040517f08c379a000000000000000000000000000000000000000000000000000000000815260206004820152601860248201527f616464506c617965722d3e63616e74206a6f696e206e6f7700000000000000006044820152606401610688565b6138276005820184613e27565b5073ffffffffffffffffffffffffffffffffffffffff909216600090815260079092016020908152604080842080547fffffffffffffffffffffffffffffffffffffffffffffffffffffffffffffff0016905560099092019052902055565b600c82015460ff166138f4576040517f08c379a000000000000000000000000000000000000000000000000000000000815260206004820152601760248201527f506f736974696f6e20646f6573206e6f742065786973740000000000000000006044820152606401610688565b613902828230303030613e49565b6001826008016000828254613917919061564d565b90915550505050565b816008015482600701548360060154613939919061564d565b106139a0576040517f08c379a000000000000000000000000000000000000000000000000000000000815260206004820152601c60248201527f4e6f7420656e6f7567682062616c616e636520746f20726566756e64000000006044820152606401610688565b6139ae823083848586613e49565b6001826006016000828254613917919061564d565b60008281527f91591bea3fc8863c74b4740fa2dfd9fd428a1e509b60555e4d1e8d8028901f35602052604090207f91591bea3fc8863c74b4740fa2dfd9fd428a1e509b60555e4d1e8d8028901f2d90613a1b84613446565b613a81576040517f08c379a000000000000000000000000000000000000000000000000000000000815260206004820152601360248201527f67616d6520646f6573206e6f74206578697374000000000000000000000000006044820152606401610688565b73ffffffffffffffffffffffffffffffffffffffff831660009081526009830160205260409020548414613b11576040517f08c379a000000000000000000000000000000000000000000000000000000000815260206004820152600f60248201527f4e6f7420696e207468652067616d6500000000000000000000000000000000006044820152606401610688565b600481015460ff161580613b345750600481015460ff6101009091041615156001145b613b9a576040517f08c379a000000000000000000000000000000000000000000000000000000000815260206004820152601960248201527f43616e6e6f74206c65617665206f6e63652073746172746564000000000000006044820152606401610688565b73ffffffffffffffffffffffffffffffffffffffff8316600090815260098301602052604081205561105b60058201846141ed565b6040517fb5674c6800000000000000000000000000000000000000000000000000000000815273ffffffffffffffffffffffffffffffffffffffff8481166004830152602482018490526001604483015282919082169063b5674c68906064015b600060405180830381600087803b158015613c4a57600080fd5b505af1158015613c5e573d6000803e3d6000fd5b5050505050505050565b606081600001805480602002602001604051908101604052809291908181526020018280548015613cb857602002820191906000526020600020905b815481526020019060010190808311613ca4575b50505050509050919050565b60008181527f91591bea3fc8863c74b4740fa2dfd9fd428a1e509b60555e4d1e8d8028901f35602052604081207f91591bea3fc8863c74b4740fa2dfd9fd428a1e509b60555e4d1e8d8028901f2d9083600003613d2357613d23615936565b600481015460ff161515600114613d3c57613d3c615936565b60028101548254613d4d919061564d565b4211611ea4575060009392505050565b6000611eeb838361420f565b6040517fe2ab691d00000000000000000000000000000000000000000000000000000000815273ffffffffffffffffffffffffffffffffffffffff8481166004830152602482018490526001604483015282919082169063e2ab691d90606401613c30565b60008181527f91591bea3fc8863c74b4740fa2dfd9fd428a1e509b60555e4d1e8d8028901f3560205260408120600481015460ff1680613e1057506003810154155b15613e1e5750600092915050565b50600192915050565b6000611eeb8373ffffffffffffffffffffffffffffffffffffffff8416614239565b3073ffffffffffffffffffffffffffffffffffffffff861603613fb357600286015415613eb857600286015460405173ffffffffffffffffffffffffffffffffffffffff83169180156108fc02916000818181858888f19350505050158015613eb6573d6000803e3d6000fd5b505b600486015415613f0a57600486015460405173ffffffffffffffffffffffffffffffffffffffff86169180156108fc02916000818181858888f19350505050158015613f08573d6000803e3d6000fd5b505b600586015415613f5c57600586015460405173ffffffffffffffffffffffffffffffffffffffff85169180156108fc02916000818181858888f19350505050158015613f5a573d6000803e3d6000fd5b505b600386015415613fae57600386015460405173ffffffffffffffffffffffffffffffffffffffff84169180156108fc02916000818181858888f19350505050158015613fac573d6000803e3d6000fd5b505b614057565b60038601546005870154600488015460028901546000939291613fd59161564d565b613fdf919061564d565b613fe9919061564d565b905080341015614055576040517f08c379a000000000000000000000000000000000000000000000000000000000815260206004820152601160248201527f6d73672e76616c756520746f6f206c6f770000000000000000000000000000006044820152606401610688565b505b60005b600a87015481101561220a57600087600a01828154811061407d5761407d615660565b6000918252602082200154600b8a01805473ffffffffffffffffffffffffffffffffffffffff909216935090849081106140b9576140b9615660565b9060005260206000200154905060008960090184815481106140dd576140dd615660565b60009182526020808320908204015460ff601f9092166101000a90041691508a8183600281111561411057614110615706565b600281111561412157614121615706565b81526020808201929092526040908101600090812073ffffffffffffffffffffffffffffffffffffffff8816825283528181208682529092528120915082600281111561417057614170615706565b036141895761418484828c8c8c8c8c614288565b6141d6565b600282600281111561419d5761419d615706565b036141ad5761418484828c61440b565b60018260028111156141c1576141c1615706565b036141d6576141d68484838d8d8d8d8d6145d6565b5050505080806141e5906156ce565b91505061405a565b6000611eeb8373ffffffffffffffffffffffffffffffffffffffff84166149bd565b600082600001828154811061422657614226615660565b9060005260206000200154905092915050565b6000818152600183016020526040812054614280575081546001818101845560008481526020808220909301849055845484825282860190935260409020919091556105f9565b5060006105f9565b61429b8786838960020160010154614ab0565b6142ae8786848960040160010154614ab0565b6142c18786868960060160010154614ab0565b6142d48786858960080160010154614ab0565b600186015487908015801590614300575073ffffffffffffffffffffffffffffffffffffffff87163014155b15614400576040517f70a0823100000000000000000000000000000000000000000000000000000000815273ffffffffffffffffffffffffffffffffffffffff88811660048301528291908416906370a0823190602401602060405180830381865afa158015614374573d6000803e3d6000fd5b505050506040513d601f19601f820116820180604052508101906143989190615965565b1015614400576040517f08c379a000000000000000000000000000000000000000000000000000000000815260206004820152601760248201527f4e6f7420656e6f75676820657263323020746f6b656e730000000000000000006044820152606401610688565b505050505050505050565b6003820154839015801561442157506005830154155b801561442f57506007830154155b801561443d57506009830154155b6144a3576040517f08c379a000000000000000000000000000000000000000000000000000000000815260206004820152601e60248201527f455243373231207472616e7366657273206e6f7420737570706f7274656400006044820152606401610688565b6001830154158015906144cc575073ffffffffffffffffffffffffffffffffffffffff82163014155b15613154576040517f70a0823100000000000000000000000000000000000000000000000000000000815273ffffffffffffffffffffffffffffffffffffffff8381166004830152600091908316906370a0823190602401602060405180830381865afa158015614541573d6000803e3d6000fd5b505050506040513d601f19601f820116820180604052508101906145659190615965565b600185015490915081101561105b576040517f08c379a000000000000000000000000000000000000000000000000000000000815260206004820152601960248201527f4e6f7420656e6f756768204552433732312062616c616e6365000000000000006044820152606401610688565b6001860154889080156146ea576040517efdd58e00000000000000000000000000000000000000000000000000000000815273ffffffffffffffffffffffffffffffffffffffff8881166004830152602482018b90526000919084169062fdd58e90604401602060405180830381865afa158015614658573d6000803e3d6000fd5b505050506040513d601f19601f8201168201806040525081019061467c9190615965565b9050818110156146e8576040517f08c379a000000000000000000000000000000000000000000000000000000000815260206004820152601c60248201527f455243313135352062616c616e6365206973206e6f742076616c6964000000006044820152606401610688565b505b5060078701548015614770578173ffffffffffffffffffffffffffffffffffffffff1663f242432a88888c858d6006016000016040518663ffffffff1660e01b815260040161473d95949392919061597e565b600060405180830381600087803b15801561475757600080fd5b505af115801561476b573d6000803e3d6000fd5b505050505b50600987015480156147f6578173ffffffffffffffffffffffffffffffffffffffff1663f242432a88878c858d6008016000016040518663ffffffff1660e01b81526004016147c395949392919061597e565b600060405180830381600087803b1580156147dd57600080fd5b505af11580156147f1573d6000803e3d6000fd5b505050505b506005870154801561492b5773ffffffffffffffffffffffffffffffffffffffff84166148b1576040517ff5298aca00000000000000000000000000000000000000000000000000000000815273ffffffffffffffffffffffffffffffffffffffff8881166004830152602482018b90526044820183905283169063f5298aca90606401600060405180830381600087803b15801561489457600080fd5b505af11580156148a8573d6000803e3d6000fd5b5050505061492b565b8173ffffffffffffffffffffffffffffffffffffffff1663f242432a88868c858d6004016000016040518663ffffffff1660e01b81526004016148f895949392919061597e565b600060405180830381600087803b15801561491257600080fd5b505af1158015614926573d6000803e3d6000fd5b505050505b50600387015480156149b1578173ffffffffffffffffffffffffffffffffffffffff1663f242432a88858c858d6002016000016040518663ffffffff1660e01b815260040161497e95949392919061597e565b600060405180830381600087803b15801561499857600080fd5b505af11580156149ac573d6000803e3d6000fd5b505050505b50505050505050505050565b60008181526001830160205260408120548015614aa65760006149e1600183615923565b85549091506000906149f590600190615923565b9050818114614a5a576000866000018281548110614a1557614a15615660565b9060005260206000200154905080876000018481548110614a3857614a38615660565b6000918252602080832090910192909255918252600188019052604090208390555b8554869080614a6b57614a6b615a5f565b6001900381819060005260206000200160009055905585600101600086815260200190815260200160002060009055600193505050506105f9565b60009150506105f9565b83811561105b573073ffffffffffffffffffffffffffffffffffffffff851603614c155773ffffffffffffffffffffffffffffffffffffffff831615614b90576040517fa9059cbb00000000000000000000000000000000000000000000000000000000815273ffffffffffffffffffffffffffffffffffffffff84811660048301526024820184905282169063a9059cbb906044015b6020604051808303816000875af1158015614b66573d6000803e3d6000fd5b505050506040513d601f19601f82011682018060405250810190614b8a919061568f565b5061105b565b6040517f42966c680000000000000000000000000000000000000000000000000000000081526004810183905273ffffffffffffffffffffffffffffffffffffffff8216906342966c6890602401600060405180830381600087803b158015614bf857600080fd5b505af1158015614c0c573d6000803e3d6000fd5b5050505061105b565b73ffffffffffffffffffffffffffffffffffffffff831615614c94576040517f23b872dd00000000000000000000000000000000000000000000000000000000815273ffffffffffffffffffffffffffffffffffffffff85811660048301528481166024830152604482018490528216906323b872dd90606401614b47565b6040517f23b872dd00000000000000000000000000000000000000000000000000000000815273ffffffffffffffffffffffffffffffffffffffff8581166004830152306024830152604482018490528216906323b872dd906064016020604051808303816000875af1158015614d0f573d6000803e3d6000fd5b505050506040513d601f19601f82011682018060405250810190614d33919061568f565b506040517f42966c680000000000000000000000000000000000000000000000000000000081526004810183905273ffffffffffffffffffffffffffffffffffffffff8216906342966c6890602401600060405180830381600087803b158015614d9c57600080fd5b505af1158015614400573d6000803e3d6000fd5b6040518060400160405280614ded6040518060a0016040528060008152602001600081526020016000815260200160008152602001600081525090565b8152602001606081525090565b6040518060400160405280614e0d614f2c565b8152602001614e5a60405180610100016040528060008152602001600081526020016000815260200160008152602001600081526020016000815260200160008152602001606081525090565b905290565b828054828255906000526020600020908101928215614ed9579160200282015b82811115614ed957825182547fffffffffffffffffffffffff00000000000000000000000000000000000000001673ffffffffffffffffffffffffffffffffffffffff909116178255602090920191600190910190614e7f565b50614ee5929150614fb3565b5090565b50805460008255906000526020600020908101906114159190614fb3565b50805460008255601f0160209004906000526020600020908101906114159190614fb3565b6040518060e0016040528060008152602001600073ffffffffffffffffffffffffffffffffffffffff1681526020016000815260200160008152602001600073ffffffffffffffffffffffffffffffffffffffff168152602001600015158152602001614e5a60405180606001604052806000815260200160008152602001600081525090565b5b80821115614ee55760008155600101614fb4565b600060208284031215614fda57600080fd5b5035919050565b600081518084526020808501945080840160005b8381101561502757815173ffffffffffffffffffffffffffffffffffffffff1687529582019590820190600101614ff5565b509495945050505050565b6040815260006150456040830185614fe1565b82810360208481019190915284518083528582019282019060005b8181101561507c57845183529383019391830191600101615060565b5090979650505050505050565b73ffffffffffffffffffffffffffffffffffffffff8116811461141557600080fd5b80356150b681615089565b919050565b600080604083850312156150ce57600080fd5b82356150d981615089565b946020939093013593505050565b60008083601f8401126150f957600080fd5b50813567ffffffffffffffff81111561511157600080fd5b60208301915083602082850101111561512957600080fd5b9250929050565b60008060008060006080868803121561514857600080fd5b853561515381615089565b9450602086013561516381615089565b935060408601359250606086013567ffffffffffffffff81111561518657600080fd5b615192888289016150e7565b969995985093965092949392505050565b6000806000606084860312156151b857600080fd5b83356151c381615089565b95602085013595506040909401359392505050565b602081526000611eeb6020830184614fe1565b6000610100825184526020808401518186015260408401516040860152606084015160608601526080840151608086015260a084015160a086015260c084015160c086015260e08401518260e087015280518084880152600093505b8084101561526657818401830151878501610120015292820192615247565b61012093506000848289010152837fffffffffffffffffffffffffffffffffffffffffffffffffffffffffffffffe0601f83011688010194505050505092915050565b602081526000825180516020840152602081015173ffffffffffffffffffffffffffffffffffffffff808216604086015260408301516060860152606083015160808601528060808401511660a0860152505060a0810151151560c084015260c08101519050805160e084015260208101516101008401526040810151610120840152506020830151610140808185015250611ea76101608401826151eb565b60008083601f84011261535b57600080fd5b50813567ffffffffffffffff81111561537357600080fd5b6020830191508360208260051b850101111561512957600080fd5b60008060008060008060008060a0898b0312156153aa57600080fd5b88356153b581615089565b975060208901356153c581615089565b9650604089013567ffffffffffffffff808211156153e257600080fd5b6153ee8c838d01615349565b909850965060608b013591508082111561540757600080fd5b6154138c838d01615349565b909650945060808b013591508082111561542c57600080fd5b506154398b828c016150e7565b999c989b5096995094979396929594505050565b60006020828403121561545f57600080fd5b8135611eeb81615089565b7f4e487b7100000000000000000000000000000000000000000000000000000000600052604160045260246000fd5b600080600080608085870312156154af57600080fd5b84356154ba81615089565b9350602085810135935060408601359250606086013567ffffffffffffffff808211156154e657600080fd5b818801915088601f8301126154fa57600080fd5b81358181111561550c5761550c61546a565b8060051b6040517fffffffffffffffffffffffffffffffffffffffffffffffffffffffffffffffe0603f8301168101818110858211171561554f5761554f61546a565b60405291825284820192508381018501918b83111561556d57600080fd5b938501935b8285101561559257615583856150ab565b84529385019392850192615572565b989b979a50959850505050505050565b60008060008060008060a087890312156155bb57600080fd5b86356155c681615089565b955060208701356155d681615089565b94506040870135935060608701359250608087013567ffffffffffffffff81111561560057600080fd5b61560c89828a016150e7565b979a9699509497509295939492505050565b7f4e487b7100000000000000000000000000000000000000000000000000000000600052601160045260246000fd5b808201808211156105f9576105f961561e565b7f4e487b7100000000000000000000000000000000000000000000000000000000600052603260045260246000fd5b6000602082840312156156a157600080fd5b81518015158114611eeb57600080fd5b6000602082840312156156c357600080fd5b8151611eeb81615089565b60007fffffffffffffffffffffffffffffffffffffffffffffffffffffffffffffffff82036156ff576156ff61561e565b5060010190565b7f4e487b7100000000000000000000000000000000000000000000000000000000600052602160045260246000fd5b600181811c9082168061574957607f821691505b602082108103615782577f4e487b7100000000000000000000000000000000000000000000000000000000600052602260045260246000fd5b50919050565b601f82111561058e57600081815260208120601f850160051c810160208610156157af5750805b601f850160051c820191505b81811015611059578281556001016157bb565b815167ffffffffffffffff8111156157e8576157e861546a565b6157fc816157f68454615735565b84615788565b602080601f83116001811461584f57600084156158195750858301515b7fffffffffffffffffffffffffffffffffffffffffffffffffffffffffffffffff600386901b1c1916600185901b178555611059565b6000858152602081207fffffffffffffffffffffffffffffffffffffffffffffffffffffffffffffffe08616915b8281101561589c5788860151825594840194600190910190840161587d565b50858210156158d857878501517fffffffffffffffffffffffffffffffffffffffffffffffffffffffffffffffff600388901b60f8161c191681555b5050505050600190811b01905550565b60008261591e577f4e487b7100000000000000000000000000000000000000000000000000000000600052601260045260246000fd5b500490565b818103818111156105f9576105f961561e565b7f4e487b7100000000000000000000000000000000000000000000000000000000600052600160045260246000fd5b60006020828403121561597757600080fd5b5051919050565b600073ffffffffffffffffffffffffffffffffffffffff808816835260208188168185015286604085015285606085015260a060808501526000915084546159c581615735565b8060a087015260c06001808416600081146159e75760018114615a1f57615a4d565b7fffffffffffffffffffffffffffffffffffffffffffffffffffffffffffffff008516838a01528284151560051b8a01019650615a4d565b896000528560002060005b85811015615a455781548b8201860152908301908701615a2a565b8a0184019750505b50949c9b505050505050505050505050565b7f4e487b7100000000000000000000000000000000000000000000000000000000600052603160045260246000fdfea2646970667358221220f22983160a3468f0ef40108f7002624e8f53c6e8bed654e80c45e7a1dcb668ef64736f6c63430008140033",
  "devdoc": {
    "kind": "dev",
    "methods": {
      "cancelGame(uint256)": {
        "details": "Cancels a game with the provided game ID. `gameId` is the ID of the game. Modifies: - Calls the `enforceIsGameCreator` function with `msg.sender`. Requirements: - The caller must be the game creator of the game with `gameId`. - Game must not be started."
      },
      "createGame(address,uint256,uint256)": {
        "details": "Creates a new game with the provided game master, game ID, and game rank. Optionally, additional ranks can be provided. `gameMaster` is the address of the game master. `gameId` is the ID of the new game. `gameRank` is the rank of the new game. `additionalRanks` is the array of additional ranks. emits a _GameCreated_ event. Requirements:  There are some game price requirments that must be met under gameId.newGame function that are set during the contract initialization and refer to the contract maintainer benefits. Modifies: - Calls the `newGame` function with `gameMaster`, `gameRank`, and `msg.sender`. - Configures the coin vending with `gameId` and an empty configuration. - If `additionalRanks` is not empty, mints rank tokens for each additional rank and sets the additional ranks of the game with `gameId` to `additionalRanks`."
      },
      "joinGame(uint256)": {
        "details": "Allows a player to join a game with the provided game ID. `gameId` is the ID of the game. emits a _PlayerJoined_ event. Modifies: - Calls the `joinGame` function with `msg.sender`. - Calls the `fund` function with `bytes32(gameId)`. Requirements: - The caller must not be a player in the game with `gameId`. - Game phase must be registration. - Caller must be able to fulfill funding requirements."
      },
      "leaveGame(uint256)": {
        "details": "Allows a player to leave a game with the provided game ID. `gameId` is the ID of the game. Modifies: - Calls the `quitGame` function with `msg.sender`, `true`, and `onPlayerQuit`. Requirements: - The caller must be a player in the game with `gameId`. - Game must not be started."
      },
      "openRegistration(uint256)": {
        "details": "Opens registration for a game with the provided game ID. `gameId` is the ID of the game. emits a _RegistrationOpen_ event. Modifies: - Calls the `enforceIsGameCreator` function with `msg.sender`. - Calls the `enforceIsPreRegistrationStage` function. - Calls the `openRegistration` function. Requirements: - The caller must be the game creator of the game with `gameId`. - The game with `gameId` must be in the pre-registration stage."
      },
      "startGame(uint256)": {
        "details": "Starts a game with the provided game ID early. `gameId` is the ID of the game. emits a _GameStarted_ event. Modifies: - Calls the `enforceGameExists` function. - Calls the `startGameEarly` function. Requirements: - The game with `gameId` must exist."
      }
    },
    "version": 1
  },
  "userdoc": {
    "kind": "user",
    "methods": {},
    "version": 1
  },
  "storageLayout": {
    "storage": [],
    "types": null
  }
}