{
  "address": "0x231E0B68978ca2015a8c3CaE7AA3cA34dC1700bC",
  "abi": [
    {
      "inputs": [
        {
          "internalType": "string",
          "name": "uri_",
          "type": "string"
        },
        {
          "internalType": "address",
          "name": "owner",
          "type": "address"
        },
        {
          "internalType": "string",
          "name": "cURI",
          "type": "string"
        },
        {
          "internalType": "uint256",
          "name": "levelUpThreshold",
          "type": "uint256"
        }
      ],
      "stateMutability": "nonpayable",
      "type": "constructor"
    },
    {
      "anonymous": false,
      "inputs": [
        {
          "indexed": true,
          "internalType": "address",
          "name": "account",
          "type": "address"
        },
        {
          "indexed": true,
          "internalType": "address",
          "name": "operator",
          "type": "address"
        },
        {
          "indexed": false,
          "internalType": "bool",
          "name": "approved",
          "type": "bool"
        }
      ],
      "name": "ApprovalForAll",
      "type": "event"
    },
    {
      "anonymous": false,
      "inputs": [
        {
          "indexed": true,
          "internalType": "address",
          "name": "account",
          "type": "address"
        },
        {
          "indexed": false,
          "internalType": "uint256",
          "name": "id",
          "type": "uint256"
        }
      ],
      "name": "LevelUp",
      "type": "event"
    },
    {
      "anonymous": false,
      "inputs": [
        {
          "indexed": true,
          "internalType": "address",
          "name": "previousOwner",
          "type": "address"
        },
        {
          "indexed": true,
          "internalType": "address",
          "name": "newOwner",
          "type": "address"
        }
      ],
      "name": "OwnershipTransferred",
      "type": "event"
    },
    {
      "anonymous": false,
      "inputs": [
        {
          "indexed": true,
          "internalType": "address",
          "name": "newRankingInstance",
          "type": "address"
        }
      ],
      "name": "RankingInstanceUpdated",
      "type": "event"
    },
    {
      "anonymous": false,
      "inputs": [
        {
          "indexed": true,
          "internalType": "address",
          "name": "account",
          "type": "address"
        },
        {
          "indexed": true,
          "internalType": "uint256",
          "name": "id",
          "type": "uint256"
        },
        {
          "indexed": false,
          "internalType": "uint256",
          "name": "value",
          "type": "uint256"
        }
      ],
      "name": "TokensLocked",
      "type": "event"
    },
    {
      "anonymous": false,
      "inputs": [
        {
          "indexed": true,
          "internalType": "address",
          "name": "account",
          "type": "address"
        },
        {
          "indexed": true,
          "internalType": "uint256",
          "name": "id",
          "type": "uint256"
        },
        {
          "indexed": false,
          "internalType": "uint256",
          "name": "value",
          "type": "uint256"
        }
      ],
      "name": "TokensUnlocked",
      "type": "event"
    },
    {
      "anonymous": false,
      "inputs": [
        {
          "indexed": true,
          "internalType": "address",
          "name": "operator",
          "type": "address"
        },
        {
          "indexed": true,
          "internalType": "address",
          "name": "from",
          "type": "address"
        },
        {
          "indexed": true,
          "internalType": "address",
          "name": "to",
          "type": "address"
        },
        {
          "indexed": false,
          "internalType": "uint256[]",
          "name": "ids",
          "type": "uint256[]"
        },
        {
          "indexed": false,
          "internalType": "uint256[]",
          "name": "values",
          "type": "uint256[]"
        }
      ],
      "name": "TransferBatch",
      "type": "event"
    },
    {
      "anonymous": false,
      "inputs": [
        {
          "indexed": true,
          "internalType": "address",
          "name": "operator",
          "type": "address"
        },
        {
          "indexed": true,
          "internalType": "address",
          "name": "from",
          "type": "address"
        },
        {
          "indexed": true,
          "internalType": "address",
          "name": "to",
          "type": "address"
        },
        {
          "indexed": false,
          "internalType": "uint256",
          "name": "id",
          "type": "uint256"
        },
        {
          "indexed": false,
          "internalType": "uint256",
          "name": "value",
          "type": "uint256"
        }
      ],
      "name": "TransferSingle",
      "type": "event"
    },
    {
      "anonymous": false,
      "inputs": [
        {
          "indexed": false,
          "internalType": "string",
          "name": "value",
          "type": "string"
        },
        {
          "indexed": true,
          "internalType": "uint256",
          "name": "id",
          "type": "uint256"
        }
      ],
      "name": "URI",
      "type": "event"
    },
    {
      "inputs": [
        {
          "internalType": "address",
          "name": "account",
          "type": "address"
        },
        {
          "internalType": "uint256",
          "name": "id",
          "type": "uint256"
        }
      ],
      "name": "balanceOf",
      "outputs": [
        {
          "internalType": "uint256",
          "name": "",
          "type": "uint256"
        }
      ],
      "stateMutability": "view",
      "type": "function"
    },
    {
      "inputs": [
        {
          "internalType": "address[]",
          "name": "accounts",
          "type": "address[]"
        },
        {
          "internalType": "uint256[]",
          "name": "ids",
          "type": "uint256[]"
        }
      ],
      "name": "balanceOfBatch",
      "outputs": [
        {
          "internalType": "uint256[]",
          "name": "",
          "type": "uint256[]"
        }
      ],
      "stateMutability": "view",
      "type": "function"
    },
    {
      "inputs": [
        {
          "internalType": "address",
          "name": "account",
          "type": "address"
        },
        {
          "internalType": "uint256",
          "name": "id",
          "type": "uint256"
        }
      ],
      "name": "balanceOfUnlocked",
      "outputs": [
        {
          "internalType": "uint256",
          "name": "",
          "type": "uint256"
        }
      ],
      "stateMutability": "view",
      "type": "function"
    },
    {
      "inputs": [
        {
          "internalType": "address",
          "name": "to",
          "type": "address"
        },
        {
          "internalType": "uint256[]",
          "name": "ids",
          "type": "uint256[]"
        },
        {
          "internalType": "uint256[]",
          "name": "amounts",
          "type": "uint256[]"
        },
        {
          "internalType": "bytes",
          "name": "data",
          "type": "bytes"
        }
      ],
      "name": "batchMint",
      "outputs": [],
      "stateMutability": "nonpayable",
      "type": "function"
    },
    {
      "inputs": [],
      "name": "contractURI",
      "outputs": [
        {
          "internalType": "string",
          "name": "",
          "type": "string"
        }
      ],
      "stateMutability": "view",
      "type": "function"
    },
    {
      "inputs": [
        {
          "internalType": "address",
          "name": "account",
          "type": "address"
        },
        {
          "internalType": "uint256",
          "name": "oldRank",
          "type": "uint256"
        }
      ],
      "name": "findNewRank",
      "outputs": [
        {
          "internalType": "uint256",
          "name": "",
          "type": "uint256"
        }
      ],
      "stateMutability": "view",
      "type": "function"
    },
    {
      "inputs": [
        {
          "internalType": "address",
          "name": "account",
          "type": "address"
        }
      ],
      "name": "getAccountRank",
      "outputs": [
        {
          "internalType": "uint256",
          "name": "",
          "type": "uint256"
        }
      ],
      "stateMutability": "view",
      "type": "function"
    },
    {
      "inputs": [],
      "name": "getRankingInstance",
      "outputs": [
        {
          "internalType": "address",
          "name": "",
          "type": "address"
        }
      ],
      "stateMutability": "view",
      "type": "function"
    },
    {
      "inputs": [
        {
          "internalType": "address",
          "name": "account",
          "type": "address"
        },
        {
          "internalType": "address",
          "name": "operator",
          "type": "address"
        }
      ],
      "name": "isApprovedForAll",
      "outputs": [
        {
          "internalType": "bool",
          "name": "",
          "type": "bool"
        }
      ],
      "stateMutability": "view",
      "type": "function"
    },
    {
      "inputs": [
        {
          "internalType": "address",
          "name": "to",
          "type": "address"
        },
        {
          "internalType": "uint256",
          "name": "id",
          "type": "uint256"
        },
        {
          "internalType": "bytes",
          "name": "data",
          "type": "bytes"
        }
      ],
      "name": "levelUp",
      "outputs": [],
      "stateMutability": "nonpayable",
      "type": "function"
    },
    {
      "inputs": [
        {
          "internalType": "address",
          "name": "account",
          "type": "address"
        },
        {
          "internalType": "uint256",
          "name": "id",
          "type": "uint256"
        },
        {
          "internalType": "uint256",
          "name": "amount",
          "type": "uint256"
        }
      ],
      "name": "lockInInstance",
      "outputs": [],
      "stateMutability": "nonpayable",
      "type": "function"
    },
    {
      "inputs": [
        {
          "internalType": "address",
          "name": "to",
          "type": "address"
        },
        {
          "internalType": "uint256",
          "name": "amount",
          "type": "uint256"
        },
        {
          "internalType": "uint256",
          "name": "poolId",
          "type": "uint256"
        },
        {
          "internalType": "bytes",
          "name": "data",
          "type": "bytes"
        }
      ],
      "name": "mint",
      "outputs": [],
      "stateMutability": "nonpayable",
      "type": "function"
    },
    {
      "inputs": [],
      "name": "owner",
      "outputs": [
        {
          "internalType": "address",
          "name": "",
          "type": "address"
        }
      ],
      "stateMutability": "view",
      "type": "function"
    },
    {
      "inputs": [
        {
          "internalType": "address",
          "name": "",
          "type": "address"
        }
      ],
      "name": "rank",
      "outputs": [
        {
          "internalType": "uint256",
          "name": "",
          "type": "uint256"
        }
      ],
      "stateMutability": "view",
      "type": "function"
    },
    {
      "inputs": [],
      "name": "renounceOwnership",
      "outputs": [],
      "stateMutability": "nonpayable",
      "type": "function"
    },
    {
      "inputs": [
        {
          "internalType": "address",
          "name": "from",
          "type": "address"
        },
        {
          "internalType": "address",
          "name": "to",
          "type": "address"
        },
        {
          "internalType": "uint256[]",
          "name": "ids",
          "type": "uint256[]"
        },
        {
          "internalType": "uint256[]",
          "name": "amounts",
          "type": "uint256[]"
        },
        {
          "internalType": "bytes",
          "name": "data",
          "type": "bytes"
        }
      ],
      "name": "safeBatchTransferFrom",
      "outputs": [],
      "stateMutability": "nonpayable",
      "type": "function"
    },
    {
      "inputs": [
        {
          "internalType": "address",
          "name": "from",
          "type": "address"
        },
        {
          "internalType": "address",
          "name": "to",
          "type": "address"
        },
        {
          "internalType": "uint256",
          "name": "id",
          "type": "uint256"
        },
        {
          "internalType": "uint256",
          "name": "amount",
          "type": "uint256"
        },
        {
          "internalType": "bytes",
          "name": "data",
          "type": "bytes"
        }
      ],
      "name": "safeTransferFrom",
      "outputs": [],
      "stateMutability": "nonpayable",
      "type": "function"
    },
    {
      "inputs": [
        {
          "internalType": "address",
          "name": "operator",
          "type": "address"
        },
        {
          "internalType": "bool",
          "name": "approved",
          "type": "bool"
        }
      ],
      "name": "setApprovalForAll",
      "outputs": [],
      "stateMutability": "nonpayable",
      "type": "function"
    },
    {
      "inputs": [
        {
          "internalType": "string",
          "name": "uri",
          "type": "string"
        }
      ],
      "name": "setURI",
      "outputs": [],
      "stateMutability": "nonpayable",
      "type": "function"
    },
    {
      "inputs": [
        {
          "internalType": "bytes4",
          "name": "interfaceId",
          "type": "bytes4"
        }
      ],
      "name": "supportsInterface",
      "outputs": [
        {
          "internalType": "bool",
          "name": "",
          "type": "bool"
        }
      ],
      "stateMutability": "view",
      "type": "function"
    },
    {
      "inputs": [
        {
          "internalType": "address",
          "name": "newOwner",
          "type": "address"
        }
      ],
      "name": "transferOwnership",
      "outputs": [],
      "stateMutability": "nonpayable",
      "type": "function"
    },
    {
      "inputs": [
        {
          "internalType": "address",
          "name": "account",
          "type": "address"
        },
        {
          "internalType": "uint256",
          "name": "id",
          "type": "uint256"
        },
        {
          "internalType": "uint256",
          "name": "amount",
          "type": "uint256"
        }
      ],
      "name": "unlockFromInstance",
      "outputs": [],
      "stateMutability": "nonpayable",
      "type": "function"
    },
    {
      "inputs": [
        {
          "internalType": "address",
          "name": "newRankingInstance",
          "type": "address"
        }
      ],
      "name": "updateRankingInstance",
      "outputs": [],
      "stateMutability": "nonpayable",
      "type": "function"
    },
    {
      "inputs": [
        {
          "internalType": "uint256",
          "name": "",
          "type": "uint256"
        }
      ],
      "name": "uri",
      "outputs": [
        {
          "internalType": "string",
          "name": "",
          "type": "string"
        }
      ],
      "stateMutability": "view",
      "type": "function"
    }
  ],
  "transactionHash": "0xe36d4f111219ed6b20544a552a85ab462ed3d11801f3f88942cd16d5002496d4",
  "args": [
    "https://peersky.infura-ipfs.io/ipfs/Qmam3ryLCZCTaAN7qTQrNiXwgbiBFyQypXkWcrjPnsCPHQ",
    "0x6Cf8d74C7875de8C2FfB09228F4bf2A21b25e583",
    "https://peersky.infura-ipfs.io/ipfs/undefined",
    "4"
  ],
  "numDeployments": 1,
  "solcInputHash": "175c9e0c60b9ff505b97776c3b55dc06",
  "bytecode": "0x60806040523480156200001157600080fd5b50604051620031ed380380620031ed83398101604081905262000034916200039e565b836200004081620000e3565b506200004c33620000fc565b6001600160a01b038316620000b35760405162461bcd60e51b815260206004820152602260248201527f6d7573742073706563696679206f776e6572206f662074686520636f6e74726160448201526118dd60f21b60648201526084015b60405180910390fd5b8151620000c89060049060208501906200022b565b506008819055620000d9836200014e565b505050506200046e565b8051620000f89060029060208401906200022b565b5050565b600380546001600160a01b038381166001600160a01b0319831681179093556040519116919082907f8be0079c531659141344cd1fd0a4f28419497f9722a3daafe3b4186f6b6457e090600090a35050565b62000158620001cd565b6001600160a01b038116620001bf5760405162461bcd60e51b815260206004820152602660248201527f4f776e61626c653a206e6577206f776e657220697320746865207a65726f206160448201526564647265737360d01b6064820152608401620000aa565b620001ca81620000fc565b50565b6003546001600160a01b03163314620002295760405162461bcd60e51b815260206004820181905260248201527f4f776e61626c653a2063616c6c6572206973206e6f7420746865206f776e65726044820152606401620000aa565b565b828054620002399062000431565b90600052602060002090601f0160209004810192826200025d5760008555620002a8565b82601f106200027857805160ff1916838001178555620002a8565b82800160010185558215620002a8579182015b82811115620002a85782518255916020019190600101906200028b565b50620002b6929150620002ba565b5090565b5b80821115620002b65760008155600101620002bb565b634e487b7160e01b600052604160045260246000fd5b600082601f830112620002f957600080fd5b81516001600160401b0380821115620003165762000316620002d1565b604051601f8301601f19908116603f01168101908282118183101715620003415762000341620002d1565b816040528381526020925086838588010111156200035e57600080fd5b600091505b8382101562000382578582018301518183018401529082019062000363565b83821115620003945760008385830101525b9695505050505050565b60008060008060808587031215620003b557600080fd5b84516001600160401b0380821115620003cd57600080fd5b620003db88838901620002e7565b602088015190965091506001600160a01b0382168214620003fb57600080fd5b6040870151919450808211156200041157600080fd5b506200042087828801620002e7565b606096909601519497939650505050565b600181811c908216806200044657607f821691505b602082108114156200046857634e487b7160e01b600052602260045260246000fd5b50919050565b612d6f806200047e6000396000f3fe608060405234801561001057600080fd5b50600436106101975760003560e01c8063731133e9116100e3578063c9bcdc841161008c578063f242432a11610066578063f242432a146103a3578063f2fde38b146103b6578063f8f88dc2146103c957600080fd5b8063c9bcdc841461034c578063e8a3d4851461035f578063e985e9c51461036757600080fd5b8063a22cb465116100bd578063a22cb465146102fd578063a89027f814610310578063b48ab8b61461033957600080fd5b8063731133e9146102c65780638b81c639146102d95780638da5cb5b146102ec57600080fd5b80632eb2c2d61161014557806369bf97981161011f57806369bf9798146102985780636dab959f146102ab578063715018a6146102be57600080fd5b80632eb2c2d6146102405780634e1273f4146102535780635c87c8f91461027357600080fd5b806305917eee1161017657806305917eee146101fa5780630dbaf77f1461020d5780630e89341c1461022057600080fd5b8062fdd58e1461019c57806301ffc9a7146101c257806302fe5305146101e5575b600080fd5b6101af6101aa36600461241a565b6103e9565b6040519081526020015b60405180910390f35b6101d56101d036600461245a565b610495565b60405190151581526020016101b9565b6101f86101f3366004612518565b6104d3565b005b6101f8610208366004612569565b6104e7565b6101f861021b3660046125a4565b6105a7565b61023361022e3660046125fb565b610680565b6040516101b99190612661565b6101f861024e366004612709565b610714565b6102666102613660046127b3565b6107b6565b6040516101b991906128b9565b6007546001600160a01b03165b6040516001600160a01b0390911681526020016101b9565b6101f86102a63660046128cc565b6108f4565b6101f86102b93660046128cc565b610a5d565b6101f8610ba9565b6101f86102d43660046128ff565b610bbd565b6101af6102e736600461241a565b610d67565b6003546001600160a01b0316610280565b6101f861030b366004612960565b610daa565b6101af61031e366004612569565b6001600160a01b031660009081526005602052604090205490565b6101f861034736600461299c565b610db9565b6101af61035a36600461241a565b610f5f565b610233610f9e565b6101d5610375366004612a29565b6001600160a01b03918216600090815260016020908152604080832093909416825291909152205460ff1690565b6101f86103b1366004612a5c565b611030565b6101f86103c4366004612569565b6110cb565b6101af6103d7366004612569565b60056020526000908152604090205481565b60006001600160a01b03831661046c5760405162461bcd60e51b815260206004820152602a60248201527f455243313135353a2061646472657373207a65726f206973206e6f742061207660448201527f616c6964206f776e65720000000000000000000000000000000000000000000060648201526084015b60405180910390fd5b506000818152602081815260408083206001600160a01b03861684529091529020545b92915050565b60006001600160e01b031982167f7d8ef57500000000000000000000000000000000000000000000000000000000148061048f575061048f82611158565b6104db6111f3565b6104e48161124d565b50565b6104ef6111f3565b6001600160a01b0381166105455760405162461bcd60e51b815260206004820152601d60248201527f6d75737420737065636966792072616e6b696e6720696e7374616e63650000006044820152606401610463565b600780547fffffffffffffffffffffffff0000000000000000000000000000000000000000166001600160a01b0383169081179091556040517f6a0707879bc3853a8fcf9dbebe74a41dd8ea34813c262a58f1f99038559d1e2190600090a250565b6001600160a01b0383163314806105c857506007546001600160a01b031633145b6106145760405162461bcd60e51b815260206004820152601660248201527f6c6576656c55703a204e6f74207065726d6974746564000000000000000000006044820152606401610463565b6106218383600854611260565b61063883610630846001612ad7565b600184611436565b826001600160a01b03167f91e51c29e7e87a74ad3b8ccba98538970f50a4309242735467f41e27c6b0fbac8360405161067391815260200190565b60405180910390a2505050565b60606002805461068f90612aef565b80601f01602080910402602001604051908101604052809291908181526020018280546106bb90612aef565b80156107085780601f106106dd57610100808354040283529160200191610708565b820191906000526020600020905b8154815290600101906020018083116106eb57829003601f168201915b50505050509050919050565b6001600160a01b03851633148061073057506107308533610375565b6107a25760405162461bcd60e51b815260206004820152602e60248201527f455243313135353a2063616c6c6572206973206e6f7420746f6b656e206f776e60448201527f6572206f7220617070726f7665640000000000000000000000000000000000006064820152608401610463565b6107af858585858561157b565b5050505050565b6060815183511461082f5760405162461bcd60e51b815260206004820152602960248201527f455243313135353a206163636f756e747320616e6420696473206c656e67746860448201527f206d69736d6174636800000000000000000000000000000000000000000000006064820152608401610463565b6000835167ffffffffffffffff81111561084b5761084b612477565b604051908082528060200260200182016040528015610874578160200160208202803683370190505b50905060005b84518110156108ec576108bf85828151811061089857610898612b2a565b60200260200101518583815181106108b2576108b2612b2a565b60200260200101516103e9565b8282815181106108d1576108d1612b2a565b60209081029190910101526108e581612b40565b905061087a565b509392505050565b6007546001600160a01b031633146109585760405162461bcd60e51b815260206004820152602160248201527f6f6e6c792072616e6b696e6720636f6e74726163742063616e20646f207468616044820152601d60fa1b6064820152608401610463565b6001600160a01b0383166000908152600660209081526040808320858452909152902054610987908290612ad7565b61099184846103e9565b10156109df5760405162461bcd60e51b815260206004820152601260248201527f6e6f7420656e6f7567682062616c616e636500000000000000000000000000006044820152606401610463565b6001600160a01b038316600090815260066020908152604080832085845290915281208054839290610a12908490612ad7565b909155505060405181815282906001600160a01b038516907fd741e738a23fd18a03a26522320d9fc6cac1fed483e215ea9150fbc2fc43385d906020015b60405180910390a3505050565b6007546001600160a01b03163314610ac15760405162461bcd60e51b815260206004820152602160248201527f6f6e6c792072616e6b696e6720636f6e74726163742063616e20646f207468616044820152601d60fa1b6064820152608401610463565b6001600160a01b0383166000908152600660209081526040808320858452909152902054811115610b345760405162461bcd60e51b815260206004820152601160248201527f6e6f7420656e6f756768206c6f636b65640000000000000000000000000000006044820152606401610463565b6001600160a01b038316600090815260066020908152604080832085845290915281208054839290610b67908490612b5b565b909155505060405181815282906001600160a01b038516907f89882ad382a3742d4db24e4dabc5000c5852aed762904db28442e4e1630a1d0790602001610a50565b610bb16111f3565b610bbb6000611835565b565b6007546001600160a01b03163314610c215760405162461bcd60e51b815260206004820152602160248201527f6f6e6c792072616e6b696e6720636f6e74726163742063616e20646f207468616044820152601d60fa1b6064820152608401610463565b6001600160a01b038416610c865760405162461bcd60e51b815260206004820152602660248201527f52616e6b546f6b656e2d3e6d696e743a2041646472657373206e6f742073706560448201526518da599a595960d21b6064820152608401610463565b82610cf95760405162461bcd60e51b815260206004820152602560248201527f52616e6b546f6b656e2d3e6d696e743a20616d6f756e74206e6f74207370656360448201527f69666965640000000000000000000000000000000000000000000000000000006064820152608401610463565b81610d555760405162461bcd60e51b815260206004820152602660248201527f52616e6b546f6b656e2d3e6d696e743a20706f6f6c206964206e6f742073706560448201526518da599a595960d21b6064820152608401610463565b610d6184838584611436565b50505050565b6000815b8015610da0576000610d7d85836103e9565b90508015610d8d5750905061048f565b5080610d9881612b72565b915050610d6b565b5060009392505050565b610db533838361189f565b5050565b6007546001600160a01b03163314610e1d5760405162461bcd60e51b815260206004820152602160248201527f6f6e6c792072616e6b696e6720636f6e74726163742063616e20646f207468616044820152601d60fa1b6064820152608401610463565b6001600160a01b038416610e825760405162461bcd60e51b815260206004820152602660248201527f52616e6b546f6b656e2d3e6d696e743a2041646472657373206e6f742073706560448201526518da599a595960d21b6064820152608401610463565b8151610ef65760405162461bcd60e51b815260206004820152602560248201527f52616e6b546f6b656e2d3e6d696e743a20616d6f756e74206e6f74207370656360448201527f69666965640000000000000000000000000000000000000000000000000000006064820152608401610463565b8251610f535760405162461bcd60e51b815260206004820152602660248201527f52616e6b546f6b656e2d3e6d696e743a20706f6f6c206964206e6f742073706560448201526518da599a595960d21b6064820152608401610463565b610d61848484846119aa565b6001600160a01b0382166000908152600660209081526040808320848452909152812054610f8d84846103e9565b610f979190612b5b565b9392505050565b606060048054610fad90612aef565b80601f0160208091040260200160405190810160405280929190818152602001828054610fd990612aef565b80156110265780601f10610ffb57610100808354040283529160200191611026565b820191906000526020600020905b81548152906001019060200180831161100957829003601f168201915b5050505050905090565b6001600160a01b03851633148061104c575061104c8533610375565b6110be5760405162461bcd60e51b815260206004820152602e60248201527f455243313135353a2063616c6c6572206973206e6f7420746f6b656e206f776e60448201527f6572206f7220617070726f7665640000000000000000000000000000000000006064820152608401610463565b6107af8585858585611bbf565b6110d36111f3565b6001600160a01b03811661114f5760405162461bcd60e51b815260206004820152602660248201527f4f776e61626c653a206e6577206f776e657220697320746865207a65726f206160448201527f64647265737300000000000000000000000000000000000000000000000000006064820152608401610463565b6104e481611835565b60006001600160e01b031982167fd9b67a260000000000000000000000000000000000000000000000000000000014806111bb57506001600160e01b031982167f0e89341c00000000000000000000000000000000000000000000000000000000145b8061048f57507f01ffc9a7000000000000000000000000000000000000000000000000000000006001600160e01b031983161461048f565b6003546001600160a01b03163314610bbb5760405162461bcd60e51b815260206004820181905260248201527f4f776e61626c653a2063616c6c6572206973206e6f7420746865206f776e65726044820152606401610463565b8051610db5906002906020840190612365565b6001600160a01b0383166112dc5760405162461bcd60e51b815260206004820152602360248201527f455243313135353a206275726e2066726f6d20746865207a65726f206164647260448201527f65737300000000000000000000000000000000000000000000000000000000006064820152608401610463565b3360006112e884611db1565b905060006112f584611db1565b905061131583876000858560405180602001604052806000815250611dfc565b6000858152602081815260408083206001600160a01b038a168452909152902054848110156113ab5760405162461bcd60e51b8152602060048201526024808201527f455243313135353a206275726e20616d6f756e7420657863656564732062616c60448201527f616e6365000000000000000000000000000000000000000000000000000000006064820152608401610463565b6000868152602081815260408083206001600160a01b038b81168086529184528285208a8703905582518b81529384018a90529092908816917fc3d58168c5ae7397731d063d5bbf3d657854427343f4c083240f7aacaa2d0f62910160405180910390a461142d84886000868660405180602001604052806000815250611f07565b50505050505050565b6001600160a01b0384166114b25760405162461bcd60e51b815260206004820152602160248201527f455243313135353a206d696e7420746f20746865207a65726f2061646472657360448201527f73000000000000000000000000000000000000000000000000000000000000006064820152608401610463565b3360006114be85611db1565b905060006114cb85611db1565b90506114dc83600089858589611dfc565b6000868152602081815260408083206001600160a01b038b1684529091528120805487929061150c908490612ad7565b909155505060408051878152602081018790526001600160a01b03808a1692600092918716917fc3d58168c5ae7397731d063d5bbf3d657854427343f4c083240f7aacaa2d0f62910160405180910390a461156c83600089858589611f07565b61142d83600089898989612017565b81518351146115f25760405162461bcd60e51b815260206004820152602860248201527f455243313135353a2069647320616e6420616d6f756e7473206c656e6774682060448201527f6d69736d617463680000000000000000000000000000000000000000000000006064820152608401610463565b6001600160a01b03841661166e5760405162461bcd60e51b815260206004820152602560248201527f455243313135353a207472616e7366657220746f20746865207a65726f20616460448201527f64726573730000000000000000000000000000000000000000000000000000006064820152608401610463565b3361167d818787878787611dfc565b60005b84518110156117b957600085828151811061169d5761169d612b2a565b6020026020010151905060008583815181106116bb576116bb612b2a565b602090810291909101810151600084815280835260408082206001600160a01b038e1683529093529190912054909150818110156117615760405162461bcd60e51b815260206004820152602a60248201527f455243313135353a20696e73756666696369656e742062616c616e636520666f60448201527f72207472616e73666572000000000000000000000000000000000000000000006064820152608401610463565b6000838152602081815260408083206001600160a01b038e8116855292528083208585039055908b1682528120805484929061179e908490612ad7565b92505081905550505050806117b290612b40565b9050611680565b50846001600160a01b0316866001600160a01b0316826001600160a01b03167f4a39dc06d4c0dbc64b70af90fd698a233a518aa5d07e595d983b8c0526c8f7fb8787604051611809929190612b89565b60405180910390a461181f818787878787611f07565b61182d818787878787612213565b505050505050565b600380546001600160a01b038381167fffffffffffffffffffffffff0000000000000000000000000000000000000000831681179093556040519116919082907f8be0079c531659141344cd1fd0a4f28419497f9722a3daafe3b4186f6b6457e090600090a35050565b816001600160a01b0316836001600160a01b031614156119275760405162461bcd60e51b815260206004820152602960248201527f455243313135353a2073657474696e6720617070726f76616c2073746174757360448201527f20666f722073656c6600000000000000000000000000000000000000000000006064820152608401610463565b6001600160a01b0383811660008181526001602090815260408083209487168084529482529182902080547fffffffffffffffffffffffffffffffffffffffffffffffffffffffffffffff001686151590811790915591519182527f17307eab39ab6107e8899845ad3d59bd9653f200f220920489ca2b5937696c319101610a50565b6001600160a01b038416611a265760405162461bcd60e51b815260206004820152602160248201527f455243313135353a206d696e7420746f20746865207a65726f2061646472657360448201527f73000000000000000000000000000000000000000000000000000000000000006064820152608401610463565b8151835114611a9d5760405162461bcd60e51b815260206004820152602860248201527f455243313135353a2069647320616e6420616d6f756e7473206c656e6774682060448201527f6d69736d617463680000000000000000000000000000000000000000000000006064820152608401610463565b33611aad81600087878787611dfc565b60005b8451811015611b4857838181518110611acb57611acb612b2a565b6020026020010151600080878481518110611ae857611ae8612b2a565b602002602001015181526020019081526020016000206000886001600160a01b03166001600160a01b031681526020019081526020016000206000828254611b309190612ad7565b90915550819050611b4081612b40565b915050611ab0565b50846001600160a01b031660006001600160a01b0316826001600160a01b03167f4a39dc06d4c0dbc64b70af90fd698a233a518aa5d07e595d983b8c0526c8f7fb8787604051611b99929190612b89565b60405180910390a4611bb081600087878787611f07565b6107af81600087878787612213565b6001600160a01b038416611c3b5760405162461bcd60e51b815260206004820152602560248201527f455243313135353a207472616e7366657220746f20746865207a65726f20616460448201527f64726573730000000000000000000000000000000000000000000000000000006064820152608401610463565b336000611c4785611db1565b90506000611c5485611db1565b9050611c64838989858589611dfc565b6000868152602081815260408083206001600160a01b038c16845290915290205485811015611cfb5760405162461bcd60e51b815260206004820152602a60248201527f455243313135353a20696e73756666696369656e742062616c616e636520666f60448201527f72207472616e73666572000000000000000000000000000000000000000000006064820152608401610463565b6000878152602081815260408083206001600160a01b038d8116855292528083208985039055908a16825281208054889290611d38908490612ad7565b909155505060408051888152602081018890526001600160a01b03808b16928c821692918816917fc3d58168c5ae7397731d063d5bbf3d657854427343f4c083240f7aacaa2d0f62910160405180910390a4611d98848a8a86868a611f07565b611da6848a8a8a8a8a612017565b505050505050505050565b60408051600180825281830190925260609160009190602080830190803683370190505090508281600081518110611deb57611deb612b2a565b602090810291909101015292915050565b60005b8351811015611f01576001600160a01b03861615611eef57611e2d868583815181106108b2576108b2612b2a565b838281518110611e3f57611e3f612b2a565b602002602001015160066000896001600160a01b03166001600160a01b031681526020019081526020016000206000878581518110611e8057611e80612b2a565b6020026020010151815260200190815260200160002054611ea19190612ad7565b1115611eef5760405162461bcd60e51b815260206004820152601c60248201527f496e73756666696369656e7420756e6c6f636b656420746f6b656e73000000006044820152606401610463565b80611ef981612b40565b915050611dff565b5061182d565b60005b8351811015611f0157838181518110611f2557611f25612b2a565b602002602001015160056000876001600160a01b03166001600160a01b0316815260200190815260200160002054108015611f7a5750828181518110611f6d57611f6d612b2a565b6020026020010151600014155b15611fb857838181518110611f9157611f91612b2a565b6020908102919091018101516001600160a01b038716600090815260059092526040909120555b6001600160a01b03861615612005576001600160a01b038616600090815260056020526040902054611feb908790610d67565b6001600160a01b0387166000908152600560205260409020555b8061200f81612b40565b915050611f0a565b6001600160a01b0384163b1561182d576040517ff23a6e610000000000000000000000000000000000000000000000000000000081526001600160a01b0385169063f23a6e61906120749089908990889088908890600401612bb7565b602060405180830381600087803b15801561208e57600080fd5b505af19250505080156120be575060408051601f3d908101601f191682019092526120bb91810190612bfa565b60015b612174576120ca612c17565b806308c379a0141561210457506120df612c33565b806120ea5750612106565b8060405162461bcd60e51b81526004016104639190612661565b505b60405162461bcd60e51b815260206004820152603460248201527f455243313135353a207472616e7366657220746f206e6f6e2d4552433131353560448201527f526563656976657220696d706c656d656e7465720000000000000000000000006064820152608401610463565b6001600160e01b031981167ff23a6e61000000000000000000000000000000000000000000000000000000001461142d5760405162461bcd60e51b815260206004820152602860248201527f455243313135353a204552433131353552656365697665722072656a6563746560448201527f6420746f6b656e730000000000000000000000000000000000000000000000006064820152608401610463565b6001600160a01b0384163b1561182d576040517fbc197c810000000000000000000000000000000000000000000000000000000081526001600160a01b0385169063bc197c81906122709089908990889088908890600401612cdb565b602060405180830381600087803b15801561228a57600080fd5b505af19250505080156122ba575060408051601f3d908101601f191682019092526122b791810190612bfa565b60015b6122c6576120ca612c17565b6001600160e01b031981167fbc197c81000000000000000000000000000000000000000000000000000000001461142d5760405162461bcd60e51b815260206004820152602860248201527f455243313135353a204552433131353552656365697665722072656a6563746560448201527f6420746f6b656e730000000000000000000000000000000000000000000000006064820152608401610463565b82805461237190612aef565b90600052602060002090601f01602090048101928261239357600085556123d9565b82601f106123ac57805160ff19168380011785556123d9565b828001600101855582156123d9579182015b828111156123d95782518255916020019190600101906123be565b506123e59291506123e9565b5090565b5b808211156123e557600081556001016123ea565b80356001600160a01b038116811461241557600080fd5b919050565b6000806040838503121561242d57600080fd5b612436836123fe565b946020939093013593505050565b6001600160e01b0319811681146104e457600080fd5b60006020828403121561246c57600080fd5b8135610f9781612444565b634e487b7160e01b600052604160045260246000fd5b601f19601f830116810181811067ffffffffffffffff821117156124b3576124b3612477565b6040525050565b600067ffffffffffffffff8311156124d4576124d4612477565b6040516124eb6020601f19601f870116018261248d565b80915083815284848401111561250057600080fd5b83836020830137600060208583010152509392505050565b60006020828403121561252a57600080fd5b813567ffffffffffffffff81111561254157600080fd5b8201601f8101841361255257600080fd5b612561848235602084016124ba565b949350505050565b60006020828403121561257b57600080fd5b610f97826123fe565b600082601f83011261259557600080fd5b610f97838335602085016124ba565b6000806000606084860312156125b957600080fd5b6125c2846123fe565b925060208401359150604084013567ffffffffffffffff8111156125e557600080fd5b6125f186828701612584565b9150509250925092565b60006020828403121561260d57600080fd5b5035919050565b6000815180845260005b8181101561263a5760208185018101518683018201520161261e565b8181111561264c576000602083870101525b50601f01601f19169290920160200192915050565b602081526000610f976020830184612614565b600067ffffffffffffffff82111561268e5761268e612477565b5060051b60200190565b600082601f8301126126a957600080fd5b813560206126b682612674565b6040516126c3828261248d565b83815260059390931b85018201928281019150868411156126e357600080fd5b8286015b848110156126fe57803583529183019183016126e7565b509695505050505050565b600080600080600060a0868803121561272157600080fd5b61272a866123fe565b9450612738602087016123fe565b9350604086013567ffffffffffffffff8082111561275557600080fd5b61276189838a01612698565b9450606088013591508082111561277757600080fd5b61278389838a01612698565b9350608088013591508082111561279957600080fd5b506127a688828901612584565b9150509295509295909350565b600080604083850312156127c657600080fd5b823567ffffffffffffffff808211156127de57600080fd5b818501915085601f8301126127f257600080fd5b813560206127ff82612674565b60405161280c828261248d565b83815260059390931b850182019282810191508984111561282c57600080fd5b948201945b8386101561285157612842866123fe565b82529482019490820190612831565b9650508601359250508082111561286757600080fd5b5061287485828601612698565b9150509250929050565b600081518084526020808501945080840160005b838110156128ae57815187529582019590820190600101612892565b509495945050505050565b602081526000610f97602083018461287e565b6000806000606084860312156128e157600080fd5b6128ea846123fe565b95602085013595506040909401359392505050565b6000806000806080858703121561291557600080fd5b61291e856123fe565b93506020850135925060408501359150606085013567ffffffffffffffff81111561294857600080fd5b61295487828801612584565b91505092959194509250565b6000806040838503121561297357600080fd5b61297c836123fe565b91506020830135801515811461299157600080fd5b809150509250929050565b600080600080608085870312156129b257600080fd5b6129bb856123fe565b9350602085013567ffffffffffffffff808211156129d857600080fd5b6129e488838901612698565b945060408701359150808211156129fa57600080fd5b612a0688838901612698565b93506060870135915080821115612a1c57600080fd5b5061295487828801612584565b60008060408385031215612a3c57600080fd5b612a45836123fe565b9150612a53602084016123fe565b90509250929050565b600080600080600060a08688031215612a7457600080fd5b612a7d866123fe565b9450612a8b602087016123fe565b93506040860135925060608601359150608086013567ffffffffffffffff811115612ab557600080fd5b6127a688828901612584565b634e487b7160e01b600052601160045260246000fd5b60008219821115612aea57612aea612ac1565b500190565b600181811c90821680612b0357607f821691505b60208210811415612b2457634e487b7160e01b600052602260045260246000fd5b50919050565b634e487b7160e01b600052603260045260246000fd5b6000600019821415612b5457612b54612ac1565b5060010190565b600082821015612b6d57612b6d612ac1565b500390565b600081612b8157612b81612ac1565b506000190190565b604081526000612b9c604083018561287e565b8281036020840152612bae818561287e565b95945050505050565b60006001600160a01b03808816835280871660208401525084604083015283606083015260a06080830152612bef60a0830184612614565b979650505050505050565b600060208284031215612c0c57600080fd5b8151610f9781612444565b600060033d1115612c305760046000803e5060005160e01c5b90565b600060443d1015612c415790565b6040517ffffffffffffffffffffffffffffffffffffffffffffffffffffffffffffffffc803d016004833e81513d67ffffffffffffffff8160248401118184111715612c8f57505050505090565b8285019150815181811115612ca75750505050505090565b843d8701016020828501011115612cc15750505050505090565b612cd06020828601018761248d565b509095945050505050565b60006001600160a01b03808816835280871660208401525060a06040830152612d0760a083018661287e565b8281036060840152612d19818661287e565b90508281036080840152612d2d8185612614565b9897505050505050505056fea26469706673582212201f4e021969a0394dbb48d1b56e2fba1efbd5c2dc23a4fca08c9336a3f0bf158f64736f6c63430008080033",
  "devdoc": {
    "kind": "dev",
    "methods": {
      "balanceOf(address,uint256)": {
        "details": "See {IERC1155-balanceOf}. Requirements: - `account` cannot be the zero address."
      },
      "balanceOfBatch(address[],uint256[])": {
        "details": "See {IERC1155-balanceOfBatch}. Requirements: - `accounts` and `ids` must have the same length."
      },
      "isApprovedForAll(address,address)": {
        "details": "See {IERC1155-isApprovedForAll}."
      },
      "owner()": {
        "details": "Returns the address of the current owner."
      },
      "renounceOwnership()": {
        "details": "Leaves the contract without owner. It will not be possible to call `onlyOwner` functions. Can only be called by the current owner. NOTE: Renouncing ownership will leave the contract without an owner, thereby disabling any functionality that is only available to the owner."
      },
      "safeBatchTransferFrom(address,address,uint256[],uint256[],bytes)": {
        "details": "See {IERC1155-safeBatchTransferFrom}."
      },
      "safeTransferFrom(address,address,uint256,uint256,bytes)": {
        "details": "See {IERC1155-safeTransferFrom}."
      },
      "setApprovalForAll(address,bool)": {
        "details": "See {IERC1155-setApprovalForAll}."
      },
      "transferOwnership(address)": {
        "details": "Transfers ownership of the contract to a new account (`newOwner`). Can only be called by the current owner."
      },
      "updateRankingInstance(address)": {
        "details": "Updates the address of the ranking instance contract.",
        "params": {
          "newRankingInstance": "The new address of the ranking instance contract."
        }
      },
      "uri(uint256)": {
        "details": "See {IERC1155MetadataURI-uri}. This implementation returns the same URI for *all* token types. It relies on the token type ID substitution mechanism https://eips.ethereum.org/EIPS/eip-1155#metadata[defined in the EIP]. Clients calling this function must replace the `\\{id\\}` substring with the actual token type ID."
      }
    },
    "version": 1
  },
  "userdoc": {
    "kind": "user",
    "methods": {},
    "version": 1
  },
  "storageLayout": {
    "storage": [
      {
        "astId": 155,
        "contract": "src/tokens/RankToken.sol:RankToken",
        "label": "_balances",
        "offset": 0,
        "slot": "0",
        "type": "t_mapping(t_uint256,t_mapping(t_address,t_uint256))"
      },
      {
        "astId": 161,
        "contract": "src/tokens/RankToken.sol:RankToken",
        "label": "_operatorApprovals",
        "offset": 0,
        "slot": "1",
        "type": "t_mapping(t_address,t_mapping(t_address,t_bool))"
      },
      {
        "astId": 163,
        "contract": "src/tokens/RankToken.sol:RankToken",
        "label": "_uri",
        "offset": 0,
        "slot": "2",
        "type": "t_string_storage"
      },
      {
        "astId": 7,
        "contract": "src/tokens/RankToken.sol:RankToken",
        "label": "_owner",
        "offset": 0,
        "slot": "3",
        "type": "t_address"
      },
      {
        "astId": 21079,
        "contract": "src/tokens/RankToken.sol:RankToken",
        "label": "_contractURI",
        "offset": 0,
        "slot": "4",
        "type": "t_string_storage"
      },
      {
        "astId": 21083,
        "contract": "src/tokens/RankToken.sol:RankToken",
        "label": "rank",
        "offset": 0,
        "slot": "5",
        "type": "t_mapping(t_address,t_uint256)"
      },
      {
        "astId": 21089,
        "contract": "src/tokens/RankToken.sol:RankToken",
        "label": "lockedAmounts",
        "offset": 0,
        "slot": "6",
        "type": "t_mapping(t_address,t_mapping(t_uint256,t_uint256))"
      },
      {
        "astId": 21091,
        "contract": "src/tokens/RankToken.sol:RankToken",
        "label": "_rankingInstance",
        "offset": 0,
        "slot": "7",
        "type": "t_address"
      },
      {
        "astId": 21093,
        "contract": "src/tokens/RankToken.sol:RankToken",
        "label": "_levelUpThreshold",
        "offset": 0,
        "slot": "8",
        "type": "t_uint256"
      }
    ],
    "types": {
      "t_address": {
        "encoding": "inplace",
        "label": "address",
        "numberOfBytes": "20"
      },
      "t_bool": {
        "encoding": "inplace",
        "label": "bool",
        "numberOfBytes": "1"
      },
      "t_mapping(t_address,t_bool)": {
        "encoding": "mapping",
        "key": "t_address",
        "label": "mapping(address => bool)",
        "numberOfBytes": "32",
        "value": "t_bool"
      },
      "t_mapping(t_address,t_mapping(t_address,t_bool))": {
        "encoding": "mapping",
        "key": "t_address",
        "label": "mapping(address => mapping(address => bool))",
        "numberOfBytes": "32",
        "value": "t_mapping(t_address,t_bool)"
      },
      "t_mapping(t_address,t_mapping(t_uint256,t_uint256))": {
        "encoding": "mapping",
        "key": "t_address",
        "label": "mapping(address => mapping(uint256 => uint256))",
        "numberOfBytes": "32",
        "value": "t_mapping(t_uint256,t_uint256)"
      },
      "t_mapping(t_address,t_uint256)": {
        "encoding": "mapping",
        "key": "t_address",
        "label": "mapping(address => uint256)",
        "numberOfBytes": "32",
        "value": "t_uint256"
      },
      "t_mapping(t_uint256,t_mapping(t_address,t_uint256))": {
        "encoding": "mapping",
        "key": "t_uint256",
        "label": "mapping(uint256 => mapping(address => uint256))",
        "numberOfBytes": "32",
        "value": "t_mapping(t_address,t_uint256)"
      },
      "t_mapping(t_uint256,t_uint256)": {
        "encoding": "mapping",
        "key": "t_uint256",
        "label": "mapping(uint256 => uint256)",
        "numberOfBytes": "32",
        "value": "t_uint256"
      },
      "t_string_storage": {
        "encoding": "bytes",
        "label": "string",
        "numberOfBytes": "32"
      },
      "t_uint256": {
        "encoding": "inplace",
        "label": "uint256",
        "numberOfBytes": "32"
      }
    }
  }
}