{
  "address": "0x0DCd1Bf9A1b36cE34237eEaFef220932846BCD82",
  "abi": [
    {
      "inputs": [
        {
          "internalType": "string",
          "name": "uri_",
          "type": "string"
        },
        {
          "internalType": "address",
          "name": "owner",
          "type": "address"
        },
        {
          "internalType": "string",
          "name": "cURI",
          "type": "string"
        }
      ],
      "stateMutability": "nonpayable",
      "type": "constructor"
    },
    {
      "anonymous": false,
      "inputs": [
        {
          "indexed": true,
          "internalType": "address",
          "name": "account",
          "type": "address"
        },
        {
          "indexed": true,
          "internalType": "address",
          "name": "operator",
          "type": "address"
        },
        {
          "indexed": false,
          "internalType": "bool",
          "name": "approved",
          "type": "bool"
        }
      ],
      "name": "ApprovalForAll",
      "type": "event"
    },
    {
      "anonymous": false,
      "inputs": [
        {
          "indexed": true,
          "internalType": "address",
          "name": "previousOwner",
          "type": "address"
        },
        {
          "indexed": true,
          "internalType": "address",
          "name": "newOwner",
          "type": "address"
        }
      ],
      "name": "OwnershipTransferred",
      "type": "event"
    },
    {
      "anonymous": false,
      "inputs": [
        {
          "indexed": true,
          "internalType": "address",
          "name": "operator",
          "type": "address"
        },
        {
          "indexed": true,
          "internalType": "address",
          "name": "from",
          "type": "address"
        },
        {
          "indexed": true,
          "internalType": "address",
          "name": "to",
          "type": "address"
        },
        {
          "indexed": false,
          "internalType": "uint256[]",
          "name": "ids",
          "type": "uint256[]"
        },
        {
          "indexed": false,
          "internalType": "uint256[]",
          "name": "values",
          "type": "uint256[]"
        }
      ],
      "name": "TransferBatch",
      "type": "event"
    },
    {
      "anonymous": false,
      "inputs": [
        {
          "indexed": true,
          "internalType": "address",
          "name": "operator",
          "type": "address"
        },
        {
          "indexed": true,
          "internalType": "address",
          "name": "from",
          "type": "address"
        },
        {
          "indexed": true,
          "internalType": "address",
          "name": "to",
          "type": "address"
        },
        {
          "indexed": false,
          "internalType": "uint256",
          "name": "id",
          "type": "uint256"
        },
        {
          "indexed": false,
          "internalType": "uint256",
          "name": "value",
          "type": "uint256"
        }
      ],
      "name": "TransferSingle",
      "type": "event"
    },
    {
      "anonymous": false,
      "inputs": [
        {
          "indexed": false,
          "internalType": "string",
          "name": "value",
          "type": "string"
        },
        {
          "indexed": true,
          "internalType": "uint256",
          "name": "id",
          "type": "uint256"
        }
      ],
      "name": "URI",
      "type": "event"
    },
    {
      "inputs": [
        {
          "internalType": "address",
          "name": "account",
          "type": "address"
        },
        {
          "internalType": "uint256",
          "name": "id",
          "type": "uint256"
        }
      ],
      "name": "balanceOf",
      "outputs": [
        {
          "internalType": "uint256",
          "name": "",
          "type": "uint256"
        }
      ],
      "stateMutability": "view",
      "type": "function"
    },
    {
      "inputs": [
        {
          "internalType": "address[]",
          "name": "accounts",
          "type": "address[]"
        },
        {
          "internalType": "uint256[]",
          "name": "ids",
          "type": "uint256[]"
        }
      ],
      "name": "balanceOfBatch",
      "outputs": [
        {
          "internalType": "uint256[]",
          "name": "",
          "type": "uint256[]"
        }
      ],
      "stateMutability": "view",
      "type": "function"
    },
    {
      "inputs": [
        {
          "internalType": "address",
          "name": "to",
          "type": "address"
        },
        {
          "internalType": "uint256[]",
          "name": "ids",
          "type": "uint256[]"
        },
        {
          "internalType": "uint256[]",
          "name": "amounts",
          "type": "uint256[]"
        },
        {
          "internalType": "bytes",
          "name": "data",
          "type": "bytes"
        }
      ],
      "name": "batchMint",
      "outputs": [],
      "stateMutability": "nonpayable",
      "type": "function"
    },
    {
      "inputs": [],
      "name": "contractURI",
      "outputs": [
        {
          "internalType": "string",
          "name": "",
          "type": "string"
        }
      ],
      "stateMutability": "view",
      "type": "function"
    },
    {
      "inputs": [
        {
          "internalType": "address",
          "name": "account",
          "type": "address"
        },
        {
          "internalType": "address",
          "name": "operator",
          "type": "address"
        }
      ],
      "name": "isApprovedForAll",
      "outputs": [
        {
          "internalType": "bool",
          "name": "",
          "type": "bool"
        }
      ],
      "stateMutability": "view",
      "type": "function"
    },
    {
      "inputs": [
        {
          "internalType": "address",
          "name": "to",
          "type": "address"
        },
        {
          "internalType": "uint256",
          "name": "id",
          "type": "uint256"
        },
        {
          "internalType": "bytes",
          "name": "data",
          "type": "bytes"
        }
      ],
      "name": "levelUp",
      "outputs": [],
      "stateMutability": "nonpayable",
      "type": "function"
    },
    {
      "inputs": [
        {
          "internalType": "address",
          "name": "to",
          "type": "address"
        },
        {
          "internalType": "uint256",
          "name": "amount",
          "type": "uint256"
        },
        {
          "internalType": "uint256",
          "name": "poolId",
          "type": "uint256"
        },
        {
          "internalType": "bytes",
          "name": "data",
          "type": "bytes"
        }
      ],
      "name": "mint",
      "outputs": [],
      "stateMutability": "nonpayable",
      "type": "function"
    },
    {
      "inputs": [],
      "name": "owner",
      "outputs": [
        {
          "internalType": "address",
          "name": "",
          "type": "address"
        }
      ],
      "stateMutability": "view",
      "type": "function"
    },
    {
      "inputs": [],
      "name": "renounceOwnership",
      "outputs": [],
      "stateMutability": "nonpayable",
      "type": "function"
    },
    {
      "inputs": [
        {
          "internalType": "address",
          "name": "from",
          "type": "address"
        },
        {
          "internalType": "address",
          "name": "to",
          "type": "address"
        },
        {
          "internalType": "uint256[]",
          "name": "ids",
          "type": "uint256[]"
        },
        {
          "internalType": "uint256[]",
          "name": "amounts",
          "type": "uint256[]"
        },
        {
          "internalType": "bytes",
          "name": "data",
          "type": "bytes"
        }
      ],
      "name": "safeBatchTransferFrom",
      "outputs": [],
      "stateMutability": "nonpayable",
      "type": "function"
    },
    {
      "inputs": [
        {
          "internalType": "address",
          "name": "from",
          "type": "address"
        },
        {
          "internalType": "address",
          "name": "to",
          "type": "address"
        },
        {
          "internalType": "uint256",
          "name": "id",
          "type": "uint256"
        },
        {
          "internalType": "uint256",
          "name": "amount",
          "type": "uint256"
        },
        {
          "internalType": "bytes",
          "name": "data",
          "type": "bytes"
        }
      ],
      "name": "safeTransferFrom",
      "outputs": [],
      "stateMutability": "nonpayable",
      "type": "function"
    },
    {
      "inputs": [
        {
          "internalType": "address",
          "name": "operator",
          "type": "address"
        },
        {
          "internalType": "bool",
          "name": "approved",
          "type": "bool"
        }
      ],
      "name": "setApprovalForAll",
      "outputs": [],
      "stateMutability": "nonpayable",
      "type": "function"
    },
    {
      "inputs": [
        {
          "internalType": "string",
          "name": "uri",
          "type": "string"
        }
      ],
      "name": "setURI",
      "outputs": [],
      "stateMutability": "nonpayable",
      "type": "function"
    },
    {
      "inputs": [
        {
          "internalType": "bytes4",
          "name": "interfaceId",
          "type": "bytes4"
        }
      ],
      "name": "supportsInterface",
      "outputs": [
        {
          "internalType": "bool",
          "name": "",
          "type": "bool"
        }
      ],
      "stateMutability": "view",
      "type": "function"
    },
    {
      "inputs": [
        {
          "internalType": "address",
          "name": "newOwner",
          "type": "address"
        }
      ],
      "name": "transferOwnership",
      "outputs": [],
      "stateMutability": "nonpayable",
      "type": "function"
    },
    {
      "inputs": [
        {
          "internalType": "uint256",
          "name": "",
          "type": "uint256"
        }
      ],
      "name": "uri",
      "outputs": [
        {
          "internalType": "string",
          "name": "",
          "type": "string"
        }
      ],
      "stateMutability": "view",
      "type": "function"
    }
  ],
  "transactionHash": "0xdb1f30ae29e85ceee470528cb1de3d59a91ea605b313085fb1cf0fc02d22d415",
  "args": [
    "https://peersky.infura-ipfs.io/ipfs/Qmam3ryLCZCTaAN7qTQrNiXwgbiBFyQypXkWcrjPnsCPHQ",
    "0xf39Fd6e51aad88F6F4ce6aB8827279cffFb92266",
    "https://peersky.infura-ipfs.io/ipfs/undefined"
  ],
  "numDeployments": 1,
  "solcInputHash": "e5cde1fa8a7a0817092ab6eb387ab88f",
  "bytecode": "0x60806040523480156200001157600080fd5b506040516200289838038062002898833981016040819052620000349162000398565b826200004081620000dd565b506200004c33620000f6565b6001600160a01b038216620000b35760405162461bcd60e51b815260206004820152602260248201527f6d7573742073706563696679206f776e6572206f662074686520636f6e74726160448201526118dd60f21b60648201526084015b60405180910390fd5b8051620000c890600490602084019062000225565b50620000d48262000148565b50505062000460565b8051620000f290600290602084019062000225565b5050565b600380546001600160a01b038381166001600160a01b0319831681179093556040519116919082907f8be0079c531659141344cd1fd0a4f28419497f9722a3daafe3b4186f6b6457e090600090a35050565b62000152620001c7565b6001600160a01b038116620001b95760405162461bcd60e51b815260206004820152602660248201527f4f776e61626c653a206e6577206f776e657220697320746865207a65726f206160448201526564647265737360d01b6064820152608401620000aa565b620001c481620000f6565b50565b6003546001600160a01b03163314620002235760405162461bcd60e51b815260206004820181905260248201527f4f776e61626c653a2063616c6c6572206973206e6f7420746865206f776e65726044820152606401620000aa565b565b828054620002339062000423565b90600052602060002090601f016020900481019282620002575760008555620002a2565b82601f106200027257805160ff1916838001178555620002a2565b82800160010185558215620002a2579182015b82811115620002a257825182559160200191906001019062000285565b50620002b0929150620002b4565b5090565b5b80821115620002b05760008155600101620002b5565b634e487b7160e01b600052604160045260246000fd5b600082601f830112620002f357600080fd5b81516001600160401b0380821115620003105762000310620002cb565b604051601f8301601f19908116603f011681019082821181831017156200033b576200033b620002cb565b816040528381526020925086838588010111156200035857600080fd5b600091505b838210156200037c57858201830151818301840152908201906200035d565b838211156200038e5760008385830101525b9695505050505050565b600080600060608486031215620003ae57600080fd5b83516001600160401b0380821115620003c657600080fd5b620003d487838801620002e1565b602087015190955091506001600160a01b0382168214620003f457600080fd5b6040860151919350808211156200040a57600080fd5b506200041986828701620002e1565b9150509250925092565b600181811c908216806200043857607f821691505b602082108114156200045a57634e487b7160e01b600052602260045260246000fd5b50919050565b61242880620004706000396000f3fe608060405234801561001057600080fd5b50600436106100ff5760003560e01c8063731133e911610097578063e8a3d48511610066578063e8a3d48514610224578063e985e9c51461022c578063f242432a14610268578063f2fde38b1461027b57600080fd5b8063731133e9146101d05780638da5cb5b146101e3578063a22cb465146101fe578063b48ab8b61461021157600080fd5b80630e89341c116100d35780630e89341c146101755780632eb2c2d6146101955780634e1273f4146101a8578063715018a6146101c857600080fd5b8062fdd58e1461010457806301ffc9a71461012a57806302fe53051461014d5780630dbaf77f14610162575b600080fd5b610117610112366004611af7565b61028e565b6040519081526020015b60405180910390f35b61013d610138366004611b4f565b610337565b6040519015158152602001610121565b61016061015b366004611c14565b61041c565b005b610160610170366004611c85565b610430565b610188610183366004611cdc565b610460565b6040516101219190611d42565b6101606101a3366004611dea565b6104f4565b6101bb6101b6366004611e94565b610596565b6040516101219190611f9a565b6101606106d4565b6101606101de366004611fad565b6106e8565b6003546040516001600160a01b039091168152602001610121565b61016061020c36600461200e565b610836565b61016061021f36600461204a565b610845565b61018861098f565b61013d61023a3660046120d7565b6001600160a01b03918216600090815260016020908152604080832093909416825291909152205460ff1690565b61016061027636600461210a565b610a21565b61016061028936600461216f565b610abc565b60006001600160a01b0383166103115760405162461bcd60e51b815260206004820152602a60248201527f455243313135353a2061646472657373207a65726f206973206e6f742061207660448201527f616c6964206f776e65720000000000000000000000000000000000000000000060648201526084015b60405180910390fd5b506000908152602081815260408083206001600160a01b03949094168352929052205490565b60007fffffffff0000000000000000000000000000000000000000000000000000000082167fd9b67a260000000000000000000000000000000000000000000000000000000014806103ca57507fffffffff0000000000000000000000000000000000000000000000000000000082167f0e89341c00000000000000000000000000000000000000000000000000000000145b8061041657507f01ffc9a7000000000000000000000000000000000000000000000000000000007fffffffff000000000000000000000000000000000000000000000000000000008316145b92915050565b610424610b49565b61042d81610ba3565b50565b610438610b49565b61044483836001610bb6565b61045b836104538460016121a0565b600184610d6a565b505050565b60606002805461046f906121b8565b80601f016020809104026020016040519081016040528092919081815260200182805461049b906121b8565b80156104e85780601f106104bd576101008083540402835291602001916104e8565b820191906000526020600020905b8154815290600101906020018083116104cb57829003601f168201915b50505050509050919050565b6001600160a01b0385163314806105105750610510853361023a565b6105825760405162461bcd60e51b815260206004820152602e60248201527f455243313135353a2063616c6c6572206973206e6f7420746f6b656e206f776e60448201527f6572206f7220617070726f7665640000000000000000000000000000000000006064820152608401610308565b61058f8585858585610e91565b5050505050565b6060815183511461060f5760405162461bcd60e51b815260206004820152602960248201527f455243313135353a206163636f756e747320616e6420696473206c656e67746860448201527f206d69736d6174636800000000000000000000000000000000000000000000006064820152608401610308565b6000835167ffffffffffffffff81111561062b5761062b611b73565b604051908082528060200260200182016040528015610654578160200160208202803683370190505b50905060005b84518110156106cc5761069f858281518110610678576106786121f3565b6020026020010151858381518110610692576106926121f3565b602002602001015161028e565b8282815181106106b1576106b16121f3565b60209081029190910101526106c581612209565b905061065a565b509392505050565b6106dc610b49565b6106e6600061112f565b565b6106f0610b49565b6001600160a01b0384166107555760405162461bcd60e51b815260206004820152602660248201527f52616e6b546f6b656e2d3e6d696e743a2041646472657373206e6f742073706560448201526518da599a595960d21b6064820152608401610308565b826107c85760405162461bcd60e51b815260206004820152602560248201527f52616e6b546f6b656e2d3e6d696e743a20616d6f756e74206e6f74207370656360448201527f69666965640000000000000000000000000000000000000000000000000000006064820152608401610308565b816108245760405162461bcd60e51b815260206004820152602660248201527f52616e6b546f6b656e2d3e6d696e743a20706f6f6c206964206e6f742073706560448201526518da599a595960d21b6064820152608401610308565b61083084838584610d6a565b50505050565b610841338383611199565b5050565b61084d610b49565b6001600160a01b0384166108b25760405162461bcd60e51b815260206004820152602660248201527f52616e6b546f6b656e2d3e6d696e743a2041646472657373206e6f742073706560448201526518da599a595960d21b6064820152608401610308565b81516109265760405162461bcd60e51b815260206004820152602560248201527f52616e6b546f6b656e2d3e6d696e743a20616d6f756e74206e6f74207370656360448201527f69666965640000000000000000000000000000000000000000000000000000006064820152608401610308565b82516109835760405162461bcd60e51b815260206004820152602660248201527f52616e6b546f6b656e2d3e6d696e743a20706f6f6c206964206e6f742073706560448201526518da599a595960d21b6064820152608401610308565b610830848484846112ac565b60606004805461099e906121b8565b80601f01602080910402602001604051908101604052809291908181526020018280546109ca906121b8565b8015610a175780601f106109ec57610100808354040283529160200191610a17565b820191906000526020600020905b8154815290600101906020018083116109fa57829003601f168201915b5050505050905090565b6001600160a01b038516331480610a3d5750610a3d853361023a565b610aaf5760405162461bcd60e51b815260206004820152602e60248201527f455243313135353a2063616c6c6572206973206e6f7420746f6b656e206f776e60448201527f6572206f7220617070726f7665640000000000000000000000000000000000006064820152608401610308565b61058f85858585856114a3565b610ac4610b49565b6001600160a01b038116610b405760405162461bcd60e51b815260206004820152602660248201527f4f776e61626c653a206e6577206f776e657220697320746865207a65726f206160448201527f64647265737300000000000000000000000000000000000000000000000000006064820152608401610308565b61042d8161112f565b6003546001600160a01b031633146106e65760405162461bcd60e51b815260206004820181905260248201527f4f776e61626c653a2063616c6c6572206973206e6f7420746865206f776e65726044820152606401610308565b8051610841906002906020840190611a42565b6001600160a01b038316610c325760405162461bcd60e51b815260206004820152602360248201527f455243313135353a206275726e2066726f6d20746865207a65726f206164647260448201527f65737300000000000000000000000000000000000000000000000000000000006064820152608401610308565b336000610c3e84611679565b90506000610c4b84611679565b60408051602080820183526000918290528882528181528282206001600160a01b038b1683529052205490915084811015610ced5760405162461bcd60e51b8152602060048201526024808201527f455243313135353a206275726e20616d6f756e7420657863656564732062616c60448201527f616e6365000000000000000000000000000000000000000000000000000000006064820152608401610308565b6000868152602081815260408083206001600160a01b038b81168086529184528285208a8703905582518b81529384018a90529092908816917fc3d58168c5ae7397731d063d5bbf3d657854427343f4c083240f7aacaa2d0f62910160405180910390a46040805160208101909152600090525b50505050505050565b6001600160a01b038416610de65760405162461bcd60e51b815260206004820152602160248201527f455243313135353a206d696e7420746f20746865207a65726f2061646472657360448201527f73000000000000000000000000000000000000000000000000000000000000006064820152608401610308565b336000610df285611679565b90506000610dff85611679565b90506000868152602081815260408083206001600160a01b038b16845290915281208054879290610e319084906121a0565b909155505060408051878152602081018790526001600160a01b03808a1692600092918716917fc3d58168c5ae7397731d063d5bbf3d657854427343f4c083240f7aacaa2d0f62910160405180910390a4610d61836000898989896116c4565b8151835114610f085760405162461bcd60e51b815260206004820152602860248201527f455243313135353a2069647320616e6420616d6f756e7473206c656e6774682060448201527f6d69736d617463680000000000000000000000000000000000000000000000006064820152608401610308565b6001600160a01b038416610f845760405162461bcd60e51b815260206004820152602560248201527f455243313135353a207472616e7366657220746f20746865207a65726f20616460448201527f64726573730000000000000000000000000000000000000000000000000000006064820152608401610308565b3360005b84518110156110c1576000858281518110610fa557610fa56121f3565b602002602001015190506000858381518110610fc357610fc36121f3565b602090810291909101810151600084815280835260408082206001600160a01b038e1683529093529190912054909150818110156110695760405162461bcd60e51b815260206004820152602a60248201527f455243313135353a20696e73756666696369656e742062616c616e636520666f60448201527f72207472616e73666572000000000000000000000000000000000000000000006064820152608401610308565b6000838152602081815260408083206001600160a01b038e8116855292528083208585039055908b168252812080548492906110a69084906121a0565b92505081905550505050806110ba90612209565b9050610f88565b50846001600160a01b0316866001600160a01b0316826001600160a01b03167f4a39dc06d4c0dbc64b70af90fd698a233a518aa5d07e595d983b8c0526c8f7fb8787604051611111929190612242565b60405180910390a46111278187878787876118d8565b505050505050565b600380546001600160a01b038381167fffffffffffffffffffffffff0000000000000000000000000000000000000000831681179093556040519116919082907f8be0079c531659141344cd1fd0a4f28419497f9722a3daafe3b4186f6b6457e090600090a35050565b816001600160a01b0316836001600160a01b031614156112215760405162461bcd60e51b815260206004820152602960248201527f455243313135353a2073657474696e6720617070726f76616c2073746174757360448201527f20666f722073656c6600000000000000000000000000000000000000000000006064820152608401610308565b6001600160a01b0383811660008181526001602090815260408083209487168084529482529182902080547fffffffffffffffffffffffffffffffffffffffffffffffffffffffffffffff001686151590811790915591519182527f17307eab39ab6107e8899845ad3d59bd9653f200f220920489ca2b5937696c31910160405180910390a3505050565b6001600160a01b0384166113285760405162461bcd60e51b815260206004820152602160248201527f455243313135353a206d696e7420746f20746865207a65726f2061646472657360448201527f73000000000000000000000000000000000000000000000000000000000000006064820152608401610308565b815183511461139f5760405162461bcd60e51b815260206004820152602860248201527f455243313135353a2069647320616e6420616d6f756e7473206c656e6774682060448201527f6d69736d617463680000000000000000000000000000000000000000000000006064820152608401610308565b3360005b845181101561143b578381815181106113be576113be6121f3565b60200260200101516000808784815181106113db576113db6121f3565b602002602001015181526020019081526020016000206000886001600160a01b03166001600160a01b03168152602001908152602001600020600082825461142391906121a0565b9091555081905061143381612209565b9150506113a3565b50846001600160a01b031660006001600160a01b0316826001600160a01b03167f4a39dc06d4c0dbc64b70af90fd698a233a518aa5d07e595d983b8c0526c8f7fb878760405161148c929190612242565b60405180910390a461058f816000878787876118d8565b6001600160a01b03841661151f5760405162461bcd60e51b815260206004820152602560248201527f455243313135353a207472616e7366657220746f20746865207a65726f20616460448201527f64726573730000000000000000000000000000000000000000000000000000006064820152608401610308565b33600061152b85611679565b9050600061153885611679565b90506000868152602081815260408083206001600160a01b038c168452909152902054858110156115d15760405162461bcd60e51b815260206004820152602a60248201527f455243313135353a20696e73756666696369656e742062616c616e636520666f60448201527f72207472616e73666572000000000000000000000000000000000000000000006064820152608401610308565b6000878152602081815260408083206001600160a01b038d8116855292528083208985039055908a1682528120805488929061160e9084906121a0565b909155505060408051888152602081018890526001600160a01b03808b16928c821692918816917fc3d58168c5ae7397731d063d5bbf3d657854427343f4c083240f7aacaa2d0f62910160405180910390a461166e848a8a8a8a8a6116c4565b505050505050505050565b604080516001808252818301909252606091600091906020808301908036833701905050905082816000815181106116b3576116b36121f3565b602090810291909101015292915050565b6001600160a01b0384163b15611127576040517ff23a6e610000000000000000000000000000000000000000000000000000000081526001600160a01b0385169063f23a6e61906117219089908990889088908890600401612270565b602060405180830381600087803b15801561173b57600080fd5b505af192505050801561176b575060408051601f3d908101601f19168201909252611768918101906122b3565b60015b611821576117776122d0565b806308c379a014156117b1575061178c6122ec565b8061179757506117b3565b8060405162461bcd60e51b81526004016103089190611d42565b505b60405162461bcd60e51b815260206004820152603460248201527f455243313135353a207472616e7366657220746f206e6f6e2d4552433131353560448201527f526563656976657220696d706c656d656e7465720000000000000000000000006064820152608401610308565b7fffffffff0000000000000000000000000000000000000000000000000000000081167ff23a6e610000000000000000000000000000000000000000000000000000000014610d615760405162461bcd60e51b815260206004820152602860248201527f455243313135353a204552433131353552656365697665722072656a6563746560448201527f6420746f6b656e730000000000000000000000000000000000000000000000006064820152608401610308565b6001600160a01b0384163b15611127576040517fbc197c810000000000000000000000000000000000000000000000000000000081526001600160a01b0385169063bc197c81906119359089908990889088908890600401612394565b602060405180830381600087803b15801561194f57600080fd5b505af192505050801561197f575060408051601f3d908101601f1916820190925261197c918101906122b3565b60015b61198b576117776122d0565b7fffffffff0000000000000000000000000000000000000000000000000000000081167fbc197c810000000000000000000000000000000000000000000000000000000014610d615760405162461bcd60e51b815260206004820152602860248201527f455243313135353a204552433131353552656365697665722072656a6563746560448201527f6420746f6b656e730000000000000000000000000000000000000000000000006064820152608401610308565b828054611a4e906121b8565b90600052602060002090601f016020900481019282611a705760008555611ab6565b82601f10611a8957805160ff1916838001178555611ab6565b82800160010185558215611ab6579182015b82811115611ab6578251825591602001919060010190611a9b565b50611ac2929150611ac6565b5090565b5b80821115611ac25760008155600101611ac7565b80356001600160a01b0381168114611af257600080fd5b919050565b60008060408385031215611b0a57600080fd5b611b1383611adb565b946020939093013593505050565b7fffffffff000000000000000000000000000000000000000000000000000000008116811461042d57600080fd5b600060208284031215611b6157600080fd5b8135611b6c81611b21565b9392505050565b634e487b7160e01b600052604160045260246000fd5b601f19601f830116810181811067ffffffffffffffff82111715611baf57611baf611b73565b6040525050565b600067ffffffffffffffff831115611bd057611bd0611b73565b604051611be76020601f19601f8701160182611b89565b809150838152848484011115611bfc57600080fd5b83836020830137600060208583010152509392505050565b600060208284031215611c2657600080fd5b813567ffffffffffffffff811115611c3d57600080fd5b8201601f81018413611c4e57600080fd5b611c5d84823560208401611bb6565b949350505050565b600082601f830112611c7657600080fd5b611b6c83833560208501611bb6565b600080600060608486031215611c9a57600080fd5b611ca384611adb565b925060208401359150604084013567ffffffffffffffff811115611cc657600080fd5b611cd286828701611c65565b9150509250925092565b600060208284031215611cee57600080fd5b5035919050565b6000815180845260005b81811015611d1b57602081850181015186830182015201611cff565b81811115611d2d576000602083870101525b50601f01601f19169290920160200192915050565b602081526000611b6c6020830184611cf5565b600067ffffffffffffffff821115611d6f57611d6f611b73565b5060051b60200190565b600082601f830112611d8a57600080fd5b81356020611d9782611d55565b604051611da48282611b89565b83815260059390931b8501820192828101915086841115611dc457600080fd5b8286015b84811015611ddf5780358352918301918301611dc8565b509695505050505050565b600080600080600060a08688031215611e0257600080fd5b611e0b86611adb565b9450611e1960208701611adb565b9350604086013567ffffffffffffffff80821115611e3657600080fd5b611e4289838a01611d79565b94506060880135915080821115611e5857600080fd5b611e6489838a01611d79565b93506080880135915080821115611e7a57600080fd5b50611e8788828901611c65565b9150509295509295909350565b60008060408385031215611ea757600080fd5b823567ffffffffffffffff80821115611ebf57600080fd5b818501915085601f830112611ed357600080fd5b81356020611ee082611d55565b604051611eed8282611b89565b83815260059390931b8501820192828101915089841115611f0d57600080fd5b948201945b83861015611f3257611f2386611adb565b82529482019490820190611f12565b96505086013592505080821115611f4857600080fd5b50611f5585828601611d79565b9150509250929050565b600081518084526020808501945080840160005b83811015611f8f57815187529582019590820190600101611f73565b509495945050505050565b602081526000611b6c6020830184611f5f565b60008060008060808587031215611fc357600080fd5b611fcc85611adb565b93506020850135925060408501359150606085013567ffffffffffffffff811115611ff657600080fd5b61200287828801611c65565b91505092959194509250565b6000806040838503121561202157600080fd5b61202a83611adb565b91506020830135801515811461203f57600080fd5b809150509250929050565b6000806000806080858703121561206057600080fd5b61206985611adb565b9350602085013567ffffffffffffffff8082111561208657600080fd5b61209288838901611d79565b945060408701359150808211156120a857600080fd5b6120b488838901611d79565b935060608701359150808211156120ca57600080fd5b5061200287828801611c65565b600080604083850312156120ea57600080fd5b6120f383611adb565b915061210160208401611adb565b90509250929050565b600080600080600060a0868803121561212257600080fd5b61212b86611adb565b945061213960208701611adb565b93506040860135925060608601359150608086013567ffffffffffffffff81111561216357600080fd5b611e8788828901611c65565b60006020828403121561218157600080fd5b611b6c82611adb565b634e487b7160e01b600052601160045260246000fd5b600082198211156121b3576121b361218a565b500190565b600181811c908216806121cc57607f821691505b602082108114156121ed57634e487b7160e01b600052602260045260246000fd5b50919050565b634e487b7160e01b600052603260045260246000fd5b60007fffffffffffffffffffffffffffffffffffffffffffffffffffffffffffffffff82141561223b5761223b61218a565b5060010190565b6040815260006122556040830185611f5f565b82810360208401526122678185611f5f565b95945050505050565b60006001600160a01b03808816835280871660208401525084604083015283606083015260a060808301526122a860a0830184611cf5565b979650505050505050565b6000602082840312156122c557600080fd5b8151611b6c81611b21565b600060033d11156122e95760046000803e5060005160e01c5b90565b600060443d10156122fa5790565b6040517ffffffffffffffffffffffffffffffffffffffffffffffffffffffffffffffffc803d016004833e81513d67ffffffffffffffff816024840111818411171561234857505050505090565b82850191508151818111156123605750505050505090565b843d870101602082850101111561237a5750505050505090565b61238960208286010187611b89565b509095945050505050565b60006001600160a01b03808816835280871660208401525060a060408301526123c060a0830186611f5f565b82810360608401526123d28186611f5f565b905082810360808401526123e68185611cf5565b9897505050505050505056fea264697066735822122076f83899bbb665904b198b53289d482243b6bd862c1571870c6d98d00341747e64736f6c63430008080033",
  "devdoc": {
    "kind": "dev",
    "methods": {
      "balanceOf(address,uint256)": {
        "details": "See {IERC1155-balanceOf}. Requirements: - `account` cannot be the zero address."
      },
      "balanceOfBatch(address[],uint256[])": {
        "details": "See {IERC1155-balanceOfBatch}. Requirements: - `accounts` and `ids` must have the same length."
      },
      "isApprovedForAll(address,address)": {
        "details": "See {IERC1155-isApprovedForAll}."
      },
      "owner()": {
        "details": "Returns the address of the current owner."
      },
      "renounceOwnership()": {
        "details": "Leaves the contract without owner. It will not be possible to call `onlyOwner` functions. Can only be called by the current owner. NOTE: Renouncing ownership will leave the contract without an owner, thereby disabling any functionality that is only available to the owner."
      },
      "safeBatchTransferFrom(address,address,uint256[],uint256[],bytes)": {
        "details": "See {IERC1155-safeBatchTransferFrom}."
      },
      "safeTransferFrom(address,address,uint256,uint256,bytes)": {
        "details": "See {IERC1155-safeTransferFrom}."
      },
      "setApprovalForAll(address,bool)": {
        "details": "See {IERC1155-setApprovalForAll}."
      },
      "supportsInterface(bytes4)": {
        "details": "See {IERC165-supportsInterface}."
      },
      "transferOwnership(address)": {
        "details": "Transfers ownership of the contract to a new account (`newOwner`). Can only be called by the current owner."
      },
      "uri(uint256)": {
        "details": "See {IERC1155MetadataURI-uri}. This implementation returns the same URI for *all* token types. It relies on the token type ID substitution mechanism https://eips.ethereum.org/EIPS/eip-1155#metadata[defined in the EIP]. Clients calling this function must replace the `\\{id\\}` substring with the actual token type ID."
      }
    },
    "version": 1
  },
  "userdoc": {
    "kind": "user",
    "methods": {},
    "version": 1
  },
  "storageLayout": {
    "storage": [
      {
        "astId": 10898,
        "contract": "src/tokens/RankToken.sol:RankToken",
        "label": "_balances",
        "offset": 0,
        "slot": "0",
        "type": "t_mapping(t_uint256,t_mapping(t_address,t_uint256))"
      },
      {
        "astId": 10904,
        "contract": "src/tokens/RankToken.sol:RankToken",
        "label": "_operatorApprovals",
        "offset": 0,
        "slot": "1",
        "type": "t_mapping(t_address,t_mapping(t_address,t_bool))"
      },
      {
        "astId": 10906,
        "contract": "src/tokens/RankToken.sol:RankToken",
        "label": "_uri",
        "offset": 0,
        "slot": "2",
        "type": "t_string_storage"
      },
      {
        "astId": 10688,
        "contract": "src/tokens/RankToken.sol:RankToken",
        "label": "_owner",
        "offset": 0,
        "slot": "3",
        "type": "t_address"
      },
      {
        "astId": 36576,
        "contract": "src/tokens/RankToken.sol:RankToken",
        "label": "_contractURI",
        "offset": 0,
        "slot": "4",
        "type": "t_string_storage"
      }
    ],
    "types": {
      "t_address": {
        "encoding": "inplace",
        "label": "address",
        "numberOfBytes": "20"
      },
      "t_bool": {
        "encoding": "inplace",
        "label": "bool",
        "numberOfBytes": "1"
      },
      "t_mapping(t_address,t_bool)": {
        "encoding": "mapping",
        "key": "t_address",
        "label": "mapping(address => bool)",
        "numberOfBytes": "32",
        "value": "t_bool"
      },
      "t_mapping(t_address,t_mapping(t_address,t_bool))": {
        "encoding": "mapping",
        "key": "t_address",
        "label": "mapping(address => mapping(address => bool))",
        "numberOfBytes": "32",
        "value": "t_mapping(t_address,t_bool)"
      },
      "t_mapping(t_address,t_uint256)": {
        "encoding": "mapping",
        "key": "t_address",
        "label": "mapping(address => uint256)",
        "numberOfBytes": "32",
        "value": "t_uint256"
      },
      "t_mapping(t_uint256,t_mapping(t_address,t_uint256))": {
        "encoding": "mapping",
        "key": "t_uint256",
        "label": "mapping(uint256 => mapping(address => uint256))",
        "numberOfBytes": "32",
        "value": "t_mapping(t_address,t_uint256)"
      },
      "t_string_storage": {
        "encoding": "bytes",
        "label": "string",
        "numberOfBytes": "32"
      },
      "t_uint256": {
        "encoding": "inplace",
        "label": "uint256",
        "numberOfBytes": "32"
      }
    }
  }
}