{
  "address": "0x837e298D2472337ad89d666eAFb6c272728fd43b",
  "abi": [
    {
      "anonymous": false,
      "inputs": [
        {
          "indexed": true,
          "internalType": "uint256",
          "name": "gameId",
          "type": "uint256"
        },
        {
          "components": [
            {
              "components": [
                {
                  "internalType": "uint256",
                  "name": "have",
                  "type": "uint256"
                },
                {
                  "internalType": "uint256",
                  "name": "lock",
                  "type": "uint256"
                },
                {
                  "internalType": "uint256",
                  "name": "burn",
                  "type": "uint256"
                },
                {
                  "internalType": "uint256",
                  "name": "pay",
                  "type": "uint256"
                },
                {
                  "internalType": "uint256",
                  "name": "bet",
                  "type": "uint256"
                }
              ],
              "internalType": "struct LibCoinVending.NumericCondition",
              "name": "ethValues",
              "type": "tuple"
            },
            {
              "components": [
                {
                  "internalType": "address",
                  "name": "contractAddress",
                  "type": "address"
                },
                {
                  "internalType": "uint256",
                  "name": "contractId",
                  "type": "uint256"
                },
                {
                  "internalType": "enum LibCoinVending.ContractTypes",
                  "name": "contractType",
                  "type": "uint8"
                },
                {
                  "components": [
                    {
                      "components": [
                        {
                          "internalType": "bytes",
                          "name": "data",
                          "type": "bytes"
                        },
                        {
                          "internalType": "uint256",
                          "name": "amount",
                          "type": "uint256"
                        }
                      ],
                      "internalType": "struct LibCoinVending.TransactionProperties",
                      "name": "have",
                      "type": "tuple"
                    },
                    {
                      "components": [
                        {
                          "internalType": "bytes",
                          "name": "data",
                          "type": "bytes"
                        },
                        {
                          "internalType": "uint256",
                          "name": "amount",
                          "type": "uint256"
                        }
                      ],
                      "internalType": "struct LibCoinVending.TransactionProperties",
                      "name": "lock",
                      "type": "tuple"
                    },
                    {
                      "components": [
                        {
                          "internalType": "bytes",
                          "name": "data",
                          "type": "bytes"
                        },
                        {
                          "internalType": "uint256",
                          "name": "amount",
                          "type": "uint256"
                        }
                      ],
                      "internalType": "struct LibCoinVending.TransactionProperties",
                      "name": "burn",
                      "type": "tuple"
                    },
                    {
                      "components": [
                        {
                          "internalType": "bytes",
                          "name": "data",
                          "type": "bytes"
                        },
                        {
                          "internalType": "uint256",
                          "name": "amount",
                          "type": "uint256"
                        }
                      ],
                      "internalType": "struct LibCoinVending.TransactionProperties",
                      "name": "pay",
                      "type": "tuple"
                    },
                    {
                      "components": [
                        {
                          "internalType": "bytes",
                          "name": "data",
                          "type": "bytes"
                        },
                        {
                          "internalType": "uint256",
                          "name": "amount",
                          "type": "uint256"
                        }
                      ],
                      "internalType": "struct LibCoinVending.TransactionProperties",
                      "name": "bet",
                      "type": "tuple"
                    }
                  ],
                  "internalType": "struct LibCoinVending.ContractCondition",
                  "name": "contractRequirement",
                  "type": "tuple"
                }
              ],
              "internalType": "struct LibCoinVending.configSmartRequirement[]",
              "name": "contracts",
              "type": "tuple[]"
            }
          ],
          "indexed": false,
          "internalType": "struct LibCoinVending.ConfigPosition",
          "name": "config",
          "type": "tuple"
        }
      ],
      "name": "RequirementsConfigured",
      "type": "event"
    },
    {
      "inputs": [
        {
          "internalType": "uint256",
          "name": "gameId",
          "type": "uint256"
        }
      ],
      "name": "getJoinRequirements",
      "outputs": [
        {
          "components": [
            {
              "components": [
                {
                  "internalType": "uint256",
                  "name": "have",
                  "type": "uint256"
                },
                {
                  "internalType": "uint256",
                  "name": "lock",
                  "type": "uint256"
                },
                {
                  "internalType": "uint256",
                  "name": "burn",
                  "type": "uint256"
                },
                {
                  "internalType": "uint256",
                  "name": "pay",
                  "type": "uint256"
                },
                {
                  "internalType": "uint256",
                  "name": "bet",
                  "type": "uint256"
                }
              ],
              "internalType": "struct LibCoinVending.NumericCondition",
              "name": "ethValues",
              "type": "tuple"
            },
            {
              "internalType": "uint256",
              "name": "timesRefunded",
              "type": "uint256"
            },
            {
              "internalType": "uint256",
              "name": "timesReleased",
              "type": "uint256"
            },
            {
              "internalType": "uint256",
              "name": "timesFunded",
              "type": "uint256"
            },
            {
              "internalType": "address[]",
              "name": "contractAddresses",
              "type": "address[]"
            },
            {
              "internalType": "uint256[]",
              "name": "contractIds",
              "type": "uint256[]"
            },
            {
              "internalType": "enum LibCoinVending.ContractTypes[]",
              "name": "contractTypes",
              "type": "uint8[]"
            },
            {
              "internalType": "bool",
              "name": "_isConfigured",
              "type": "bool"
            }
          ],
          "internalType": "struct LibCoinVending.ConditionReturn",
          "name": "",
          "type": "tuple"
        }
      ],
      "stateMutability": "view",
      "type": "function"
    },
    {
      "inputs": [
        {
          "internalType": "uint256",
          "name": "gameId",
          "type": "uint256"
        },
        {
          "internalType": "address",
          "name": "contractAddress",
          "type": "address"
        },
        {
          "internalType": "uint256",
          "name": "contractId",
          "type": "uint256"
        },
        {
          "internalType": "enum LibCoinVending.ContractTypes",
          "name": "contractType",
          "type": "uint8"
        }
      ],
      "name": "getJoinRequirementsByToken",
      "outputs": [
        {
          "components": [
            {
              "components": [
                {
                  "internalType": "bytes",
                  "name": "data",
                  "type": "bytes"
                },
                {
                  "internalType": "uint256",
                  "name": "amount",
                  "type": "uint256"
                }
              ],
              "internalType": "struct LibCoinVending.TransactionProperties",
              "name": "have",
              "type": "tuple"
            },
            {
              "components": [
                {
                  "internalType": "bytes",
                  "name": "data",
                  "type": "bytes"
                },
                {
                  "internalType": "uint256",
                  "name": "amount",
                  "type": "uint256"
                }
              ],
              "internalType": "struct LibCoinVending.TransactionProperties",
              "name": "lock",
              "type": "tuple"
            },
            {
              "components": [
                {
                  "internalType": "bytes",
                  "name": "data",
                  "type": "bytes"
                },
                {
                  "internalType": "uint256",
                  "name": "amount",
                  "type": "uint256"
                }
              ],
              "internalType": "struct LibCoinVending.TransactionProperties",
              "name": "burn",
              "type": "tuple"
            },
            {
              "components": [
                {
                  "internalType": "bytes",
                  "name": "data",
                  "type": "bytes"
                },
                {
                  "internalType": "uint256",
                  "name": "amount",
                  "type": "uint256"
                }
              ],
              "internalType": "struct LibCoinVending.TransactionProperties",
              "name": "pay",
              "type": "tuple"
            },
            {
              "components": [
                {
                  "internalType": "bytes",
                  "name": "data",
                  "type": "bytes"
                },
                {
                  "internalType": "uint256",
                  "name": "amount",
                  "type": "uint256"
                }
              ],
              "internalType": "struct LibCoinVending.TransactionProperties",
              "name": "bet",
              "type": "tuple"
            }
          ],
          "internalType": "struct LibCoinVending.ContractCondition",
          "name": "",
          "type": "tuple"
        }
      ],
      "stateMutability": "view",
      "type": "function"
    },
    {
      "inputs": [
        {
          "internalType": "uint256",
          "name": "gameId",
          "type": "uint256"
        },
        {
          "components": [
            {
              "components": [
                {
                  "internalType": "uint256",
                  "name": "have",
                  "type": "uint256"
                },
                {
                  "internalType": "uint256",
                  "name": "lock",
                  "type": "uint256"
                },
                {
                  "internalType": "uint256",
                  "name": "burn",
                  "type": "uint256"
                },
                {
                  "internalType": "uint256",
                  "name": "pay",
                  "type": "uint256"
                },
                {
                  "internalType": "uint256",
                  "name": "bet",
                  "type": "uint256"
                }
              ],
              "internalType": "struct LibCoinVending.NumericCondition",
              "name": "ethValues",
              "type": "tuple"
            },
            {
              "components": [
                {
                  "internalType": "address",
                  "name": "contractAddress",
                  "type": "address"
                },
                {
                  "internalType": "uint256",
                  "name": "contractId",
                  "type": "uint256"
                },
                {
                  "internalType": "enum LibCoinVending.ContractTypes",
                  "name": "contractType",
                  "type": "uint8"
                },
                {
                  "components": [
                    {
                      "components": [
                        {
                          "internalType": "bytes",
                          "name": "data",
                          "type": "bytes"
                        },
                        {
                          "internalType": "uint256",
                          "name": "amount",
                          "type": "uint256"
                        }
                      ],
                      "internalType": "struct LibCoinVending.TransactionProperties",
                      "name": "have",
                      "type": "tuple"
                    },
                    {
                      "components": [
                        {
                          "internalType": "bytes",
                          "name": "data",
                          "type": "bytes"
                        },
                        {
                          "internalType": "uint256",
                          "name": "amount",
                          "type": "uint256"
                        }
                      ],
                      "internalType": "struct LibCoinVending.TransactionProperties",
                      "name": "lock",
                      "type": "tuple"
                    },
                    {
                      "components": [
                        {
                          "internalType": "bytes",
                          "name": "data",
                          "type": "bytes"
                        },
                        {
                          "internalType": "uint256",
                          "name": "amount",
                          "type": "uint256"
                        }
                      ],
                      "internalType": "struct LibCoinVending.TransactionProperties",
                      "name": "burn",
                      "type": "tuple"
                    },
                    {
                      "components": [
                        {
                          "internalType": "bytes",
                          "name": "data",
                          "type": "bytes"
                        },
                        {
                          "internalType": "uint256",
                          "name": "amount",
                          "type": "uint256"
                        }
                      ],
                      "internalType": "struct LibCoinVending.TransactionProperties",
                      "name": "pay",
                      "type": "tuple"
                    },
                    {
                      "components": [
                        {
                          "internalType": "bytes",
                          "name": "data",
                          "type": "bytes"
                        },
                        {
                          "internalType": "uint256",
                          "name": "amount",
                          "type": "uint256"
                        }
                      ],
                      "internalType": "struct LibCoinVending.TransactionProperties",
                      "name": "bet",
                      "type": "tuple"
                    }
                  ],
                  "internalType": "struct LibCoinVending.ContractCondition",
                  "name": "contractRequirement",
                  "type": "tuple"
                }
              ],
              "internalType": "struct LibCoinVending.configSmartRequirement[]",
              "name": "contracts",
              "type": "tuple[]"
            }
          ],
          "internalType": "struct LibCoinVending.ConfigPosition",
          "name": "config",
          "type": "tuple"
        }
      ],
      "name": "setJoinRequirements",
      "outputs": [],
      "stateMutability": "nonpayable",
      "type": "function"
    }
  ],
  "transactionHash": "0x42e777ace75ef73d5fc16e3a610021c2b2fee49551d2a4227f45ae7166699c14",
  "args": [],
  "numDeployments": 1,
  "solcInputHash": "950621027b9d5cffdabde867c6602559",
  "bytecode": "0x608060405234801561001057600080fd5b50611db5806100206000396000f3fe608060405234801561001057600080fd5b50600436106100415760003560e01c80638f298b2a14610046578063bbb294f81461006f578063bf0f2d7e14610084575b600080fd5b61005961005436600461122d565b6100a4565b6040516100669190611368565b60405180910390f35b61008261007d366004611714565b6100c1565b005b6100976100923660046117dd565b61011a565b6040516100669190611918565b6100ac61107c565b6100b885858585610131565b95945050505050565b6100cb823361056f565b6100d482610616565b6100de828261074a565b817fcf4865028c280be4f5db8efbf51379eace06ea78a59dad8020a2ac3593b33fbb8260405161010e9190611a0e565b60405180910390a25050565b610122611126565b61012b82610bf8565b92915050565b61013961107c565b600061018e8660408051602080820193909352815180820384018152908201825280519083012060009081527fb12a0409539e5fa777ebbd0648c2d35d1b56f5385885518278a66364324a9138909252902090565b90508060008460028111156101a5576101a5611877565b60028111156101b6576101b6611877565b81526020808201929092526040908101600090812073ffffffffffffffffffffffffffffffffffffffff89168252835281812087825290925290819020815160e081019092528054829060a082019083908290829061021490611b1b565b80601f016020809104026020016040519081016040528092919081815260200182805461024090611b1b565b801561028d5780601f106102625761010080835404028352916020019161028d565b820191906000526020600020905b81548152906001019060200180831161027057829003601f168201915b505050505081526020016001820154815250508152602001600282016040518060400160405290816000820180546102c490611b1b565b80601f01602080910402602001604051908101604052809291908181526020018280546102f090611b1b565b801561033d5780601f106103125761010080835404028352916020019161033d565b820191906000526020600020905b81548152906001019060200180831161032057829003601f168201915b5050505050815260200160018201548152505081526020016004820160405180604001604052908160008201805461037490611b1b565b80601f01602080910402602001604051908101604052809291908181526020018280546103a090611b1b565b80156103ed5780601f106103c2576101008083540402835291602001916103ed565b820191906000526020600020905b8154815290600101906020018083116103d057829003601f168201915b5050505050815260200160018201548152505081526020016006820160405180604001604052908160008201805461042490611b1b565b80601f016020809104026020016040519081016040528092919081815260200182805461045090611b1b565b801561049d5780601f106104725761010080835404028352916020019161049d565b820191906000526020600020905b81548152906001019060200180831161048057829003601f168201915b505050505081526020016001820154815250508152602001600882016040518060400160405290816000820180546104d490611b1b565b80601f016020809104026020016040519081016040528092919081815260200182805461050090611b1b565b801561054d5780601f106105225761010080835404028352916020019161054d565b820191906000526020600020905b81548152906001019060200180831161053057829003601f168201915b5050505050815260200160018201548152505081525050915050949350505050565b61057882610e23565b600061058383610e9a565b600181015490915073ffffffffffffffffffffffffffffffffffffffff838116911614610611576040517f08c379a000000000000000000000000000000000000000000000000000000000815260206004820152601160248201527f4f6e6c792067616d652063726561746f7200000000000000000000000000000060448201526064015b60405180910390fd5b505050565b61061f81610ed5565b156106ac576040517f08c379a000000000000000000000000000000000000000000000000000000000815260206004820152602360248201527f43616e6e6f7420646f207768656e20726567697374726174696f6e206973206f60448201527f70656e00000000000000000000000000000000000000000000000000000000006064820152608401610608565b60008181527f91591bea3fc8863c74b4740fa2dfd9fd428a1e509b60555e4d1e8d8028901f35602052604090206004015460ff1615610747576040517f08c379a000000000000000000000000000000000000000000000000000000000815260206004820152601b60248201527f43616e6e6f7420646f207768656e2067616d65207374617274656400000000006044820152606401610608565b50565b600061079f8360408051602080820193909352815180820384018152908201825280519083012060009081527fb12a0409539e5fa777ebbd0648c2d35d1b56f5385885518278a66364324a9138909252902090565b90508060080154600014806107ca5750806007015481600601546107c39190611b9d565b8160080154145b610856576040517f08c379a000000000000000000000000000000000000000000000000000000000815260206004820152603660248201527f43616e6e6f74206d757461746520706f736974696f6e2077697468206375727260448201527f656e746c7920706f7369746976652062616c616e6365000000000000000000006064820152608401610608565b815180516001830155602081015160028301556040810151600383015560608101516004830155608001516005820155610894600a8201600061119d565b6108a2600b8201600061119d565b6108b06009820160006111bb565b60005b826020015151811015610bc75781600a01836020015182815181106108da576108da611bb0565b60209081029190910181015151825460018101845560009384529282902090920180547fffffffffffffffffffffffff00000000000000000000000000000000000000001673ffffffffffffffffffffffffffffffffffffffff909316929092179091558301518051600b840191908390811061095957610959611bb0565b60209081029190910181015181015182546001810184556000938452928290209092019190915583015180516009840191908390811061099b5761099b611bb0565b60209081029190910181015160400151825460018101845560009384529282902091830490910180549192909160ff601f9092166101000a9182021916908360028111156109eb576109eb611877565b021790555082602001518181518110610a0657610a06611bb0565b60200260200101516060015182600001600085602001518481518110610a2e57610a2e611bb0565b6020026020010151604001516002811115610a4b57610a4b611877565b6002811115610a5c57610a5c611877565b8152602001908152602001600020600085602001518481518110610a8257610a82611bb0565b60200260200101516000015173ffffffffffffffffffffffffffffffffffffffff1673ffffffffffffffffffffffffffffffffffffffff168152602001908152602001600020600085602001518481518110610ae057610ae0611bb0565b60209081029190910181015181015182528101919091526040016000208151805182908190610b0f9082611c2d565b50602091820151600190910155820151805160028301908190610b329082611c2d565b50602091909101516001909101556040820151805160048301908190610b589082611c2d565b50602091909101516001909101556060820151805160068301908190610b7e9082611c2d565b50602091909101516001909101556080820151805160088301908190610ba49082611c2d565b506020820151816001015550509050508080610bbf90611d47565b9150506108b3565b50600c0180547fffffffffffffffffffffffffffffffffffffffffffffffffffffffffffffff001660011790555050565b610c00611126565b6000610c558360408051602080820193909352815180820384018152908201825280519083012060009081527fb12a0409539e5fa777ebbd0648c2d35d1b56f5385885518278a66364324a9138909252902090565b9050610c5f611126565b6040805160a081018252600184015481526002840154602080830191909152600385015482840152600485015460608084019190915260058601546080840152918452600885015491840191909152600684015483820152600784015483830152600c84015460ff16151560e0840152600a840180548351818402810184019094528084529091830182828015610d2c57602002820191906000526020600020905b815473ffffffffffffffffffffffffffffffffffffffff168152600190910190602001808311610d01575b5050505050816080018190525081600b01805480602002602001604051908101604052809291908181526020018280548015610d8757602002820191906000526020600020905b815481526020019060010190808311610d73575b50505050508160a0018190525081600901805480602002602001604051908101604052809291908181526020018280548015610e1257602002820191906000526020600020906000905b82829054906101000a900460ff166002811115610df057610df0611877565b815260206001928301818104948501949093039092029101808411610dd15790505b505050505060c08201529392505050565b610e2b610f64565b610e3481610ff7565b610747576040517f08c379a000000000000000000000000000000000000000000000000000000000815260206004820152600d60248201527f6e6f2067616d6520666f756e64000000000000000000000000000000000000006044820152606401610608565b60008181527f91591bea3fc8863c74b4740fa2dfd9fd428a1e509b60555e4d1e8d8028901f3560205260408120600a015481905b9392505050565b60008181527f91591bea3fc8863c74b4740fa2dfd9fd428a1e509b60555e4d1e8d8028901f356020526040812060038101547f91591bea3fc8863c74b4740fa2dfd9fd428a1e509b60555e4d1e8d8028901f2d908303610f39575060009392505050565b6003810154610f489042611b9d565b826003015410610f59576000610f5c565b60015b949350505050565b6000610f6e611053565b600481015490915074010000000000000000000000000000000000000000900460ff16610747576040517f08c379a000000000000000000000000000000000000000000000000000000000815260206004820152600f60248201527f6f6e6c79496e697469616c697a656400000000000000000000000000000000006044820152606401610608565b60008181527f91591bea3fc8863c74b4740fa2dfd9fd428a1e509b60555e4d1e8d8028901f3560205260408120805473ffffffffffffffffffffffffffffffffffffffff161561104a5750600192915050565b50600092915050565b6000807f7acf15cdb85906c3736403f86bf7ccb69a25bb6dbdcde1cbcbf35fe2a64df85261012b565b6040805160e08101909152606060a08201908152600060c0830152819081526020016110bb604051806040016040528060608152602001600081525090565b81526020016110dd604051806040016040528060608152602001600081525090565b81526020016110ff604051806040016040528060608152602001600081525090565b8152602001611121604051806040016040528060608152602001600081525090565b905290565b6040518061010001604052806111646040518060a0016040528060008152602001600081526020016000815260200160008152602001600081525090565b81526020016000815260200160008152602001600081526020016060815260200160608152602001606081526020016000151581525090565b508054600082559060005260206000209081019061074791906111dc565b50805460008255601f01602090049060005260206000209081019061074791905b5b808211156111f157600081556001016111dd565b5090565b803573ffffffffffffffffffffffffffffffffffffffff8116811461121957600080fd5b919050565b80356003811061121957600080fd5b6000806000806080858703121561124357600080fd5b84359350611253602086016111f5565b9250604085013591506112686060860161121e565b905092959194509250565b6000815160408452805180604086015260005b818110156112a35760208184018101516060888401015201611286565b506000606082870101526020840151602086015260607fffffffffffffffffffffffffffffffffffffffffffffffffffffffffffffffe0601f8301168601019250505092915050565b6000815160a0845261130160a0850182611273565b90506020830151848203602086015261131a8282611273565b915050604083015184820360408601526113348282611273565b9150506060830151848203606086015261134e8282611273565b915050608083015184820360808601526100b88282611273565b602081526000610ece60208301846112ec565b7f4e487b7100000000000000000000000000000000000000000000000000000000600052604160045260246000fd5b6040805190810167ffffffffffffffff811182821017156113cd576113cd61137b565b60405290565b6040516080810167ffffffffffffffff811182821017156113cd576113cd61137b565b60405160a0810167ffffffffffffffff811182821017156113cd576113cd61137b565b604051601f82017fffffffffffffffffffffffffffffffffffffffffffffffffffffffffffffffe016810167ffffffffffffffff811182821017156114605761146061137b565b604052919050565b60006040828403121561147a57600080fd5b6114826113aa565b9050813567ffffffffffffffff8082111561149c57600080fd5b818401915084601f8301126114b057600080fd5b81356020828211156114c4576114c461137b565b6114f4817fffffffffffffffffffffffffffffffffffffffffffffffffffffffffffffffe0601f85011601611419565b9250818352868183860101111561150a57600080fd5b8181850182850137600081838501015282855280860135818601525050505092915050565b600082601f83011261154057600080fd5b8135602067ffffffffffffffff8083111561155d5761155d61137b565b8260051b61156c838201611419565b938452858101830193838101908886111561158657600080fd5b84880192505b85831015611708578235848111156115a357600080fd5b88017fffffffffffffffffffffffffffffffffffffffffffffffffffffffffffffffe06080828c03820112156115d857600080fd5b6115e06113d3565b6115eb8884016111f5565b8152604083013588820152606061160381850161121e565b604083015260808401358881111561161a57600080fd5b939093019260a0848e038401121561163157600080fd5b6116396113f6565b9250888401358881111561164c57600080fd5b61165a8e8b83880101611468565b84525060408401358881111561166f57600080fd5b61167d8e8b83880101611468565b8a85015250808401358881111561169357600080fd5b6116a18e8b83880101611468565b6040850152506080840135888111156116b957600080fd5b6116c78e8b83880101611468565b828501525060a0840135888111156116de57600080fd5b6116ec8e8b83880101611468565b608085015250810191909152835250918401919084019061158c565b98975050505050505050565b6000806040838503121561172757600080fd5b82359150602083013567ffffffffffffffff8082111561174657600080fd5b9084019081860360c081121561175b57600080fd5b6117636113aa565b60a082121561177157600080fd5b6117796113f6565b9150833582526020840135602083015260408401356040830152606084013560608301526080840135608083015281815260a08401359150828211156117be57600080fd5b6117ca8883860161152f565b6020820152809450505050509250929050565b6000602082840312156117ef57600080fd5b5035919050565b600081518084526020808501945080840160005b8381101561183c57815173ffffffffffffffffffffffffffffffffffffffff168752958201959082019060010161180a565b509495945050505050565b600081518084526020808501945080840160005b8381101561183c5781518752958201959082019060010161185b565b7f4e487b7100000000000000000000000000000000000000000000000000000000600052602160045260246000fd5b600381106118dd577f4e487b7100000000000000000000000000000000000000000000000000000000600052602160045260246000fd5b9052565b600081518084526020808501945080840160005b8381101561183c576119088783516118a6565b95820195908201906001016118f5565b6020815261195560208201835180518252602081015160208301526040810151604083015260608101516060830152608081015160808301525050565b602082015160c0820152604082015160e0820152606082015161010082015260006080830151610180806101208501526119936101a08501836117f6565b915060a08501517fffffffffffffffffffffffffffffffffffffffffffffffffffffffffffffffe080868503016101408701526119d08483611847565b935060c087015191508086850301610160870152506119ef83826118e1565b92505060e0850151611a048286018215159052565b5090949350505050565b6000602080835260e08301611a51828501865180518252602081015160208301526040810151604083015260608101516060830152608081015160808301525050565b8185015160c085810152805191829052610100600583901b8601810192918401919086019060005b81811015611b0e577fffffffffffffffffffffffffffffffffffffffffffffffffffffffffffffff008886030183528351608073ffffffffffffffffffffffffffffffffffffffff82511687528782015188880152604080830151611ae0828a01826118a6565b5050606091820151918701819052611afa878201836112ec565b965050509285019291850191600101611a79565b5092979650505050505050565b600181811c90821680611b2f57607f821691505b602082108103611b68577f4e487b7100000000000000000000000000000000000000000000000000000000600052602260045260246000fd5b50919050565b7f4e487b7100000000000000000000000000000000000000000000000000000000600052601160045260246000fd5b8082018082111561012b5761012b611b6e565b7f4e487b7100000000000000000000000000000000000000000000000000000000600052603260045260246000fd5b601f82111561061157600081815260208120601f850160051c81016020861015611c065750805b601f850160051c820191505b81811015611c2557828155600101611c12565b505050505050565b815167ffffffffffffffff811115611c4757611c4761137b565b611c5b81611c558454611b1b565b84611bdf565b602080601f831160018114611cae5760008415611c785750858301515b7fffffffffffffffffffffffffffffffffffffffffffffffffffffffffffffffff600386901b1c1916600185901b178555611c25565b6000858152602081207fffffffffffffffffffffffffffffffffffffffffffffffffffffffffffffffe08616915b82811015611cfb57888601518255948401946001909101908401611cdc565b5085821015611d3757878501517fffffffffffffffffffffffffffffffffffffffffffffffffffffffffffffffff600388901b60f8161c191681555b5050505050600190811b01905550565b60007fffffffffffffffffffffffffffffffffffffffffffffffffffffffffffffffff8203611d7857611d78611b6e565b506001019056fea2646970667358221220d329d0d1a2ffe5f72026582995f467815b2435a51fe7f9931eb525c59cd0bb7564736f6c63430008140033",
  "devdoc": {
    "kind": "dev",
    "methods": {
      "getJoinRequirements(uint256)": {
        "details": "Retrieves the join requirements for a specific game.",
        "params": {
          "gameId": "The ID of the game."
        },
        "returns": {
          "_0": "The join requirements as a `LibCoinVending.ConditionReturn` struct."
        }
      },
      "getJoinRequirementsByToken(uint256,address,uint256,uint8)": {
        "details": "Retrieves the join requirements for a specific token in a game.",
        "params": {
          "contractAddress": "The address of the contract.",
          "contractId": "The ID of the contract.",
          "contractType": "The type of the contract.",
          "gameId": "The ID of the game."
        },
        "returns": {
          "_0": "The join requirements for the specified token."
        }
      },
      "setJoinRequirements(uint256,((uint256,uint256,uint256,uint256,uint256),(address,uint256,uint8,((bytes,uint256),(bytes,uint256),(bytes,uint256),(bytes,uint256),(bytes,uint256)))[]))": {
        "details": "Sets the join requirements for a specific game. Only the game creator can call this function. The game must be in the pre-registration stage.",
        "params": {
          "config": "The configuration position for the join requirements.",
          "gameId": "The ID of the game."
        }
      }
    },
    "version": 1
  },
  "userdoc": {
    "kind": "user",
    "methods": {},
    "version": 1
  },
  "storageLayout": {
    "storage": [],
    "types": null
  }
}