{
  "address": "0xf816e6d200ECe7e909b0071128f519a2c2D47B6B",
  "abi": [
    {
      "anonymous": false,
      "inputs": [
        {
          "indexed": true,
          "internalType": "uint256",
          "name": "gameId",
          "type": "uint256"
        },
        {
          "indexed": true,
          "internalType": "address[]",
          "name": "players",
          "type": "address[]"
        },
        {
          "indexed": true,
          "internalType": "uint256[]",
          "name": "scores",
          "type": "uint256[]"
        }
      ],
      "name": "GameOver",
      "type": "event"
    },
    {
      "anonymous": false,
      "inputs": [
        {
          "indexed": true,
          "internalType": "uint256",
          "name": "gameId",
          "type": "uint256"
        }
      ],
      "name": "LastTurn",
      "type": "event"
    },
    {
      "anonymous": false,
      "inputs": [
        {
          "indexed": true,
          "internalType": "uint256",
          "name": "gameId",
          "type": "uint256"
        }
      ],
      "name": "OverTime",
      "type": "event"
    },
    {
      "anonymous": false,
      "inputs": [
        {
          "indexed": true,
          "internalType": "uint256",
          "name": "gameId",
          "type": "uint256"
        },
        {
          "indexed": true,
          "internalType": "uint256",
          "name": "turn",
          "type": "uint256"
        },
        {
          "indexed": true,
          "internalType": "string",
          "name": "proposalHash",
          "type": "string"
        },
        {
          "indexed": false,
          "internalType": "string",
          "name": "proposal",
          "type": "string"
        },
        {
          "indexed": false,
          "internalType": "uint256",
          "name": "score",
          "type": "uint256"
        }
      ],
      "name": "ProposalScore",
      "type": "event"
    },
    {
      "anonymous": false,
      "inputs": [
        {
          "indexed": true,
          "internalType": "uint256",
          "name": "gameId",
          "type": "uint256"
        },
        {
          "indexed": true,
          "internalType": "uint256",
          "name": "turn",
          "type": "uint256"
        },
        {
          "indexed": true,
          "internalType": "address",
          "name": "proposer",
          "type": "address"
        },
        {
          "indexed": false,
          "internalType": "bytes32",
          "name": "commitmentHash",
          "type": "bytes32"
        },
        {
          "indexed": false,
          "internalType": "string",
          "name": "proposalEncryptedByGM",
          "type": "string"
        }
      ],
      "name": "ProposalSubmitted",
      "type": "event"
    },
    {
      "anonymous": false,
      "inputs": [
        {
          "indexed": true,
          "internalType": "uint256",
          "name": "gameId",
          "type": "uint256"
        },
        {
          "indexed": true,
          "internalType": "uint256",
          "name": "turn",
          "type": "uint256"
        },
        {
          "indexed": false,
          "internalType": "address[]",
          "name": "players",
          "type": "address[]"
        },
        {
          "indexed": false,
          "internalType": "uint256[]",
          "name": "scores",
          "type": "uint256[]"
        },
        {
          "indexed": false,
          "internalType": "string[]",
          "name": "newProposals",
          "type": "string[]"
        },
        {
          "indexed": false,
          "internalType": "uint256[]",
          "name": "proposerIndicies",
          "type": "uint256[]"
        },
        {
          "indexed": false,
          "internalType": "uint256[][]",
          "name": "votes",
          "type": "uint256[][]"
        }
      ],
      "name": "TurnEnded",
      "type": "event"
    },
    {
      "anonymous": false,
      "inputs": [
        {
          "indexed": true,
          "internalType": "uint256",
          "name": "gameId",
          "type": "uint256"
        },
        {
          "indexed": true,
          "internalType": "uint256",
          "name": "turn",
          "type": "uint256"
        },
        {
          "indexed": true,
          "internalType": "address",
          "name": "player",
          "type": "address"
        },
        {
          "indexed": false,
          "internalType": "string",
          "name": "votesHidden",
          "type": "string"
        }
      ],
      "name": "VoteSubmitted",
      "type": "event"
    },
    {
      "inputs": [
        {
          "internalType": "bytes",
          "name": "message",
          "type": "bytes"
        },
        {
          "internalType": "bytes",
          "name": "signature",
          "type": "bytes"
        },
        {
          "internalType": "address",
          "name": "account",
          "type": "address"
        }
      ],
      "name": "checkSignature",
      "outputs": [
        {
          "internalType": "bool",
          "name": "",
          "type": "bool"
        }
      ],
      "stateMutability": "view",
      "type": "function"
    },
    {
      "inputs": [
        {
          "internalType": "uint256",
          "name": "gameId",
          "type": "uint256"
        },
        {
          "internalType": "uint256[][]",
          "name": "votes",
          "type": "uint256[][]"
        },
        {
          "internalType": "string[]",
          "name": "newProposals",
          "type": "string[]"
        },
        {
          "internalType": "uint256[]",
          "name": "proposerIndicies",
          "type": "uint256[]"
        }
      ],
      "name": "endTurn",
      "outputs": [],
      "stateMutability": "nonpayable",
      "type": "function"
    },
    {
      "inputs": [
        {
          "internalType": "address",
          "name": "player",
          "type": "address"
        },
        {
          "internalType": "bytes32",
          "name": "turnSalt",
          "type": "bytes32"
        }
      ],
      "name": "playerSalt",
      "outputs": [
        {
          "internalType": "bytes32",
          "name": "",
          "type": "bytes32"
        }
      ],
      "stateMutability": "pure",
      "type": "function"
    },
    {
      "inputs": [
        {
          "components": [
            {
              "internalType": "uint256",
              "name": "gameId",
              "type": "uint256"
            },
            {
              "internalType": "string",
              "name": "encryptedProposal",
              "type": "string"
            },
            {
              "internalType": "bytes32",
              "name": "commitmentHash",
              "type": "bytes32"
            },
            {
              "internalType": "address",
              "name": "proposer",
              "type": "address"
            }
          ],
          "internalType": "struct RankifyInstanceGameMastersFacet.ProposalParams",
          "name": "proposalData",
          "type": "tuple"
        }
      ],
      "name": "submitProposal",
      "outputs": [],
      "stateMutability": "nonpayable",
      "type": "function"
    },
    {
      "inputs": [
        {
          "internalType": "uint256",
          "name": "gameId",
          "type": "uint256"
        },
        {
          "internalType": "string",
          "name": "encryptedVotes",
          "type": "string"
        },
        {
          "internalType": "address",
          "name": "voter",
          "type": "address"
        }
      ],
      "name": "submitVote",
      "outputs": [],
      "stateMutability": "nonpayable",
      "type": "function"
    }
  ],
  "transactionHash": "0x12b2ec1310484160784b289b731606d9397750defb40e9b30f38d0b7235b33eb",
  "args": [],
  "numDeployments": 2,
  "solcInputHash": "7a9bbef0b3308717a9563a790cb377cf",
  "bytecode": "0x608060405234801561001057600080fd5b50615450806100206000396000f3fe608060405234801561001057600080fd5b50600436106100675760003560e01c80636a994735116100505780636a994735146100945780637fb7f588146100a7578063ceb5beb6146100cd57600080fd5b80630c6446d51461006c578063463bc35514610081575b600080fd5b61007f61007a3660046147e5565b6100f0565b005b61007f61008f366004614912565b6104f2565b61007f6100a23660046149ba565b6108b9565b6100ba6100b5366004614a11565b610b18565b6040519081526020015b60405180910390f35b6100e06100db366004614a3b565b610b73565b60405190151581526020016100c4565b6100fa8433610b9c565b600061010585610c58565b905061011085610c93565b1561017c576040517f08c379a000000000000000000000000000000000000000000000000000000000815260206004820152600960248201527f47616d65206f766572000000000000000000000000000000000000000000000060448201526064015b60405180910390fd5b61018585610d35565b60008581527f91591bea3fc8863c74b4740fa2dfd9fd428a1e509b60555e4d1e8d8028901f356020526040812060010154905080600114610234576101c986610de0565b1515600114610234576040517f08c379a000000000000000000000000000000000000000000000000000000000815260206004820152601860248201527f656e645475726e2d3e63616e456e645475726e4561726c7900000000000000006044820152606401610173565b61023d86610e58565b6102ec5761024a86610edf565b5182600601541480610260575061026086610f1b565b6102ec576040517f08c379a000000000000000000000000000000000000000000000000000000000815260206004820152602760248201527f536f6d6520706c6179657273207374696c6c20686176652074696d6520746f2060448201527f70726f706f7365000000000000000000000000000000000000000000000000006064820152608401610173565b60006102f787610edf565b90508160011461045857600061030e888887610fbe565b91505060005b825181101561045557600085600201600088848151811061033757610337614a97565b60200260200101518152602001908152602001600020805461035890614ac6565b80601f016020809104026020016040519081016040528092919081815260200182805461038490614ac6565b80156103d15780601f106103a6576101008083540402835291602001916103d1565b820191906000526020600020905b8154815290600101906020018083116103b457829003601f168201915b50505050509050806040516103e69190614b3d565b6040518091039020858b7f71cc117353a39d910a72175a56496eefb857568810a5f5b11079400201be4dd48487878151811061042457610424614a97565b602002602001015160405161043a929190614ba3565b60405180910390a4508061044d81614bf4565b915050610314565b50505b6000610463886112ab565b91505061049e8860009081527f91591bea3fc8863c74b4740fa2dfd9fd428a1e509b60555e4d1e8d8028901f35602052604090206001015490565b887f69a9400160c8f6e71eb8c0ab9c5824e20304af8146719a7625c9d15675ebb6d384848a8a8d6040516104d6959493929190614d04565b60405180910390a36104e888876113bf565b5050505050505050565b80516104fd90611516565b80516105099033610b9c565b805161051490610c93565b1561057b576040517f08c379a000000000000000000000000000000000000000000000000000000000815260206004820152600960248201527f47616d65206f76657200000000000000000000000000000000000000000000006044820152606401610173565b805161058690610d35565b60006105958260000151610c58565b8251606084015173ffffffffffffffffffffffffffffffffffffffff1660009081527f91591bea3fc8863c74b4740fa2dfd9fd428a1e509b60555e4d1e8d8028901f3660205260409020549192501461064a576040517f08c379a000000000000000000000000000000000000000000000000000000000815260206004820152600c60248201527f6e6f74206120706c6179657200000000000000000000000000000000000000006044820152606401610173565b815161065590610e58565b156106bc576040517f08c379a000000000000000000000000000000000000000000000000000000000815260206004820152601b60248201527f43616e6e6f742070726f706f736520696e206c617374207475726e00000000006044820152606401610173565b81602001515160000361072b576040517f08c379a000000000000000000000000000000000000000000000000000000000815260206004820152601460248201527f43616e6e6f742070726f706f736520656d7074790000000000000000000000006044820152606401610173565b606082015173ffffffffffffffffffffffffffffffffffffffff166000908152600582016020526040902054156107be576040517f08c379a000000000000000000000000000000000000000000000000000000000815260206004820152601160248201527f416c72656164792070726f706f736564210000000000000000000000000000006044820152606401610173565b815160009081527f91591bea3fc8863c74b4740fa2dfd9fd428a1e509b60555e4d1e8d8028901f356020526040812060010154604080850151606086015173ffffffffffffffffffffffffffffffffffffffff166000908152600586016020529182205560068401805492935060019290919061083c908490614da4565b90915550506060830151835161085191611590565b50826060015173ffffffffffffffffffffffffffffffffffffffff168184600001517f525b2e06a8f927c08033ec5d6334d7796bbea62d2d4f0486fe60196d4fe6d0ad866040015187602001516040516108ac929190614db7565b60405180910390a4505050565b6108c38333610b9c565b6108cc83611516565b6108d583610d35565b6108de83610c93565b15610945576040517f08c379a000000000000000000000000000000000000000000000000000000000815260206004820152600960248201527f47616d65206f76657200000000000000000000000000000000000000000000006044820152606401610173565b61094f83826116ab565b60008381527f91591bea3fc8863c74b4740fa2dfd9fd428a1e509b60555e4d1e8d8028901f356020526040902060019081015411610a0f576040517f08c379a000000000000000000000000000000000000000000000000000000000815260206004820152602960248201527f4e6f2070726f706f73616c73206578697374206174207475726e20313a20636160448201527f6e6e6f7420766f746500000000000000000000000000000000000000000000006064820152608401610173565b6000610a1a84610c58565b9050600181600a016000828254610a319190614da4565b909155505073ffffffffffffffffffffffffffffffffffffffff82166000908152600c82016020526040902080547fffffffffffffffffffffffffffffffffffffffffffffffffffffffffffffff00166001179055610a908483611590565b5060008481527f91591bea3fc8863c74b4740fa2dfd9fd428a1e509b60555e4d1e8d8028901f35602052604090206001015473ffffffffffffffffffffffffffffffffffffffff831690857f70a202954fc6b6d8015f8bcfbc543189e19810d2e7e964e655ab5922d1ac5b4e86604051610b0a9190614dd0565b60405180910390a450505050565b6040517fffffffffffffffffffffffffffffffffffffffff000000000000000000000000606084901b166020820152603481018290526000906054016040516020818303038152906040528051906020012090505b92915050565b600080610b86858051906020012061177f565b9050610b938382866117c7565b95945050505050565b610ba582611516565b60008281527f91591bea3fc8863c74b4740fa2dfd9fd428a1e509b60555e4d1e8d8028901f35602052604090205473ffffffffffffffffffffffffffffffffffffffff828116911614610c54576040517f08c379a000000000000000000000000000000000000000000000000000000000815260206004820152601060248201527f4f6e6c792067616d65206d6173746572000000000000000000000000000000006044820152606401610173565b5050565b60008181527f91591bea3fc8863c74b4740fa2dfd9fd428a1e509b60555e4d1e8d8028901f3560205260408120600a015481905b9392505050565b60008181527f91591bea3fc8863c74b4740fa2dfd9fd428a1e509b60555e4d1e8d8028901f35602052604081207f91591bea3fc8863c74b4740fa2dfd9fd428a1e509b60555e4d1e8d8028901f315460018201547f91591bea3fc8863c74b4740fa2dfd9fd428a1e509b60555e4d1e8d8028901f2d9291108015610d1c5750600b81015460ff16155b15610d2b575060019392505050565b5060009392505050565b60008181527f91591bea3fc8863c74b4740fa2dfd9fd428a1e509b60555e4d1e8d8028901f356020526040812090829003610d7257610d72614de3565b600481015460ff16610c54576040517f08c379a000000000000000000000000000000000000000000000000000000000815260206004820152601860248201527f47616d6520686173206e6f7420796574207374617274656400000000000000006044820152606401610173565b60008181527f91591bea3fc8863c74b4740fa2dfd9fd428a1e509b60555e4d1e8d8028901f35602052604081206000610e1b82600501611842565b826008015414610e2c576000610e2f565b60015b600483015490915060ff16610e48575060009392505050565b8080610d1c5750610d1c8461184c565b60008181527f91591bea3fc8863c74b4740fa2dfd9fd428a1e509b60555e4d1e8d8028901f35602052604081207f91591bea3fc8863c74b4740fa2dfd9fd428a1e509b60555e4d1e8d8028901f315460018201547f91591bea3fc8863c74b4740fa2dfd9fd428a1e509b60555e4d1e8d8028901f2d92919003610d2b575060019392505050565b60008181527f91591bea3fc8863c74b4740fa2dfd9fd428a1e509b60555e4d1e8d8028901f3560205260409020606090610c8c600582016118af565b60008181527f91591bea3fc8863c74b4740fa2dfd9fd428a1e509b60555e4d1e8d8028901f35602052604081207f91591bea3fc8863c74b4740fa2dfd9fd428a1e509b60555e4d1e8d8028901f2d9083600003610f7a57610f7a614de3565b600481015460ff161515600114610f9357610f93614de3565b60028101548254610fa49190614da4565b4211610fb4575060009392505050565b5060019392505050565b6060806000610fcc86610edf565b90506000815167ffffffffffffffff811115610fea57610fea6145ca565b604051908082528060200260200182016040528015611013578160200160208202803683370190505b5090506000825167ffffffffffffffff811115611032576110326145ca565b60405190808252806020026020018201604052801561105b578160200160208202803683370190505b5090506000835167ffffffffffffffff81111561107a5761107a6145ca565b6040519080825280602002602001820160405280156110a3578160200160208202803683370190505b50905060006110b06118bc565b905060006110bd8b610c58565b905060005b86518110156111675781600c0160008883815181106110e3576110e3614a97565b602002602001015173ffffffffffffffffffffffffffffffffffffffff1673ffffffffffffffffffffffffffffffffffffffff16815260200190815260200160002060009054906101000a900460ff1684828151811061114557611145614a97565b911515602092830291909101909101528061115f81614bf4565b9150506110c2565b50600682015489516040805160608101825260058601548152602081018490526007860154918101919091526111a29290918d9187916118e5565b935060005b86518110156112995786518a82815181106111c4576111c4614a97565b60200260200101511015611287578481815181106111e4576111e4614a97565b602002602001015161121888838151811061120157611201614a97565b60200260200101518e611b8890919063ffffffff16565b6112229190614da4565b86828151811061123457611234614a97565b60200260200101818152505061128787828151811061125557611255614a97565b602002602001015187838151811061126f5761126f614a97565b60200260200101518e611be09092919063ffffffff16565b8061129181614bf4565b9150506111a7565b50939a92995091975050505050505050565b60608060006112b984610edf565b90506000815167ffffffffffffffff8111156112d7576112d76145ca565b604051908082528060200260200182016040528015611300578160200160208202803683370190505b50905060005b82518110156113b4576113858684838151811061132557611325614a97565b602002602001015160009182527f91591bea3fc8863c74b4740fa2dfd9fd428a1e509b60555e4d1e8d8028901f356020908152604080842073ffffffffffffffffffffffffffffffffffffffff9390931684526009909201905290205490565b82828151811061139757611397614a97565b6020908102919091010152806113ac81614bf4565b915050611306565b509094909350915050565b6113c882611cab565b60008060006113d685611e66565b509250925092508280156113e75750815b156114185760405185907f16b81a8b7a63ff74301aeb7a5b3048ff92880ec2bb0773136ed953bf4ef6f47390600090a25b821561144a5760405185907f355ab9c54569d91a1467b11b130e91c3f6c15c3c50c7225177cfaf66ba44ddd090600090a25b801561150557600061149d6114937fc8fcad8db84d3cc18b4c41d551ea0ee66dd599cde068d998e57d5e09332c13205473ffffffffffffffffffffffffffffffffffffffff1690565b879061201561206d565b905060006114aa87610edf565b9050816040516114ba9190614e12565b6040518091039020816040516114d09190614e48565b6040519081900381209089907f310cab2765035ece7f5c89e2f74e216e41485f0911e38063d06de80c47e14b7e90600090a450505b61150f85856121ff565b5050505050565b61151e612287565b6115278161231a565b61158d576040517f08c379a000000000000000000000000000000000000000000000000000000000815260206004820152600d60248201527f6e6f2067616d6520666f756e64000000000000000000000000000000000000006044820152606401610173565b50565b60008281527f91591bea3fc8863c74b4740fa2dfd9fd428a1e509b60555e4d1e8d8028901f35602052604081206001015460006115cb6118bc565b905060006115d886610c58565b90506001808481036115ed57600091506115ff565b6115f688610e58565b156115ff575060005b60078401546004840154101561161457600091505b600182801561164b575073ffffffffffffffffffffffffffffffffffffffff88166000908152600c8501602052604090205460ff16155b15611654575060005b818015611686575073ffffffffffffffffffffffffffffffffffffffff88166000908152600585016020526040902054155b1561168f575060005b801561169f5761169f8989612376565b98975050505050505050565b73ffffffffffffffffffffffffffffffffffffffff811660009081527f91591bea3fc8863c74b4740fa2dfd9fd428a1e509b60555e4d1e8d8028901f3660205260409020547f91591bea3fc8863c74b4740fa2dfd9fd428a1e509b60555e4d1e8d8028901f2d90831461177a576040517f08c379a000000000000000000000000000000000000000000000000000000000815260206004820152601260248201527f6973206e6f7420696e207468652067616d6500000000000000000000000000006044820152606401610173565b505050565b6000610b6d61178c6125fb565b836040517f19010000000000000000000000000000000000000000000000000000000000008152600281019290925260228201526042902090565b60008060006117d685856126d9565b909250905060008160048111156117ef576117ef614e88565b14801561182757508573ffffffffffffffffffffffffffffffffffffffff168273ffffffffffffffffffffffffffffffffffffffff16145b80611838575061183886868661271e565b9695505050505050565b6000610b6d825490565b60008061185883610f1b565b60008481527f91591bea3fc8863c74b4740fa2dfd9fd428a1e509b60555e4d1e8d8028901f356020526040902060048101549192509060ff1661189f575060009392505050565b8115610d2b575060019392505050565b60606000610c8c8361287b565b6000807f7acf15cdb85906c3736403f86bf7ccb69a25bb6dbdcde1cbcbf35fe2a64df852610b6d565b606060008267ffffffffffffffff811115611902576119026145ca565b60405190808252806020026020018201604052801561192b578160200160208202803683370190505b5090506000865167ffffffffffffffff81111561194a5761194a6145ca565b604051908082528060200260200182016040528015611973578160200160208202803683370190505b50905060005b84811015611b7b57600083828151811061199557611995614a97565b60200260200101818152505060005b8851811015611b685760008982815181106119c1576119c1614a97565b602002602001015190508882815181106119dd576119dd614a97565b6020026020010151611a3a57878584815181106119fc576119fc614a97565b60200260200101818151611a109190614da4565b9052508a518451859084908110611a2957611a29614a97565b602002602001018181525050611b55565b808381518110611a4c57611a4c614a97565b6020026020010151858481518110611a6657611a66614a97565b60200260200101818151611a7a9190614da4565b9052508051600290829085908110611a9457611a94614a97565b6020026020010151611aa69190614fd7565b848381518110611ab857611ab8614a97565b60200260200101818151611acc9190614da4565b9052508a518451859084908110611ae557611ae5614a97565b60200260200101511115611b55576040517f08c379a000000000000000000000000000000000000000000000000000000000815260206004820152601460248201527f717561647261746963566f74696e674572726f720000000000000000000000006044820152606401610173565b5080611b6081614bf4565b9150506119a4565b5080611b7381614bf4565b915050611979565b5090979650505050505050565b60009182527f91591bea3fc8863c74b4740fa2dfd9fd428a1e509b60555e4d1e8d8028901f356020908152604080842073ffffffffffffffffffffffffffffffffffffffff9390931684526009909201905290205490565b60008381527f91591bea3fc8863c74b4740fa2dfd9fd428a1e509b60555e4d1e8d8028901f3560205260409020611c1784846128d7565b611c7d576040517f08c379a000000000000000000000000000000000000000000000000000000000815260206004820152601460248201527f706c61796572206e6f7420696e20612067616d650000000000000000000000006044820152606401610173565b73ffffffffffffffffffffffffffffffffffffffff9092166000908152600990920160205260409091205550565b6000611cb682610edf565b90506000611cc383610c58565b6000600682018190559091505b8251811015611e3f576000801b826005016000858481518110611cf557611cf5614a97565b602002602001015173ffffffffffffffffffffffffffffffffffffffff1673ffffffffffffffffffffffffffffffffffffffff16815260200190815260200160002081905550604051806020016040528060008152508260020160008381526020019081526020016000209081611d6c919061502c565b50600082600c016000858481518110611d8757611d87614a97565b602002602001015173ffffffffffffffffffffffffffffffffffffffff1673ffffffffffffffffffffffffffffffffffffffff16815260200190815260200160002060006101000a81548160ff0219169083151502179055506000801b826007016000858481518110611dfc57611dfc614a97565b60209081029190910181015173ffffffffffffffffffffffffffffffffffffffff1682528101919091526040016000205580611e3781614bf4565b915050611cd0565b50600a81018054600b83015560009081905560038201805460049093019290925590555050565b600080600060606000611ea38660009081527f91591bea3fc8863c74b4740fa2dfd9fd428a1e509b60555e4d1e8d8028901f356020526040902090565b9050611eae86610d35565b611eb786612956565b611ec0816129c6565b6001816001016000828254611ed59190614da4565b90915550504260028201556000611eeb87610e58565b600b83015490915060ff166000611f0189610edf565b5167ffffffffffffffff811115611f1a57611f1a6145ca565b604051908082528060200260200182016040528015611f43578160200160208202803683370190505b5090508280611f565750600b84015460ff165b80611f655750611f6589610c93565b15611fa757611f7389612a55565b600b860180547fffffffffffffffffffffffffffffffffffffffffffffffffffffffffffffff001683151517905590925090505b8051611fbc90600c8601906020840190614534565b50611fc689610c93565b60049490940180547fffffffffffffffffffffffffffffffffffffffffffffffffffffffffffff00ff1661010095151586021790819055929991985060ff939092049290921695509350915050565b600061202083610c58565b600181015490915061177a90849073ffffffffffffffffffffffffffffffffffffffff1661204d82612b4e565b60008151811061205f5761205f614a97565b602002602001015185612bee565b606061207884611516565b61208a8461208586612b4e565b612c51565b6000612095856112ab565b91505060006120a386610edf565b905060005b815181101561210d576120d4878383815181106120c7576120c7614a97565b6020026020010151612cf5565b6120fb878383815181106120ea576120ea614a97565b60200260200101518763ffffffff16565b8061210581614bf4565b9150506120a8565b5060006121186118bc565b600181015481548451600284015493945073ffffffffffffffffffffffffffffffffffffffff9092169263a9059cbb928a92916121559190615146565b61215f9190614da4565b6040517fffffffff0000000000000000000000000000000000000000000000000000000060e085901b16815273ffffffffffffffffffffffffffffffffffffffff909216600483015260248201526044016020604051808303816000875af11580156121cf573d6000803e3d6000fd5b505050506040513d601f19601f820116820180604052508101906121f3919061515d565b50919695505050505050565b600061220a83610c58565b905060005b82518110156122815782818151811061222a5761222a614a97565b60200260200101518260020160008381526020019081526020016000209081612253919061502c565b5060018260030160008282546122699190614da4565b9091555081905061227981614bf4565b91505061220f565b50505050565b60006122916118bc565b600481015490915074010000000000000000000000000000000000000000900460ff1661158d576040517f08c379a000000000000000000000000000000000000000000000000000000000815260206004820152600f60248201527f6f6e6c79496e697469616c697a656400000000000000000000000000000000006044820152606401610173565b60008181527f91591bea3fc8863c74b4740fa2dfd9fd428a1e509b60555e4d1e8d8028901f3560205260408120805473ffffffffffffffffffffffffffffffffffffffff161561236d5750600192915050565b50600092915050565b8161238081610f1b565b156123e7576040517f08c379a000000000000000000000000000000000000000000000000000000000815260206004820152601f60248201527f6f6e6c79496e5475726e54696d65202d3e207475726e2074696d65646f7574006044820152606401610173565b60008381527f91591bea3fc8863c74b4740fa2dfd9fd428a1e509b60555e4d1e8d8028901f356020526040902061241d84610d35565b61242684612956565b73ffffffffffffffffffffffffffffffffffffffff8316600090815260078201602052604090205460ff16156124b8576040517f08c379a000000000000000000000000000000000000000000000000000000000815260206004820152601360248201527f616c7265616479206d6164652061206d6f7665000000000000000000000000006044820152606401610173565b73ffffffffffffffffffffffffffffffffffffffff831660009081527f91591bea3fc8863c74b4740fa2dfd9fd428a1e509b60555e4d1e8d8028901f3660205260409020547f91591bea3fc8863c74b4740fa2dfd9fd428a1e509b60555e4d1e8d8028901f2d908514612587576040517f08c379a000000000000000000000000000000000000000000000000000000000815260206004820152601260248201527f6973206e6f7420696e207468652067616d6500000000000000000000000000006044820152606401610173565b73ffffffffffffffffffffffffffffffffffffffff84166000908152600783016020526040812080547fffffffffffffffffffffffffffffffffffffffffffffffffffffffffffffff00166001908117909155600884018054919290916125ef908490614da4565b90915550505050505050565b7fe5b6a7afa77789577f2802f0da58895f660e5798c5c11b2ea18b0a53bd65d3a9546000907fe5b6a7afa77789577f2802f0da58895f660e5798c5c11b2ea18b0a53bd65d3a79073ffffffffffffffffffffffffffffffffffffffff16301480156126695750806001015446145b156126745754919050565b6126cf8160050154826003015483600401546040805160208101859052908101839052606081018290524660808201523060a082015260009060c0016040516020818303038152906040528051906020012090509392505050565b91505090565b5090565b600080825160410361270f5760208301516040840151606085015160001a61270387828585612dbc565b94509450505050612717565b506000905060025b9250929050565b60008060008573ffffffffffffffffffffffffffffffffffffffff16631626ba7e60e01b8686604051602401612755929190614db7565b604080517fffffffffffffffffffffffffffffffffffffffffffffffffffffffffffffffe08184030181529181526020820180517bffffffffffffffffffffffffffffffffffffffffffffffffffffffff167fffffffff000000000000000000000000000000000000000000000000000000009094169390931790925290516127de9190614b3d565b600060405180830381855afa9150503d8060008114612819576040519150601f19603f3d011682016040523d82523d6000602084013e61281e565b606091505b509150915081801561283257506020815110155b8015611838575080517f1626ba7e0000000000000000000000000000000000000000000000000000000090612870908301602090810190840161517f565b149695505050505050565b6060816000018054806020026020016040519081016040528092919081815260200182805480156128cb57602002820191906000526020600020905b8154815260200190600101908083116128b7575b50505050509050919050565b73ffffffffffffffffffffffffffffffffffffffff811660009081527f91591bea3fc8863c74b4740fa2dfd9fd428a1e509b60555e4d1e8d8028901f3660205260408120547f91591bea3fc8863c74b4740fa2dfd9fd428a1e509b60555e4d1e8d8028901f2d90841461294b57600061294e565b60015b949350505050565b61295f81610c93565b1561158d576040517f08c379a000000000000000000000000000000000000000000000000000000000815260206004820152600960248201527f47616d65206f76657200000000000000000000000000000000000000000000006044820152606401610173565b60005b6129d582600501611842565b811015612a4a5760006129eb6005840183612eab565b73ffffffffffffffffffffffffffffffffffffffff166000908152600784016020526040902080547fffffffffffffffffffffffffffffffffffffffffffffffffffffffffffffff001690555080612a4281614bf4565b9150506129c9565b506000600890910155565b600060607f91591bea3fc8863c74b4740fa2dfd9fd428a1e509b60555e4d1e8d8028901f2d8280612a85866112ab565b91509150612aa281600060018451612a9d9190615198565b612eb7565b60005b60018351612ab39190615198565b811015612b3f576005840154612acb90600190615198565b8111612b285781612add826001614da4565b81518110612aed57612aed614a97565b6020026020010151828281518110612b0757612b07614a97565b602002602001015103612b235750600196919550909350505050565b612b2d565b612b3f565b80612b3781614bf4565b915050612aa5565b50600096919550909350505050565b60008181527f91591bea3fc8863c74b4740fa2dfd9fd428a1e509b60555e4d1e8d8028901f356020526040812060609190600c8101805460408051602080840282018101909252828152939450830182828015612be157602002820191906000526020600020905b815473ffffffffffffffffffffffffffffffffffffffff168152600190910190602001808311612bb6575b5050505050915050919050565b6000612c438560408051602080820193909352815180820384018152908201825280519083012060009081527fb12a0409539e5fa777ebbd0648c2d35d1b56f5385885518278a66364324a9138909252902090565b905061150f81858585613037565b6000612c5c83610c58565b90506000612c686118bc565b6004810154909150612c93908590859073ffffffffffffffffffffffffffffffffffffffff166130e6565b60005b600883015481101561150f57612ce38585856008018481548110612cbc57612cbc614a97565b60009182526020909120015473ffffffffffffffffffffffffffffffffffffffff166130e6565b80612ced81614bf4565b915050612c96565b612cfe82611516565b612d0882826133a6565b6000612d126118bc565b90506000612d1f84610c58565b90506001816000015411156122815780546004830154612d5691859173ffffffffffffffffffffffffffffffffffffffff166135b2565b60005b600882015481101561150f57612daa848360000154846008018481548110612d8357612d83614a97565b60009182526020909120015473ffffffffffffffffffffffffffffffffffffffff166135b2565b80612db481614bf4565b915050612d59565b6000807f7fffffffffffffffffffffffffffffff5d576e7357a4501ddfe92f46681b20a0831115612df35750600090506003612ea2565b6040805160008082526020820180845289905260ff881692820192909252606081018690526080810185905260019060a0016020604051602081039080840390855afa158015612e47573d6000803e3d6000fd5b50506040517fffffffffffffffffffffffffffffffffffffffffffffffffffffffffffffffe0015191505073ffffffffffffffffffffffffffffffffffffffff8116612e9b57600060019250925050612ea2565b9150600090505b94509492505050565b6000610c8c8383613640565b8181808203612ec7575050505050565b6000856002612ed687876151ab565b612ee091906151cb565b612eea908761525a565b81518110612efa57612efa614a97565b602002602001015190505b818313613009575b80868481518110612f2057612f20614a97565b60200260200101511115612f405782612f3881615282565b935050612f0d565b858281518110612f5257612f52614a97565b6020026020010151811115612f735781612f6b816152b3565b925050612f40565b81831361300457858281518110612f8c57612f8c614a97565b6020026020010151868481518110612fa657612fa6614a97565b6020026020010151878581518110612fc057612fc0614a97565b60200260200101888581518110612fd957612fd9614a97565b60209081029190910101919091525282612ff281615282565b9350508180613000906152b3565b9250505b612f05565b8185121561301c5761301c868684612eb7565b8383121561302f5761302f868486612eb7565b505050505050565b8360080154846007015485600601546130509190614da4565b106130b7576040517f08c379a000000000000000000000000000000000000000000000000000000000815260206004820152601d60248201527f4e6f7420656e6f7567682062616c616e636520746f2072656c656173650000006044820152606401610173565b6130c68430858560008661366a565b60018460070160008282546130db9190614da4565b909155505050505050565b60006130f184610c58565b905060008290508073ffffffffffffffffffffffffffffffffffffffff1663f242432a308660008151811061312857613128614a97565b6020026020010151856000015460016131419190614da4565b6040517fffffffff0000000000000000000000000000000000000000000000000000000060e086901b16815273ffffffffffffffffffffffffffffffffffffffff938416600482015292909116602483015260448201526001606482015260a06084820152600060a482015260c401600060405180830381600087803b1580156131ca57600080fd5b505af11580156131de573d6000803e3d6000fd5b505050508073ffffffffffffffffffffffffffffffffffffffff1663f242432a308660018151811061321257613212614a97565b602090810291909101015185546040517fffffffff0000000000000000000000000000000000000000000000000000000060e086901b16815273ffffffffffffffffffffffffffffffffffffffff938416600482015292909116602483015260448201526002606482015260a06084820152600060a482015260c401600060405180830381600087803b1580156132a857600080fd5b505af11580156132bc573d6000803e3d6000fd5b505050508073ffffffffffffffffffffffffffffffffffffffff1663f242432a30866002815181106132f0576132f0614a97565b602090810291909101015185546040517fffffffff0000000000000000000000000000000000000000000000000000000060e086901b16815273ffffffffffffffffffffffffffffffffffffffff938416600482015292909116602483015260448201526001606482015260a06084820152600060a482015260c4015b600060405180830381600087803b15801561338757600080fd5b505af115801561339b573d6000803e3d6000fd5b505050505050505050565b60008281527f91591bea3fc8863c74b4740fa2dfd9fd428a1e509b60555e4d1e8d8028901f35602052604090207f91591bea3fc8863c74b4740fa2dfd9fd428a1e509b60555e4d1e8d8028901f2d906133fe8461231a565b613464576040517f08c379a000000000000000000000000000000000000000000000000000000000815260206004820152601360248201527f67616d6520646f6573206e6f74206578697374000000000000000000000000006044820152606401610173565b73ffffffffffffffffffffffffffffffffffffffff8316600090815260098301602052604090205484146134f4576040517f08c379a000000000000000000000000000000000000000000000000000000000815260206004820152600f60248201527f4e6f7420696e207468652067616d6500000000000000000000000000000000006044820152606401610173565b600481015460ff1615806135175750600481015460ff6101009091041615156001145b61357d576040517f08c379a000000000000000000000000000000000000000000000000000000000815260206004820152601960248201527f43616e6e6f74206c65617665206f6e63652073746172746564000000000000006044820152606401610173565b73ffffffffffffffffffffffffffffffffffffffff8316600090815260098301602052604081205561150f6005820184613a17565b6040517fb5674c6800000000000000000000000000000000000000000000000000000000815273ffffffffffffffffffffffffffffffffffffffff8481166004830152602482018490526001604483015282919082169063b5674c6890606401600060405180830381600087803b15801561362c57600080fd5b505af11580156104e8573d6000803e3d6000fd5b600082600001828154811061365757613657614a97565b9060005260206000200154905092915050565b3073ffffffffffffffffffffffffffffffffffffffff8616036137d4576002860154156136d957600286015460405173ffffffffffffffffffffffffffffffffffffffff83169180156108fc02916000818181858888f193505050501580156136d7573d6000803e3d6000fd5b505b60048601541561372b57600486015460405173ffffffffffffffffffffffffffffffffffffffff86169180156108fc02916000818181858888f19350505050158015613729573d6000803e3d6000fd5b505b60058601541561377d57600586015460405173ffffffffffffffffffffffffffffffffffffffff85169180156108fc02916000818181858888f1935050505015801561377b573d6000803e3d6000fd5b505b6003860154156137cf57600386015460405173ffffffffffffffffffffffffffffffffffffffff84169180156108fc02916000818181858888f193505050501580156137cd573d6000803e3d6000fd5b505b613878565b600386015460058701546004880154600289015460009392916137f691614da4565b6138009190614da4565b61380a9190614da4565b905080341015613876576040517f08c379a000000000000000000000000000000000000000000000000000000000815260206004820152601160248201527f6d73672e76616c756520746f6f206c6f770000000000000000000000000000006044820152606401610173565b505b60005b600a870154811015613a0e57600087600a01828154811061389e5761389e614a97565b6000918252602082200154600b8a01805473ffffffffffffffffffffffffffffffffffffffff909216935090849081106138da576138da614a97565b9060005260206000200154905060008960090184815481106138fe576138fe614a97565b60009182526020808320908204015460ff601f9092166101000a90041691508a8183600281111561393157613931614e88565b600281111561394257613942614e88565b81526020808201929092526040908101600090812073ffffffffffffffffffffffffffffffffffffffff8816825283528181208682529092528120915082600281111561399157613991614e88565b036139aa576139a584828c8c8c8c8c613a39565b6139f7565b60028260028111156139be576139be614e88565b036139ce576139a584828c613bb1565b60018260028111156139e2576139e2614e88565b036139f7576139f78484838d8d8d8d8d613d7c565b505050508080613a0690614bf4565b91505061387b565b50505050505050565b6000610c8c8373ffffffffffffffffffffffffffffffffffffffff8416614163565b613a4c878683896002016001015461425d565b613a5f878684896004016001015461425d565b613a72878686896006016001015461425d565b613a85878685896008016001015461425d565b600186015487908015801590613ab1575073ffffffffffffffffffffffffffffffffffffffff87163014155b1561339b576040517f70a0823100000000000000000000000000000000000000000000000000000000815273ffffffffffffffffffffffffffffffffffffffff88811660048301528291908416906370a0823190602401602060405180830381865afa158015613b25573d6000803e3d6000fd5b505050506040513d601f19601f82011682018060405250810190613b49919061517f565b101561339b576040517f08c379a000000000000000000000000000000000000000000000000000000000815260206004820152601760248201527f4e6f7420656e6f75676820657263323020746f6b656e730000000000000000006044820152606401610173565b60038201548390158015613bc757506005830154155b8015613bd557506007830154155b8015613be357506009830154155b613c49576040517f08c379a000000000000000000000000000000000000000000000000000000000815260206004820152601e60248201527f455243373231207472616e7366657273206e6f7420737570706f7274656400006044820152606401610173565b600183015415801590613c72575073ffffffffffffffffffffffffffffffffffffffff82163014155b15612281576040517f70a0823100000000000000000000000000000000000000000000000000000000815273ffffffffffffffffffffffffffffffffffffffff8381166004830152600091908316906370a0823190602401602060405180830381865afa158015613ce7573d6000803e3d6000fd5b505050506040513d601f19601f82011682018060405250810190613d0b919061517f565b600185015490915081101561150f576040517f08c379a000000000000000000000000000000000000000000000000000000000815260206004820152601960248201527f4e6f7420656e6f756768204552433732312062616c616e6365000000000000006044820152606401610173565b600186015488908015613e90576040517efdd58e00000000000000000000000000000000000000000000000000000000815273ffffffffffffffffffffffffffffffffffffffff8881166004830152602482018b90526000919084169062fdd58e90604401602060405180830381865afa158015613dfe573d6000803e3d6000fd5b505050506040513d601f19601f82011682018060405250810190613e22919061517f565b905081811015613e8e576040517f08c379a000000000000000000000000000000000000000000000000000000000815260206004820152601c60248201527f455243313135352062616c616e6365206973206e6f742076616c6964000000006044820152606401610173565b505b5060078701548015613f16578173ffffffffffffffffffffffffffffffffffffffff1663f242432a88888c858d6006016000016040518663ffffffff1660e01b8152600401613ee395949392919061530a565b600060405180830381600087803b158015613efd57600080fd5b505af1158015613f11573d6000803e3d6000fd5b505050505b5060098701548015613f9c578173ffffffffffffffffffffffffffffffffffffffff1663f242432a88878c858d6008016000016040518663ffffffff1660e01b8152600401613f6995949392919061530a565b600060405180830381600087803b158015613f8357600080fd5b505af1158015613f97573d6000803e3d6000fd5b505050505b50600587015480156140d15773ffffffffffffffffffffffffffffffffffffffff8416614057576040517ff5298aca00000000000000000000000000000000000000000000000000000000815273ffffffffffffffffffffffffffffffffffffffff8881166004830152602482018b90526044820183905283169063f5298aca90606401600060405180830381600087803b15801561403a57600080fd5b505af115801561404e573d6000803e3d6000fd5b505050506140d1565b8173ffffffffffffffffffffffffffffffffffffffff1663f242432a88868c858d6004016000016040518663ffffffff1660e01b815260040161409e95949392919061530a565b600060405180830381600087803b1580156140b857600080fd5b505af11580156140cc573d6000803e3d6000fd5b505050505b5060038701548015614157578173ffffffffffffffffffffffffffffffffffffffff1663f242432a88858c858d6002016000016040518663ffffffff1660e01b815260040161412495949392919061530a565b600060405180830381600087803b15801561413e57600080fd5b505af1158015614152573d6000803e3d6000fd5b505050505b50505050505050505050565b6000818152600183016020526040812054801561424c576000614187600183615198565b855490915060009061419b90600190615198565b90508181146142005760008660000182815481106141bb576141bb614a97565b90600052602060002001549050808760000184815481106141de576141de614a97565b6000918252602080832090910192909255918252600188019052604090208390555b8554869080614211576142116153eb565b600190038181906000526020600020016000905590558560010160008681526020019081526020016000206000905560019350505050610b6d565b6000915050610b6d565b5092915050565b83811561150f573073ffffffffffffffffffffffffffffffffffffffff8516036143c25773ffffffffffffffffffffffffffffffffffffffff83161561433d576040517fa9059cbb00000000000000000000000000000000000000000000000000000000815273ffffffffffffffffffffffffffffffffffffffff84811660048301526024820184905282169063a9059cbb906044015b6020604051808303816000875af1158015614313573d6000803e3d6000fd5b505050506040513d601f19601f82011682018060405250810190614337919061515d565b5061150f565b6040517f42966c680000000000000000000000000000000000000000000000000000000081526004810183905273ffffffffffffffffffffffffffffffffffffffff8216906342966c6890602401600060405180830381600087803b1580156143a557600080fd5b505af11580156143b9573d6000803e3d6000fd5b5050505061150f565b73ffffffffffffffffffffffffffffffffffffffff831615614441576040517f23b872dd00000000000000000000000000000000000000000000000000000000815273ffffffffffffffffffffffffffffffffffffffff85811660048301528481166024830152604482018490528216906323b872dd906064016142f4565b6040517f23b872dd00000000000000000000000000000000000000000000000000000000815273ffffffffffffffffffffffffffffffffffffffff8581166004830152306024830152604482018490528216906323b872dd906064016020604051808303816000875af11580156144bc573d6000803e3d6000fd5b505050506040513d601f19601f820116820180604052508101906144e0919061515d565b506040517f42966c680000000000000000000000000000000000000000000000000000000081526004810183905273ffffffffffffffffffffffffffffffffffffffff8216906342966c689060240161336d565b8280548282559060005260206000209081019282156145ae579160200282015b828111156145ae57825182547fffffffffffffffffffffffff00000000000000000000000000000000000000001673ffffffffffffffffffffffffffffffffffffffff909116178255602090920191600190910190614554565b506126d59291505b808211156126d557600081556001016145b6565b7f4e487b7100000000000000000000000000000000000000000000000000000000600052604160045260246000fd5b604051601f82017fffffffffffffffffffffffffffffffffffffffffffffffffffffffffffffffe016810167ffffffffffffffff81118282101715614640576146406145ca565b604052919050565b600067ffffffffffffffff821115614662576146626145ca565b5060051b60200190565b600082601f83011261467d57600080fd5b8135602061469261468d83614648565b6145f9565b82815260059290921b840181019181810190868411156146b157600080fd5b8286015b848110156146cc57803583529183019183016146b5565b509695505050505050565b600082601f8301126146e857600080fd5b813567ffffffffffffffff811115614702576147026145ca565b61473360207fffffffffffffffffffffffffffffffffffffffffffffffffffffffffffffffe0601f840116016145f9565b81815284602083860101111561474857600080fd5b816020850160208301376000918101602001919091529392505050565b600082601f83011261477657600080fd5b8135602061478661468d83614648565b82815260059290921b840181019181810190868411156147a557600080fd5b8286015b848110156146cc57803567ffffffffffffffff8111156147c95760008081fd5b6147d78986838b01016146d7565b8452509183019183016147a9565b600080600080608085870312156147fb57600080fd5b8435935060208086013567ffffffffffffffff8082111561481b57600080fd5b818801915088601f83011261482f57600080fd5b813561483d61468d82614648565b81815260059190911b8301840190848101908b83111561485c57600080fd5b8585015b83811015614894578035858111156148785760008081fd5b6148868e89838a010161466c565b845250918601918601614860565b509750505060408801359250808311156148ad57600080fd5b6148b989848a01614765565b945060608801359250808311156148cf57600080fd5b50506148dd8782880161466c565b91505092959194509250565b803573ffffffffffffffffffffffffffffffffffffffff8116811461490d57600080fd5b919050565b60006020828403121561492457600080fd5b813567ffffffffffffffff8082111561493c57600080fd5b908301906080828603121561495057600080fd5b60405160808101818110838211171561496b5761496b6145ca565b6040528235815260208301358281111561498457600080fd5b614990878286016146d7565b602083015250604083013560408201526149ac606084016148e9565b606082015295945050505050565b6000806000606084860312156149cf57600080fd5b83359250602084013567ffffffffffffffff8111156149ed57600080fd5b6149f9868287016146d7565b925050614a08604085016148e9565b90509250925092565b60008060408385031215614a2457600080fd5b614a2d836148e9565b946020939093013593505050565b600080600060608486031215614a5057600080fd5b833567ffffffffffffffff80821115614a6857600080fd5b614a74878388016146d7565b94506020860135915080821115614a8a57600080fd5b506149f9868287016146d7565b7f4e487b7100000000000000000000000000000000000000000000000000000000600052603260045260246000fd5b600181811c90821680614ada57607f821691505b602082108103614b13577f4e487b7100000000000000000000000000000000000000000000000000000000600052602260045260246000fd5b50919050565b60005b83811015614b34578181015183820152602001614b1c565b50506000910152565b60008251614b4f818460208701614b19565b9190910192915050565b60008151808452614b71816020860160208601614b19565b601f017fffffffffffffffffffffffffffffffffffffffffffffffffffffffffffffffe0169290920160200192915050565b604081526000614bb66040830185614b59565b90508260208301529392505050565b7f4e487b7100000000000000000000000000000000000000000000000000000000600052601160045260246000fd5b60007fffffffffffffffffffffffffffffffffffffffffffffffffffffffffffffffff8203614c2557614c25614bc5565b5060010190565b600081518084526020808501945080840160005b83811015614c5c57815187529582019590820190600101614c40565b509495945050505050565b600081518084526020808501808196508360051b8101915082860160005b85811015614caf578284038952614c9d848351614b59565b98850198935090840190600101614c85565b5091979650505050505050565b600081518084526020808501808196508360051b8101915082860160005b85811015614caf578284038952614cf2848351614c2c565b98850198935090840190600101614cda565b60a0808252865190820181905260009060209060c0840190828a01845b82811015614d5357815173ffffffffffffffffffffffffffffffffffffffff1684529284019290840190600101614d21565b50505083810382850152614d678189614c2c565b9150508281036040840152614d7c8187614c67565b90508281036060840152614d908186614c2c565b9050828103608084015261169f8185614cbc565b80820180821115610b6d57610b6d614bc5565b82815260406020820152600061294e6040830184614b59565b602081526000610c8c6020830184614b59565b7f4e487b7100000000000000000000000000000000000000000000000000000000600052600160045260246000fd5b815160009082906020808601845b83811015614e3c57815185529382019390820190600101614e20565b50929695505050505050565b815160009082906020808601845b83811015614e3c57815173ffffffffffffffffffffffffffffffffffffffff1685529382019390820190600101614e56565b7f4e487b7100000000000000000000000000000000000000000000000000000000600052602160045260246000fd5b600181815b80851115614f1057817fffffffffffffffffffffffffffffffffffffffffffffffffffffffffffffffff04821115614ef657614ef6614bc5565b80851615614f0357918102915b93841c9390800290614ebc565b509250929050565b600082614f2757506001610b6d565b81614f3457506000610b6d565b8160018114614f4a5760028114614f5457614f70565b6001915050610b6d565b60ff841115614f6557614f65614bc5565b50506001821b610b6d565b5060208310610133831016604e8410600b8410161715614f93575081810a610b6d565b614f9d8383614eb7565b807fffffffffffffffffffffffffffffffffffffffffffffffffffffffffffffffff04821115614fcf57614fcf614bc5565b029392505050565b6000610c8c60ff841683614f18565b601f82111561177a57600081815260208120601f850160051c8101602086101561500d5750805b601f850160051c820191505b8181101561302f57828155600101615019565b815167ffffffffffffffff811115615046576150466145ca565b61505a816150548454614ac6565b84614fe6565b602080601f8311600181146150ad57600084156150775750858301515b7fffffffffffffffffffffffffffffffffffffffffffffffffffffffffffffffff600386901b1c1916600185901b17855561302f565b6000858152602081207fffffffffffffffffffffffffffffffffffffffffffffffffffffffffffffffe08616915b828110156150fa578886015182559484019460019091019084016150db565b508582101561513657878501517fffffffffffffffffffffffffffffffffffffffffffffffffffffffffffffffff600388901b60f8161c191681555b5050505050600190811b01905550565b8082028115828204841417610b6d57610b6d614bc5565b60006020828403121561516f57600080fd5b81518015158114610c8c57600080fd5b60006020828403121561519157600080fd5b5051919050565b81810381811115610b6d57610b6d614bc5565b818103600083128015838313168383128216171561425657614256614bc5565b600082615201577f4e487b7100000000000000000000000000000000000000000000000000000000600052601260045260246000fd5b7fffffffffffffffffffffffffffffffffffffffffffffffffffffffffffffffff83147f80000000000000000000000000000000000000000000000000000000000000008314161561525557615255614bc5565b500590565b808201828112600083128015821682158216171561527a5761527a614bc5565b505092915050565b60007f7fffffffffffffffffffffffffffffffffffffffffffffffffffffffffffffff8203614c2557614c25614bc5565b60007f800000000000000000000000000000000000000000000000000000000000000082036152e4576152e4614bc5565b507fffffffffffffffffffffffffffffffffffffffffffffffffffffffffffffffff0190565b600073ffffffffffffffffffffffffffffffffffffffff808816835260208188168185015286604085015285606085015260a0608085015260009150845461535181614ac6565b8060a087015260c060018084166000811461537357600181146153ab576153d9565b7fffffffffffffffffffffffffffffffffffffffffffffffffffffffffffffff008516838a01528284151560051b8a010196506153d9565b896000528560002060005b858110156153d15781548b82018601529083019087016153b6565b8a0184019750505b50949c9b505050505050505050505050565b7f4e487b7100000000000000000000000000000000000000000000000000000000600052603160045260246000fdfea2646970667358221220a390fcac072076adaa40df2fa22639edd8936c95fa97bf222f09bc27ebf7b5f064736f6c63430008140033",
  "devdoc": {
    "kind": "dev",
    "methods": {},
    "version": 1
  },
  "userdoc": {
    "kind": "user",
    "methods": {},
    "version": 1
  },
  "storageLayout": {
    "storage": [],
    "types": null
  }
}